SEB2009021920090206C70000060010000000000SO SHINY                            00210004000000バートン000000　　　　　　　　　　　　　　　　　　　　　　　　　　　　　　　　　　　　　　　　　　　　　　　　　　　　　　　　　　　　　　　　　　　　　　　　　　　　　　　　　　　　　　　　　　　　595000000000000000キネーン　　　　00       00101001390         0000000000000000000000000000000000000000002006110122アースリヴィング　　　　　　　　　　0000000000　　　　　　　　　　　　　　　　　　0000000000　　　　　　　　　　　　　　　　　　0000000000000000000000
SEB2009021920090206C70000060020000000000SOS BRILLANTE                       00210004000000ビン・ス000000　　　　　　　　　　　　　　　　　　　　　　　　　　　　　　　　　　　　　　　　　　　　　　　　　　　　　　　　　　　　　　　　　　　　　　　　　　　　　　　　　　　　　　　　　　　　595000000000000000ダーカン　　　　00       007070000001        0000000000000000000000000000000000000000000000000000SO SHINY                            0000000000　　　　　　　　　　　　　　　　　　0000000000　　　　　　　　　　　　　　　　　　0000000000000000000000
SEB2009021920090206C70000060030000000000PURPLE SAGE                         00210003000000マーティ000000　　　　　　　　　　　　　　　　　　　　　　　　　　　　　　　　　　　　　　　　　　　　　　　　　　　　　　　　　　　　　　　　　　　　　　　　　　　　　　　　　　　　　　　　　　　　550000000000000000ヒルズ　　　　　00       00303000000 34      0000000000000000000000000000000000000000000000000000SO SHINY                            0000000000　　　　　　　　　　　　　　　　　　0000000000　　　　　　　　　　　　　　　　　　0000000000000000000000
SEB2009021920090206C70000060040000000000ESTA BAILANDO                       00210004000000バートン000000　　　　　　　　　　　　　　　　　　　　　　　　　　　　　　　　　　　　　　　　　　　　　　　　　　　　　　　　　　　　　　　　　　　　　　　　　　　　　　　　　　　　　　　　　　　　595000000000000000ハラ　　　　　　00       00505000000114      0000000000000000000000000000000000000000000000000000SO SHINY                            0000000000　　　　　　　　　　　　　　　　　　0000000000　　　　　　　　　　　　　　　　　　0000000000000000000000
SEB2009021920090206C70000060050000000000EVER LOVED                          00210003000000シーマー000000　　　　　　　　　　　　　　　　　　　　　　　　　　　　　　　　　　　　　　　　　　　　　　　　　　　　　　　　　　　　　　　　　　　　　　　　　　　　　　　　　　　　　　　　　　　　550000000000000000マレン　　　　　00       00404000000314      0000000000000000000000000000000000000000000000000000SO SHINY                            0000000000　　　　　　　　　　　　　　　　　　0000000000　　　　　　　　　　　　　　　　　　0000000000000000000000
SEB2009021920090206C70000060060000000000FIRE SALE                           00210004000000ブラウン000000　　　　　　　　　　　　　　　　　　　　　　　　　　　　　　　　　　　　　　　　　　　　　　　　　　　　　　　　　　　　　　　　　　　　　　　　　　　　　　　　　　　　　　　　　　　　595000000000000000ムーア　　　　　00       00606000000 34      0000000000000000000000000000000000000000000000000000SO SHINY                            0000000000　　　　　　　　　　　　　　　　　　0000000000　　　　　　　　　　　　　　　　　　0000000000000000000000
SEB2009021920090206C70000060070000000000DEVOTEE                             00210003000000ビン・ス000000　　　　　　　　　　　　　　　　　　　　　　　　　　　　　　　　　　　　　　　　　　　　　　　　　　　　　　　　　　　　　　　　　　　　　　　　　　　　　　　　　　　　　　　　　　　　550000000000000000デットー　　　　00       01010000000T        0000000000000000000000000000000000000000000000000000SO SHINY                            0000000000　　　　　　　　　　　　　　　　　　0000000000　　　　　　　　　　　　　　　　　　0000000000000000000000
SEB2009021920090206C70000060080000000000ESTRELA BOA                         00210004000000バリー　000000　　　　　　　　　　　　　　　　　　　　　　　　　　　　　　　　　　　　　　　　　　　　　　　　　　　　　　　　　　　　　　　　　　　　　　　　　　　　　　　　　　　　　　　　　　　　595000000000000000レーメ　　　　　00       00808000000314      0000000000000000000000000000000000000000000000000000SO SHINY                            0000000000　　　　　　　　　　　　　　　　　　0000000000　　　　　　　　　　　　　　　　　　0000000000000000000000
SEB2009021920090206C70000060090000000000INDIA TIBERINA                      00210004000000デコック000000　　　　　　　　　　　　　　　　　　　　　　　　　　　　　　　　　　　　　　　　　　　　　　　　　　　　　　　　　　　　　　　　　　　　　　　　　　　　　　　　　　　　　　　　　　　　595000000000000000シーア　　　　　00       00909000000T        0000000000000000000000000000000000000000000000000000SO SHINY                            0000000000　　　　　　　　　　　　　　　　　　0000000000　　　　　　　　　　　　　　　　　　0000000000000000000000
SEB2009021920090206C70000060102006110122アースリヴィング　　　　　　　　　　06210303101076小笠倫弘148800グリーンファーム　　　　　　　　　　　　　　　　　　　　　　　　緑，黒三本輪　　　　　　　　　　　　　　　　　　　　　　　　　　　　　　　　　　　　　　　　　　　　　　　　　　　　　　550000000000000000ルメール　　　　00       002020000003        0000000000000000000000000000000000000000000000000000SO SHINY                            0000000000　　　　　　　　　　　　　　　　　　0000000000　　　　　　　　　　　　　　　　　　0000000000000000000000
SEB2009032620090109B60000070132000190017ジノラッド　　　　　　　　　　　　　00310409005626パーセル912030Ｊ．パーセル　　　　　　　　　　　　　　　　　　　　　　　　　　　　　　　　　　　　　　　　　　　　　　　　　　　　　　　　　　　　　　　　　　　　　　　　　　　　　　　　　　　　　　515000000000000000ノベル　　　　　00       00012002067         0000000000000000000000000000000000000000000000000000RICH FELLOW                         0000000000　　　　　　　　　　　　　　　　　　0000000000　　　　　　　　　　　　　　　　　　+018000000000000000000
SEB2009032620090203B60000050092000190017ジノラッド　　　　　　　　　　　　　00310409005626パーセル912030Ｊ．パーセル　　　　　　　　　　　　　　　　　　　　　　　　　　　　　　　　　　　　　　　　　　　　　　　　　　　　　　　　　　　　　　　　　　　　　　　　　　　　　　　　　　　　　　530000000000000000ラーソン　　　　00       00006002059         0000000000000000000000000000000000000000000000000000WHISKEY CRUYFF                      0000000000　　　　　　　　　　　　　　　　　　0000000000　　　　　　　　　　　　　　　　　　+014000000000000000000
SEB2009032620090213B60000050092000190017ジノラッド　　　　　　　　　　　　　00310409005626パーセル912030Ｊ．パーセル　　　　　　　　　　　　　　　　　　　　　　　　　　　　　　　　　　　　　　　　　　　　　　　　　　　　　　　　　　　　　　　　　　　　　　　　　　　　　　　　　　　　　　540000000000000000ローズ　　　　　00       00008002321         0000000000000000000000000000000000000000000000000000BALANCE THE BOOKS                   0000000000　　　　　　　　　　　　　　　　　　0000000000　　　　　　　　　　　　　　　　　　+008000000000000000000
SEB2009030220090220C70000070010000000000DEEM                                00210004000000バートン000000　　　　　　　　　　　　　　　　　　　　　　　　　　　　　　　　　　　　　　　　　　　　　　　　　　　　　　　　　　　　　　　　　　　　　　　　　　　　　　　　　　　　　　　　　　　　580000000000000000ハラ　　　　　　00       00505000000212      0000000000000000000000000000000000000000000000000000MY CENTRAL                          0000000000　　　　　　　　　　　　　　　　　　0000000000　　　　　　　　　　　　　　　　　　0000000000000000000000
SEB2009030220090220C70000070020000000000VARSITY                             00210006000000スワン　000000　　　　　　　　　　　　　　　　　　　　　　　　　　　　　　　　　　　　　　　　　　　　　　　　　　　　　　　　　　　　　　　　　　　　　　　　　　　　　　　　　　　　　　　　　　　　570000000000000000ヒューズ　　　　00       00606000000 34      0000000000000000000000000000000000000000000000000000MY CENTRAL                          0000000000　　　　　　　　　　　　　　　　　　0000000000　　　　　　　　　　　　　　　　　　0000000000000000000000
SEB2009030220090220C70000070032005102480ブラックエンブレム　　　　　　　　　00210404101068小島茂之016008田原　邦男　　　　　　　　　　　　　　　　　　　　　　　　　　　水色，黒襷，袖黒二本輪　　　　　　　　　　　　　　　　　　　　　　　　　　　　　　　　　　　　　　　　　　　　　　　　　570000000000000000キネーン　　　　00       00909000000T        0000000000000000000000000000000000000000000000000000MY CENTRAL                          0000000000　　　　　　　　　　　　　　　　　　0000000000　　　　　　　　　　　　　　　　　　0000000000000000000000
SEB2009030220090220C70000070050000000000PEACE ROYALE                        00210004000000ヴェーラ000000　　　　　　　　　　　　　　　　　　　　　　　　　　　　　　　　　　　　　　　　　　　　　　　　　　　　　　　　　　　　　　　　　　　　　　　　　　　　　　　　　　　　　　　　　　　　580000000000000000デットー　　　　00       00404000000 14      0000000000000000000000000000000000000000000000000000MY CENTRAL                          0000000000　　　　　　　　　　　　　　　　　　0000000000　　　　　　　　　　　　　　　　　　0000000000000000000000
SEB2009030220090220C70000070060000000000HAPPY SPIRIT                        00210005000000ブラウン000000　　　　　　　　　　　　　　　　　　　　　　　　　　　　　　　　　　　　　　　　　　　　　　　　　　　　　　　　　　　　　　　　　　　　　　　　　　　　　　　　　　　　　　　　　　　　585000000000000000ムーア　　　　　00       00303000000H        0000000000000000000000000000000000000000000000000000MY CENTRAL                          0000000000　　　　　　　　　　　　　　　　　　0000000000　　　　　　　　　　　　　　　　　　0000000000000000000000
SEB2009030220090220C70000070070000000000MY CENTRAL                          00210005000000ブラウン000000　　　　　　　　　　　　　　　　　　　　　　　　　　　　　　　　　　　　　　　　　　　　　　　　　　　　　　　　　　　　　　　　　　　　　　　　　　　　　　　　　　　　　　　　　　　　570000000000000000ムルタ　　　　　00       00101001510         0000000000000000000000000000000000000000000000000000FRONT HOUSE                         0000000000　　　　　　　　　　　　　　　　　　0000000000　　　　　　　　　　　　　　　　　　0000000000000000000000
SEB2009030220090220C70000070080000000000FRONT HOUSE                         00210004000000デコック000000　　　　　　　　　　　　　　　　　　　　　　　　　　　　　　　　　　　　　　　　　　　　　　　　　　　　　　　　　　　　　　　　　　　　　　　　　　　　　　　　　　　　　　　　　　　　585000000000000000シーア　　　　　00       00202000000114      0000000000000000000000000000000000000000000000000000MY CENTRAL                          0000000000　　　　　　　　　　　　　　　　　　0000000000　　　　　　　　　　　　　　　　　　0000000000000000000000
SEB2009030220090220C70000070090000000000JALMIRA                             00210008000000チャーピ000000　　　　　　　　　　　　　　　　　　　　　　　　　　　　　　　　　　　　　　　　　　　　　　　　　　　　　　　　　　　　　　　　　　　　　　　　　　　　　　　　　　　　　　　　　　　　570000000000000000スマレン　　　　00       00808000000414      0000000000000000000000000000000000000000000000000000MY CENTRAL                          0000000000　　　　　　　　　　　　　　　　　　0000000000　　　　　　　　　　　　　　　　　　0000000000000000000000
SEB2009030920090226C70000060010000000000SO SHINY                            00210004000000バートン000000　　　　　　　　　　　　　　　　　　　　　　　　　　　　　　　　　　　　　　　　　　　　　　　　　　　　　　　　　　　　　　　　　　　　　　　　　　　　　　　　　　　　　　　　　　　　595000000000000000キネーン　　　　00       00404000000 34      0000000000000000000000000000000000000000000000000000DEVOTEE                             0000000000　　　　　　　　　　　　　　　　　　0000000000　　　　　　　　　　　　　　　　　　0000000000000000000000
SEB2009030920090226C70000060020000000000DEVOTEE                             00210003000000ビン・ス000000　　　　　　　　　　　　　　　　　　　　　　　　　　　　　　　　　　　　　　　　　　　　　　　　　　　　　　　　　　　　　　　　　　　　　　　　　　　　　　　　　　　　　　　　　　　　550000000000000000デットー　　　　00       00101001510         0000000000000000000000000000000000000000002006110122アースリヴィング　　　　　　　　　　0000000000　　　　　　　　　　　　　　　　　　0000000000　　　　　　　　　　　　　　　　　　0000000000000000000000
SEB2009030920090226C70000060032006110122アースリヴィング　　　　　　　　　　06210303101076小笠倫弘148800グリーンファーム　　　　　　　　　　　　　　　　　　　　　　　　緑，黒三本輪　　　　　　　　　　　　　　　　　　　　　　　　　　　　　　　　　　　　　　　　　　　　　　　　　　　　　　550000000000000000ルメール　　　　00       00202000000114      0000000000000000000000000000000000000000000000000000DEVOTEE                             0000000000　　　　　　　　　　　　　　　　　　0000000000　　　　　　　　　　　　　　　　　　0000000000000000000000
SEB2009030920090226C70000060040000000000SOS BRILLANTE                       00210004000000ビン・ス000000　　　　　　　　　　　　　　　　　　　　　　　　　　　　　　　　　　　　　　　　　　　　　　　　　　　　　　　　　　　　　　　　　　　　　　　　　　　　　　　　　　　　　　　　　　　　595000000000000000オドノヒ　　　　00       00303000000T        0000000000000000000000000000000000000000000000000000DEVOTEE                             0000000000　　　　　　　　　　　　　　　　　　0000000000　　　　　　　　　　　　　　　　　　0000000000000000000000
SEB2009030920090226C70000060050000000000PURPLE SAGE                         00210003000000マーティ000000　　　　　　　　　　　　　　　　　　　　　　　　　　　　　　　　　　　　　　　　　　　　　　　　　　　　　　　　　　　　　　　　　　　　　　　　　　　　　　　　　　　　　　　　　　　　550000000000000000ヒルズ　　　　　00       00707000000 34      0000000000000000000000000000000000000000000000000000DEVOTEE                             0000000000　　　　　　　　　　　　　　　　　　0000000000　　　　　　　　　　　　　　　　　　0000000000000000000000
SEB2009030920090226C70000060060000000000EVER LOVED                          00210003000000シーマー000000　　　　　　　　　　　　　　　　　　　　　　　　　　　　　　　　　　　　　　　　　　　　　　　　　　　　　　　　　　　　　　　　　　　　　　　　　　　　　　　　　　　　　　　　　　　　550000000000000000マレン　　　　　00       00808000000T        0000000000000000000000000000000000000000000000000000DEVOTEE                             0000000000　　　　　　　　　　　　　　　　　　0000000000　　　　　　　　　　　　　　　　　　0000000000000000000000
SEB2009030920090226C70000060070000000000ESTA BAILANDO                       00210004000000バートン000000　　　　　　　　　　　　　　　　　　　　　　　　　　　　　　　　　　　　　　　　　　　　　　　　　　　　　　　　　　　　　　　　　　　　　　　　　　　　　　　　　　　　　　　　　　　　595000000000000000ハラ　　　　　　00       00606000000214      0000000000000000000000000000000000000000000000000000DEVOTEE                             0000000000　　　　　　　　　　　　　　　　　　0000000000　　　　　　　　　　　　　　　　　　0000000000000000000000
SEB2009030920090226C70000060080000000000FIRE SALE                           00210004000000ブラウン000000　　　　　　　　　　　　　　　　　　　　　　　　　　　　　　　　　　　　　　　　　　　　　　　　　　　　　　　　　　　　　　　　　　　　　　　　　　　　　　　　　　　　　　　　　　　　595000000000000000ムーア　　　　　00       00505000000612      0000000000000000000000000000000000000000000000000000DEVOTEE                             0000000000　　　　　　　　　　　　　　　　　　0000000000　　　　　　　　　　　　　　　　　　0000000000000000000000
SEB2009032620090302B60000080152000190017ジノラッド　　　　　　　　　　　　　00310409005626パーセル912030Ｊ．パーセル　　　　　　　　　　　　　　　　　　　　　　　　　　　　　　　　　　　　　　　　　　　　　　　　　　　　　　　　　　　　　　　　　　　　　　　　　　　　　　　　　　　　　　530000000000000000ローズ　　　　　00       00010002141         0000000000000000000000000000000000000000000000000000JOHAN'S LOVE                        0000000000　　　　　　　　　　　　　　　　　　0000000000　　　　　　　　　　　　　　　　　　+013000000000000000000
SEB2009031620090305C70000080010000000000BLUE KSAR                           00110006000000チャーピ000000　　　　　　　　　　　　　　　　　　　　　　　　　　　　　　　　　　　　　　　　　　　　　　　　　　　　　　　　　　　　　　　　　　　　　　　　　　　　　　　　　　　　　　　　　　　　570000000000000000オシーア　　　　00       00808000000A        0000000000000000000000000000000000000000000000000000BALIUS                              0000000000　　　　　　　　　　　　　　　　　　0000000000　　　　　　　　　　　　　　　　　　0000000000000000000000
SEB2009031620090305C70000080020000000000THIRD SET                           00310006000000シャフヤ000000　　　　　　　　　　　　　　　　　　　　　　　　　　　　　　　　　　　　　　　　　　　　　　　　　　　　　　　　　　　　　　　　　　　　　　　　　　　　　　　　　　　　　　　　　　　　570000000000000000アジュテ　　　　00       01616000000T        0000000000000000000000000000000000000000000000000000BALIUS                              0000000000　　　　　　　　　　　　　　　　　　0000000000　　　　　　　　　　　　　　　　　　0000000000000000000000
SEB2009031620090305C70000080030000000000JAY PEG                             00110006000000ブラウン000000　　　　　　　　　　　　　　　　　　　　　　　　　　　　　　　　　　　　　　　　　　　　　　　　　　　　　　　　　　　　　　　　　　　　　　　　　　　　　　　　　　　　　　　　　　　　595000000000000000マーウィ　　　　00       00202110000114      0000000000000000000000000000000000000000000000000000BALIUS                              0000000000　　　　　　　　　　　　　　　　　　0000000000　　　　　　　　　　　　　　　　　　0000000000000000000000
SEB2009031620090305C70000080040000000000IMBONGI                             00310005000000デコック000000　　　　　　　　　　　　　　　　　　　　　　　　　　　　　　　　　　　　　　　　　　　　　　　　　　　　　　　　　　　　　　　　　　　　　　　　　　　　　　　　　　　　　　　　　　　　585000000000000000シーア　　　　　00       00404000000H        0000000000000000000000000000000000000000000000000000BALIUS                              0000000000　　　　　　　　　　　　　　　　　　0000000000　　　　　　　　　　　　　　　　　　0000000000000000000000
SEB2009031620090305C70000080050000000000STRATEGIC NEWS                      00110006000000ブラウン000000　　　　　　　　　　　　　　　　　　　　　　　　　　　　　　　　　　　　　　　　　　　　　　　　　　　　　　　　　　　　　　　　　　　　　　　　　　　　　　　　　　　　　　　　　　　　570000000000000000ムーア　　　　　00       00707000000 12      0000000000000000000000000000000000000000000000000000BALIUS                              0000000000　　　　　　　　　　　　　　　　　　0000000000　　　　　　　　　　　　　　　　　　0000000000000000000000
SEB2009031620090305C70000080060000000000WORLD RULER                         00310004000000ワトソン000000　　　　　　　　　　　　　　　　　　　　　　　　　　　　　　　　　　　　　　　　　　　　　　　　　　　　　　　　　　　　　　　　　　　　　　　　　　　　　　　　　　　　　　　　　　　　570000000000000000オドノヒ　　　　00       015150000005        0000000000000000000000000000000000000000000000000000BALIUS                              0000000000　　　　　　　　　　　　　　　　　　0000000000　　　　　　　　　　　　　　　　　　0000000000000000000000
SEB2009031620090305C70000080072004104258ウオッカ　　　　　　　　　　　　　　00210305201053角居勝彦764001谷水　雄三　　　　　　　　　　　　　　　　　　　　　　　　　　　黄，水色襷　　　　　　　　　　　　　　　　　　　　　　　　　　　　　　　　　　　　　　　　　　　　　　　　　　　　　　　575000000066600000武豊　　　　　　00       00505000000 34      0000000000000000000000000000000000000000000000000000BALIUS                              0000000000　　　　　　　　　　　　　　　　　　0000000000　　　　　　　　　　　　　　　　　　0000000000000000000000
SEB2009031620090305C70000080080000000000BALIUS                              00110006000000フザイム000000　　　　　　　　　　　　　　　　　　　　　　　　　　　　　　　　　　　　　　　　　　　　　　　　　　　　　　　　　　　　　　　　　　　　　　　　　　　　　　　　　　　　　　　　　　　　570000000000000000サプル　　　　　00       00101001488         0000000000000000000000000000000000000000000000000000JAY PEG                             0000000000RUSSIAN SAGE                        0000000000　　　　　　　　　　　　　　　　　　0000000000000000000000
SEB2009031620090305C70000080090000000000PALLODIO                            00110004000000ワトソン000000　　　　　　　　　　　　　　　　　　　　　　　　　　　　　　　　　　　　　　　　　　　　　　　　　　　　　　　　　　　　　　　　　　　　　　　　　　　　　　　　　　　　　　　　　　　　570000000000000000ガルシア　　　　00       01212000000Z        0000000000000000000000000000000000000000000000000000BALIUS                              0000000000　　　　　　　　　　　　　　　　　　0000000000　　　　　　　　　　　　　　　　　　0000000000000000000000
SEB2009031620090305C70000080100000000000RUSSIAN SAGE                        00110005000000デコック000000　　　　　　　　　　　　　　　　　　　　　　　　　　　　　　　　　　　　　　　　　　　　　　　　　　　　　　　　　　　　　　　　　　　　　　　　　　　　　　　　　　　　　　　　　　　　595000000000000000ムルタ　　　　　00       00202110000D        0000000000000000000000000000000000000000000000000000BALIUS                              0000000000　　　　　　　　　　　　　　　　　　0000000000　　　　　　　　　　　　　　　　　　0000000000000000000000
SEB2009031620090305C70000080110000000000TAM LIN                             00310006000000ビン・ス000000　　　　　　　　　　　　　　　　　　　　　　　　　　　　　　　　　　　　　　　　　　　　　　　　　　　　　　　　　　　　　　　　　　　　　　　　　　　　　　　　　　　　　　　　　　　　585000000000000000デットー　　　　00       01313000000 12      0000000000000000000000000000000000000000000000000000BALIUS                              0000000000　　　　　　　　　　　　　　　　　　0000000000　　　　　　　　　　　　　　　　　　0000000000000000000000
SEB2009031620090305C70000080120000000000VALEDICTUM                          00310009000000オブライ000000　　　　　　　　　　　　　　　　　　　　　　　　　　　　　　　　　　　　　　　　　　　　　　　　　　　　　　　　　　　　　　　　　　　　　　　　　　　　　　　　　　　　　　　　　　　　570000000000000000ダーカン　　　　00       00606000000214      0000000000000000000000000000000000000000000000000000BALIUS                              0000000000　　　　　　　　　　　　　　　　　　0000000000　　　　　　　　　　　　　　　　　　0000000000000000000000
SEB2009031620090305C70000080130000000000VERTIGINEUX                         00110005000000デュフレ000000　　　　　　　　　　　　　　　　　　　　　　　　　　　　　　　　　　　　　　　　　　　　　　　　　　　　　　　　　　　　　　　　　　　　　　　　　　　　　　　　　　　　　　　　　　　　570000000000000000ソゴルブ　　　　00       01010000000114      0000000000000000000000000000000000000000000000000000BALIUS                              0000000000　　　　　　　　　　　　　　　　　　0000000000　　　　　　　　　　　　　　　　　　0000000000000000000000
SEB2009031620090305C70000080140000000000BIARRITZ                            00110006000000デコック000000　　　　　　　　　　　　　　　　　　　　　　　　　　　　　　　　　　　　　　　　　　　　　　　　　　　　　　　　　　　　　　　　　　　　　　　　　　　　　　　　　　　　　　　　　　　　570000000000000000フェイデ　　　　00       00909000000 14      0000000000000000000000000000000000000000000000000000BALIUS                              0000000000　　　　　　　　　　　　　　　　　　0000000000　　　　　　　　　　　　　　　　　　0000000000000000000000
SEB2009031620090305C70000080150000000000SEIHALI                             00110010000000セルバラ000000　　　　　　　　　　　　　　　　　　　　　　　　　　　　　　　　　　　　　　　　　　　　　　　　　　　　　　　　　　　　　　　　　　　　　　　　　　　　　　　　　　　　　　　　　　　　570000000000000000ビュイッ　　　　00       01111000000812      0000000000000000000000000000000000000000000000000000BALIUS                              0000000000　　　　　　　　　　　　　　　　　　0000000000　　　　　　　　　　　　　　　　　　0000000000000000000000
SEB2009031620090305C70000080160000000000MASHAAHED                           00110006000000チャーピ000000　　　　　　　　　　　　　　　　　　　　　　　　　　　　　　　　　　　　　　　　　　　　　　　　　　　　　　　　　　　　　　　　　　　　　　　　　　　　　　　　　　　　　　　　　　　　570000000000000000ヒルズ　　　　　00       01414000000334      0000000000000000000000000000000000000000000000000000BALIUS                              0000000000　　　　　　　　　　　　　　　　　　0000000000　　　　　　　　　　　　　　　　　　0000000000000000000000
SEB2009040620090328C70000040010000000000FORCE FREEZE                        00310004000000ワトソン000000　　　　　　　　　　　　　　　　　　　　　　　　　　　　　　　　　　　　　　　　　　　　　　　　　　　　　　　　　　　　　　　　　　　　　　　　　　　　　　　　　　　　　　　　　　　　570000000000000000ハラ　　　　　　00       00505000000 12      0000000000000000000000000000000000000000000000000000BIG CITY MAN                        0000000000　　　　　　　　　　　　　　　　　　0000000000　　　　　　　　　　　　　　　　　　0000000000000000000000
SEB2009040620090328C70000040020000000000BIG CITY MAN                        00110004000000バートン000000　　　　　　　　　　　　　　　　　　　　　　　　　　　　　　　　　　　　　　　　　　　　　　　　　　　　　　　　　　　　　　　　　　　　　　　　　　　　　　　　　　　　　　　　　　　　570000000000000000ヴェレン　　　　00       00101001089         0000000000000000000000000000000000000000000000000000INDIAN BLESSING                     0000000000　　　　　　　　　　　　　　　　　　0000000000　　　　　　　　　　　　　　　　　　0000000000000000000000
SEB2009040620090328C70000040030000000000DIABOLICAL                          00110006000000ビン・ス000000　　　　　　　　　　　　　　　　　　　　　　　　　　　　　　　　　　　　　　　　　　　　　　　　　　　　　　　　　　　　　　　　　　　　　　　　　　　　　　　　　　　　　　　　　　　　570000000000000000デットー　　　　00       003030000005        0000000000000000000000000000000000000000000000000000BIG CITY MAN                        0000000000　　　　　　　　　　　　　　　　　　0000000000　　　　　　　　　　　　　　　　　　0000000000000000000000
SEB2009040620090328C70000040040000000000LUCKY QUALITY                       00110005000000ツィ　　000000　　　　　　　　　　　　　　　　　　　　　　　　　　　　　　　　　　　　　　　　　　　　　　　　　　　　　　　　　　　　　　　　　　　　　　　　　　　　　　　　　　　　　　　　　　　　570000000000000000ドゥルー　　　　00       00909000000512      0000000000000000000000000000000000000000000000000000BIG CITY MAN                        0000000000　　　　　　　　　　　　　　　　　　0000000000　　　　　　　　　　　　　　　　　　0000000000000000000000
SEB2009040620090328C70000040050000000000CHANGE ALLEY                        00110004000000ライヒ　000000　　　　　　　　　　　　　　　　　　　　　　　　　　　　　　　　　　　　　　　　　　　　　　　　　　　　　　　　　　　　　　　　　　　　　　　　　　　　　　　　　　　　　　　　　　　　570000000000000000フレンチ　　　　00       01010000000H        0000000000000000000000000000000000000000000000000000BIG CITY MAN                        0000000000　　　　　　　　　　　　　　　　　　0000000000　　　　　　　　　　　　　　　　　　0000000000000000000000
SEB2009040620090328C70000040060000000000BLACK SEVENTEEN                     00110005000000コリナー000000　　　　　　　　　　　　　　　　　　　　　　　　　　　　　　　　　　　　　　　　　　　　　　　　　　　　　　　　　　　　　　　　　　　　　　　　　　　　　　　　　　　　　　　　　　　　570000000000000000ポッツ　　　　　00       00606000000 34      0000000000000000000000000000000000000000000000000000BIG CITY MAN                        0000000000　　　　　　　　　　　　　　　　　　0000000000　　　　　　　　　　　　　　　　　　0000000000000000000000
SEB2009040620090328C70000040070000000000MARCHAND D'OR                       00310006000000ヘッド　000000　　　　　　　　　　　　　　　　　　　　　　　　　　　　　　　　　　　　　　　　　　　　　　　　　　　　　　　　　　　　　　　　　　　　　　　　　　　　　　　　　　　　　　　　　　　　570000000000000000ボニヤ　　　　　00       01212000000H        0000000000000000000000000000000000000000000000000000BIG CITY MAN                        0000000000　　　　　　　　　　　　　　　　　　0000000000　　　　　　　　　　　　　　　　　　0000000000000000000000
SEB2009040620090328C70000040080000000000BALTHAZAAR'S GIFT                   00110006000000シンプソ000000　　　　　　　　　　　　　　　　　　　　　　　　　　　　　　　　　　　　　　　　　　　　　　　　　　　　　　　　　　　　　　　　　　　　　　　　　　　　　　　　　　　　　　　　　　　　570000000000000000オドノヒ　　　　00       011110000008        0000000000000000000000000000000000000000000000000000BIG CITY MAN                        0000000000　　　　　　　　　　　　　　　　　　0000000000　　　　　　　　　　　　　　　　　　0000000000000000000000
SEB2009040620090328C70000040090000000000MACHISMO                            00310005000000サドラー000000　　　　　　　　　　　　　　　　　　　　　　　　　　　　　　　　　　　　　　　　　　　　　　　　　　　　　　　　　　　　　　　　　　　　　　　　　　　　　　　　　　　　　　　　　　　　570000000000000000ベイズ　　　　　00       00808000000 14      0000000000000000000000000000000000000000000000000000BIG CITY MAN                        0000000000　　　　　　　　　　　　　　　　　　0000000000　　　　　　　　　　　　　　　　　　0000000000000000000000
SEB2009040620090328C70000040100000000000HAMMADI                             00110004000000ワトソン000000　　　　　　　　　　　　　　　　　　　　　　　　　　　　　　　　　　　　　　　　　　　　　　　　　　　　　　　　　　　　　　　　　　　　　　　　　　　　　　　　　　　　　　　　　　　　570000000000000000ムルタ　　　　　00       00707000000 34      0000000000000000000000000000000000000000000000000000BIG CITY MAN                        0000000000　　　　　　　　　　　　　　　　　　0000000000　　　　　　　　　　　　　　　　　　0000000000000000000000
SEB2009040620090328C70000040112003104100バンブーエール　　　　　　　　　　　00110106201042安達昭夫160800バンブー牧場　　　　　　　　　　　　　　　　　　　　　　　　　　黒，白三本輪，白袖　　　　　　　　　　　　　　　　　　　　　　　　　　　　　　　　　　　　　　　　　　　　　　　　　　　570000000066600000武豊　　　　　　00       00404000000 12      0000000000000000000000000000000000000000000000000000BIG CITY MAN                        0000000000　　　　　　　　　　　　　　　　　　0000000000　　　　　　　　　　　　　　　　　　0000000000000000000000
SEB2009040620090328C70000040120000000000INDIAN BLESSING                     00210004000000バファー000000　　　　　　　　　　　　　　　　　　　　　　　　　　　　　　　　　　　　　　　　　　　　　　　　　　　　　　　　　　　　　　　　　　　　　　　　　　　　　　　　　　　　　　　　　　　　550000000000000000プラード　　　　00       00202000000114      0000000000000000000000000000000000000000000000000000BIG CITY MAN                        0000000000　　　　　　　　　　　　　　　　　　0000000000　　　　　　　　　　　　　　　　　　0000000000000000000000
SEB2009040620090328C70000050010000000000BANKABLE                            00110005000000デコック000000　　　　　　　　　　　　　　　　　　　　　　　　　　　　　　　　　　　　　　　　　　　　　　　　　　　　　　　　　　　　　　　　　　　　　　　　　　　　　　　　　　　　　　　　　　　　570000000000000000ムルタ　　　　　00       00505000000 12      0000000000000000000000000000000000000000000000000000GLADIATORUS                         0000000000　　　　　　　　　　　　　　　　　　0000000000　　　　　　　　　　　　　　　　　　0000000000000000000000
SEB2009040620090328C70000050020000000000GLADIATORUS                         00110004000000シャフヤ000000　　　　　　　　　　　　　　　　　　　　　　　　　　　　　　　　　　　　　　　　　　　　　　　　　　　　　　　　　　　　　　　　　　　　　　　　　　　　　　　　　　　　　　　　　　　　570000000000000000アジュテ　　　　00       00101001469         0000000000000000000000000000000000000000000000000000PRESVIS                             0000000000　　　　　　　　　　　　　　　　　　0000000000　　　　　　　　　　　　　　　　　　0000000000000000000000
SEB2009040620090328C70000050032004104258ウオッカ　　　　　　　　　　　　　　00210305201053角居勝彦764001谷水　雄三　　　　　　　　　　　　　　　　　　　　　　　　　　　黄，水色襷　　　　　　　　　　　　　　　　　　　　　　　　　　　　　　　　　　　　　　　　　　　　　　　　　　　　　　　550000000066600000武豊　　　　　　00       00707000000A        0000000000000000000000000000000000000000000000000000GLADIATORUS                         0000000000　　　　　　　　　　　　　　　　　　0000000000　　　　　　　　　　　　　　　　　　0000000000000000000000
SEB2009040620090328C70000050040000000000NICONERO                            00310008000000ヘイズ　000000　　　　　　　　　　　　　　　　　　　　　　　　　　　　　　　　　　　　　　　　　　　　　　　　　　　　　　　　　　　　　　　　　　　　　　　　　　　　　　　　　　　　　　　　　　　　570000000000000000ウィリア　　　　00       004040000003        0000000000000000000000000000000000000000000000000000GLADIATORUS                         0000000000　　　　　　　　　　　　　　　　　　0000000000　　　　　　　　　　　　　　　　　　0000000000000000000000
SEB2009040620090328C70000050050000000000HYPERBARIC                          00310006000000カナーニ000000　　　　　　　　　　　　　　　　　　　　　　　　　　　　　　　　　　　　　　　　　　　　　　　　　　　　　　　　　　　　　　　　　　　　　　　　　　　　　　　　　　　　　　　　　　　　570000000000000000ベイズ　　　　　00       01414000000 34      0000000000000000000000000000000000000000000000000000GLADIATORUS                         0000000000　　　　　　　　　　　　　　　　　　0000000000　　　　　　　　　　　　　　　　　　0000000000000000000000
SEB2009040620090328C70000050060000000000CREACHADOIR                         00110005000000ビン・ス000000　　　　　　　　　　　　　　　　　　　　　　　　　　　　　　　　　　　　　　　　　　　　　　　　　　　　　　　　　　　　　　　　　　　　　　　　　　　　　　　　　　　　　　　　　　　　570000000000000000ダーカン　　　　00       01515000000112      0000000000000000000000000000000000000000000000000000GLADIATORUS                         0000000000　　　　　　　　　　　　　　　　　　0000000000　　　　　　　　　　　　　　　　　　0000000000000000000000
SEB2009040620090328C70000050070000000000KIP DEVILLE                         00110006000000ダトロー000000　　　　　　　　　　　　　　　　　　　　　　　　　　　　　　　　　　　　　　　　　　　　　　　　　　　　　　　　　　　　　　　　　　　　　　　　　　　　　　　　　　　　　　　　　　　　570000000000000000ヴェラス　　　　00       01010000000134      0000000000000000000000000000000000000000000000000000GLADIATORUS                         0000000000　　　　　　　　　　　　　　　　　　0000000000　　　　　　　　　　　　　　　　　　0000000000000000000000
SEB2009040620090328C70000050080000000000BALIUS                              00110006000000フザイム000000　　　　　　　　　　　　　　　　　　　　　　　　　　　　　　　　　　　　　　　　　　　　　　　　　　　　　　　　　　　　　　　　　　　　　　　　　　　　　　　　　　　　　　　　　　　　570000000000000000サプル　　　　　00       01313000000 34      0000000000000000000000000000000000000000000000000000GLADIATORUS                         0000000000　　　　　　　　　　　　　　　　　　0000000000　　　　　　　　　　　　　　　　　　0000000000000000000000
SEB2009040620090328C70000050090000000000ALEXANDROS                          00110004000000ビン・ス000000　　　　　　　　　　　　　　　　　　　　　　　　　　　　　　　　　　　　　　　　　　　　　　　　　　　　　　　　　　　　　　　　　　　　　　　　　　　　　　　　　　　　　　　　　　　　570000000000000000キネーン　　　　00       003030000002        0000000000000000000000000000000000000000000000000000GLADIATORUS                         0000000000　　　　　　　　　　　　　　　　　　0000000000　　　　　　　　　　　　　　　　　　0000000000000000000000
SEB2009040620090328C70000050100000000000ARCHIPENKO                          00110005000000デコック000000　　　　　　　　　　　　　　　　　　　　　　　　　　　　　　　　　　　　　　　　　　　　　　　　　　　　　　　　　　　　　　　　　　　　　　　　　　　　　　　　　　　　　　　　　　　　570000000000000000シーア　　　　　00       00606000000H        0000000000000000000000000000000000000000000000000000GLADIATORUS                         0000000000　　　　　　　　　　　　　　　　　　0000000000　　　　　　　　　　　　　　　　　　0000000000000000000000
SEB2009040620090328C70000050110000000000TUESDAY JOY                         00210006000000ウォータ000000　　　　　　　　　　　　　　　　　　　　　　　　　　　　　　　　　　　　　　　　　　　　　　　　　　　　　　　　　　　　　　　　　　　　　　　　　　　　　　　　　　　　　　　　　　　　550000000000000000ビードマ　　　　00       00909000000134      0000000000000000000000000000000000000000000000000000GLADIATORUS                         0000000000　　　　　　　　　　　　　　　　　　0000000000　　　　　　　　　　　　　　　　　　0000000000000000000000
SEB2009040620090328C70000050120000000000LADY MARIAN                         00210004000000ビン・ス000000　　　　　　　　　　　　　　　　　　　　　　　　　　　　　　　　　　　　　　　　　　　　　　　　　　　　　　　　　　　　　　　　　　　　　　　　　　　　　　　　　　　　　　　　　　　　550000000000000000デットー　　　　00       016160000004        0000000000000000000000000000000000000000000000000000GLADIATORUS                         0000000000　　　　　　　　　　　　　　　　　　0000000000　　　　　　　　　　　　　　　　　　0000000000000000000000
SEB2009040620090328C70000050130000000000PACO BOY                            00110004000000ハノン　000000　　　　　　　　　　　　　　　　　　　　　　　　　　　　　　　　　　　　　　　　　　　　　　　　　　　　　　　　　　　　　　　　　　　　　　　　　　　　　　　　　　　　　　　　　　　　570000000000000000ヒューズ　　　　00       00808000000 34      0000000000000000000000000000000000000000000000000000GLADIATORUS                         0000000000　　　　　　　　　　　　　　　　　　0000000000　　　　　　　　　　　　　　　　　　0000000000000000000000
SEB2009040620090328C70000050140000000000CHARLIE FARNSBARNS                  00110005000000ミーハン000000　　　　　　　　　　　　　　　　　　　　　　　　　　　　　　　　　　　　　　　　　　　　　　　　　　　　　　　　　　　　　　　　　　　　　　　　　　　　　　　　　　　　　　　　　　　　570000000000000000スペンサ　　　　00       01212000000 14      0000000000000000000000000000000000000000000000000000GLADIATORUS                         0000000000　　　　　　　　　　　　　　　　　　0000000000　　　　　　　　　　　　　　　　　　0000000000000000000000
SEB2009040620090328C70000050150000000000JAY PEG                             00110006000000ブラウン000000　　　　　　　　　　　　　　　　　　　　　　　　　　　　　　　　　　　　　　　　　　　　　　　　　　　　　　　　　　　　　　　　　　　　　　　　　　　　　　　　　　　　　　　　　　　　570000000000000000マーウィ　　　　00       01111000000334      0000000000000000000000000000000000000000000000000000GLADIATORUS                         0000000000　　　　　　　　　　　　　　　　　　0000000000　　　　　　　　　　　　　　　　　　0000000000000000000000
SEB2009040620090328C70000050160000000000PRESVIS                             00310005000000クマーニ000000　　　　　　　　　　　　　　　　　　　　　　　　　　　　　　　　　　　　　　　　　　　　　　　　　　　　　　　　　　　　　　　　　　　　　　　　　　　　　　　　　　　　　　　　　　　　570000000000000000ムーア　　　　　00       00202000000314      0000000000000000000000000000000000000000000000000000GLADIATORUS                         0000000000　　　　　　　　　　　　　　　　　　0000000000　　　　　　　　　　　　　　　　　　0000000000000000000000
SEB2009040620090328C70000070010000000000MUHANNAK                            00310005000000ベケット000000　　　　　　　　　　　　　　　　　　　　　　　　　　　　　　　　　　　　　　　　　　　　　　　　　　　　　　　　　　　　　　　　　　　　　　　　　　　　　　　　　　　　　　　　　　　　570000000000000000ムーア　　　　　00       01010000000114      0000000000000000000000000000000000000000000000000000WELL ARMED                          0000000000　　　　　　　　　　　　　　　　　　0000000000　　　　　　　　　　　　　　　　　　0000000000000000000000
SEB2009040620090328C70000070020000000000ARSON SQUAD                         00310006000000ダトロー000000　　　　　　　　　　　　　　　　　　　　　　　　　　　　　　　　　　　　　　　　　　　　　　　　　　　　　　　　　　　　　　　　　　　　　　　　　　　　　　　　　　　　　　　　　　　　570000000000000000プラード　　　　00       01111000000114      0000000000000000000000000000000000000000000000000000WELL ARMED                          0000000000　　　　　　　　　　　　　　　　　　0000000000　　　　　　　　　　　　　　　　　　0000000000000000000000
SEB2009040620090328C70000070030000000000SNAAFY                              00110005000000ムハイリ000000　　　　　　　　　　　　　　　　　　　　　　　　　　　　　　　　　　　　　　　　　　　　　　　　　　　　　　　　　　　　　　　　　　　　　　　　　　　　　　　　　　　　　　　　　　　　570000000000000000ヒルズ　　　　　00       00707000000 12      0000000000000000000000000000000000000000000000000000WELL ARMED                          0000000000　　　　　　　　　　　　　　　　　　0000000000　　　　　　　　　　　　　　　　　　0000000000000000000000
SEB2009040620090328C70000070040000000000ASIATIC BOY                         00110006000000デコック000000　　　　　　　　　　　　　　　　　　　　　　　　　　　　　　　　　　　　　　　　　　　　　　　　　　　　　　　　　　　　　　　　　　　　　　　　　　　　　　　　　　　　　　　　　　　　570000000000000000ムルタ　　　　　00       01212000000314      0000000000000000000000000000000000000000000000000000WELL ARMED                          0000000000　　　　　　　　　　　　　　　　　　0000000000　　　　　　　　　　　　　　　　　　0000000000000000000000
SEB2009040620090328C70000070050000000000HAPPY BOY                           00110006000000シャフヤ000000　　　　　　　　　　　　　　　　　　　　　　　　　　　　　　　　　　　　　　　　　　　　　　　　　　　　　　　　　　　　　　　　　　　　　　　　　　　　　　　　　　　　　　　　　　　　570000000000000000アジュテ　　　　00       00909000000 12      0000000000000000000000000000000000000000000000000000WELL ARMED                          0000000000　　　　　　　　　　　　　　　　　　0000000000　　　　　　　　　　　　　　　　　　0000000000000000000000
SEB2009040620090328C70000070060000000000GLORIA DE CAMPEAO                   00110006000000バリー　000000　　　　　　　　　　　　　　　　　　　　　　　　　　　　　　　　　　　　　　　　　　　　　　　　　　　　　　　　　　　　　　　　　　　　　　　　　　　　　　　　　　　　　　　　　　　　570000000000000000レーメ　　　　　00       00202000000T        0000000000000000000000000000000000000000000000000000WELL ARMED                          0000000000　　　　　　　　　　　　　　　　　　0000000000　　　　　　　　　　　　　　　　　　0000000000000000000000
SEB2009040620090328C70000070070000000000WELL ARMED                          00310006000000ハーティ000000　　　　　　　　　　　　　　　　　　　　　　　　　　　　　　　　　　　　　　　　　　　　　　　　　　　　　　　　　　　　　　　　　　　　　　　　　　　　　　　　　　　　　　　　　　　　570000000000000000グライダ　　　　00       00101002010         0000000000000000000000000000000000000000000000000000GLORIA DE CAMPEAO                   0000000000　　　　　　　　　　　　　　　　　　0000000000　　　　　　　　　　　　　　　　　　0000000000000000000000
SEB2009040620090328C70000070082005110112カジノドライヴ　　　　　　　　　　　06110104100386藤沢和雄124008山本　英俊　　　　　　　　　　　　　　　　　　　　　　　　　　　水色，袖白一本輪　　　　　　　　　　　　　　　　　　　　　　　　　　　　　　　　　　　　　　　　　　　　　　　　　　　　570000000094500000安藤勝己　　　　00       00808000000214      0000000000000000000000000000000000000000000000000000WELL ARMED                          0000000000　　　　　　　　　　　　　　　　　　0000000000　　　　　　　　　　　　　　　　　　0000000000000000000000
SEB2009040620090328C70000070090000000000JOE LOUIS                           00110006000000バートン000000　　　　　　　　　　　　　　　　　　　　　　　　　　　　　　　　　　　　　　　　　　　　　　　　　　　　　　　　　　　　　　　　　　　　　　　　　　　　　　　　　　　　　　　　　　　　570000000000000000ラモス　　　　　00       01313000000 34      0000000000000000000000000000000000000000000000000000WELL ARMED                          0000000000　　　　　　　　　　　　　　　　　　0000000000　　　　　　　　　　　　　　　　　　0000000000000000000000
SEB2009040620090328C70000070100000000000ALBERTUS MAXIMUS                    00110005000000マクラク000000　　　　　　　　　　　　　　　　　　　　　　　　　　　　　　　　　　　　　　　　　　　　　　　　　　　　　　　　　　　　　　　　　　　　　　　　　　　　　　　　　　　　　　　　　　　　570000000000000000ガルシア　　　　00       00606000000134      0000000000000000000000000000000000000000000000000000WELL ARMED                          0000000000　　　　　　　　　　　　　　　　　　0000000000　　　　　　　　　　　　　　　　　　0000000000000000000000
SEB2009040620090328C70000070110000000000MULLER                              00310006000000ブラス　000000　　　　　　　　　　　　　　　　　　　　　　　　　　　　　　　　　　　　　　　　　　　　　　　　　　　　　　　　　　　　　　　　　　　　　　　　　　　　　　　　　　　　　　　　　　　　570000000000000000マーウィ　　　　00       00404000000 12      0000000000000000000000000000000000000000000000000000WELL ARMED                          0000000000　　　　　　　　　　　　　　　　　　0000000000　　　　　　　　　　　　　　　　　　0000000000000000000000
SEB2009040620090328C70000070120000000000ANAK NAKAL                          00110004000000ジト　　000000　　　　　　　　　　　　　　　　　　　　　　　　　　　　　　　　　　　　　　　　　　　　　　　　　　　　　　　　　　　　　　　　　　　　　　　　　　　　　　　　　　　　　　　　　　　　570000000000000000ブラボ　　　　　00       01414000000712      0000000000000000000000000000000000000000000000000000WELL ARMED                          0000000000　　　　　　　　　　　　　　　　　　0000000000　　　　　　　　　　　　　　　　　　0000000000000000000000
SEB2009040620090328C70000070130000000000PARIS PERFECT                       00110005000000ブラス　000000　　　　　　　　　　　　　　　　　　　　　　　　　　　　　　　　　　　　　　　　　　　　　　　　　　　　　　　　　　　　　　　　　　　　　　　　　　　　　　　　　　　　　　　　　　　　570000000000000000フェイデ　　　　00       00303000000412      0000000000000000000000000000000000000000000000000000WELL ARMED                          0000000000　　　　　　　　　　　　　　　　　　0000000000　　　　　　　　　　　　　　　　　　0000000000000000000000
SEB2009040620090328C70000070140000000000MY INDY                             00110005000000ビン・ス000000　　　　　　　　　　　　　　　　　　　　　　　　　　　　　　　　　　　　　　　　　　　　　　　　　　　　　　　　　　　　　　　　　　　　　　　　　　　　　　　　　　　　　　　　　　　　570000000000000000デットー　　　　00       00505000000312      0000000000000000000000000000000000000000000000000000WELL ARMED                          0000000000　　　　　　　　　　　　　　　　　　0000000000　　　　　　　　　　　　　　　　　　0000000000000000000000
SEB2009053120090315G00000080032001190011アルマダ　　　　　　　　　　　　　　00310108005611サイズ　490030Ｙ．ウォン　　　　　　　　　　　　　　　　　　　　　　　　　　　　　　　　　　　　　　　　　　　　　　　　　　　　　　　　　　　　　　　　　　　　　　　　　　　　　　　　　　　　　　　570000000000000000サンマル　　　　00       00505001216         0000000000000000000000000000000000000000000000000000EGYPTIAN RA                         0000000000　　　　　　　　　　　　　　　　　　0000000000　　　　　　　　　　　　　　　　　　+006000000000000000000
SEB2009053120090405G00000080032001190011アルマダ　　　　　　　　　　　　　　00310108005611サイズ　490030Ｙ．ウォン　　　　　　　　　　　　　　　　　　　　　　　　　　　　　　　　　　　　　　　　　　　　　　　　　　　　　　　　　　　　　　　　　　　　　　　　　　　　　　　　　　　　　　　560000000000000000デュプレ　　　　00       00404001340         0000000000000000000000000000000000000000000000000000MORE BOUNTIFUL                      0000000000　　　　　　　　　　　　　　　　　　0000000000　　　　　　　　　　　　　　　　　　+004000000000000000000
SEB2009052820090517M00000090010000000000JAY PEG                             00110006000000ブラウン000000　　　　　　　　　　　　　　　　　　　　　　　　　　　　　　　　　　　　　　　　　　　　　　　　　　　　　　　　　　　　　　　　　　　　　　　　　　　　　　　　　　　　　　　　　　　　570000000000000000マーカス　　　　00       01212000000         0000000000000000000000000000000000000000000000000000GLORIA DE CAMPEAO                   0000000000　　　　　　　　　　　　　　　　　　0000000000　　　　　　　　　　　　　　　　　　0000000000000000000000
SEB2009052820090517M00000090020000000000PRESVIS                             00310005000000クマーニ000000　　　　　　　　　　　　　　　　　　　　　　　　　　　　　　　　　　　　　　　　　　　　　　　　　　　　　　　　　　　　　　　　　　　　　　　　　　　　　　　　　　　　　　　　　　　　570000000000000000ムーア　　　　　00       00202000000A        0000000000000000000000000000000000000000000000000000GLORIA DE CAMPEAO                   0000000000　　　　　　　　　　　　　　　　　　0000000000　　　　　　　　　　　　　　　　　　0000000000000000000000
SEB2009052820090517M00000090030000000000POMPEII RULER                       00310007000000プライス000000　　　　　　　　　　　　　　　　　　　　　　　　　　　　　　　　　　　　　　　　　　　　　　　　　　　　　　　　　　　　　　　　　　　　　　　　　　　　　　　　　　　　　　　　　　　　570000000000000000ニューイ　　　　00       00404000000         0000000000000000000000000000000000000000000000000000GLORIA DE CAMPEAO                   0000000000　　　　　　　　　　　　　　　　　　0000000000　　　　　　　　　　　　　　　　　　0000000000000000000000
SEB2009052820090517M00000090040000000000BALIUS                              00110006000000ビン・ス000000　　　　　　　　　　　　　　　　　　　　　　　　　　　　　　　　　　　　　　　　　　　　　　　　　　　　　　　　　　　　　　　　　　　　　　　　　　　　　　　　　　　　　　　　　　　　570000000000000000デットー　　　　00       00707000000         0000000000000000000000000000000000000000000000000000GLORIA DE CAMPEAO                   0000000000　　　　　　　　　　　　　　　　　　0000000000　　　　　　　　　　　　　　　　　　0000000000000000000000
SEB2009052820090517M00000090050000000000BANKABLE                            00110005000000デコック000000　　　　　　　　　　　　　　　　　　　　　　　　　　　　　　　　　　　　　　　　　　　　　　　　　　　　　　　　　　　　　　　　　　　　　　　　　　　　　　　　　　　　　　　　　　　　570000000000000000シーア　　　　　00       00303000000         0000000000000000000000000000000000000000000000000000GLORIA DE CAMPEAO                   0000000000　　　　　　　　　　　　　　　　　　0000000000　　　　　　　　　　　　　　　　　　0000000000000000000000
SEB2009052820090517M00000090060000000000SARRERA                             00310009000000マロニー000000　　　　　　　　　　　　　　　　　　　　　　　　　　　　　　　　　　　　　　　　　　　　　　　　　　　　　　　　　　　　　　　　　　　　　　　　　　　　　　　　　　　　　　　　　　　　570000000000000000ウィリア　　　　00       00606000000         0000000000000000000000000000000000000000000000000000GLORIA DE CAMPEAO                   0000000000　　　　　　　　　　　　　　　　　　0000000000　　　　　　　　　　　　　　　　　　0000000000000000000000
SEB2009052820090517M00000090070000000000GLORIA DE CAMPEAO                   00110006000000バリー　000000　　　　　　　　　　　　　　　　　　　　　　　　　　　　　　　　　　　　　　　　　　　　　　　　　　　　　　　　　　　　　　　　　　　　　　　　　　　　　　　　　　　　　　　　　　　　570000000000000000ペレイラ　　　　00       00101001592         0000000000000000000000000000000000000000000000000000PRESVIS                             0000000000　　　　　　　　　　　　　　　　　　0000000000　　　　　　　　　　　　　　　　　　0000000000000000000000
SEB2009052820090517M00000090080000000000TOP SPIN                            00310006000000ラクソン000000　　　　　　　　　　　　　　　　　　　　　　　　　　　　　　　　　　　　　　　　　　　　　　　　　　　　　　　　　　　　　　　　　　　　　　　　　　　　　　　　　　　　　　　　　　　　570000000000000000パウエル　　　　00       01010000000         0000000000000000000000000000000000000000000000000000GLORIA DE CAMPEAO                   0000000000　　　　　　　　　　　　　　　　　　0000000000　　　　　　　　　　　　　　　　　　0000000000000000000000
SEB2009052820090517M00000090090000000000THE HORNET                          00310005000000ドラゴン000000　　　　　　　　　　　　　　　　　　　　　　　　　　　　　　　　　　　　　　　　　　　　　　　　　　　　　　　　　　　　　　　　　　　　　　　　　　　　　　　　　　　　　　　　　　　　570000000000000000モレイラ　　　　00       00808000000         0000000000000000000000000000000000000000000000000000GLORIA DE CAMPEAO                   0000000000　　　　　　　　　　　　　　　　　　0000000000　　　　　　　　　　　　　　　　　　0000000000000000000000
SEB2009052820090517M00000090102004103279タスカータソルテ　　　　　　　　　　00110405201055藤原英昭415800社台レースホース　　　　　　　　　　　　　　　　　　　　　　　　黄，黒縦縞，袖青一本輪　　　　　　　　　　　　　　　　　　　　　　　　　　　　　　　　　　　　　　　　　　　　　　　　　570000000520300000岩田康誠　　　　00459    00505001599K        0000000000000000000000000000000000000000000000000000GLORIA DE CAMPEAO                   0000000000　　　　　　　　　　　　　　　　　　0000000000　　　　　　　　　　　　　　　　　　+007000000000000000000
SEB2009052820090517M00000090110000000000EL DORADO                           00310005000000高岡秀行000000　　　　　　　　　　　　　　　　　　　　　　　　　　　　　　　　　　　　　　　　　　　　　　　　　　　　　　　　　　　　　　　　　　　　　　　　　　　　　　　　　　　　　　　　　　　　570000000000000000スチュア　　　　00       00909000000         0000000000000000000000000000000000000000000000000000GLORIA DE CAMPEAO                   0000000000　　　　　　　　　　　　　　　　　　0000000000　　　　　　　　　　　　　　　　　　0000000000000000000000
SEB2009052820090517M00000090120000000000RICOCO                              00310005000000ショー　000000　　　　　　　　　　　　　　　　　　　　　　　　　　　　　　　　　　　　　　　　　　　　　　　　　　　　　　　　　　　　　　　　　　　　　　　　　　　　　　　　　　　　　　　　　　　　570000000000000000フラッド　　　　00       01111000000         0000000000000000000000000000000000000000000000000000GLORIA DE CAMPEAO                   0000000000　　　　　　　　　　　　　　　　　　0000000000　　　　　　　　　　　　　　　　　　0000000000000000000000
SEB2009060420090124G00000080112003190009サイトウィナー　　　　　　　　　　　00310306005611サイズ　998030Ｗ．タム　　　　　　　　　　　　　　　　　　　　　　　　　　　　　　　　　　　　　　　　　　　　　　　　　　　　　　　　　　　　　　　　　　　　　　　　　　　　　　　　　　　　　　　　570000000000000000モッセ　　　　　00       00606001340         0000000000000000000000000000000000000000002002190003グッドババ　　　　　　　　　　　　　0000000000　　　　　　　　　　　　　　　　　　0000000000　　　　　　　　　　　　　　　　　　+008000000000000000000
SEB2009060420090208G00000080032003190009サイトウィナー　　　　　　　　　　　00310306005611サイズ　998030Ｗ．タム　　　　　　　　　　　　　　　　　　　　　　　　　　　　　　　　　　　　　　　　　　　　　　　　　　　　　　　　　　　　　　　　　　　　　　　　　　　　　　　　　　　　　　　　560000000000000000ホワイト　　　　00       00505001476         0000000000000000000000000000000000000000000000000000EYSHAL                              0000000000　　　　　　　　　　　　　　　　　　0000000000　　　　　　　　　　　　　　　　　　+004000000000000000000
SEB2009060420090222G00000070052003190009サイトウィナー　　　　　　　　　　　00310306005611サイズ　998030Ｗ．タム　　　　　　　　　　　　　　　　　　　　　　　　　　　　　　　　　　　　　　　　　　　　　　　　　　　　　　　　　　　　　　　　　　　　　　　　　　　　　　　　　　　　　　　　570000000000000000モッセ　　　　　00       00606002052         0000000000000000000000000000000000000000000000000000VIVA PATACA                         0000000000　　　　　　　　　　　　　　　　　　0000000000　　　　　　　　　　　　　　　　　　+006000000000000000000
SEB2009060420090315G00000080132003190009サイトウィナー　　　　　　　　　　　00310306005611サイズ　998030Ｗ．タム　　　　　　　　　　　　　　　　　　　　　　　　　　　　　　　　　　　　　　　　　　　　　　　　　　　　　　　　　　　　　　　　　　　　　　　　　　　　　　　　　　　　　　　　570000000000000000ドイル　　　　　00       00404001216         0000000000000000000000000000000000000000000000000000EGYPTIAN RA                         0000000000　　　　　　　　　　　　　　　　　　0000000000　　　　　　　　　　　　　　　　　　+006000000000000000000
SEB2009060420090405G00000080082003190009サイトウィナー　　　　　　　　　　　00310306005611サイズ　998030Ｗ．タム　　　　　　　　　　　　　　　　　　　　　　　　　　　　　　　　　　　　　　　　　　　　　　　　　　　　　　　　　　　　　　　　　　　　　　　　　　　　　　　　　　　　　　　　560000000000000000ユン　　　　　　00       00505001340         0000000000000000000000000000000000000000000000000000MORE BOUNTIFUL                      0000000000　　　　　　　　　　　　　　　　　　0000000000　　　　　　　　　　　　　　　　　　+004000000000000000000
SEB2009060420090426G00000070052001190011アルマダ　　　　　　　　　　　　　　00310108005611サイズ　490030Ｙ．ウォン　　　　　　　　　　　　　　　　　　　　　　　　　　　　　　　　　　　　　　　　　　　　　　　　　　　　　　　　　　　　　　　　　　　　　　　　　　　　　　　　　　　　　　　570000000000000000サンマル　　　　00504    00909001354         0000000000000000000000000000000000000000002003190009サイトウィナー　　　　　　　　　　　0000000000　　　　　　　　　　　　　　　　　　0000000000　　　　　　　　　　　　　　　　　　+005000000000000000000
SEB2009060420090426G00000070092003190009サイトウィナー　　　　　　　　　　　00310306005611サイズ　998030Ｗ．タム　　　　　　　　　　　　　　　　　　　　　　　　　　　　　　　　　　　　　　　　　　　　　　　　　　　　　　　　　　　　　　　　　　　　　　　　　　　　　　　　　　　　　　　　570000000000000000プレブル　　　　00486    00101001349         0000000000000000000000000000000000000000000000000000EGYPTIAN RA                         0000000000　　　　　　　　　　　　　　　　　　0000000000　　　　　　　　　　　　　　　　　　-000000000000000000000
SEB2009100120090110B60000020012004190004シーニックブラスト　　　　　　　　　00310305005631モートン237030Ｅ．ガランテ　　　　　　　　　　　　　　　　　　　　　　　　　　　　　　　　　　　　　　　　　　　　　　　　　　　　　　　　　　　　　　　　　　　　　　　　　　　　　　　　　　　　　　610000000000000000ブラウン　　　　00       000020010384        0000000000000000000000000000000000000000000000000000DANTE'S VOLONTE                     0000000000　　　　　　　　　　　　　　　　　　0000000000　　　　　　　　　　　　　　　　　　+007000000000000000000
SEB2009100120090131B60000060052004190004シーニックブラスト　　　　　　　　　00310305005631モートン237030Ｅ．ガランテ　　　　　　　　　　　　　　　　　　　　　　　　　　　　　　　　　　　　　　　　　　　　　　　　　　　　　　　　　　　　　　　　　　　　　　　　　　　　　　　　　　　　　　585000000000000000アーノル　　　　00       00001000569         0000000000000000000000000000000000000000000000000000TYPHOON ZED                         0000000000　　　　　　　　　　　　　　　　　　0000000000　　　　　　　　　　　　　　　　　　0000000000000000000000
SEB2009100120090221B60000060012004190004シーニックブラスト　　　　　　　　　00310305005631モートン237030Ｅ．ガランテ　　　　　　　　　　　　　　　　　　　　　　　　　　　　　　　　　　　　　　　　　　　　　　　　　　　　　　　　　　　　　　　　　　　　　　　　　　　　　　　　　　　　　　570000000000000000アーノル　　　　00       00005001033         0000000000000000000000000000000000000000000000000000SWISS ACE                           0000000000　　　　　　　　　　　　　　　　　　0000000000　　　　　　　　　　　　　　　　　　+005000000000000000000
SEB2009100120090307B60000060012004190004シーニックブラスト　　　　　　　　　00310305005631モートン237030Ｅ．ガランテ　　　　　　　　　　　　　　　　　　　　　　　　　　　　　　　　　　　　　　　　　　　　　　　　　　　　　　　　　　　　　　　　　　　　　　　　　　　　　　　　　　　　　　570000000000000000アーノル　　　　00       00001001087         0000000000000000000000000000000000000000000000000000SWISS ACE                           0000000000　　　　　　　　　　　　　　　　　　0000000000　　　　　　　　　　　　　　　　　　0000000000000000000000
SEB2009100120090616A60000020152004190004シーニックブラスト　　　　　　　　　00310305005631モートン237030Ｅ．ガランテ　　　　　　　　　　　　　　　　　　　　　　　　　　　　　　　　　　　　　　　　　　　　　　　　　　　　　　　　　　　　　　　　　　　　　　　　　　　　　　　　　　　　　　590000000000000000アーノル　　　　00       00001000595         0000000000000000000000000000000000000000000000000000FLEETING SPIRIT                     0000000000　　　　　　　　　　　　　　　　　　0000000000　　　　　　　　　　　　　　　　　　0000000000000000000000
SEB2009100120090710A60000040022004190004シーニックブラスト　　　　　　　　　00310305005631モートン237030Ｅ．ガランテ　　　　　　　　　　　　　　　　　　　　　　　　　　　　　　　　　　　　　　　　　　　　　　　　　　　　　　　　　　　　　　　　　　　　　　　　　　　　　　　　　　　　　　595000000000000000アーノル　　　　00       00010001106         0000000000000000000000000000000000000000000000000000FLEETING SPIRIT                     0000000000　　　　　　　　　　　　　　　　　　0000000000　　　　　　　　　　　　　　　　　　+011000000000000000000
SEB2009112620090108A40000070062003190010ジャストアズウェル　　　　　　　　　00110406005292シェパー229030Ｊ．シェパード　　　　　　　　　　　　　　　　　　　　　　　　　　　　　　　　　　　　　　　　　　　　　　　　　　　　　　　　　　　　　　　　　　　　　　　　　　　　　　　　　　　　　555000000000000000ヴェラス　　　　00       00008001414         0000000000000000000000000000000000000000000000000000BALTIMORE BOB                       0000000000　　　　　　　　　　　　　　　　　　0000000000　　　　　　　　　　　　　　　　　　+005000000000000000000
SEB2009112620090119A40000080032003190005マーシュサイド　　　　　　　　　　　00110406005380ドライス573030Ｒ．エヴァンス　　　　　　　　　　　　　　　　　　　　　　　　　　　　　　　　　　　　　　　　　　　　　　　　　　　　　　　　　　　　　　　　　　　　　　　　　　　　　　　　　　　　　560000000000000000カステリ　　　　00       00007001599         0000000000000000000000000000000000000000002001190009アルティストロワイヤル　　　　　　　0000000000　　　　　　　　　　　　　　　　　　0000000000　　　　　　　　　　　　　　　　　　+008000000000000000000
SEB2009112620090201A40000090012003190010ジャストアズウェル　　　　　　　　　00110406005292シェパー229030Ｊ．シェパード　　　　　　　　　　　　　　　　　　　　　　　　　　　　　　　　　　　　　　　　　　　　　　　　　　　　　　　　　　　　　　　　　　　　　　　　　　　　　　　　　　　　　510000000000000000ルパルー　　　　00       00002001458 34      0000000000000000000000000000000000000000000000000000KIP DEVILLE                         0000000000　　　　　　　　　　　　　　　　　　0000000000　　　　　　　　　　　　　　　　　　+001000000000000000000
SEB2009111920090205C70000050012005190004エヴァズリクエスト　　　　　　　　　00210104005188シャノン212030Ｌ．マルライアン　　　　　　　　　　　　　　　　　　　　　　　　　　　　　　　　　　　　　　　　　　　　　　　　　　　　　　　　　　　　　　　　　　　　　　　　　　　　　　　　　　　　570000000000000000ダーカン　　　　00       00003001394         0000000000000000000000000000000000000000000000000000DEEM                                0000000000　　　　　　　　　　　　　　　　　　0000000000　　　　　　　　　　　　　　　　　　+005000000000000000000
SEB2009111920090220C70000070042005190004エヴァズリクエスト　　　　　　　　　00210104005188シャノン212030Ｌ．マルライアン　　　　　　　　　　　　　　　　　　　　　　　　　　　　　　　　　　　　　　　　　　　　　　　　　　　　　　　　　　　　　　　　　　　　　　　　　　　　　　　　　　　　570000000000000000ダーカン　　　　00       007070015265        0000000000000000000000000000000000000000000000000000MY CENTRAL                          0000000000　　　　　　　　　　　　　　　　　　0000000000　　　　　　　　　　　　　　　　　　+016000000000000000000
SEB2009112620090221A60000050032005190005シンティロ　　　　　　　　　　　　　00110104005634ハノン　000000　　　　　　　　　　　　　　　　　　　　　　　　　　　　　　　　　　　　　　　　　　　　　　　　　　　　　　　　　　　　　　　　　　　　　　　　　　　　　　　　　　　　　　　　　　　　565000000000000000ヒューズ　　　　00       00003002059         0000000000000000000000000000000000000000000000000000RE BAROLO                           0000000000　　　　　　　　　　　　　　　　　　0000000000　　　　　　　　　　　　　　　　　　+002000000000000000000
SEB2009112620090228A40000080082003190010ジャストアズウェル　　　　　　　　　00110406005292シェパー229030Ｊ．シェパード　　　　　　　　　　　　　　　　　　　　　　　　　　　　　　　　　　　　　　　　　　　　　　　　　　　　　　　　　　　　　　　　　　　　　　　　　　　　　　　　　　　　　535000000000000000ルパルー　　　　00       00007001349         0000000000000000000000000000000000000000000000000000TWILIGHT METEOR                     0000000000　　　　　　　　　　　　　　　　　　0000000000　　　　　　　　　　　　　　　　　　+006000000000000000000
SEB2009112920090301A40000100082006190002サマーバード　　　　　　　　　　　　00110103000000アイス　000000　　　　　　　　　　　　　　　　　　　　　　　　　　　　　　　　　　　　　　　　　　　　　　　　　　　　　　　　　　　　　　　　　　　　　　　　　　　　　　　　　　　　　　　　　　　　550000000000000000ロジアー　　　　00       00004001117         0000000000000000000000000000000000000000000000000000NEMO LANDING                        0000000000　　　　　　　　　　　　　　　　　　0000000000　　　　　　　　　　　　　　　　　　+002000000000000000000
SEB2009112620090318A60000040062005190005シンティロ　　　　　　　　　　　　　00110104005634ハノン　000000　　　　　　　　　　　　　　　　　　　　　　　　　　　　　　　　　　　　　　　　　　　　　　　　　　　　　　　　　　　　　　　　　　　　　　　　　　　　　　　　　　　　　　　　　　　　570000000000000000ヒューズ　　　　00       00001002324         0000000000000000000000000000000000000000000000000000BAYLINI                             0000000000　　　　　　　　　　　　　　　　　　0000000000　　　　　　　　　　　　　　　　　　0000000000000000000000
SEB2009112920090319A40000080072006190002サマーバード　　　　　　　　　　　　00110103000000アイス　000000　　　　　　　　　　　　　　　　　　　　　　　　　　　　　　　　　　　　　　　　　　　　　　　　　　　　　　　　　　　　　　　　　　　　　　　　　　　　　　　　　　　　　　　　　　　　550000000000000000ロジアー　　　　00       00001001447         0000000000000000000000000000000000000000000000000000LUV GOV                             0000000000　　　　　　　　　　　　　　　　　　0000000000　　　　　　　　　　　　　　　　　　0000000000000000000000
SEB2009112620090321A60000040102005190005シンティロ　　　　　　　　　　　　　00110104005634ハノン　000000　　　　　　　　　　　　　　　　　　　　　　　　　　　　　　　　　　　　　　　　　　　　　　　　　　　　　　　　　　　　　　　　　　　　　　　　　　　　　　　　　　　　　　　　　　　　570000000000000000ヒューズ　　　　00       00001002037         0000000000000000000000000000000000000000000000000000PREMIO LOCO                         0000000000　　　　　　　　　　　　　　　　　　0000000000　　　　　　　　　　　　　　　　　　0000000000000000000000
SEB2009111920090328A60000040072005190004エヴァズリクエスト　　　　　　　　　00210104005188シャノン212030Ｌ．マルライアン　　　　　　　　　　　　　　　　　　　　　　　　　　　　　　　　　　　　　　　　　　　　　　　　　　　　　　　　　　　　　　　　　　　　　　　　　　　　　　　　　　　　570000000000000000ゲラン　　　　　00       00013001388         0000000000000000000000000000000000000000000000000000EXPRESSO STAR                       0000000000　　　　　　　　　　　　　　　　　　0000000000　　　　　　　　　　　　　　　　　　+023000000000000000000
SEB2009112620090328C70000060082003190005マーシュサイド　　　　　　　　　　　00110406005380ドライス573030Ｒ．エヴァンス　　　　　　　　　　　　　　　　　　　　　　　　　　　　　　　　　　　　　　　　　　　　　　　　　　　　　　　　　　　　　　　　　　　　　　　　　　　　　　　　　　　　　570000000000000000プラード　　　　00       00005002328         0000000000000000000000000000000000000000000000000000EASTERN ANTHEM                      0000000000　　　　　　　　　　　　　　　　　　0000000000　　　　　　　　　　　　　　　　　　+010000000000000000000
SEB2009112620090410A40000090062003190010ジャストアズウェル　　　　　　　　　00110406005292シェパー229030Ｊ．シェパード　　　　　　　　　　　　　　　　　　　　　　　　　　　　　　　　　　　　　　　　　　　　　　　　　　　　　　　　　　　　　　　　　　　　　　　　　　　　　　　　　　　　　530000000000000000ルパルー　　　　00       00003001428         0000000000000000000000000000000000000000000000000000MR. SIDNEY                          0000000000　　　　　　　　　　　　　　　　　　0000000000　　　　　　　　　　　　　　　　　　+010000000000000000000
SEB2009112920090411A40000110072006190002サマーバード　　　　　　　　　　　　00110103000000アイス　000000　　　　　　　　　　　　　　　　　　　　　　　　　　　　　　　　　　　　　　　　　　　　　　　　　　　　　　　　　　　　　　　　　　　　　　　　　　　　　　　　　　　　　　　　　　　　540000000000000000ロジアー　　　　00       00003001492         0000000000000000000000000000000000000000000000000000PAPA CLEM                           0000000000　　　　　　　　　　　　　　　　　　0000000000　　　　　　　　　　　　　　　　　　+002000000000000000000
SEB2009112620090418A60000020022005190005シンティロ　　　　　　　　　　　　　00110104005634ハノン　000000　　　　　　　　　　　　　　　　　　　　　　　　　　　　　　　　　　　　　　　　　　　　　　　　　　　　　　　　　　　　　　　　　　　　　　　　　　　　　　　　　　　　　　　　　　　　570000000000000000ヒューズ　　　　00       00007002450         0000000000000000000000000000000000000000000000000000ENROLLER                            0000000000　　　　　　　　　　　　　　　　　　0000000000　　　　　　　　　　　　　　　　　　+023000000000000000000
SEB2009112620090502A40000090062002190007インターパテイション　　　　　　　　00310407005633バーバラ225030Ｅ．マヴォラ　　　　　　　　　　　　　　　　　　　　　　　　　　　　　　　　　　　　　　　　　　　　　　　　　　　　　　　　　　　　　　　　　　　　　　　　　　　　　　　　　　　　　　525000000000000000エスピノ　　　　00       00004001430         0000000000000000000000000000000000000000000000000000COSMONAUT                           0000000000　　　　　　　　　　　　　　　　　　0000000000　　　　　　　　　　　　　　　　　　+004000000000000000000
SEB2009112920090502A40000110162006190002サマーバード　　　　　　　　　　　　00110103000000アイス　000000　　　　　　　　　　　　　　　　　　　　　　　　　　　　　　　　　　　　　　　　　　　　　　　　　　　　　　　　　　　　　　　　　　　　　　　　　　　　　　　　　　　　　　　　　　　　570000000000000000ロジアー　　　　00       00006002047         0000000000000000000000000000000000000000000000000000MINE THAT BIRD                      0000000000　　　　　　　　　　　　　　　　　　0000000000　　　　　　　　　　　　　　　　　　+021000000000000000000
SEB2009111920090502A60000020062005190004エヴァズリクエスト　　　　　　　　　00210104005188シャノン212030Ｌ．マルライアン　　　　　　　　　　　　　　　　　　　　　　　　　　　　　　　　　　　　　　　　　　　　　　　　　　　　　　　　　　　　　　　　　　　　　　　　　　　　　　　　　　　　610000000000000000クレイト　　　　00       00001001387         0000000000000000000000000000000000000000000000000000LADY FRANCESCA                      0000000000　　　　　　　　　　　　　　　　　　0000000000　　　　　　　　　　　　　　　　　　0000000000000000000000
SEB2009111920090507A80000040012005190003サプレザ　　　　　　　　　　　　　　00210304005464コレ　　219030Ｄ．マッキンタイア　　　　　　　　　　　　　　　　　　　　　　　　　　　　　　　　　　　　　　　　　　　　　　　　　　　　　　　　　　　　　　　　　　　　　　　　　　　　　　　　　　　565000000000000000スミヨン　　　　00       00001001390         0000000000000000000000000000000000000000000000000000MURCIELAGO                          0000000000　　　　　　　　　　　　　　　　　　0000000000　　　　　　　　　　　　　　　　　　0000000000000000000000
SEB2009112620090508A60000030012005190005シンティロ　　　　　　　　　　　　　00110104005634ハノン　000000　　　　　　　　　　　　　　　　　　　　　　　　　　　　　　　　　　　　　　　　　　　　　　　　　　　　　　　　　　　　　　　　　　　　　　　　　　　　　　　　　　　　　　　　　　　　585000000000000000ヒューズ　　　　00       000020034643        0000000000000000000000000000000000000000000000000000BUCCELLATI                          0000000000　　　　　　　　　　　　　　　　　　0000000000　　　　　　　　　　　　　　　　　　+005000000000000000000
SEB2009112620090516A40000110082003190010ジャストアズウェル　　　　　　　　　00110406005292シェパー229030Ｊ．シェパード　　　　　　　　　　　　　　　　　　　　　　　　　　　　　　　　　　　　　　　　　　　　　　　　　　　　　　　　　　　　　　　　　　　　　　　　　　　　　　　　　　　　　535000000000000000ルパルー　　　　00       00002001483 12      0000000000000000000000000000000000000000000000000000PARADING                            0000000000　　　　　　　　　　　　　　　　　　0000000000　　　　　　　　　　　　　　　　　　+001000000000000000000
SEB2009111220090516A80000060022006190001シャラナヤ　　　　　　　　　　　　　00210103005632デルザン214030アガ・カーン殿下　　　　　　　　　　　　　　　　　　　　　　　　　　　　　　　　　　　　　　　　　　　　　　　　　　　　　　　　　　　　　　　　　　　　　　　　　　　　　　　　　　　　570000000000000000スミヨン　　　　00       00003002212         0000000000000000000000000000000000000000000000000000KALLA                               0000000000　　　　　　　　　　　　　　　　　　0000000000　　　　　　　　　　　　　　　　　　+002000000000000000000
SEB2009112620090528A60000040122005190006コンデュイット　　　　　　　　　　　00110104000840スタウト800800バリーマコールスタッド　　　　　　　　　　　　　　　　　　　　　　　　　　　　　　　　　　　　　　　　　　　　　　　　　　　　　　　　　　　　　　　　　　　　　　　　　　　　　　　　　605000000000000000ムーア　　　　　00       00002002066H        0000000000000000000000000000000000000000000000000000CIMA DE TRIOMPHE                    0000000000　　　　　　　　　　　　　　　　　　0000000000　　　　　　　　　　　　　　　　　　+000000000000000000000
SEB2009112620090531A80000050062005190005シンティロ　　　　　　　　　　　　　00110104005634ハノン　000000　　　　　　　　　　　　　　　　　　　　　　　　　　　　　　　　　　　　　　　　　　　　　　　　　　　　　　　　　　　　　　　　　　　　　　　　　　　　　　　　　　　　　　　　　　　　560000000000000000ヒューズ　　　　00       00001002346         0000000000000000000000000000000000000000000000000000CHINCHON                            0000000000　　　　　　　　　　　　　　　　　　0000000000　　　　　　　　　　　　　　　　　　0000000000000000000000
SEB2009112620090606A40000100012003190005マーシュサイド　　　　　　　　　　　00110406005380ドライス573030Ｒ．エヴァンス　　　　　　　　　　　　　　　　　　　　　　　　　　　　　　　　　　　　　　　　　　　　　　　　　　　　　　　　　　　　　　　　　　　　　　　　　　　　　　　　　　　　　530000000000000000カステリ　　　　00       00002002031112      0000000000000000000000000000000000000000000000000000GIO PONTI                           0000000000　　　　　　　　　　　　　　　　　　0000000000　　　　　　　　　　　　　　　　　　+002000000000000000000
SEB2009112620090606A40000100092002190007インターパテイション　　　　　　　　00310407005633バーバラ225030Ｅ．マヴォラ　　　　　　　　　　　　　　　　　　　　　　　　　　　　　　　　　　　　　　　　　　　　　　　　　　　　　　　　　　　　　　　　　　　　　　　　　　　　　　　　　　　　　　515000000000000000マラージ　　　　00       00006002039         0000000000000000000000000000000000000000000000000000GIO PONTI                           0000000000　　　　　　　　　　　　　　　　　　0000000000　　　　　　　　　　　　　　　　　　+010000000000000000000
SEB2009112920090606A40000110042006190002サマーバード　　　　　　　　　　　　00110103000000アイス　000000　　　　　　　　　　　　　　　　　　　　　　　　　　　　　　　　　　　　　　　　　　　　　　　　　　　　　　　　　　　　　　　　　　　　　　　　　　　　　　　　　　　　　　　　　　　　570000000000000000デザーモ　　　　00       00001002275         0000000000000000000000000000000000000000000000000000DUNKIRK                             0000000000　　　　　　　　　　　　　　　　　　0000000000　　　　　　　　　　　　　　　　　　0000000000000000000000
SEB2009111920090606A60000030052005190004エヴァズリクエスト　　　　　　　　　00210104005188シャノン212030Ｌ．マルライアン　　　　　　　　　　　　　　　　　　　　　　　　　　　　　　　　　　　　　　　　　　　　　　　　　　　　　　　　　　　　　　　　　　　　　　　　　　　　　　　　　　　　600000000000000000クレイト　　　　00       00001001438         0000000000000000000000000000000000000000000000000000ALNADANA                            0000000000　　　　　　　　　　　　　　　　　　0000000000　　　　　　　　　　　　　　　　　　0000000000000000000000
SEB2009111920090614A80000060092005190003サプレザ　　　　　　　　　　　　　　00210304005464コレ　　219030Ｄ．マッキンタイア　　　　　　　　　　　　　　　　　　　　　　　　　　　　　　　　　　　　　　　　　　　　　　　　　　　　　　　　　　　　　　　　　　　　　　　　　　　　　　　　　　　545000000000000000スミヨン　　　　00       000020013533        0000000000000000000000000000000000000000000000000000BEACON LODGE                        0000000000　　　　　　　　　　　　　　　　　　0000000000　　　　　　　　　　　　　　　　　　+005000000000000000000
SEB2009111920090617A60000020052005190004エヴァズリクエスト　　　　　　　　　00210104005188シャノン212030Ｌ．マルライアン　　　　　　　　　　　　　　　　　　　　　　　　　　　　　　　　　　　　　　　　　　　　　　　　　　　　　　　　　　　　　　　　　　　　　　　　　　　　　　　　　　　　560000000000000000クレイト　　　　00       00003001417         0000000000000000000000000000000000000000000000000000SPACIOUS                            0000000000　　　　　　　　　　　　　　　　　　0000000000　　　　　　　　　　　　　　　　　　+007000000000000000000
SEB2009111220090618A80000030032006190001シャラナヤ　　　　　　　　　　　　　00210103005632デルザン214030アガ・カーン殿下　　　　　　　　　　　　　　　　　　　　　　　　　　　　　　　　　　　　　　　　　　　　　　　　　　　　　　　　　　　　　　　　　　　　　　　　　　　　　　　　　　　　555000000000000000グイヨン　　　　00       00001002121         0000000000000000000000000000000000000000000000000000ZERKERIYA                           0000000000　　　　　　　　　　　　　　　　　　0000000000　　　　　　　　　　　　　　　　　　0000000000000000000000
SEB2009112620090628A80000050092005190005シンティロ　　　　　　　　　　　　　00110104005634ハノン　000000　　　　　　　　　　　　　　　　　　　　　　　　　　　　　　　　　　　　　　　　　　　　　　　　　　　　　　　　　　　　　　　　　　　　　　　　　　　　　　　　　　　　　　　　　　　　580000000000000000ヒューズ　　　　00       00007002304         0000000000000000000000000000000000000000000000000000SPANISH MOON                        0000000000　　　　　　　　　　　　　　　　　　0000000000　　　　　　　　　　　　　　　　　　+030000000000000000000
SEB2009112620090704A60000030092005190006コンデュイット　　　　　　　　　　　00110104000840スタウト800800バリーマコールスタッド　　　　　　　　　　　　　　　　　　　　　　　　　　　　　　　　　　　　　　　　　　　　　　　　　　　　　　　　　　　　　　　　　　　　　　　　　　　　　　　　　605000000000000000ムーア　　　　　00       00003002044         0000000000000000000000000000000000000000000000000000SEA THE STARS                       0000000000　　　　　　　　　　　　　　　　　　0000000000　　　　　　　　　　　　　　　　　　+010000000000000000000
SEB2009111920090708A60000040082005190004エヴァズリクエスト　　　　　　　　　00210104005188シャノン212030Ｌ．マルライアン　　　　　　　　　　　　　　　　　　　　　　　　　　　　　　　　　　　　　　　　　　　　　　　　　　　　　　　　　　　　　　　　　　　　　　　　　　　　　　　　　　　　595000000000000000クレイト　　　　00       00007001376         0000000000000000000000000000000000000000000000000000GOLDIKOVA                           0000000000　　　　　　　　　　　　　　　　　　0000000000　　　　　　　　　　　　　　　　　　+014000000000000000000
SEB2009112620090711A40000070042003190005マーシュサイド　　　　　　　　　　　00110406005380ドライス573030Ｒ．エヴァンス　　　　　　　　　　　　　　　　　　　　　　　　　　　　　　　　　　　　　　　　　　　　　　　　　　　　　　　　　　　　　　　　　　　　　　　　　　　　　　　　　　　　　545000000000000000カステリ　　　　00       00006002132         0000000000000000000000000000000000000000000000000000GIO PONTI                           0000000000　　　　　　　　　　　　　　　　　　0000000000　　　　　　　　　　　　　　　　　　+007000000000000000000
SEB2009112620090711A40000070052002190007インターパテイション　　　　　　　　00310407005633バーバラ225030Ｅ．マヴォラ　　　　　　　　　　　　　　　　　　　　　　　　　　　　　　　　　　　　　　　　　　　　　　　　　　　　　　　　　　　　　　　　　　　　　　　　　　　　　　　　　　　　　　525000000000000000ルッチ　　　　　00       00007002135         0000000000000000000000000000000000000000000000000000GIO PONTI                           0000000000　　　　　　　　　　　　　　　　　　0000000000　　　　　　　　　　　　　　　　　　+010000000000000000000
SEB2009112620090711A40000120082003190010ジャストアズウェル　　　　　　　　　00110406005292シェパー229030Ｊ．シェパード　　　　　　　　　　　　　　　　　　　　　　　　　　　　　　　　　　　　　　　　　　　　　　　　　　　　　　　　　　　　　　　　　　　　　　　　　　　　　　　　　　　　　535000000000000000ベアード　　　　00       00001002028         0000000000000000000000000000000000000000000000000000GENTLEMAN CHESTER                   0000000000　　　　　　　　　　　　　　　　　　0000000000　　　　　　　　　　　　　　　　　　0000000000000000000000
SEB2009112620090725A60000060022005190006コンデュイット　　　　　　　　　　　00110104000840スタウト800800バリーマコールスタッド　　　　　　　　　　　　　　　　　　　　　　　　　　　　　　　　　　　　　　　　　　　　　　　　　　　　　　　　　　　　　　　　　　　　　　　　　　　　　　　　　605000000000000000ムーア　　　　　00       00001002287         0000000000000000000000000000000000000000000000000000TARTAN BEARER                       0000000000　　　　　　　　　　　　　　　　　　0000000000　　　　　　　　　　　　　　　　　　0000000000000000000000
SEB2009112620090725A60000060092005190005シンティロ　　　　　　　　　　　　　00110104005634ハノン　000000　　　　　　　　　　　　　　　　　　　　　　　　　　　　　　　　　　　　　　　　　　　　　　　　　　　　　　　　　　　　　　　　　　　　　　　　　　　　　　　　　　　　　　　　　　　　605000000000000000ヒューズ　　　　00       00009002460         0000000000000000000000000000000000000000002005190006コンデュイット　　　　　　　　　　　0000000000　　　　　　　　　　　　　　　　　　0000000000　　　　　　　　　　　　　　　　　　+173000000000000000000
SEB2009111220090801A80000050022006190001シャラナヤ　　　　　　　　　　　　　00210103005632デルザン214030アガ・カーン殿下　　　　　　　　　　　　　　　　　　　　　　　　　　　　　　　　　　　　　　　　　　　　　　　　　　　　　　　　　　　　　　　　　　　　　　　　　　　　　　　　　　　　560000000000000000スミヨン　　　　00       00005002055         0000000000000000000000000000000000000000000000000000BOARD MEETING                       0000000000　　　　　　　　　　　　　　　　　　0000000000　　　　　　　　　　　　　　　　　　+005000000000000000000
SEB2009112620090802A40000070092002190007インターパテイション　　　　　　　　00310407005633バーバラ225030Ｅ．マヴォラ　　　　　　　　　　　　　　　　　　　　　　　　　　　　　　　　　　　　　　　　　　　　　　　　　　　　　　　　　　　　　　　　　　　　　　　　　　　　　　　　　　　　　　520000000000000000ルッチ　　　　　00       00007001446         0000000000000000000000000000000000000000000000000000JUSTENUFFHUMOR                      0000000000　　　　　　　　　　　　　　　　　　0000000000　　　　　　　　　　　　　　　　　　+018000000000000000000
SEB2009112920090802A40000130022006190002サマーバード　　　　　　　　　　　　00110103000000アイス　000000　　　　　　　　　　　　　　　　　　　　　　　　　　　　　　　　　　　　　　　　　　　　　　　　　　　　　　　　　　　　　　　　　　　　　　　　　　　　　　　　　　　　　　　　　　　　555000000000000000デザーモ　　　　00       000020014826        0000000000000000000000000000000000000000000000000000RACHEL ALEXANDRA                    0000000000　　　　　　　　　　　　　　　　　　0000000000　　　　　　　　　　　　　　　　　　+010000000000000000000
SEB2009111920090802A80000050052005190003サプレザ　　　　　　　　　　　　　　00210304005464コレ　　219030Ｄ．マッキンタイア　　　　　　　　　　　　　　　　　　　　　　　　　　　　　　　　　　　　　　　　　　　　　　　　　　　　　　　　　　　　　　　　　　　　　　　　　　　　　　　　　　　570000000000000000スミヨン　　　　00       00004001365         0000000000000000000000000000000000000000000000000000GOLDIKOVA                           0000000000　　　　　　　　　　　　　　　　　　0000000000　　　　　　　　　　　　　　　　　　+008000000000000000000
SEB2009111920090802A80000050062005190004エヴァズリクエスト　　　　　　　　　00210104005188シャノン212030Ｌ．マルライアン　　　　　　　　　　　　　　　　　　　　　　　　　　　　　　　　　　　　　　　　　　　　　　　　　　　　　　　　　　　　　　　　　　　　　　　　　　　　　　　　　　　　570000000000000000テュリエ　　　　00       00005001367         0000000000000000000000000000000000000000000000000000GOLDIKOVA                           0000000000　　　　　　　　　　　　　　　　　　0000000000　　　　　　　　　　　　　　　　　　+010000000000000000000
SEB2009112620090808A40000090032003190010ジャストアズウェル　　　　　　　　　00110406005292シェパー229030Ｊ．シェパード　　　　　　　　　　　　　　　　　　　　　　　　　　　　　　　　　　　　　　　　　　　　　　　　　　　　　　　　　　　　　　　　　　　　　　　　　　　　　　　　　　　　　570000000000000000ベアード　　　　00       00002002043114      0000000000000000000000000000000000000000000000000000GIO PONTI                           0000000000　　　　　　　　　　　　　　　　　　0000000000　　　　　　　　　　　　　　　　　　+002000000000000000000
SEB2009112620090828A40000090072002190007インターパテイション　　　　　　　　00310407005633バーバラ225030Ｅ．マヴォラ　　　　　　　　　　　　　　　　　　　　　　　　　　　　　　　　　　　　　　　　　　　　　　　　　　　　　　　　　　　　　　　　　　　　　　　　　　　　　　　　　　　　　　530000000000000000ヴェラス　　　　00       00006001483         0000000000000000000000000000000000000000000000000000JUSTENUFFHUMOR                      0000000000　　　　　　　　　　　　　　　　　　0000000000　　　　　　　　　　　　　　　　　　+010000000000000000000
SEB2009112920090829A40000120062006190002サマーバード　　　　　　　　　　　　00110103000000アイス　000000　　　　　　　　　　　　　　　　　　　　　　　　　　　　　　　　　　　　　　　　　　　　　　　　　　　　　　　　　　　　　　　　　　　　　　　　　　　　　　　　　　　　　　　　　　　　570000000000000000デザーモ　　　　00       00001002028         0000000000000000000000000000000000000000000000000000HOLD ME BACK                        0000000000　　　　　　　　　　　　　　　　　　0000000000　　　　　　　　　　　　　　　　　　0000000000000000000000
SEB2009111920090830A80000040052005190003サプレザ　　　　　　　　　　　　　　00210304005464コレ　　219030Ｄ．マッキンタイア　　　　　　　　　　　　　　　　　　　　　　　　　　　　　　　　　　　　　　　　　　　　　　　　　　　　　　　　　　　　　　　　　　　　　　　　　　　　　　　　　　　565000000000000000スミヨン　　　　00       00002001343 34      0000000000000000000000000000000000000000000000000000RACINGER                            0000000000　　　　　　　　　　　　　　　　　　0000000000　　　　　　　　　　　　　　　　　　+001000000000000000000
SEB2009111220090901A80000040032006190001シャラナヤ　　　　　　　　　　　　　00210103005632デルザン214030アガ・カーン殿下　　　　　　　　　　　　　　　　　　　　　　　　　　　　　　　　　　　　　　　　　　　　　　　　　　　　　　　　　　　　　　　　　　　　　　　　　　　　　　　　　　　　560000000000000000スミヨン　　　　00       00001002141         0000000000000000000000000000000000000000000000000000RUSSIANA                            0000000000　　　　　　　　　　　　　　　　　　0000000000　　　　　　　　　　　　　　　　　　0000000000000000000000
SEB2009111920090902E80000080032005190004エヴァズリクエスト　　　　　　　　　00210104005188シャノン212030Ｌ．マルライアン　　　　　　　　　　　　　　　　　　　　　　　　　　　　　　　　　　　　　　　　　　　　　　　　　　　　　　　　　　　　　　　　　　　　　　　　　　　　　　　　　　　　600000000000000000ムンロ　　　　　00       00001001378         0000000000000000000000000000000000000000000000000000DAMANIYAT GIRL                      0000000000　　　　　　　　　　　　　　　　　　0000000000　　　　　　　　　　　　　　　　　　0000000000000000000000
SEB2009112620090919A40000100052002190007インターパテイション　　　　　　　　00310407005633バーバラ225030Ｅ．マヴォラ　　　　　　　　　　　　　　　　　　　　　　　　　　　　　　　　　　　　　　　　　　　　　　　　　　　　　　　　　　　　　　　　　　　　　　　　　　　　　　　　　　　　　　515000000000000000ペニング　　　　00       00004001556         0000000000000000000000000000000000000000000000000000SOLDIER'S DANCER                    0000000000　　　　　　　　　　　　　　　　　　0000000000　　　　　　　　　　　　　　　　　　+008000000000000000000
SEB2009112620090920B80000080042003190005マーシュサイド　　　　　　　　　　　00110406005380ドライス573030Ｒ．エヴァンス　　　　　　　　　　　　　　　　　　　　　　　　　　　　　　　　　　　　　　　　　　　　　　　　　　　　　　　　　　　　　　　　　　　　　　　　　　　　　　　　　　　　　550000000000000000カステリ　　　　00       70104000000         0000000000000000000000000000000000000000002003190010ジャストアズウェル　　　　　　　　　0000000000　　　　　　　　　　　　　　　　　　0000000000　　　　　　　　　　　　　　　　　　0000000000000000000000
SEB2009112620090920B80000080072003190010ジャストアズウェル　　　　　　　　　00110406005292シェパー229030Ｊ．シェパード　　　　　　　　　　　　　　　　　　　　　　　　　　　　　　　　　　　　　　　　　　　　　　　　　　　　　　　　　　　　　　　　　　　　　　　　　　　　　　　　　　　　　540000000000000000ルパルー　　　　00       00201002267         0000000000000000000000000000000000000000000000000000QUIJANO                             0000000000　　　　　　　　　　　　　　　　　　0000000000　　　　　　　　　　　　　　　　　　0000000000000000000000
SEB2009112620091003A40000090012002190007インターパテイション　　　　　　　　00310407005633バーバラ225030Ｅ．マヴォラ　　　　　　　　　　　　　　　　　　　　　　　　　　　　　　　　　　　　　　　　　　　　　　　　　　　　　　　　　　　　　　　　　　　　　　　　　　　　　　　　　　　　　　570000000000000000アルバラ　　　　00       00001002412         0000000000000000000000000000000000000000000000000000GIO PONTI                           0000000000　　　　　　　　　　　　　　　　　　0000000000　　　　　　　　　　　　　　　　　　0000000000000000000000
SEB2009112920091003A40000100032006190002サマーバード　　　　　　　　　　　　00110103000000アイス　000000　　　　　　　　　　　　　　　　　　　　　　　　　　　　　　　　　　　　　　　　　　　　　　　　　　　　　　　　　　　　　　　　　　　　　　　　　　　　　　　　　　　　　　　　　　　　555000000000000000デザーモ　　　　00       00001002025         0000000000000000000000000000000000000000000000000000QUALITY ROAD                        0000000000　　　　　　　　　　　　　　　　　　0000000000　　　　　　　　　　　　　　　　　　0000000000000000000000
SEB2009111920091003A60000030022005190003サプレザ　　　　　　　　　　　　　　00210304005464コレ　　219030Ｄ．マッキンタイア　　　　　　　　　　　　　　　　　　　　　　　　　　　　　　　　　　　　　　　　　　　　　　　　　　　　　　　　　　　　　　　　　　　　　　　　　　　　　　　　　　　580000000000000000ダーカン　　　　00       00001001344         0000000000000000000000000000000000000000000000000000GHANAATI                            0000000000　　　　　　　　　　　　　　　　　　0000000000　　　　　　　　　　　　　　　　　　0000000000000000000000
SEB2009111220091004A80000050062006190001シャラナヤ　　　　　　　　　　　　　00210103005632デルザン214030アガ・カーン殿下　　　　　　　　　　　　　　　　　　　　　　　　　　　　　　　　　　　　　　　　　　　　　　　　　　　　　　　　　　　　　　　　　　　　　　　　　　　　　　　　　　　　560000000000000000グイヨン　　　　00       00001002018         0000000000000000000000000000000000000000000000000000BOARD MEETING                       0000000000　　　　　　　　　　　　　　　　　　0000000000　　　　　　　　　　　　　　　　　　0000000000000000000000
SEB2009112620091004A80000060022005190006コンデュイット　　　　　　　　　　　00110104000840スタウト800800バリーマコールスタッド　　　　　　　　　　　　　　　　　　　　　　　　　　　　　　　　　　　　　　　　　　　　　　　　　　　　　　　　　　　　　　　　　　　　　　　　　　　　　　　　　595000000000000000ムーア　　　　　00       00004002267         0000000000000000000000000000000000000000000000000000SEA THE STARS                       0000000000　　　　　　　　　　　　　　　　　　0000000000　　　　　　　　　　　　　　　　　　+004000000000000000000
SEB2009112620091017B80000100042003190010ジャストアズウェル　　　　　　　　　00110406005292シェパー229030Ｊ．シェパード　　　　　　　　　　　　　　　　　　　　　　　　　　　　　　　　　　　　　　　　　　　　　　　　　　　　　　　　　　　　　　　　　　　　　　　　　　　　　　　　　　　　　570000000000000000ルパルー　　　　00       00005002297         0000000000000000000000000000000000000000000000000000CHAMPS ELYSEES                      0000000000　　　　　　　　　　　　　　　　　　0000000000　　　　　　　　　　　　　　　　　　+014000000000000000000
SEB2009112620091017B80000100052003190005マーシュサイド　　　　　　　　　　　00110406005380ドライス573030Ｒ．エヴァンス　　　　　　　　　　　　　　　　　　　　　　　　　　　　　　　　　　　　　　　　　　　　　　　　　　　　　　　　　　　　　　　　　　　　　　　　　　　　　　　　　　　　　570000000000000000カステリ　　　　00       00004002287         0000000000000000000000000000000000000000000000000000CHAMPS ELYSEES                      0000000000　　　　　　　　　　　　　　　　　　0000000000　　　　　　　　　　　　　　　　　　+004000000000000000000
SEB2009111920091025C00000050042005190004エヴァズリクエスト　　　　　　　　　00210104005188シャノン212030Ｌ．マルライアン　　　　　　　　　　　　　　　　　　　　　　　　　　　　　　　　　　　　　　　　　　　　　　　　　　　　　　　　　　　　　　　　　　　　　　　　　　　　　　　　　　　　570000000000000000ムンロ　　　　　00       00001002043         0000000000000000000000000000000000000000000000000000NIGHT MAGIC                         0000000000　　　　　　　　　　　　　　　　　　0000000000　　　　　　　　　　　　　　　　　　0000000000000000000000
SEB2009112620091107A40000080022005190006コンデュイット　　　　　　　　　　　00110104000840スタウト800800バリーマコールスタッド　　　　　　　　　　　　　　　　　　　　　　　　　　　　　　　　　　　　　　　　　　　　　　　　　　　　　　　　　　　　　　　　　　　　　　　　　　　　　　　　　570000000000000000ムーア　　　　　00       00001002237         0000000000000000000000000000000000000000000000000000PRESIOUS PASSION                    0000000000　　　　　　　　　　　　　　　　　　0000000000　　　　　　　　　　　　　　　　　　0000000000000000000000
SEB2009112920091107A40000090032006190002サマーバード　　　　　　　　　　　　00110103000000アイス　000000　　　　　　　　　　　　　　　　　　　　　　　　　　　　　　　　　　　　　　　　　　　　　　　　　　　　　　　　　　　　　　　　　　　　　　　　　　　　　　　　　　　　　　　　　　　　555000000000000000デザーモ　　　　00       00004002011         0000000000000000000000000000000000000000000000000000ZENYATTA                            0000000000　　　　　　　　　　　　　　　　　　0000000000　　　　　　　　　　　　　　　　　　+005000000000000000000
SEB2009120320090426A40000050052005190007ティズウェイ　　　　　　　　　　　　00110404005635ジェーム222030Ｗ．クリフトンＪｒ．　　　　　　　　　　　　　　　　　　　　　　　　　　　　　　　　　　　　　　　　　　　　　　　　　　　　　　　　　　　　　　　　　　　　　　　　　　　　　　　　　　550000000000000000マラージ　　　　00       00001001340         0000000000000000000000000000000000000000000000000000JET SET VINNY                       0000000000　　　　　　　　　　　　　　　　　　0000000000　　　　　　　　　　　　　　　　　　0000000000000000000000
SEB2009120320090531A40000040062005190007ティズウェイ　　　　　　　　　　　　00110404005635ジェーム222030Ｗ．クリフトンＪｒ．　　　　　　　　　　　　　　　　　　　　　　　　　　　　　　　　　　　　　　　　　　　　　　　　　　　　　　　　　　　　　　　　　　　　　　　　　　　　　　　　　　560000000000000000マラージ　　　　00       000020013635        0000000000000000000000000000000000000000000000000000SAMHOON                             0000000000　　　　　　　　　　　　　　　　　　0000000000　　　　　　　　　　　　　　　　　　+008000000000000000000
SEB2009120320090712A40000090042005190007ティズウェイ　　　　　　　　　　　　00110404005635ジェーム222030Ｗ．クリフトンＪｒ．　　　　　　　　　　　　　　　　　　　　　　　　　　　　　　　　　　　　　　　　　　　　　　　　　　　　　　　　　　　　　　　　　　　　　　　　　　　　　　　　　　545000000000000000マラージ　　　　00       00001001348         0000000000000000000000000000000000000000000000000000DA' TARA                            0000000000　　　　　　　　　　　　　　　　　　0000000000　　　　　　　　　　　　　　　　　　0000000000000000000000
SEB2009120320090808A40000100042005190007ティズウェイ　　　　　　　　　　　　00110404005635ジェーム222030Ｗ．クリフトンＪｒ．　　　　　　　　　　　　　　　　　　　　　　　　　　　　　　　　　　　　　　　　　　　　　　　　　　　　　　　　　　　　　　　　　　　　　　　　　　　　　　　　　　510000000000000000マラージ　　　　00       00004001491         0000000000000000000000000000000000000000000000000000BULLSBAY                            0000000000　　　　　　　　　　　　　　　　　　0000000000　　　　　　　　　　　　　　　　　　+010000000000000000000
SEB2009120320091003A40000100042005190007ティズウェイ　　　　　　　　　　　　00110404005635ジェーム222030Ｗ．クリフトンＪｒ．　　　　　　　　　　　　　　　　　　　　　　　　　　　　　　　　　　　　　　　　　　　　　　　　　　　　　　　　　　　　　　　　　　　　　　　　　　　　　　　　　　570000000000000000マラージ　　　　00       00003002035         0000000000000000000000000000000000000000002006190002サマーバード　　　　　　　　　　　　0000000000　　　　　　　　　　　　　　　　　　0000000000　　　　　　　　　　　　　　　　　　+010000000000000000000
SEB2009122420091213G00000040010000000000YOUMZAIN                            00110006000000シャノン000000　　　　　　　　　　　　　　　　　　　　　　　　　　　　　　　　　　　　　　　　　　　　　　　　　　　　　　　　　　　　　　　　　　　　　　　　　　　　　　　　　　　　　　　　　　　　570000000000000000ファロン　　　　00       010100022841        0000000000000000000000000000000000000000000000000000DARYAKANA                           0000000000　　　　　　　　　　　　　　　　　　0000000000　　　　　　　　　　　　　　　　　　+009000000000000000000
SEB2009122420091213G00000040020000000000SPANISH MOON                        00110005000000スタウト000000　　　　　　　　　　　　　　　　　　　　　　　　　　　　　　　　　　　　　　　　　　　　　　　　　　　　　　　　　　　　　　　　　　　　　　　　　　　　　　　　　　　　　　　　　　　　570000000000000000ムーア　　　　　00       00202002275H        0000000000000000000000000000000000000000000000000000DARYAKANA                           0000000000　　　　　　　　　　　　　　　　　　0000000000　　　　　　　　　　　　　　　　　　+000000000000000000000
SEB2009122420091213G00000040030000000000VIVA PATACA                         00310007000000ムーア　000000　　　　　　　　　　　　　　　　　　　　　　　　　　　　　　　　　　　　　　　　　　　　　　　　　　　　　　　　　　　　　　　　　　　　　　　　　　　　　　　　　　　　　　　　　　　　570000000000000000ビードマ　　　　00       00606002279114      0000000000000000000000000000000000000000000000000000DARYAKANA                           0000000000　　　　　　　　　　　　　　　　　　0000000000　　　　　　　　　　　　　　　　　　+004000000000000000000
SEB2009122420091213G00000040040000000000KASBAH BLISS                        00310007000000ドゥーメ000000　　　　　　　　　　　　　　　　　　　　　　　　　　　　　　　　　　　　　　　　　　　　　　　　　　　　　　　　　　　　　　　　　　　　　　　　　　　　　　　　　　　　　　　　　　　　570000000000000000テュリエ　　　　00       00303002276K        0000000000000000000000000000000000000000000000000000DARYAKANA                           0000000000　　　　　　　　　　　　　　　　　　0000000000　　　　　　　　　　　　　　　　　　+001000000000000000000
SEB2009122420091213G00000040062004107116ジャガーメイル　　　　　　　　　　　00110305101070堀宣行　138007吉田　和美　　　　　　　　　　　　　　　　　　　　　　　　　　　赤，黄縦縞，袖緑二本輪　　　　　　　　　　　　　　　　　　　　　　　　　　　　　　　　　　　　　　　　　　　　　　　　　570000000000000000スミヨン　　　　00481    00404002276H        0000000000000000000000000000000000000000000000000000DARYAKANA                           0000000000　　　　　　　　　　　　　　　　　　0000000000　　　　　　　　　　　　　　　　　　+001000000000000000000
SEB2009122420091213G00000040070000000000PACKING WINNER                      00310007000000ホー　　000000　　　　　　　　　　　　　　　　　　　　　　　　　　　　　　　　　　　　　　　　　　　　　　　　　　　　　　　　　　　　　　　　　　　　　　　　　　　　　　　　　　　　　　　　　　　　570000000000000000ドイル　　　　　00       01111002291412      0000000000000000000000000000000000000000000000000000DARYAKANA                           0000000000　　　　　　　　　　　　　　　　　　0000000000　　　　　　　　　　　　　　　　　　+016000000000000000000
SEB2009122420091213G00000040080000000000BUCCELLATI                          00110005000000ボールデ000000　　　　　　　　　　　　　　　　　　　　　　　　　　　　　　　　　　　　　　　　　　　　　　　　　　　　　　　　　　　　　　　　　　　　　　　　　　　　　　　　　　　　　　　　　　　　570000000000000000ビュイッ　　　　00       009090022821        0000000000000000000000000000000000000000000000000000DARYAKANA                           0000000000　　　　　　　　　　　　　　　　　　0000000000　　　　　　　　　　　　　　　　　　+007000000000000000000
SEB2009122420091213G00000040090000000000JACKPOT DELIGHT                     00310006000000ファウン000000　　　　　　　　　　　　　　　　　　　　　　　　　　　　　　　　　　　　　　　　　　　　　　　　　　　　　　　　　　　　　　　　　　　　　　　　　　　　　　　　　　　　　　　　　　　　570000000000000000ウィンク　　　　00       01212002293112      0000000000000000000000000000000000000000000000000000DARYAKANA                           0000000000　　　　　　　　　　　　　　　　　　0000000000　　　　　　　　　　　　　　　　　　+018000000000000000000
SEB2009122420091213G00000040100000000000JAMESINA                            00310006000000フェラリ000000　　　　　　　　　　　　　　　　　　　　　　　　　　　　　　　　　　　　　　　　　　　　　　　　　　　　　　　　　　　　　　　　　　　　　　　　　　　　　　　　　　　　　　　　　　　　570000000000000000ロイド　　　　　00       00808002281 12      0000000000000000000000000000000000000000000000000000DARYAKANA                           0000000000　　　　　　　　　　　　　　　　　　0000000000　　　　　　　　　　　　　　　　　　+006000000000000000000
SEB2009122420091213G00000040110000000000BLACK MAMBA                         00210006000000サドラー000000　　　　　　　　　　　　　　　　　　　　　　　　　　　　　　　　　　　　　　　　　　　　　　　　　　　　　　　　　　　　　　　　　　　　　　　　　　　　　　　　　　　　　　　　　　　　555000000000000000ドゥルー　　　　00       01313002346T        0000000000000000000000000000000000000000000000000000DARYAKANA                           0000000000　　　　　　　　　　　　　　　　　　0000000000　　　　　　　　　　　　　　　　　　+071000000000000000000
SEB2009122420091213G00000040130000000000DARYAKANA                           00210003000000ド・ロワ000000　　　　　　　　　　　　　　　　　　　　　　　　　　　　　　　　　　　　　　　　　　　　　　　　　　　　　　　　　　　　　　　　　　　　　　　　　　　　　　　　　　　　　　　　　　　　535000000000000000モッセ　　　　　00       00101002275         0000000000000000000000000000000000000000000000000000SPANISH MOON                        0000000000　　　　　　　　　　　　　　　　　　0000000000　　　　　　　　　　　　　　　　　　-000000000000000000000
SEB2009122120091213G00000050010000000000SACRED KINGDOM                      00310006000000イウ　　000000　　　　　　　　　　　　　　　　　　　　　　　　　　　　　　　　　　　　　　　　　　　　　　　　　　　　　　　　　　　　　　　　　　　　　　　　　　　　　　　　　　　　　　　　　　　　570000000000000000プレブル　　　　00       00101001091         0000000000000000000000000000000000000000000000000000ONE WORLD                           0000000000　　　　　　　　　　　　　　　　　　0000000000　　　　　　　　　　　　　　　　　　-001000000000000000000
SEB2009122420091213G00000050022004190004シーニックブラスト　　　　　　　　　00310305005631モートン237030Ｅ．ガランテ　　　　　　　　　　　　　　　　　　　　　　　　　　　　　　　　　　　　　　　　　　　　　　　　　　　　　　　　　　　　　　　　　　　　　　　　　　　　　　　　　　　　　　570000000000000000アーノル　　　　00       01414001114614      0000000000000000000000000000000000000000000000000000SACRED KINGDOM                      0000000000　　　　　　　　　　　　　　　　　　0000000000　　　　　　　　　　　　　　　　　　+023000000000000000000
SEB2009122120091213G00000050030000000000ALL SILENT                          00310006000000ベッグ　000000　　　　　　　　　　　　　　　　　　　　　　　　　　　　　　　　　　　　　　　　　　　　　　　　　　　　　　　　　　　　　　　　　　　　　　　　　　　　　　　　　　　　　　　　　　　　570000000000000000ホール　　　　　00       00808001097A        0000000000000000000000000000000000000000000000000000SACRED KINGDOM                      0000000000　　　　　　　　　　　　　　　　　　0000000000　　　　　　　　　　　　　　　　　　+006000000000000000000
SEB2009122120091213G00000050040000000000APACHE CAT                          00310007000000ユーレル000000　　　　　　　　　　　　　　　　　　　　　　　　　　　　　　　　　　　　　　　　　　　　　　　　　　　　　　　　　　　　　　　　　　　　　　　　　　　　　　　　　　　　　　　　　　　　570000000000000000オリヴァ　　　　00       00707001097 12      0000000000000000000000000000000000000000000000000000SACRED KINGDOM                      0000000000　　　　　　　　　　　　　　　　　　0000000000　　　　　　　　　　　　　　　　　　+006000000000000000000
SEB2009122120091213G00000050050000000000TOTAL GALLERY                       00110003000000ムーア　000000　　　　　　　　　　　　　　　　　　　　　　　　　　　　　　　　　　　　　　　　　　　　　　　　　　　　　　　　　　　　　　　　　　　　　　　　　　　　　　　　　　　　　　　　　　　　570000000000000000ムルタ　　　　　00       00606001096114      0000000000000000000000000000000000000000000000000000SACRED KINGDOM                      0000000000　　　　　　　　　　　　　　　　　　0000000000　　　　　　　　　　　　　　　　　　+005000000000000000000
SEB2009122120091213G00000050060000000000BORDERLESCOTT                       00310007000000バスティ000000　　　　　　　　　　　　　　　　　　　　　　　　　　　　　　　　　　　　　　　　　　　　　　　　　　　　　　　　　　　　　　　　　　　　　　　　　　　　　　　　　　　　　　　　　　　　570000000000000000カラン　　　　　00       01111001100134      0000000000000000000000000000000000000000000000000000SACRED KINGDOM                      0000000000　　　　　　　　　　　　　　　　　　0000000000　　　　　　　　　　　　　　　　　　+009000000000000000000
SEB2009122120091213G00000050070000000000CALIFORNIA FLAG                     00310005000000コリナー000000　　　　　　　　　　　　　　　　　　　　　　　　　　　　　　　　　　　　　　　　　　　　　　　　　　　　　　　　　　　　　　　　　　　　　　　　　　　　　　　　　　　　　　　　　　　　570000000000000000タラモ　　　　　00       00505001094H        0000000000000000000000000000000000000000000000000000SACRED KINGDOM                      0000000000　　　　　　　　　　　　　　　　　　0000000000　　　　　　　　　　　　　　　　　　+003000000000000000000
SEB2009122120091213G00000050080000000000INSPIRATION                         00310006000000ムーア　000000　　　　　　　　　　　　　　　　　　　　　　　　　　　　　　　　　　　　　　　　　　　　　　　　　　　　　　　　　　　　　　　　　　　　　　　　　　　　　　　　　　　　　　　　　　　　570000000000000000ウィンク　　　　00       00909001097H        0000000000000000000000000000000000000000000000000000SACRED KINGDOM                      0000000000　　　　　　　　　　　　　　　　　　0000000000　　　　　　　　　　　　　　　　　　+006000000000000000000
SEB2009122120091213G00000050090000000000CANNONBALL                          00310004000000ワード　000000　　　　　　　　　　　　　　　　　　　　　　　　　　　　　　　　　　　　　　　　　　　　　　　　　　　　　　　　　　　　　　　　　　　　　　　　　　　　　　　　　　　　　　　　　　　　570000000000000000ドミンゲ　　　　00       01010001097A        0000000000000000000000000000000000000000000000000000SACRED KINGDOM                      0000000000　　　　　　　　　　　　　　　　　　0000000000　　　　　　　　　　　　　　　　　　+006000000000000000000
SEB2009122420091213G00000050112004100933ローレルゲレイロ　　　　　　　　　　00110505201044昆貢　　032800ローレルレーシング　　　　　　　　　　　　　　　　　　　　　　　海老，白玉霰　　　　　　　　　　　　　　　　　　　　　　　　　　　　　　　　　　　　　　　　　　　　　　　　　　　　　　570000000070500000藤田伸二　　　　00468    01313001104 12      0000000000000000000000000000000000000000000000000000SACRED KINGDOM                      0000000000　　　　　　　　　　　　　　　　　　0000000000　　　　　　　　　　　　　　　　　　+013000000000000000000
SEB2009122120091213G00000050120000000000WAR ARTIST                          00310006000000ユースタ000000　　　　　　　　　　　　　　　　　　　　　　　　　　　　　　　　　　　　　　　　　　　　　　　　　　　　　　　　　　　　　　　　　　　　　　　　　　　　　　　　　　　　　　　　　　　　570000000000000000ペリエ　　　　　00       01212001103214      0000000000000000000000000000000000000000000000000000SACRED KINGDOM                      0000000000　　　　　　　　　　　　　　　　　　0000000000　　　　　　　　　　　　　　　　　　+012000000000000000000
SEB2009122120091213G00000050130000000000JOY AND FUN                         00310006000000クルーズ000000　　　　　　　　　　　　　　　　　　　　　　　　　　　　　　　　　　　　　　　　　　　　　　　　　　　　　　　　　　　　　　　　　　　　　　　　　　　　　　　　　　　　　　　　　　　　570000000000000000ドイル　　　　　00       00303001092K        0000000000000000000000000000000000000000000000000000SACRED KINGDOM                      0000000000　　　　　　　　　　　　　　　　　　0000000000　　　　　　　　　　　　　　　　　　+001000000000000000000
SEB2009122120091213G00000050140000000000ONE WORLD                           00110005000000ムーア　000000　　　　　　　　　　　　　　　　　　　　　　　　　　　　　　　　　　　　　　　　　　　　　　　　　　　　　　　　　　　　　　　　　　　　　　　　　　　　　　　　　　　　　　　　　　　　570000000000000000ビードマ　　　　00       00202001092 12      0000000000000000000000000000000000000000000000000000SACRED KINGDOM                      0000000000　　　　　　　　　　　　　　　　　　0000000000　　　　　　　　　　　　　　　　　　+001000000000000000000
SEB2009122120091213G00000080010000000000VISION D'ETAT                       00110004000000リボー　000000　　　　　　　　　　　　　　　　　　　　　　　　　　　　　　　　　　　　　　　　　　　　　　　　　　　　　　　　　　　　　　　　　　　　　　　　　　　　　　　　　　　　　　　　　　　　570000000000000000ペリエ　　　　　00       00101002018         0000000000000000000000000000000000000000000000000000COLLECTION                          0000000000　　　　　　　　　　　　　　　　　　0000000000　　　　　　　　　　　　　　　　　　-002000000000000000000
SEB2009122120091213G00000080020000000000EAGLE MOUNTAIN                      00110005000000デコック000000　　　　　　　　　　　　　　　　　　　　　　　　　　　　　　　　　　　　　　　　　　　　　　　　　　　　　　　　　　　　　　　　　　　　　　　　　　　　　　　　　　　　　　　　　　　　570000000000000000シーア　　　　　00       00505002026 34      0000000000000000000000000000000000000000000000000000VISION D'ETAT                       0000000000　　　　　　　　　　　　　　　　　　0000000000　　　　　　　　　　　　　　　　　　+008000000000000000000
SEB2009122120091213G00000080030000000000PRESVIS                             00310005000000クマーニ000000　　　　　　　　　　　　　　　　　　　　　　　　　　　　　　　　　　　　　　　　　　　　　　　　　　　　　　　　　　　　　　　　　　　　　　　　　　　　　　　　　　　　　　　　　　　　570000000000000000ファロン　　　　00       00303002024212      0000000000000000000000000000000000000000000000000000VISION D'ETAT                       0000000000　　　　　　　　　　　　　　　　　　0000000000　　　　　　　　　　　　　　　　　　+006000000000000000000
SEB2009122120091213G00000080040000000000COLLECTION                          00310004000000ムーア　000000　　　　　　　　　　　　　　　　　　　　　　　　　　　　　　　　　　　　　　　　　　　　　　　　　　　　　　　　　　　　　　　　　　　　　　　　　　　　　　　　　　　　　　　　　　　　570000000000000000ビードマ　　　　00       00202002020 34      0000000000000000000000000000000000000000000000000000VISION D'ETAT                       0000000000　　　　　　　　　　　　　　　　　　0000000000　　　　　　　　　　　　　　　　　　+002000000000000000000
SEB2009122120091213G00000080050000000000STARLISH                            00110004000000ルルーシ000000　　　　　　　　　　　　　　　　　　　　　　　　　　　　　　　　　　　　　　　　　　　　　　　　　　　　　　　　　　　　　　　　　　　　　　　　　　　　　　　　　　　　　　　　　　　　570000000000000000クラスト　　　　00       00606002026H        0000000000000000000000000000000000000000000000000000VISION D'ETAT                       0000000000　　　　　　　　　　　　　　　　　　0000000000　　　　　　　　　　　　　　　　　　+008000000000000000000
SEB2009122120091213G00000080060000000000EYSHAL                              00310005000000ムーア　000000　　　　　　　　　　　　　　　　　　　　　　　　　　　　　　　　　　　　　　　　　　　　　　　　　　　　　　　　　　　　　　　　　　　　　　　　　　　　　　　　　　　　　　　　　　　　570000000000000000マーウィ　　　　00       00909002029K        0000000000000000000000000000000000000000000000000000VISION D'ETAT                       0000000000　　　　　　　　　　　　　　　　　　0000000000　　　　　　　　　　　　　　　　　　+011000000000000000000
SEB2009122120091213G00000080070000000000MR MEDICI                           00110004000000ホー　　000000　　　　　　　　　　　　　　　　　　　　　　　　　　　　　　　　　　　　　　　　　　　　　　　　　　　　　　　　　　　　　　　　　　　　　　　　　　　　　　　　　　　　　　　　　　　　570000000000000000デットー　　　　00       00808002029114      0000000000000000000000000000000000000000000000000000VISION D'ETAT                       0000000000　　　　　　　　　　　　　　　　　　0000000000　　　　　　　　　　　　　　　　　　+011000000000000000000
SEB2009122120091213G00000080080000000000SPECIAL DAYS                        00310006000000サイズ　000000　　　　　　　　　　　　　　　　　　　　　　　　　　　　　　　　　　　　　　　　　　　　　　　　　　　　　　　　　　　　　　　　　　　　　　　　　　　　　　　　　　　　　　　　　　　　570000000000000000ウィリア　　　　00       00707002027 34      0000000000000000000000000000000000000000000000000000VISION D'ETAT                       0000000000　　　　　　　　　　　　　　　　　　0000000000　　　　　　　　　　　　　　　　　　+009000000000000000000
SEB2009122420091213G00000080092004103215クィーンスプマンテ　　　　　　　　　00210105101068小島茂之148800グリーンファーム　　　　　　　　　　　　　　　　　　　　　　　　緑，黒三本輪　　　　　　　　　　　　　　　　　　　　　　　　　　　　　　　　　　　　　　　　　　　　　　　　　　　　　　555000000110400000田中博康　　　　00446    01010002034234      0000000000000000000000000000000000000000000000000000VISION D'ETAT                       0000000000　　　　　　　　　　　　　　　　　　0000000000　　　　　　　　　　　　　　　　　　+016000000000000000000
SEB2009122120091213G00000080100000000000ASHALANDA                           00210003000000ド・ロワ000000　　　　　　　　　　　　　　　　　　　　　　　　　　　　　　　　　　　　　　　　　　　　　　　　　　　　　　　　　　　　　　　　　　　　　　　　　　　　　　　　　　　　　　　　　　　　540000000000000000モッセ　　　　　00       00404002024K        0000000000000000000000000000000000000000000000000000VISION D'ETAT                       0000000000　　　　　　　　　　　　　　　　　　0000000000　　　　　　　　　　　　　　　　　　+006000000000000000000
SEB2010032520090218B60000040042003190011ペンティフィック　　　　　　　　　　00310406005640フーラハ636030Ｐ．シン　　　　　　　　　　　　　　　　　　　　　　　　　　　　　　　　　　　　　　　　　　　　　　　　　　　　　　　　　　　　　　　　　　　　　　　　　　　　　　　　　　　　　　　　560000000000000000マーテン　　　　00       00011001327         0000000000000000000000000000000000000000000000000000PREVARICATE                         0000000000　　　　　　　　　　　　　　　　　　0000000000　　　　　　　　　　　　　　　　　　+013000000000000000000
SEB2010032520090309B60000060032003190011ペンティフィック　　　　　　　　　　00310406005640フーラハ636030Ｐ．シン　　　　　　　　　　　　　　　　　　　　　　　　　　　　　　　　　　　　　　　　　　　　　　　　　　　　　　　　　　　　　　　　　　　　　　　　　　　　　　　　　　　　　　　　675000000000000000ボーディ　　　　00       00005002076         0000000000000000000000000000000000000000000000000000CORONATION PRINCE                   0000000000　　　　　　　　　　　　　　　　　　0000000000　　　　　　　　　　　　　　　　　　+008000000000000000000
SEB2010032520090403B60000020052003190011ペンティフィック　　　　　　　　　　00310406005640フーラハ636030Ｐ．シン　　　　　　　　　　　　　　　　　　　　　　　　　　　　　　　　　　　　　　　　　　　　　　　　　　　　　　　　　　　　　　　　　　　　　　　　　　　　　　　　　　　　　　　　665000000000000000ウェルズ　　　　00       40000000000         0000000000000000000000000000000000000009990000000000PRINCE VITALITY                     0000000000　　　　　　　　　　　　　　　　　　0000000000　　　　　　　　　　　　　　　　　　9999000000000000000000
SEB2010032520090411B60000020092003190011ペンティフィック　　　　　　　　　　00310406005640フーラハ636030Ｐ．シン　　　　　　　　　　　　　　　　　　　　　　　　　　　　　　　　　　　　　　　　　　　　　　　　　　　　　　　　　　　　　　　　　　　　　　　　　　　　　　　　　　　　　　　　660000000000000000ウェルズ　　　　00       000020031791        0000000000000000000000000000000000000000000000000000JULY                                0000000000　　　　　　　　　　　　　　　　　　0000000000　　　　　　　　　　　　　　　　　　+002000000000000000000
SEB2010032520090413B60000030112003190011ペンティフィック　　　　　　　　　　00310406005640フーラハ636030Ｐ．シン　　　　　　　　　　　　　　　　　　　　　　　　　　　　　　　　　　　　　　　　　　　　　　　　　　　　　　　　　　　　　　　　　　　　　　　　　　　　　　　　　　　　　　　　640000000000000000ウェルズ　　　　00       00001004034         0000000000000000000000000000000000000000000000000000LAST SHOGUN                         0000000000　　　　　　　　　　　　　　　　　　0000000000　　　　　　　　　　　　　　　　　　0000000000000000000000
SEB2010032520090603B60000020022003190011ペンティフィック　　　　　　　　　　00310406005640フーラハ636030Ｐ．シン　　　　　　　　　　　　　　　　　　　　　　　　　　　　　　　　　　　　　　　　　　　　　　　　　　　　　　　　　　　　　　　　　　　　　　　　　　　　　　　　　　　　　　　　690000000000000000ダーデン　　　　00       00003003578         0000000000000000000000000000000000000000000000000000YAMANAURA                           0000000000　　　　　　　　　　　　　　　　　　0000000000　　　　　　　　　　　　　　　　　　+002000000000000000000
SEB2010032520090613B60000040032003190011ペンティフィック　　　　　　　　　　00310406005640フーラハ636030Ｐ．シン　　　　　　　　　　　　　　　　　　　　　　　　　　　　　　　　　　　　　　　　　　　　　　　　　　　　　　　　　　　　　　　　　　　　　　　　　　　　　　　　　　　　　　　　665000000000000000ダーデン　　　　00       40000000000         0000000000000000000000000000000000000009990000000000HOOKER ROAD                         0000000000　　　　　　　　　　　　　　　　　　0000000000　　　　　　　　　　　　　　　　　　9999000000000000000000
SEB2010032520090620B60000020012003190011ペンティフィック　　　　　　　　　　00310406005640フーラハ636030Ｐ．シン　　　　　　　　　　　　　　　　　　　　　　　　　　　　　　　　　　　　　　　　　　　　　　　　　　　　　　　　　　　　　　　　　　　　　　　　　　　　　　　　　　　　　　　　680000000000000000ダーデン　　　　00       00003003433         0000000000000000000000000000000000000000000000000000DESTINY CALLS                       0000000000　　　　　　　　　　　　　　　　　　0000000000　　　　　　　　　　　　　　　　　　+003000000000000000000
SEB2010032520090711B60000020022003190011ペンティフィック　　　　　　　　　　00310406005640フーラハ636030Ｐ．シン　　　　　　　　　　　　　　　　　　　　　　　　　　　　　　　　　　　　　　　　　　　　　　　　　　　　　　　　　　　　　　　　　　　　　　　　　　　　　　　　　　　　　　　　665000000000000000ウェルズ　　　　00       00001004022         0000000000000000000000000000000000000000000000000000RUDE 'N' ABRUPT                     0000000000　　　　　　　　　　　　　　　　　　0000000000　　　　　　　　　　　　　　　　　　0000000000000000000000
SEB2010032520090725B60000040052003190011ペンティフィック　　　　　　　　　　00310406005640フーラハ636030Ｐ．シン　　　　　　　　　　　　　　　　　　　　　　　　　　　　　　　　　　　　　　　　　　　　　　　　　　　　　　　　　　　　　　　　　　　　　　　　　　　　　　　　　　　　　　　　660000000000000000ウェルズ　　　　00       00001004461         0000000000000000000000000000000000000000000000000000HOOKER ROAD                         0000000000　　　　　　　　　　　　　　　　　　0000000000　　　　　　　　　　　　　　　　　　0000000000000000000000
SEB2010032520090816B60000020022003190011ペンティフィック　　　　　　　　　　00310406005640フーラハ636030Ｐ．シン　　　　　　　　　　　　　　　　　　　　　　　　　　　　　　　　　　　　　　　　　　　　　　　　　　　　　　　　　　　　　　　　　　　　　　　　　　　　　　　　　　　　　　　　680000000000000000ウェルズ　　　　00       00001004314         0000000000000000000000000000000000000000000000000000MAZZACANO                           0000000000　　　　　　　　　　　　　　　　　　0000000000　　　　　　　　　　　　　　　　　　0000000000000000000000
SEB2010032520090830B60000050022003190011ペンティフィック　　　　　　　　　　00310406005640フーラハ636030Ｐ．シン　　　　　　　　　　　　　　　　　　　　　　　　　　　　　　　　　　　　　　　　　　　　　　　　　　　　　　　　　　　　　　　　　　　　　　　　　　　　　　　　　　　　　　　　690000000000000000ウェルズ　　　　00       00001005191         0000000000000000000000000000000000000000000000000000SIR PENTIRE                         0000000000　　　　　　　　　　　　　　　　　　0000000000　　　　　　　　　　　　　　　　　　0000000000000000000000
SEB2010053020091001G00000080032003190009サイトウィナー　　　　　　　　　　　00310306005611サイズ　998030Ｗ．タム　　　　　　　　　　　　　　　　　　　　　　　　　　　　　　　　　　　　　　　　　　　　　　　　　　　　　　　　　　　　　　　　　　　　　　　　　　　　　　　　　　　　　　　　595000000000000000ドゥルー　　　　00       00006001219         0000000000000000000000000000000000000000000000000000EGYPTIAN RA                         0000000000　　　　　　　　　　　　　　　　　　0000000000　　　　　　　　　　　　　　　　　　+003000000000000000000
SEB2010053020091025G00000080052003190009サイトウィナー　　　　　　　　　　　00310306005611サイズ　998030Ｗ．タム　　　　　　　　　　　　　　　　　　　　　　　　　　　　　　　　　　　　　　　　　　　　　　　　　　　　　　　　　　　　　　　　　　　　　　　　　　　　　　　　　　　　　　　　570000000000000000ホワイト　　　　00       00008001351         0000000000000000000000000000000000000000000000000000PACKING WINNER                      0000000000　　　　　　　　　　　　　　　　　　0000000000　　　　　　　　　　　　　　　　　　+005000000000000000000
SEB2010053020091122G00000070042003190009サイトウィナー　　　　　　　　　　　00310306005611サイズ　998030Ｗ．タム　　　　　　　　　　　　　　　　　　　　　　　　　　　　　　　　　　　　　　　　　　　　　　　　　　　　　　　　　　　　　　　　　　　　　　　　　　　　　　　　　　　　　　　　580000000000000000ホワイト　　　　00       00002001348 34      0000000000000000000000000000000000000000002002190008フェローシップ　　　　　　　　　　　0000000000　　　　　　　　　　　　　　　　　　0000000000　　　　　　　　　　　　　　　　　　+002000000000000000000
SEB2010053020091213G00000070082003190009サイトウィナー　　　　　　　　　　　00310306005611サイズ　998030Ｗ．タム　　　　　　　　　　　　　　　　　　　　　　　　　　　　　　　　　　　　　　　　　　　　　　　　　　　　　　　　　　　　　　　　　　　　　　　　　　　　　　　　　　　　　　　　570000000000000000ホワイト　　　　00       00011001352         0000000000000000000000000000000000000000002002190003グッドババ　　　　　　　　　　　　　0000000000　　　　　　　　　　　　　　　　　　0000000000　　　　　　　　　　　　　　　　　　+006000000000000000000
SEB2010060320090101G00000100012002190008フェローシップ　　　　　　　　　　　00310307005643オサリバ657030Ｗ．シン　　　　　　　　　　　　　　　　　　　　　　　　　　　　　　　　　　　　　　　　　　　　　　　　　　　　　　　　　　　　　　　　　　　　　　　　　　　　　　　　　　　　　　　　605000000000000000パートン　　　　00       00008001215         0000000000000000000000000000000000000000000000000000JOY AND FUN                         0000000000　　　　　　　　　　　　　　　　　　0000000000　　　　　　　　　　　　　　　　　　+005000000000000000000
SEB2010060320090102B40000020032005190008ビューティーフラッシュ　　　　　　　00310104000000ノーブル000000Ｔ．タン　　　　　　　　　　　　　　　　　　　　　　　　　　　　　　　　　　　　　　　　　　　　　　　　　　　　　　　　　　　　　　　　　　　　　　　　　　　　　　　　　　　　　　　　560000000000000000コールマ　　　　00       00003001241         0000000000000000000000000000000000000000000000000000ELUSIVE MEMORIES                    0000000000　　　　　　　　　　　　　　　　　　0000000000　　　　　　　　　　　　　　　　　　+008000000000000000000
SEB2010060320090124G00000080072002190008フェローシップ　　　　　　　　　　　00310307005643オサリバ657030Ｗ．シン　　　　　　　　　　　　　　　　　　　　　　　　　　　　　　　　　　　　　　　　　　　　　　　　　　　　　　　　　　　　　　　　　　　　　　　　　　　　　　　　　　　　　　　　570000000000000000パートン　　　　00       00002001335134      0000000000000000000000000000000000000000002002190003グッドババ　　　　　　　　　　　　　0000000000　　　　　　　　　　　　　　　　　　0000000000　　　　　　　　　　　　　　　　　　+003000000000000000000
SEB2010060320090131B40000010032005190008ビューティーフラッシュ　　　　　　　00310104000000ノーブル000000Ｔ．タン　　　　　　　　　　　　　　　　　　　　　　　　　　　　　　　　　　　　　　　　　　　　　　　　　　　　　　　　　　　　　　　　　　　　　　　　　　　　　　　　　　　　　　　　560000000000000000コールマ　　　　00       00001001219         0000000000000000000000000000000000000000000000000000HERCULIAN PRINCE                    0000000000　　　　　　　　　　　　　　　　　　0000000000　　　　　　　　　　　　　　　　　　0000000000000000000000
SEB2010060320090315G00000080062002190008フェローシップ　　　　　　　　　　　00310307005643オサリバ657030Ｗ．シン　　　　　　　　　　　　　　　　　　　　　　　　　　　　　　　　　　　　　　　　　　　　　　　　　　　　　　　　　　　　　　　　　　　　　　　　　　　　　　　　　　　　　　　　570000000000000000パートン　　　　00       00003001214         0000000000000000000000000000000000000000000000000000EGYPTIAN RA                         0000000000　　　　　　　　　　　　　　　　　　0000000000　　　　　　　　　　　　　　　　　　+004000000000000000000
SEB2010060320090405G00000080042002190008フェローシップ　　　　　　　　　　　00310307005643オサリバ657030Ｗ．シン　　　　　　　　　　　　　　　　　　　　　　　　　　　　　　　　　　　　　　　　　　　　　　　　　　　　　　　　　　　　　　　　　　　　　　　　　　　　　　　　　　　　　　　　560000000000000000パートン　　　　00       00002001338114      0000000000000000000000000000000000000000000000000000MORE BOUNTIFUL                      0000000000　　　　　　　　　　　　　　　　　　0000000000　　　　　　　　　　　　　　　　　　+002000000000000000000
SEB2010060320090426G00000070062002190008フェローシップ　　　　　　　　　　　00310307005643オサリバ657030Ｗ．シン　　　　　　　　　　　　　　　　　　　　　　　　　　　　　　　　　　　　　　　　　　　　　　　　　　　　　　　　　　　　　　　　　　　　　　　　　　　　　　　　　　　　　　　　570000000000000000パートン　　　　00       00010001354         0000000000000000000000000000000000000000002003190009サイトウィナー　　　　　　　　　　　0000000000　　　　　　　　　　　　　　　　　　0000000000　　　　　　　　　　　　　　　　　　+005000000000000000000
SEB2010060320090531G00000090042005190008ビューティーフラッシュ　　　　　　　00310104005433クルーズ656030Ｓ．コック　　　　　　　　　　　　　　　　　　　　　　　　　　　　　　　　　　　　　　　　　　　　　　　　　　　　　　　　　　　　　　　　　　　　　　　　　　　　　　　　　　　　　　　540000000000000000チャドウ　　　　00       00001001097         0000000000000000000000000000000000000000000000000000GLENEALY ELITE                      0000000000　　　　　　　　　　　　　　　　　　0000000000　　　　　　　　　　　　　　　　　　0000000000000000000000
SEB2010060320090621G00000090022005190008ビューティーフラッシュ　　　　　　　00310104005433クルーズ656030Ｓ．コック　　　　　　　　　　　　　　　　　　　　　　　　　　　　　　　　　　　　　　　　　　　　　　　　　　　　　　　　　　　　　　　　　　　　　　　　　　　　　　　　　　　　　　　565000000000000000チャドウ　　　　00       00001001214         0000000000000000000000000000000000000000000000000000AASHIQ                              0000000000　　　　　　　　　　　　　　　　　　0000000000　　　　　　　　　　　　　　　　　　0000000000000000000000
SEB2010060320090920G00000100032005190008ビューティーフラッシュ　　　　　　　00310104005433クルーズ656030Ｓ．コック　　　　　　　　　　　　　　　　　　　　　　　　　　　　　　　　　　　　　　　　　　　　　　　　　　　　　　　　　　　　　　　　　　　　　　　　　　　　　　　　　　　　　　　560000000000000000チャドウ　　　　00       00001001219         0000000000000000000000000000000000000000000000000000IRON FIST                           0000000000　　　　　　　　　　　　　　　　　　0000000000　　　　　　　　　　　　　　　　　　0000000000000000000000
SEB2010060320091001G00000080042002190008フェローシップ　　　　　　　　　　　00310307005643オサリバ657030Ｗ．シン　　　　　　　　　　　　　　　　　　　　　　　　　　　　　　　　　　　　　　　　　　　　　　　　　　　　　　　　　　　　　　　　　　　　　　　　　　　　　　　　　　　　　　　　555000000000000000リョン　　　　　00       00002001216A        0000000000000000000000000000000000000000000000000000EGYPTIAN RA                         0000000000　　　　　　　　　　　　　　　　　　0000000000　　　　　　　　　　　　　　　　　　+000000000000000000000
SEB2010060320091017G00000100062005190008ビューティーフラッシュ　　　　　　　00310104005433クルーズ656030Ｓ．コック　　　　　　　　　　　　　　　　　　　　　　　　　　　　　　　　　　　　　　　　　　　　　　　　　　　　　　　　　　　　　　　　　　　　　　　　　　　　　　　　　　　　　　　575000000000000000プレブル　　　　00       00002001214 12      0000000000000000000000000000000000000000000000000000BERIO                               0000000000　　　　　　　　　　　　　　　　　　0000000000　　　　　　　　　　　　　　　　　　+001000000000000000000
SEB2010060320091025G00000080032002190008フェローシップ　　　　　　　　　　　00310307005643オサリバ657030Ｗ．シン　　　　　　　　　　　　　　　　　　　　　　　　　　　　　　　　　　　　　　　　　　　　　　　　　　　　　　　　　　　　　　　　　　　　　　　　　　　　　　　　　　　　　　　　540000000000000000リョン　　　　　00       00006001351         0000000000000000000000000000000000000000000000000000PACKING WINNER                      0000000000　　　　　　　　　　　　　　　　　　0000000000　　　　　　　　　　　　　　　　　　+005000000000000000000
