SEB2003120420020223A40000000010000000000CELLO                               00000000000000　　　　000000　　　　　　　　　　　　　　　　　　　　　　　　　　　　　　　　　　　　　　　　　　　　　　　　　　　　　　　　　　　　　　　　　　　　　　　　　　　　　　　　　　　　　　　　　　　　000000000000000000　　　　　　　　00       000090000002        0000000000000000000000000000000000000000000000000000DESCAPATE                           0000000000　　　　　　　　　　　　　　　　　　0000000000　　　　　　　　　　　　　　　　　　0000000000000000000000
SEB2003120420020223A40000000020000000000INSTINCT                            00000000000000　　　　000000　　　　　　　　　　　　　　　　　　　　　　　　　　　　　　　　　　　　　　　　　　　　　　　　　　　　　　　　　　　　　　　　　　　　　　　　　　　　　　　　　　　　　　　　　　　　000000000000000000　　　　　　　　00       00005000000114      0000000000000000000000000000000000000000000000000000DESCAPATE                           0000000000　　　　　　　　　　　　　　　　　　0000000000　　　　　　　　　　　　　　　　　　0000000000000000000000
SEB2003120420020223A40000000030000000000GAL ON THE GO                       00000000000000　　　　000000　　　　　　　　　　　　　　　　　　　　　　　　　　　　　　　　　　　　　　　　　　　　　　　　　　　　　　　　　　　　　　　　　　　　　　　　　　　　　　　　　　　　　　　　　　　　000000000000000000　　　　　　　　00       00003000000K        0000000000000000000000000000000000000000000000000000DESCAPATE                           0000000000　　　　　　　　　　　　　　　　　　0000000000　　　　　　　　　　　　　　　　　　0000000000000000000000
SEB2003120420020223A40000000040000000000MOMENTOUS                           00000000000000　　　　000000　　　　　　　　　　　　　　　　　　　　　　　　　　　　　　　　　　　　　　　　　　　　　　　　　　　　　　　　　　　　　　　　　　　　　　　　　　　　　　　　　　　　　　　　　　　　000000000000000000　　　　　　　　00       000070000003        0000000000000000000000000000000000000000000000000000DESCAPATE                           0000000000　　　　　　　　　　　　　　　　　　0000000000　　　　　　　　　　　　　　　　　　0000000000000000000000
SEB2003120420020223A40000000051997110259マルターズスパーブ　　　　　　　　　06210705100436堀井雅広685006藤田　与志男　　　　　　　　　　　　　　　　　　　　　　　　　　水色，赤縦縞，袖赤一本輪　　　　　　　　　　　　　　　　　　　　　　　　　　　　　　　　　　　　　　　　　　　　　　　　531000000000000000ＭＥＣＨ　　　　00       00404000000A        0000000000000000000000000000000000000000000000000000DESCAPATE                           0000000000　　　　　　　　　　　　　　　　　　0000000000　　　　　　　　　　　　　　　　　　0000000000000000000000
SEB2003120420020223A40000000060000000000CAT AND THE HAT                     00000000000000　　　　000000　　　　　　　　　　　　　　　　　　　　　　　　　　　　　　　　　　　　　　　　　　　　　　　　　　　　　　　　　　　　　　　　　　　　　　　　　　　　　　　　　　　　　　　　　　　　000000000000000000　　　　　　　　00       000100000003        0000000000000000000000000000000000000000000000000000DESCAPATE                           0000000000　　　　　　　　　　　　　　　　　　0000000000　　　　　　　　　　　　　　　　　　0000000000000000000000
SEB2003120420020223A40000000070000000000SCOOP                               00000000000000　　　　000000　　　　　　　　　　　　　　　　　　　　　　　　　　　　　　　　　　　　　　　　　　　　　　　　　　　　　　　　　　　　　　　　　　　　　　　　　　　　　　　　　　　　　　　　　　　　000000000000000000　　　　　　　　00       000060000006        0000000000000000000000000000000000000000000000000000DESCAPATE                           0000000000　　　　　　　　　　　　　　　　　　0000000000　　　　　　　　　　　　　　　　　　0000000000000000000000
SEB2003120420020223A40000000080000000000OUR MAJESTIC CAT                    00000000000000　　　　000000　　　　　　　　　　　　　　　　　　　　　　　　　　　　　　　　　　　　　　　　　　　　　　　　　　　　　　　　　　　　　　　　　　　　　　　　　　　　　　　　　　　　　　　　　　　　000000000000000000　　　　　　　　00       000080000007        0000000000000000000000000000000000000000000000000000DESCAPATE                           0000000000　　　　　　　　　　　　　　　　　　0000000000　　　　　　　　　　　　　　　　　　0000000000000000000000
SEB2003120420020223A40000000090000000000MIMI'S TIZZY                        00000000000000　　　　000000　　　　　　　　　　　　　　　　　　　　　　　　　　　　　　　　　　　　　　　　　　　　　　　　　　　　　　　　　　　　　　　　　　　　　　　　　　　　　　　　　　　　　　　　　　　　000000000000000000　　　　　　　　00       000020000007        0000000000000000000000000000000000000000000000000000DESCAPATE                           0000000000　　　　　　　　　　　　　　　　　　0000000000　　　　　　　　　　　　　　　　　　0000000000000000000000
SEB2003120420020223A40000000100000000000DESCAPATE                           00000000000000　　　　000000　　　　　　　　　　　　　　　　　　　　　　　　　　　　　　　　　　　　　　　　　　　　　　　　　　　　　　　　　　　　　　　　　　　　　　　　　　　　　　　　　　　　　　　　　　　　000000000000000000　　　　　　　　00       00001001429         0000000000000000000000000000000000000000000000000000MIMI'S TIZZY                        0000000000　　　　　　　　　　　　　　　　　　0000000000　　　　　　　　　　　　　　　　　　0000000000000000000000
SEB2003120420020418A40000000010000000000DE BERTIE                           00000000000000　　　　000000　　　　　　　　　　　　　　　　　　　　　　　　　　　　　　　　　　　　　　　　　　　　　　　　　　　　　　　　　　　　　　　　　　　　　　　　　　　　　　　　　　　　　　　　　　　　000000000000000000　　　　　　　　00       000030000004        0000000000000000000000000000000000000000000000000000DANCETHRUTHEDAWN                    0000000000　　　　　　　　　　　　　　　　　　0000000000　　　　　　　　　　　　　　　　　　0000000000000000000000
SEB2003120420020418A40000000020000000000DANCETHRUTHEDAWN                    00000000000000　　　　000000　　　　　　　　　　　　　　　　　　　　　　　　　　　　　　　　　　　　　　　　　　　　　　　　　　　　　　　　　　　　　　　　　　　　　　　　　　　　　　　　　　　　　　　　　　　　000000000000000000　　　　　　　　00       00001001429         0000000000000000000000000000000000000000001997110259マルターズスパーブ　　　　　　　　　0000000000　　　　　　　　　　　　　　　　　　0000000000　　　　　　　　　　　　　　　　　　0000000000000000000000
SEB2003120420020418A40000000030000000000WAKI MUSIC                          00000000000000　　　　000000　　　　　　　　　　　　　　　　　　　　　　　　　　　　　　　　　　　　　　　　　　　　　　　　　　　　　　　　　　　　　　　　　　　　　　　　　　　　　　　　　　　　　　　　　　　　000000000000000000　　　　　　　　00       00005000000T        0000000000000000000000000000000000000000000000000000DANCETHRUTHEDAWN                    0000000000　　　　　　　　　　　　　　　　　　0000000000　　　　　　　　　　　　　　　　　　0000000000000000000000
SEB2003120420020418A40000000040000000000EXTEND                              00000000000000　　　　000000　　　　　　　　　　　　　　　　　　　　　　　　　　　　　　　　　　　　　　　　　　　　　　　　　　　　　　　　　　　　　　　　　　　　　　　　　　　　　　　　　　　　　　　　　　　　000000000000000000　　　　　　　　00       00004000000 12      0000000000000000000000000000000000000000000000000000DANCETHRUTHEDAWN                    0000000000　　　　　　　　　　　　　　　　　　0000000000　　　　　　　　　　　　　　　　　　0000000000000000000000
SEB2003120420020418A40000000051997110259マルターズスパーブ　　　　　　　　　06210705100436堀井雅広685006藤田　与志男　　　　　　　　　　　　　　　　　　　　　　　　　　水色，赤縦縞，袖赤一本輪　　　　　　　　　　　　　　　　　　　　　　　　　　　　　　　　　　　　　　　　　　　　　　　　526000000000000000ＣＨＡＶ　　　　00       002020000005        0000000000000000000000000000000000000000000000000000DANCETHRUTHEDAWN                    0000000000　　　　　　　　　　　　　　　　　　0000000000　　　　　　　　　　　　　　　　　　0000000000000000000000
SEB2003120420020503A40000000010000000000SPAIN                               00000000000000　　　　000000　　　　　　　　　　　　　　　　　　　　　　　　　　　　　　　　　　　　　　　　　　　　　　　　　　　　　　　　　　　　　　　　　　　　　　　　　　　　　　　　　　　　　　　　　　　　000000000000000000　　　　　　　　00       00001001439         0000000000000000000000000000000000000000000000000000MYSTIC LADY                         0000000000　　　　　　　　　　　　　　　　　　0000000000　　　　　　　　　　　　　　　　　　0000000000000000000000
SEB2003120420020503A40000000020000000000MYSTIC LADY                         00000000000000　　　　000000　　　　　　　　　　　　　　　　　　　　　　　　　　　　　　　　　　　　　　　　　　　　　　　　　　　　　　　　　　　　　　　　　　　　　　　　　　　　　　　　　　　　　　　　　　　　000000000000000000　　　　　　　　00       00002000000114      0000000000000000000000000000000000000000000000000000SPAIN                               0000000000　　　　　　　　　　　　　　　　　　0000000000　　　　　　　　　　　　　　　　　　0000000000000000000000
SEB2003120420020503A40000000030000000000DE BERTIE                           00000000000000　　　　000000　　　　　　　　　　　　　　　　　　　　　　　　　　　　　　　　　　　　　　　　　　　　　　　　　　　　　　　　　　　　　　　　　　　　　　　　　　　　　　　　　　　　　　　　　　　　000000000000000000　　　　　　　　00       000030000003        0000000000000000000000000000000000000000000000000000SPAIN                               0000000000　　　　　　　　　　　　　　　　　　0000000000　　　　　　　　　　　　　　　　　　0000000000000000000000
SEB2003120420020503A40000000041997110259マルターズスパーブ　　　　　　　　　06210705100436堀井雅広685006藤田　与志男　　　　　　　　　　　　　　　　　　　　　　　　　　水色，赤縦縞，袖赤一本輪　　　　　　　　　　　　　　　　　　　　　　　　　　　　　　　　　　　　　　　　　　　　　　　　517000000000000000ＰＲＡＤ　　　　00       00404000000 12      0000000000000000000000000000000000000000000000000000SPAIN                               0000000000　　　　　　　　　　　　　　　　　　0000000000　　　　　　　　　　　　　　　　　　0000000000000000000000
SEB2003120420020503A40000000050000000000FOREST SECRETS                      00000000000000　　　　000000　　　　　　　　　　　　　　　　　　　　　　　　　　　　　　　　　　　　　　　　　　　　　　　　　　　　　　　　　　　　　　　　　　　　　　　　　　　　　　　　　　　　　　　　　　　　000000000000000000　　　　　　　　00       00005000000K        0000000000000000000000000000000000000000000000000000SPAIN                               0000000000　　　　　　　　　　　　　　　　　　0000000000　　　　　　　　　　　　　　　　　　0000000000000000000000
SEB2003120420020503A40000000060000000000RED N'GOLD                          00000000000000　　　　000000　　　　　　　　　　　　　　　　　　　　　　　　　　　　　　　　　　　　　　　　　　　　　　　　　　　　　　　　　　　　　　　　　　　　　　　　　　　　　　　　　　　　　　　　　　　　000000000000000000　　　　　　　　00       00006000000H        0000000000000000000000000000000000000000000000000000SPAIN                               0000000000　　　　　　　　　　　　　　　　　　0000000000　　　　　　　　　　　　　　　　　　0000000000000000000000
SEB2003120420020527A40000000010000000000QUEEN OF WILSHIRE                   00000000000000　　　　000000　　　　　　　　　　　　　　　　　　　　　　　　　　　　　　　　　　　　　　　　　　　　　　　　　　　　　　　　　　　　　　　　　　　　　　　　　　　　　　　　　　　　　　　　　　　　000000000000000000　　　　　　　　00       00001001389         0000000000000000000000000000000000000000000000000000PLEASANT STATE                      0000000000　　　　　　　　　　　　　　　　　　0000000000　　　　　　　　　　　　　　　　　　0000000000000000000000
SEB2003120420020527A40000000020000000000PLEASANT STATE                      00000000000000　　　　000000　　　　　　　　　　　　　　　　　　　　　　　　　　　　　　　　　　　　　　　　　　　　　　　　　　　　　　　　　　　　　　　　　　　　　　　　　　　　　　　　　　　　　　　　　　　　000000000000000000　　　　　　　　00       000020000001        0000000000000000000000000000000000000000000000000000QUEEN OF WILSHIRE                   0000000000　　　　　　　　　　　　　　　　　　0000000000　　　　　　　　　　　　　　　　　　0000000000000000000000
SEB2003120420020527A40000000030000000000BLUSHING BRIDE                      00000000000000　　　　000000　　　　　　　　　　　　　　　　　　　　　　　　　　　　　　　　　　　　　　　　　　　　　　　　　　　　　　　　　　　　　　　　　　　　　　　　　　　　　　　　　　　　　　　　　　　　000000000000000000　　　　　　　　00       00003000000 34      0000000000000000000000000000000000000000000000000000QUEEN OF WILSHIRE                   0000000000　　　　　　　　　　　　　　　　　　0000000000　　　　　　　　　　　　　　　　　　0000000000000000000000
SEB2003120420020527A40000000040000000000CHAMPS ELYSEES                      00000000000000　　　　000000　　　　　　　　　　　　　　　　　　　　　　　　　　　　　　　　　　　　　　　　　　　　　　　　　　　　　　　　　　　　　　　　　　　　　　　　　　　　　　　　　　　　　　　　　　　　000000000000000000　　　　　　　　00       00004000000114      0000000000000000000000000000000000000000000000000000QUEEN OF WILSHIRE                   0000000000　　　　　　　　　　　　　　　　　　0000000000　　　　　　　　　　　　　　　　　　0000000000000000000000
SEB2003120420020527A40000000051997110259マルターズスパーブ　　　　　　　　　06210705100436堀井雅広685006藤田　与志男　　　　　　　　　　　　　　　　　　　　　　　　　　水色，赤縦縞，袖赤一本輪　　　　　　　　　　　　　　　　　　　　　　　　　　　　　　　　　　　　　　　　　　　　　　　　517000000000000000ＤＯＵＧ　　　　00       005050000001        0000000000000000000000000000000000000000000000000000QUEEN OF WILSHIRE                   0000000000　　　　　　　　　　　　　　　　　　0000000000　　　　　　　　　　　　　　　　　　0000000000000000000000
SEB2003120420020527A40000000060000000000DUE TO WIN                          00000000000000　　　　000000　　　　　　　　　　　　　　　　　　　　　　　　　　　　　　　　　　　　　　　　　　　　　　　　　　　　　　　　　　　　　　　　　　　　　　　　　　　　　　　　　　　　　　　　　　　　000000000000000000　　　　　　　　00       000060000002        0000000000000000000000000000000000000000000000000000QUEEN OF WILSHIRE                   0000000000　　　　　　　　　　　　　　　　　　0000000000　　　　　　　　　　　　　　　　　　0000000000000000000000
SEB2003120420020527A40000000070000000000EUROLINK RAINDANCE                  00000000000000　　　　000000　　　　　　　　　　　　　　　　　　　　　　　　　　　　　　　　　　　　　　　　　　　　　　　　　　　　　　　　　　　　　　　　　　　　　　　　　　　　　　　　　　　　　　　　　　　　000000000000000000　　　　　　　　00       000070000001        0000000000000000000000000000000000000000000000000000QUEEN OF WILSHIRE                   0000000000　　　　　　　　　　　　　　　　　　0000000000　　　　　　　　　　　　　　　　　　0000000000000000000000
SEB2003120420020527A40000000080000000000LA RECHERCHE                        00000000000000　　　　000000　　　　　　　　　　　　　　　　　　　　　　　　　　　　　　　　　　　　　　　　　　　　　　　　　　　　　　　　　　　　　　　　　　　　　　　　　　　　　　　　　　　　　　　　　　　　000000000000000000　　　　　　　　00       00008000000 34      0000000000000000000000000000000000000000000000000000QUEEN OF WILSHIRE                   0000000000　　　　　　　　　　　　　　　　　　0000000000　　　　　　　　　　　　　　　　　　0000000000000000000000
SEB2003120420020527A40000000090000000000DIANEHILL                           00000000000000　　　　000000　　　　　　　　　　　　　　　　　　　　　　　　　　　　　　　　　　　　　　　　　　　　　　　　　　　　　　　　　　　　　　　　　　　　　　　　　　　　　　　　　　　　　　　　　　　　000000000000000000　　　　　　　　00       000090000005        0000000000000000000000000000000000000000000000000000QUEEN OF WILSHIRE                   0000000000　　　　　　　　　　　　　　　　　　0000000000　　　　　　　　　　　　　　　　　　0000000000000000000000
SEB2003120420020527A40000000100000000000MYSIA JO                            00000000000000　　　　000000　　　　　　　　　　　　　　　　　　　　　　　　　　　　　　　　　　　　　　　　　　　　　　　　　　　　　　　　　　　　　　　　　　　　　　　　　　　　　　　　　　　　　　　　　　　　000000000000000000　　　　　　　　00       00010000000 34      0000000000000000000000000000000000000000000000000000QUEEN OF WILSHIRE                   0000000000　　　　　　　　　　　　　　　　　　0000000000　　　　　　　　　　　　　　　　　　0000000000000000000000
SEB2003120420020527A40000000110000000000STEEL SHOT                          00000000000000　　　　000000　　　　　　　　　　　　　　　　　　　　　　　　　　　　　　　　　　　　　　　　　　　　　　　　　　　　　　　　　　　　　　　　　　　　　　　　　　　　　　　　　　　　　　　　　　　　000000000000000000　　　　　　　　00       000110000006        0000000000000000000000000000000000000000000000000000QUEEN OF WILSHIRE                   0000000000　　　　　　　　　　　　　　　　　　0000000000　　　　　　　　　　　　　　　　　　0000000000000000000000
SEB2003120420020527A40000000120000000000PELUSADA                            00000000000000　　　　000000　　　　　　　　　　　　　　　　　　　　　　　　　　　　　　　　　　　　　　　　　　　　　　　　　　　　　　　　　　　　　　　　　　　　　　　　　　　　　　　　　　　　　　　　　　　　000000000000000000　　　　　　　　00       00012000000134      0000000000000000000000000000000000000000000000000000QUEEN OF WILSHIRE                   0000000000　　　　　　　　　　　　　　　　　　0000000000　　　　　　　　　　　　　　　　　　0000000000000000000000
SEB2003120420020622A40000000010000000000VOODOO DANCER                       00000000000000　　　　000000　　　　　　　　　　　　　　　　　　　　　　　　　　　　　　　　　　　　　　　　　　　　　　　　　　　　　　　　　　　　　　　　　　　　　　　　　　　　　　　　　　　　　　　　　　　　000000000000000000　　　　　　　　00       00001001469         0000000000000000000000000000000000000000000000000000BLUE MOON                           0000000000　　　　　　　　　　　　　　　　　　0000000000　　　　　　　　　　　　　　　　　　0000000000000000000000
SEB2003120420020622A40000000020000000000BLUE MOON                           00000000000000　　　　000000　　　　　　　　　　　　　　　　　　　　　　　　　　　　　　　　　　　　　　　　　　　　　　　　　　　　　　　　　　　　　　　　　　　　　　　　　　　　　　　　　　　　　　　　　　　　000000000000000000　　　　　　　　00       00002000000114      0000000000000000000000000000000000000000000000000000VOODOO DANCER                       0000000000　　　　　　　　　　　　　　　　　　0000000000　　　　　　　　　　　　　　　　　　0000000000000000000000
SEB2003120420020622A40000000030000000000SOLVIG                              00000000000000　　　　000000　　　　　　　　　　　　　　　　　　　　　　　　　　　　　　　　　　　　　　　　　　　　　　　　　　　　　　　　　　　　　　　　　　　　　　　　　　　　　　　　　　　　　　　　　　　　000000000000000000　　　　　　　　00       00003000000A        0000000000000000000000000000000000000000000000000000VOODOO DANCER                       0000000000　　　　　　　　　　　　　　　　　　0000000000　　　　　　　　　　　　　　　　　　0000000000000000000000
SEB2003120420020622A40000000040000000000COZY ISLAND                         00000000000000　　　　000000　　　　　　　　　　　　　　　　　　　　　　　　　　　　　　　　　　　　　　　　　　　　　　　　　　　　　　　　　　　　　　　　　　　　　　　　　　　　　　　　　　　　　　　　　　　　000000000000000000　　　　　　　　00       000040000001        0000000000000000000000000000000000000000000000000000VOODOO DANCER                       0000000000　　　　　　　　　　　　　　　　　　0000000000　　　　　　　　　　　　　　　　　　0000000000000000000000
SEB2003120420020622A40000000050000000000SNOW DANCE                          00000000000000　　　　000000　　　　　　　　　　　　　　　　　　　　　　　　　　　　　　　　　　　　　　　　　　　　　　　　　　　　　　　　　　　　　　　　　　　　　　　　　　　　　　　　　　　　　　　　　　　　000000000000000000　　　　　　　　00       000050000002        0000000000000000000000000000000000000000000000000000VOODOO DANCER                       0000000000　　　　　　　　　　　　　　　　　　0000000000　　　　　　　　　　　　　　　　　　0000000000000000000000
SEB2003120420020622A40000000060000000000MEGANS BLUFF                        00000000000000　　　　000000　　　　　　　　　　　　　　　　　　　　　　　　　　　　　　　　　　　　　　　　　　　　　　　　　　　　　　　　　　　　　　　　　　　　　　　　　　　　　　　　　　　　　　　　　　　　000000000000000000　　　　　　　　00       000060000002        0000000000000000000000000000000000000000000000000000VOODOO DANCER                       0000000000　　　　　　　　　　　　　　　　　　0000000000　　　　　　　　　　　　　　　　　　0000000000000000000000
SEB2003120420020622A40000000070000000000SITKA                               00000000000000　　　　000000　　　　　　　　　　　　　　　　　　　　　　　　　　　　　　　　　　　　　　　　　　　　　　　　　　　　　　　　　　　　　　　　　　　　　　　　　　　　　　　　　　　　　　　　　　　　000000000000000000　　　　　　　　00       00007000000K        0000000000000000000000000000000000000000000000000000VOODOO DANCER                       0000000000　　　　　　　　　　　　　　　　　　0000000000　　　　　　　　　　　　　　　　　　0000000000000000000000
SEB2003120420020622A40000000080000000000CAYMAN SUNSET                       00000000000000　　　　000000　　　　　　　　　　　　　　　　　　　　　　　　　　　　　　　　　　　　　　　　　　　　　　　　　　　　　　　　　　　　　　　　　　　　　　　　　　　　　　　　　　　　　　　　　　　　000000000000000000　　　　　　　　00       00008000000212      0000000000000000000000000000000000000000000000000000VOODOO DANCER                       0000000000　　　　　　　　　　　　　　　　　　0000000000　　　　　　　　　　　　　　　　　　0000000000000000000000
SEB2003120420020622A40000000091997110259マルターズスパーブ　　　　　　　　　06210705100436堀井雅広685006藤田　与志男　　　　　　　　　　　　　　　　　　　　　　　　　　水色，赤縦縞，袖赤一本輪　　　　　　　　　　　　　　　　　　　　　　　　　　　　　　　　　　　　　　　　　　　　　　　　512000000000000000ＢＯＲＥ　　　　00       009090000002        0000000000000000000000000000000000000000000000000000VOODOO DANCER                       0000000000　　　　　　　　　　　　　　　　　　0000000000　　　　　　　　　　　　　　　　　　0000000000000000000000
SEB2005092620021215G00000030031998102595ショウナンカンプ　　　　　　　　　　03110304100138大久保洋331002国本　哲秀　　　　　　　　　　　　　　　　　　　　　　　　　　　赤，白一本輪，白袖　　　　　　　　　　　　　　　　　　　　　　　　　　　　　　　　　　　　　　　　　　　　　　　　　　　570000000070500000藤田伸二　　　　00485    01010000574114      0000000000000000000000000000000000000000000000000000ALL THRILLS TOO                     0000000000　　　　　　　　　　　　　　　　　　0000000000　　　　　　　　　　　　　　　　　　+010000000000000000000
SEB2005092620021215G00000030050000000000TEXAS GLITTER                       00110006000000プレッチ000000　　　　　　　　　　　　　　　　　　　　　　　　　　　　　　　　　　　　　　　　　　　　　　　　　　　　　　　　　　　　　　　　　　　　　　　　　　　　　　　　　　　　　　　　　　　　570000000000000000プラード　　　　00521    00808000571 12      0000000000000000000000000000000000000000000000000000ALL THRILLS TOO                     0000000000　　　　　　　　　　　　　　　　　　0000000000　　　　　　　　　　　　　　　　　　+007000000000000000000
SEB2005092620021215G00000030111998101038ビリーヴ　　　　　　　　　　　　　　04210304200419松元茂樹948006前田　幸治　　　　　　　　　　　　　　　　　　　　　　　　　　　水色，赤十字襷，赤袖水色一本輪　　　　　　　　　　　　　　　　　　　　　　　　　　　　　　　　　　　　　　　　　　　　　555000000066600000武豊　　　　　　00458    01212000581212      0000000000000000000000000000000000000000000000000000ALL THRILLS TOO                     0000000000　　　　　　　　　　　　　　　　　　0000000000　　　　　　　　　　　　　　　　　　+017000000000000000000
SEB2005092920021226G00000050081999190018サイレントウィットネス　　　　　　　00310303005433クルーズ259008Ａ．ダシルバ　　　　　　　　　　　　　　　　　　　　　　　　　　　　　　　　　　　　　　　　　　　　　　　　　　　　　　　　　　　　　　　　　　　　　　　　　　　　　　　　　　　　　　570000000533700000コーツィ　　　　00528    00101000578         0000000000000000000000000000000000000000000000000000AMAZING VICTORY                     0000000000　　　　　　　　　　　　　　　　　　0000000000　　　　　　　　　　　　　　　　　　-006000000000000000000
SEB2005112420020407A40000020081999190019ベタートークナウ　　　　　　　　　　00010503005560モーショ736800ブッシュウッドレーシングパートナー＆ＦセキグチＬＰ　　　　　　　　　　　　　　　　　　　　　　　　　　　　　　　　　　　　　　　　　　　　　　　　　　　　　　　　　　　　　　　　　　　540000000000000000ダグラス　　　　00       00606001315         0000000000000000000000000000000000000000000000000000TABLE LIMIT                         0000000000　　　　　　　　　　　　　　　　　　0000000000　　　　　　　　　　　　　　　　　　+035000000000000000000
SEB2005112120020417A60000030031998190013ウォーサン　　　　　　　　　　　　　00110304000804ブリテン584008Ｓ．マナナ　　　　　　　　　　　　　　　　　　　　　　　　　　　　　　　　　　　　　　　　　　　　　　　　　　　　　　　　　　　　　　　　　　　　　　　　　　　　　　　　　　　　　　　580000000000000000デットー　　　　00       00707002321H        0000000000000000000000000000000000000000000000000000SOLO FLIGHT                         0000000000　　　　　　　　　　　　　　　　　　0000000000　　　　　　　　　　　　　　　　　　+004000000000000000000
SEB2005112120020505A60000060151998190013ウォーサン　　　　　　　　　　　　　00110304000804ブリテン584008Ｓ．マナナ　　　　　　　　　　　　　　　　　　　　　　　　　　　　　　　　　　　　　　　　　　　　　　　　　　　　　　　　　　　　　　　　　　　　　　　　　　　　　　　　　　　　　　　560000000000000000デットー　　　　00       002020023191        0000000000000000000000000000000000000000000000000000FIRST BALLOT                        0000000000　　　　　　　　　　　　　　　　　　0000000000　　　　　　　　　　　　　　　　　　+002000000000000000000
SEB2005112120020518A60000030051998190013ウォーサン　　　　　　　　　　　　　00110304000804ブリテン584008Ｓ．マナナ　　　　　　　　　　　　　　　　　　　　　　　　　　　　　　　　　　　　　　　　　　　　　　　　　　　　　　　　　　　　　　　　　　　　　　　　　　　　　　　　　　　　　　　560000000000000000ペリエ　　　　　00       002020025187        0000000000000000000000000000000000000000000000000000HIGH PITCHED                        0000000000　　　　　　　　　　　　　　　　　　0000000000　　　　　　　　　　　　　　　　　　+012000000000000000000
SEB2005112120020523A60000030121998190013ウォーサン　　　　　　　　　　　　　00110304000804ブリテン584008Ｓ．マナナ　　　　　　　　　　　　　　　　　　　　　　　　　　　　　　　　　　　　　　　　　　　　　　　　　　　　　　　　　　　　　　　　　　　　　　　　　　　　　　　　　　　　　　　550000000000000000サンダー　　　　00       00101003037         0000000000000000000000000000000000000000000000000000HARLESTONE GREY                     0000000000　　　　　　　　　　　　　　　　　　0000000000　　　　　　　　　　　　　　　　　　0000000000000000000000
SEB2005112420020602A40000040051999190019ベタートークナウ　　　　　　　　　　00010503005560モーショ736800ブッシュウッドレーシングパートナー＆ＦセキグチＬＰ　　　　　　　　　　　　　　　　　　　　　　　　　　　　　　　　　　　　　　　　　　　　　　　　　　　　　　　　　　　　　　　　　　　525000000000000000ボレル　　　　　00       00202001441134      0000000000000000000000000000000000000000000000000000STRAIGHT PATH                       0000000000　　　　　　　　　　　　　　　　　　0000000000　　　　　　　　　　　　　　　　　　+003000000000000000000
SEB2005112420020619A40000010051999190019ベタートークナウ　　　　　　　　　　00010503005560モーショ736800ブッシュウッドレーシングパートナー＆ＦセキグチＬＰ　　　　　　　　　　　　　　　　　　　　　　　　　　　　　　　　　　　　　　　　　　　　　　　　　　　　　　　　　　　　　　　　　　　525000000000000000ボレル　　　　　00       00202001445434      0000000000000000000000000000000000000000000000000000A P FIVE HUNDRED                    0000000000　　　　　　　　　　　　　　　　　　0000000000　　　　　　　　　　　　　　　　　　+009000000000000000000
SEB2005112120020620A60000030071998190013ウォーサン　　　　　　　　　　　　　00110304000804ブリテン584008Ｓ．マナナ　　　　　　　　　　　　　　　　　　　　　　　　　　　　　　　　　　　　　　　　　　　　　　　　　　　　　　　　　　　　　　　　　　　　　　　　　　　　　　　　　　　　　　　570000000000000000ロビンソ　　　　00       00808004265K        0000000000000000000000000000000000000000000000000000ROYAL REBEL                         0000000000　　　　　　　　　　　　　　　　　　0000000000　　　　　　　　　　　　　　　　　　+009000000000000000000
SEB2005112420020706A40000060031999190019ベタートークナウ　　　　　　　　　　00010503005560モーショ736800ブッシュウッドレーシングパートナー＆ＦセキグチＬＰ　　　　　　　　　　　　　　　　　　　　　　　　　　　　　　　　　　　　　　　　　　　　　　　　　　　　　　　　　　　　　　　　　　　525000000000000000ボレル　　　　　00       00101001369         0000000000000000000000000000000000000000000000000000REVERSE PSYCHOLOGY                  0000000000　　　　　　　　　　　　　　　　　　0000000000　　　　　　　　　　　　　　　　　　0000000000000000000000
SEB2005111020020719A60000020062000190009サミットヴィル　　　　　　　　　　　00210302005554ギヴン　739800マウンテン・ハイ・パートナーシップ　　　　　　　　　　　　　　　　　　　　　　　　　　　　　　　　　　　　　　　　　　　　　　　　　　　　　　　　　　　　　　　　　　　　　　　　　　　555000000000000000フェント　　　　00       00101001284         0000000000000000000000000000000000000000000000000000SINDY                               0000000000　　　　　　　　　　　　　　　　　　0000000000　　　　　　　　　　　　　　　　　　0000000000000000000000
SEB2005112120020719A60000050011998190013ウォーサン　　　　　　　　　　　　　00110304000804ブリテン584008Ｓ．マナナ　　　　　　　　　　　　　　　　　　　　　　　　　　　　　　　　　　　　　　　　　　　　　　　　　　　　　　　　　　　　　　　　　　　　　　　　　　　　　　　　　　　　　　　565000000000000000デットー　　　　00       00101002327         0000000000000000000000000000000000000000000000000000TRAVELMATE                          0000000000　　　　　　　　　　　　　　　　　　0000000000　　　　　　　　　　　　　　　　　　0000000000000000000000
SEB2005111020020810A60000030062000190009サミットヴィル　　　　　　　　　　　00210302005554ギヴン　739800マウンテン・ハイ・パートナーシップ　　　　　　　　　　　　　　　　　　　　　　　　　　　　　　　　　　　　　　　　　　　　　　　　　　　　　　　　　　　　　　　　　　　　　　　　　　　545000000000000000フェント　　　　00       002020013043        0000000000000000000000000000000000000000000000000000SOVIET SONG                         0000000000　　　　　　　　　　　　　　　　　　0000000000　　　　　　　　　　　　　　　　　　+005000000000000000000
SEB2005112420020811A40000070011999190019ベタートークナウ　　　　　　　　　　00010503005560モーショ736800ブッシュウッドレーシングパートナー＆ＦセキグチＬＰ　　　　　　　　　　　　　　　　　　　　　　　　　　　　　　　　　　　　　　　　　　　　　　　　　　　　　　　　　　　　　　　　　　　540000000000000000カステリ　　　　00       00808001360         0000000000000000000000000000000000000000000000000000PLAY IT OUT                         0000000000　　　　　　　　　　　　　　　　　　0000000000　　　　　　　　　　　　　　　　　　+003000000000000000000
SEB2005112120020817A60000050031998190013ウォーサン　　　　　　　　　　　　　00110304000804ブリテン584008Ｓ．マナナ　　　　　　　　　　　　　　　　　　　　　　　　　　　　　　　　　　　　　　　　　　　　　　　　　　　　　　　　　　　　　　　　　　　　　　　　　　　　　　　　　　　　　　　585000000000000000サンダー　　　　00       00505002468 12      0000000000000000000000000000000000000000000000000000MUBTAKER                            0000000000　　　　　　　　　　　　　　　　　　0000000000　　　　　　　　　　　　　　　　　　+014000000000000000000
SEB2005112420020902A40000100001999190019ベタートークナウ　　　　　　　　　　00010503005560モーショ736800ブッシュウッドレーシングパートナー＆ＦセキグチＬＰ　　　　　　　　　　　　　　　　　　　　　　　　　　　　　　　　　　　　　　　　　　　　　　　　　　　　　　　　　　　　　　　　　　　510000000000000000デイビス　　　　00       00606001562         0000000000000000000000000000000000000000000000000000IBN AL HAITHAM                      0000000000　　　　　　　　　　　　　　　　　　0000000000　　　　　　　　　　　　　　　　　　+012000000000000000000
SEB2005112120020905A60000060051998190013ウォーサン　　　　　　　　　　　　　00110304000804ブリテン584008Ｓ．マナナ　　　　　　　　　　　　　　　　　　　　　　　　　　　　　　　　　　　　　　　　　　　　　　　　　　　　　　　　　　　　　　　　　　　　　　　　　　　　　　　　　　　　　　　605000000000000000デットー　　　　00       00202003015H        0000000000000000000000000000000000000000000000000000PERSIAN PUNCH                       0000000000　　　　　　　　　　　　　　　　　　0000000000　　　　　　　　　　　　　　　　　　+000000000000000000000
SEB2005112420020911A60000050022000190010アルカセット　　　　　　　　　　　　00110302000840スタウト000000　　　　　　　　　　　　　　　　　　　　　　　　　　　　　　　　　　　　　　　　　　　　　　　　　　　　　　　　　　　　　　　　　　　　　　　　　　　　　　　　　　　　　　　　　　　　545000000000000000ヒューズ　　　　00       00404001258 12      0000000000000000000000000000000000000000000000000000MAGHANIM                            0000000000　　　　　　　　　　　　　　　　　　0000000000　　　　　　　　　　　　　　　　　　+005000000000000000000
SEB2005111020020912A60000040012000190009サミットヴィル　　　　　　　　　　　00210302005554ギヴン　739800マウンテン・ハイ・パートナーシップ　　　　　　　　　　　　　　　　　　　　　　　　　　　　　　　　　　　　　　　　　　　　　　　　　　　　　　　　　　　　　　　　　　　　　　　　　　　550000000000000000フェント　　　　00       00101001384         0000000000000000000000000000000000000000000000000000APPROACH                            0000000000　　　　　　　　　　　　　　　　　　0000000000　　　　　　　　　　　　　　　　　　0000000000000000000000
SEB2005112120020914B20000030021998190013ウォーサン　　　　　　　　　　　　　00110304000804ブリテン584008Ｓ．マナナ　　　　　　　　　　　　　　　　　　　　　　　　　　　　　　　　　　　　　　　　　　　　　　　　　　　　　　　　　　　　　　　　　　　　　　　　　　　　　　　　　　　　　　　610000000000000000ドイル　　　　　00       00404002595K        0000000000000000000000000000000000000000000000000000VINNIE ROE                          0000000000　　　　　　　　　　　　　　　　　　0000000000　　　　　　　　　　　　　　　　　　+005000000000000000000
SEB2005111020020928A60000020072000190009サミットヴィル　　　　　　　　　　　00210302005554ギヴン　739800マウンテン・ハイ・パートナーシップ　　　　　　　　　　　　　　　　　　　　　　　　　　　　　　　　　　　　　　　　　　　　　　　　　　　　　　　　　　　　　　　　　　　　　　　　　　　555000000000000000フェント　　　　00       00808001438114      0000000000000000000000000000000000000000000000000000SOVIET SONG                         0000000000　　　　　　　　　　　　　　　　　　0000000000　　　　　　　　　　　　　　　　　　+015000000000000000000
SEB2005112120020929A60000010011998190013ウォーサン　　　　　　　　　　　　　00110304000804ブリテン584008Ｓ．マナナ　　　　　　　　　　　　　　　　　　　　　　　　　　　　　　　　　　　　　　　　　　　　　　　　　　　　　　　　　　　　　　　　　　　　　　　　　　　　　　　　　　　　　　　570000000000000000デットー　　　　00       00202002321 12      0000000000000000000000000000000000000000000000000000SYSTEMATIC                          0000000000　　　　　　　　　　　　　　　　　　0000000000　　　　　　　　　　　　　　　　　　+001000000000000000000
SEB2005112420021001A40000080061999190019ベタートークナウ　　　　　　　　　　00010503005560モーショ736800ブッシュウッドレーシングパートナー＆ＦセキグチＬＰ　　　　　　　　　　　　　　　　　　　　　　　　　　　　　　　　　　　　　　　　　　　　　　　　　　　　　　　　　　　　　　　　　　　520000000000000000コア　　　　　　00       00101001523         0000000000000000000000000000000000000000000000000000JADE DIGGER                         0000000000　　　　　　　　　　　　　　　　　　0000000000　　　　　　　　　　　　　　　　　　0000000000000000000000
SEB2005112420021018A60000080032000190010アルカセット　　　　　　　　　　　　00110302000840スタウト000000　　　　　　　　　　　　　　　　　　　　　　　　　　　　　　　　　　　　　　　　　　　　　　　　　　　　　　　　　　　　　　　　　　　　　　　　　　　　　　　　　　　　　　　　　　　　570000000000000000ヒルズ　　　　　00       00404001396312      0000000000000000000000000000000000000000000000000000PERSIAN MAJESTY                     0000000000　　　　　　　　　　　　　　　　　　0000000000　　　　　　　　　　　　　　　　　　+007000000000000000000
SEB2005112420021102A40000060081999190019ベタートークナウ　　　　　　　　　　00010503005560モーショ736800ブッシュウッドレーシングパートナー＆ＦセキグチＬＰ　　　　　　　　　　　　　　　　　　　　　　　　　　　　　　　　　　　　　　　　　　　　　　　　　　　　　　　　　　　　　　　　　　　535000000000000000プラード　　　　00       00101001520         0000000000000000000000000000000000000000000000000000THEFULL CIRCLE                      0000000000　　　　　　　　　　　　　　　　　　0000000000　　　　　　　　　　　　　　　　　　0000000000000000000000
SEB2005112420021114A80000010002000190011キングスドラマ　　　　　　　　　　　00010302000000コレ　　000000　　　　　　　　　　　　　　　　　　　　　　　　　　　　　　　　　　　　　　　　　　　　　　　　　　　　　　　　　　　　　　　　　　　　　　　　　　　　　　　　　　　　　　　　　　　　580000000000000000マイヨ　　　　　00       00202001581K        0000000000000000000000000000000000000000000000000000TIKKANITA                           0000000000　　　　　　　　　　　　　　　　　　0000000000　　　　　　　　　　　　　　　　　　+001000000000000000000
SEB2005112420021125A80000030002000190011キングスドラマ　　　　　　　　　　　00010302000000コレ　　000000　　　　　　　　　　　　　　　　　　　　　　　　　　　　　　　　　　　　　　　　　　　　　　　　　　　　　　　　　　　　　　　　　　　　　　　　　　　　　　　　　　　　　　　　　　　　555000000000000000マイヨ　　　　　00       003030021165        0000000000000000000000000000000000000000000000000000MACOTTE                             0000000000　　　　　　　　　　　　　　　　　　0000000000　　　　　　　　　　　　　　　　　　+010000000000000000000
SEB2005112420021228A40000090091999190019ベタートークナウ　　　　　　　　　　00010503005560モーショ736800ブッシュウッドレーシングパートナー＆ＦセキグチＬＰ　　　　　　　　　　　　　　　　　　　　　　　　　　　　　　　　　　　　　　　　　　　　　　　　　　　　　　　　　　　　　　　　　　　520000000000000000ドミンゲ　　　　00       00808001462         0000000000000000000000000000000000000000000000000000SKATE AWAY                          0000000000　　　　　　　　　　　　　　　　　　0000000000　　　　　　　　　　　　　　　　　　+010000000000000000000
SEB2006032320020106B40000070041998190015フォンテラ　　　　　　　　　　　　　00010304005538マイヤー204008Ｍ．オリーリー　　　　　　　　　　　　　　　　　　　　　　　　　　　　　　　　　　　　　　　　　　　　　　　　　　　　　　　　　　　　　　　　　　　　　　　　　　　　　　　　　　　　　550000000000000000コールマ　　　　00       00505001217         0000000000000000000000000000000000000000000000000000HAMPTON COURT                       0000000000　　　　　　　　　　　　　　　　　　0000000000　　　　　　　　　　　　　　　　　　+005000000000000000000
SEB2006032320020316B40000040041998190015フォンテラ　　　　　　　　　　　　　00010304005538マイヤー204008Ｍ．オリーリー　　　　　　　　　　　　　　　　　　　　　　　　　　　　　　　　　　　　　　　　　　　　　　　　　　　　　　　　　　　　　　　　　　　　　　　　　　　　　　　　　　　　　555000000000000000コールマ　　　　00       00606001259         0000000000000000000000000000000000000000000000000000HARVEY                              0000000000　　　　　　　　　　　　　　　　　　0000000000　　　　　　　　　　　　　　　　　　+005000000000000000000
SEB2006032320020321B40000090051998190015フォンテラ　　　　　　　　　　　　　00010304005538マイヤー204008Ｍ．オリーリー　　　　　　　　　　　　　　　　　　　　　　　　　　　　　　　　　　　　　　　　　　　　　　　　　　　　　　　　　　　　　　　　　　　　　　　　　　　　　　　　　　　　　555000000000000000ブラッド　　　　00       00404001366         0000000000000000000000000000000000000000000000000000TIK TIK                             0000000000　　　　　　　　　　　　　　　　　　0000000000　　　　　　　　　　　　　　　　　　+004000000000000000000
SEB2006032320020421B40000050041998190015フォンテラ　　　　　　　　　　　　　00010304005538マイヤー204008Ｍ．オリーリー　　　　　　　　　　　　　　　　　　　　　　　　　　　　　　　　　　　　　　　　　　　　　　　　　　　　　　　　　　　　　　　　　　　　　　　　　　　　　　　　　　　　　560000000000000000ブラッド　　　　00       00808001255         0000000000000000000000000000000000000000000000000000YOU'RE DE BOSS                      0000000000　　　　　　　　　　　　　　　　　　0000000000　　　　　　　　　　　　　　　　　　+006000000000000000000
SEB2006032320020426B40000020091998190015フォンテラ　　　　　　　　　　　　　00010304005538マイヤー204008Ｍ．オリーリー　　　　　　　　　　　　　　　　　　　　　　　　　　　　　　　　　　　　　　　　　　　　　　　　　　　　　　　　　　　　　　　　　　　　　　　　　　　　　　　　　　　　　555000000000000000ウォーカ　　　　00       01010001287         0000000000000000000000000000000000000000000000000000AVON RIVER                          0000000000　　　　　　　　　　　　　　　　　　0000000000　　　　　　　　　　　　　　　　　　+025000000000000000000
SEB2006032320020428B40000020061998190015フォンテラ　　　　　　　　　　　　　00010304005538マイヤー204008Ｍ．オリーリー　　　　　　　　　　　　　　　　　　　　　　　　　　　　　　　　　　　　　　　　　　　　　　　　　　　　　　　　　　　　　　　　　　　　　　　　　　　　　　　　　　　　　555000000000000000ハード　　　　　00       00404001275         0000000000000000000000000000000000000000000000000000HOUSE BOUND                         0000000000　　　　　　　　　　　　　　　　　　0000000000　　　　　　　　　　　　　　　　　　+009000000000000000000
SEB2006032320020824B40000040081998190015フォンテラ　　　　　　　　　　　　　00010304005538マイヤー204008Ｍ．オリーリー　　　　　　　　　　　　　　　　　　　　　　　　　　　　　　　　　　　　　　　　　　　　　　　　　　　　　　　　　　　　　　　　　　　　　　　　　　　　　　　　　　　　　560000000000000000テイラー　　　　00       00909001258         0000000000000000000000000000000000000000000000000000SWALLOW                             0000000000　　　　　　　　　　　　　　　　　　0000000000　　　　　　　　　　　　　　　　　　+005000000000000000000
SEB2006032320020831B40000090031998190015フォンテラ　　　　　　　　　　　　　00010304005538マイヤー204008Ｍ．オリーリー　　　　　　　　　　　　　　　　　　　　　　　　　　　　　　　　　　　　　　　　　　　　　　　　　　　　　　　　　　　　　　　　　　　　　　　　　　　　　　　　　　　　　560000000000000000ウォーカ　　　　00       00101001224         0000000000000000000000000000000000000000000000000000KAKODA KING                         0000000000　　　　　　　　　　　　　　　　　　0000000000　　　　　　　　　　　　　　　　　　0000000000000000000000
SEB2006032320020912B40000070011998190015フォンテラ　　　　　　　　　　　　　00010304005538マイヤー204008Ｍ．オリーリー　　　　　　　　　　　　　　　　　　　　　　　　　　　　　　　　　　　　　　　　　　　　　　　　　　　　　　　　　　　　　　　　　　　　　　　　　　　　　　　　　　　　　560000000000000000ウォーカ　　　　00       00303001472         0000000000000000000000000000000000000000000000000000KRASALI                             0000000000　　　　　　　　　　　　　　　　　　0000000000　　　　　　　　　　　　　　　　　　+005000000000000000000
SEB2006032320020922B40000020011998190015フォンテラ　　　　　　　　　　　　　00010304005538マイヤー204008Ｍ．オリーリー　　　　　　　　　　　　　　　　　　　　　　　　　　　　　　　　　　　　　　　　　　　　　　　　　　　　　　　　　　　　　　　　　　　　　　　　　　　　　　　　　　　　　540000000000000000コリンズ　　　　00       002020012455        0000000000000000000000000000000000000000000000000000BOIS                                0000000000　　　　　　　　　　　　　　　　　　0000000000　　　　　　　　　　　　　　　　　　+009000000000000000000
SEB2006032320020928B40000010051998190015フォンテラ　　　　　　　　　　　　　00010304005538マイヤー204008Ｍ．オリーリー　　　　　　　　　　　　　　　　　　　　　　　　　　　　　　　　　　　　　　　　　　　　　　　　　　　　　　　　　　　　　　　　　　　　　　　　　　　　　　　　　　　　　560000000000000000ウォーカ　　　　00       01010001365         0000000000000000000000000000000000000000000000000000LANKRUZA                            0000000000　　　　　　　　　　　　　　　　　　0000000000　　　　　　　　　　　　　　　　　　+007000000000000000000
SEB2006042020020729B60000020111999190014マカイビーディーヴァ　　　　　　　　00210303000000ホール　705800エミリー・クリスティーナ・オーストラリア　　　　　　　　　　　　　　　　　　　　　　　　　　　　　　　　　　　　　　　　　　　　　　　　　　　　　　　　　　　　　　　　　　　　　　　　540000000000000000アレッシ　　　　00       00404001140         0000000000000000000000000000000000000000000000000000BLUES EXPLOSION                     0000000000　　　　　　　　　　　　　　　　　　0000000000　　　　　　　　　　　　　　　　　　+009000000000000000000
SEB2006042020020813B60000010101999190014マカイビーディーヴァ　　　　　　　　00210303000000ホール　705800エミリー・クリスティーナ・オーストラリア　　　　　　　　　　　　　　　　　　　　　　　　　　　　　　　　　　　　　　　　　　　　　　　　　　　　　　　　　　　　　　　　　　　　　　　　545000000000000000ホール　　　　　00       00101001417         0000000000000000000000000000000000000000000000000000SING US A TUNE                      0000000000　　　　　　　　　　　　　　　　　　0000000000　　　　　　　　　　　　　　　　　　0000000000000000000000
SEB2006042020020903B60000090041999190014マカイビーディーヴァ　　　　　　　　00210303000000ホール　705800エミリー・クリスティーナ・オーストラリア　　　　　　　　　　　　　　　　　　　　　　　　　　　　　　　　　　　　　　　　　　　　　　　　　　　　　　　　　　　　　　　　　　　　　　　　550000000000000000ホール　　　　　00       00101001439         0000000000000000000000000000000000000000000000000000ZANISA                              0000000000　　　　　　　　　　　　　　　　　　0000000000　　　　　　　　　　　　　　　　　　0000000000000000000000
SEB2006042020020917B60000070051999190014マカイビーディーヴァ　　　　　　　　00210303000000ホール　705800エミリー・クリスティーナ・オーストラリア　　　　　　　　　　　　　　　　　　　　　　　　　　　　　　　　　　　　　　　　　　　　　　　　　　　　　　　　　　　　　　　　　　　　　　　　540000000000000000ホール　　　　　00       00101002071         0000000000000000000000000000000000000000000000000000OUR FIREMAN SAM                     0000000000　　　　　　　　　　　　　　　　　　0000000000　　　　　　　　　　　　　　　　　　0000000000000000000000
SEB2006042020020918A80000020001999190015スファンクスデュベルレ　　　　　　　00310303000000コレ　　000000Ｒ．コレ　　　　　　　　　　　　　　　　　　　　　　　　　　　　　　　　　　　　　　　　　　　　　　　　　　　　　　　　　　　　　　　　　　　　　　　　　　　　　　　　　　　　　　　　630000000000000000ボンジュ　　　　00       005050043286        0000000000000000000000000000000000000000000000000000CHELER                              0000000000　　　　　　　　　　　　　　　　　　0000000000　　　　　　　　　　　　　　　　　　+028000000000000000000
SEB2006042020021007B60000080091999190014マカイビーディーヴァ　　　　　　　　00210303000000ホール　705800エミリー・クリスティーナ・オーストラリア　　　　　　　　　　　　　　　　　　　　　　　　　　　　　　　　　　　　　　　　　　　　　　　　　　　　　　　　　　　　　　　　　　　　　　　　520000000000000000プレブル　　　　00       00101002023         0000000000000000000000000000000000000000000000000000LITTLE MISS QUICK                   0000000000　　　　　　　　　　　　　　　　　　0000000000　　　　　　　　　　　　　　　　　　0000000000000000000000
SEB2006042020021012A80000020001999190015スファンクスデュベルレ　　　　　　　00310303000000コレ　　000000Ｒ．コレ　　　　　　　　　　　　　　　　　　　　　　　　　　　　　　　　　　　　　　　　　　　　　　　　　　　　　　　　　　　　　　　　　　　　　　　　　　　　　　　　　　　　　　　　630000000000000000ラバチュ　　　　00       00404004286Z        0000000000000000000000000000000000000000000000000000MALCOM                              0000000000　　　　　　　　　　　　　　　　　　0000000000　　　　　　　　　　　　　　　　　　+026000000000000000000
SEB2006042020021030B60000060121999190014マカイビーディーヴァ　　　　　　　　00210303000000ホール　705800エミリー・クリスティーナ・オーストラリア　　　　　　　　　　　　　　　　　　　　　　　　　　　　　　　　　　　　　　　　　　　　　　　　　　　　　　　　　　　　　　　　　　　　　　　　510000000000000000カリー　　　　　00       00101002032         0000000000000000000000000000000000000000000000000000AQUIVER                             0000000000　　　　　　　　　　　　　　　　　　0000000000　　　　　　　　　　　　　　　　　　0000000000000000000000
SEB2006042020021103A80000040001999190015スファンクスデュベルレ　　　　　　　00310303000000コレ　　000000カールモラ厩舎　　　　　　　　　　　　　　　　　　　　　　　　　　　　　　　　　　　　　　　　　　　　　　　　　　　　　　　　　　　　　　　　　　　　　　　　　　　　　　　　　　　　　650000000000000000ラバチュ　　　　00       00404004382Z        0000000000000000000000000000000000000000000000000000ROYALEETY                           0000000000　　　　　　　　　　　　　　　　　　0000000000　　　　　　　　　　　　　　　　　　+032000000000000000000
SEB2006042020021109B60000080091999190014マカイビーディーヴァ　　　　　　　　00210303000000ホール　705800エミリー・クリスティーナ・オーストラリア　　　　　　　　　　　　　　　　　　　　　　　　　　　　　　　　　　　　　　　　　　　　　　　　　　　　　　　　　　　　　　　　　　　　　　　　520000000000000000カリー　　　　　00       00101002357         0000000000000000000000000000000000000000000000000000SPIRIT OF WESTBURY                  0000000000　　　　　　　　　　　　　　　　　　0000000000　　　　　　　　　　　　　　　　　　0000000000000000000000
SEB2006042020021118A80000030001999190015スファンクスデュベルレ　　　　　　　00310303000000コレ　　000000カールモラ厩舎　　　　　　　　　　　　　　　　　　　　　　　　　　　　　　　　　　　　　　　　　　　　　　　　　　　　　　　　　　　　　　　　　　　　　　　　　　　　　　　　　　　　　640000000000000000シュバリ　　　　00       002020043353        0000000000000000000000000000000000000000000000000000NICKNAME                            0000000000　　　　　　　　　　　　　　　　　　0000000000　　　　　　　　　　　　　　　　　　+005000000000000000000
SEB2006063020020323C70000040010000000000BOREAL                              00110004000000シールゲ000000　　　　　　　　　　　　　　　　　　　　　　　　　　　　　　　　　　　　　　　　　　　　　　　　　　　　　　　　　　　　　　　　　　　　　　　　　　　　　　　　　　　　　　　　　　　　560000000000000000ファロン　　　　00       00303000000H        0000000000000000000000000000000000000000000000000000NAYEF                               0000000000　　　　　　　　　　　　　　　　　　0000000000　　　　　　　　　　　　　　　　　　0000000000000000000000
SEB2006063020020323C70000040020000000000DEMOPHILOS                          00110004000000ペレット000000　　　　　　　　　　　　　　　　　　　　　　　　　　　　　　　　　　　　　　　　　　　　　　　　　　　　　　　　　　　　　　　　　　　　　　　　　　　　　　　　　　　　　　　　　　　　560000000000000000クィン　　　　　00       00808000000H        0000000000000000000000000000000000000000000000000000NAYEF                               0000000000　　　　　　　　　　　　　　　　　　0000000000　　　　　　　　　　　　　　　　　　0000000000000000000000
SEB2006063020020323C70000040030000000000EKRAAR                              00110005000000ビン・ス000000　　　　　　　　　　　　　　　　　　　　　　　　　　　　　　　　　　　　　　　　　　　　　　　　　　　　　　　　　　　　　　　　　　　　　　　　　　　　　　　　　　　　　　　　　　　　560000000000000000サプル　　　　　00       00505000000712      0000000000000000000000000000000000000000000000000000NAYEF                               0000000000　　　　　　　　　　　　　　　　　　0000000000　　　　　　　　　　　　　　　　　　0000000000000000000000
SEB2006063020020323C70000040040000000000EXALTATION                          00110004000000ビン・ス000000　　　　　　　　　　　　　　　　　　　　　　　　　　　　　　　　　　　　　　　　　　　　　　　　　　　　　　　　　　　　　　　　　　　　　　　　　　　　　　　　　　　　　　　　　　　　560000000000000000ベイリー　　　　00       01111000000134      0000000000000000000000000000000000000000000000000000NAYEF                               0000000000　　　　　　　　　　　　　　　　　　0000000000　　　　　　　　　　　　　　　　　　0000000000000000000000
SEB2006063020020323C70000040050000000000HELENE VITALITY                     00310006000000ヘイズ　000000　　　　　　　　　　　　　　　　　　　　　　　　　　　　　　　　　　　　　　　　　　　　　　　　　　　　　　　　　　　　　　　　　　　　　　　　　　　　　　　　　　　　　　　　　　　　560000000000000000モッセ　　　　　00       002020000002        0000000000000000000000000000000000000000000000000000NAYEF                               0000000000　　　　　　　　　　　　　　　　　　0000000000　　　　　　　　　　　　　　　　　　0000000000000000000000
SEB2006063020020323C70000040061996105301ホットシークレット　　　　　　　　　01310306101004後藤由之587006金子　真人　　　　　　　　　　　　　　　　　　　　　　　　　　　黒，青袖，黄鋸歯形　　　　　　　　　　　　　　　　　　　　　　　　　　　　　　　　　　　　　　　　　　　　　　　　　　　560000000064100000柴田善臣　　　　00       00707000000114      0000000000000000000000000000000000000000000000000000NAYEF                               0000000000　　　　　　　　　　　　　　　　　　0000000000　　　　　　　　　　　　　　　　　　0000000000000000000000
SEB2006063020020323C70000040070000000000KING'S BOY                          00110005000000バートン000000　　　　　　　　　　　　　　　　　　　　　　　　　　　　　　　　　　　　　　　　　　　　　　　　　　　　　　　　　　　　　　　　　　　　　　　　　　　　　　　　　　　　　　　　　　　　560000000000000000ヴェレン　　　　00       01212000000 34      0000000000000000000000000000000000000000000000000000NAYEF                               0000000000　　　　　　　　　　　　　　　　　　0000000000　　　　　　　　　　　　　　　　　　0000000000000000000000
SEB2006063020020323C70000040080000000000LIGHTNING ARROW                     00310006000000サドラー000000　　　　　　　　　　　　　　　　　　　　　　　　　　　　　　　　　　　　　　　　　　　　　　　　　　　　　　　　　　　　　　　　　　　　　　　　　　　　　　　　　　　　　　　　　　　　560000000000000000ダーカン　　　　00       01414000000T        0000000000000000000000000000000000000000000000000000NAYEF                               0000000000　　　　　　　　　　　　　　　　　　0000000000　　　　　　　　　　　　　　　　　　0000000000000000000000
SEB2006063020020323C70000040090000000000MARIENBARD                          00110005000000ビン・ス000000　　　　　　　　　　　　　　　　　　　　　　　　　　　　　　　　　　　　　　　　　　　　　　　　　　　　　　　　　　　　　　　　　　　　　　　　　　　　　　　　　　　　　　　　　　　　560000000000000000スペンサ　　　　00       00404000000A        0000000000000000000000000000000000000000000000000000NAYEF                               0000000000　　　　　　　　　　　　　　　　　　0000000000　　　　　　　　　　　　　　　　　　0000000000000000000000
SEB2006063020020323C70000040100000000000MONT ROCHER                         00310007000000ハモンド000000　　　　　　　　　　　　　　　　　　　　　　　　　　　　　　　　　　　　　　　　　　　　　　　　　　　　　　　　　　　　　　　　　　　　　　　　　　　　　　　　　　　　　　　　　　　　560000000000000000ジレ　　　　　　00       00606000000K        0000000000000000000000000000000000000000000000000000NAYEF                               0000000000　　　　　　　　　　　　　　　　　　0000000000　　　　　　　　　　　　　　　　　　0000000000000000000000
SEB2006063020020323C70000040110000000000NARRATIVE                           00110004000000ビン・ス000000　　　　　　　　　　　　　　　　　　　　　　　　　　　　　　　　　　　　　　　　　　　　　　　　　　　　　　　　　　　　　　　　　　　　　　　　　　　　　　　　　　　　　　　　　　　　560000000000000000キャロル　　　　00       009090000002        0000000000000000000000000000000000000000000000000000NAYEF                               0000000000　　　　　　　　　　　　　　　　　　0000000000　　　　　　　　　　　　　　　　　　0000000000000000000000
SEB2006063020020323C70000040120000000000NAYEF                               00110004000000トレゴニ000000　　　　　　　　　　　　　　　　　　　　　　　　　　　　　　　　　　　　　　　　　　　　　　　　　　　　　　　　　　　　　　　　　　　　　　　　　　　　　　　　　　　　　　　　　　　　560000000000000000ヒルズ　　　　　00       00101002296         0000000000000000000000000000000000000000000000000000HELENE VITALITY                     0000000000　　　　　　　　　　　　　　　　　　0000000000　　　　　　　　　　　　　　　　　　0000000000000000000000
SEB2006063020020323C70000040130000000000SAGACITY                            00110004000000ファーブ000000　　　　　　　　　　　　　　　　　　　　　　　　　　　　　　　　　　　　　　　　　　　　　　　　　　　　　　　　　　　　　　　　　　　　　　　　　　　　　　　　　　　　　　　　　　　　560000000000000000ペリエ　　　　　00       01313000000234      0000000000000000000000000000000000000000000000000000NAYEF                               0000000000　　　　　　　　　　　　　　　　　　0000000000　　　　　　　　　　　　　　　　　　0000000000000000000000
SEB2006063020020323C70000040140000000000TOBOUGG                             00110004000000ビン・ス000000　　　　　　　　　　　　　　　　　　　　　　　　　　　　　　　　　　　　　　　　　　　　　　　　　　　　　　　　　　　　　　　　　　　　　　　　　　　　　　　　　　　　　　　　　　　　560000000000000000デットー　　　　00       01515000000 12      0000000000000000000000000000000000000000000000000000NAYEF                               0000000000　　　　　　　　　　　　　　　　　　0000000000　　　　　　　　　　　　　　　　　　0000000000000000000000
SEB2006063020020323C70000040150000000000TAPILDO                             00210005000000ラクソン000000　　　　　　　　　　　　　　　　　　　　　　　　　　　　　　　　　　　　　　　　　　　　　　　　　　　　　　　　　　　　　　　　　　　　　　　　　　　　　　　　　　　　　　　　　　　　540000000000000000ウィルキ　　　　00       01010000000 12      0000000000000000000000000000000000000000000000000000NAYEF                               0000000000　　　　　　　　　　　　　　　　　　0000000000　　　　　　　　　　　　　　　　　　0000000000000000000000
SEB2006063020020323C70000050010000000000BONAPAW                             00310006000000アロンゾ000000　　　　　　　　　　　　　　　　　　　　　　　　　　　　　　　　　　　　　　　　　　　　　　　　　　　　　　　　　　　　　　　　　　　　　　　　　　　　　　　　　　　　　　　　　　　　590000000000000000メランコ　　　　00       00606000000134      0000000000000000000000000000000000000000000000000000CALLER ONE                          0000000000　　　　　　　　　　　　　　　　　　0000000000　　　　　　　　　　　　　　　　　　0000000000000000000000
SEB2006063020020323C70000050020000000000CALLER ONE                          00310005000000チャップ000000　　　　　　　　　　　　　　　　　　　　　　　　　　　　　　　　　　　　　　　　　　　　　　　　　　　　　　　　　　　　　　　　　　　　　　　　　　　　　　　　　　　　　　　　　　　　590000000000000000スティー　　　　00       00101001099         0000000000000000000000000000000000000000001997190012エコーエディ　　　　　　　　　　　　0000000000　　　　　　　　　　　　　　　　　　0000000000　　　　　　　　　　　　　　　　　　0000000000000000000000
SEB2006063020020323C70000050030000000000CONROY                              00310004000000セルバラ000000　　　　　　　　　　　　　　　　　　　　　　　　　　　　　　　　　　　　　　　　　　　　　　　　　　　　　　　　　　　　　　　　　　　　　　　　　　　　　　　　　　　　　　　　　　　　590000000000000000ハインド　　　　00       00909000000 12      0000000000000000000000000000000000000000000000000000CALLER ONE                          0000000000　　　　　　　　　　　　　　　　　　0000000000　　　　　　　　　　　　　　　　　　0000000000000000000000
SEB2006063020020323C70000050040000000000CRYSTAL MAGICIAN                    00110006000000ラドキン000000　　　　　　　　　　　　　　　　　　　　　　　　　　　　　　　　　　　　　　　　　　　　　　　　　　　　　　　　　　　　　　　　　　　　　　　　　　　　　　　　　　　　　　　　　　　　590000000000000000ヒルズ　　　　　00       00808000000A        0000000000000000000000000000000000000000000000000000CALLER ONE                          0000000000　　　　　　　　　　　　　　　　　　0000000000　　　　　　　　　　　　　　　　　　0000000000000000000000
SEB2006063020020323C70000050050000000000DANANEYEV                           00110006000000ラフォン000000　　　　　　　　　　　　　　　　　　　　　　　　　　　　　　　　　　　　　　　　　　　　　　　　　　　　　　　　　　　　　　　　　　　　　　　　　　　　　　　　　　　　　　　　　　　　590000000000000000モッセ　　　　　00       01111000000812      0000000000000000000000000000000000000000000000000000CALLER ONE                          0000000000　　　　　　　　　　　　　　　　　　0000000000　　　　　　　　　　　　　　　　　　0000000000000000000000
SEB2006063020020323C70000050061997190012エコーエディ　　　　　　　　　　　　00310705005442ヴィエナ081008Ｄ．ミルチ　　　　　　　　　　　　　　　　　　　　　　　　　　　　　　　　　　　　　　　　　　　　　　　　　　　　　　　　　　　　　　　　　　　　　　　　　　　　　　　　　　　　　　　590000000000000000ヴァレン　　　　00       00202000000A        0000000000000000000000000000000000000000000000000000CALLER ONE                          0000000000　　　　　　　　　　　　　　　　　　0000000000　　　　　　　　　　　　　　　　　　0000000000000000000000
SEB2006063020020323C70000050071993190006メンズイクスクルーシブ　　　　　　　00310409005133ワード　739006Ｈ．Ｅ．リード　　　　　　　　　　　　　　　　　　　　　　　　　　　　　　　　　　　　　　　　　　　　　　　　　　　　　　　　　　　　　　　　　　　　　　　　　　　　　　　　　　　　　590000000000000000ペドロザ　　　　00       00404000000134      0000000000000000000000000000000000000000000000000000CALLER ONE                          0000000000　　　　　　　　　　　　　　　　　　0000000000　　　　　　　　　　　　　　　　　　0000000000000000000000
SEB2006063020020323C70000050080000000000MUTAMAYYAZ                          00110006000000ラドキン000000　　　　　　　　　　　　　　　　　　　　　　　　　　　　　　　　　　　　　　　　　　　　　　　　　　　　　　　　　　　　　　　　　　　　　　　　　　　　　　　　　　　　　　　　　　　　590000000000000000ヒルズ　　　　　00       01010000000534      0000000000000000000000000000000000000000000000000000CALLER ONE                          0000000000　　　　　　　　　　　　　　　　　　0000000000　　　　　　　　　　　　　　　　　　0000000000000000000000
SEB2006063020020323C70000050091994109547ブロードアピール　　　　　　　　　　06210408201011松田国英587006金子　真人　　　　　　　　　　　　　　　　　　　　　　　　　　　黒，青袖，黄鋸歯形　　　　　　　　　　　　　　　　　　　　　　　　　　　　　　　　　　　　　　　　　　　　　　　　　　　570000000000000000ペリエ　　　　　00       00505000000212      0000000000000000000000000000000000000000000000000000CALLER ONE                          0000000000　　　　　　　　　　　　　　　　　　0000000000　　　　　　　　　　　　　　　　　　0000000000000000000000
SEB2006063020020323C70000050100000000000CACIQUE BAR                         00210004000000コロンボ000000　　　　　　　　　　　　　　　　　　　　　　　　　　　　　　　　　　　　　　　　　　　　　　　　　　　　　　　　　　　　　　　　　　　　　　　　　　　　　　　　　　　　　　　　　　　　570000000000000000ローザ　　　　　00       01313000000 12      0000000000000000000000000000000000000000000000000000CALLER ONE                          0000000000　　　　　　　　　　　　　　　　　　0000000000　　　　　　　　　　　　　　　　　　0000000000000000000000
SEB2006063020020323C70000050110000000000MISTY EYED                          00210004000000ダットフ000000　　　　　　　　　　　　　　　　　　　　　　　　　　　　　　　　　　　　　　　　　　　　　　　　　　　　　　　　　　　　　　　　　　　　　　　　　　　　　　　　　　　　　　　　　　　　570000000000000000ダーレイ　　　　00       01212000000 34      0000000000000000000000000000000000000000000000000000CALLER ONE                          0000000000　　　　　　　　　　　　　　　　　　0000000000　　　　　　　　　　　　　　　　　　0000000000000000000000
SEB2006063020020323C70000050120000000000XTRA HEAT                           00210004000000サルツマ000000　　　　　　　　　　　　　　　　　　　　　　　　　　　　　　　　　　　　　　　　　　　　　　　　　　　　　　　　　　　　　　　　　　　　　　　　　　　　　　　　　　　　　　　　　　　　570000000000000000ベガ　　　　　　00       00303000000312      0000000000000000000000000000000000000000000000000000CALLER ONE                          0000000000　　　　　　　　　　　　　　　　　　0000000000　　　　　　　　　　　　　　　　　　0000000000000000000000
SEB2006063020020323C70000050130000000000CAPTAIN RIO                         00110003000000ウィティ000000　　　　　　　　　　　　　　　　　　　　　　　　　　　　　　　　　　　　　　　　　　　　　　　　　　　　　　　　　　　　　　　　　　　　　　　　　　　　　　　　　　　　　　　　　　　　540000000000000000ジャルネ　　　　00       00707000000134      0000000000000000000000000000000000000000000000000000CALLER ONE                          0000000000　　　　　　　　　　　　　　　　　　0000000000　　　　　　　　　　　　　　　　　　0000000000000000000000
SEB2006063020020323C70000070011997110025アグネスデジタル　　　　　　　　　　06110105200201白井寿昭021005渡辺　孝男　　　　　　　　　　　　　　　　　　　　　　　　　　　黄，赤袖，水色二本輪　　　　　　　　　　　　　　　　　　　　　　　　　　　　　　　　　　　　　　　　　　　　　　　　　　570000000070000000四位洋文　　　　00       00606000000514      0000000000000000000000000000000000000000000000000000STREET CRY                          0000000000　　　　　　　　　　　　　　　　　　0000000000　　　　　　　　　　　　　　　　　　0000000000000000000000
SEB2006063020020323C70000070020000000000BEST OF THE BESTS                   00110005000000ビン・ス000000　　　　　　　　　　　　　　　　　　　　　　　　　　　　　　　　　　　　　　　　　　　　　　　　　　　　　　　　　　　　　　　　　　　　　　　　　　　　　　　　　　　　　　　　　　　　570000000000000000スペンサ　　　　00       00707000000 12      0000000000000000000000000000000000000000000000000000STREET CRY                          0000000000　　　　　　　　　　　　　　　　　　0000000000　　　　　　　　　　　　　　　　　　0000000000000000000000
SEB2006063020020323C70000070030000000000CRIMSON QUEST                       00110005000000バートン000000　　　　　　　　　　　　　　　　　　　　　　　　　　　　　　　　　　　　　　　　　　　　　　　　　　　　　　　　　　　　　　　　　　　　　　　　　　　　　　　　　　　　　　　　　　　　570000000000000000コア　　　　　　00       00404000000214      0000000000000000000000000000000000000000000000000000STREET CRY                          0000000000　　　　　　　　　　　　　　　　　　0000000000　　　　　　　　　　　　　　　　　　0000000000000000000000
SEB2006063020020323C70000070040000000000KELTOS                              00110004000000ラフォン000000　　　　　　　　　　　　　　　　　　　　　　　　　　　　　　　　　　　　　　　　　　　　　　　　　　　　　　　　　　　　　　　　　　　　　　　　　　　　　　　　　　　　　　　　　　　　570000000000000000モッセ　　　　　00       00808000000K        0000000000000000000000000000000000000000000000000000STREET CRY                          0000000000　　　　　　　　　　　　　　　　　　0000000000　　　　　　　　　　　　　　　　　　0000000000000000000000
SEB2006063020020323C70000070050000000000ROYAL TRYST                         00110005000000サドラー000000　　　　　　　　　　　　　　　　　　　　　　　　　　　　　　　　　　　　　　　　　　　　　　　　　　　　　　　　　　　　　　　　　　　　　　　　　　　　　　　　　　　　　　　　　　　　570000000000000000ウィリア　　　　00       00505000000K        0000000000000000000000000000000000000000000000000000STREET CRY                          0000000000　　　　　　　　　　　　　　　　　　0000000000　　　　　　　　　　　　　　　　　　0000000000000000000000
SEB2006063020020323C70000070060000000000SAKHEE                              00110005000000ビン・ス000000　　　　　　　　　　　　　　　　　　　　　　　　　　　　　　　　　　　　　　　　　　　　　　　　　　　　　　　　　　　　　　　　　　　　　　　　　　　　　　　　　　　　　　　　　　　　570000000000000000デットー　　　　00       00303000000414      0000000000000000000000000000000000000000000000000000STREET CRY                          0000000000　　　　　　　　　　　　　　　　　　0000000000　　　　　　　　　　　　　　　　　　0000000000000000000000
SEB2006063020020323C70000070070000000000SEI MI                              00110006000000バートン000000　　　　　　　　　　　　　　　　　　　　　　　　　　　　　　　　　　　　　　　　　　　　　　　　　　　　　　　　　　　　　　　　　　　　　　　　　　　　　　　　　　　　　　　　　　　　570000000000000000ベレス　　　　　00       00202000000414      0000000000000000000000000000000000000000000000000000STREET CRY                          0000000000　　　　　　　　　　　　　　　　　　0000000000　　　　　　　　　　　　　　　　　　0000000000000000000000
SEB2006063020020323C70000070080000000000STATE SHINTO                        00310006000000ビン・ス000000　　　　　　　　　　　　　　　　　　　　　　　　　　　　　　　　　　　　　　　　　　　　　　　　　　　　　　　　　　　　　　　　　　　　　　　　　　　　　　　　　　　　　　　　　　　　570000000000000000ダーカン　　　　00       01010000000912      0000000000000000000000000000000000000000000000000000STREET CRY                          0000000000　　　　　　　　　　　　　　　　　　0000000000　　　　　　　　　　　　　　　　　　0000000000000000000000
SEB2006063020020323C70000070090000000000STREET CRY                          00110004000000ビン・ス000000　　　　　　　　　　　　　　　　　　　　　　　　　　　　　　　　　　　　　　　　　　　　　　　　　　　　　　　　　　　　　　　　　　　　　　　　　　　　　　　　　　　　　　　　　　　　570000000000000000ベイリー　　　　00       00101002011         0000000000000000000000000000000000000000000000000000SEI MI                              0000000000　　　　　　　　　　　　　　　　　　0000000000　　　　　　　　　　　　　　　　　　0000000000000000000000
SEB2006063020020323C70000070100000000000WESTERN PRIDE                       00110004000000チャップ000000　　　　　　　　　　　　　　　　　　　　　　　　　　　　　　　　　　　　　　　　　　　　　　　　　　　　　　　　　　　　　　　　　　　　　　　　　　　　　　　　　　　　　　　　　　　　570000000000000000ヴァレン　　　　00       00909000000414      0000000000000000000000000000000000000000000000000000STREET CRY                          0000000000　　　　　　　　　　　　　　　　　　0000000000　　　　　　　　　　　　　　　　　　0000000000000000000000
SEB2006063020020323C70000070111996107386トゥザヴィクトリー　　　　　　　　　00210306200110池江泰郎587006金子　真人　　　　　　　　　　　　　　　　　　　　　　　　　　　黒，青袖，黄鋸歯形　　　　　　　　　　　　　　　　　　　　　　　　　　　　　　　　　　　　　　　　　　　　　　　　　　　550000000000000000ペリエ　　　　　00       01111000000214      0000000000000000000000000000000000000000000000000000STREET CRY                          0000000000　　　　　　　　　　　　　　　　　　0000000000　　　　　　　　　　　　　　　　　　0000000000000000000000
SEB2006063020020421G00000080011997110025アグネスデジタル　　　　　　　　　　06110105200201白井寿昭021005渡辺　孝男　　　　　　　　　　　　　　　　　　　　　　　　　　　黄，赤袖，水色二本輪　　　　　　　　　　　　　　　　　　　　　　　　　　　　　　　　　　　　　　　　　　　　　　　　　　570000000070000000四位洋文　　　　00449    00202002026 12      0000000000000000000000000000000000000000001997110161エイシンプレストン　　　　　　　　　0000000000　　　　　　　　　　　　　　　　　　0000000000　　　　　　　　　　　　　　　　　　+001000000000000000000
SEB2006063020020421G00000080031997110161エイシンプレストン　　　　　　　　　06110305200158北橋修二951005平井　豊光　　　　　　　　　　　　　　　　　　　　　　　　　　　赤，黒縦縞，黒袖　　　　　　　　　　　　　　　　　　　　　　　　　　　　　　　　　　　　　　　　　　　　　　　　　　　　570000000101400000福永祐一　　　　00468    00101002025         0000000000000000000000000000000000000000001997110025アグネスデジタル　　　　　　　　　　0000000000　　　　　　　　　　　　　　　　　　0000000000　　　　　　　　　　　　　　　　　　-001000000000000000000
SEB2006063020020511M00000070010000000000BLIZZ BLESS                         00310005000000ショー　000000　　　　　　　　　　　　　　　　　　　　　　　　　　　　　　　　　　　　　　　　　　　　　　　　　　　　　　　　　　　　　　　　　　　　　　　　　　　　　　　　　　　　　　　　　　　　570000000000000000ジェロー　　　　00       008080000002        0000000000000000000000000000000000000000000000000000NORTH BOY                           0000000000　　　　　　　　　　　　　　　　　　0000000000　　　　　　　　　　　　　　　　　　0000000000000000000000
SEB2006063020020511M00000070020000000000CALLER ONE                          00310005000000チャップ000000　　　　　　　　　　　　　　　　　　　　　　　　　　　　　　　　　　　　　　　　　　　　　　　　　　　　　　　　　　　　　　　　　　　　　　　　　　　　　　　　　　　　　　　　　　　　570000000000000000スティー　　　　00       01212000000714      0000000000000000000000000000000000000000000000000000NORTH BOY                           0000000000　　　　　　　　　　　　　　　　　　0000000000　　　　　　　　　　　　　　　　　　0000000000000000000000
SEB2006063020020511M00000070030000000000CHARMING CITY                       00310006000000ヘイズ　000000　　　　　　　　　　　　　　　　　　　　　　　　　　　　　　　　　　　　　　　　　　　　　　　　　　　　　　　　　　　　　　　　　　　　　　　　　　　　　　　　　　　　　　　　　　　　570000000000000000ダン　　　　　　00       00909000000K        0000000000000000000000000000000000000000000000000000NORTH BOY                           0000000000　　　　　　　　　　　　　　　　　　0000000000　　　　　　　　　　　　　　　　　　0000000000000000000000
SEB2006063020020511M00000070040000000000DANGER OVER                         00110005000000バリー　000000　　　　　　　　　　　　　　　　　　　　　　　　　　　　　　　　　　　　　　　　　　　　　　　　　　　　　　　　　　　　　　　　　　　　　　　　　　　　　　　　　　　　　　　　　　　　570000000000000000テュリエ　　　　00       00404000000 12      0000000000000000000000000000000000000000000000000000NORTH BOY                           0000000000　　　　　　　　　　　　　　　　　　0000000000　　　　　　　　　　　　　　　　　　0000000000000000000000
SEB2006063020020511M00000070050000000000FIREBOLT                            00310004000000アラン　000000　　　　　　　　　　　　　　　　　　　　　　　　　　　　　　　　　　　　　　　　　　　　　　　　　　　　　　　　　　　　　　　　　　　　　　　　　　　　　　　　　　　　　　　　　　　　570000000000000000マーウィ　　　　00       00707000000K        0000000000000000000000000000000000000000000000000000NORTH BOY                           0000000000　　　　　　　　　　　　　　　　　　0000000000　　　　　　　　　　　　　　　　　　0000000000000000000000
SEB2006063020020511M00000070060000000000SUPERB EFFECT                       00310006000000レック　000000　　　　　　　　　　　　　　　　　　　　　　　　　　　　　　　　　　　　　　　　　　　　　　　　　　　　　　　　　　　　　　　　　　　　　　　　　　　　　　　　　　　　　　　　　　　　570000000000000000ジュマト　　　　00       00202000000312      0000000000000000000000000000000000000000000000000000NORTH BOY                           0000000000　　　　　　　　　　　　　　　　　　0000000000　　　　　　　　　　　　　　　　　　0000000000000000000000
SEB2006063020020511M00000070070000000000TIT FOR TAAT                        00310005000000ハーバー000000　　　　　　　　　　　　　　　　　　　　　　　　　　　　　　　　　　　　　　　　　　　　　　　　　　　　　　　　　　　　　　　　　　　　　　　　　　　　　　　　　　　　　　　　　　　　570000000000000000デュプレ　　　　00       01010000000 12      0000000000000000000000000000000000000000000000000000NORTH BOY                           0000000000　　　　　　　　　　　　　　　　　　0000000000　　　　　　　　　　　　　　　　　　0000000000000000000000
SEB2006063020020511M00000070080000000000TOLEDO                              00310009000000キャメロ000000　　　　　　　　　　　　　　　　　　　　　　　　　　　　　　　　　　　　　　　　　　　　　　　　　　　　　　　　　　　　　　　　　　　　　　　　　　　　　　　　　　　　　　　　　　　　570000000000000000アーノル　　　　00       00505000000K        0000000000000000000000000000000000000000000000000000NORTH BOY                           0000000000　　　　　　　　　　　　　　　　　　0000000000　　　　　　　　　　　　　　　　　　0000000000000000000000
SEB2006063020020511M00000070090000000000TRILLION WIN                        00110005000000アラン　000000　　　　　　　　　　　　　　　　　　　　　　　　　　　　　　　　　　　　　　　　　　　　　　　　　　　　　　　　　　　　　　　　　　　　　　　　　　　　　　　　　　　　　　　　　　　　570000000000000000シャヴェ　　　　00       01111000000334      0000000000000000000000000000000000000000000000000000NORTH BOY                           0000000000　　　　　　　　　　　　　　　　　　0000000000　　　　　　　　　　　　　　　　　　0000000000000000000000
SEB2006063020020511M00000070100000000000YORICK                              00310004000000レック　000000　　　　　　　　　　　　　　　　　　　　　　　　　　　　　　　　　　　　　　　　　　　　　　　　　　　　　　　　　　　　　　　　　　　　　　　　　　　　　　　　　　　　　　　　　　　　570000000000000000ラオ　　　　　　00       00606000000H        0000000000000000000000000000000000000000000000000000NORTH BOY                           0000000000　　　　　　　　　　　　　　　　　　0000000000　　　　　　　　　　　　　　　　　　0000000000000000000000
SEB2006063020020511M00000070111997103456エアトゥーレ　　　　　　　　　　　　00210705200427森秀行　084800ラッキーフィールド　　　　　　　　　　　　　　　　　　　　　　　黄，青一本輪，青袖　　　　　　　　　　　　　　　　　　　　　　　　　　　　　　　　　　　　　　　　　　　　　　　　　　　555000000066600000武豊　　　　　　00459    00303000000214      0000000000000000000000000000000000000000000000000000NORTH BOY                           0000000000　　　　　　　　　　　　　　　　　　0000000000　　　　　　　　　　　　　　　　　　0000000000000000000000
SEB2006063020020511M00000070120000000000NORTH BOY                           00310004000000マカヴォ000000　　　　　　　　　　　　　　　　　　　　　　　　　　　　　　　　　　　　　　　　　　　　　　　　　　　　　　　　　　　　　　　　　　　　　　　　　　　　　　　　　　　　　　　　　　　　555000000000000000チャイル　　　　00       00101001090         0000000000000000000000000000000000000000000000000000SUPERB EFFECT                       0000000000　　　　　　　　　　　　　　　　　　0000000000　　　　　　　　　　　　　　　　　　0000000000000000000000
SEB2006063020020811A80000040010000000000NAYYIR                              00310004000000バトラー000000　　　　　　　　　　　　　　　　　　　　　　　　　　　　　　　　　　　　　　　　　　　　　　　　　　　　　　　　　　　　　　　　　　　　　　　　　　　　　　　　　　　　　　　　　　　　580000000000000000アハーン　　　　00       00303000000 12      0000000000000000000000000000000000000000000000000000MAY BALL                            0000000000　　　　　　　　　　　　　　　　　　0000000000　　　　　　　　　　　　　　　　　　0000000000000000000000
SEB2006063020020811A80000040020000000000CAYOKE                              00110005000000ギヨ　　000000　　　　　　　　　　　　　　　　　　　　　　　　　　　　　　　　　　　　　　　　　　　　　　　　　　　　　　　　　　　　　　　　　　　　　　　　　　　　　　　　　　　　　　　　　　　　580000000000000000ヴィオン　　　　00       00808000000 34      0000000000000000000000000000000000000000000000000000MAY BALL                            0000000000　　　　　　　　　　　　　　　　　　0000000000　　　　　　　　　　　　　　　　　　0000000000000000000000
SEB2006063020020811A80000040030000000000FRENCHMANS BAY                      00110004000000チャール000000　　　　　　　　　　　　　　　　　　　　　　　　　　　　　　　　　　　　　　　　　　　　　　　　　　　　　　　　　　　　　　　　　　　　　　　　　　　　　　　　　　　　　　　　　　　　580000000000000000ドラウン　　　　00       00909000000H        0000000000000000000000000000000000000000000000000000MAY BALL                            0000000000　　　　　　　　　　　　　　　　　　0000000000　　　　　　　　　　　　　　　　　　0000000000000000000000
SEB2006063020020811A80000040050000000000MAY BALL                            00210005000000ゴスデン000000　　　　　　　　　　　　　　　　　　　　　　　　　　　　　　　　　　　　　　　　　　　　　　　　　　　　　　　　　　　　　　　　　　　　　　　　　　　　　　　　　　　　　　　　　　　　565000000000000000モッセ　　　　　00       00101001177         0000000000000000000000000000000000000000001997103456エアトゥーレ　　　　　　　　　　　　0000000000　　　　　　　　　　　　　　　　　　0000000000　　　　　　　　　　　　　　　　　　0000000000000000000000
SEB2006063020020811A80000040061997103456エアトゥーレ　　　　　　　　　　　　00210705200427森秀行　084800ラッキーフィールド　　　　　　　　　　　　　　　　　　　　　　　黄，青一本輪，青袖　　　　　　　　　　　　　　　　　　　　　　　　　　　　　　　　　　　　　　　　　　　　　　　　　　　565000000066600000武豊　　　　　　00       00202000000 34      0000000000000000000000000000000000000000000000000000MAY BALL                            0000000000　　　　　　　　　　　　　　　　　　0000000000　　　　　　　　　　　　　　　　　　0000000000000000000000
SEB2006063020020811A80000040070000000000WAR ZONE                            00110003000000ファーブ000000　　　　　　　　　　　　　　　　　　　　　　　　　　　　　　　　　　　　　　　　　　　　　　　　　　　　　　　　　　　　　　　　　　　　　　　　　　　　　　　　　　　　　　　　　　　　560000000000000000ペリエ　　　　　00       00505000000112      0000000000000000000000000000000000000000000000000000MAY BALL                            0000000000　　　　　　　　　　　　　　　　　　0000000000　　　　　　　　　　　　　　　　　　0000000000000000000000
SEB2006063020020811A80000040080000000000DOBBY ROAD                          00110003000000ディソー000000　　　　　　　　　　　　　　　　　　　　　　　　　　　　　　　　　　　　　　　　　　　　　　　　　　　　　　　　　　　　　　　　　　　　　　　　　　　　　　　　　　　　　　　　　　　　560000000000000000　　　　　　　　00000    10000000000         0000000000000000000000000000000000000009990000000000MAY BALL                            0000000000　　　　　　　　　　　　　　　　　　0000000000　　　　　　　　　　　　　　　　　　9999000000000000000000
SEB2006063020020811A80000040090000000000TWILIGHT BLUES                      00310003000000ミーハン000000　　　　　　　　　　　　　　　　　　　　　　　　　　　　　　　　　　　　　　　　　　　　　　　　　　　　　　　　　　　　　　　　　　　　　　　　　　　　　　　　　　　　　　　　　　　　560000000000000000サプル　　　　　00       004040000002        0000000000000000000000000000000000000000000000000000MAY BALL                            0000000000　　　　　　　　　　　　　　　　　　0000000000　　　　　　　　　　　　　　　　　　0000000000000000000000
SEB2006063020020811A80000040100000000000ZIPPING                             00110003000000コレ　　000000　　　　　　　　　　　　　　　　　　　　　　　　　　　　　　　　　　　　　　　　　　　　　　　　　　　　　　　　　　　　　　　　　　　　　　　　　　　　　　　　　　　　　　　　　　　　560000000000000000ボニヤ　　　　　00       00606000000A        0000000000000000000000000000000000000000000000000000MAY BALL                            0000000000　　　　　　　　　　　　　　　　　　0000000000　　　　　　　　　　　　　　　　　　0000000000000000000000
SEB2006063020020907A60000040010000000000BAHAMIAN PIRATE                     00310007000000ニコラス000000　　　　　　　　　　　　　　　　　　　　　　　　　　　　　　　　　　　　　　　　　　　　　　　　　　　　　　　　　　　　　　　　　　　　　　　　　　　　　　　　　　　　　　　　　　　　570000000000000000ヒルズ　　　　　00       00808000000A        0000000000000000000000000000000000000000000000000000INVINCIBLE SPIRIT                   0000000000　　　　　　　　　　　　　　　　　　0000000000　　　　　　　　　　　　　　　　　　0000000000000000000000
SEB2006063020020907A60000040020000000000CONTINENT                           00310005000000ニコラス000000　　　　　　　　　　　　　　　　　　　　　　　　　　　　　　　　　　　　　　　　　　　　　　　　　　　　　　　　　　　　　　　　　　　　　　　　　　　　　　　　　　　　　　　　　　　　570000000000000000ダルグリ　　　　00       00606000000 12      0000000000000000000000000000000000000000000000000000INVINCIBLE SPIRIT                   0000000000　　　　　　　　　　　　　　　　　　0000000000　　　　　　　　　　　　　　　　　　0000000000000000000000
SEB2006063020020907A60000040030000000000FRENCHMANS BAY                      00110004000000チャール000000　　　　　　　　　　　　　　　　　　　　　　　　　　　　　　　　　　　　　　　　　　　　　　　　　　　　　　　　　　　　　　　　　　　　　　　　　　　　　　　　　　　　　　　　　　　　570000000000000000ドラウン　　　　00       01212000000212      0000000000000000000000000000000000000000000000000000INVINCIBLE SPIRIT                   0000000000　　　　　　　　　　　　　　　　　　0000000000　　　　　　　　　　　　　　　　　　0000000000000000000000
SEB2006063020020907A60000040040000000000INVINCIBLE SPIRIT                   00110005000000ダンロッ000000　　　　　　　　　　　　　　　　　　　　　　　　　　　　　　　　　　　　　　　　　　　　　　　　　　　　　　　　　　　　　　　　　　　　　　　　　　　　　　　　　　　　　　　　　　　　570000000000000000キャロル　　　　00       00101001124         0000000000000000000000000000000000000000000000000000MALHUB                              0000000000　　　　　　　　　　　　　　　　　　0000000000　　　　　　　　　　　　　　　　　　0000000000000000000000
SEB2006063020020907A60000040050000000000MALHUB                              00110004000000ゴスデン000000　　　　　　　　　　　　　　　　　　　　　　　　　　　　　　　　　　　　　　　　　　　　　　　　　　　　　　　　　　　　　　　　　　　　　　　　　　　　　　　　　　　　　　　　　　　　570000000000000000ヒルズ　　　　　00       00202000000H        0000000000000000000000000000000000000000000000000000INVINCIBLE SPIRIT                   0000000000　　　　　　　　　　　　　　　　　　0000000000　　　　　　　　　　　　　　　　　　0000000000000000000000
SEB2006063020020907A60000040060000000000MOUNT ABU                           00110005000000ゴスデン000000　　　　　　　　　　　　　　　　　　　　　　　　　　　　　　　　　　　　　　　　　　　　　　　　　　　　　　　　　　　　　　　　　　　　　　　　　　　　　　　　　　　　　　　　　　　　570000000000000000フォーチ　　　　00       009090000001        0000000000000000000000000000000000000000000000000000INVINCIBLE SPIRIT                   0000000000　　　　　　　　　　　　　　　　　　0000000000　　　　　　　　　　　　　　　　　　0000000000000000000000
SEB2006063020020907A60000040070000000000NAYYIR                              00310004000000バトラー000000　　　　　　　　　　　　　　　　　　　　　　　　　　　　　　　　　　　　　　　　　　　　　　　　　　　　　　　　　　　　　　　　　　　　　　　　　　　　　　　　　　　　　　　　　　　　570000000000000000アハーン　　　　00       01010000000114      0000000000000000000000000000000000000000000000000000INVINCIBLE SPIRIT                   0000000000　　　　　　　　　　　　　　　　　　0000000000　　　　　　　　　　　　　　　　　　0000000000000000000000
SEB2006063020020907A60000040080000000000ORIENTOR                            00110004000000ゴルディ000000　　　　　　　　　　　　　　　　　　　　　　　　　　　　　　　　　　　　　　　　　　　　　　　　　　　　　　　　　　　　　　　　　　　　　　　　　　　　　　　　　　　　　　　　　　　　570000000000000000カルハン　　　　00       00404000000A        0000000000000000000000000000000000000000000000000000INVINCIBLE SPIRIT                   0000000000　　　　　　　　　　　　　　　　　　0000000000　　　　　　　　　　　　　　　　　　0000000000000000000000
SEB2006063020020907A60000040090000000000THREE POINTS                        00110005000000ビン・ス000000　　　　　　　　　　　　　　　　　　　　　　　　　　　　　　　　　　　　　　　　　　　　　　　　　　　　　　　　　　　　　　　　　　　　　　　　　　　　　　　　　　　　　　　　　　　　570000000000000000ダーレイ　　　　00       003030000002        0000000000000000000000000000000000000000000000000000INVINCIBLE SPIRIT                   0000000000　　　　　　　　　　　　　　　　　　0000000000　　　　　　　　　　　　　　　　　　0000000000000000000000
SEB2006063020020907A60000040100000000000LANDSEER                            00110003000000オブライ000000　　　　　　　　　　　　　　　　　　　　　　　　　　　　　　　　　　　　　　　　　　　　　　　　　　　　　　　　　　　　　　　　　　　　　　　　　　　　　　　　　　　　　　　　　　　　560000000000000000ファロン　　　　00       01313000000 34      0000000000000000000000000000000000000000000000000000INVINCIBLE SPIRIT                   0000000000　　　　　　　　　　　　　　　　　　0000000000　　　　　　　　　　　　　　　　　　0000000000000000000000
SEB2006063020020907A60000040110000000000TWILIGHT BLUES                      00310003000000ミーハン000000　　　　　　　　　　　　　　　　　　　　　　　　　　　　　　　　　　　　　　　　　　　　　　　　　　　　　　　　　　　　　　　　　　　　　　　　　　　　　　　　　　　　　　　　　　　　560000000000000000サプル　　　　　00       00707000000 34      0000000000000000000000000000000000000000000000000000INVINCIBLE SPIRIT                   0000000000　　　　　　　　　　　　　　　　　　0000000000　　　　　　　　　　　　　　　　　　0000000000000000000000
SEB2006063020020907A60000040121997103456エアトゥーレ　　　　　　　　　　　　00210705200427森秀行　084800ラッキーフィールド　　　　　　　　　　　　　　　　　　　　　　　黄，青一本輪，青袖　　　　　　　　　　　　　　　　　　　　　　　　　　　　　　　　　　　　　　　　　　　　　　　　　　　555000000066600000武豊　　　　　　00       01111000000K        0000000000000000000000000000000000000000000000000000INVINCIBLE SPIRIT                   0000000000　　　　　　　　　　　　　　　　　　0000000000　　　　　　　　　　　　　　　　　　0000000000000000000000
SEB2006063020020907A60000040130000000000DANEHURST                           00210004000000プレスコ000000　　　　　　　　　　　　　　　　　　　　　　　　　　　　　　　　　　　　　　　　　　　　　　　　　　　　　　　　　　　　　　　　　　　　　　　　　　　　　　　　　　　　　　　　　　　　555000000000000000ダフィー　　　　00       014140000001        0000000000000000000000000000000000000000000000000000INVINCIBLE SPIRIT                   0000000000　　　　　　　　　　　　　　　　　　0000000000　　　　　　　　　　　　　　　　　　0000000000000000000000
SEB2006063020020907A60000040140000000000MAY BALL                            00210005000000ゴスデン000000　　　　　　　　　　　　　　　　　　　　　　　　　　　　　　　　　　　　　　　　　　　　　　　　　　　　　　　　　　　　　　　　　　　　　　　　　　　　　　　　　　　　　　　　　　　　555000000000000000ロビンソ　　　　00       00505000000H        0000000000000000000000000000000000000000000000000000INVINCIBLE SPIRIT                   0000000000　　　　　　　　　　　　　　　　　　0000000000　　　　　　　　　　　　　　　　　　0000000000000000000000
SEB2006063020021005A80000020010000000000BINARY FILE                         00110004000000ゴスデン000000　　　　　　　　　　　　　　　　　　　　　　　　　　　　　　　　　　　　　　　　　　　　　　　　　　　　　　　　　　　　　　　　　　　　　　　　　　　　　　　　　　　　　　　　　　　　570000000000000000ブフ　　　　　　00       00202000000212      0000000000000000000000000000000000000000000000000000DANO MAST                           0000000000　　　　　　　　　　　　　　　　　　0000000000　　　　　　　　　　　　　　　　　　0000000000000000000000
SEB2006063020021005A80000020020000000000WAR BLADE                           00110005000000シュッツ000000　　　　　　　　　　　　　　　　　　　　　　　　　　　　　　　　　　　　　　　　　　　　　　　　　　　　　　　　　　　　　　　　　　　　　　　　　　　　　　　　　　　　　　　　　　　　570000000000000000シュタル　　　　00       010100000008        0000000000000000000000000000000000000000000000000000DANO MAST                           0000000000　　　　　　　　　　　　　　　　　　0000000000　　　　　　　　　　　　　　　　　　0000000000000000000000
SEB2006063020021005A80000020030000000000WELLBEING                           00310005000000バリー　000000　　　　　　　　　　　　　　　　　　　　　　　　　　　　　　　　　　　　　　　　　　　　　　　　　　　　　　　　　　　　　　　　　　　　　　　　　　　　　　　　　　　　　　　　　　　　570000000000000000テュリエ　　　　00       01111000000T        0000000000000000000000000000000000000000000000000000DANO MAST                           0000000000　　　　　　　　　　　　　　　　　　0000000000　　　　　　　　　　　　　　　　　　0000000000000000000000
SEB2006063020021005A80000020040000000000JIM AND TONIC                       00310008000000ドゥーメ000000　　　　　　　　　　　　　　　　　　　　　　　　　　　　　　　　　　　　　　　　　　　　　　　　　　　　　　　　　　　　　　　　　　　　　　　　　　　　　　　　　　　　　　　　　　　　570000000000000000モッセ　　　　　00       00505000000H        0000000000000000000000000000000000000000000000000000DANO MAST                           0000000000　　　　　　　　　　　　　　　　　　0000000000　　　　　　　　　　　　　　　　　　0000000000000000000000
SEB2006063020021005A80000020050000000000DANO MAST                           00110006000000ポールセ000000　　　　　　　　　　　　　　　　　　　　　　　　　　　　　　　　　　　　　　　　　　　　　　　　　　　　　　　　　　　　　　　　　　　　　　　　　　　　　　　　　　　　　　　　　　　　570000000000000000ペリエ　　　　　00       00101002016         0000000000000000000000000000000000000000000000000000BINARY FILE                         0000000000　　　　　　　　　　　　　　　　　　0000000000　　　　　　　　　　　　　　　　　　0000000000000000000000
SEB2006063020021005A80000020060000000000VINTAGE PREMIUM                     00310005000000フェイヒ000000　　　　　　　　　　　　　　　　　　　　　　　　　　　　　　　　　　　　　　　　　　　　　　　　　　　　　　　　　　　　　　　　　　　　　　　　　　　　　　　　　　　　　　　　　　　　570000000000000000ハナガン　　　　00       00909000000212      0000000000000000000000000000000000000000000000000000DANO MAST                           0000000000　　　　　　　　　　　　　　　　　　0000000000　　　　　　　　　　　　　　　　　　0000000000000000000000
SEB2006063020021005A80000020070000000000IMPERIAL DANCER                     00110004000000シャノン000000　　　　　　　　　　　　　　　　　　　　　　　　　　　　　　　　　　　　　　　　　　　　　　　　　　　　　　　　　　　　　　　　　　　　　　　　　　　　　　　　　　　　　　　　　　　　570000000000000000ドワイヤ　　　　00       00707000000H        0000000000000000000000000000000000000000000000000000DANO MAST                           0000000000　　　　　　　　　　　　　　　　　　0000000000　　　　　　　　　　　　　　　　　　0000000000000000000000
SEB2006063020021005A80000020080000000000EXECUTE                             00110005000000ハモンド000000　　　　　　　　　　　　　　　　　　　　　　　　　　　　　　　　　　　　　　　　　　　　　　　　　　　　　　　　　　　　　　　　　　　　　　　　　　　　　　　　　　　　　　　　　　　　590000000000000000ジレ　　　　　　00       00808000000K        0000000000000000000000000000000000000000000000000000DANO MAST                           0000000000　　　　　　　　　　　　　　　　　　0000000000　　　　　　　　　　　　　　　　　　0000000000000000000000
SEB2006063020021005A80000020091997110118イーグルカフェ　　　　　　　　　　　06110305101013小島太　989006西川　清　　　　　　　　　　　　　　　　　　　　　　　　　　　　黄，黒襷，黒袖　　　　　　　　　　　　　　　　　　　　　　　　　　　　　　　　　　　　　　　　　　　　　　　　　　　　　570000000068400000田中勝春　　　　00       00303000000K        0000000000000000000000000000000000000000000000000000DANO MAST                           0000000000　　　　　　　　　　　　　　　　　　0000000000　　　　　　　　　　　　　　　　　　0000000000000000000000
SEB2006063020021005A80000020100000000000TAU CETI                            00110003000000ハモンド000000　　　　　　　　　　　　　　　　　　　　　　　　　　　　　　　　　　　　　　　　　　　　　　　　　　　　　　　　　　　　　　　　　　　　　　　　　　　　　　　　　　　　　　　　　　　　550000000000000000ジャルネ　　　　00       00404000000 12      0000000000000000000000000000000000000000000000000000DANO MAST                           0000000000　　　　　　　　　　　　　　　　　　0000000000　　　　　　　　　　　　　　　　　　0000000000000000000000
SEB2006063020021005A80000020110000000000BERNEBEAU                           00110003000000ファーブ000000　　　　　　　　　　　　　　　　　　　　　　　　　　　　　　　　　　　　　　　　　　　　　　　　　　　　　　　　　　　　　　　　　　　　　　　　　　　　　　　　　　　　　　　　　　　　550000000000000000デットー　　　　00       00606000000K        0000000000000000000000000000000000000000000000000000DANO MAST                           0000000000　　　　　　　　　　　　　　　　　　0000000000　　　　　　　　　　　　　　　　　　0000000000000000000000
SEB2006063020021006A80000070010000000000FAIR MIX                            00110004000000ローラン000000　　　　　　　　　　　　　　　　　　　　　　　　　　　　　　　　　　　　　　　　　　　　　　　　　　　　　　　　　　　　　　　　　　　　　　　　　　　　　　　　　　　　　　　　　　　　595000000000000000パスキエ　　　　00       00808000000112      0000000000000000000000000000000000000000000000000000MARIENBARD                          0000000000　　　　　　　　　　　　　　　　　　0000000000　　　　　　　　　　　　　　　　　　0000000000000000000000
SEB2006063020021006A80000070020000000000CALIFET                             00110004000000シェレル000000　　　　　　　　　　　　　　　　　　　　　　　　　　　　　　　　　　　　　　　　　　　　　　　　　　　　　　　　　　　　　　　　　　　　　　　　　　　　　　　　　　　　　　　　　　　　595000000000000000ジャルネ　　　　00       00404000000 12      0000000000000000000000000000000000000000000000000000MARIENBARD                          0000000000　　　　　　　　　　　　　　　　　　0000000000　　　　　　　　　　　　　　　　　　0000000000000000000000
SEB2006063020021006A80000070030000000000BOREAL                              00110004000000シールゲ000000　　　　　　　　　　　　　　　　　　　　　　　　　　　　　　　　　　　　　　　　　　　　　　　　　　　　　　　　　　　　　　　　　　　　　　　　　　　　　　　　　　　　　　　　　　　　595000000000000000スボリッ　　　　00       01515000000H        0000000000000000000000000000000000000000000000000000MARIENBARD                          0000000000　　　　　　　　　　　　　　　　　　0000000000　　　　　　　　　　　　　　　　　　0000000000000000000000
SEB2006063020021006A80000070040000000000MARIENBARD                          00110005000000ビン・ス000000　　　　　　　　　　　　　　　　　　　　　　　　　　　　　　　　　　　　　　　　　　　　　　　　　　　　　　　　　　　　　　　　　　　　　　　　　　　　　　　　　　　　　　　　　　　　595000000000000000デットー　　　　00       00101002267         0000000000000000000000000000000000000000000000000000SULAMANI                            0000000000　　　　　　　　　　　　　　　　　　0000000000　　　　　　　　　　　　　　　　　　0000000000000000000000
SEB2006063020021006A80000070050000000000ANABAA BLUE                         00110004000000レルネル000000　　　　　　　　　　　　　　　　　　　　　　　　　　　　　　　　　　　　　　　　　　　　　　　　　　　　　　　　　　　　　　　　　　　　　　　　　　　　　　　　　　　　　　　　　　　　595000000000000000スミヨン　　　　00       00707000000112      0000000000000000000000000000000000000000000000000000MARIENBARD                          0000000000　　　　　　　　　　　　　　　　　　0000000000　　　　　　　　　　　　　　　　　　0000000000000000000000
SEB2006063020021006A80000070060000000000FOUNDATION SPIRIT                   00110004000000ドゥーメ000000　　　　　　　　　　　　　　　　　　　　　　　　　　　　　　　　　　　　　　　　　　　　　　　　　　　　　　　　　　　　　　　　　　　　　　　　　　　　　　　　　　　　　　　　　　　　595000000000000000モッセ　　　　　00       012120000005        0000000000000000000000000000000000000000000000000000MARIENBARD                          0000000000　　　　　　　　　　　　　　　　　　0000000000　　　　　　　　　　　　　　　　　　0000000000000000000000
SEB2006063020021006A80000070070000000000SENSIBLE                            00110004000000バリー　000000　　　　　　　　　　　　　　　　　　　　　　　　　　　　　　　　　　　　　　　　　　　　　　　　　　　　　　　　　　　　　　　　　　　　　　　　　　　　　　　　　　　　　　　　　　　　595000000000000000ルメール　　　　00       01616000000T        0000000000000000000000000000000000000000000000000000MARIENBARD                          0000000000　　　　　　　　　　　　　　　　　　0000000000　　　　　　　　　　　　　　　　　　0000000000000000000000
SEB2006063020021006A80000070081998101554マンハッタンカフェ　　　　　　　　　00110504101013小島太　989006西川　清　　　　　　　　　　　　　　　　　　　　　　　　　　　　黄，黒襷，黒袖　　　　　　　　　　　　　　　　　　　　　　　　　　　　　　　　　　　　　　　　　　　　　　　　　　　　　595000000066300000蛯名正義　　　　00       013130000005        0000000000000000000000000000000000000000000000000000MARIENBARD                          0000000000　　　　　　　　　　　　　　　　　　0000000000　　　　　　　　　　　　　　　　　　0000000000000000000000
SEB2006063020021006A80000070090000000000ASIAN HEIGHTS                       00110004000000ラッグ　000000　　　　　　　　　　　　　　　　　　　　　　　　　　　　　　　　　　　　　　　　　　　　　　　　　　　　　　　　　　　　　　　　　　　　　　　　　　　　　　　　　　　　　　　　　　　　595000000000000000ホランド　　　　00       01414000000212      0000000000000000000000000000000000000000000000000000MARIENBARD                          0000000000　　　　　　　　　　　　　　　　　　0000000000　　　　　　　　　　　　　　　　　　0000000000000000000000
SEB2006063020021006A80000070101998190004ファルブラヴ　　　　　　　　　　　　00110304005431ダウリア657800スキュデリアランカティ社　　　　　　　　　　　　　　　　　　　　　　　　　　　　　　　　　　　　　　　　　　　　　　　　　　　　　　　　　　　　　　　　　　　　　　　　　　　　　　　　595000000000000000ペリエ　　　　　00       00909000000H        0000000000000000000000000000000000000000000000000000MARIENBARD                          0000000000　　　　　　　　　　　　　　　　　　0000000000　　　　　　　　　　　　　　　　　　0000000000000000000000
SEB2006063020021006A80000070110000000000AQUARELLISTE                        00210004000000ルルーシ000000　　　　　　　　　　　　　　　　　　　　　　　　　　　　　　　　　　　　　　　　　　　　　　　　　　　　　　　　　　　　　　　　　　　　　　　　　　　　　　　　　　　　　　　　　　　　580000000000000000ブフ　　　　　　00       00606000000 34      0000000000000000000000000000000000000000000000000000MARIENBARD                          0000000000　　　　　　　　　　　　　　　　　　0000000000　　　　　　　　　　　　　　　　　　0000000000000000000000
SEB2006063020021006A80000070120000000000BLACK SAM BELLAMY                   00110003000000オブライ000000　　　　　　　　　　　　　　　　　　　　　　　　　　　　　　　　　　　　　　　　　　　　　　　　　　　　　　　　　　　　　　　　　　　　　　　　　　　　　　　　　　　　　　　　　　　　555000000000000000ムルタ　　　　　00       01010000000112      0000000000000000000000000000000000000000000000000000MARIENBARD                          0000000000　　　　　　　　　　　　　　　　　　0000000000　　　　　　　　　　　　　　　　　　0000000000000000000000
SEB2006063020021006A80000070130000000000HIGH CHAPARRAL                      00110003000000オブライ000000　　　　　　　　　　　　　　　　　　　　　　　　　　　　　　　　　　　　　　　　　　　　　　　　　　　　　　　　　　　　　　　　　　　　　　　　　　　　　　　　　　　　　　　　　　　　555000000000000000キネーン　　　　00       00303000000 12      0000000000000000000000000000000000000000000000000000MARIENBARD                          0000000000　　　　　　　　　　　　　　　　　　0000000000　　　　　　　　　　　　　　　　　　0000000000000000000000
SEB2006063020021006A80000070140000000000SULAMANI                            00110003000000バリー　000000　　　　　　　　　　　　　　　　　　　　　　　　　　　　　　　　　　　　　　　　　　　　　　　　　　　　　　　　　　　　　　　　　　　　　　　　　　　　　　　　　　　　　　　　　　　　555000000000000000テュリエ　　　　00       00202000000 34      0000000000000000000000000000000000000000000000000000MARIENBARD                          0000000000　　　　　　　　　　　　　　　　　　0000000000　　　　　　　　　　　　　　　　　　0000000000000000000000
SEB2006063020021006A80000070151999190003アナマリー　　　　　　　　　　　　　00210303000839ドゥメル663800エキュリ・バデル　　　　　　　　　　　　　　　　　　　　　　　　　　　　　　　　　　　　　　　　　　　　　　　　　　　　　　　　　　　　　　　　　　　　　　　　　　　　　　　　　　　　545000000000000000ボニヤ　　　　　00       01111000000112      0000000000000000000000000000000000000000000000000000MARIENBARD                          0000000000　　　　　　　　　　　　　　　　　　0000000000　　　　　　　　　　　　　　　　　　0000000000000000000000
SEB2006063020021006A80000070161999190006イズリントン　　　　　　　　　　　　00210303000840スタウト659800故ウェインストック卿遺言執行人　　　　　　　　　　　　　　　　　　　　　　　　　　　　　　　　　　　　　　　　　　　　　　　　　　　　　　　　　　　　　　　　　　　　　　　　　　　　　545000000000000000ファロン　　　　00       00505000000K        0000000000000000000000000000000000000000000000000000MARIENBARD                          0000000000　　　　　　　　　　　　　　　　　　0000000000　　　　　　　　　　　　　　　　　　0000000000000000000000
SEB2006063020021215G00000030150000000000MALHUB                              00110004000000ゴスデン000000　　　　　　　　　　　　　　　　　　　　　　　　　　　　　　　　　　　　　　　　　　　　　　　　　　　　　　　　　　　　　　　　　　　　　　　　　　　　　　　　　　　　　　　　　　　　570000000000000000ヒルズ　　　　　00000    10000000000         0000000000000000000000000000000000000009990000000000ALL THRILLS TOO                     0000000000　　　　　　　　　　　　　　　　　　0000000000　　　　　　　　　　　　　　　　　　9999000000000000000000
SEB2006063020021215G00000070010000000000NOVERRE                             00110004000000ビン・ス000000　　　　　　　　　　　　　　　　　　　　　　　　　　　　　　　　　　　　　　　　　　　　　　　　　　　　　　　　　　　　　　　　　　　　　　　　　　　　　　　　　　　　　　　　　　　　570000000000000000デットー　　　　00481    00808001356 12      0000000000000000000000000000000000000000000000000000OLYMPIC EXPRESS                     0000000000　　　　　　　　　　　　　　　　　　0000000000　　　　　　　　　　　　　　　　　　+007000000000000000000
SEB2006063020021215G00000070031996106512アドマイヤコジーン　　　　　　　　　00110706200362橋田満　398002近藤　利一　　　　　　　　　　　　　　　　　　　　　　　　　　　水色，白袖，青鋸歯形　　　　　　　　　　　　　　　　　　　　　　　　　　　　　　　　　　　　　　　　　　　　　　　　　　570000000066600000武豊　　　　　　00462    00404001351A        0000000000000000000000000000000000000000000000000000OLYMPIC EXPRESS                     0000000000　　　　　　　　　　　　　　　　　　0000000000　　　　　　　　　　　　　　　　　　+002000000000000000000
SEB2006063020021215G00000070071996106049トウカイポイント　　　　　　　　　　09310106101004後藤由之695004内村　正則　　　　　　　　　　　　　　　　　　　　　　　　　　　白，青山形一本輪，桃袖　　　　　　　　　　　　　　　　　　　　　　　　　　　　　　　　　　　　　　　　　　　　　　　　　570000000066300000蛯名正義　　　　00464    00303001350A        0000000000000000000000000000000000000000000000000000OLYMPIC EXPRESS                     0000000000　　　　　　　　　　　　　　　　　　0000000000　　　　　　　　　　　　　　　　　　+001000000000000000000
SEB2006063020021215G00000070111997190008ジューンキングプローン　　　　　　　00110305005156アラン　496007Ｐ．ロー　　　　　　　　　　　　　　　　　　　　　　　　　　　　　　　　　　　　　　　　　　　　　　　　　　　　　　　　　　　　　　　　　　　　　　　　　　　　　　　　　　　　　　　　570000000000000000コーツィ　　　　00000    10000000000         0000000000000000000000000000000000000009990000000000OLYMPIC EXPRESS                     0000000000　　　　　　　　　　　　　　　　　　0000000000　　　　　　　　　　　　　　　　　　9999000000000000000000
SEB2006063020021215G00000080010000000000GRANDERA                            00110004000000ビン・ス000000　　　　　　　　　　　　　　　　　　　　　　　　　　　　　　　　　　　　　　　　　　　　　　　　　　　　　　　　　　　　　　　　　　　　　　　　　　　　　　　　　　　　　　　　　　　　570000000000000000デットー　　　　00473    00707002075 34      0000000000000000000000000000000000000000000000000000PRECISION                           0000000000　　　　　　　　　　　　　　　　　　0000000000　　　　　　　　　　　　　　　　　　+004000000000000000000
SEB2006063020021215G00000080031997110161エイシンプレストン　　　　　　　　　06110305200158北橋修二951005平井　豊光　　　　　　　　　　　　　　　　　　　　　　　　　　　赤，黒縦縞，黒袖　　　　　　　　　　　　　　　　　　　　　　　　　　　　　　　　　　　　　　　　　　　　　　　　　　　　570000000101400000福永祐一　　　　00475    00505002072H        0000000000000000000000000000000000000000000000000000PRECISION                           0000000000　　　　　　　　　　　　　　　　　　0000000000　　　　　　　　　　　　　　　　　　+001000000000000000000
SEB2006063020021215G00000080040000000000INDIAN CREEK                        00110004000000エルスワ000000　　　　　　　　　　　　　　　　　　　　　　　　　　　　　　　　　　　　　　　　　　　　　　　　　　　　　　　　　　　　　　　　　　　　　　　　　　　　　　　　　　　　　　　　　　　　570000000000000000クィン　　　　　00457    00808002075K        0000000000000000000000000000000000000000000000000000PRECISION                           0000000000　　　　　　　　　　　　　　　　　　0000000000　　　　　　　　　　　　　　　　　　+004000000000000000000
SEB2006063020021215G00000080060000000000DANO-MAST                           00110006000000ポールセ000000　　　　　　　　　　　　　　　　　　　　　　　　　　　　　　　　　　　　　　　　　　　　　　　　　　　　　　　　　　　　　　　　　　　　　　　　　　　　　　　　　　　　　　　　　　　　570000000000000000モッセ　　　　　00526    00303002072 12      0000000000000000000000000000000000000000000000000000PRECISION                           0000000000　　　　　　　　　　　　　　　　　　0000000000　　　　　　　　　　　　　　　　　　+001000000000000000000
SEB2006063020021215G00000080071997190007レッドペッパー　　　　　　　　　　　00310305005405カン　　804007Ｋ．シャウ　　　　　　　　　　　　　　　　　　　　　　　　　　　　　　　　　　　　　　　　　　　　　　　　　　　　　　　　　　　　　　　　　　　　　　　　　　　　　　　　　　　　　　　570000000000000000スコフィ　　　　00000    10000000000         0000000000000000000000000000000000000009990000000000PRECISION                           0000000000　　　　　　　　　　　　　　　　　　0000000000　　　　　　　　　　　　　　　　　　9999000000000000000000
SEB2006111620020726A60000050022000190014コートマスターピース　　　　　　　　00110302005559ダンロッ000000　　　　　　　　　　　　　　　　　　　　　　　　　　　　　　　　　　　　　　　　　　　　　　　　　　　　　　　　　　　　　　　　　　　　　　　　　　　　　　　　　　　　　　　　　　　　570000000000000000ヒューズ　　　　00       00606001317112      0000000000000000000000000000000000000000000000000000GARROS                              0000000000　　　　　　　　　　　　　　　　　　0000000000　　　　　　　　　　　　　　　　　　+014000000000000000000
SEB2006111620020821A60000060032000190014コートマスターピース　　　　　　　　00110302005559ダンロッ000000　　　　　　　　　　　　　　　　　　　　　　　　　　　　　　　　　　　　　　　　　　　　　　　　　　　　　　　　　　　　　　　　　　　　　　　　　　　　　　　　　　　　　　　　　　　　570000000000000000ヒューズ　　　　00       00101001133         0000000000000000000000000000000000000000000000000000ARCTIC BURST                        0000000000　　　　　　　　　　　　　　　　　　0000000000　　　　　　　　　　　　　　　　　　0000000000000000000000
SEB2007011520020214G00000070061999190017ボウマンズクロッシング　　　　　　　00310303005513オートン252008Ｆ．チャン　　　　　　　　　　　　　　　　　　　　　　　　　　　　　　　　　　　　　　　　　　　　　　　　　　　　　　　　　　　　　　　　　　　　　　　　　　　　　　　　　　　　　　　575000000000000000ホワイト　　　　00       00505000576         0000000000000000000000000000000000000000000000000000DASHING WINNER                      0000000000　　　　　　　　　　　　　　　　　　0000000000　　　　　　　　　　　　　　　　　　+006000000000000000000
SEB2007011520020214G00000090071998190012ケープオブグッドホープ　　　　　　　00110104005513オートン573008Ｊ．カステアズ　　　　　　　　　　　　　　　　　　　　　　　　　　　　　　　　　　　　　　　　　　　　　　　　　　　　　　　　　　　　　　　　　　　　　　　　　　　　　　　　　　　　　515000000000000000チェン　　　　　00       00909001238H        0000000000000000000000000000000000000000000000000000ASIA RISING                         0000000000　　　　　　　　　　　　　　　　　　0000000000　　　　　　　　　　　　　　　　　　+005000000000000000000
SEB2007011520020224G00000060011998190012ケープオブグッドホープ　　　　　　　00110104005513オートン573008Ｊ．カステアズ　　　　　　　　　　　　　　　　　　　　　　　　　　　　　　　　　　　　　　　　　　　　　　　　　　　　　　　　　　　　　　　　　　　　　　　　　　　　　　　　　　　　　585000000000000000ホワイト　　　　00       00101001231         0000000000000000000000000000000000000000000000000000ROMANTIC SYMPHONY                   0000000000　　　　　　　　　　　　　　　　　　0000000000　　　　　　　　　　　　　　　　　　-001000000000000000000
SEB2007011520020309G00000010121999190021ザデューク　　　　　　　　　　　　　00310303000000ファウン788008Ｅ．ヤウ　　　　　　　　　　　　　　　　　　　　　　　　　　　　　　　　　　　　　　　　　　　　　　　　　　　　　　　　　　　　　　　　　　　　　　　　　　　　　　　　　　　　　　　　530000000000000000マーカス　　　　00       00404000581         0000000000000000000000000000000000000000000000000000ANABATIK                            0000000000　　　　　　　　　　　　　　　　　　0000000000　　　　　　　　　　　　　　　　　　+004000000000000000000
SEB2007011520020317G00000040041999190017ボウマンズクロッシング　　　　　　　00310303005513オートン252008Ｆ．チャン　　　　　　　　　　　　　　　　　　　　　　　　　　　　　　　　　　　　　　　　　　　　　　　　　　　　　　　　　　　　　　　　　　　　　　　　　　　　　　　　　　　　　　　585000000000000000ホワイト　　　　00       00101001238         0000000000000000000000000000000000000000000000000000LUCKY LAD                           0000000000　　　　　　　　　　　　　　　　　　0000000000　　　　　　　　　　　　　　　　　　-003000000000000000000
SEB2007011520020317G00000080021998190012ケープオブグッドホープ　　　　　　　00110104005513オートン573008Ｊ．カステアズ　　　　　　　　　　　　　　　　　　　　　　　　　　　　　　　　　　　　　　　　　　　　　　　　　　　　　　　　　　　　　　　　　　　　　　　　　　　　　　　　　　　　　570000000000000000ホワイト　　　　00       014140020744        0000000000000000000000000000000000000000000000000000OLYMPIC EXPRESS                     0000000000　　　　　　　　　　　　　　　　　　0000000000　　　　　　　　　　　　　　　　　　+023000000000000000000
SEB2007011520020330G00000010131999190021ザデューク　　　　　　　　　　　　　00310303000000ファウン788008Ｅ．ヤウ　　　　　　　　　　　　　　　　　　　　　　　　　　　　　　　　　　　　　　　　　　　　　　　　　　　　　　　　　　　　　　　　　　　　　　　　　　　　　　　　　　　　　　　　525000000000000000マーウィ　　　　00       00202001116214      0000000000000000000000000000000000000000000000000000ABLE CHOICE                         0000000000　　　　　　　　　　　　　　　　　　0000000000　　　　　　　　　　　　　　　　　　+003000000000000000000
SEB2007011520020413G00000100091998190012ケープオブグッドホープ　　　　　　　00110104005513オートン573008Ｊ．カステアズ　　　　　　　　　　　　　　　　　　　　　　　　　　　　　　　　　　　　　　　　　　　　　　　　　　　　　　　　　　　　　　　　　　　　　　　　　　　　　　　　　　　　　525000000000000000ホワイト　　　　00       01111001360K        0000000000000000000000000000000000000000000000000000DR MORE                             0000000000　　　　　　　　　　　　　　　　　　0000000000　　　　　　　　　　　　　　　　　　+008000000000000000000
SEB2007011520020421G00000010141999190021ザデューク　　　　　　　　　　　　　00310303000000ファウン788008Ｅ．ヤウ　　　　　　　　　　　　　　　　　　　　　　　　　　　　　　　　　　　　　　　　　　　　　　　　　　　　　　　　　　　　　　　　　　　　　　　　　　　　　　　　　　　　　　　　525000000000000000マーウィ　　　　00       00404001244         0000000000000000000000000000000000000000000000000000SALUZI                              0000000000　　　　　　　　　　　　　　　　　　0000000000　　　　　　　　　　　　　　　　　　+006000000000000000000
SEB2007011520020421G00000080020000000000CHEERS HONG KONG                    00310005000000アラン　000000　　　　　　　　　　　　　　　　　　　　　　　　　　　　　　　　　　　　　　　　　　　　　　　　　　　　　　　　　　　　　　　　　　　　　　　　　　　　　　　　　　　　　　　　　　　　570000000000000000ホワイト　　　　00       00606002030K        0000000000000000000000000000000000000000001997110161エイシンプレストン　　　　　　　　　0000000000　　　　　　　　　　　　　　　　　　0000000000　　　　　　　　　　　　　　　　　　+005000000000000000000
SEB2007011520020421G00000080040000000000GRANDERA                            00110004000000ビン・ス000000　　　　　　　　　　　　　　　　　　　　　　　　　　　　　　　　　　　　　　　　　　　　　　　　　　　　　　　　　　　　　　　　　　　　　　　　　　　　　　　　　　　　　　　　　　　　570000000000000000デットー　　　　00       00505002029114      0000000000000000000000000000000000000000001997110161エイシンプレストン　　　　　　　　　0000000000　　　　　　　　　　　　　　　　　　0000000000　　　　　　　　　　　　　　　　　　+004000000000000000000
SEB2007011520020421G00000080050000000000HELENE VITALITY                     00310006000000ヘイズ　000000　　　　　　　　　　　　　　　　　　　　　　　　　　　　　　　　　　　　　　　　　　　　　　　　　　　　　　　　　　　　　　　　　　　　　　　　　　　　　　　　　　　　　　　　　　　　570000000000000000ダン　　　　　　00       01313002046134      0000000000000000000000000000000000000000001997110161エイシンプレストン　　　　　　　　　0000000000　　　　　　　　　　　　　　　　　　0000000000　　　　　　　　　　　　　　　　　　+021000000000000000000
SEB2007011520020421G00000080060000000000IDOL                                00310006000000オートン000000　　　　　　　　　　　　　　　　　　　　　　　　　　　　　　　　　　　　　　　　　　　　　　　　　　　　　　　　　　　　　　　　　　　　　　　　　　　　　　　　　　　　　　　　　　　　570000000000000000ウィリア　　　　00       01414002048 34      0000000000000000000000000000000000000000001997110161エイシンプレストン　　　　　　　　　0000000000　　　　　　　　　　　　　　　　　　0000000000　　　　　　　　　　　　　　　　　　+023000000000000000000
SEB2007011520020421G00000080071993190012インディジェナス　　　　　　　　　　00310409005156アラン　156007Ｙ．Ｈ．パン　　　　　　　　　　　　　　　　　　　　　　　　　　　　　　　　　　　　　　　　　　　　　　　　　　　　　　　　　　　　　　　　　　　　　　　　　　　　　　　　　　　　　　570000000000000000コーツィ　　　　00       00303002027K        0000000000000000000000000000000000000000001997110161エイシンプレストン　　　　　　　　　0000000000　　　　　　　　　　　　　　　　　　0000000000　　　　　　　　　　　　　　　　　　+002000000000000000000
SEB2007011520020421G00000080090000000000OLYMPIC EXPRESS                     00310004000000アラン　000000　　　　　　　　　　　　　　　　　　　　　　　　　　　　　　　　　　　　　　　　　　　　　　　　　　　　　　　　　　　　　　　　　　　　　　　　　　　　　　　　　　　　　　　　　　　　570000000000000000マーウィ　　　　00       00808002033114      0000000000000000000000000000000000000000001997110161エイシンプレストン　　　　　　　　　0000000000　　　　　　　　　　　　　　　　　　0000000000　　　　　　　　　　　　　　　　　　+008000000000000000000
SEB2007011520020421G00000080100000000000PRECISION                           00110004000000オートン000000　　　　　　　　　　　　　　　　　　　　　　　　　　　　　　　　　　　　　　　　　　　　　　　　　　　　　　　　　　　　　　　　　　　　　　　　　　　　　　　　　　　　　　　　　　　　570000000000000000イム　　　　　　00       00707002031K        0000000000000000000000000000000000000000001997110161エイシンプレストン　　　　　　　　　0000000000　　　　　　　　　　　　　　　　　　0000000000　　　　　　　　　　　　　　　　　　+006000000000000000000
SEB2007011520020421G00000080110000000000RAINBOW AND GOLD                    00310005000000カン　　000000　　　　　　　　　　　　　　　　　　　　　　　　　　　　　　　　　　　　　　　　　　　　　　　　　　　　　　　　　　　　　　　　　　　　　　　　　　　　　　　　　　　　　　　　　　　　570000000000000000モッセ　　　　　00       01212002044 34      0000000000000000000000000000000000000000001997110161エイシンプレストン　　　　　　　　　0000000000　　　　　　　　　　　　　　　　　　0000000000　　　　　　　　　　　　　　　　　　+019000000000000000000
SEB2007011520020421G00000080120000000000REBEL LEADER                        00110005000000レーン　000000　　　　　　　　　　　　　　　　　　　　　　　　　　　　　　　　　　　　　　　　　　　　　　　　　　　　　　　　　　　　　　　　　　　　　　　　　　　　　　　　　　　　　　　　　　　　570000000000000000ルグリ　　　　　00       01111002042214      0000000000000000000000000000000000000000001997110161エイシンプレストン　　　　　　　　　0000000000　　　　　　　　　　　　　　　　　　0000000000　　　　　　　　　　　　　　　　　　+017000000000000000000
SEB2007011520020421G00000080130000000000UNIVERSAL PRINCE                    00110005000000マレー　000000　　　　　　　　　　　　　　　　　　　　　　　　　　　　　　　　　　　　　　　　　　　　　　　　　　　　　　　　　　　　　　　　　　　　　　　　　　　　　　　　　　　　　　　　　　　　570000000000000000シーハン　　　　00       00404002028 12      0000000000000000000000000000000000000000001997110161エイシンプレストン　　　　　　　　　0000000000　　　　　　　　　　　　　　　　　　0000000000　　　　　　　　　　　　　　　　　　+003000000000000000000
SEB2007011520020421G00000080140000000000LETHALS LADY                        00210004000000コレ　　000000　　　　　　　　　　　　　　　　　　　　　　　　　　　　　　　　　　　　　　　　　　　　　　　　　　　　　　　　　　　　　　　　　　　　　　　　　　　　　　　　　　　　　　　　　　　　555000000000000000ボニヤ　　　　　00       00909002033K        0000000000000000000000000000000000000000001997110161エイシンプレストン　　　　　　　　　0000000000　　　　　　　　　　　　　　　　　　0000000000　　　　　　　　　　　　　　　　　　+008000000000000000000
SEB2007011520020421G00000100121999190017ボウマンズクロッシング　　　　　　　00310303005513オートン252008Ｆ．チャン　　　　　　　　　　　　　　　　　　　　　　　　　　　　　　　　　　　　　　　　　　　　　　　　　　　　　　　　　　　　　　　　　　　　　　　　　　　　　　　　　　　　　　　500000000000000000リョン　　　　　00       00303001237         0000000000000000000000000000000000000000000000000000BULL'S EYE                          0000000000　　　　　　　　　　　　　　　　　　0000000000　　　　　　　　　　　　　　　　　　+003000000000000000000
SEB2007011520020519G00000010131999190021ザデューク　　　　　　　　　　　　　00310303000000ファウン788008Ｅ．ヤウ　　　　　　　　　　　　　　　　　　　　　　　　　　　　　　　　　　　　　　　　　　　　　　　　　　　　　　　　　　　　　　　　　　　　　　　　　　　　　　　　　　　　　　　　525000000000000000マーカス　　　　00       00101001117         0000000000000000000000000000000000000000000000000000FORTUNE BUILDER                     0000000000　　　　　　　　　　　　　　　　　　0000000000　　　　　　　　　　　　　　　　　　-011000000000000000000
SEB2007011520020529G00000060011998190012ケープオブグッドホープ　　　　　　　00110104005513オートン573008Ｊ．カステアズ　　　　　　　　　　　　　　　　　　　　　　　　　　　　　　　　　　　　　　　　　　　　　　　　　　　　　　　　　　　　　　　　　　　　　　　　　　　　　　　　　　　　　600000000000000000ホワイト　　　　00       00101000569         0000000000000000000000000000000000000000000000000000GENERAL KINGY                       0000000000　　　　　　　　　　　　　　　　　　0000000000　　　　　　　　　　　　　　　　　　-000000000000000000000
SEB2007011520020529G00000070091999190017ボウマンズクロッシング　　　　　　　00310303005513オートン252008Ｆ．チャン　　　　　　　　　　　　　　　　　　　　　　　　　　　　　　　　　　　　　　　　　　　　　　　　　　　　　　　　　　　　　　　　　　　　　　　　　　　　　　　　　　　　　　　560000000000000000チェン　　　　　00       00303001363         0000000000000000000000000000000000000000000000000000NORTHERN GOLD BALL                  0000000000　　　　　　　　　　　　　　　　　　0000000000　　　　　　　　　　　　　　　　　　+002000000000000000000
SEB2007011520020616G00000050031999190021ザデューク　　　　　　　　　　　　　00310303000000ファウン788008Ｅ．ヤウ　　　　　　　　　　　　　　　　　　　　　　　　　　　　　　　　　　　　　　　　　　　　　　　　　　　　　　　　　　　　　　　　　　　　　　　　　　　　　　　　　　　　　　　　550000000000000000マーカス　　　　00       00101001110         0000000000000000000000000000000000000000000000000000LUCKY TRIO                          0000000000　　　　　　　　　　　　　　　　　　0000000000　　　　　　　　　　　　　　　　　　-003000000000000000000
SEB2007011520020904G00000060091999190021ザデューク　　　　　　　　　　　　　00310303000000ファウン788008Ｅ．ヤウ　　　　　　　　　　　　　　　　　　　　　　　　　　　　　　　　　　　　　　　　　　　　　　　　　　　　　　　　　　　　　　　　　　　　　　　　　　　　　　　　　　　　　　　　560000000000000000マーウィ　　　　00494 99900101001100         0000000000000000000000000000000000000000000000000000FLYING MACHINE                      0000000000　　　　　　　　　　　　　　　　　　0000000000　　　　　　　　　　　　　　　　　　-003000000000000000000
SEB2007011520020922G00000080081998190012ケープオブグッドホープ　　　　　　　00110104005513オートン573008Ｊ．カステアズ　　　　　　　　　　　　　　　　　　　　　　　　　　　　　　　　　　　　　　　　　　　　　　　　　　　　　　　　　　　　　　　　　　　　　　　　　　　　　　　　　　　　　530000000000000000スコフィ　　　　00538 99900101000568         0000000000000000000000000000000000000000000000000000CHAMP DE UNION                      0000000000　　　　　　　　　　　　　　　　　　0000000000　　　　　　　　　　　　　　　　　　-000000000000000000000
SEB2007011520020925G00000080041999190021ザデューク　　　　　　　　　　　　　00310303000000ファウン788008Ｅ．ヤウ　　　　　　　　　　　　　　　　　　　　　　　　　　　　　　　　　　　　　　　　　　　　　　　　　　　　　　　　　　　　　　　　　　　　　　　　　　　　　　　　　　　　　　　　565000000000000000マーウィ　　　　00493-00100303001115         0000000000000000000000000000000000000000000000000000GREEN DIAMOND                       0000000000　　　　　　　　　　　　　　　　　　0000000000　　　　　　　　　　　　　　　　　　+003000000000000000000
SEB2007011520021001G00000110031999190017ボウマンズクロッシング　　　　　　　00310303005513オートン252008Ｆ．チャン　　　　　　　　　　　　　　　　　　　　　　　　　　　　　　　　　　　　　　　　　　　　　　　　　　　　　　　　　　　　　　　　　　　　　　　　　　　　　　　　　　　　　　　585000000000000000スコフィ　　　　00501 99900303001227         0000000000000000000000000000000000000000001998190011セルフフリット　　　　　　　　　　　0000000000　　　　　　　　　　　　　　　　　　0000000000　　　　　　　　　　　　　　　　　　+002000000000000000000
SEB2007011520021012G00000080081999190021ザデューク　　　　　　　　　　　　　00310303000000ファウン788008Ｅ．ヤウ　　　　　　　　　　　　　　　　　　　　　　　　　　　　　　　　　　　　　　　　　　　　　　　　　　　　　　　　　　　　　　　　　　　　　　　　　　　　　　　　　　　　　　　　555000000000000000ホワイト　　　　00497+00400505001230         0000000000000000000000000000000000000000000000000000FERRULE                             0000000000　　　　　　　　　　　　　　　　　　0000000000　　　　　　　　　　　　　　　　　　+003000000000000000000
SEB2007011520021020G00000080011998190012ケープオブグッドホープ　　　　　　　00110104005513オートン573008Ｊ．カステアズ　　　　　　　　　　　　　　　　　　　　　　　　　　　　　　　　　　　　　　　　　　　　　　　　　　　　　　　　　　　　　　　　　　　　　　　　　　　　　　　　　　　　　585000000000000000ホワイト　　　　00542+00400101000562         0000000000000000000000000000000000000000000000000000CROCKER                             0000000000　　　　　　　　　　　　　　　　　　0000000000　　　　　　　　　　　　　　　　　　-001000000000000000000
SEB2007011520021102G00000080101999190021ザデューク　　　　　　　　　　　　　00310303000000ファウン788008Ｅ．ヤウ　　　　　　　　　　　　　　　　　　　　　　　　　　　　　　　　　　　　　　　　　　　　　　　　　　　　　　　　　　　　　　　　　　　　　　　　　　　　　　　　　　　　　　　　525000000000000000マーウィ　　　　00498+00100202001231212      0000000000000000000000000000000000000000000000000000FERRULE                             0000000000　　　　　　　　　　　　　　　　　　0000000000　　　　　　　　　　　　　　　　　　+003000000000000000000
SEB2007011520021116G00000100131999190017ボウマンズクロッシング　　　　　　　00310303005513オートン252008Ｆ．チャン　　　　　　　　　　　　　　　　　　　　　　　　　　　　　　　　　　　　　　　　　　　　　　　　　　　　　　　　　　　　　　　　　　　　　　　　　　　　　　　　　　　　　　　525000000000000000ダン　　　　　　00511+01000303001229         0000000000000000000000000000000000000000000000000000GOLDEN YEARS                        0000000000　　　　　　　　　　　　　　　　　　0000000000　　　　　　　　　　　　　　　　　　+002000000000000000000
SEB2007011520021207G00000090061999190021ザデューク　　　　　　　　　　　　　00310303000000ファウン788008Ｅ．ヤウ　　　　　　　　　　　　　　　　　　　　　　　　　　　　　　　　　　　　　　　　　　　　　　　　　　　　　　　　　　　　　　　　　　　　　　　　　　　　　　　　　　　　　　　　560000000000000000マーウィ　　　　00488-01000606001109         0000000000000000000000000000000000000000000000000000FLYING GENERAL                      0000000000　　　　　　　　　　　　　　　　　　0000000000　　　　　　　　　　　　　　　　　　+005000000000000000000
SEB2007011520021215G00000030010000000000CONTINENT                           00310005000000ニコルス000000　　　　　　　　　　　　　　　　　　　　　　　　　　　　　　　　　　　　　　　　　　　　　　　　　　　　　　　　　　　　　　　　　　　　　　　　　　　　　　　　　　　　　　　　　　　　570000000000000000ホランド　　　　00489    01414000590134      0000000000000000000000000000000000000000000000000000ALL THRILLS TOO                     0000000000　　　　　　　　　　　　　　　　　　0000000000　　　　　　　　　　　　　　　　　　+026000000000000000000
SEB2007011520021215G00000030020000000000THUNDER                             00310004000000クルーズ000000　　　　　　　　　　　　　　　　　　　　　　　　　　　　　　　　　　　　　　　　　　　　　　　　　　　　　　　　　　　　　　　　　　　　　　　　　　　　　　　　　　　　　　　　　　　　570000000000000000コーツィ　　　　00522    00404000569 34      0000000000000000000000000000000000000000000000000000ALL THRILLS TOO                     0000000000　　　　　　　　　　　　　　　　　　0000000000　　　　　　　　　　　　　　　　　　+005000000000000000000
