SEB2002122020000325C70000020010000000000CONFLICT                            00000000000000　　　　000000　　　　　　　　　　　　　　　　　　　　　　　　　　　　　　　　　　　　　　　　　　　　　　　　　　　　　　　　　　　　　　　　　　　　　　　　　　　　　　　　　　　　　　　　　　　　000000000000000000　　　　　　　　00       00001001364         0000000000000000000000000000000000000000000000000000IFTITAH                             0000000000　　　　　　　　　　　　　　　　　　0000000000　　　　　　　　　　　　　　　　　　0000000000000000000000
SEB2002122020000325C70000020020000000000IFTITAH                             00000000000000　　　　000000　　　　　　　　　　　　　　　　　　　　　　　　　　　　　　　　　　　　　　　　　　　　　　　　　　　　　　　　　　　　　　　　　　　　　　　　　　　　　　　　　　　　　　　　　　　　000000000000000000　　　　　　　　00       00002000000         0000000000000000000000000000000000000000000000000000CONFLICT                            0000000000　　　　　　　　　　　　　　　　　　0000000000　　　　　　　　　　　　　　　　　　0000000000000000000000
SEB2002122020000325C70000020030000000000MUHTATHIR                           00000000000000　　　　000000　　　　　　　　　　　　　　　　　　　　　　　　　　　　　　　　　　　　　　　　　　　　　　　　　　　　　　　　　　　　　　　　　　　　　　　　　　　　　　　　　　　　　　　　　　　　000000000000000000　　　　　　　　00       00003000000         0000000000000000000000000000000000000000000000000000CONFLICT                            0000000000　　　　　　　　　　　　　　　　　　0000000000　　　　　　　　　　　　　　　　　　0000000000000000000000
SEB2002122020000325C70000020040000000000RAZIK                               00000000000000　　　　000000　　　　　　　　　　　　　　　　　　　　　　　　　　　　　　　　　　　　　　　　　　　　　　　　　　　　　　　　　　　　　　　　　　　　　　　　　　　　　　　　　　　　　　　　　　　　000000000000000000　　　　　　　　00       00004000000         0000000000000000000000000000000000000000000000000000CONFLICT                            0000000000　　　　　　　　　　　　　　　　　　0000000000　　　　　　　　　　　　　　　　　　0000000000000000000000
SEB2002122020000325C70000020050000000000FIRE THUNDER                        00000000000000　　　　000000　　　　　　　　　　　　　　　　　　　　　　　　　　　　　　　　　　　　　　　　　　　　　　　　　　　　　　　　　　　　　　　　　　　　　　　　　　　　　　　　　　　　　　　　　　　　000000000000000000　　　　　　　　00       00005000000         0000000000000000000000000000000000000000000000000000CONFLICT                            0000000000　　　　　　　　　　　　　　　　　　0000000000　　　　　　　　　　　　　　　　　　0000000000000000000000
SEB2002122020000325C70000020061993107657タガノサイレンス　　　　　　　　　　04110308200382橋本寿正859002八木　良司　　　　　　　　　　　　　　　　　　　　　　　　　　　緑，桃襷，袖黄一本輪　　　　　　　　　　　　　　　　　　　　　　　　　　　　　　　　　　　　　　　　　　　　　　　　　　550000000065700000松永幹夫　　　　00       00606000000 34      0000000000000000000000000000000000000000000000000000CONFLICT                            0000000000　　　　　　　　　　　　　　　　　　0000000000　　　　　　　　　　　　　　　　　　0000000000000000000000
SEB2002122020000325C70000020070000000000OUZO                                00000000000000　　　　000000　　　　　　　　　　　　　　　　　　　　　　　　　　　　　　　　　　　　　　　　　　　　　　　　　　　　　　　　　　　　　　　　　　　　　　　　　　　　　　　　　　　　　　　　　　　　000000000000000000　　　　　　　　00       00007000000         0000000000000000000000000000000000000000000000000000CONFLICT                            0000000000　　　　　　　　　　　　　　　　　　0000000000　　　　　　　　　　　　　　　　　　0000000000000000000000
SEB2002122020000325C70000020080000000000SIEGE                               00000000000000　　　　000000　　　　　　　　　　　　　　　　　　　　　　　　　　　　　　　　　　　　　　　　　　　　　　　　　　　　　　　　　　　　　　　　　　　　　　　　　　　　　　　　　　　　　　　　　　　　000000000000000000　　　　　　　　00       00008000000         0000000000000000000000000000000000000000000000000000CONFLICT                            0000000000　　　　　　　　　　　　　　　　　　0000000000　　　　　　　　　　　　　　　　　　0000000000000000000000
SEB2002122020000325C70000020090000000000BLUE SNAKE                          00000000000000　　　　000000　　　　　　　　　　　　　　　　　　　　　　　　　　　　　　　　　　　　　　　　　　　　　　　　　　　　　　　　　　　　　　　　　　　　　　　　　　　　　　　　　　　　　　　　　　　　000000000000000000　　　　　　　　00       00009000000         0000000000000000000000000000000000000000000000000000CONFLICT                            0000000000　　　　　　　　　　　　　　　　　　0000000000　　　　　　　　　　　　　　　　　　0000000000000000000000
SEB2002122020000325C70000020100000000000LATE NIGHT OUT                      00000000000000　　　　000000　　　　　　　　　　　　　　　　　　　　　　　　　　　　　　　　　　　　　　　　　　　　　　　　　　　　　　　　　　　　　　　　　　　　　　　　　　　　　　　　　　　　　　　　　　　　000000000000000000　　　　　　　　00       00010000000         0000000000000000000000000000000000000000000000000000CONFLICT                            0000000000　　　　　　　　　　　　　　　　　　0000000000　　　　　　　　　　　　　　　　　　0000000000000000000000
SEB2002122020000325C70000020110000000000SLIP STREAM                         00000000000000　　　　000000　　　　　　　　　　　　　　　　　　　　　　　　　　　　　　　　　　　　　　　　　　　　　　　　　　　　　　　　　　　　　　　　　　　　　　　　　　　　　　　　　　　　　　　　　　　　000000000000000000　　　　　　　　00       00011000000         0000000000000000000000000000000000000000000000000000CONFLICT                            0000000000　　　　　　　　　　　　　　　　　　0000000000　　　　　　　　　　　　　　　　　　0000000000000000000000
SEB2002122020000325C70000020120000000000THUNDER SKY                         00000000000000　　　　000000　　　　　　　　　　　　　　　　　　　　　　　　　　　　　　　　　　　　　　　　　　　　　　　　　　　　　　　　　　　　　　　　　　　　　　　　　　　　　　　　　　　　　　　　　　　　000000000000000000　　　　　　　　00       00012000000         0000000000000000000000000000000000000000000000000000CONFLICT                            0000000000　　　　　　　　　　　　　　　　　　0000000000　　　　　　　　　　　　　　　　　　0000000000000000000000
SEB2002122020000325C70000020130000000000CORNISH SNOW                        00000000000000　　　　000000　　　　　　　　　　　　　　　　　　　　　　　　　　　　　　　　　　　　　　　　　　　　　　　　　　　　　　　　　　　　　　　　　　　　　　　　　　　　　　　　　　　　　　　　　　　　000000000000000000　　　　　　　　00       00013000000         0000000000000000000000000000000000000000000000000000CONFLICT                            0000000000　　　　　　　　　　　　　　　　　　0000000000　　　　　　　　　　　　　　　　　　0000000000000000000000
SEB2002122020000325C70000050010000000000ABLE MASTER                         00000000000000　　　　000000　　　　　　　　　　　　　　　　　　　　　　　　　　　　　　　　　　　　　　　　　　　　　　　　　　　　　　　　　　　　　　　　　　　　　　　　　　　　　　　　　　　　　　　　　　　　000000000000000000　　　　　　　　00       00010000000 34      0000000000000000000000000000000000000000000000000000FANTASTIC LIGHT                     0000000000　　　　　　　　　　　　　　　　　　0000000000　　　　　　　　　　　　　　　　　　0000000000000000000000
SEB2002122020000325C70000050020000000000CAITANO                             00000000000000　　　　000000　　　　　　　　　　　　　　　　　　　　　　　　　　　　　　　　　　　　　　　　　　　　　　　　　　　　　　　　　　　　　　　　　　　　　　　　　　　　　　　　　　　　　　　　　　　　000000000000000000　　　　　　　　00       000020000003        0000000000000000000000000000000000000000000000000000FANTASTIC LIGHT                     0000000000　　　　　　　　　　　　　　　　　　0000000000　　　　　　　　　　　　　　　　　　0000000000000000000000
SEB2002122020000325C70000050031993108431ゴーイングスズカ　　　　　　　　　　03110308200362橋田満　382004永井　啓弐　　　　　　　　　　　　　　　　　　　　　　　　　　　緑，黄袖緑一本輪　　　　　　　　　　　　　　　　　　　　　　　　　　　　　　　　　　　　　　　　　　　　　　　　　　　　560000000067400000芹沢純一　　　　00       00505000000312      0000000000000000000000000000000000000000000000000000FANTASTIC LIGHT                     0000000000　　　　　　　　　　　　　　　　　　0000000000　　　　　　　　　　　　　　　　　　0000000000000000000000
SEB2002122020000325C70000050040000000000HIGH-RISE                           00000000000000　　　　000000　　　　　　　　　　　　　　　　　　　　　　　　　　　　　　　　　　　　　　　　　　　　　　　　　　　　　　　　　　　　　　　　　　　　　　　　　　　　　　　　　　　　　　　　　　　　000000000000000000　　　　　　　　00       000030000002        0000000000000000000000000000000000000000000000000000FANTASTIC LIGHT                     0000000000　　　　　　　　　　　　　　　　　　0000000000　　　　　　　　　　　　　　　　　　0000000000000000000000
SEB2002122020000325C70000050050000000000NOEL                                00000000000000　　　　000000　　　　　　　　　　　　　　　　　　　　　　　　　　　　　　　　　　　　　　　　　　　　　　　　　　　　　　　　　　　　　　　　　　　　　　　　　　　　　　　　　　　　　　　　　　　　000000000000000000　　　　　　　　00       000110000002        0000000000000000000000000000000000000000000000000000FANTASTIC LIGHT                     0000000000　　　　　　　　　　　　　　　　　　0000000000　　　　　　　　　　　　　　　　　　0000000000000000000000
SEB2002122020000325C70000050060000000000PEGNITZ                             00000000000000　　　　000000　　　　　　　　　　　　　　　　　　　　　　　　　　　　　　　　　　　　　　　　　　　　　　　　　　　　　　　　　　　　　　　　　　　　　　　　　　　　　　　　　　　　　　　　　　　　000000000000000000　　　　　　　　00       00012000000212      0000000000000000000000000000000000000000000000000000FANTASTIC LIGHT                     0000000000　　　　　　　　　　　　　　　　　　0000000000　　　　　　　　　　　　　　　　　　0000000000000000000000
SEB2002122020000325C70000050070000000000POZARICA                            00000000000000　　　　000000　　　　　　　　　　　　　　　　　　　　　　　　　　　　　　　　　　　　　　　　　　　　　　　　　　　　　　　　　　　　　　　　　　　　　　　　　　　　　　　　　　　　　　　　　　　　000000000000000000　　　　　　　　00       000060000002        0000000000000000000000000000000000000000000000000000FANTASTIC LIGHT                     0000000000　　　　　　　　　　　　　　　　　　0000000000　　　　　　　　　　　　　　　　　　0000000000000000000000
SEB2002122020000325C70000050080000000000SAGAMIX                             00000000000000　　　　000000　　　　　　　　　　　　　　　　　　　　　　　　　　　　　　　　　　　　　　　　　　　　　　　　　　　　　　　　　　　　　　　　　　　　　　　　　　　　　　　　　　　　　　　　　　　　000000000000000000　　　　　　　　00       00009000000H        0000000000000000000000000000000000000000000000000000FANTASTIC LIGHT                     0000000000　　　　　　　　　　　　　　　　　　0000000000　　　　　　　　　　　　　　　　　　0000000000000000000000
SEB2002122020000325C70000050090000000000SEASQUILL                           00000000000000　　　　000000　　　　　　　　　　　　　　　　　　　　　　　　　　　　　　　　　　　　　　　　　　　　　　　　　　　　　　　　　　　　　　　　　　　　　　　　　　　　　　　　　　　　　　　　　　　　000000000000000000　　　　　　　　00       00014000000A        0000000000000000000000000000000000000000000000000000FANTASTIC LIGHT                     0000000000　　　　　　　　　　　　　　　　　　0000000000　　　　　　　　　　　　　　　　　　0000000000000000000000
SEB2002122020000325C70000050100000000000THESAURUS                           00000000000000　　　　000000　　　　　　　　　　　　　　　　　　　　　　　　　　　　　　　　　　　　　　　　　　　　　　　　　　　　　　　　　　　　　　　　　　　　　　　　　　　　　　　　　　　　　　　　　　　　000000000000000000　　　　　　　　00       000130000003        0000000000000000000000000000000000000000000000000000FANTASTIC LIGHT                     0000000000　　　　　　　　　　　　　　　　　　0000000000　　　　　　　　　　　　　　　　　　0000000000000000000000
SEB2002122020000325C70000050110000000000YAVANA'S PACE                       00000000000000　　　　000000　　　　　　　　　　　　　　　　　　　　　　　　　　　　　　　　　　　　　　　　　　　　　　　　　　　　　　　　　　　　　　　　　　　　　　　　　　　　　　　　　　　　　　　　　　　　000000000000000000　　　　　　　　00       00015000000112      0000000000000000000000000000000000000000000000000000FANTASTIC LIGHT                     0000000000　　　　　　　　　　　　　　　　　　0000000000　　　　　　　　　　　　　　　　　　0000000000000000000000
SEB2002122020000325C70000050120000000000AMILYNX                             00000000000000　　　　000000　　　　　　　　　　　　　　　　　　　　　　　　　　　　　　　　　　　　　　　　　　　　　　　　　　　　　　　　　　　　　　　　　　　　　　　　　　　　　　　　　　　　　　　　　　　　000000000000000000　　　　　　　　00       00007000000114      0000000000000000000000000000000000000000000000000000FANTASTIC LIGHT                     0000000000　　　　　　　　　　　　　　　　　　0000000000　　　　　　　　　　　　　　　　　　0000000000000000000000
SEB2002122020000325C70000050130000000000BREATHTAKING VIEW                   00000000000000　　　　000000　　　　　　　　　　　　　　　　　　　　　　　　　　　　　　　　　　　　　　　　　　　　　　　　　　　　　　　　　　　　　　　　　　　　　　　　　　　　　　　　　　　　　　　　　　　　000000000000000000　　　　　　　　00       000080000003        0000000000000000000000000000000000000000000000000000FANTASTIC LIGHT                     0000000000　　　　　　　　　　　　　　　　　　0000000000　　　　　　　　　　　　　　　　　　0000000000000000000000
SEB2002122020000325C70000050140000000000FANTASTIC LIGHT                     00000000000000　　　　000000　　　　　　　　　　　　　　　　　　　　　　　　　　　　　　　　　　　　　　　　　　　　　　　　　　　　　　　　　　　　　　　　　　　　　　　　　　　　　　　　　　　　　　　　　　　　000000000000000000　　　　　　　　00       00001002277         0000000000000000000000000000000000000000000000000000CAITANO                             0000000000　　　　　　　　　　　　　　　　　　0000000000　　　　　　　　　　　　　　　　　　0000000000000000000000
SEB2002122020000325C70000050150000000000RHAGAAS                             00000000000000　　　　000000　　　　　　　　　　　　　　　　　　　　　　　　　　　　　　　　　　　　　　　　　　　　　　　　　　　　　　　　　　　　　　　　　　　　　　　　　　　　　　　　　　　　　　　　　　　　000000000000000000　　　　　　　　00       000040000002        0000000000000000000000000000000000000000000000000000FANTASTIC LIGHT                     0000000000　　　　　　　　　　　　　　　　　　0000000000　　　　　　　　　　　　　　　　　　0000000000000000000000
SEB2002122020000325C70000050160000000000POTRIZARIS                          00000000000000　　　　000000　　　　　　　　　　　　　　　　　　　　　　　　　　　　　　　　　　　　　　　　　　　　　　　　　　　　　　　　　　　　　　　　　　　　　　　　　　　　　　　　　　　　　　　　　　　　000000000000000000　　　　　　　　00       000160000008        0000000000000000000000000000000000000000000000000000FANTASTIC LIGHT                     0000000000　　　　　　　　　　　　　　　　　　0000000000　　　　　　　　　　　　　　　　　　0000000000000000000000
SEB2002122020000325C70000070010000000000DUBAI MILLENNIUM                    00000000000000　　　　000000　　　　　　　　　　　　　　　　　　　　　　　　　　　　　　　　　　　　　　　　　　　　　　　　　　　　　　　　　　　　　　　　　　　　　　　　　　　　　　　　　　　　　　　　　　　　000000000000000000　　　　　　　　00       00001001595         0000000000000000000000000000000000000000000000000000BEHRENS                             0000000000　　　　　　　　　　　　　　　　　　0000000000　　　　　　　　　　　　　　　　　　0000000000000000000000
SEB2002122020000325C70000070020000000000BEHRENS                             00000000000000　　　　000000　　　　　　　　　　　　　　　　　　　　　　　　　　　　　　　　　　　　　　　　　　　　　　　　　　　　　　　　　　　　　　　　　　　　　　　　　　　　　　　　　　　　　　　　　　　　000000000000000000　　　　　　　　00       000020000006        0000000000000000000000000000000000000000000000000000DUBAI MILLENNIUM                    0000000000　　　　　　　　　　　　　　　　　　0000000000　　　　　　　　　　　　　　　　　　0000000000000000000000
SEB2002122020000325C70000070030000000000PUBLIC PURSE                        00000000000000　　　　000000　　　　　　　　　　　　　　　　　　　　　　　　　　　　　　　　　　　　　　　　　　　　　　　　　　　　　　　　　　　　　　　　　　　　　　　　　　　　　　　　　　　　　　　　　　　　000000000000000000　　　　　　　　00       000030000005        0000000000000000000000000000000000000000000000000000DUBAI MILLENNIUM                    0000000000　　　　　　　　　　　　　　　　　　0000000000　　　　　　　　　　　　　　　　　　0000000000000000000000
SEB2002122020000325C70000070040000000000PUERTO MADERO                       00000000000000　　　　000000　　　　　　　　　　　　　　　　　　　　　　　　　　　　　　　　　　　　　　　　　　　　　　　　　　　　　　　　　　　　　　　　　　　　　　　　　　　　　　　　　　　　　　　　　　　　000000000000000000　　　　　　　　00       00004000000A        0000000000000000000000000000000000000000000000000000DUBAI MILLENNIUM                    0000000000　　　　　　　　　　　　　　　　　　0000000000　　　　　　　　　　　　　　　　　　0000000000000000000000
SEB2002122020000325C70000070050000000000ECTON PARK                          00000000000000　　　　000000　　　　　　　　　　　　　　　　　　　　　　　　　　　　　　　　　　　　　　　　　　　　　　　　　　　　　　　　　　　　　　　　　　　　　　　　　　　　　　　　　　　　　　　　　　　　000000000000000000　　　　　　　　00       000050000003        0000000000000000000000000000000000000000000000000000DUBAI MILLENNIUM                    0000000000　　　　　　　　　　　　　　　　　　0000000000　　　　　　　　　　　　　　　　　　0000000000000000000000
SEB2002122020000325C70000070061995101273ワールドクリーク　　　　　　　　　　00110706200354新井仁　478800インターナシヨナルホース　　　　　　　　　　　　　　　　　　　　桃，袖赤三本輪　　　　　　　　　　　　　　　　　　　　　　　　　　　　　　　　　　　　　　　　　　　　　　　　　　　　　570000000039200000加藤和宏　　　　00       00606000000114      0000000000000000000000000000000000000000000000000000DUBAI MILLENNIUM                    0000000000　　　　　　　　　　　　　　　　　　0000000000　　　　　　　　　　　　　　　　　　0000000000000000000000
SEB2002122020000325C70000070070000000000RUNNING STAG                        00000000000000　　　　000000　　　　　　　　　　　　　　　　　　　　　　　　　　　　　　　　　　　　　　　　　　　　　　　　　　　　　　　　　　　　　　　　　　　　　　　　　　　　　　　　　　　　　　　　　　　　000000000000000000　　　　　　　　00       000070000002        0000000000000000000000000000000000000000000000000000DUBAI MILLENNIUM                    0000000000　　　　　　　　　　　　　　　　　　0000000000　　　　　　　　　　　　　　　　　　0000000000000000000000
SEB2002122020000325C70000070080000000000INDIGENOUS                          00000000000000　　　　000000　　　　　　　　　　　　　　　　　　　　　　　　　　　　　　　　　　　　　　　　　　　　　　　　　　　　　　　　　　　　　　　　　　　　　　　　　　　　　　　　　　　　　　　　　　　　000000000000000000　　　　　　　　00       00008000000 12      0000000000000000000000000000000000000000000000000000DUBAI MILLENNIUM                    0000000000　　　　　　　　　　　　　　　　　　0000000000　　　　　　　　　　　　　　　　　　0000000000000000000000
SEB2002122020000325C70000070090000000000LEAR SPEAR                          00000000000000　　　　000000　　　　　　　　　　　　　　　　　　　　　　　　　　　　　　　　　　　　　　　　　　　　　　　　　　　　　　　　　　　　　　　　　　　　　　　　　　　　　　　　　　　　　　　　　　　　000000000000000000　　　　　　　　00       00009000000 34      0000000000000000000000000000000000000000000000000000DUBAI MILLENNIUM                    0000000000　　　　　　　　　　　　　　　　　　0000000000　　　　　　　　　　　　　　　　　　0000000000000000000000
SEB2002122020000325C70000070100000000000SAINT'S HONOR                       00000000000000　　　　000000　　　　　　　　　　　　　　　　　　　　　　　　　　　　　　　　　　　　　　　　　　　　　　　　　　　　　　　　　　　　　　　　　　　　　　　　　　　　　　　　　　　　　　　　　　　　000000000000000000　　　　　　　　00       00010000000212      0000000000000000000000000000000000000000000000000000DUBAI MILLENNIUM                    0000000000　　　　　　　　　　　　　　　　　　0000000000　　　　　　　　　　　　　　　　　　0000000000000000000000
SEB2002122020000325C70000070110000000000STRUDEL FITZ                        00000000000000　　　　000000　　　　　　　　　　　　　　　　　　　　　　　　　　　　　　　　　　　　　　　　　　　　　　　　　　　　　　　　　　　　　　　　　　　　　　　　　　　　　　　　　　　　　　　　　　　　000000000000000000　　　　　　　　00       000110000003        0000000000000000000000000000000000000000000000000000DUBAI MILLENNIUM                    0000000000　　　　　　　　　　　　　　　　　　0000000000　　　　　　　　　　　　　　　　　　0000000000000000000000
SEB2002122020000325C70000070120000000000GRACIOSO                            00000000000000　　　　000000　　　　　　　　　　　　　　　　　　　　　　　　　　　　　　　　　　　　　　　　　　　　　　　　　　　　　　　　　　　　　　　　　　　　　　　　　　　　　　　　　　　　　　　　　　　　000000000000000000　　　　　　　　00       000120000005        0000000000000000000000000000000000000000000000000000DUBAI MILLENNIUM                    0000000000　　　　　　　　　　　　　　　　　　0000000000　　　　　　　　　　　　　　　　　　0000000000000000000000
SEB2002122020000325C70000070130000000000WORLDLY MANNER                      00000000000000　　　　000000　　　　　　　　　　　　　　　　　　　　　　　　　　　　　　　　　　　　　　　　　　　　　　　　　　　　　　　　　　　　　　　　　　　　　　　　　　　　　　　　　　　　　　　　　　　　000000000000000000　　　　　　　　00       00013000000 34      0000000000000000000000000000000000000000000000000000DUBAI MILLENNIUM                    0000000000　　　　　　　　　　　　　　　　　　0000000000　　　　　　　　　　　　　　　　　　0000000000000000000000
SEB2002122020000620A60000020010000000000NUCLEAR DEBATE                      00000000000000　　　　000000　　　　　　　　　　　　　　　　　　　　　　　　　　　　　　　　　　　　　　　　　　　　　　　　　　　　　　　　　　　　　　　　　　　　　　　　　　　　　　　　　　　　　　　　　　　　000000000000000000　　　　　　　　00       00001001011         0000000000000000000000000000000000000000001995108665アグネスワールド　　　　　　　　　　0000000000　　　　　　　　　　　　　　　　　　0000000000　　　　　　　　　　　　　　　　　　0000000000000000000000
SEB2002122020000620A60000020021995108665アグネスワールド　　　　　　　　　　06110406200427森秀行　021005渡辺　孝男　　　　　　　　　　　　　　　　　　　　　　　　　　　黄，赤袖，水色二本輪　　　　　　　　　　　　　　　　　　　　　　　　　　　　　　　　　　　　　　　　　　　　　　　　　　595000000066600000武豊　　　　　　00       00202000000112      0000000000000000000000000000000000000000000000000000NUCLEAR DEBATE                      0000000000　　　　　　　　　　　　　　　　　　0000000000　　　　　　　　　　　　　　　　　　0000000000000000000000
SEB2002122020000620A60000020030000000000BERTOLINI                           00000000000000　　　　000000　　　　　　　　　　　　　　　　　　　　　　　　　　　　　　　　　　　　　　　　　　　　　　　　　　　　　　　　　　　　　　　　　　　　　　　　　　　　　　　　　　　　　　　　　　　　000000000000000000　　　　　　　　00       00003000000 34      0000000000000000000000000000000000000000000000000000NUCLEAR DEBATE                      0000000000　　　　　　　　　　　　　　　　　　0000000000　　　　　　　　　　　　　　　　　　0000000000000000000000
SEB2002122020000620A60000020040000000000IMPERIAL BEAUTY                     00000000000000　　　　000000　　　　　　　　　　　　　　　　　　　　　　　　　　　　　　　　　　　　　　　　　　　　　　　　　　　　　　　　　　　　　　　　　　　　　　　　　　　　　　　　　　　　　　　　　　　　000000000000000000　　　　　　　　00       00004000000A        0000000000000000000000000000000000000000000000000000NUCLEAR DEBATE                      0000000000　　　　　　　　　　　　　　　　　　0000000000　　　　　　　　　　　　　　　　　　0000000000000000000000
SEB2002122020000620A60000020050000000000EASTERN PURPLE                      00000000000000　　　　000000　　　　　　　　　　　　　　　　　　　　　　　　　　　　　　　　　　　　　　　　　　　　　　　　　　　　　　　　　　　　　　　　　　　　　　　　　　　　　　　　　　　　　　　　　　　　000000000000000000　　　　　　　　00       00005000000A        0000000000000000000000000000000000000000000000000000NUCLEAR DEBATE                      0000000000　　　　　　　　　　　　　　　　　　0000000000　　　　　　　　　　　　　　　　　　0000000000000000000000
SEB2002122020000620A60000020060000000000CASSANDRA GO                        00000000000000　　　　000000　　　　　　　　　　　　　　　　　　　　　　　　　　　　　　　　　　　　　　　　　　　　　　　　　　　　　　　　　　　　　　　　　　　　　　　　　　　　　　　　　　　　　　　　　　　　000000000000000000　　　　　　　　00       00006000000A        0000000000000000000000000000000000000000000000000000NUCLEAR DEBATE                      0000000000　　　　　　　　　　　　　　　　　　0000000000　　　　　　　　　　　　　　　　　　0000000000000000000000
SEB2002122020000620A60000020070000000000WARRIOR QUEEN                       00000000000000　　　　000000　　　　　　　　　　　　　　　　　　　　　　　　　　　　　　　　　　　　　　　　　　　　　　　　　　　　　　　　　　　　　　　　　　　　　　　　　　　　　　　　　　　　　　　　　　　　000000000000000000　　　　　　　　00       000070000001        0000000000000000000000000000000000000000000000000000NUCLEAR DEBATE                      0000000000　　　　　　　　　　　　　　　　　　0000000000　　　　　　　　　　　　　　　　　　0000000000000000000000
SEB2002122020000620A60000020080000000000LORD KINTYRE                        00000000000000　　　　000000　　　　　　　　　　　　　　　　　　　　　　　　　　　　　　　　　　　　　　　　　　　　　　　　　　　　　　　　　　　　　　　　　　　　　　　　　　　　　　　　　　　　　　　　　　　　000000000000000000　　　　　　　　00       00008000000H        0000000000000000000000000000000000000000000000000000NUCLEAR DEBATE                      0000000000　　　　　　　　　　　　　　　　　　0000000000　　　　　　　　　　　　　　　　　　0000000000000000000000
SEB2002122020000620A60000020090000000000RAMBLING BEAR                       00000000000000　　　　000000　　　　　　　　　　　　　　　　　　　　　　　　　　　　　　　　　　　　　　　　　　　　　　　　　　　　　　　　　　　　　　　　　　　　　　　　　　　　　　　　　　　　　　　　　　　　000000000000000000　　　　　　　　00       00009000000 34      0000000000000000000000000000000000000000000000000000NUCLEAR DEBATE                      0000000000　　　　　　　　　　　　　　　　　　0000000000　　　　　　　　　　　　　　　　　　0000000000000000000000
SEB2002122020000620A60000020100000000000BOLSHOI                             00000000000000　　　　000000　　　　　　　　　　　　　　　　　　　　　　　　　　　　　　　　　　　　　　　　　　　　　　　　　　　　　　　　　　　　　　　　　　　　　　　　　　　　　　　　　　　　　　　　　　　　000000000000000000　　　　　　　　00       00010000000 34      0000000000000000000000000000000000000000000000000000NUCLEAR DEBATE                      0000000000　　　　　　　　　　　　　　　　　　0000000000　　　　　　　　　　　　　　　　　　0000000000000000000000
SEB2002122020000620A60000020110000000000WATCHING                            00000000000000　　　　000000　　　　　　　　　　　　　　　　　　　　　　　　　　　　　　　　　　　　　　　　　　　　　　　　　　　　　　　　　　　　　　　　　　　　　　　　　　　　　　　　　　　　　　　　　　　　000000000000000000　　　　　　　　00       00011000000H        0000000000000000000000000000000000000000000000000000NUCLEAR DEBATE                      0000000000　　　　　　　　　　　　　　　　　　0000000000　　　　　　　　　　　　　　　　　　0000000000000000000000
SEB2002122020000620A60000020120000000000FLANDERS                            00000000000000　　　　000000　　　　　　　　　　　　　　　　　　　　　　　　　　　　　　　　　　　　　　　　　　　　　　　　　　　　　　　　　　　　　　　　　　　　　　　　　　　　　　　　　　　　　　　　　　　　000000000000000000　　　　　　　　00       00012000000A        0000000000000000000000000000000000000000000000000000NUCLEAR DEBATE                      0000000000　　　　　　　　　　　　　　　　　　0000000000　　　　　　　　　　　　　　　　　　0000000000000000000000
SEB2002122020000620A60000020130000000000THE TATLING                         00000000000000　　　　000000　　　　　　　　　　　　　　　　　　　　　　　　　　　　　　　　　　　　　　　　　　　　　　　　　　　　　　　　　　　　　　　　　　　　　　　　　　　　　　　　　　　　　　　　　　　　000000000000000000　　　　　　　　00       00013000000 34      0000000000000000000000000000000000000000000000000000NUCLEAR DEBATE                      0000000000　　　　　　　　　　　　　　　　　　0000000000　　　　　　　　　　　　　　　　　　0000000000000000000000
SEB2002122020000620A60000020140000000000TABHEEJ                             00000000000000　　　　000000　　　　　　　　　　　　　　　　　　　　　　　　　　　　　　　　　　　　　　　　　　　　　　　　　　　　　　　　　　　　　　　　　　　　　　　　　　　　　　　　　　　　　　　　　　　　000000000000000000　　　　　　　　00       00014000000 12      0000000000000000000000000000000000000000000000000000NUCLEAR DEBATE                      0000000000　　　　　　　　　　　　　　　　　　0000000000　　　　　　　　　　　　　　　　　　0000000000000000000000
SEB2002122020000620A60000020150000000000SERAPHINA                           00000000000000　　　　000000　　　　　　　　　　　　　　　　　　　　　　　　　　　　　　　　　　　　　　　　　　　　　　　　　　　　　　　　　　　　　　　　　　　　　　　　　　　　　　　　　　　　　　　　　　　　000000000000000000　　　　　　　　00       00015000000K        0000000000000000000000000000000000000000000000000000NUCLEAR DEBATE                      0000000000　　　　　　　　　　　　　　　　　　0000000000　　　　　　　　　　　　　　　　　　0000000000000000000000
SEB2002122020000620A60000020160000000000TRINCULO                            00000000000000　　　　000000　　　　　　　　　　　　　　　　　　　　　　　　　　　　　　　　　　　　　　　　　　　　　　　　　　　　　　　　　　　　　　　　　　　　　　　　　　　　　　　　　　　　　　　　　　　　000000000000000000　　　　　　　　00       00016000000H        0000000000000000000000000000000000000000000000000000NUCLEAR DEBATE                      0000000000　　　　　　　　　　　　　　　　　　0000000000　　　　　　　　　　　　　　　　　　0000000000000000000000
SEB2002122020000620A60000020170000000000SELTITUDE                           00000000000000　　　　000000　　　　　　　　　　　　　　　　　　　　　　　　　　　　　　　　　　　　　　　　　　　　　　　　　　　　　　　　　　　　　　　　　　　　　　　　　　　　　　　　　　　　　　　　　　　　000000000000000000　　　　　　　　00       00017000000 34      0000000000000000000000000000000000000000000000000000NUCLEAR DEBATE                      0000000000　　　　　　　　　　　　　　　　　　0000000000　　　　　　　　　　　　　　　　　　0000000000000000000000
SEB2002122020000620A60000020180000000000ROSSELLI                            00000000000000　　　　000000　　　　　　　　　　　　　　　　　　　　　　　　　　　　　　　　　　　　　　　　　　　　　　　　　　　　　　　　　　　　　　　　　　　　　　　　　　　　　　　　　　　　　　　　　　　　000000000000000000　　　　　　　　00       00018000000H        0000000000000000000000000000000000000000000000000000NUCLEAR DEBATE                      0000000000　　　　　　　　　　　　　　　　　　0000000000　　　　　　　　　　　　　　　　　　0000000000000000000000
SEB2002122020000620A60000020190000000000PERRYSTON VIEW                      00000000000000　　　　000000　　　　　　　　　　　　　　　　　　　　　　　　　　　　　　　　　　　　　　　　　　　　　　　　　　　　　　　　　　　　　　　　　　　　　　　　　　　　　　　　　　　　　　　　　　　　000000000000000000　　　　　　　　00       00019000000K        0000000000000000000000000000000000000000000000000000NUCLEAR DEBATE                      0000000000　　　　　　　　　　　　　　　　　　0000000000　　　　　　　　　　　　　　　　　　0000000000000000000000
SEB2002122020000620A60000020200000000000RUDI'S PET                          00000000000000　　　　000000　　　　　　　　　　　　　　　　　　　　　　　　　　　　　　　　　　　　　　　　　　　　　　　　　　　　　　　　　　　　　　　　　　　　　　　　　　　　　　　　　　　　　　　　　　　　000000000000000000　　　　　　　　00       00020000000112      0000000000000000000000000000000000000000000000000000NUCLEAR DEBATE                      0000000000　　　　　　　　　　　　　　　　　　0000000000　　　　　　　　　　　　　　　　　　0000000000000000000000
SEB2002122020000620A60000020210000000000PROUD NATIVE                        00000000000000　　　　000000　　　　　　　　　　　　　　　　　　　　　　　　　　　　　　　　　　　　　　　　　　　　　　　　　　　　　　　　　　　　　　　　　　　　　　　　　　　　　　　　　　　　　　　　　　　　000000000000000000　　　　　　　　00       000210000002        0000000000000000000000000000000000000000000000000000NUCLEAR DEBATE                      0000000000　　　　　　　　　　　　　　　　　　0000000000　　　　　　　　　　　　　　　　　　0000000000000000000000
SEB2002122020000620A60000020221990103200ドージマムテキ　　　　　　　　　　　03110311200427森秀行　758005吉田　照哉　　　　　　　　　　　　　　　　　　　　　　　　　　　黄，黒縦縞，赤袖　　　　　　　　　　　　　　　　　　　　　　　　　　　　　　　　　　　　　　　　　　　　　　　　　　　　580000000102600000武幸四郎　　　　00       022220000001        0000000000000000000000000000000000000000000000000000NUCLEAR DEBATE                      0000000000　　　　　　　　　　　　　　　　　　0000000000　　　　　　　　　　　　　　　　　　0000000000000000000000
SEB2002122020000620A60000020230000000000TRAVESTY OF LAW                     00000000000000　　　　000000　　　　　　　　　　　　　　　　　　　　　　　　　　　　　　　　　　　　　　　　　　　　　　　　　　　　　　　　　　　　　　　　　　　　　　　　　　　　　　　　　　　　　　　　　　　　000000000000000000　　　　　　　　00       000230000007        0000000000000000000000000000000000000000000000000000NUCLEAR DEBATE                      0000000000　　　　　　　　　　　　　　　　　　0000000000　　　　　　　　　　　　　　　　　　0000000000000000000000
SEB2002122020000713A60000000011995108665アグネスワールド　　　　　　　　　　06110406200427森秀行　021005渡辺　孝男　　　　　　　　　　　　　　　　　　　　　　　　　　　黄，赤袖，水色二本輪　　　　　　　　　　　　　　　　　　　　　　　　　　　　　　　　　　　　　　　　　　　　　　　　　　595000000066600000武豊　　　　　　00       00101001131         0000000000000000000000000000000000000000000000000000LINCOLN DANCER                      0000000000　　　　　　　　　　　　　　　　　　0000000000　　　　　　　　　　　　　　　　　　0000000000000000000000
SEB2002122020000713A60000000020000000000LINCOLN DANCER                      00000000000000　　　　000000　　　　　　　　　　　　　　　　　　　　　　　　　　　　　　　　　　　　　　　　　　　　　　　　　　　　　　　　　　　　　　　　　　　　　　　　　　　　　　　　　　　　　　　　　　　　000000000000000000　　　　　　　　00       00002000000H        0000000000000000000000000000000000000000001995108665アグネスワールド　　　　　　　　　　0000000000　　　　　　　　　　　　　　　　　　0000000000　　　　　　　　　　　　　　　　　　0000000000000000000000
SEB2002122020000713A60000000030000000000PIPALONG                            00000000000000　　　　000000　　　　　　　　　　　　　　　　　　　　　　　　　　　　　　　　　　　　　　　　　　　　　　　　　　　　　　　　　　　　　　　　　　　　　　　　　　　　　　　　　　　　　　　　　　　　000000000000000000　　　　　　　　00       00003000000H        0000000000000000000000000000000000000000001995108665アグネスワールド　　　　　　　　　　0000000000　　　　　　　　　　　　　　　　　　0000000000　　　　　　　　　　　　　　　　　　0000000000000000000000
SEB2002122020000713A60000000040000000000PRIMO VALENTINO                     00000000000000　　　　000000　　　　　　　　　　　　　　　　　　　　　　　　　　　　　　　　　　　　　　　　　　　　　　　　　　　　　　　　　　　　　　　　　　　　　　　　　　　　　　　　　　　　　　　　　　　　000000000000000000　　　　　　　　00       00004000000112      0000000000000000000000000000000000000000001995108665アグネスワールド　　　　　　　　　　0000000000　　　　　　　　　　　　　　　　　　0000000000　　　　　　　　　　　　　　　　　　0000000000000000000000
SEB2002122020000713A60000000050000000000LEND A HAND                         00000000000000　　　　000000　　　　　　　　　　　　　　　　　　　　　　　　　　　　　　　　　　　　　　　　　　　　　　　　　　　　　　　　　　　　　　　　　　　　　　　　　　　　　　　　　　　　　　　　　　　　000000000000000000　　　　　　　　00       00005000000K        0000000000000000000000000000000000000000001995108665アグネスワールド　　　　　　　　　　0000000000　　　　　　　　　　　　　　　　　　0000000000　　　　　　　　　　　　　　　　　　0000000000000000000000
SEB2002122020000713A60000000060000000000BERTOLINI                           00000000000000　　　　000000　　　　　　　　　　　　　　　　　　　　　　　　　　　　　　　　　　　　　　　　　　　　　　　　　　　　　　　　　　　　　　　　　　　　　　　　　　　　　　　　　　　　　　　　　　　　000000000000000000　　　　　　　　00       000060000002        0000000000000000000000000000000000000000001995108665アグネスワールド　　　　　　　　　　0000000000　　　　　　　　　　　　　　　　　　0000000000　　　　　　　　　　　　　　　　　　0000000000000000000000
SEB2002122020000713A60000000070000000000WINNING VENTURE                     00000000000000　　　　000000　　　　　　　　　　　　　　　　　　　　　　　　　　　　　　　　　　　　　　　　　　　　　　　　　　　　　　　　　　　　　　　　　　　　　　　　　　　　　　　　　　　　　　　　　　　　000000000000000000　　　　　　　　00       00007000000A        0000000000000000000000000000000000000000001995108665アグネスワールド　　　　　　　　　　0000000000　　　　　　　　　　　　　　　　　　0000000000　　　　　　　　　　　　　　　　　　0000000000000000000000
SEB2002122020000713A60000000080000000000TRINCULO                            00000000000000　　　　000000　　　　　　　　　　　　　　　　　　　　　　　　　　　　　　　　　　　　　　　　　　　　　　　　　　　　　　　　　　　　　　　　　　　　　　　　　　　　　　　　　　　　　　　　　　　　000000000000000000　　　　　　　　00       00008000000134      0000000000000000000000000000000000000000001995108665アグネスワールド　　　　　　　　　　0000000000　　　　　　　　　　　　　　　　　　0000000000　　　　　　　　　　　　　　　　　　0000000000000000000000
SEB2002122020000713A60000000090000000000MONASHEE MOUNTAIN                   00000000000000　　　　000000　　　　　　　　　　　　　　　　　　　　　　　　　　　　　　　　　　　　　　　　　　　　　　　　　　　　　　　　　　　　　　　　　　　　　　　　　　　　　　　　　　　　　　　　　　　　000000000000000000　　　　　　　　00       00009000000312      0000000000000000000000000000000000000000001995108665アグネスワールド　　　　　　　　　　0000000000　　　　　　　　　　　　　　　　　　0000000000　　　　　　　　　　　　　　　　　　0000000000000000000000
SEB2002122020000713A60000000100000000000MUNJIZ                              00000000000000　　　　000000　　　　　　　　　　　　　　　　　　　　　　　　　　　　　　　　　　　　　　　　　　　　　　　　　　　　　　　　　　　　　　　　　　　　　　　　　　　　　　　　　　　　　　　　　　　　000000000000000000　　　　　　　　00       000100000005        0000000000000000000000000000000000000000001995108665アグネスワールド　　　　　　　　　　0000000000　　　　　　　　　　　　　　　　　　0000000000　　　　　　　　　　　　　　　　　　0000000000000000000000
SEB2002122020000729A60000000010000000000BEAT ALL                            00000000000000　　　　000000　　　　　　　　　　　　　　　　　　　　　　　　　　　　　　　　　　　　　　　　　　　　　　　　　　　　　　　　　　　　　　　　　　　　　　　　　　　　　　　　　　　　　　　　　　　　000000000000000000　　　　　　　　00       000040000001        0000000000000000000000000000000000000000000000000000MONTJEU                             0000000000　　　　　　　　　　　　　　　　　　0000000000　　　　　　　　　　　　　　　　　　0000000000000000000000
SEB2002122020000729A60000000020000000000DALIAPOUR                           00000000000000　　　　000000　　　　　　　　　　　　　　　　　　　　　　　　　　　　　　　　　　　　　　　　　　　　　　　　　　　　　　　　　　　　　　　　　　　　　　　　　　　　　　　　　　　　　　　　　　　　000000000000000000　　　　　　　　00       00003000000312      0000000000000000000000000000000000000000000000000000MONTJEU                             0000000000　　　　　　　　　　　　　　　　　　0000000000　　　　　　　　　　　　　　　　　　0000000000000000000000
SEB2002122020000729A60000000030000000000FANTASTIC LIGHT                     00000000000000　　　　000000　　　　　　　　　　　　　　　　　　　　　　　　　　　　　　　　　　　　　　　　　　　　　　　　　　　　　　　　　　　　　　　　　　　　　　　　　　　　　　　　　　　　　　　　　　　　000000000000000000　　　　　　　　00       00002000000134      0000000000000000000000000000000000000000000000000000MONTJEU                             0000000000　　　　　　　　　　　　　　　　　　0000000000　　　　　　　　　　　　　　　　　　0000000000000000000000
SEB2002122020000729A60000000050000000000MONTJEU                             00000000000000　　　　000000　　　　　　　　　　　　　　　　　　　　　　　　　　　　　　　　　　　　　　　　　　　　　　　　　　　　　　　　　　　　　　　　　　　　　　　　　　　　　　　　　　　　　　　　　　　　000000000000000000　　　　　　　　00       00001002299         0000000000000000000000000000000000000000000000000000FANTASTIC LIGHT                     0000000000　　　　　　　　　　　　　　　　　　0000000000　　　　　　　　　　　　　　　　　　0000000000000000000000
SEB2002122020000729A60000000060000000000SHIVA                               00000000000000　　　　000000　　　　　　　　　　　　　　　　　　　　　　　　　　　　　　　　　　　　　　　　　　　　　　　　　　　　　　　　　　　　　　　　　　　　　　　　　　　　　　　　　　　　　　　　　　　　000000000000000000　　　　　　　　00       00007000000T        0000000000000000000000000000000000000000000000000000MONTJEU                             0000000000　　　　　　　　　　　　　　　　　　0000000000　　　　　　　　　　　　　　　　　　0000000000000000000000
SEB2002122020000729A60000000071997103398エアシャカール　　　　　　　　　　　00110404200427森秀行　084800ラッキーフィールド　　　　　　　　　　　　　　　　　　　　　　　黄，青一本輪，青袖　　　　　　　　　　　　　　　　　　　　　　　　　　　　　　　　　　　　　　　　　　　　　　　　　　　550000000066600000武豊　　　　　　00       005050000002        0000000000000000000000000000000000000000000000000000MONTJEU                             0000000000　　　　　　　　　　　　　　　　　　0000000000　　　　　　　　　　　　　　　　　　0000000000000000000000
SEB2002122020000729A60000000080000000000RAYPOUR                             00000000000000　　　　000000　　　　　　　　　　　　　　　　　　　　　　　　　　　　　　　　　　　　　　　　　　　　　　　　　　　　　　　　　　　　　　　　　　　　　　　　　　　　　　　　　　　　　　　　　　　　000000000000000000　　　　　　　　00       000060000008        0000000000000000000000000000000000000000000000000000MONTJEU                             0000000000　　　　　　　　　　　　　　　　　　0000000000　　　　　　　　　　　　　　　　　　0000000000000000000000
SEB2002122020000806A80000000010000000000BOLD EDGE                           00000000000000　　　　000000　　　　　　　　　　　　　　　　　　　　　　　　　　　　　　　　　　　　　　　　　　　　　　　　　　　　　　　　　　　　　　　　　　　　　　　　　　　　　　　　　　　　　　　　　　　　000000000000000000　　　　　　　　00       00001001160         0000000000000000000000000000000000000000000000000000LEND A HAND                         0000000000　　　　　　　　　　　　　　　　　　0000000000　　　　　　　　　　　　　　　　　　0000000000000000000000
SEB2002122020000806A80000000020000000000LEND A HAND                         00000000000000　　　　000000　　　　　　　　　　　　　　　　　　　　　　　　　　　　　　　　　　　　　　　　　　　　　　　　　　　　　　　　　　　　　　　　　　　　　　　　　　　　　　　　　　　　　　　　　　　　000000000000000000　　　　　　　　00       00002000000K        0000000000000000000000000000000000000000000000000000BOLD EDGE                           0000000000　　　　　　　　　　　　　　　　　　0000000000　　　　　　　　　　　　　　　　　　0000000000000000000000
SEB2002122020000806A80000000030000000000GORSE                               00000000000000　　　　000000　　　　　　　　　　　　　　　　　　　　　　　　　　　　　　　　　　　　　　　　　　　　　　　　　　　　　　　　　　　　　　　　　　　　　　　　　　　　　　　　　　　　　　　　　　　　000000000000000000　　　　　　　　00       00003000000112      0000000000000000000000000000000000000000000000000000BOLD EDGE                           0000000000　　　　　　　　　　　　　　　　　　0000000000　　　　　　　　　　　　　　　　　　0000000000000000000000
SEB2002122020000806A80000000040000000000HOT TIN ROOF                        00000000000000　　　　000000　　　　　　　　　　　　　　　　　　　　　　　　　　　　　　　　　　　　　　　　　　　　　　　　　　　　　　　　　　　　　　　　　　　　　　　　　　　　　　　　　　　　　　　　　　　　000000000000000000　　　　　　　　00       00004000000H        0000000000000000000000000000000000000000000000000000BOLD EDGE                           0000000000　　　　　　　　　　　　　　　　　　0000000000　　　　　　　　　　　　　　　　　　0000000000000000000000
SEB2002122020000806A80000000050000000000TERTULLIAN                          00000000000000　　　　000000　　　　　　　　　　　　　　　　　　　　　　　　　　　　　　　　　　　　　　　　　　　　　　　　　　　　　　　　　　　　　　　　　　　　　　　　　　　　　　　　　　　　　　　　　　　　000000000000000000　　　　　　　　00       00005000000212      0000000000000000000000000000000000000000000000000000BOLD EDGE                           0000000000　　　　　　　　　　　　　　　　　　0000000000　　　　　　　　　　　　　　　　　　0000000000000000000000
SEB2002122020000806A80000000060000000000CAP COZ                             00000000000000　　　　000000　　　　　　　　　　　　　　　　　　　　　　　　　　　　　　　　　　　　　　　　　　　　　　　　　　　　　　　　　　　　　　　　　　　　　　　　　　　　　　　　　　　　　　　　　　　　000000000000000000　　　　　　　　00       00006000000H        0000000000000000000000000000000000000000000000000000BOLD EDGE                           0000000000　　　　　　　　　　　　　　　　　　0000000000　　　　　　　　　　　　　　　　　　0000000000000000000000
SEB2002122020000806A80000000070000000000SIR NICHOLAS                        00000000000000　　　　000000　　　　　　　　　　　　　　　　　　　　　　　　　　　　　　　　　　　　　　　　　　　　　　　　　　　　　　　　　　　　　　　　　　　　　　　　　　　　　　　　　　　　　　　　　　　　000000000000000000　　　　　　　　00       00007000000 12      0000000000000000000000000000000000000000000000000000BOLD EDGE                           0000000000　　　　　　　　　　　　　　　　　　0000000000　　　　　　　　　　　　　　　　　　0000000000000000000000
SEB2002122020000806A80000000080000000000BLUEMAMBA                           00000000000000　　　　000000　　　　　　　　　　　　　　　　　　　　　　　　　　　　　　　　　　　　　　　　　　　　　　　　　　　　　　　　　　　　　　　　　　　　　　　　　　　　　　　　　　　　　　　　　　　　000000000000000000　　　　　　　　00       00008000000         0000000000000000000000000000000000000000000000000000BOLD EDGE                           0000000000　　　　　　　　　　　　　　　　　　0000000000　　　　　　　　　　　　　　　　　　0000000000000000000000
SEB2002122020000806A80000000090000000000WINNING VENTURE                     00000000000000　　　　000000　　　　　　　　　　　　　　　　　　　　　　　　　　　　　　　　　　　　　　　　　　　　　　　　　　　　　　　　　　　　　　　　　　　　　　　　　　　　　　　　　　　　　　　　　　　　000000000000000000　　　　　　　　00       00009000000         0000000000000000000000000000000000000000000000000000BOLD EDGE                           0000000000　　　　　　　　　　　　　　　　　　0000000000　　　　　　　　　　　　　　　　　　0000000000000000000000
SEB2002122020000806A80000000100000000000PERUGINA                            00000000000000　　　　000000　　　　　　　　　　　　　　　　　　　　　　　　　　　　　　　　　　　　　　　　　　　　　　　　　　　　　　　　　　　　　　　　　　　　　　　　　　　　　　　　　　　　　　　　　　　　000000000000000000　　　　　　　　00       00010000000         0000000000000000000000000000000000000000000000000000BOLD EDGE                           0000000000　　　　　　　　　　　　　　　　　　0000000000　　　　　　　　　　　　　　　　　　0000000000000000000000
SEB2002122020000806A80000000111990103200ドージマムテキ　　　　　　　　　　　03110311200427森秀行　758005吉田　照哉　　　　　　　　　　　　　　　　　　　　　　　　　　　黄，黒縦縞，赤袖　　　　　　　　　　　　　　　　　　　　　　　　　　　　　　　　　　　　　　　　　　　　　　　　　　　　580000000000000000ＡＳＭＵ　　　　00       01111000000         0000000000000000000000000000000000000000000000000000BOLD EDGE                           0000000000　　　　　　　　　　　　　　　　　　0000000000　　　　　　　　　　　　　　　　　　0000000000000000000000
SEB2002122020001012A80000000011995108666プリンセスカーラ　　　　　　　　　　06210306101013小島太　758005吉田　照哉　　　　　　　　　　　　　　　　　　　　　　　　　　　黄，黒縦縞，赤袖　　　　　　　　　　　　　　　　　　　　　　　　　　　　　　　　　　　　　　　　　　　　　　　　　　　　555000000000000000ＭＯＳＳ　　　　00       00101001447         0000000000000000000000000000000000000000000000000000DIONELLO                            0000000000　　　　　　　　　　　　　　　　　　0000000000　　　　　　　　　　　　　　　　　　0000000000000000000000
SEB2002122020001012A80000000020000000000DIONELLO                            00000000000000　　　　000000　　　　　　　　　　　　　　　　　　　　　　　　　　　　　　　　　　　　　　　　　　　　　　　　　　　　　　　　　　　　　　　　　　　　　　　　　　　　　　　　　　　　　　　　　　　　000000000000000000　　　　　　　　00       00002000000112      0000000000000000000000000000000000000000001995108666プリンセスカーラ　　　　　　　　　　0000000000　　　　　　　　　　　　　　　　　　0000000000　　　　　　　　　　　　　　　　　　0000000000000000000000
SEB2002122020001012A80000000030000000000MOCHAM GLEN                         00000000000000　　　　000000　　　　　　　　　　　　　　　　　　　　　　　　　　　　　　　　　　　　　　　　　　　　　　　　　　　　　　　　　　　　　　　　　　　　　　　　　　　　　　　　　　　　　　　　　　　　000000000000000000　　　　　　　　00       00003000000 34      0000000000000000000000000000000000000000001995108666プリンセスカーラ　　　　　　　　　　0000000000　　　　　　　　　　　　　　　　　　0000000000　　　　　　　　　　　　　　　　　　0000000000000000000000
SEB2002122020001012A80000000040000000000RUSSIAN TUNE                        00000000000000　　　　000000　　　　　　　　　　　　　　　　　　　　　　　　　　　　　　　　　　　　　　　　　　　　　　　　　　　　　　　　　　　　　　　　　　　　　　　　　　　　　　　　　　　　　　　　　　　　000000000000000000　　　　　　　　00       00004000000 34      0000000000000000000000000000000000000000001995108666プリンセスカーラ　　　　　　　　　　0000000000　　　　　　　　　　　　　　　　　　0000000000　　　　　　　　　　　　　　　　　　0000000000000000000000
SEB2002122020001012A80000000050000000000SISSI SONG                          00000000000000　　　　000000　　　　　　　　　　　　　　　　　　　　　　　　　　　　　　　　　　　　　　　　　　　　　　　　　　　　　　　　　　　　　　　　　　　　　　　　　　　　　　　　　　　　　　　　　　　　000000000000000000　　　　　　　　00       00005000000 12      0000000000000000000000000000000000000000001995108666プリンセスカーラ　　　　　　　　　　0000000000　　　　　　　　　　　　　　　　　　0000000000　　　　　　　　　　　　　　　　　　0000000000000000000000
SEB2002122020001012A80000000060000000000CAZOULIAS                           00000000000000　　　　000000　　　　　　　　　　　　　　　　　　　　　　　　　　　　　　　　　　　　　　　　　　　　　　　　　　　　　　　　　　　　　　　　　　　　　　　　　　　　　　　　　　　　　　　　　　　　000000000000000000　　　　　　　　00       00006000000112      0000000000000000000000000000000000000000001995108666プリンセスカーラ　　　　　　　　　　0000000000　　　　　　　　　　　　　　　　　　0000000000　　　　　　　　　　　　　　　　　　0000000000000000000000
SEB2002122020001012A80000000070000000000BARTEX                              00000000000000　　　　000000　　　　　　　　　　　　　　　　　　　　　　　　　　　　　　　　　　　　　　　　　　　　　　　　　　　　　　　　　　　　　　　　　　　　　　　　　　　　　　　　　　　　　　　　　　　　000000000000000000　　　　　　　　00       00007000000H        0000000000000000000000000000000000000000001995108666プリンセスカーラ　　　　　　　　　　0000000000　　　　　　　　　　　　　　　　　　0000000000　　　　　　　　　　　　　　　　　　0000000000000000000000
SEB2002122020001012A80000000080000000000RUBRUCK                             00000000000000　　　　000000　　　　　　　　　　　　　　　　　　　　　　　　　　　　　　　　　　　　　　　　　　　　　　　　　　　　　　　　　　　　　　　　　　　　　　　　　　　　　　　　　　　　　　　　　　　　000000000000000000　　　　　　　　00       00008000000 34      0000000000000000000000000000000000000000001995108666プリンセスカーラ　　　　　　　　　　0000000000　　　　　　　　　　　　　　　　　　0000000000　　　　　　　　　　　　　　　　　　0000000000000000000000
SEB2002122020001012A80000000090000000000MEMORY MAKER                        00000000000000　　　　000000　　　　　　　　　　　　　　　　　　　　　　　　　　　　　　　　　　　　　　　　　　　　　　　　　　　　　　　　　　　　　　　　　　　　　　　　　　　　　　　　　　　　　　　　　　　　000000000000000000　　　　　　　　00       00009000000A        0000000000000000000000000000000000000000001995108666プリンセスカーラ　　　　　　　　　　0000000000　　　　　　　　　　　　　　　　　　0000000000　　　　　　　　　　　　　　　　　　0000000000000000000000
SEB2002122020001012A80000000100000000000ULTERIOR MOTIVES                    00000000000000　　　　000000　　　　　　　　　　　　　　　　　　　　　　　　　　　　　　　　　　　　　　　　　　　　　　　　　　　　　　　　　　　　　　　　　　　　　　　　　　　　　　　　　　　　　　　　　　　　000000000000000000　　　　　　　　00       00010000000K        0000000000000000000000000000000000000000001995108666プリンセスカーラ　　　　　　　　　　0000000000　　　　　　　　　　　　　　　　　　0000000000　　　　　　　　　　　　　　　　　　0000000000000000000000
SEB2002122020001012A80000000110000000000SWAN KNIGHT                         00000000000000　　　　000000　　　　　　　　　　　　　　　　　　　　　　　　　　　　　　　　　　　　　　　　　　　　　　　　　　　　　　　　　　　　　　　　　　　　　　　　　　　　　　　　　　　　　　　　　　　　000000000000000000　　　　　　　　00       00011000000         0000000000000000000000000000000000000000001995108666プリンセスカーラ　　　　　　　　　　0000000000　　　　　　　　　　　　　　　　　　0000000000　　　　　　　　　　　　　　　　　　0000000000000000000000
SEB2002122020001104A40000060010000000000MORE THAN READY                     00000000000000　　　　000000　　　　　　　　　　　　　　　　　　　　　　　　　　　　　　　　　　　　　　　　　　　　　　　　　　　　　　　　　　　　　　　　　　　　　　　　　　　　　　　　　　　　　　　　　　　　000000000000000000　　　　　　　　00       00005000000 12      0000000000000000000000000000000000000000000000000000KONA GOLD                           0000000000　　　　　　　　　　　　　　　　　　0000000000　　　　　　　　　　　　　　　　　　0000000000000000000000
SEB2002122020001104A40000060020000000000TRIPPI                              00000000000000　　　　000000　　　　　　　　　　　　　　　　　　　　　　　　　　　　　　　　　　　　　　　　　　　　　　　　　　　　　　　　　　　　　　　　　　　　　　　　　　　　　　　　　　　　　　　　　　　　000000000000000000　　　　　　　　00       00009000000H        0000000000000000000000000000000000000000000000000000KONA GOLD                           0000000000　　　　　　　　　　　　　　　　　　0000000000　　　　　　　　　　　　　　　　　　0000000000000000000000
SEB2002122020001104A40000060030000000000CALLER ONE                          00000000000000　　　　000000　　　　　　　　　　　　　　　　　　　　　　　　　　　　　　　　　　　　　　　　　　　　　　　　　　　　　　　　　　　　　　　　　　　　　　　　　　　　　　　　　　　　　　　　　　　　000000000000000000　　　　　　　　00       000040000002        0000000000000000000000000000000000000000000000000000KONA GOLD                           0000000000　　　　　　　　　　　　　　　　　　0000000000　　　　　　　　　　　　　　　　　　0000000000000000000000
SEB2002122020001104A40000060040000000000SHADOW CASTER                       00000000000000　　　　000000　　　　　　　　　　　　　　　　　　　　　　　　　　　　　　　　　　　　　　　　　　　　　　　　　　　　　　　　　　　　　　　　　　　　　　　　　　　　　　　　　　　　　　　　　　　　000000000000000000　　　　　　　　00       000130000001        0000000000000000000000000000000000000000000000000000KONA GOLD                           0000000000　　　　　　　　　　　　　　　　　　0000000000　　　　　　　　　　　　　　　　　　0000000000000000000000
SEB2002122020001104A40000060050000000000FIVE STAR DAY                       00000000000000　　　　000000　　　　　　　　　　　　　　　　　　　　　　　　　　　　　　　　　　　　　　　　　　　　　　　　　　　　　　　　　　　　　　　　　　　　　　　　　　　　　　　　　　　　　　　　　　　　000000000000000000　　　　　　　　00       00014000000T        0000000000000000000000000000000000000000000000000000KONA GOLD                           0000000000　　　　　　　　　　　　　　　　　　0000000000　　　　　　　　　　　　　　　　　　0000000000000000000000
SEB2002122020001104A40000060060000000000BET ON SUNSHINE                     00000000000000　　　　000000　　　　　　　　　　　　　　　　　　　　　　　　　　　　　　　　　　　　　　　　　　　　　　　　　　　　　　　　　　　　　　　　　　　　　　　　　　　　　　　　　　　　　　　　　　　　000000000000000000　　　　　　　　00       00003000000 12      0000000000000000000000000000000000000000000000000000KONA GOLD                           0000000000　　　　　　　　　　　　　　　　　　0000000000　　　　　　　　　　　　　　　　　　0000000000000000000000
SEB2002122020001104A40000060070000000000VALIANT HALORY                      00000000000000　　　　000000　　　　　　　　　　　　　　　　　　　　　　　　　　　　　　　　　　　　　　　　　　　　　　　　　　　　　　　　　　　　　　　　　　　　　　　　　　　　　　　　　　　　　　　　　　　　000000000000000000　　　　　　　　00       00012000000A        0000000000000000000000000000000000000000000000000000KONA GOLD                           0000000000　　　　　　　　　　　　　　　　　　0000000000　　　　　　　　　　　　　　　　　　0000000000000000000000
SEB2002122020001104A40000060080000000000ELABORATE                           00000000000000　　　　000000　　　　　　　　　　　　　　　　　　　　　　　　　　　　　　　　　　　　　　　　　　　　　　　　　　　　　　　　　　　　　　　　　　　　　　　　　　　　　　　　　　　　　　　　　　　　000000000000000000　　　　　　　　00       00011000000 34      0000000000000000000000000000000000000000000000000000KONA GOLD                           0000000000　　　　　　　　　　　　　　　　　　0000000000　　　　　　　　　　　　　　　　　　0000000000000000000000
SEB2002122020001104A40000060090000000000SUCCESSFUL APPEAL                   00000000000000　　　　000000　　　　　　　　　　　　　　　　　　　　　　　　　　　　　　　　　　　　　　　　　　　　　　　　　　　　　　　　　　　　　　　　　　　　　　　　　　　　　　　　　　　　　　　　　　　　000000000000000000　　　　　　　　00       000070000002        0000000000000000000000000000000000000000000000000000KONA GOLD                           0000000000　　　　　　　　　　　　　　　　　　0000000000　　　　　　　　　　　　　　　　　　0000000000000000000000
SEB2002122020001104A40000060100000000000KONA GOLD                           00000000000000　　　　000000　　　　　　　　　　　　　　　　　　　　　　　　　　　　　　　　　　　　　　　　　　　　　　　　　　　　　　　　　　　　　　　　　　　　　　　　　　　　　　　　　　　　　　　　　　　　000000000000000000　　　　　　　　00       00001001077         0000000000000000000000000000000000000000000000000000HONEST LADY                         0000000000　　　　　　　　　　　　　　　　　　0000000000　　　　　　　　　　　　　　　　　　0000000000000000000000
SEB2002122020001104A40000060111995108665アグネスワールド　　　　　　　　　　06110406200427森秀行　021005渡辺　孝男　　　　　　　　　　　　　　　　　　　　　　　　　　　黄，赤袖，水色二本輪　　　　　　　　　　　　　　　　　　　　　　　　　　　　　　　　　　　　　　　　　　　　　　　　　　570000000066600000武豊　　　　　　00       00808000000 12      0000000000000000000000000000000000000000000000000000KONA GOLD                           0000000000　　　　　　　　　　　　　　　　　　0000000000　　　　　　　　　　　　　　　　　　0000000000000000000000
SEB2002122020001104A40000060120000000000DREAM SUPREME                       00000000000000　　　　000000　　　　　　　　　　　　　　　　　　　　　　　　　　　　　　　　　　　　　　　　　　　　　　　　　　　　　　　　　　　　　　　　　　　　　　　　　　　　　　　　　　　　　　　　　　　　000000000000000000　　　　　　　　00       00006000000 12      0000000000000000000000000000000000000000000000000000KONA GOLD                           0000000000　　　　　　　　　　　　　　　　　　0000000000　　　　　　　　　　　　　　　　　　0000000000000000000000
SEB2002122020001104A40000060130000000000HONEST LADY                         00000000000000　　　　000000　　　　　　　　　　　　　　　　　　　　　　　　　　　　　　　　　　　　　　　　　　　　　　　　　　　　　　　　　　　　　　　　　　　　　　　　　　　　　　　　　　　　　　　　　　　　000000000000000000　　　　　　　　00       00002000000 12      0000000000000000000000000000000000000000000000000000KONA GOLD                           0000000000　　　　　　　　　　　　　　　　　　0000000000　　　　　　　　　　　　　　　　　　0000000000000000000000
SEB2002122020001104A40000060140000000000DELAWARE TOWNSHIP                   00000000000000　　　　000000　　　　　　　　　　　　　　　　　　　　　　　　　　　　　　　　　　　　　　　　　　　　　　　　　　　　　　　　　　　　　　　　　　　　　　　　　　　　　　　　　　　　　　　　　　　　000000000000000000　　　　　　　　00       00010000000 34      0000000000000000000000000000000000000000000000000000KONA GOLD                           0000000000　　　　　　　　　　　　　　　　　　0000000000　　　　　　　　　　　　　　　　　　0000000000000000000000
SEB2002122020001104A40000070010000000000PETRUSHKA                           00000000000000　　　　000000　　　　　　　　　　　　　　　　　　　　　　　　　　　　　　　　　　　　　　　　　　　　　　　　　　　　　　　　　　　　　　　　　　　　　　　　　　　　　　　　　　　　　　　　　　　　000000000000000000　　　　　　　　00       00005000000 34      0000000000000000000000000000000000000000000000000000PERFECT STING                       0000000000　　　　　　　　　　　　　　　　　　0000000000　　　　　　　　　　　　　　　　　　0000000000000000000000
SEB2002122020001104A40000070020000000000TOUT CHARMANT                       00000000000000　　　　000000　　　　　　　　　　　　　　　　　　　　　　　　　　　　　　　　　　　　　　　　　　　　　　　　　　　　　　　　　　　　　　　　　　　　　　　　　　　　　　　　　　　　　　　　　　　　000000000000000000　　　　　　　　00       00002000000 34      0000000000000000000000000000000000000000000000000000PERFECT STING                       0000000000　　　　　　　　　　　　　　　　　　0000000000　　　　　　　　　　　　　　　　　　0000000000000000000000
SEB2002122020001104A40000070031997110259マルターズスパーブ　　　　　　　　　06210704100436堀井雅広685006藤田　与志男　　　　　　　　　　　　　　　　　　　　　　　　　　水色，赤縦縞，袖赤一本輪　　　　　　　　　　　　　　　　　　　　　　　　　　　　　　　　　　　　　　　　　　　　　　　　540000000066600000武豊　　　　　　00       01313000000T        0000000000000000000000000000000000000000000000000000PERFECT STING                       0000000000　　　　　　　　　　　　　　　　　　0000000000　　　　　　　　　　　　　　　　　　0000000000000000000000
SEB2002122020001104A40000070040000000000COLLECT THE CASH                    00000000000000　　　　000000　　　　　　　　　　　　　　　　　　　　　　　　　　　　　　　　　　　　　　　　　　　　　　　　　　　　　　　　　　　　　　　　　　　　　　　　　　　　　　　　　　　　　　　　　　　　000000000000000000　　　　　　　　00       00011000000114      0000000000000000000000000000000000000000000000000000PERFECT STING                       0000000000　　　　　　　　　　　　　　　　　　0000000000　　　　　　　　　　　　　　　　　　0000000000000000000000
SEB2002122020001104A40000070050000000000TRANQUILITY LAKE                    00000000000000　　　　000000　　　　　　　　　　　　　　　　　　　　　　　　　　　　　　　　　　　　　　　　　　　　　　　　　　　　　　　　　　　　　　　　　　　　　　　　　　　　　　　　　　　　　　　　　　　　000000000000000000　　　　　　　　00       00008000000134      0000000000000000000000000000000000000000000000000000PERFECT STING                       0000000000　　　　　　　　　　　　　　　　　　0000000000　　　　　　　　　　　　　　　　　　0000000000000000000000
SEB2002122020001104A40000070060000000000GOLDAMIX                            00000000000000　　　　000000　　　　　　　　　　　　　　　　　　　　　　　　　　　　　　　　　　　　　　　　　　　　　　　　　　　　　　　　　　　　　　　　　　　　　　　　　　　　　　　　　　　　　　　　　　　　000000000000000000　　　　　　　　00       00010000000H        0000000000000000000000000000000000000000000000000000PERFECT STING                       0000000000　　　　　　　　　　　　　　　　　　0000000000　　　　　　　　　　　　　　　　　　0000000000000000000000
SEB2002122020001104A40000070070000000000FLY FOR AVIE                        00000000000000　　　　000000　　　　　　　　　　　　　　　　　　　　　　　　　　　　　　　　　　　　　　　　　　　　　　　　　　　　　　　　　　　　　　　　　　　　　　　　　　　　　　　　　　　　　　　　　　　　000000000000000000　　　　　　　　00       00006000000 34      0000000000000000000000000000000000000000000000000000PERFECT STING                       0000000000　　　　　　　　　　　　　　　　　　0000000000　　　　　　　　　　　　　　　　　　0000000000000000000000
SEB2002122020001104A40000070080000000000PERFECT STING                       00000000000000　　　　000000　　　　　　　　　　　　　　　　　　　　　　　　　　　　　　　　　　　　　　　　　　　　　　　　　　　　　　　　　　　　　　　　　　　　　　　　　　　　　　　　　　　　　　　　　　　　000000000000000000　　　　　　　　00       00001002130         0000000000000000000000000000000000000000000000000000TOUT CHARMANT                       0000000000　　　　　　　　　　　　　　　　　　0000000000　　　　　　　　　　　　　　　　　　0000000000000000000000
SEB2002122020001104A40000070090000000000SNOW POLINA                         00000000000000　　　　000000　　　　　　　　　　　　　　　　　　　　　　　　　　　　　　　　　　　　　　　　　　　　　　　　　　　　　　　　　　　　　　　　　　　　　　　　　　　　　　　　　　　　　　　　　　　　000000000000000000　　　　　　　　00       00004000000112      0000000000000000000000000000000000000000000000000000PERFECT STING                       0000000000　　　　　　　　　　　　　　　　　　0000000000　　　　　　　　　　　　　　　　　　0000000000000000000000
SEB2002122020001104A40000070100000000000COLSTAR                             00000000000000　　　　000000　　　　　　　　　　　　　　　　　　　　　　　　　　　　　　　　　　　　　　　　　　　　　　　　　　　　　　　　　　　　　　　　　　　　　　　　　　　　　　　　　　　　　　　　　　　　000000000000000000　　　　　　　　00       00007000000H        0000000000000000000000000000000000000000000000000000PERFECT STING                       0000000000　　　　　　　　　　　　　　　　　　0000000000　　　　　　　　　　　　　　　　　　0000000000000000000000
SEB2002122020001104A40000070110000000000SPANISH FERN                        00000000000000　　　　000000　　　　　　　　　　　　　　　　　　　　　　　　　　　　　　　　　　　　　　　　　　　　　　　　　　　　　　　　　　　　　　　　　　　　　　　　　　　　　　　　　　　　　　　　　　　　000000000000000000　　　　　　　　00       40000000000         0000000000000000000000000000000000000000000000000000PERFECT STING                       0000000000　　　　　　　　　　　　　　　　　　0000000000　　　　　　　　　　　　　　　　　　9999000000000000000000
SEB2002122020001104A40000070120000000000PICO TENERIFFE                      00000000000000　　　　000000　　　　　　　　　　　　　　　　　　　　　　　　　　　　　　　　　　　　　　　　　　　　　　　　　　　　　　　　　　　　　　　　　　　　　　　　　　　　　　　　　　　　　　　　　　　　000000000000000000　　　　　　　　00       00012000000T        0000000000000000000000000000000000000000000000000000PERFECT STING                       0000000000　　　　　　　　　　　　　　　　　　0000000000　　　　　　　　　　　　　　　　　　0000000000000000000000
SEB2002122020001104A40000070130000000000CATELLA                             00000000000000　　　　000000　　　　　　　　　　　　　　　　　　　　　　　　　　　　　　　　　　　　　　　　　　　　　　　　　　　　　　　　　　　　　　　　　　　　　　　　　　　　　　　　　　　　　　　　　　　　000000000000000000　　　　　　　　00       00003000000 34      0000000000000000000000000000000000000000000000000000PERFECT STING                       0000000000　　　　　　　　　　　　　　　　　　0000000000　　　　　　　　　　　　　　　　　　0000000000000000000000
SEB2002122020001104A40000070140000000000CAFFE LATTE                         00000000000000　　　　000000　　　　　　　　　　　　　　　　　　　　　　　　　　　　　　　　　　　　　　　　　　　　　　　　　　　　　　　　　　　　　　　　　　　　　　　　　　　　　　　　　　　　　　　　　　　　000000000000000000　　　　　　　　00       000090000004        0000000000000000000000000000000000000000000000000000PERFECT STING                       0000000000　　　　　　　　　　　　　　　　　　0000000000　　　　　　　　　　　　　　　　　　0000000000000000000000
SEB2002122020001104A80000000010000000000JIM AND TONIC                       00000000000000　　　　000000　　　　　　　　　　　　　　　　　　　　　　　　　　　　　　　　　　　　　　　　　　　　　　　　　　　　　　　　　　　　　　　　　　　　　　　　　　　　　　　　　　　　　　　　　　　　000000000000000000　　　　　　　　00       00001001495         0000000000000000000000000000000000000000000000000000MEMORY MAKER                        0000000000　　　　　　　　　　　　　　　　　　0000000000　　　　　　　　　　　　　　　　　　0000000000000000000000
SEB2002122020001104A80000000020000000000MEMORY MAKER                        00000000000000　　　　000000　　　　　　　　　　　　　　　　　　　　　　　　　　　　　　　　　　　　　　　　　　　　　　　　　　　　　　　　　　　　　　　　　　　　　　　　　　　　　　　　　　　　　　　　　　　　000000000000000000　　　　　　　　00       00002000000 12      0000000000000000000000000000000000000000000000000000JIM AND TONIC                       0000000000　　　　　　　　　　　　　　　　　　0000000000　　　　　　　　　　　　　　　　　　0000000000000000000000
SEB2002122020001104A80000000031995108666プリンセスカーラ　　　　　　　　　　06210306101013小島太　758005吉田　照哉　　　　　　　　　　　　　　　　　　　　　　　　　　　黄，黒縦縞，赤袖　　　　　　　　　　　　　　　　　　　　　　　　　　　　　　　　　　　　　　　　　　　　　　　　　　　　555000000000000000ＳＡＮＣ　　　　00       00303000000 34      0000000000000000000000000000000000000000000000000000JIM AND TONIC                       0000000000　　　　　　　　　　　　　　　　　　0000000000　　　　　　　　　　　　　　　　　　0000000000000000000000
SEB2002122020001104A80000000040000000000DOUBLE HEART                        00000000000000　　　　000000　　　　　　　　　　　　　　　　　　　　　　　　　　　　　　　　　　　　　　　　　　　　　　　　　　　　　　　　　　　　　　　　　　　　　　　　　　　　　　　　　　　　　　　　　　　　000000000000000000　　　　　　　　00       00004000000 34      0000000000000000000000000000000000000000000000000000JIM AND TONIC                       0000000000　　　　　　　　　　　　　　　　　　0000000000　　　　　　　　　　　　　　　　　　0000000000000000000000
SEB2002122020001104A80000000050000000000DANZIGAWAY                          00000000000000　　　　000000　　　　　　　　　　　　　　　　　　　　　　　　　　　　　　　　　　　　　　　　　　　　　　　　　　　　　　　　　　　　　　　　　　　　　　　　　　　　　　　　　　　　　　　　　　　　000000000000000000　　　　　　　　00       00005000000 12      0000000000000000000000000000000000000000000000000000JIM AND TONIC                       0000000000　　　　　　　　　　　　　　　　　　0000000000　　　　　　　　　　　　　　　　　　0000000000000000000000
SEB2002122020001104A80000000060000000000SUGARFOOT                           00000000000000　　　　000000　　　　　　　　　　　　　　　　　　　　　　　　　　　　　　　　　　　　　　　　　　　　　　　　　　　　　　　　　　　　　　　　　　　　　　　　　　　　　　　　　　　　　　　　　　　　000000000000000000　　　　　　　　00       00006000000 12      0000000000000000000000000000000000000000000000000000JIM AND TONIC                       0000000000　　　　　　　　　　　　　　　　　　0000000000　　　　　　　　　　　　　　　　　　0000000000000000000000
SEB2002122020001104A80000000070000000000WITH THE FLOW                       00000000000000　　　　000000　　　　　　　　　　　　　　　　　　　　　　　　　　　　　　　　　　　　　　　　　　　　　　　　　　　　　　　　　　　　　　　　　　　　　　　　　　　　　　　　　　　　　　　　　　　　000000000000000000　　　　　　　　00       00007000000 12      0000000000000000000000000000000000000000000000000000JIM AND TONIC                       0000000000　　　　　　　　　　　　　　　　　　0000000000　　　　　　　　　　　　　　　　　　0000000000000000000000
SEB2002122020001104A80000000080000000000TOUCH OF THE BLUES                  00000000000000　　　　000000　　　　　　　　　　　　　　　　　　　　　　　　　　　　　　　　　　　　　　　　　　　　　　　　　　　　　　　　　　　　　　　　　　　　　　　　　　　　　　　　　　　　　　　　　　　　000000000000000000　　　　　　　　00       000080000005        0000000000000000000000000000000000000000000000000000JIM AND TONIC                       0000000000　　　　　　　　　　　　　　　　　　0000000000　　　　　　　　　　　　　　　　　　0000000000000000000000
SEB2002122020001104A80000000090000000000CHAGALL                             00000000000000　　　　000000　　　　　　　　　　　　　　　　　　　　　　　　　　　　　　　　　　　　　　　　　　　　　　　　　　　　　　　　　　　　　　　　　　　　　　　　　　　　　　　　　　　　　　　　　　　　000000000000000000　　　　　　　　00       000090000002        0000000000000000000000000000000000000000000000000000JIM AND TONIC                       0000000000　　　　　　　　　　　　　　　　　　0000000000　　　　　　　　　　　　　　　　　　0000000000000000000000
