SEB2017031320170304C70000020010000000000WILD DUDE                           00110007000000ハルフォ000000　　　　　　　　　　　　　　　　　　　　　　　　　　　　　　　　　　　　　　　　　　　　　　　　　　　　　　　　　　　　　　　　　　　　　　　　　　　　　　　　　　　　　　　　　　　　595000000000000000フォーリ　　　　00       00005000000 12      0000000000000000000000000000000000000000000000000000MORAWIJ                             0000000000　　　　　　　　　　　　　　　　　　0000000000　　　　　　　　　　　　　　　　　　0000000000000000000000
SEB2017031320170304C70000020020000000000DUNDONNELL                          00310007000000ファウン000000　　　　　　　　　　　　　　　　　　　　　　　　　　　　　　　　　　　　　　　　　　　　　　　　　　　　　　　　　　　　　　　　　　　　　　　　　　　　　　　　　　　　　　　　　　　　595000000000000000スミヨン　　　　00       00003000000114      0000000000000000000000000000000000000000000000000000MORAWIJ                             0000000000　　　　　　　　　　　　　　　　　　0000000000　　　　　　　　　　　　　　　　　　0000000000000000000000
SEB2017031320170304C70000020030000000000COOL COWBOY                         00110006000000ワトソン000000　　　　　　　　　　　　　　　　　　　　　　　　　　　　　　　　　　　　　　　　　　　　　　　　　　　　　　　　　　　　　　　　　　　　　　　　　　　　　　　　　　　　　　　　　　　　595000000000000000ドッブス　　　　00       00002000000A        0000000000000000000000000000000000000000000000000000MORAWIJ                             0000000000　　　　　　　　　　　　　　　　　　0000000000　　　　　　　　　　　　　　　　　　0000000000000000000000
SEB2017031320170304C70000020040000000000HIGH ON LIFE                        00310006000000ビン・ガ000000　　　　　　　　　　　　　　　　　　　　　　　　　　　　　　　　　　　　　　　　　　　　　　　　　　　　　　　　　　　　　　　　　　　　　　　　　　　　　　　　　　　　　　　　　　　　595000000000000000フレンチ　　　　00       00009000000112      0000000000000000000000000000000000000000000000000000MORAWIJ                             0000000000　　　　　　　　　　　　　　　　　　0000000000　　　　　　　　　　　　　　　　　　0000000000000000000000
SEB2017031320170304C70000020050000000000REYNALDOTHEWIZARD                   00310011000000シーマー000000　　　　　　　　　　　　　　　　　　　　　　　　　　　　　　　　　　　　　　　　　　　　　　　　　　　　　　　　　　　　　　　　　　　　　　　　　　　　　　　　　　　　　　　　　　　　595000000000000000　　　　　　　　00000    10000000000         0000000000000000000000000000000000000009990000000000MORAWIJ                             0000000000　　　　　　　　　　　　　　　　　　0000000000　　　　　　　　　　　　　　　　　　9999000000000000000000
SEB2017031320170304C70000020060000000000RAAFID                              00310004000000アル・ラ000000　　　　　　　　　　　　　　　　　　　　　　　　　　　　　　　　　　　　　　　　　　　　　　　　　　　　　　　　　　　　　　　　　　　　　　　　　　　　　　　　　　　　　　　　　　　　595000000000000000オニール　　　　00       00008000000K        0000000000000000000000000000000000000000000000000000MORAWIJ                             0000000000　　　　　　　　　　　　　　　　　　0000000000　　　　　　　　　　　　　　　　　　0000000000000000000000
SEB2017031320170304C70000020070000000000MORAWIJ                             00310007000000セルヴァ000000　　　　　　　　　　　　　　　　　　　　　　　　　　　　　　　　　　　　　　　　　　　　　　　　　　　　　　　　　　　　　　　　　　　　　　　　　　　　　　　　　　　　　　　　　　　　595000000000000000ヘイズ　　　　　00       00001001112         0000000000000000000000000000000000000000000000000000COOL COWBOY                         0000000000　　　　　　　　　　　　　　　　　　0000000000　　　　　　　　　　　　　　　　　　0000000000000000000000
SEB2017031320170304C70000020080000000000COMICAS                             00310004000000アップル000000　　　　　　　　　　　　　　　　　　　　　　　　　　　　　　　　　　　　　　　　　　　　　　　　　　　　　　　　　　　　　　　　　　　　　　　　　　　　　　　　　　　　　　　　　　　　595000000000000000ビュイッ　　　　00       00004000000234      0000000000000000000000000000000000000000000000000000MORAWIJ                             0000000000　　　　　　　　　　　　　　　　　　0000000000　　　　　　　　　　　　　　　　　　0000000000000000000000
SEB2017031320170304C70000020090000000000MUARRAB                             00310008000000リッチー000000　　　　　　　　　　　　　　　　　　　　　　　　　　　　　　　　　　　　　　　　　　　　　　　　　　　　　　　　　　　　　　　　　　　　　　　　　　　　　　　　　　　　　　　　　　　　595000000000000000クローリ　　　　00       00006000000434      0000000000000000000000000000000000000000000000000000MORAWIJ                             0000000000　　　　　　　　　　　　　　　　　　0000000000　　　　　　　　　　　　　　　　　　0000000000000000000000
SEB2017031320170304C70000060010000000000TRIPLE NINE                         00110005000000キム　　000000　　　　　　　　　　　　　　　　　　　　　　　　　　　　　　　　　　　　　　　　　　　　　　　　　　　　　　　　　　　　　　　　　　　　　　　　　　　　　　　　　　　　　　　　　　　　570000000000000000コスグレ　　　　00       00005000000614      0000000000000000000000000000000000000000000000000000LONG RIVER                          0000000000　　　　　　　　　　　　　　　　　　0000000000　　　　　　　　　　　　　　　　　　0000000000000000000000
SEB2017031320170304C70000060020000000000LONG RIVER                          00110007000000ビン・ガ000000　　　　　　　　　　　　　　　　　　　　　　　　　　　　　　　　　　　　　　　　　　　　　　　　　　　　　　　　　　　　　　　　　　　　　　　　　　　　　　　　　　　　　　　　　　　　570000000000000000バルザロ　　　　00       00001002042         0000000000000000000000000000000000000000000000000000SPECIAL FIGHTER                     0000000000　　　　　　　　　　　　　　　　　　0000000000　　　　　　　　　　　　　　　　　　0000000000000000000000
SEB2017031320170304C70000060030000000000MOVE UP                             00110004000000ビン・ス000000　　　　　　　　　　　　　　　　　　　　　　　　　　　　　　　　　　　　　　　　　　　　　　　　　　　　　　　　　　　　　　　　　　　　　　　　　　　　　　　　　　　　　　　　　　　　570000000000000000デフリー　　　　00       00004000000 34      0000000000000000000000000000000000000000000000000000LONG RIVER                          0000000000　　　　　　　　　　　　　　　　　　0000000000　　　　　　　　　　　　　　　　　　0000000000000000000000
SEB2017031320170304C70000060040000000000FURIA CRUZADA                       00210006000000シャルピ000000　　　　　　　　　　　　　　　　　　　　　　　　　　　　　　　　　　　　　　　　　　　　　　　　　　　　　　　　　　　　　　　　　　　　　　　　　　　　　　　　　　　　　　　　　　　　550000000000000000フレス　　　　　00       00003000000114      0000000000000000000000000000000000000000000000000000LONG RIVER                          0000000000　　　　　　　　　　　　　　　　　　0000000000　　　　　　　　　　　　　　　　　　0000000000000000000000
SEB2017031320170304C70000060050000000000SPECIAL FIGHTER                     00110006000000リッチー000000　　　　　　　　　　　　　　　　　　　　　　　　　　　　　　　　　　　　　　　　　　　　　　　　　　　　　　　　　　　　　　　　　　　　　　　　　　　　　　　　　　　　　　　　　　　　570000000000000000ハラ　　　　　　00       00002000000114      0000000000000000000000000000000000000000000000000000LONG RIVER                          0000000000　　　　　　　　　　　　　　　　　　0000000000　　　　　　　　　　　　　　　　　　0000000000000000000000
SEB2017031320170304C70000060060000000000SECOND SUMMER                       00310005000000ワトソン000000　　　　　　　　　　　　　　　　　　　　　　　　　　　　　　　　　　　　　　　　　　　　　　　　　　　　　　　　　　　　　　　　　　　　　　　　　　　　　　　　　　　　　　　　　　　　570000000000000000ドッブス　　　　00       00007000000 12      0000000000000000000000000000000000000000000000000000LONG RIVER                          0000000000　　　　　　　　　　　　　　　　　　0000000000　　　　　　　　　　　　　　　　　　0000000000000000000000
SEB2017031320170304C70000060070000000000MIZBAH                              00310008000000ワトソン000000　　　　　　　　　　　　　　　　　　　　　　　　　　　　　　　　　　　　　　　　　　　　　　　　　　　　　　　　　　　　　　　　　　　　　　　　　　　　　　　　　　　　　　　　　　　　570000000000000000ヒッチコ　　　　00       00008000000T        0000000000000000000000000000000000000000000000000000LONG RIVER                          0000000000　　　　　　　　　　　　　　　　　　0000000000　　　　　　　　　　　　　　　　　　0000000000000000000000
SEB2017040620170304C70000020102014105108ディオスコリダー　　　　　　　　　　00110403201129高橋義忠258033野嶋　祥二　　　　　　　　　　　　　　　　　　　　　　　　　　　紫，袖緑元禄　　　　　　　　　　　　　　　　　　　　　　　　　　　　　　　　　　　　　　　　　　　　　　　　　　　　　　550000000000000000アッゼニ　　　　00       007070000004        0000000000000000000000000000000000000000000000000000MORAWIJ                             0000000000　　　　　　　　　　　　　　　　　　0000000000　　　　　　　　　　　　　　　　　　0000000000000000000000
SEB2017040620170304C70000060082013110045ラニ　　　　　　　　　　　　　　　　06110704201092松永幹夫245030前田　葉子　　　　　　　　　　　　　　　　　　　　　　　　　　　水色，赤十字襷，赤袖水色二本輪　　　　　　　　　　　　　　　　　　　　　　　　　　　　　　　　　　　　　　　　　　　　　570000000000000000ムーア　　　　　00       006060000007        0000000000000000000000000000000000000000000000000000LONG RIVER                          0000000000　　　　　　　　　　　　　　　　　　0000000000　　　　　　　　　　　　　　　　　　0000000000000000000000
SEB2017040620170325C70000010010000000000ROSS                                00110005000000シールゲ000000　　　　　　　　　　　　　　　　　　　　　　　　　　　　　　　　　　　　　　　　　　　　　　　　　　　　　　　　　　　　　　　　　　　　　　　　　　　　　　　　　　　　　　　　　　　　570000000000000000アッゼニ　　　　00       00002000000K        0000000000000000000000000000000000000000000000000000SECOND SUMMER                       0000000000　　　　　　　　　　　　　　　　　　0000000000　　　　　　　　　　　　　　　　　　0000000000000000000000
SEB2017040620170325C70000010020000000000FARRIER                             00310009000000シーマー000000　　　　　　　　　　　　　　　　　　　　　　　　　　　　　　　　　　　　　　　　　　　　　　　　　　　　　　　　　　　　　　　　　　　　　　　　　　　　　　　　　　　　　　　　　　　　570000000000000000コスグレ　　　　00       00006000000214      0000000000000000000000000000000000000000000000000000SECOND SUMMER                       0000000000　　　　　　　　　　　　　　　　　　0000000000　　　　　　　　　　　　　　　　　　0000000000000000000000
SEB2017040620170325C70000010030000000000LE BERNARDIN                        00110008000000アル・ラ000000　　　　　　　　　　　　　　　　　　　　　　　　　　　　　　　　　　　　　　　　　　　　　　　　　　　　　　　　　　　　　　　　　　　　　　　　　　　　　　　　　　　　　　　　　　　　570000000000000000オシェア　　　　00       00012000000412      0000000000000000000000000000000000000000000000000000SECOND SUMMER                       0000000000　　　　　　　　　　　　　　　　　　0000000000　　　　　　　　　　　　　　　　　　0000000000000000000000
SEB2017040620170325C70000010040000000000GIFTED MASTER                       00310004000000パーマー000000　　　　　　　　　　　　　　　　　　　　　　　　　　　　　　　　　　　　　　　　　　　　　　　　　　　　　　　　　　　　　　　　　　　　　　　　　　　　　　　　　　　　　　　　　　　　570000000000000000ムーア　　　　　00       000090000001        0000000000000000000000000000000000000000000000000000SECOND SUMMER                       0000000000　　　　　　　　　　　　　　　　　　0000000000　　　　　　　　　　　　　　　　　　0000000000000000000000
SEB2017040620170325C70000010050000000000SECOND SUMMER                       00310005000000ワトソン000000　　　　　　　　　　　　　　　　　　　　　　　　　　　　　　　　　　　　　　　　　　　　　　　　　　　　　　　　　　　　　　　　　　　　　　　　　　　　　　　　　　　　　　　　　　　　570000000000000000ドッブス　　　　00       00001001356         0000000000000000000000000000000000000000000000000000ROSS                                0000000000　　　　　　　　　　　　　　　　　　0000000000　　　　　　　　　　　　　　　　　　0000000000000000000000
SEB2017040620170325C70000010060000000000SHARP AZTECA                        00110004000000ナヴァロ000000　　　　　　　　　　　　　　　　　　　　　　　　　　　　　　　　　　　　　　　　　　　　　　　　　　　　　　　　　　　　　　　　　　　　　　　　　　　　　　　　　　　　　　　　　　　　570000000000000000ザヤス　　　　　00       00003000000 34      0000000000000000000000000000000000000000000000000000SECOND SUMMER                       0000000000　　　　　　　　　　　　　　　　　　0000000000　　　　　　　　　　　　　　　　　　0000000000000000000000
SEB2017040620170325C70000010070000000000NORTH AMERICA                       00310005000000シーマー000000　　　　　　　　　　　　　　　　　　　　　　　　　　　　　　　　　　　　　　　　　　　　　　　　　　　　　　　　　　　　　　　　　　　　　　　　　　　　　　　　　　　　　　　　　　　　570000000000000000マレン　　　　　00       000100000002        0000000000000000000000000000000000000000000000000000SECOND SUMMER                       0000000000　　　　　　　　　　　　　　　　　　0000000000　　　　　　　　　　　　　　　　　　0000000000000000000000
SEB2017040620170325C70000010080000000000HEAVY METAL                         00310007000000ビン・ガ000000　　　　　　　　　　　　　　　　　　　　　　　　　　　　　　　　　　　　　　　　　　　　　　　　　　　　　　　　　　　　　　　　　　　　　　　　　　　　　　　　　　　　　　　　　　　　570000000000000000バルザロ　　　　00       00008000000814      0000000000000000000000000000000000000000000000000000SECOND SUMMER                       0000000000　　　　　　　　　　　　　　　　　　0000000000　　　　　　　　　　　　　　　　　　0000000000000000000000
SEB2017040620170325C70000010090000000000STORMARDAL                          00310006000000モハメッ000000　　　　　　　　　　　　　　　　　　　　　　　　　　　　　　　　　　　　　　　　　　　　　　　　　　　　　　　　　　　　　　　　　　　　　　　　　　　　　　　　　　　　　　　　　　　　570000000000000000デフリー　　　　00       40000000000         0000000000000000000000000000000000000009990000000000SECOND SUMMER                       0000000000　　　　　　　　　　　　　　　　　　0000000000　　　　　　　　　　　　　　　　　　9999000000000000000000
SEB2017040620170325C70000010100000000000ETIJAAH                             00310007000000ワトソン000000　　　　　　　　　　　　　　　　　　　　　　　　　　　　　　　　　　　　　　　　　　　　　　　　　　　　　　　　　　　　　　　　　　　　　　　　　　　　　　　　　　　　　　　　　　　　570000000000000000クローリ　　　　00       000070000006        0000000000000000000000000000000000000000000000000000SECOND SUMMER                       0000000000　　　　　　　　　　　　　　　　　　0000000000　　　　　　　　　　　　　　　　　　0000000000000000000000
SEB2017040620170325C70000010110000000000TRIPLE NINE                         00110005000000キム　　000000　　　　　　　　　　　　　　　　　　　　　　　　　　　　　　　　　　　　　　　　　　　　　　　　　　　　　　　　　　　　　　　　　　　　　　　　　　　　　　　　　　　　　　　　　　　　570000000000000000ロッド　　　　　00       00011000000T        0000000000000000000000000000000000000000000000000000SECOND SUMMER                       0000000000　　　　　　　　　　　　　　　　　　0000000000　　　　　　　　　　　　　　　　　　0000000000000000000000
SEB2017040620170325C70000010120000000000FITZGERALD                          00310005000000ビン・ハ000000　　　　　　　　　　　　　　　　　　　　　　　　　　　　　　　　　　　　　　　　　　　　　　　　　　　　　　　　　　　　　　　　　　　　　　　　　　　　　　　　　　　　　　　　　　　　570000000000000000オドノヒ　　　　00       00004000000414      0000000000000000000000000000000000000000000000000000SECOND SUMMER                       0000000000　　　　　　　　　　　　　　　　　　0000000000　　　　　　　　　　　　　　　　　　0000000000000000000000
SEB2017040620170325C70000010132012106056カフジテイク　　　　　　　　　　　　00110505201057湯窪幸雄019004加藤　守　　　　　　　　　　　　　　　　　　　　　　　　　　　　白，赤玉霰，赤袖　　　　　　　　　　　　　　　　　　　　　　　　　　　　　　　　　　　　　　　　　　　　　　　　　　　　570000000101400000福永祐一　　　　00       00505000000112      0000000000000000000000000000000000000000000000000000SECOND SUMMER                       0000000000　　　　　　　　　　　　　　　　　　0000000000　　　　　　　　　　　　　　　　　　0000000000000000000000
SEB2017040620170325C70000040010000000000QATAR MAN                           00110003000000ボッティ000000　　　　　　　　　　　　　　　　　　　　　　　　　　　　　　　　　　　　　　　　　　　　　　　　　　　　　　　　　　　　　　　　　　　　　　　　　　　　　　　　　　　　　　　　　　　　550000000000000000オドノヒ　　　　00       00006000000234      0000000000000000000000000000000000000000000000000000THUNDER SNOW                        0000000000　　　　　　　　　　　　　　　　　　0000000000　　　　　　　　　　　　　　　　　　0000000000000000000000
SEB2017040620170325C70000040020000000000MASTER PLAN                         00110003000000プレッチ000000　　　　　　　　　　　　　　　　　　　　　　　　　　　　　　　　　　　　　　　　　　　　　　　　　　　　　　　　　　　　　　　　　　　　　　　　　　　　　　　　　　　　　　　　　　　　550000000000000000ヴェラス　　　　00       00003000000114      0000000000000000000000000000000000000000000000000000THUNDER SNOW                        0000000000　　　　　　　　　　　　　　　　　　0000000000　　　　　　　　　　　　　　　　　　0000000000000000000000
SEB2017040620170325C70000040030000000000LANCASTER BOMBER                    00110003000000オブライ000000　　　　　　　　　　　　　　　　　　　　　　　　　　　　　　　　　　　　　　　　　　　　　　　　　　　　　　　　　　　　　　　　　　　　　　　　　　　　　　　　　　　　　　　　　　　　550000000000000000ムーア　　　　　00       00004000000 34      0000000000000000000000000000000000000000000000000000THUNDER SNOW                        0000000000　　　　　　　　　　　　　　　　　　0000000000　　　　　　　　　　　　　　　　　　0000000000000000000000
SEB2017040620170325C70000040040000000000MIDNIGHT CHICA                      00210003000000セルヴァ000000　　　　　　　　　　　　　　　　　　　　　　　　　　　　　　　　　　　　　　　　　　　　　　　　　　　　　　　　　　　　　　　　　　　　　　　　　　　　　　　　　　　　　　　　　　　　530000000000000000ヘイズ　　　　　00       00016000000H        0000000000000000000000000000000000000000000000000000THUNDER SNOW                        0000000000　　　　　　　　　　　　　　　　　　0000000000　　　　　　　　　　　　　　　　　　0000000000000000000000
SEB2017040620170325C70000040050000000000TOP SCORE                           00110003000000ビン・ス000000　　　　　　　　　　　　　　　　　　　　　　　　　　　　　　　　　　　　　　　　　　　　　　　　　　　　　　　　　　　　　　　　　　　　　　　　　　　　　　　　　　　　　　　　　　　　550000000000000000デフリー　　　　00       00011000000K        0000000000000000000000000000000000000000000000000000THUNDER SNOW                        0000000000　　　　　　　　　　　　　　　　　　0000000000　　　　　　　　　　　　　　　　　　0000000000000000000000
SEB2017040620170325C70000040060000000000FAWREE                              00110003000000デコック000000　　　　　　　　　　　　　　　　　　　　　　　　　　　　　　　　　　　　　　　　　　　　　　　　　　　　　　　　　　　　　　　　　　　　　　　　　　　　　　　　　　　　　　　　　　　　550000000000000000フェデル　　　　00       000070000005        0000000000000000000000000000000000000000000000000000THUNDER SNOW                        0000000000　　　　　　　　　　　　　　　　　　0000000000　　　　　　　　　　　　　　　　　　0000000000000000000000
SEB2017040620170325C70000040070000000000BEE JERSEY                          00110003000000ワトソン000000　　　　　　　　　　　　　　　　　　　　　　　　　　　　　　　　　　　　　　　　　　　　　　　　　　　　　　　　　　　　　　　　　　　　　　　　　　　　　　　　　　　　　　　　　　　　550000000000000000ヒッチコ　　　　00       00015000000114      0000000000000000000000000000000000000000000000000000THUNDER SNOW                        0000000000　　　　　　　　　　　　　　　　　　0000000000　　　　　　　　　　　　　　　　　　0000000000000000000000
SEB2017040620170325C70000040080000000000VETTORI KIN                         00110004000000マクピー000000　　　　　　　　　　　　　　　　　　　　　　　　　　　　　　　　　　　　　　　　　　　　　　　　　　　　　　　　　　　　　　　　　　　　　　　　　　　　　　　　　　　　　　　　　　　　595000000000000000ロザリオ　　　　00       00010000000K        0000000000000000000000000000000000000000000000000000THUNDER SNOW                        0000000000　　　　　　　　　　　　　　　　　　0000000000　　　　　　　　　　　　　　　　　　0000000000000000000000
SEB2017040620170325C70000040090000000000FLY AT DAWN                         00110003000000アップル000000　　　　　　　　　　　　　　　　　　　　　　　　　　　　　　　　　　　　　　　　　　　　　　　　　　　　　　　　　　　　　　　　　　　　　　　　　　　　　　　　　　　　　　　　　　　　550000000000000000ビュイッ　　　　00       000050000002        0000000000000000000000000000000000000000000000000000THUNDER SNOW                        0000000000　　　　　　　　　　　　　　　　　　0000000000　　　　　　　　　　　　　　　　　　0000000000000000000000
SEB2017040620170325C70000040102014103121エピカリス　　　　　　　　　　　　　00110403101017萩原清　486800キャロットファーム　　　　　　　　　　　　　　　　　　　　　　　緑，白二本輪，白袖赤一本輪　　　　　　　　　　　　　　　　　　　　　　　　　　　　　　　　　　　　　　　　　　　　　　　550000000533900000ルメール　　　　00       00202000000A        0000000000000000000000000000000000000000000000000000THUNDER SNOW                        0000000000　　　　　　　　　　　　　　　　　　0000000000　　　　　　　　　　　　　　　　　　0000000000000000000000
SEB2017040620170325C70000040110000000000HE RUNS AWAY                        00110004000000コロンボ000000　　　　　　　　　　　　　　　　　　　　　　　　　　　　　　　　　　　　　　　　　　　　　　　　　　　　　　　　　　　　　　　　　　　　　　　　　　　　　　　　　　　　　　　　　　　　595000000000000000デソウサ　　　　00       00009000000414      0000000000000000000000000000000000000000000000000000THUNDER SNOW                        0000000000　　　　　　　　　　　　　　　　　　0000000000　　　　　　　　　　　　　　　　　　0000000000000000000000
SEB2017040620170325C70000040120000000000SPIRIT OF VALOR                     00110003000000オブライ000000　　　　　　　　　　　　　　　　　　　　　　　　　　　　　　　　　　　　　　　　　　　　　　　　　　　　　　　　　　　　　　　　　　　　　　　　　　　　　　　　　　　　　　　　　　　　550000000000000000ヘファナ　　　　00       00008000000 12      0000000000000000000000000000000000000000000000000000THUNDER SNOW                        0000000000　　　　　　　　　　　　　　　　　　0000000000　　　　　　　　　　　　　　　　　　0000000000000000000000
SEB2017040620170325C70000040130000000000THUNDER SNOW                        00110003000000ビン・ス000000　　　　　　　　　　　　　　　　　　　　　　　　　　　　　　　　　　　　　　　　　　　　　　　　　　　　　　　　　　　　　　　　　　　　　　　　　　　　　　　　　　　　　　　　　　　　550000000000000000スミヨン　　　　00       00001001577         0000000000000000000000000000000000000000002014103121エピカリス　　　　　　　　　　　　　0000000000　　　　　　　　　　　　　　　　　　0000000000　　　　　　　　　　　　　　　　　　0000000000000000000000
SEB2017040620170325C70000040140000000000NOMORERICHBLONDES                   00210003000000ビン・ハ000000　　　　　　　　　　　　　　　　　　　　　　　　　　　　　　　　　　　　　　　　　　　　　　　　　　　　　　　　　　　　　　　　　　　　　　　　　　　　　　　　　　　　　　　　　　　　530000000000000000フレス　　　　　00       00014000000T        0000000000000000000000000000000000000000000000000000THUNDER SNOW                        0000000000　　　　　　　　　　　　　　　　　　0000000000　　　　　　　　　　　　　　　　　　0000000000000000000000
SEB2017040620170325C70000040150000000000COSMO CHARLIE                       00110003000000ワトソン000000　　　　　　　　　　　　　　　　　　　　　　　　　　　　　　　　　　　　　　　　　　　　　　　　　　　　　　　　　　　　　　　　　　　　　　　　　　　　　　　　　　　　　　　　　　　　550000000000000000ドッブス　　　　00       00013000000T        0000000000000000000000000000000000000000000000000000THUNDER SNOW                        0000000000　　　　　　　　　　　　　　　　　　0000000000　　　　　　　　　　　　　　　　　　0000000000000000000000
SEB2017040620170325C70000040162014101173アディラート　　　　　　　　　　　　00110403201105須貝尚介271008安原　浩司　　　　　　　　　　　　　　　　　　　　　　　　　　　水色，黒縦縞，袖赤一本輪　　　　　　　　　　　　　　　　　　　　　　　　　　　　　　　　　　　　　　　　　　　　　　　　550000000066600000武豊　　　　　　00       012120000002        0000000000000000000000000000000000000000000000000000THUNDER SNOW                        0000000000　　　　　　　　　　　　　　　　　　0000000000　　　　　　　　　　　　　　　　　　0000000000000000000000
SEB2017040620170325C70000060010000000000STALLWALKIN' DUDE                   00310007000000ジェイコ000000　　　　　　　　　　　　　　　　　　　　　　　　　　　　　　　　　　　　　　　　　　　　　　　　　　　　　　　　　　　　　　　　　　　　　　　　　　　　　　　　　　　　　　　　　　　　600000000000000000ジェルー　　　　00       00006000000A        0000000000000000000000000000000000000000000000000000MIND YOUR BISCUITS                  0000000000　　　　　　　　　　　　　　　　　　0000000000　　　　　　　　　　　　　　　　　　0000000000000000000000
SEB2017040620170325C70000060020000000000MORAWIJ                             00310007000000セルヴァ000000　　　　　　　　　　　　　　　　　　　　　　　　　　　　　　　　　　　　　　　　　　　　　　　　　　　　　　　　　　　　　　　　　　　　　　　　　　　　　　　　　　　　　　　　　　　　600000000000000000ヘイズ　　　　　00       00003000000H        0000000000000000000000000000000000000000000000000000MIND YOUR BISCUITS                  0000000000　　　　　　　　　　　　　　　　　　0000000000　　　　　　　　　　　　　　　　　　0000000000000000000000
SEB2017040620170325C70000060030000000000WILD DUDE                           00110007000000ハルフォ000000　　　　　　　　　　　　　　　　　　　　　　　　　　　　　　　　　　　　　　　　　　　　　　　　　　　　　　　　　　　　　　　　　　　　　　　　　　　　　　　　　　　　　　　　　　　　600000000000000000モレイラ　　　　00       000130000006        0000000000000000000000000000000000000000000000000000MIND YOUR BISCUITS                  0000000000　　　　　　　　　　　　　　　　　　0000000000　　　　　　　　　　　　　　　　　　0000000000000000000000
SEB2017040620170325C70000060040000000000DUNDONNELL                          00310007000000ファウン000000　　　　　　　　　　　　　　　　　　　　　　　　　　　　　　　　　　　　　　　　　　　　　　　　　　　　　　　　　　　　　　　　　　　　　　　　　　　　　　　　　　　　　　　　　　　　600000000000000000スミヨン　　　　00       00009000000 34      0000000000000000000000000000000000000000000000000000MIND YOUR BISCUITS                  0000000000　　　　　　　　　　　　　　　　　　0000000000　　　　　　　　　　　　　　　　　　0000000000000000000000
SEB2017040620170325C70000060050000000000COOL COWBOY                         00110006000000ワトソン000000　　　　　　　　　　　　　　　　　　　　　　　　　　　　　　　　　　　　　　　　　　　　　　　　　　　　　　　　　　　　　　　　　　　　　　　　　　　　　　　　　　　　　　　　　　　　600000000000000000ドッブス　　　　00       00005000000134      0000000000000000000000000000000000000000000000000000MIND YOUR BISCUITS                  0000000000　　　　　　　　　　　　　　　　　　0000000000　　　　　　　　　　　　　　　　　　0000000000000000000000
SEB2017040620170325C70000060060000000000MUARRAB                             00310008000000アル・ラ000000　　　　　　　　　　　　　　　　　　　　　　　　　　　　　　　　　　　　　　　　　　　　　　　　　　　　　　　　　　　　　　　　　　　　　　　　　　　　　　　　　　　　　　　　　　　　600000000000000000クローリ　　　　00       00014000000 12      0000000000000000000000000000000000000000000000000000MIND YOUR BISCUITS                  0000000000　　　　　　　　　　　　　　　　　　0000000000　　　　　　　　　　　　　　　　　　0000000000000000000000
SEB2017040620170325C70000060072014105108ディオスコリダー　　　　　　　　　　00110403201129高橋義忠258033野嶋　祥二　　　　　　　　　　　　　　　　　　　　　　　　　　　紫，袖緑元禄　　　　　　　　　　　　　　　　　　　　　　　　　　　　　　　　　　　　　　　　　　　　　　　　　　　　　　560000000000000000フォーリ　　　　00       01111000000212      0000000000000000000000000000000000000000000000000000MIND YOUR BISCUITS                  0000000000　　　　　　　　　　　　　　　　　　0000000000　　　　　　　　　　　　　　　　　　0000000000000000000000
SEB2017040620170325C70000060080000000000MY CATCH                            00310006000000ワトソン000000　　　　　　　　　　　　　　　　　　　　　　　　　　　　　　　　　　　　　　　　　　　　　　　　　　　　　　　　　　　　　　　　　　　　　　　　　　　　　　　　　　　　　　　　　　　　600000000000000000ヒッチコ　　　　00       00010000000H        0000000000000000000000000000000000000000000000000000MIND YOUR BISCUITS                  0000000000　　　　　　　　　　　　　　　　　　0000000000　　　　　　　　　　　　　　　　　　0000000000000000000000
SEB2017040620170325C70000060090000000000HIGH ON LIFE                        00310006000000ビン・ガ000000　　　　　　　　　　　　　　　　　　　　　　　　　　　　　　　　　　　　　　　　　　　　　　　　　　　　　　　　　　　　　　　　　　　　　　　　　　　　　　　　　　　　　　　　　　　　600000000000000000フレンチ　　　　00       00012000000 34      0000000000000000000000000000000000000000000000000000MIND YOUR BISCUITS                  0000000000　　　　　　　　　　　　　　　　　　0000000000　　　　　　　　　　　　　　　　　　0000000000000000000000
SEB2017040620170325C70000060100000000000NOT LISTENIN'TOME                   00310007000000ムーア　000000　　　　　　　　　　　　　　　　　　　　　　　　　　　　　　　　　　　　　　　　　　　　　　　　　　　　　　　　　　　　　　　　　　　　　　　　　　　　　　　　　　　　　　　　　　　　600000000000000000ベリー　　　　　00       00007000000 34      0000000000000000000000000000000000000000000000000000MIND YOUR BISCUITS                  0000000000　　　　　　　　　　　　　　　　　　0000000000　　　　　　　　　　　　　　　　　　0000000000000000000000
SEB2017040620170325C70000060110000000000ST.JOE BAY                          00310005000000ミラー　000000　　　　　　　　　　　　　　　　　　　　　　　　　　　　　　　　　　　　　　　　　　　　　　　　　　　　　　　　　　　　　　　　　　　　　　　　　　　　　　　　　　　　　　　　　　　　600000000000000000アロヨ　　　　　00       00004000000 12      0000000000000000000000000000000000000000000000000000MIND YOUR BISCUITS                  0000000000　　　　　　　　　　　　　　　　　　0000000000　　　　　　　　　　　　　　　　　　0000000000000000000000
SEB2017040620170325C70000060120000000000REYNALDOTHEWIZARD                   00310011000000シーマー000000　　　　　　　　　　　　　　　　　　　　　　　　　　　　　　　　　　　　　　　　　　　　　　　　　　　　　　　　　　　　　　　　　　　　　　　　　　　　　　　　　　　　　　　　　　　　600000000000000000マレン　　　　　00       00008000000114      0000000000000000000000000000000000000000000000000000MIND YOUR BISCUITS                  0000000000　　　　　　　　　　　　　　　　　　0000000000　　　　　　　　　　　　　　　　　　0000000000000000000000
SEB2017040620170325C70000060130000000000COMICAS                             00310004000000アップル000000　　　　　　　　　　　　　　　　　　　　　　　　　　　　　　　　　　　　　　　　　　　　　　　　　　　　　　　　　　　　　　　　　　　　　　　　　　　　　　　　　　　　　　　　　　　　600000000000000000ビュイッ　　　　00       000020000003        0000000000000000000000000000000000000000000000000000MIND YOUR BISCUITS                  0000000000　　　　　　　　　　　　　　　　　　0000000000　　　　　　　　　　　　　　　　　　0000000000000000000000
SEB2017040620170325C70000060140000000000MIND YOUR BISCUITS                  00110004000000サマーズ000000　　　　　　　　　　　　　　　　　　　　　　　　　　　　　　　　　　　　　　　　　　　　　　　　　　　　　　　　　　　　　　　　　　　　　　　　　　　　　　　　　　　　　　　　　　　　600000000000000000ロザリオ　　　　00       00001001109         0000000000000000000000000000000000000000000000000000COMICAS                             0000000000　　　　　　　　　　　　　　　　　　0000000000　　　　　　　　　　　　　　　　　　0000000000000000000000
SEB2017040620170325C70000070010000000000RIBCHESTER                          00110004000000フェイヒ000000　　　　　　　　　　　　　　　　　　　　　　　　　　　　　　　　　　　　　　　　　　　　　　　　　　　　　　　　　　　　　　　　　　　　　　　　　　　　　　　　　　　　　　　　　　　　570000000000000000ビュイッ　　　　00       00003000000 12      0000000000000000000000000000000000000000002013106007ヴィブロス　　　　　　　　　　　　　0000000000　　　　　　　　　　　　　　　　　　0000000000　　　　　　　　　　　　　　　　　　0000000000000000000000
SEB2017040620170325C70000070020000000000ZARAK                               00110004000000ドゥロワ000000　　　　　　　　　　　　　　　　　　　　　　　　　　　　　　　　　　　　　　　　　　　　　　　　　　　　　　　　　　　　　　　　　　　　　　　　　　　　　　　　　　　　　　　　　　　　570000000000000000スミヨン　　　　00       00004000000134      0000000000000000000000000000000000000000002013106007ヴィブロス　　　　　　　　　　　　　0000000000　　　　　　　　　　　　　　　　　　0000000000　　　　　　　　　　　　　　　　　　0000000000000000000000
SEB2017040620170325C70000070030000000000HESHEM                              00110004000000フェルラ000000　　　　　　　　　　　　　　　　　　　　　　　　　　　　　　　　　　　　　　　　　　　　　　　　　　　　　　　　　　　　　　　　　　　　　　　　　　　　　　　　　　　　　　　　　　　　570000000000000000ブノワ　　　　　00       00002000000 12      0000000000000000000000000000000000000000002013106007ヴィブロス　　　　　　　　　　　　　0000000000　　　　　　　　　　　　　　　　　　0000000000　　　　　　　　　　　　　　　　　　0000000000000000000000
SEB2017040620170325C70000070040000000000DECORATED KNIGHT                    00110005000000チャール000000　　　　　　　　　　　　　　　　　　　　　　　　　　　　　　　　　　　　　　　　　　　　　　　　　　　　　　　　　　　　　　　　　　　　　　　　　　　　　　　　　　　　　　　　　　　　570000000000000000アッゼニ　　　　00       00006000000114      0000000000000000000000000000000000000000002013106007ヴィブロス　　　　　　　　　　　　　0000000000　　　　　　　　　　　　　　　　　　0000000000　　　　　　　　　　　　　　　　　　0000000000000000000000
SEB2017040620170325C70000070050000000000OPAL TIARA                          00210004000000シャノン000000　　　　　　　　　　　　　　　　　　　　　　　　　　　　　　　　　　　　　　　　　　　　　　　　　　　　　　　　　　　　　　　　　　　　　　　　　　　　　　　　　　　　　　　　　　　　550000000000000000マーフィ　　　　00       00013000000T        0000000000000000000000000000000000000000002013106007ヴィブロス　　　　　　　　　　　　　0000000000　　　　　　　　　　　　　　　　　　0000000000　　　　　　　　　　　　　　　　　　0000000000000000000000
SEB2017040620170325C70000070060000000000MUTAKAYYEF                          00310006000000ハガス　000000　　　　　　　　　　　　　　　　　　　　　　　　　　　　　　　　　　　　　　　　　　　　　　　　　　　　　　　　　　　　　　　　　　　　　　　　　　　　　　　　　　　　　　　　　　　　570000000000000000クローリ　　　　00       000050000003        0000000000000000000000000000000000000000002013106007ヴィブロス　　　　　　　　　　　　　0000000000　　　　　　　　　　　　　　　　　　0000000000　　　　　　　　　　　　　　　　　　0000000000000000000000
SEB2017040620170325C70000070070000000000MONDIALISTE                         00110007000000オメーラ000000　　　　　　　　　　　　　　　　　　　　　　　　　　　　　　　　　　　　　　　　　　　　　　　　　　　　　　　　　　　　　　　　　　　　　　　　　　　　　　　　　　　　　　　　　　　　570000000000000000タドホー　　　　00       00011000000414      0000000000000000000000000000000000000000002013106007ヴィブロス　　　　　　　　　　　　　0000000000　　　　　　　　　　　　　　　　　　0000000000　　　　　　　　　　　　　　　　　　0000000000000000000000
SEB2017040620170325C70000070080000000000VERY SPECIAL                        00210005000000ビン・ス000000　　　　　　　　　　　　　　　　　　　　　　　　　　　　　　　　　　　　　　　　　　　　　　　　　　　　　　　　　　　　　　　　　　　　　　　　　　　　　　　　　　　　　　　　　　　　550000000000000000デソウサ　　　　00       00010000000412      0000000000000000000000000000000000000000002013106007ヴィブロス　　　　　　　　　　　　　0000000000　　　　　　　　　　　　　　　　　　0000000000　　　　　　　　　　　　　　　　　　0000000000000000000000
SEB2017040620170325C70000070092013106007ヴィブロス　　　　　　　　　　　　　00210604201061友道康夫006030佐々木　主浩　　　　　　　　　　　　　　　　　　　　　　　　　　水色，白袖青二本輪，青鋸歯形　　　　　　　　　　　　　　　　　　　　　　　　　　　　　　　　　　　　　　　　　　　　　　550000000000000000モレイラ　　　　00       00101001502         0000000000000000000000000000000000000000000000000000HESHEM                              0000000000　　　　　　　　　　　　　　　　　　0000000000　　　　　　　　　　　　　　　　　　0000000000000000000000
SEB2017040620170325C70000070100000000000DEBT COLLECTOR                      00310005000000ブラウン000000　　　　　　　　　　　　　　　　　　　　　　　　　　　　　　　　　　　　　　　　　　　　　　　　　　　　　　　　　　　　　　　　　　　　　　　　　　　　　　　　　　　　　　　　　　　　570000000000000000ロッド　　　　　00       00009000000114      0000000000000000000000000000000000000000002013106007ヴィブロス　　　　　　　　　　　　　0000000000　　　　　　　　　　　　　　　　　　0000000000　　　　　　　　　　　　　　　　　　0000000000000000000000
SEB2017040620170325C70000070110000000000COUGAR MOUNTAIN                     00110006000000オブライ000000　　　　　　　　　　　　　　　　　　　　　　　　　　　　　　　　　　　　　　　　　　　　　　　　　　　　　　　　　　　　　　　　　　　　　　　　　　　　　　　　　　　　　　　　　　　　570000000000000000オブライ　　　　00       00008000000114      0000000000000000000000000000000000000000002013106007ヴィブロス　　　　　　　　　　　　　0000000000　　　　　　　　　　　　　　　　　　0000000000　　　　　　　　　　　　　　　　　　0000000000000000000000
SEB2017040620170325C70000070120000000000DEAUVILLE                           00110004000000オブライ000000　　　　　　　　　　　　　　　　　　　　　　　　　　　　　　　　　　　　　　　　　　　　　　　　　　　　　　　　　　　　　　　　　　　　　　　　　　　　　　　　　　　　　　　　　　　　570000000000000000ムーア　　　　　00       00007000000K        0000000000000000000000000000000000000000002013106007ヴィブロス　　　　　　　　　　　　　0000000000　　　　　　　　　　　　　　　　　　0000000000　　　　　　　　　　　　　　　　　　0000000000000000000000
SEB2017040620170325C70000070130000000000LONG ISLAND SOUND                   00110004000000オブライ000000　　　　　　　　　　　　　　　　　　　　　　　　　　　　　　　　　　　　　　　　　　　　　　　　　　　　　　　　　　　　　　　　　　　　　　　　　　　　　　　　　　　　　　　　　　　　570000000000000000ヘファナ　　　　00       000120000002        0000000000000000000000000000000000000000002013106007ヴィブロス　　　　　　　　　　　　　0000000000　　　　　　　　　　　　　　　　　　0000000000　　　　　　　　　　　　　　　　　　0000000000000000000000
SEB2017040620170325C70000080010000000000EARNSHAW                            00110006000000ビン・ガ000000　　　　　　　　　　　　　　　　　　　　　　　　　　　　　　　　　　　　　　　　　　　　　　　　　　　　　　　　　　　　　　　　　　　　　　　　　　　　　　　　　　　　　　　　　　　　570000000000000000バルザロ　　　　00       00005000000214      0000000000000000000000000000000000000000000000000000JACK HOBBS                          0000000000　　　　　　　　　　　　　　　　　　0000000000　　　　　　　　　　　　　　　　　　0000000000000000000000
SEB2017040620170325C70000080020000000000JACK HOBBS                          00110005000000ゴスデン000000　　　　　　　　　　　　　　　　　　　　　　　　　　　　　　　　　　　　　　　　　　　　　　　　　　　　　　　　　　　　　　　　　　　　　　　　　　　　　　　　　　　　　　　　　　　　570000000000000000ビュイッ　　　　00       00001002323         0000000000000000000000000000000000000000000000000000SEVENTH HEAVEN                      0000000000　　　　　　　　　　　　　　　　　　0000000000　　　　　　　　　　　　　　　　　　0000000000000000000000
SEB2017040620170325C70000080030000000000HIGHLAND REEL                       00110005000000オブライ000000　　　　　　　　　　　　　　　　　　　　　　　　　　　　　　　　　　　　　　　　　　　　　　　　　　　　　　　　　　　　　　　　　　　　　　　　　　　　　　　　　　　　　　　　　　　　570000000000000000ムーア　　　　　00       00007000000112      0000000000000000000000000000000000000000000000000000JACK HOBBS                          0000000000　　　　　　　　　　　　　　　　　　0000000000　　　　　　　　　　　　　　　　　　0000000000000000000000
SEB2017040620170325C70000080042011104377サウンズオブアース　　　　　　　　　00110406201062藤岡健一758005吉田　照哉　　　　　　　　　　　　　　　　　　　　　　　　　　　黄，黒縦縞，赤袖　　　　　　　　　　　　　　　　　　　　　　　　　　　　　　　　　　　　　　　　　　　　　　　　　　　　570000000533900000ルメール　　　　00       006060000004        0000000000000000000000000000000000000000000000000000JACK HOBBS                          0000000000　　　　　　　　　　　　　　　　　　0000000000　　　　　　　　　　　　　　　　　　0000000000000000000000
SEB2017040620170325C70000080050000000000PRIZE MONEY                         00310004000000ビン・ス000000　　　　　　　　　　　　　　　　　　　　　　　　　　　　　　　　　　　　　　　　　　　　　　　　　　　　　　　　　　　　　　　　　　　　　　　　　　　　　　　　　　　　　　　　　　　　565000000000000000デフリー　　　　00       00004000000 12      0000000000000000000000000000000000000000000000000000JACK HOBBS                          0000000000　　　　　　　　　　　　　　　　　　0000000000　　　　　　　　　　　　　　　　　　0000000000000000000000
SEB2017040620170325C70000080060000000000SEVENTH HEAVEN                      00210004000000オブライ000000　　　　　　　　　　　　　　　　　　　　　　　　　　　　　　　　　　　　　　　　　　　　　　　　　　　　　　　　　　　　　　　　　　　　　　　　　　　　　　　　　　　　　　　　　　　　545000000000000000ヘファナ　　　　00       00002000000214      0000000000000000000000000000000000000000000000000000JACK HOBBS                          0000000000　　　　　　　　　　　　　　　　　　0000000000　　　　　　　　　　　　　　　　　　0000000000000000000000
SEB2017040620170325C70000080070000000000POSTPONED                           00110006000000ヴェリア000000　　　　　　　　　　　　　　　　　　　　　　　　　　　　　　　　　　　　　　　　　　　　　　　　　　　　　　　　　　　　　　　　　　　　　　　　　　　　　　　　　　　　　　　　　　　　570000000000000000アッゼニ　　　　00       00003000000134      0000000000000000000000000000000000000000000000000000JACK HOBBS                          0000000000　　　　　　　　　　　　　　　　　　0000000000　　　　　　　　　　　　　　　　　　0000000000000000000000
SEB2017040620170325C70000090012012110098アポロケンタッキー　　　　　　　　　06110305200388山内研二033700アポロサラブレッドクラブ　　　　　　　　　　　　　　　　　　　　黒，赤袖，黄鋸歯形　　　　　　　　　　　　　　　　　　　　　　　　　　　　　　　　　　　　　　　　　　　　　　　　　　　570000000533900000ルメール　　　　00       009090000005        0000000000000000000000000000000000000000000000000000ARROGATE                            0000000000　　　　　　　　　　　　　　　　　　0000000000　　　　　　　　　　　　　　　　　　0000000000000000000000
SEB2017040620170325C70000090020000000000LONG RIVER                          00110007000000ビン・ガ000000　　　　　　　　　　　　　　　　　　　　　　　　　　　　　　　　　　　　　　　　　　　　　　　　　　　　　　　　　　　　　　　　　　　　　　　　　　　　　　　　　　　　　　　　　　　　570000000000000000バルザロ　　　　00       000110000008        0000000000000000000000000000000000000000000000000000ARROGATE                            0000000000　　　　　　　　　　　　　　　　　　0000000000　　　　　　　　　　　　　　　　　　0000000000000000000000
SEB2017040620170325C70000090032013106119ゴールドドリーム　　　　　　　　　　00110304201082平田修　790005吉田　勝己　　　　　　　　　　　　　　　　　　　　　　　　　　　黄，赤縦縞，黒袖　　　　　　　　　　　　　　　　　　　　　　　　　　　　　　　　　　　　　　　　　　　　　　　　　　　　570000000000000000モレイラ　　　　00       01414000000T        0000000000000000000000000000000000000000000000000000ARROGATE                            0000000000　　　　　　　　　　　　　　　　　　0000000000　　　　　　　　　　　　　　　　　　0000000000000000000000
SEB2017040620170325C70000090042013110045ラニ　　　　　　　　　　　　　　　　06110704201092松永幹夫245030前田　葉子　　　　　　　　　　　　　　　　　　　　　　　　　　　水色，赤十字襷，赤袖水色二本輪　　　　　　　　　　　　　　　　　　　　　　　　　　　　　　　　　　　　　　　　　　　　　570000000000000000ムーア　　　　　00       008080000004        0000000000000000000000000000000000000000000000000000ARROGATE                            0000000000　　　　　　　　　　　　　　　　　　0000000000　　　　　　　　　　　　　　　　　　0000000000000000000000
SEB2017040620170325C70000090050000000000GUN RUNNER                          00110004000000アスムッ000000　　　　　　　　　　　　　　　　　　　　　　　　　　　　　　　　　　　　　　　　　　　　　　　　　　　　　　　　　　　　　　　　　　　　　　　　　　　　　　　　　　　　　　　　　　　　570000000000000000ジェルー　　　　00       00002000000214      0000000000000000000000000000000000000000000000000000ARROGATE                            0000000000　　　　　　　　　　　　　　　　　　0000000000　　　　　　　　　　　　　　　　　　0000000000000000000000
SEB2017040620170325C70000090060000000000MOVE UP                             00110004000000ビン・ス000000　　　　　　　　　　　　　　　　　　　　　　　　　　　　　　　　　　　　　　　　　　　　　　　　　　　　　　　　　　　　　　　　　　　　　　　　　　　　　　　　　　　　　　　　　　　　570000000000000000デフリー　　　　00       00010000000234      0000000000000000000000000000000000000000000000000000ARROGATE                            0000000000　　　　　　　　　　　　　　　　　　0000000000　　　　　　　　　　　　　　　　　　0000000000000000000000
SEB2017040620170325C70000090072010110078アウォーディー　　　　　　　　　　　06110307201092松永幹夫948006前田　幸治　　　　　　　　　　　　　　　　　　　　　　　　　　　水色，赤十字襷，赤袖水色一本輪　　　　　　　　　　　　　　　　　　　　　　　　　　　　　　　　　　　　　　　　　　　　　570000000066600000武豊　　　　　　00       00505000000112      0000000000000000000000000000000000000000000000000000ARROGATE                            0000000000　　　　　　　　　　　　　　　　　　0000000000　　　　　　　　　　　　　　　　　　0000000000000000000000
SEB2017040620170325C70000090080000000000FURIA CRUZADA                       00210006000000シャルピ000000　　　　　　　　　　　　　　　　　　　　　　　　　　　　　　　　　　　　　　　　　　　　　　　　　　　　　　　　　　　　　　　　　　　　　　　　　　　　　　　　　　　　　　　　　　　　550000000000000000フレス　　　　　00       00013000000 12      0000000000000000000000000000000000000000000000000000ARROGATE                            0000000000　　　　　　　　　　　　　　　　　　0000000000　　　　　　　　　　　　　　　　　　0000000000000000000000
SEB2017040620170325C70000090090000000000ARROGATE                            00110004000000バファー000000　　　　　　　　　　　　　　　　　　　　　　　　　　　　　　　　　　　　　　　　　　　　　　　　　　　　　　　　　　　　　　　　　　　　　　　　　　　　　　　　　　　　　　　　　　　　570000000000000000スミス　　　　　00       00001002021         0000000000000000000000000000000000000000000000000000GUN RUNNER                          0000000000　　　　　　　　　　　　　　　　　　0000000000　　　　　　　　　　　　　　　　　　0000000000000000000000
SEB2017040620170325C70000090100000000000KEEN ICE                            00110005000000プレッチ000000　　　　　　　　　　　　　　　　　　　　　　　　　　　　　　　　　　　　　　　　　　　　　　　　　　　　　　　　　　　　　　　　　　　　　　　　　　　　　　　　　　　　　　　　　　　　570000000000000000カステリ　　　　00       000070000001        0000000000000000000000000000000000000000000000000000ARROGATE                            0000000000　　　　　　　　　　　　　　　　　　0000000000　　　　　　　　　　　　　　　　　　0000000000000000000000
SEB2017040620170325C70000090110000000000NEOLITHIC                           00110004000000プレッチ000000　　　　　　　　　　　　　　　　　　　　　　　　　　　　　　　　　　　　　　　　　　　　　　　　　　　　　　　　　　　　　　　　　　　　　　　　　　　　　　　　　　　　　　　　　　　　570000000000000000ヴェラス　　　　00       000030000005        0000000000000000000000000000000000000000000000000000ARROGATE                            0000000000　　　　　　　　　　　　　　　　　　0000000000　　　　　　　　　　　　　　　　　　0000000000000000000000
SEB2017040620170325C70000090120000000000HOPPERTUNITY                        00110006000000バファー000000　　　　　　　　　　　　　　　　　　　　　　　　　　　　　　　　　　　　　　　　　　　　　　　　　　　　　　　　　　　　　　　　　　　　　　　　　　　　　　　　　　　　　　　　　　　　570000000000000000プラ　　　　　　00       00006000000K        0000000000000000000000000000000000000000000000000000ARROGATE                            0000000000　　　　　　　　　　　　　　　　　　0000000000　　　　　　　　　　　　　　　　　　0000000000000000000000
SEB2017040620170325C70000090130000000000SPECIAL FIGHTER                     00110006000000リッチー000000　　　　　　　　　　　　　　　　　　　　　　　　　　　　　　　　　　　　　　　　　　　　　　　　　　　　　　　　　　　　　　　　　　　　　　　　　　　　　　　　　　　　　　　　　　　　570000000000000000ハラ　　　　　　00       00012000000T        0000000000000000000000000000000000000000000000000000ARROGATE                            0000000000　　　　　　　　　　　　　　　　　　0000000000　　　　　　　　　　　　　　　　　　0000000000000000000000
SEB2017040620170325C70000090140000000000MUBTAAHIJ                           00110005000000デコック000000　　　　　　　　　　　　　　　　　　　　　　　　　　　　　　　　　　　　　　　　　　　　　　　　　　　　　　　　　　　　　　　　　　　　　　　　　　　　　　　　　　　　　　　　　　　　570000000000000000スミヨン　　　　00       00004000000134      0000000000000000000000000000000000000000000000000000ARROGATE                            0000000000　　　　　　　　　　　　　　　　　　0000000000　　　　　　　　　　　　　　　　　　0000000000000000000000
SEB2017051520170430G00000080020000000000SECRET WEAPON                       00310007000000イプ　　000000　　　　　　　　　　　　　　　　　　　　　　　　　　　　　　　　　　　　　　　　　　　　　　　　　　　　　　　　　　　　　　　　　　　　　　　　　　　　　　　　　　　　　　　　　　　　570000000000000000パートン　　　　00       00006000000         0000000000000000000000000000000000000000002011103978ネオリアリズム　　　　　　　　　　　0000000000　　　　　　　　　　　　　　　　　　0000000000　　　　　　　　　　　　　　　　　　0000000000000000000000
SEB2017051520170430G00000080030000000000DESIGNS ON ROME                     00310007000000ムーア　000000　　　　　　　　　　　　　　　　　　　　　　　　　　　　　　　　　　　　　　　　　　　　　　　　　　　　　　　　　　　　　　　　　　　　　　　　　　　　　　　　　　　　　　　　　　　　570000000000000000ベリー　　　　　00       00008000000         0000000000000000000000000000000000000000002011103978ネオリアリズム　　　　　　　　　　　0000000000　　　　　　　　　　　　　　　　　　0000000000　　　　　　　　　　　　　　　　　　0000000000000000000000
SEB2017051520170430G00000080040000000000BLAZING SPEED                       00310008000000クルーズ000000　　　　　　　　　　　　　　　　　　　　　　　　　　　　　　　　　　　　　　　　　　　　　　　　　　　　　　　　　　　　　　　　　　　　　　　　　　　　　　　　　　　　　　　　　　　　570000000000000000カラン　　　　　00       00004000000         0000000000000000000000000000000000000000002011103978ネオリアリズム　　　　　　　　　　　0000000000　　　　　　　　　　　　　　　　　　0000000000　　　　　　　　　　　　　　　　　　0000000000000000000000
SEB2017051520170430G00000080052011103978ネオリアリズム　　　　　　　　　　　00110106101070堀宣行　486800キャロットファーム　　　　　　　　　　　　　　　　　　　　　　　緑，白二本輪，白袖赤一本輪　　　　　　　　　　　　　　　　　　　　　　　　　　　　　　　　　　　　　　　　　　　　　　　570000000000000000モレイラ　　　　00510-00400101002045         0000000000000000000000000000000000000000000000000000PAKISTAN STAR                       0000000000　　　　　　　　　　　　　　　　　　0000000000　　　　　　　　　　　　　　　　　　-001000000000000000000
SEB2017051520170430G00000080060000000000THE UNITED STATES                   00110007000000ヒックモ000000　　　　　　　　　　　　　　　　　　　　　　　　　　　　　　　　　　　　　　　　　　　　　　　　　　　　　　　　　　　　　　　　　　　　　　　　　　　　　　　　　　　　　　　　　　　　570000000000000000プレブル　　　　00       00005000000         0000000000000000000000000000000000000000002011103978ネオリアリズム　　　　　　　　　　　0000000000　　　　　　　　　　　　　　　　　　0000000000　　　　　　　　　　　　　　　　　　0000000000000000000000
SEB2017051520170430G00000080070000000000DICTON                              00110004000000ビエトリ000000　　　　　　　　　　　　　　　　　　　　　　　　　　　　　　　　　　　　　　　　　　　　　　　　　　　　　　　　　　　　　　　　　　　　　　　　　　　　　　　　　　　　　　　　　　　　570000000000000000ペリエ　　　　　00       00007000000         0000000000000000000000000000000000000000002011103978ネオリアリズム　　　　　　　　　　　0000000000　　　　　　　　　　　　　　　　　　0000000000　　　　　　　　　　　　　　　　　　0000000000000000000000
SEB2017051520170430G00000080080000000000PAKISTAN STAR                       00310004000000クルーズ000000　　　　　　　　　　　　　　　　　　　　　　　　　　　　　　　　　　　　　　　　　　　　　　　　　　　　　　　　　　　　　　　　　　　　　　　　　　　　　　　　　　　　　　　　　　　　570000000000000000デソウサ　　　　00       00002002046K        0000000000000000000000000000000000000000002011103978ネオリアリズム　　　　　　　　　　　0000000000　　　　　　　　　　　　　　　　　　0000000000　　　　　　　　　　　　　　　　　　+001000000000000000000
SEB2017052220170130G00000090042011190004ビューティーオンリー　　　　　　　　00310306000000　　　　000000　　　　　　　　　　　　　　　　　　　　　　　　　　　　　　　　　　　　　　　　　　　　　　　　　　　　　　　　　　　　　　　　　　　　　　　　　　　　　　　　　　　　　　　　　　　　570000000000000000パートン　　　　00517-00600005001346         0000000000000000000000000000000000000000000000000000HELENE PARAGON                      0000000000　　　　　　　　　　　　　　　　　　0000000000　　　　　　　　　　　　　　　　　　+003000000000000000000
SEB2017052220170130G00000090082010190006コンテントメント　　　　　　　　　　00310107000000　　　　000000　　　　　　　　　　　　　　　　　　　　　　　　　　　　　　　　　　　　　　　　　　　　　　　　　　　　　　　　　　　　　　　　　　　　　　　　　　　　　　　　　　　　　　　　　　　　570000000000000000プレブル　　　　00525-00500004001346         0000000000000000000000000000000000000000000000000000HELENE PARAGON                      0000000000　　　　　　　　　　　　　　　　　　0000000000　　　　　　　　　　　　　　　　　　+003000000000000000000
SEB2017052220170226G00000030042010190006コンテントメント　　　　　　　　　　00310107000000　　　　000000　　　　　　　　　　　　　　　　　　　　　　　　　　　　　　　　　　　　　　　　　　　　　　　　　　　　　　　　　　　　　　　　　　　　　　　　　　　　　　　　　　　　　　　　　　　　570000000000000000プレブル　　　　00522-00300005001215         0000000000000000000000000000000000000000000000000000HELENE PARAGON                      0000000000　　　　　　　　　　　　　　　　　　0000000000　　　　　　　　　　　　　　　　　　+002000000000000000000
SEB2017052220170319G00000030032010190006コンテントメント　　　　　　　　　　00310107000000　　　　000000　　　　　　　　　　　　　　　　　　　　　　　　　　　　　　　　　　　　　　　　　　　　　　　　　　　　　　　　　　　　　　　　　　　　　　　　　　　　　　　　　　　　　　　　　　　　585000000000000000プレブル　　　　00523+00100002001232K        0000000000000000000000000000000000000000000000000000DASHING FELLOW                      0000000000　　　　　　　　　　　　　　　　　　0000000000　　　　　　　　　　　　　　　　　　+000000000000000000000
SEB2017052220170409G00000080022011190004ビューティーオンリー　　　　　　　　00310306000000　　　　000000　　　　　　　　　　　　　　　　　　　　　　　　　　　　　　　　　　　　　　　　　　　　　　　　　　　　　　　　　　　　　　　　　　　　　　　　　　　　　　　　　　　　　　　　　　　　580000000000000000パートン　　　　00515-00300002001338 12      0000000000000000000000000000000000000000000000000000RAPPER DRAGON                       0000000000　　　　　　　　　　　　　　　　　　0000000000　　　　　　　　　　　　　　　　　　+001000000000000000000
SEB2017052220170409G00000080052010190006コンテントメント　　　　　　　　　　00310107000000　　　　000000　　　　　　　　　　　　　　　　　　　　　　　　　　　　　　　　　　　　　　　　　　　　　　　　　　　　　　　　　　　　　　　　　　　　　　　　　　　　　　　　　　　　　　　　　　　　555000000000000000プレブル　　　　00519-00400006001343         0000000000000000000000000000000000000000000000000000RAPPER DRAGON                       0000000000　　　　　　　　　　　　　　　　　　0000000000　　　　　　　　　　　　　　　　　　+006000000000000000000
SEB2017052220170507G00000070012011190004ビューティーオンリー　　　　　　　　00310306000000　　　　000000　　　　　　　　　　　　　　　　　　　　　　　　　　　　　　　　　　　　　　　　　　　　　　　　　　　　　　　　　　　　　　　　　　　　　　　　　　　　　　　　　　　　　　　　　　　　570000000000000000パートン　　　　00514-00100002001353K        0000000000000000000000000000000000000000002010190006コンテントメント　　　　　　　　　　0000000000　　　　　　　　　　　　　　　　　　0000000000　　　　　　　　　　　　　　　　　　+001000000000000000000
SEB2017052220170507G00000070032010190006コンテントメント　　　　　　　　　　00310107000000　　　　000000　　　　　　　　　　　　　　　　　　　　　　　　　　　　　　　　　　　　　　　　　　　　　　　　　　　　　　　　　　　　　　　　　　　　　　　　　　　　　　　　　　　　　　　　　　　　570000000000000000プレブル　　　　00516-00300001001352         0000000000000000000000000000000000000000002011190004ビューティーオンリー　　　　　　　　0000000000　　　　　　　　　　　　　　　　　　0000000000　　　　　　　　　　　　　　　　　　-001000000000000000000
SEB2017061920170610A40000110010000000000TWISTED TOM                         00310003000000ブラウン000000　　　　　　　　　　　　　　　　　　　　　　　　　　　　　　　　　　　　　　　　　　　　　　　　　　　　　　　　　　　　　　　　　　　　　　　　　　　　　　　　　　　　　　　　　　　　570000000000000000カステリ　　　　00       000060000008        0000000000000000000000000000000000000000000000000000TAPWRIT                             0000000000　　　　　　　　　　　　　　　　　　0000000000　　　　　　　　　　　　　　　　　　0000000000000000000000
SEB2017061920170610A40000110020000000000TAPWRIT                             00110003000000プレッチ000000　　　　　　　　　　　　　　　　　　　　　　　　　　　　　　　　　　　　　　　　　　　　　　　　　　　　　　　　　　　　　　　　　　　　　　　　　　　　　　　　　　　　　　　　　　　　570000000000000000オルティ　　　　00       00001002300         0000000000000000000000000000000000000000000000000000IRISH WAR CRY                       0000000000　　　　　　　　　　　　　　　　　　0000000000　　　　　　　　　　　　　　　　　　0000000000000000000000
SEB2017061920170610A40000110030000000000GORMLEY                             00110003000000シレフス000000　　　　　　　　　　　　　　　　　　　　　　　　　　　　　　　　　　　　　　　　　　　　　　　　　　　　　　　　　　　　　　　　　　　　　　　　　　　　　　　　　　　　　　　　　　　　570000000000000000エスピノ　　　　00       00004000000414      0000000000000000000000000000000000000000000000000000TAPWRIT                             0000000000　　　　　　　　　　　　　　　　　　0000000000　　　　　　　　　　　　　　　　　　0000000000000000000000
SEB2017061920170610A40000110040000000000J BOYS ECHO                         00110003000000ローマン000000　　　　　　　　　　　　　　　　　　　　　　　　　　　　　　　　　　　　　　　　　　　　　　　　　　　　　　　　　　　　　　　　　　　　　　　　　　　　　　　　　　　　　　　　　　　　570000000000000000アルバラ　　　　00       00009000000 12      0000000000000000000000000000000000000000000000000000TAPWRIT                             0000000000　　　　　　　　　　　　　　　　　　0000000000　　　　　　　　　　　　　　　　　　0000000000000000000000
SEB2017061920170610A40000110050000000000HOLLYWOOD HANDSOME                  00110003000000スチュア000000　　　　　　　　　　　　　　　　　　　　　　　　　　　　　　　　　　　　　　　　　　　　　　　　　　　　　　　　　　　　　　　　　　　　　　　　　　　　　　　　　　　　　　　　　　　　570000000000000000ジェルー　　　　00       40000000000         0000000000000000000000000000000000000009990000000000TAPWRIT                             0000000000　　　　　　　　　　　　　　　　　　0000000000　　　　　　　　　　　　　　　　　　9999000000000000000000
SEB2017061920170610A40000110060000000000LOOKIN AT LEE                       00110003000000アスムッ000000　　　　　　　　　　　　　　　　　　　　　　　　　　　　　　　　　　　　　　　　　　　　　　　　　　　　　　　　　　　　　　　　　　　　　　　　　　　　　　　　　　　　　　　　　　　　570000000000000000オルティ　　　　00       00007000000 12      0000000000000000000000000000000000000000000000000000TAPWRIT                             0000000000　　　　　　　　　　　　　　　　　　0000000000　　　　　　　　　　　　　　　　　　0000000000000000000000
SEB2017061920170610A40000110070000000000IRISH WAR CRY                       00110003000000モーショ000000　　　　　　　　　　　　　　　　　　　　　　　　　　　　　　　　　　　　　　　　　　　　　　　　　　　　　　　　　　　　　　　　　　　　　　　　　　　　　　　　　　　　　　　　　　　　570000000000000000マラージ　　　　00       000020000002        0000000000000000000000000000000000000000000000000000TAPWRIT                             0000000000　　　　　　　　　　　　　　　　　　0000000000　　　　　　　　　　　　　　　　　　0000000000000000000000
SEB2017061920170610A40000110080000000000SENIOR INVESTMENT                   00110003000000マクピー000000　　　　　　　　　　　　　　　　　　　　　　　　　　　　　　　　　　　　　　　　　　　　　　　　　　　　　　　　　　　　　　　　　　　　　　　　　　　　　　　　　　　　　　　　　　　　570000000000000000ヒル　　　　　　00       00005000000734      0000000000000000000000000000000000000000000000000000TAPWRIT                             0000000000　　　　　　　　　　　　　　　　　　0000000000　　　　　　　　　　　　　　　　　　0000000000000000000000
SEB2017061920170610A40000110090000000000MEANTIME                            00110003000000リンチ　000000　　　　　　　　　　　　　　　　　　　　　　　　　　　　　　　　　　　　　　　　　　　　　　　　　　　　　　　　　　　　　　　　　　　　　　　　　　　　　　　　　　　　　　　　　　　　570000000000000000スミス　　　　　00       00008000000K        0000000000000000000000000000000000000000000000000000TAPWRIT                             0000000000　　　　　　　　　　　　　　　　　　0000000000　　　　　　　　　　　　　　　　　　0000000000000000000000
SEB2017061920170610A40000110100000000000MULTIPLIER                          00110003000000ウォルシ000000　　　　　　　　　　　　　　　　　　　　　　　　　　　　　　　　　　　　　　　　　　　　　　　　　　　　　　　　　　　　　　　　　　　　　　　　　　　　　　　　　　　　　　　　　　　　570000000000000000ロザリオ　　　　00       00010000000T        0000000000000000000000000000000000000000000000000000TAPWRIT                             0000000000　　　　　　　　　　　　　　　　　　0000000000　　　　　　　　　　　　　　　　　　0000000000000000000000
SEB2017061920170610A40000110112014103121エピカリス　　　　　　　　　　　　　00110403101017萩原清　486800キャロットファーム　　　　　　　　　　　　　　　　　　　　　　　緑，白二本輪，白袖赤一本輪　　　　　　　　　　　　　　　　　　　　　　　　　　　　　　　　　　　　　　　　　　　　　　　570000000533900000ルメール　　　　00000    10000000000         0000000000000000000000000000000000000009990000000000TAPWRIT                             0000000000　　　　　　　　　　　　　　　　　　0000000000　　　　　　　　　　　　　　　　　　9999000000000000000000
SEB2017061920170610A40000110120000000000PATCH                               00110003000000プレッチ000000　　　　　　　　　　　　　　　　　　　　　　　　　　　　　　　　　　　　　　　　　　　　　　　　　　　　　　　　　　　　　　　　　　　　　　　　　　　　　　　　　　　　　　　　　　　　570000000000000000ヴェラス　　　　00       00003000000534      0000000000000000000000000000000000000000000000000000TAPWRIT                             0000000000　　　　　　　　　　　　　　　　　　0000000000　　　　　　　　　　　　　　　　　　0000000000000000000000
SEB2017091920170101G00000080012010190006コンテントメント　　　　　　　　　　00310107000000　　　　000000　　　　　　　　　　　　　　　　　　　　　　　　　　　　　　　　　　　　　　　　　　　　　　　　　　　　　　　　　　　　　　　　　　　　　　　　　　　　　　　　　　　　　　　　　　　　600000000000000000プレブル　　　　00530+00400004001216         0000000000000000000000000000000000000000002011190005ブリザード　　　　　　　　　　　　　0000000000　　　　　　　　　　　　　　　　　　0000000000　　　　　　　　　　　　　　　　　　+004000000000000000000
SEB2017091920170101G00000080052011190005ブリザード　　　　　　　　　　　　　00310106000000　　　　000000　　　　　　　　　　　　　　　　　　　　　　　　　　　　　　　　　　　　　　　　　　　　　　　　　　　　　　　　　　　　　　　　　　　　　　　　　　　　　　　　　　　　　　　　　　　　550000000000000000モレイラ　　　　00515+00100001001212         0000000000000000000000000000000000000000000000000000DASHING FELLOW                      0000000000　　　　　　　　　　　　　　　　　　0000000000　　　　　　　　　　　　　　　　　　0000000000000000000000
SEB2017091920170130G00000040062011190005ブリザード　　　　　　　　　　　　　00310106000000　　　　000000　　　　　　　　　　　　　　　　　　　　　　　　　　　　　　　　　　　　　　　　　　　　　　　　　　　　　　　　　　　　　　　　　　　　　　　　　　　　　　　　　　　　　　　　　　　　550000000000000000リスポリ　　　　00515 00000005001095         0000000000000000000000000000000000000000000000000000PENIAPHOBIA                         0000000000　　　　　　　　　　　　　　　　　　0000000000　　　　　　　　　　　　　　　　　　+004000000000000000000
SEB2017091920170226G00000030052011190005ブリザード　　　　　　　　　　　　　00310106000000　　　　000000　　　　　　　　　　　　　　　　　　　　　　　　　　　　　　　　　　　　　　　　　　　　　　　　　　　　　　　　　　　　　　　　　　　　　　　　　　　　　　　　　　　　　　　　　　　　570000000000000000ローウィ　　　　00516+00100004001215         0000000000000000000000000000000000000000000000000000HELENE PARAGON                      0000000000　　　　　　　　　　　　　　　　　　0000000000　　　　　　　　　　　　　　　　　　+002000000000000000000
SEB2017091920170903G00000030012011190005ブリザード　　　　　　　　　　　　　00310106000000　　　　000000　　　　　　　　　　　　　　　　　　　　　　　　　　　　　　　　　　　　　　　　　　　　　　　　　　　　　　　　　　　　　　　　　　　　　　　　　　　　　　　　　　　　　　　　　　　　600000000000000000パートン　　　　00510+00400002001085112      0000000000000000000000000000000000000000000000000000SEASONS BLOOM                       0000000000　　　　　　　　　　　　　　　　　　0000000000　　　　　　　　　　　　　　　　　　+002000000000000000000
SEB2017092120170910A80000070010000000000CLOTH OF STARS                      00110004000000ファーブ000000　　　　　　　　　　　　　　　　　　　　　　　　　　　　　　　　　　　　　　　　　　　　　　　　　　　　　　　　　　　　　　　　　　　　　　　　　　　　　　　　　　　　　　　　　　　　580000000000000000バルザロ　　　　00       00002000000112      0000000000000000000000000000000000000000000000000000DSCHINGIS SECRET                    0000000000　　　　　　　　　　　　　　　　　　0000000000　　　　　　　　　　　　　　　　　　0000000000000000000000
SEB2017092120170910A80000070020000000000TALISMANIC                          00110004000000ファーブ000000　　　　　　　　　　　　　　　　　　　　　　　　　　　　　　　　　　　　　　　　　　　　　　　　　　　　　　　　　　　　　　　　　　　　　　　　　　　　　　　　　　　　　　　　　　　　580000000000000000シュミノ　　　　00       00003000000K        0000000000000000000000000000000000000000000000000000DSCHINGIS SECRET                    0000000000　　　　　　　　　　　　　　　　　　0000000000　　　　　　　　　　　　　　　　　　0000000000000000000000
SEB2017092120170910A80000070030000000000SILVERWAVE                          00110005000000バリー　000000　　　　　　　　　　　　　　　　　　　　　　　　　　　　　　　　　　　　　　　　　　　　　　　　　　　　　　　　　　　　　　　　　　　　　　　　　　　　　　　　　　　　　　　　　　　　580000000000000000ブドー　　　　　00       00005000000112      0000000000000000000000000000000000000000000000000000DSCHINGIS SECRET                    0000000000　　　　　　　　　　　　　　　　　　0000000000　　　　　　　　　　　　　　　　　　0000000000000000000000
SEB2017092120170910A80000070040000000000DSCHINGIS SECRET                    00110004000000クルーク000000　　　　　　　　　　　　　　　　　　　　　　　　　　　　　　　　　　　　　　　　　　　　　　　　　　　　　　　　　　　　　　　　　　　　　　　　　　　　　　　　　　　　　　　　　　　　580000000000000000デフリー　　　　00       00001002358         0000000000000000000000000000000000000000000000000000CLOTH OF STARS                      0000000000　　　　　　　　　　　　　　　　　　0000000000　　　　　　　　　　　　　　　　　　0000000000000000000000
SEB2017092120170910F00000070072010105860グレイスフルリープ　　　　　　　　　00110107201154橋口慎介041002前田　晋二　　　　　　　　　　　　　　　　　　　　　　　　　　　水色，赤十字襷，赤袖水色三本輪　　　　　　　　　　　　　　　　　　　　　　　　　　　　　　　　　　　　　　　　　　　　　560000000066600000武豊　　　　　　00544+01200101001107         0000000000000000000000000000000000000000000000000000POWER BLADE                         0000000000　　　　　　　　　　　　　　　　　　0000000000　　　　　　　　　　　　　　　　　　-003000000000000000000
SEB2017092120170910F00000080102010104098クリソライト　　　　　　　　　　　　00110307201002音無秀孝486800キャロットファーム　　　　　　　　　　　　　　　　　　　　　　　緑，白二本輪，白袖赤一本輪　　　　　　　　　　　　　　　　　　　　　　　　　　　　　　　　　　　　　　　　　　　　　　　570000000066600000武豊　　　　　　00503+003002020015144        0000000000000000000000000000000000000000002013101999ロンドンタウン　　　　　　　　　　　0000000000　　　　　　　　　　　　　　　　　　0000000000　　　　　　　　　　　　　　　　　　+007000000000000000000
SEB2017092120170910F00000080112013101999ロンドンタウン　　　　　　　　　　　00110304201123牧田和弥768006薪浦　亨　　　　　　　　　　　　　　　　　　　　　　　　　　　　赤，緑鋸歯形　　　　　　　　　　　　　　　　　　　　　　　　　　　　　　　　　　　　　　　　　　　　　　　　　　　　　　570000000520300000岩田康誠　　　　00515+00500101001507         0000000000000000000000000000000000000000002010104098クリソライト　　　　　　　　　　　　0000000000　　　　　　　　　　　　　　　　　　0000000000　　　　　　　　　　　　　　　　　　-007000000000000000000
SEB2017092420170409G00000070032011190005ブリザード　　　　　　　　　　　　　00310106000000　　　　000000　　　　　　　　　　　　　　　　　　　　　　　　　　　　　　　　　　　　　　　　　　　　　　　　　　　　　　　　　　　　　　　　　　　　　　　　　　　　　　　　　　　　　　　　　　　　555000000000000000ローウィ　　　　00510-00600403111089         0000000000000000000000000000000000000000000000000000MR STUNNING                         0000000000　　　　　　　　　　　　　　　　　　0000000000　　　　　　　　　　　　　　　　　　+005000000000000000000
SEB2017101020170910A80000070052013106101サトノダイヤモンド　　　　　　　　　00110304201071池江泰寿794002里見　治　　　　　　　　　　　　　　　　　　　　　　　　　　　　緑，黄菱山形，袖黄縦縞　　　　　　　　　　　　　　　　　　　　　　　　　　　　　　　　　　　　　　　　　　　　　　　　　580000000533900000ルメール　　　　00       00404002364134      0000000000000000000000000000000000000000000000000000DSCHINGIS SECRET                    0000000000　　　　　　　　　　　　　　　　　　0000000000　　　　　　　　　　　　　　　　　　+006000000000000000000
SEB2017101020170910A80000070062010103602サトノノブレス　　　　　　　　　　　00110407201071池江泰寿794002里見　治　　　　　　　　　　　　　　　　　　　　　　　　　　　　緑，黄菱山形，袖黄縦縞　　　　　　　　　　　　　　　　　　　　　　　　　　　　　　　　　　　　　　　　　　　　　　　　　580000000108800000川田将雅　　　　00       00606002366A        0000000000000000000000000000000000000000000000000000DSCHINGIS SECRET                    0000000000　　　　　　　　　　　　　　　　　　0000000000　　　　　　　　　　　　　　　　　　+008000000000000000000
SEB2017101220171001A80000040010000000000ZARAK                               00110004000000ドゥロワ000000　　　　　　　　　　　　　　　　　　　　　　　　　　　　　　　　　　　　　　　　　　　　　　　　　　　　　　　　　　　　　　　　　　　　　　　　　　　　　　　　　　　　　　　　　　　　595000000000000000スミヨン　　　　00       00010000000 34      0000000000000000000000000000000000000000000000000000ENABLE                              0000000000　　　　　　　　　　　　　　　　　　0000000000　　　　　　　　　　　　　　　　　　0000000000000000000000
SEB2017101220171001A80000040020000000000DOHA DREAM                          00110004000000ファーブ000000　　　　　　　　　　　　　　　　　　　　　　　　　　　　　　　　　　　　　　　　　　　　　　　　　　　　　　　　　　　　　　　　　　　　　　　　　　　　　　　　　　　　　　　　　　　　595000000000000000ブノワ　　　　　00       00012000000K        0000000000000000000000000000000000000000000000000000ENABLE                              0000000000　　　　　　　　　　　　　　　　　　0000000000　　　　　　　　　　　　　　　　　　0000000000000000000000
SEB2017101220171001A80000040030000000000ONE FOOT IN HEAVEN                  00110005000000ドゥロワ000000　　　　　　　　　　　　　　　　　　　　　　　　　　　　　　　　　　　　　　　　　　　　　　　　　　　　　　　　　　　　　　　　　　　　　　　　　　　　　　　　　　　　　　　　　　　　595000000000000000ドイル　　　　　00       00011000000K        0000000000000000000000000000000000000000000000000000ENABLE                              0000000000　　　　　　　　　　　　　　　　　　0000000000　　　　　　　　　　　　　　　　　　0000000000000000000000
SEB2017101220171001A80000040040000000000ULYSSES                             00110004000000スタウト000000　　　　　　　　　　　　　　　　　　　　　　　　　　　　　　　　　　　　　　　　　　　　　　　　　　　　　　　　　　　　　　　　　　　　　　　　　　　　　　　　　　　　　　　　　　　　595000000000000000クローリ　　　　00       00003000000114      0000000000000000000000000000000000000000000000000000ENABLE                              0000000000　　　　　　　　　　　　　　　　　　0000000000　　　　　　　　　　　　　　　　　　0000000000000000000000
SEB2017101220171001A80000040050000000000CLOTH OF STARS                      00110004000000ファーブ000000　　　　　　　　　　　　　　　　　　　　　　　　　　　　　　　　　　　　　　　　　　　　　　　　　　　　　　　　　　　　　　　　　　　　　　　　　　　　　　　　　　　　　　　　　　　　595000000000000000バルザロ　　　　00       00002000000212      0000000000000000000000000000000000000000000000000000ENABLE                              0000000000　　　　　　　　　　　　　　　　　　0000000000　　　　　　　　　　　　　　　　　　0000000000000000000000
SEB2017101220171001A80000040060000000000SILVERWAVE                          00110005000000バリー　000000　　　　　　　　　　　　　　　　　　　　　　　　　　　　　　　　　　　　　　　　　　　　　　　　　　　　　　　　　　　　　　　　　　　　　　　　　　　　　　　　　　　　　　　　　　　　595000000000000000ブドー　　　　　00       00018000000T        0000000000000000000000000000000000000000000000000000ENABLE                              0000000000　　　　　　　　　　　　　　　　　　0000000000　　　　　　　　　　　　　　　　　　0000000000000000000000
SEB2017101220171001A80000040080000000000DSCHINGIS SECRET                    00110004000000クルーク000000　　　　　　　　　　　　　　　　　　　　　　　　　　　　　　　　　　　　　　　　　　　　　　　　　　　　　　　　　　　　　　　　　　　　　　　　　　　　　　　　　　　　　　　　　　　　595000000000000000デフリー　　　　00       00006000000 12      0000000000000000000000000000000000000000000000000000ENABLE                              0000000000　　　　　　　　　　　　　　　　　　0000000000　　　　　　　　　　　　　　　　　　0000000000000000000000
SEB2017101220171001A80000040092013106101サトノダイヤモンド　　　　　　　　　00110304201071池江泰寿794002里見　治　　　　　　　　　　　　　　　　　　　　　　　　　　　　緑，黄菱山形，袖黄縦縞　　　　　　　　　　　　　　　　　　　　　　　　　　　　　　　　　　　　　　　　　　　　　　　　　595000000533900000ルメール　　　　00       01515002304A        0000000000000000000000000000000000000000000000000000ENABLE                              0000000000　　　　　　　　　　　　　　　　　　0000000000　　　　　　　　　　　　　　　　　　+018000000000000000000
SEB2017101220171001A80000040102010103602サトノノブレス　　　　　　　　　　　00110407201071池江泰寿794002里見　治　　　　　　　　　　　　　　　　　　　　　　　　　　　　緑，黄菱山形，袖黄縦縞　　　　　　　　　　　　　　　　　　　　　　　　　　　　　　　　　　　　　　　　　　　　　　　　　595000000108800000川田将雅　　　　00       01616002305 12      0000000000000000000000000000000000000000000000000000ENABLE                              0000000000　　　　　　　　　　　　　　　　　　0000000000　　　　　　　　　　　　　　　　　　+019000000000000000000
SEB2017101220171001A80000040120000000000ORDER OF ST GEORGE                  00110005000000オブライ000000　　　　　　　　　　　　　　　　　　　　　　　　　　　　　　　　　　　　　　　　　　　　　　　　　　　　　　　　　　　　　　　　　　　　　　　　　　　　　　　　　　　　　　　　　　　　595000000000000000オブライ　　　　00       00004000000112      0000000000000000000000000000000000000000000000000000ENABLE                              0000000000　　　　　　　　　　　　　　　　　　0000000000　　　　　　　　　　　　　　　　　　0000000000000000000000
SEB2017101220171001A80000040130000000000SEVENTH HEAVEN                      00210004000000オブライ000000　　　　　　　　　　　　　　　　　　　　　　　　　　　　　　　　　　　　　　　　　　　　　　　　　　　　　　　　　　　　　　　　　　　　　　　　　　　　　　　　　　　　　　　　　　　　580000000000000000スマレン　　　　00       00014000000 12      0000000000000000000000000000000000000000000000000000ENABLE                              0000000000　　　　　　　　　　　　　　　　　　0000000000　　　　　　　　　　　　　　　　　　0000000000000000000000
SEB2017101220171001A80000040140000000000BRAMETOT                            00110003000000ルジェ　000000　　　　　　　　　　　　　　　　　　　　　　　　　　　　　　　　　　　　　　　　　　　　　　　　　　　　　　　　　　　　　　　　　　　　　　　　　　　　　　　　　　　　　　　　　　　　565000000000000000デムーロ　　　　00       00005000000114      0000000000000000000000000000000000000000000000000000ENABLE                              0000000000　　　　　　　　　　　　　　　　　　0000000000　　　　　　　　　　　　　　　　　　0000000000000000000000
SEB2017101220171001A80000040150000000000CAPRI                               00110003000000オブライ000000　　　　　　　　　　　　　　　　　　　　　　　　　　　　　　　　　　　　　　　　　　　　　　　　　　　　　　　　　　　　　　　　　　　　　　　　　　　　　　　　　　　　　　　　　　　　565000000000000000ローダン　　　　00       000170000001        0000000000000000000000000000000000000000000000000000ENABLE                              0000000000　　　　　　　　　　　　　　　　　　0000000000　　　　　　　　　　　　　　　　　　0000000000000000000000
SEB2017101220171001A80000040160000000000PLUMATIC                            00110003000000ファーブ000000　　　　　　　　　　　　　　　　　　　　　　　　　　　　　　　　　　　　　　　　　　　　　　　　　　　　　　　　　　　　　　　　　　　　　　　　　　　　　　　　　　　　　　　　　　　　565000000000000000ギュイヨ　　　　00       00013000000112      0000000000000000000000000000000000000000000000000000ENABLE                              0000000000　　　　　　　　　　　　　　　　　　0000000000　　　　　　　　　　　　　　　　　　0000000000000000000000
SEB2017101220171001A80000040170000000000ENABLE                              00210003000000ゴスデン000000　　　　　　　　　　　　　　　　　　　　　　　　　　　　　　　　　　　　　　　　　　　　　　　　　　　　　　　　　　　　　　　　　　　　　　　　　　　　　　　　　　　　　　　　　　　　550000000000000000デットー　　　　00       00001002286         0000000000000000000000000000000000000000000000000000CLOTH OF STARS                      0000000000　　　　　　　　　　　　　　　　　　0000000000　　　　　　　　　　　　　　　　　　0000000000000000000000
SEB2017101220171001A80000040180000000000WINTER                              00210003000000オブライ000000　　　　　　　　　　　　　　　　　　　　　　　　　　　　　　　　　　　　　　　　　　　　　　　　　　　　　　　　　　　　　　　　　　　　　　　　　　　　　　　　　　　　　　　　　　　　550000000000000000ムーア　　　　　00       00009000000K        0000000000000000000000000000000000000000000000000000ENABLE                              0000000000　　　　　　　　　　　　　　　　　　0000000000　　　　　　　　　　　　　　　　　　0000000000000000000000
SEB2017111320170114B60000040032011190006ブームタイム　　　　　　　　　　　　00110306000000　　　　000000　　　　　　　　　　　　　　　　　　　　　　　　　　　　　　　　　　　　　　　　　　　　　　　　　　　　　　　　　　　　　　　　　　　　　　　　　　　　　　　　　　　　　　　　　　　　540000000000000000ウィリア　　　　00       00005002163         0000000000000000000000000000000000000000000000000000STRATUM STAR                        0000000000　　　　　　　　　　　　　　　　　　0000000000　　　　　　　　　　　　　　　　　　+003000000000000000000
SEB2017111320170225B60000010032011190006ブームタイム　　　　　　　　　　　　00110306000000　　　　000000　　　　　　　　　　　　　　　　　　　　　　　　　　　　　　　　　　　　　　　　　　　　　　　　　　　　　　　　　　　　　　　　　　　　　　　　　　　　　　　　　　　　　　　　　　　　555000000000000000ザーラ　　　　　00       00001002012         0000000000000000000000000000000000000000000000000000GOLDSTREAM                          0000000000　　　　　　　　　　　　　　　　　　0000000000　　　　　　　　　　　　　　　　　　0000000000000000000000
SEB2017111320170311B60000080092011190006ブームタイム　　　　　　　　　　　　00110306000000　　　　000000　　　　　　　　　　　　　　　　　　　　　　　　　　　　　　　　　　　　　　　　　　　　　　　　　　　　　　　　　　　　　　　　　　　　　　　　　　　　　　　　　　　　　　　　　　　　590000000000000000ベイラス　　　　00       00006002019         0000000000000000000000000000000000000000000000000000HUMIDOR                             0000000000　　　　　　　　　　　　　　　　　　0000000000　　　　　　　　　　　　　　　　　　+009000000000000000000
SEB2017111320170325B60000070062011190006ブームタイム　　　　　　　　　　　　00110306000000　　　　000000　　　　　　　　　　　　　　　　　　　　　　　　　　　　　　　　　　　　　　　　　　　　　　　　　　　　　　　　　　　　　　　　　　　　　　　　　　　　　　　　　　　　　　　　　　　　575000000000000000ダン　　　　　　00       00005002273         0000000000000000000000000000000000000000000000000000TALLY                               0000000000　　　　　　　　　　　　　　　　　　0000000000　　　　　　　　　　　　　　　　　　+003000000000000000000
SEB2017111320170415B60000060012011190006ブームタイム　　　　　　　　　　　　00110306000000　　　　000000　　　　　　　　　　　　　　　　　　　　　　　　　　　　　　　　　　　　　　　　　　　　　　　　　　　　　　　　　　　　　　　　　　　　　　　　　　　　　　　　　　　　　　　　　　　　585000000000000000マーテン　　　　00       00001002289         0000000000000000000000000000000000000000000000000000DE LITTLE ENGINE                    0000000000　　　　　　　　　　　　　　　　　　0000000000　　　　　　　　　　　　　　　　　　0000000000000000000000
SEB2017111320170422B60000080042011190006ブームタイム　　　　　　　　　　　　00110306000000　　　　000000　　　　　　　　　　　　　　　　　　　　　　　　　　　　　　　　　　　　　　　　　　　　　　　　　　　　　　　　　　　　　　　　　　　　　　　　　　　　　　　　　　　　　　　　　　　　535000000000000000パリッシ　　　　00       00011003343         0000000000000000000000000000000000000000000000000000POLARISATION                        0000000000　　　　　　　　　　　　　　　　　　0000000000　　　　　　　　　　　　　　　　　　+052000000000000000000
SEB2017111320170501A80000050072012190004ギニョール　　　　　　　　　　　　　00110405000000　　　　000000　　　　　　　　　　　　　　　　　　　　　　　　　　　　　　　　　　　　　　　　　　　　　　　　　　　　　　　　　　　　　　　　　　　　　　　　　　　　　　　　　　　　　　　　　　　　580000000000000000シュミノ　　　　00       00006002125         0000000000000000000000000000000000000000000000000000CLOTH OF STARS                      0000000000　　　　　　　　　　　　　　　　　　0000000000　　　　　　　　　　　　　　　　　　+008000000000000000000
SEB2017111320170528C20000060012012190004ギニョール　　　　　　　　　　　　　00110405000000　　　　000000　　　　　　　　　　　　　　　　　　　　　　　　　　　　　　　　　　　　　　　　　　　　　　　　　　　　　　　　　　　　　　　　　　　　　　　　　　　　　　　　　　　　　　　　　　　　600000000000000000ミナリク　　　　00       00001002156         0000000000000000000000000000000000000000002012190003イキートス　　　　　　　　　　　　　0000000000　　　　　　　　　　　　　　　　　　0000000000　　　　　　　　　　　　　　　　　　-000000000000000000000
SEB2017111320170528C20000060022012190003イキートス　　　　　　　　　　　　　00110305000000　　　　000000　　　　　　　　　　　　　　　　　　　　　　　　　　　　　　　　　　　　　　　　　　　　　　　　　　　　　　　　　　　　　　　　　　　　　　　　　　　　　　　　　　　　　　　　　　　　600000000000000000シュタル　　　　00       00002002156K        0000000000000000000000000000000000000000002012190004ギニョール　　　　　　　　　　　　　0000000000　　　　　　　　　　　　　　　　　　0000000000　　　　　　　　　　　　　　　　　　+000000000000000000000
SEB2017111320170602A60000030052013190002アイダホ　　　　　　　　　　　　　　00110304000000　　　　000000　　　　　　　　　　　　　　　　　　　　　　　　　　　　　　　　　　　　　　　　　　　　　　　　　　　　　　　　　　　　　　　　　　　　　　　　　　　　　　　　　　　　　　　　　　　　570000000000000000ヘファナ　　　　00       00006002345         0000000000000000000000000000000000000000000000000000HIGHLAND REEL                       0000000000　　　　　　　　　　　　　　　　　　0000000000　　　　　　　　　　　　　　　　　　+012000000000000000000
SEB2017111320170624A60000030072013190002アイダホ　　　　　　　　　　　　　　00110304000000　　　　000000　　　　　　　　　　　　　　　　　　　　　　　　　　　　　　　　　　　　　　　　　　　　　　　　　　　　　　　　　　　　　　　　　　　　　　　　　　　　　　　　　　　　　　　　　　　　575000000000000000ヘファナ　　　　00       00001002289         0000000000000000000000000000000000000000000000000000BARSANTI                            0000000000　　　　　　　　　　　　　　　　　　0000000000　　　　　　　　　　　　　　　　　　0000000000000000000000
SEB2017111320170701C20000100022012190004ギニョール　　　　　　　　　　　　　00110405000000　　　　000000　　　　　　　　　　　　　　　　　　　　　　　　　　　　　　　　　　　　　　　　　　　　　　　　　　　　　　　　　　　　　　　　　　　　　　　　　　　　　　　　　　　　　　　　　　　　600000000000000000ミナリク　　　　00       00004002397         0000000000000000000000000000000000000000000000000000DSCHINGIS SECRET                    0000000000　　　　　　　　　　　　　　　　　　0000000000　　　　　　　　　　　　　　　　　　+014000000000000000000
SEB2017111320170701C20000100032012190003イキートス　　　　　　　　　　　　　00110305000000　　　　000000　　　　　　　　　　　　　　　　　　　　　　　　　　　　　　　　　　　　　　　　　　　　　　　　　　　　　　　　　　　　　　　　　　　　　　　　　　　　　　　　　　　　　　　　　　　　600000000000000000シュタル　　　　00       00002002389334      0000000000000000000000000000000000000000000000000000DSCHINGIS SECRET                    0000000000　　　　　　　　　　　　　　　　　　0000000000　　　　　　　　　　　　　　　　　　+006000000000000000000
SEB2017111320170729A60000040032013190002アイダホ　　　　　　　　　　　　　　00110304000000　　　　000000　　　　　　　　　　　　　　　　　　　　　　　　　　　　　　　　　　　　　　　　　　　　　　　　　　　　　　　　　　　　　　　　　　　　　　　　　　　　　　　　　　　　　　　　　　　　600000000000000000ヘファナ　　　　00       00003002371         0000000000000000000000000000000000000000000000000000ENABLE                              0000000000　　　　　　　　　　　　　　　　　　0000000000　　　　　　　　　　　　　　　　　　+009000000000000000000
SEB2017111320170730C20000060032012190003イキートス　　　　　　　　　　　　　00110305000000　　　　000000　　　　　　　　　　　　　　　　　　　　　　　　　　　　　　　　　　　　　　　　　　　　　　　　　　　　　　　　　　　　　　　　　　　　　　　　　　　　　　　　　　　　　　　　　　　　600000000000000000ポルク　　　　　00       00001002051         0000000000000000000000000000000000000000000000000000BEST SOLUTION                       0000000000　　　　　　　　　　　　　　　　　　0000000000　　　　　　　　　　　　　　　　　　0000000000000000000000
SEB2017111320170826A40000100072013190002アイダホ　　　　　　　　　　　　　　00110304000000　　　　000000　　　　　　　　　　　　　　　　　　　　　　　　　　　　　　　　　　　　　　　　　　　　　　　　　　　　　　　　　　　　　　　　　　　　　　　　　　　　　　　　　　　　　　　　　　　　555000000000000000ムーア　　　　　00       00006002252         0000000000000000000000000000000000000000000000000000SADLER'S JOY                        0000000000　　　　　　　　　　　　　　　　　　0000000000　　　　　　　　　　　　　　　　　　+007000000000000000000
SEB2017111320170826B60000080022011190006ブームタイム　　　　　　　　　　　　00110306000000　　　　000000　　　　　　　　　　　　　　　　　　　　　　　　　　　　　　　　　　　　　　　　　　　　　　　　　　　　　　　　　　　　　　　　　　　　　　　　　　　　　　　　　　　　　　　　　　　　575000000000000000ブラウン　　　　00       00003001311         0000000000000000000000000000000000000000000000000000HERE TO THERE                       0000000000　　　　　　　　　　　　　　　　　　0000000000　　　　　　　　　　　　　　　　　　+001000000000000000000
SEB2017111320170903C20000060012012190004ギニョール　　　　　　　　　　　　　00110405000000　　　　000000　　　　　　　　　　　　　　　　　　　　　　　　　　　　　　　　　　　　　　　　　　　　　　　　　　　　　　　　　　　　　　　　　　　　　　　　　　　　　　　　　　　　　　　　　　　　600000000000000000ミナリク　　　　00       00001002325         0000000000000000000000000000000000000000002012190003イキートス　　　　　　　　　　　　　0000000000　　　　　　　　　　　　　　　　　　0000000000　　　　　　　　　　　　　　　　　　-004000000000000000000
SEB2017111320170903C20000060022012190003イキートス　　　　　　　　　　　　　00110305000000　　　　000000　　　　　　　　　　　　　　　　　　　　　　　　　　　　　　　　　　　　　　　　　　　　　　　　　　　　　　　　　　　　　　　　　　　　　　　　　　　　　　　　　　　　　　　　　　　　600000000000000000シュタル　　　　00       00002002329212      0000000000000000000000000000000000000000002012190004ギニョール　　　　　　　　　　　　　0000000000　　　　　　　　　　　　　　　　　　0000000000　　　　　　　　　　　　　　　　　　+004000000000000000000
SEB2017111320170909B60000090022011190006ブームタイム　　　　　　　　　　　　00110306000000　　　　000000　　　　　　　　　　　　　　　　　　　　　　　　　　　　　　　　　　　　　　　　　　　　　　　　　　　　　　　　　　　　　　　　　　　　　　　　　　　　　　　　　　　　　　　　　　　　575000000000000000キャサー　　　　00       00009001387         0000000000000000000000000000000000000000000000000000STAMPEDE                            0000000000　　　　　　　　　　　　　　　　　　0000000000　　　　　　　　　　　　　　　　　　+009000000000000000000
SEB2017111320170929B60000050052011190006ブームタイム　　　　　　　　　　　　00110306000000　　　　000000　　　　　　　　　　　　　　　　　　　　　　　　　　　　　　　　　　　　　　　　　　　　　　　　　　　　　　　　　　　　　　　　　　　　　　　　　　　　　　　　　　　　　　　　　　　　560000000000000000ザーラ　　　　　00       00003002074         0000000000000000000000000000000000000000000000000000JON SNOW                            0000000000　　　　　　　　　　　　　　　　　　0000000000　　　　　　　　　　　　　　　　　　+003000000000000000000
SEB2017111320171001A80000040072013190002アイダホ　　　　　　　　　　　　　　00110304000000オブライ000000　　　　　　　　　　　　　　　　　　　　　　　　　　　　　　　　　　　　　　　　　　　　　　　　　　　　　　　　　　　　　　　　　　　　　　　　　　　　　　　　　　　　　　　　　　　　595000000000000000ヘファナ　　　　00       00008002298H        0000000000000000000000000000000000000000000000000000ENABLE                              0000000000　　　　　　　　　　　　　　　　　　0000000000　　　　　　　　　　　　　　　　　　+012000000000000000000
SEB2017111320171001A80000040112012190003イキートス　　　　　　　　　　　　　00110305000000グリュー000000　　　　　　　　　　　　　　　　　　　　　　　　　　　　　　　　　　　　　　　　　　　　　　　　　　　　　　　　　　　　　　　　　　　　　　　　　　　　　　　　　　　　　　　　　　　　595000000000000000シュタル　　　　00       00007002298A        0000000000000000000000000000000000000000000000000000ENABLE                              0000000000　　　　　　　　　　　　　　　　　　0000000000　　　　　　　　　　　　　　　　　　+012000000000000000000
SEB2017111320171014B60000040022011190006ブームタイム　　　　　　　　　　　　00110306000000　　　　000000　　　　　　　　　　　　　　　　　　　　　　　　　　　　　　　　　　　　　　　　　　　　　　　　　　　　　　　　　　　　　　　　　　　　　　　　　　　　　　　　　　　　　　　　　　　　565000000000000000パリッシ　　　　00       00004002280         0000000000000000000000000000000000000000000000000000LORD FANDANGO                       0000000000　　　　　　　　　　　　　　　　　　0000000000　　　　　　　　　　　　　　　　　　+004000000000000000000
SEB2017111320171015B80000100042013190002アイダホ　　　　　　　　　　　　　　00110304000000　　　　000000　　　　　　　　　　　　　　　　　　　　　　　　　　　　　　　　　　　　　　　　　　　　　　　　　　　　　　　　　　　　　　　　　　　　　　　　　　　　　　　　　　　　　　　　　　　　570000000000000000ムーア　　　　　00       00004002363         0000000000000000000000000000000000000000000000000000BULLARDS ALLEY                      0000000000　　　　　　　　　　　　　　　　　　0000000000　　　　　　　　　　　　　　　　　　+020000000000000000000
SEB2017111320171021B60000080132011190006ブームタイム　　　　　　　　　　　　00110306000000　　　　000000　　　　　　　　　　　　　　　　　　　　　　　　　　　　　　　　　　　　　　　　　　　　　　　　　　　　　　　　　　　　　　　　　　　　　　　　　　　　　　　　　　　　　　　　　　　　520000000000000000パリッシ　　　　00       00001002276         0000000000000000000000000000000000000000000000000000SINGLE GAZE                         0000000000　　　　　　　　　　　　　　　　　　0000000000　　　　　　　　　　　　　　　　　　0000000000000000000000
SEB2017111320171101C20000070032012190004ギニョール　　　　　　　　　　　　　00110405000000　　　　000000　　　　　　　　　　　　　　　　　　　　　　　　　　　　　　　　　　　　　　　　　　　　　　　　　　　　　　　　　　　　　　　　　　　　　　　　　　　　　　　　　　　　　　　　　　　　600000000000000000ミナリク　　　　00       00001002378         0000000000000000000000000000000000000000002012190003イキートス　　　　　　　　　　　　　0000000000　　　　　　　　　　　　　　　　　　0000000000　　　　　　　　　　　　　　　　　　-000000000000000000000
SEB2017111320171101C20000070042012190003イキートス　　　　　　　　　　　　　00110305000000　　　　000000　　　　　　　　　　　　　　　　　　　　　　　　　　　　　　　　　　　　　　　　　　　　　　　　　　　　　　　　　　　　　　　　　　　　　　　　　　　　　　　　　　　　　　　　　　　　600000000000000000ポルク　　　　　00       00002002378K        0000000000000000000000000000000000000000002012190004ギニョール　　　　　　　　　　　　　0000000000　　　　　　　　　　　　　　　　　　0000000000　　　　　　　　　　　　　　　　　　+000000000000000000000
SEB2017111320171107B60000070152011190006ブームタイム　　　　　　　　　　　　00110306000000　　　　000000　　　　　　　　　　　　　　　　　　　　　　　　　　　　　　　　　　　　　　　　　　　　　　　　　　　　　　　　　　　　　　　　　　　　　　　　　　　　　　　　　　　　　　　　　　　　530000000000000000パリッシ　　　　00       00015003234         0000000000000000000000000000000000000000000000000000REKINDLING                          0000000000　　　　　　　　　　　　　　　　　　0000000000　　　　　　　　　　　　　　　　　　+023000000000000000000
SEB2017122120171210G00000040010000000000HIGHLAND REEL                       00110005000000オブライ000000　　　　　　　　　　　　　　　　　　　　　　　　　　　　　　　　　　　　　　　　　　　　　　　　　　　　　　　　　　　　　　　　　　　　　　　　　　　　　　　　　　　　　　　　　　　　570000000000000000ムーア　　　　　00490    00001002262         0000000000000000000000000000000000000000000000000000TALISMANIC                          0000000000　　　　　　　　　　　　　　　　　　0000000000　　　　　　　　　　　　　　　　　　0000000000000000000000
SEB2017122120171210G00000040020000000000TALISMANIC                          00110004000000ファーブ000000　　　　　　　　　　　　　　　　　　　　　　　　　　　　　　　　　　　　　　　　　　　　　　　　　　　　　　　　　　　　　　　　　　　　　　　　　　　　　　　　　　　　　　　　　　　　570000000000000000ギュイヨ　　　　00501    00002000000134      0000000000000000000000000000000000000000000000000000HIGHLAND REEL                       0000000000　　　　　　　　　　　　　　　　　　0000000000　　　　　　　　　　　　　　　　　　0000000000000000000000
SEB2017122120171210G00000040030000000000TIBERIAN                            00110005000000クエティ000000　　　　　　　　　　　　　　　　　　　　　　　　　　　　　　　　　　　　　　　　　　　　　　　　　　　　　　　　　　　　　　　　　　　　　　　　　　　　　　　　　　　　　　　　　　　　570000000000000000ペリエ　　　　　00504    00011000000         0000000000000000000000000000000000000000000000000000HIGHLAND REEL                       0000000000　　　　　　　　　　　　　　　　　　0000000000　　　　　　　　　　　　　　　　　　0000000000000000000000
SEB2017122120171210G00000040040000000000CHEMICAL CHARGE                     00110005000000ベケット000000　　　　　　　　　　　　　　　　　　　　　　　　　　　　　　　　　　　　　　　　　　　　　　　　　　　　　　　　　　　　　　　　　　　　　　　　　　　　　　　　　　　　　　　　　　　　570000000000000000マーフィ　　　　00472    00004000000         0000000000000000000000000000000000000000000000000000HIGHLAND REEL                       0000000000　　　　　　　　　　　　　　　　　　0000000000　　　　　　　　　　　　　　　　　　0000000000000000000000
SEB2017122120171210G00000040050000000000DANEHILL KODIAC                     00110004000000ハノン　000000　　　　　　　　　　　　　　　　　　　　　　　　　　　　　　　　　　　　　　　　　　　　　　　　　　　　　　　　　　　　　　　　　　　　　　　　　　　　　　　　　　　　　　　　　　　　570000000000000000レヴィー　　　　00486    00010000000         0000000000000000000000000000000000000000000000000000HIGHLAND REEL                       0000000000　　　　　　　　　　　　　　　　　　0000000000　　　　　　　　　　　　　　　　　　0000000000000000000000
SEB2017122120171210G00000040060000000000EAGLE WAY                           00310005000000ムーア　000000　　　　　　　　　　　　　　　　　　　　　　　　　　　　　　　　　　　　　　　　　　　　　　　　　　　　　　　　　　　　　　　　　　　　　　　　　　　　　　　　　　　　　　　　　　　　570000000000000000ベリー　　　　　00483    00008000000         0000000000000000000000000000000000000000000000000000HIGHLAND REEL                       0000000000　　　　　　　　　　　　　　　　　　0000000000　　　　　　　　　　　　　　　　　　0000000000000000000000
SEB2017122120171210G00000040070000000000MAX DYNAMITE                        00310007000000マリンズ000000　　　　　　　　　　　　　　　　　　　　　　　　　　　　　　　　　　　　　　　　　　　　　　　　　　　　　　　　　　　　　　　　　　　　　　　　　　　　　　　　　　　　　　　　　　　　570000000000000000スコフィ　　　　00453    00006000000         0000000000000000000000000000000000000000000000000000HIGHLAND REEL                       0000000000　　　　　　　　　　　　　　　　　　0000000000　　　　　　　　　　　　　　　　　　0000000000000000000000
SEB2017122120171210G00000040082012104614トーセンバジル　　　　　　　　　　　00110405201055藤原英昭270006島川　隆哉　　　　　　　　　　　　　　　　　　　　　　　　　　　緑，青菱山形，青袖　　　　　　　　　　　　　　　　　　　　　　　　　　　　　　　　　　　　　　　　　　　　　　　　　　　570000000000000000モレイラ　　　　00484+00200303002266 34      0000000000000000000000000000000000000000000000000000HIGHLAND REEL                       0000000000　　　　　　　　　　　　　　　　　　0000000000　　　　　　　　　　　　　　　　　　+004000000000000000000
SEB2017122120171210G00000040090000000000GOLD MOUNT                          00310004000000クルーズ000000　　　　　　　　　　　　　　　　　　　　　　　　　　　　　　　　　　　　　　　　　　　　　　　　　　　　　　　　　　　　　　　　　　　　　　　　　　　　　　　　　　　　　　　　　　　　570000000000000000パートン　　　　00448    00005000000         0000000000000000000000000000000000000000000000000000HIGHLAND REEL                       0000000000　　　　　　　　　　　　　　　　　　0000000000　　　　　　　　　　　　　　　　　　0000000000000000000000
SEB2017122120171210G00000040100000000000HELENE CHARISMA                     00110004000000ムーア　000000　　　　　　　　　　　　　　　　　　　　　　　　　　　　　　　　　　　　　　　　　　　　　　　　　　　　　　　　　　　　　　　　　　　　　　　　　　　　　　　　　　　　　　　　　　　　570000000000000000クリッパ　　　　00494    00012000000         0000000000000000000000000000000000000000000000000000HIGHLAND REEL                       0000000000　　　　　　　　　　　　　　　　　　0000000000　　　　　　　　　　　　　　　　　　0000000000000000000000
SEB2017122120171210G00000040110000000000SMART CALL                          00210006000000スタウト000000　　　　　　　　　　　　　　　　　　　　　　　　　　　　　　　　　　　　　　　　　　　　　　　　　　　　　　　　　　　　　　　　　　　　　　　　　　　　　　　　　　　　　　　　　　　　555000000000000000クローリ　　　　00501    00007000000         0000000000000000000000000000000000000000000000000000HIGHLAND REEL                       0000000000　　　　　　　　　　　　　　　　　　0000000000　　　　　　　　　　　　　　　　　　0000000000000000000000
SEB2017122120171210G00000040122014101976キセキ　　　　　　　　　　　　　　　00110403201053角居勝彦248030石川　達絵　　　　　　　　　　　　　　　　　　　　　　　　　　　白，緑二本輪，白袖　　　　　　　　　　　　　　　　　　　　　　　　　　　　　　　　　　　　　　　　　　　　　　　　　　　550000000521200000Ｍ．デム　　　　00491+00300909002277 34      0000000000000000000000000000000000000000000000000000HIGHLAND REEL                       0000000000　　　　　　　　　　　　　　　　　　0000000000　　　　　　　　　　　　　　　　　　+015000000000000000000
SEB2017122120171210G00000050010000000000MR STUNNING                         00310005000000サイズ　000000　　　　　　　　　　　　　　　　　　　　　　　　　　　　　　　　　　　　　　　　　　　　　　　　　　　　　　　　　　　　　　　　　　　　　　　　　　　　　　　　　　　　　　　　　　　　570000000000000000ローウィ　　　　00490    00001001084         0000000000000000000000000000000000000000000000000000D B PIN                             0000000000　　　　　　　　　　　　　　　　　　0000000000　　　　　　　　　　　　　　　　　　0000000000000000000000
SEB2017122120171210G00000050030000000000PENIAPHOBIA                         00310006000000クルーズ000000　　　　　　　　　　　　　　　　　　　　　　　　　　　　　　　　　　　　　　　　　　　　　　　　　　　　　　　　　　　　　　　　　　　　　　　　　　　　　　　　　　　　　　　　　　　　570000000000000000チャドウ　　　　00524    00009000000         0000000000000000000000000000000000000000000000000000MR STUNNING                         0000000000　　　　　　　　　　　　　　　　　　0000000000　　　　　　　　　　　　　　　　　　0000000000000000000000
SEB2017122120171210G00000050040000000000THEWIZARDOFOZ                       00310006000000サイズ　000000　　　　　　　　　　　　　　　　　　　　　　　　　　　　　　　　　　　　　　　　　　　　　　　　　　　　　　　　　　　　　　　　　　　　　　　　　　　　　　　　　　　　　　　　　　　　570000000000000000モレイラ　　　　00530    00007000000         0000000000000000000000000000000000000000000000000000MR STUNNING                         0000000000　　　　　　　　　　　　　　　　　　0000000000　　　　　　　　　　　　　　　　　　0000000000000000000000
SEB2017122120171210G00000050050000000000AMAZING KIDS                        00310006000000サイズ　000000　　　　　　　　　　　　　　　　　　　　　　　　　　　　　　　　　　　　　　　　　　　　　　　　　　　　　　　　　　　　　　　　　　　　　　　　　　　　　　　　　　　　　　　　　　　　570000000000000000プレブル　　　　00532    00005000000         0000000000000000000000000000000000000000000000000000MR STUNNING                         0000000000　　　　　　　　　　　　　　　　　　0000000000　　　　　　　　　　　　　　　　　　0000000000000000000000
SEB2017122120171210G00000050060000000000NOT LISTENIN'TOME                   00310007000000ムーア　000000　　　　　　　　　　　　　　　　　　　　　　　　　　　　　　　　　　　　　　　　　　　　　　　　　　　　　　　　　　　　　　　　　　　　　　　　　　　　　　　　　　　　　　　　　　　　570000000000000000ベリー　　　　　00522    00010000000         0000000000000000000000000000000000000000000000000000MR STUNNING                         0000000000　　　　　　　　　　　　　　　　　　0000000000　　　　　　　　　　　　　　　　　　0000000000000000000000
SEB2017122120171210G00000050070000000000SIGNS OF BLESSING                   00310006000000ロオー　000000　　　　　　　　　　　　　　　　　　　　　　　　　　　　　　　　　　　　　　　　　　　　　　　　　　　　　　　　　　　　　　　　　　　　　　　　　　　　　　　　　　　　　　　　　　　　570000000000000000パスキエ　　　　00463    00013000000         0000000000000000000000000000000000000000000000000000MR STUNNING                         0000000000　　　　　　　　　　　　　　　　　　0000000000　　　　　　　　　　　　　　　　　　0000000000000000000000
SEB2017122120171210G00000050080000000000THE RIGHT MAN                       00310005000000ギルマン000000　　　　　　　　　　　　　　　　　　　　　　　　　　　　　　　　　　　　　　　　　　　　　　　　　　　　　　　　　　　　　　　　　　　　　　　　　　　　　　　　　　　　　　　　　　　　570000000000000000ベルトラ　　　　00469    00008000000         0000000000000000000000000000000000000000000000000000MR STUNNING                         0000000000　　　　　　　　　　　　　　　　　　0000000000　　　　　　　　　　　　　　　　　　0000000000000000000000
SEB2017122120171210G00000050100000000000D B PIN                             00310005000000サイズ　000000　　　　　　　　　　　　　　　　　　　　　　　　　　　　　　　　　　　　　　　　　　　　　　　　　　　　　　　　　　　　　　　　　　　　　　　　　　　　　　　　　　　　　　　　　　　　570000000000000000ドゥルー　　　　00519    00002000000K        0000000000000000000000000000000000000000000000000000MR STUNNING                         0000000000　　　　　　　　　　　　　　　　　　0000000000　　　　　　　　　　　　　　　　　　0000000000000000000000
SEB2017122120171210G00000050110000000000STORMY LIBERAL                      00310005000000ミラー　000000　　　　　　　　　　　　　　　　　　　　　　　　　　　　　　　　　　　　　　　　　　　　　　　　　　　　　　　　　　　　　　　　　　　　　　　　　　　　　　　　　　　　　　　　　　　　570000000000000000デソウサ　　　　00492    00011000000         0000000000000000000000000000000000000000000000000000MR STUNNING                         0000000000　　　　　　　　　　　　　　　　　　0000000000　　　　　　　　　　　　　　　　　　0000000000000000000000
SEB2017122120171210G00000050122012102095レッツゴードンキ　　　　　　　　　　00210105201084梅田智之037803廣崎利洋ＨＤ　　　　　　　　　　　　　　　　　　　　　　　　　　黒，白菱山形，袖黄一本輪　　　　　　　　　　　　　　　　　　　　　　　　　　　　　　　　　　　　　　　　　　　　　　　　555000000520300000岩田康誠　　　　00488-02200606001089 12      0000000000000000000000000000000000000000000000000000MR STUNNING                         0000000000　　　　　　　　　　　　　　　　　　0000000000　　　　　　　　　　　　　　　　　　+005000000000000000000
SEB2017122120171210G00000050132013103973ワンスインナムーン　　　　　　　　　00210304101086斎藤誠　063803いとはんホールディングス　　　　　　　　　　　　　　　　　　　　黄，黒星散，黒袖赤二本輪　　　　　　　　　　　　　　　　　　　　　　　　　　　　　　　　　　　　　　　　　　　　　　　　555000000000000000パートン　　　　00435-01701212001105212      0000000000000000000000000000000000000000000000000000MR STUNNING                         0000000000　　　　　　　　　　　　　　　　　　0000000000　　　　　　　　　　　　　　　　　　+021000000000000000000
SEB2017122120171210G00000070012011190004ビューティーオンリー　　　　　　　　00310306000000クルーズ000000　　　　　　　　　　　　　　　　　　　　　　　　　　　　　　　　　　　　　　　　　　　　　　　　　　　　　　　　　　　　　　　　　　　　　　　　　　　　　　　　　　　　　　　　　　　　570000000000000000パートン　　　　00525    00007000000         0000000000000000000000000000000000000000000000000000BEAUTY GENERATION                   0000000000　　　　　　　　　　　　　　　　　　0000000000　　　　　　　　　　　　　　　　　　0000000000000000000000
SEB2017122120171210G00000070020000000000HELENE PARAGON                      00110005000000ムーア　000000　　　　　　　　　　　　　　　　　　　　　　　　　　　　　　　　　　　　　　　　　　　　　　　　　　　　　　　　　　　　　　　　　　　　　　　　　　　　　　　　　　　　　　　　　　　　570000000000000000ベリー　　　　　00490    00003000000         0000000000000000000000000000000000000000000000000000BEAUTY GENERATION                   0000000000　　　　　　　　　　　　　　　　　　0000000000　　　　　　　　　　　　　　　　　　0000000000000000000000
SEB2017122120171210G00000070032010190006コンテントメント　　　　　　　　　　00310107000000サイズ　000000　　　　　　　　　　　　　　　　　　　　　　　　　　　　　　　　　　　　　　　　　　　　　　　　　　　　　　　　　　　　　　　　　　　　　　　　　　　　　　　　　　　　　　　　　　　　570000000000000000プレブル　　　　00523    00012000000         0000000000000000000000000000000000000000000000000000BEAUTY GENERATION                   0000000000　　　　　　　　　　　　　　　　　　0000000000　　　　　　　　　　　　　　　　　　0000000000000000000000
SEB2017122120171210G00000070042011104063サトノアラジン　　　　　　　　　　　00110306201071池江泰寿075803サトミホースカンパニー　　　　　　　　　　　　　　　　　　　　　緑，黄菱山形，袖黄縦縞　　　　　　　　　　　　　　　　　　　　　　　　　　　　　　　　　　　　　　　　　　　　　　　　　570000000000000000ボウマン　　　　00530-002011110013481        0000000000000000000000000000000000000000000000000000BEAUTY GENERATION                   0000000000　　　　　　　　　　　　　　　　　　0000000000　　　　　　　　　　　　　　　　　　+011000000000000000000
SEB2017122120171210G00000070050000000000JOYFUL TRINITY                      00310005000000ムーア　000000　　　　　　　　　　　　　　　　　　　　　　　　　　　　　　　　　　　　　　　　　　　　　　　　　　　　　　　　　　　　　　　　　　　　　　　　　　　　　　　　　　　　　　　　　　　　570000000000000000モッセ　　　　　00523    00009000000         0000000000000000000000000000000000000000000000000000BEAUTY GENERATION                   0000000000　　　　　　　　　　　　　　　　　　0000000000　　　　　　　　　　　　　　　　　　0000000000000000000000
SEB2017122120171210G00000070060000000000LIGHTNING SPEAR                     00110006000000シムコッ000000　　　　　　　　　　　　　　　　　　　　　　　　　　　　　　　　　　　　　　　　　　　　　　　　　　　　　　　　　　　　　　　　　　　　　　　　　　　　　　　　　　　　　　　　　　　　570000000000000000マーフィ　　　　00499    00010000000         0000000000000000000000000000000000000000000000000000BEAUTY GENERATION                   0000000000　　　　　　　　　　　　　　　　　　0000000000　　　　　　　　　　　　　　　　　　0000000000000000000000
SEB2017122120171210G00000070070000000000SEASONS BLOOM                       00310005000000シャム　000000　　　　　　　　　　　　　　　　　　　　　　　　　　　　　　　　　　　　　　　　　　　　　　　　　　　　　　　　　　　　　　　　　　　　　　　　　　　　　　　　　　　　　　　　　　　　570000000000000000モレイラ　　　　00468    00004000000         0000000000000000000000000000000000000000000000000000BEAUTY GENERATION                   0000000000　　　　　　　　　　　　　　　　　　0000000000　　　　　　　　　　　　　　　　　　0000000000000000000000
SEB2017122120171210G00000070080000000000HORSE OF FORTUNE                    00310007000000ミラード000000　　　　　　　　　　　　　　　　　　　　　　　　　　　　　　　　　　　　　　　　　　　　　　　　　　　　　　　　　　　　　　　　　　　　　　　　　　　　　　　　　　　　　　　　　　　　570000000000000000リスポリ　　　　00493    00006000000         0000000000000000000000000000000000000000000000000000BEAUTY GENERATION                   0000000000　　　　　　　　　　　　　　　　　　0000000000　　　　　　　　　　　　　　　　　　0000000000000000000000
SEB2017122120171210G00000070090000000000KARAR                               00310005000000グラファ000000　　　　　　　　　　　　　　　　　　　　　　　　　　　　　　　　　　　　　　　　　　　　　　　　　　　　　　　　　　　　　　　　　　　　　　　　　　　　　　　　　　　　　　　　　　　　570000000000000000ブドー　　　　　00471    00013000000         0000000000000000000000000000000000000000000000000000BEAUTY GENERATION                   0000000000　　　　　　　　　　　　　　　　　　0000000000　　　　　　　　　　　　　　　　　　0000000000000000000000
SEB2017122120171210G00000070110000000000SICHUAN DAR                         00310006000000ミラード000000　　　　　　　　　　　　　　　　　　　　　　　　　　　　　　　　　　　　　　　　　　　　　　　　　　　　　　　　　　　　　　　　　　　　　　　　　　　　　　　　　　　　　　　　　　　　570000000000000000ローウィ　　　　00448    00008000000         0000000000000000000000000000000000000000000000000000BEAUTY GENERATION                   0000000000　　　　　　　　　　　　　　　　　　0000000000　　　　　　　　　　　　　　　　　　0000000000000000000000
SEB2017122120171210G00000070130000000000LANCASTER BOMBER                    00110003000000オブライ000000　　　　　　　　　　　　　　　　　　　　　　　　　　　　　　　　　　　　　　　　　　　　　　　　　　　　　　　　　　　　　　　　　　　　　　　　　　　　　　　　　　　　　　　　　　　　565000000000000000ムーア　　　　　00504    00005000000         0000000000000000000000000000000000000000000000000000BEAUTY GENERATION                   0000000000　　　　　　　　　　　　　　　　　　0000000000　　　　　　　　　　　　　　　　　　0000000000000000000000
SEB2017122120171210G00000070140000000000ROLY POLY                           00210003000000オブライ000000　　　　　　　　　　　　　　　　　　　　　　　　　　　　　　　　　　　　　　　　　　　　　　　　　　　　　　　　　　　　　　　　　　　　　　　　　　　　　　　　　　　　　　　　　　　　550000000000000000ヘファナ　　　　00467    00014000000         0000000000000000000000000000000000000000000000000000BEAUTY GENERATION                   0000000000　　　　　　　　　　　　　　　　　　0000000000　　　　　　　　　　　　　　　　　　0000000000000000000000
SEB2017122120171210G00000080010000000000DEAUVILLE                           00110004000000オブライ000000　　　　　　　　　　　　　　　　　　　　　　　　　　　　　　　　　　　　　　　　　　　　　　　　　　　　　　　　　　　　　　　　　　　　　　　　　　　　　　　　　　　　　　　　　　　　570000000000000000ムーア　　　　　00499    00011000000         0000000000000000000000000000000000000000000000000000TIME WARP                           0000000000　　　　　　　　　　　　　　　　　　0000000000　　　　　　　　　　　　　　　　　　0000000000000000000000
SEB2017122120171210G00000080022011103978ネオリアリズム　　　　　　　　　　　00110106101070堀宣行　486800キャロットファーム　　　　　　　　　　　　　　　　　　　　　　　緑，白二本輪，白袖赤一本輪　　　　　　　　　　　　　　　　　　　　　　　　　　　　　　　　　　　　　　　　　　　　　　　570000000000000000モレイラ　　　　00512-01400303002022112      0000000000000000000000000000000000000000000000000000TIME WARP                           0000000000　　　　　　　　　　　　　　　　　　0000000000　　　　　　　　　　　　　　　　　　+006000000000000000000
SEB2017122120171210G00000080030000000000POET'S WORD                         00110004000000スタウト000000　　　　　　　　　　　　　　　　　　　　　　　　　　　　　　　　　　　　　　　　　　　　　　　　　　　　　　　　　　　　　　　　　　　　　　　　　　　　　　　　　　　　　　　　　　　　570000000000000000アッゼニ　　　　00506    00006000000         0000000000000000000000000000000000000000000000000000TIME WARP                           0000000000　　　　　　　　　　　　　　　　　　0000000000　　　　　　　　　　　　　　　　　　0000000000000000000000
SEB2017122120171210G00000080052011103854ステファノス　　　　　　　　　　　　00110306201055藤原英昭486800キャロットファーム　　　　　　　　　　　　　　　　　　　　　　　緑，白二本輪，白袖赤一本輪　　　　　　　　　　　　　　　　　　　　　　　　　　　　　　　　　　　　　　　　　　　　　　　570000000000000000ボウマン　　　　00484-00600404002023 12      0000000000000000000000000000000000000000000000000000TIME WARP                           0000000000　　　　　　　　　　　　　　　　　　0000000000　　　　　　　　　　　　　　　　　　+007000000000000000000
SEB2017122120171210G00000080060000000000SECRET WEAPON                       00310007000000イプ　　000000　　　　　　　　　　　　　　　　　　　　　　　　　　　　　　　　　　　　　　　　　　　　　　　　　　　　　　　　　　　　　　　　　　　　　　　　　　　　　　　　　　　　　　　　　　　　570000000000000000ローウィ　　　　00510    00007000000         0000000000000000000000000000000000000000000000000000TIME WARP                           0000000000　　　　　　　　　　　　　　　　　　0000000000　　　　　　　　　　　　　　　　　　0000000000000000000000
SEB2017122120171210G00000080070000000000ROBIN OF NAVAN                      00110004000000ダンロッ000000　　　　　　　　　　　　　　　　　　　　　　　　　　　　　　　　　　　　　　　　　　　　　　　　　　　　　　　　　　　　　　　　　　　　　　　　　　　　　　　　　　　　　　　　　　　　570000000000000000クリッパ　　　　00472    00008000000         0000000000000000000000000000000000000000000000000000TIME WARP                           0000000000　　　　　　　　　　　　　　　　　　0000000000　　　　　　　　　　　　　　　　　　0000000000000000000000
SEB2017122120171210G00000080080000000000GARLINGARI                          00310006000000バランド000000　　　　　　　　　　　　　　　　　　　　　　　　　　　　　　　　　　　　　　　　　　　　　　　　　　　　　　　　　　　　　　　　　　　　　　　　　　　　　　　　　　　　　　　　　　　　570000000000000000パスキエ　　　　00448    00009000000         0000000000000000000000000000000000000000000000000000TIME WARP                           0000000000　　　　　　　　　　　　　　　　　　0000000000　　　　　　　　　　　　　　　　　　0000000000000000000000
SEB2017122120171210G00000080100000000000WAR DECREE                          00110003000000オブライ000000　　　　　　　　　　　　　　　　　　　　　　　　　　　　　　　　　　　　　　　　　　　　　　　　　　　　　　　　　　　　　　　　　　　　　　　　　　　　　　　　　　　　　　　　　　　　555000000000000000ヘファナ　　　　00479    00010000000         0000000000000000000000000000000000000000000000000000TIME WARP                           0000000000　　　　　　　　　　　　　　　　　　0000000000　　　　　　　　　　　　　　　　　　0000000000000000000000
SEB2017122120171210G00000080110000000000BLOND ME                            00210005000000ボールデ000000　　　　　　　　　　　　　　　　　　　　　　　　　　　　　　　　　　　　　　　　　　　　　　　　　　　　　　　　　　　　　　　　　　　　　　　　　　　　　　　　　　　　　　　　　　　　555000000000000000マーフィ　　　　00457    00012000000         0000000000000000000000000000000000000000000000000000TIME WARP                           0000000000　　　　　　　　　　　　　　　　　　0000000000　　　　　　　　　　　　　　　　　　0000000000000000000000
SEB2017122120171210G00000080122010102459スマートレイアー　　　　　　　　　　00210707201058大久保龍007803大川　徹　　　　　　　　　　　　　　　　　　　　　　　　　　　　桃，黒ダイヤモンド，袖黒一本輪　　　　　　　　　　　　　　　　　　　　　　　　　　　　　　　　　　　　　　　　　　　　　555000000066600000武豊　　　　　　00476+00200505002024 12      0000000000000000000000000000000000000000000000000000TIME WARP                           0000000000　　　　　　　　　　　　　　　　　　0000000000　　　　　　　　　　　　　　　　　　+008000000000000000000
SEB2018031220171210G00000050092011190005ブリザード　　　　　　　　　　　　　00310106000000イウ　　000000　　　　　　　　　　　　　　　　　　　　　　　　　　　　　　　　　　　　　　　　　　　　　　　　　　　　　　　　　　　　　　　　　　　　　　　　　　　　　　　　　　　　　　　　　　　　570000000000000000モッセ　　　　　00513+00900003001087         0000000000000000000000000000000000000000000000000000MR STUNNING                         0000000000　　　　　　　　　　　　　　　　　　0000000000　　　　　　　　　　　　　　　　　　+003000000000000000000
SEB2018052120170108G00000100132012190005ウエスタンエクスプレス　　　　　　　00310105000000　　　　000000　　　　　　　　　　　　　　　　　　　　　　　　　　　　　　　　　　　　　　　　　　　　　　　　　　　　　　　　　　　　　　　　　　　　　　　　　　　　　　　　　　　　　　　　　　　　535000000000000000モレイラ　　　　00573 00000003001344         0000000000000000000000000000000000000000000000000000BEAUTY GENERATION                   0000000000　　　　　　　　　　　　　　　　　　0000000000　　　　　　　　　　　　　　　　　　+000000000000000000000
SEB2018052120170122G00000090112012190005ウエスタンエクスプレス　　　　　　　00310105000000　　　　000000　　　　　　　　　　　　　　　　　　　　　　　　　　　　　　　　　　　　　　　　　　　　　　　　　　　　　　　　　　　　　　　　　　　　　　　　　　　　　　　　　　　　　　　　　　　　570000000000000000ムーア　　　　　00567-00600010001358         0000000000000000000000000000000000000000000000000000RAPPER DRAGON                       0000000000　　　　　　　　　　　　　　　　　　0000000000　　　　　　　　　　　　　　　　　　+009000000000000000000
SEB2018052120170205G00000080052012190005ウエスタンエクスプレス　　　　　　　00310105000000　　　　000000　　　　　　　　　　　　　　　　　　　　　　　　　　　　　　　　　　　　　　　　　　　　　　　　　　　　　　　　　　　　　　　　　　　　　　　　　　　　　　　　　　　　　　　　　　　　550000000000000000モレイラ　　　　00568+00100001001216         0000000000000000000000000000000000000000000000000000CALIFORNIA WHIP                     0000000000　　　　　　　　　　　　　　　　　　0000000000　　　　　　　　　　　　　　　　　　0000000000000000000000
SEB2018052120170219G00000080052012190005ウエスタンエクスプレス　　　　　　　00310105000000　　　　000000　　　　　　　　　　　　　　　　　　　　　　　　　　　　　　　　　　　　　　　　　　　　　　　　　　　　　　　　　　　　　　　　　　　　　　　　　　　　　　　　　　　　　　　　　　　　570000000000000000プレブル　　　　00568 00000012001490         0000000000000000000000000000000000000000000000000000RAPPER DRAGON                       0000000000　　　　　　　　　　　　　　　　　　0000000000　　　　　　　　　　　　　　　　　　+021000000000000000000
SEB2018052120170319G00000100012012190005ウエスタンエクスプレス　　　　　　　00310105000000　　　　000000　　　　　　　　　　　　　　　　　　　　　　　　　　　　　　　　　　　　　　　　　　　　　　　　　　　　　　　　　　　　　　　　　　　　　　　　　　　　　　　　　　　　　　　　　　　　595000000000000000モレイラ　　　　00571+00300001001230         0000000000000000000000000000000000000000000000000000SUPER LIFELINE                      0000000000　　　　　　　　　　　　　　　　　　0000000000　　　　　　　　　　　　　　　　　　0000000000000000000000
SEB2018052120170402G00000090022012190005ウエスタンエクスプレス　　　　　　　00310105000000　　　　000000　　　　　　　　　　　　　　　　　　　　　　　　　　　　　　　　　　　　　　　　　　　　　　　　　　　　　　　　　　　　　　　　　　　　　　　　　　　　　　　　　　　　　　　　　　　　600000000000000000モレイラ　　　　00569-00200001001208         0000000000000000000000000000000000000000000000000000NEW ASIA SUNRISE                    0000000000　　　　　　　　　　　　　　　　　　0000000000　　　　　　　　　　　　　　　　　　0000000000000000000000
SEB2018052120170423G00000050032012190005ウエスタンエクスプレス　　　　　　　00310105000000　　　　000000　　　　　　　　　　　　　　　　　　　　　　　　　　　　　　　　　　　　　　　　　　　　　　　　　　　　　　　　　　　　　　　　　　　　　　　　　　　　　　　　　　　　　　　　　　　　600000000000000000モレイラ　　　　00572+00300005001221         0000000000000000000000000000000000000000000000000000MIDNIGHT RATTLER                    0000000000　　　　　　　　　　　　　　　　　　0000000000　　　　　　　　　　　　　　　　　　+003000000000000000000
SEB2018052120171001G00000080092012190005ウエスタンエクスプレス　　　　　　　00310105000000　　　　000000　　　　　　　　　　　　　　　　　　　　　　　　　　　　　　　　　　　　　　　　　　　　　　　　　　　　　　　　　　　　　　　　　　　　　　　　　　　　　　　　　　　　　　　　　　　　510000000000000000ティータ　　　　00575+00300008001224         0000000000000000000000000000000000000000000000000000BEAUTY GENERATION                   0000000000　　　　　　　　　　　　　　　　　　0000000000　　　　　　　　　　　　　　　　　　+006000000000000000000
SEB2018052120171022G00000080112012190005ウエスタンエクスプレス　　　　　　　00310105000000　　　　000000　　　　　　　　　　　　　　　　　　　　　　　　　　　　　　　　　　　　　　　　　　　　　　　　　　　　　　　　　　　　　　　　　　　　　　　　　　　　　　　　　　　　　　　　　　　　520000000000000000モレイラ　　　　00574-00100005001337         0000000000000000000000000000000000000000000000000000BEAUTY GENERATION                   0000000000　　　　　　　　　　　　　　　　　　0000000000　　　　　　　　　　　　　　　　　　+002000000000000000000
SEB2018052120171111G00000070032012190005ウエスタンエクスプレス　　　　　　　00310105000000　　　　000000　　　　　　　　　　　　　　　　　　　　　　　　　　　　　　　　　　　　　　　　　　　　　　　　　　　　　　　　　　　　　　　　　　　　　　　　　　　　　　　　　　　　　　　　　　　　595000000000000000モレイラ　　　　00569-00500001001215         0000000000000000000000000000000000000000000000000000WAH MAY FRIEND                      0000000000　　　　　　　　　　　　　　　　　　0000000000　　　　　　　　　　　　　　　　　　0000000000000000000000
SEB2018052120171119G00000080092012190005ウエスタンエクスプレス　　　　　　　00310105000000　　　　000000　　　　　　　　　　　　　　　　　　　　　　　　　　　　　　　　　　　　　　　　　　　　　　　　　　　　　　　　　　　　　　　　　　　　　　　　　　　　　　　　　　　　　　　　　　　　555000000000000000クリッパ　　　　00568-00100008001345         0000000000000000000000000000000000000000000000000000SEASONS BLOOM                       0000000000　　　　　　　　　　　　　　　　　　0000000000　　　　　　　　　　　　　　　　　　+004000000000000000000
SEB2018052120171210G00000070100000000000BEAUTY GENERATION                   00310005000000ムーア　000000　　　　　　　　　　　　　　　　　　　　　　　　　　　　　　　　　　　　　　　　　　　　　　　　　　　　　　　　　　　　　　　　　　　　　　　　　　　　　　　　　　　　　　　　　　　　570000000000000000リョン　　　　　00510    00001001337         0000000000000000000000000000000000000000002012190005ウエスタンエクスプレス　　　　　　　0000000000　　　　　　　　　　　　　　　　　　0000000000　　　　　　　　　　　　　　　　　　-001000000000000000000
SEB2018052120171210G00000070122012190005ウエスタンエクスプレス　　　　　　　00310105000000サイズ　000000　　　　　　　　　　　　　　　　　　　　　　　　　　　　　　　　　　　　　　　　　　　　　　　　　　　　　　　　　　　　　　　　　　　　　　　　　　　　　　　　　　　　　　　　　　　　570000000000000000クリッパ　　　　00569+001000020013381        0000000000000000000000000000000000000000000000000000BEAUTY GENERATION                   0000000000　　　　　　　　　　　　　　　　　　0000000000　　　　　　　　　　　　　　　　　　+001000000000000000000
SEB2018061120170130G00000090052011190007ワーザー　　　　　　　　　　　　　　00310306000000　　　　000000　　　　　　　　　　　　　　　　　　　　　　　　　　　　　　　　　　　　　　　　　　　　　　　　　　　　　　　　　　　　　　　　　　　　　　　　　　　　　　　　　　　　　　　　　　　　570000000000000000クリッパ　　　　00476-00400006001349         0000000000000000000000000000000000000000000000000000HELENE PARAGON                      0000000000　　　　　　　　　　　　　　　　　　0000000000　　　　　　　　　　　　　　　　　　+006000000000000000000
SEB2018061120170226G00000070012011190004ビューティーオンリー　　　　　　　　00310306000000　　　　000000　　　　　　　　　　　　　　　　　　　　　　　　　　　　　　　　　　　　　　　　　　　　　　　　　　　　　　　　　　　　　　　　　　　　　　　　　　　　　　　　　　　　　　　　　　　　570000000000000000パートン　　　　00518+00100005002043         0000000000000000000000000000000000000000002011190007ワーザー　　　　　　　　　　　　　　0000000000　　　　　　　　　　　　　　　　　　0000000000　　　　　　　　　　　　　　　　　　+006000000000000000000
SEB2018061120170226G00000070032011190007ワーザー　　　　　　　　　　　　　　00310306000000　　　　000000　　　　　　　　　　　　　　　　　　　　　　　　　　　　　　　　　　　　　　　　　　　　　　　　　　　　　　　　　　　　　　　　　　　　　　　　　　　　　　　　　　　　　　　　　　　　570000000000000000ボウマン　　　　00468-00800001002037         0000000000000000000000000000000000000000000000000000BLAZING SPEED                       0000000000　　　　　　　　　　　　　　　　　　0000000000　　　　　　　　　　　　　　　　　　0000000000000000000000
SEB2018061120170409G00000080032011190007ワーザー　　　　　　　　　　　　　　00310306000000　　　　000000　　　　　　　　　　　　　　　　　　　　　　　　　　　　　　　　　　　　　　　　　　　　　　　　　　　　　　　　　　　　　　　　　　　　　　　　　　　　　　　　　　　　　　　　　　　　580000000000000000クリッパ　　　　00469+00100004001342         0000000000000000000000000000000000000000000000000000RAPPER DRAGON                       0000000000　　　　　　　　　　　　　　　　　　0000000000　　　　　　　　　　　　　　　　　　+005000000000000000000
SEB2018061120170430G00000080012011190007ワーザー　　　　　　　　　　　　　　00310306000000ムーア　000000　　　　　　　　　　　　　　　　　　　　　　　　　　　　　　　　　　　　　　　　　　　　　　　　　　　　　　　　　　　　　　　　　　　　　　　　　　　　　　　　　　　　　　　　　　　　570000000000000000ボウマン　　　　00469 00000003002046         0000000000000000000000000000000000000000002011103978ネオリアリズム　　　　　　　　　　　0000000000　　　　　　　　　　　　　　　　　　0000000000　　　　　　　　　　　　　　　　　　+001000000000000000000
