SEB2008032720080114B60000060051995190017カラジ　　　　　　　　　　　　　　　00310313005537マスグロ201008Ｐ．モーガン　　　　　　　　　　　　　　　　　　　　　　　　　　　　　　　　　　　　　　　　　　　　　　　　　　　　　　　　　　　　　　　　　　　　　　　　　　　　　　　　　　　　　　560000000000000000パーク　　　　　00       00707001537         0000000000000000000000000000000000000000000000000000ESCAPE ARTIST                       0000000000　　　　　　　　　　　　　　　　　　0000000000　　　　　　　　　　　　　　　　　　+021000000000000000000
SEB2008032720080128B60000050101995190017カラジ　　　　　　　　　　　　　　　00310313005537マスグロ201008Ｐ．モーガン　　　　　　　　　　　　　　　　　　　　　　　　　　　　　　　　　　　　　　　　　　　　　　　　　　　　　　　　　　　　　　　　　　　　　　　　　　　　　　　　　　　　　　525000000000000000ヒル　　　　　　00       00909001529         0000000000000000000000000000000000000000000000000000DARTBOLT                            0000000000　　　　　　　　　　　　　　　　　　0000000000　　　　　　　　　　　　　　　　　　+019000000000000000000
SEB2008032720080216B60000020121995190017カラジ　　　　　　　　　　　　　　　00310313005537マスグロ201008Ｐ．モーガン　　　　　　　　　　　　　　　　　　　　　　　　　　　　　　　　　　　　　　　　　　　　　　　　　　　　　　　　　　　　　　　　　　　　　　　　　　　　　　　　　　　　　　545000000000000000マーテン　　　　00       01212002395         0000000000000000000000000000000000000000000000000000BRITOMART                           0000000000　　　　　　　　　　　　　　　　　　0000000000　　　　　　　　　　　　　　　　　　+016000000000000000000
SEB2008032720080229B60000040081995190017カラジ　　　　　　　　　　　　　　　00310313005537マスグロ201008Ｐ．モーガン　　　　　　　　　　　　　　　　　　　　　　　　　　　　　　　　　　　　　　　　　　　　　　　　　　　　　　　　　　　　　　　　　　　　　　　　　　　　　　　　　　　　　　540000000000000000バスター　　　　00       01010002430         0000000000000000000000000000000000000000000000000000CEFALU                              0000000000　　　　　　　　　　　　　　　　　　0000000000　　　　　　　　　　　　　　　　　　+023000000000000000000
SEB2008032720080305B60000070021995190017カラジ　　　　　　　　　　　　　　　00310313005537マスグロ201008Ｐ．モーガン　　　　　　　　　　　　　　　　　　　　　　　　　　　　　　　　　　　　　　　　　　　　　　　　　　　　　　　　　　　　　　　　　　　　　　　　　　　　　　　　　　　　　　530000000000000000ホール　　　　　00       00909002335         0000000000000000000000000000000000000000000000000000WINNERSAREGRINNERS                  0000000000　　　　　　　　　　　　　　　　　　0000000000　　　　　　　　　　　　　　　　　　+010000000000000000000
SEB2008041720080113A80000060012000190015アラームコール　　　　　　　　　　　00310308005444オルテ　453030Ｎ．ファラオン　　　　　　　　　　　　　　　　　　　　　　　　　　　　　　　　　　　　　　　　　　　　　　　　　　　　　　　　　　　　　　　　　　　　　　　　　　　　　　　　　　　　　720000000000000000ルソ　　　　　　00       00101004441         0000000000000000000000000000000000000000000000000000ANSELME ROYAL                       0000000000　　　　　　　　　　　　　　　　　　0000000000　　　　　　　　　　　　　　　　　　0000000000000000000000
SEB2008041720080201A80000060012000190015アラームコール　　　　　　　　　　　00310308005444オルテ　453030Ｎ．ファラオン　　　　　　　　　　　　　　　　　　　　　　　　　　　　　　　　　　　　　　　　　　　　　　　　　　　　　　　　　　　　　　　　　　　　　　　　　　　　　　　　　　　　　720000000000000000ピユー　　　　　00       00101005044         0000000000000000000000000000000000000000000000000000ETOILE D'AINAY                      0000000000　　　　　　　　　　　　　　　　　　0000000000　　　　　　　　　　　　　　　　　　0000000000000000000000
SEB2008041720080302A80000050032000190015アラームコール　　　　　　　　　　　00310308005444オルテ　453030Ｎ．ファラオン　　　　　　　　　　　　　　　　　　　　　　　　　　　　　　　　　　　　　　　　　　　　　　　　　　　　　　　　　　　　　　　　　　　　　　　　　　　　　　　　　　　　　690000000000000000ピユー　　　　　00       00101005400         0000000000000000000000000000000000000000000000000000OKAIDO                              0000000000　　　　　　　　　　　　　　　　　　0000000000　　　　　　　　　　　　　　　　　　0000000000000000000000
SEB2008041720080322A40000050032000190016グライディング　　　　　　　　　　　00310308005608フォウト726800ブリガドーン・ステーブル　　　　　　　　　　　　　　　　　　　　　　　　　　　　　　　　　　　　　　　　　　　　　　　　　　　　　　　　　　　　　　　　　　　　　　　　　　　　　　　　715000000000000000ヤング　　　　　00       00003004182         0000000000000000000000000000000000000000000000000000PREEMPTIVE STRIKE                   0000000000　　　　　　　　　　　　　　　　　　0000000000　　　　　　　　　　　　　　　　　　+008000000000000000000
SEB2008040720080329C70000030010000000000COCOA BEACH                         00210004000000ビン・ス000000　　　　　　　　　　　　　　　　　　　　　　　　　　　　　　　　　　　　　　　　　　　　　　　　　　　　　　　　　　　　　　　　　　　　　　　　　　　　　　　　　　　　　　　　　　　　570000000000000000ダーカン　　　　00       00303000000334      0000000000000000000000000000000000000000000000000000HONOUR DEVIL                        0000000000　　　　　　　　　　　　　　　　　　0000000000　　　　　　　　　　　　　　　　　　0000000000000000000000
SEB2008040720080329C70000030020000000000NUMAANY                             00110003000000ビン・ス000000　　　　　　　　　　　　　　　　　　　　　　　　　　　　　　　　　　　　　　　　　　　　　　　　　　　　　　　　　　　　　　　　　　　　　　　　　　　　　　　　　　　　　　　　　　　　550000000000000000マカヴォ　　　　00       01010000000T        0000000000000000000000000000000000000000000000000000HONOUR DEVIL                        0000000000　　　　　　　　　　　　　　　　　　0000000000　　　　　　　　　　　　　　　　　　0000000000000000000000
SEB2008040720080329C70000030030000000000MY INDY                             00110004000000ビン・ス000000　　　　　　　　　　　　　　　　　　　　　　　　　　　　　　　　　　　　　　　　　　　　　　　　　　　　　　　　　　　　　　　　　　　　　　　　　　　　　　　　　　　　　　　　　　　　590000000000000000デットー　　　　00       00606000000312      0000000000000000000000000000000000000000000000000000HONOUR DEVIL                        0000000000　　　　　　　　　　　　　　　　　　0000000000　　　　　　　　　　　　　　　　　　0000000000000000000000
SEB2008040720080329C70000030040000000000MASSIVE DRAMA                       00110003000000ロマンズ000000　　　　　　　　　　　　　　　　　　　　　　　　　　　　　　　　　　　　　　　　　　　　　　　　　　　　　　　　　　　　　　　　　　　　　　　　　　　　　　　　　　　　　　　　　　　　550000000000000000ゴメス　　　　　00       00909000000T        0000000000000000000000000000000000000000000000000000HONOUR DEVIL                        0000000000　　　　　　　　　　　　　　　　　　0000000000　　　　　　　　　　　　　　　　　　0000000000000000000000
SEB2008040720080329C70000030050000000000ROCK ASCOT                          00110004000000ワトソン000000　　　　　　　　　　　　　　　　　　　　　　　　　　　　　　　　　　　　　　　　　　　　　　　　　　　　　　　　　　　　　　　　　　　　　　　　　　　　　　　　　　　　　　　　　　　　590000000000000000ビレル　　　　　00000    10000000000         0000000000000000000000000000000000000009990000000000HONOUR DEVIL                        0000000000　　　　　　　　　　　　　　　　　　0000000000　　　　　　　　　　　　　　　　　　9999000000000000000000
SEB2008040720080329C70000030060000000000UKRAINIAN                           00110004000000ペレイラ000000　　　　　　　　　　　　　　　　　　　　　　　　　　　　　　　　　　　　　　　　　　　　　　　　　　　　　　　　　　　　　　　　　　　　　　　　　　　　　　　　　　　　　　　　　　　　590000000000000000マレン　　　　　00       00707000000 14      0000000000000000000000000000000000000000000000000000HONOUR DEVIL                        0000000000　　　　　　　　　　　　　　　　　　0000000000　　　　　　　　　　　　　　　　　　0000000000000000000000
SEB2008040720080329C70000030070000000000LIGHT GREEN                         00210004000000フィリオ000000　　　　　　　　　　　　　　　　　　　　　　　　　　　　　　　　　　　　　　　　　　　　　　　　　　　　　　　　　　　　　　　　　　　　　　　　　　　　　　　　　　　　　　　　　　　　570000000000000000キネーン　　　　00       00404000000 14      0000000000000000000000000000000000000000000000000000HONOUR DEVIL                        0000000000　　　　　　　　　　　　　　　　　　0000000000　　　　　　　　　　　　　　　　　　0000000000000000000000
SEB2008040720080329C70000030080000000000ROYAL VINTAGE                       00110004000000デコック000000　　　　　　　　　　　　　　　　　　　　　　　　　　　　　　　　　　　　　　　　　　　　　　　　　　　　　　　　　　　　　　　　　　　　　　　　　　　　　　　　　　　　　　　　　　　　590000000000000000シーア　　　　　00       00202000000414      0000000000000000000000000000000000000000000000000000HONOUR DEVIL                        0000000000　　　　　　　　　　　　　　　　　　0000000000　　　　　　　　　　　　　　　　　　0000000000000000000000
SEB2008040720080329C70000030090000000000HONOUR DEVIL                        00110004000000デコック000000　　　　　　　　　　　　　　　　　　　　　　　　　　　　　　　　　　　　　　　　　　　　　　　　　　　　　　　　　　　　　　　　　　　　　　　　　　　　　　　　　　　　　　　　　　　　590000000000000000ムルタ　　　　　00       00101001486         0000000000000000000000000000000000000000000000000000ROYAL VINTAGE                       0000000000　　　　　　　　　　　　　　　　　　0000000000　　　　　　　　　　　　　　　　　　0000000000000000000000
SEB2008040720080329C70000030100000000000ZAIN ALMA AENEE                     00110003000000スバイエ000000　　　　　　　　　　　　　　　　　　　　　　　　　　　　　　　　　　　　　　　　　　　　　　　　　　　　　　　　　　　　　　　　　　　　　　　　　　　　　　　　　　　　　　　　　　　　550000000000000000　　　　　　　　00000    10000000000         0000000000000000000000000000000000000009990000000000HONOUR DEVIL                        0000000000　　　　　　　　　　　　　　　　　　0000000000　　　　　　　　　　　　　　　　　　9999000000000000000000
SEB2008040720080329C70000030110000000000STRIKE THE DEAL                     00110003000000ノセダ　000000　　　　　　　　　　　　　　　　　　　　　　　　　　　　　　　　　　　　　　　　　　　　　　　　　　　　　　　　　　　　　　　　　　　　　　　　　　　　　　　　　　　　　　　　　　　　550000000000000000ムーア　　　　　00       00505000000114      0000000000000000000000000000000000000000000000000000HONOUR DEVIL                        0000000000　　　　　　　　　　　　　　　　　　0000000000　　　　　　　　　　　　　　　　　　0000000000000000000000
SEB2008040720080329C70000030122005100924イイデケンシン　　　　　　　　　　　00110303201044昆貢　　909800アールエスエーカントリ　　　　　　　　　　　　　　　　　　　　　緑，赤袖白三本輪　　　　　　　　　　　　　　　　　　　　　　　　　　　　　　　　　　　　　　　　　　　　　　　　　　　　550000000070500000藤田伸二　　　　00       008080000004        0000000000000000000000000000000000000000000000000000HONOUR DEVIL                        0000000000　　　　　　　　　　　　　　　　　　0000000000　　　　　　　　　　　　　　　　　　0000000000000000000000
SEB2008040720080329C70000050010000000000NOTIONAL                            00110004000000オニール000000　　　　　　　　　　　　　　　　　　　　　　　　　　　　　　　　　　　　　　　　　　　　　　　　　　　　　　　　　　　　　　　　　　　　　　　　　　　　　　　　　　　　　　　　　　　　570000000000000000ゴメス　　　　　00       01616000000T        0000000000000000000000000000000000000000000000000000JAY PEG                             0000000000　　　　　　　　　　　　　　　　　　0000000000　　　　　　　　　　　　　　　　　　0000000000000000000000
SEB2008040720080329C70000050020000000000MAJESTIC ROI                        00210004000000シャノン000000　　　　　　　　　　　　　　　　　　　　　　　　　　　　　　　　　　　　　　　　　　　　　　　　　　　　　　　　　　　　　　　　　　　　　　　　　　　　　　　　　　　　　　　　　　　　550000000000000000ホランド　　　　00       01515000000314      0000000000000000000000000000000000000000000000000000JAY PEG                             0000000000　　　　　　　　　　　　　　　　　　0000000000　　　　　　　　　　　　　　　　　　0000000000000000000000
SEB2008040720080329C70000050030000000000FLORAL PEGASUS                      00110006000000クルーズ000000　　　　　　　　　　　　　　　　　　　　　　　　　　　　　　　　　　　　　　　　　　　　　　　　　　　　　　　　　　　　　　　　　　　　　　　　　　　　　　　　　　　　　　　　　　　　570000000000000000モッセ　　　　　00       00707000000 14      0000000000000000000000000000000000000000000000000000JAY PEG                             0000000000　　　　　　　　　　　　　　　　　　0000000000　　　　　　　　　　　　　　　　　　0000000000000000000000
SEB2008040720080329C70000050040000000000SEACHANGE                           00210006000000マニング000000　　　　　　　　　　　　　　　　　　　　　　　　　　　　　　　　　　　　　　　　　　　　　　　　　　　　　　　　　　　　　　　　　　　　　　　　　　　　　　　　　　　　　　　　　　　　550000000000000000ダーカン　　　　00       00606000000H        0000000000000000000000000000000000000000000000000000JAY PEG                             0000000000　　　　　　　　　　　　　　　　　　0000000000　　　　　　　　　　　　　　　　　　0000000000000000000000
SEB2008040720080329C70000050052004102987アドマイヤオーラ　　　　　　　　　　00110304200348松田博資398002近藤　利一　　　　　　　　　　　　　　　　　　　　　　　　　　　水色，白袖，青鋸歯形　　　　　　　　　　　　　　　　　　　　　　　　　　　　　　　　　　　　　　　　　　　　　　　　　　570000000094500000安藤勝己　　　　00       00909000000 12      0000000000000000000000000000000000000000000000000000JAY PEG                             0000000000　　　　　　　　　　　　　　　　　　0000000000　　　　　　　　　　　　　　　　　　0000000000000000000000
SEB2008040720080329C70000050060000000000FINSCEAL BEO                        00210004000000ボルジャ000000　　　　　　　　　　　　　　　　　　　　　　　　　　　　　　　　　　　　　　　　　　　　　　　　　　　　　　　　　　　　　　　　　　　　　　　　　　　　　　　　　　　　　　　　　　　　550000000000000000マニング　　　　00       00505000000 12      0000000000000000000000000000000000000000000000000000JAY PEG                             0000000000　　　　　　　　　　　　　　　　　　0000000000　　　　　　　　　　　　　　　　　　0000000000000000000000
SEB2008040720080329C70000050070000000000ARCHIPENKO                          00110004000000デコック000000　　　　　　　　　　　　　　　　　　　　　　　　　　　　　　　　　　　　　　　　　　　　　　　　　　　　　　　　　　　　　　　　　　　　　　　　　　　　　　　　　　　　　　　　　　　　570000000000000000シーア　　　　　00       00303000000H        0000000000000000000000000000000000000000000000000000JAY PEG                             0000000000　　　　　　　　　　　　　　　　　　0000000000　　　　　　　　　　　　　　　　　　0000000000000000000000
SEB2008040720080329C70000050080000000000NICONERO                            00310007000000ヘイズ　000000　　　　　　　　　　　　　　　　　　　　　　　　　　　　　　　　　　　　　　　　　　　　　　　　　　　　　　　　　　　　　　　　　　　　　　　　　　　　　　　　　　　　　　　　　　　　570000000000000000ウィリア　　　　00       01111000000114      0000000000000000000000000000000000000000000000000000JAY PEG                             0000000000　　　　　　　　　　　　　　　　　　0000000000　　　　　　　　　　　　　　　　　　0000000000000000000000
SEB2008040720080329C70000050090000000000CREACHADOIR                         00110004000000ビン・ス000000　　　　　　　　　　　　　　　　　　　　　　　　　　　　　　　　　　　　　　　　　　　　　　　　　　　　　　　　　　　　　　　　　　　　　　　　　　　　　　　　　　　　　　　　　　　　570000000000000000マカヴォ　　　　00       00808000000 12      0000000000000000000000000000000000000000000000000000JAY PEG                             0000000000　　　　　　　　　　　　　　　　　　0000000000　　　　　　　　　　　　　　　　　　0000000000000000000000
SEB2008040720080329C70000050100000000000LITERATO                            00110004000000ビン・ス000000　　　　　　　　　　　　　　　　　　　　　　　　　　　　　　　　　　　　　　　　　　　　　　　　　　　　　　　　　　　　　　　　　　　　　　　　　　　　　　　　　　　　　　　　　　　　570000000000000000デットー　　　　00       01212000000 34      0000000000000000000000000000000000000000000000000000JAY PEG                             0000000000　　　　　　　　　　　　　　　　　　0000000000　　　　　　　　　　　　　　　　　　0000000000000000000000
SEB2008040720080329C70000050110000000000DARJINA                             00210004000000ド・ロワ000000　　　　　　　　　　　　　　　　　　　　　　　　　　　　　　　　　　　　　　　　　　　　　　　　　　　　　　　　　　　　　　　　　　　　　　　　　　　　　　　　　　　　　　　　　　　　550000000000000000スミヨン　　　　00       00202000000 12      0000000000000000000000000000000000000000000000000000JAY PEG                             0000000000　　　　　　　　　　　　　　　　　　0000000000　　　　　　　　　　　　　　　　　　0000000000000000000000
SEB2008040720080329C70000050122004104258ウオッカ　　　　　　　　　　　　　　00210304201053角居勝彦764001谷水　雄三　　　　　　　　　　　　　　　　　　　　　　　　　　　黄，水色襷　　　　　　　　　　　　　　　　　　　　　　　　　　　　　　　　　　　　　　　　　　　　　　　　　　　　　　　550000000066600000武豊　　　　　　00       00404000000114      0000000000000000000000000000000000000000000000000000JAY PEG                             0000000000　　　　　　　　　　　　　　　　　　0000000000　　　　　　　　　　　　　　　　　　0000000000000000000000
SEB2008040720080329C70000050140000000000JAY PEG                             00110005000000ブラウン000000　　　　　　　　　　　　　　　　　　　　　　　　　　　　　　　　　　　　　　　　　　　　　　　　　　　　　　　　　　　　　　　　　　　　　　　　　　　　　　　　　　　　　　　　　　　　570000000000000000マーカス　　　　00       00101001462         0000000000000000000000000000000000000000000000000000DARJINA                             0000000000　　　　　　　　　　　　　　　　　　0000000000　　　　　　　　　　　　　　　　　　0000000000000000000000
SEB2008040720080329C70000050150000000000LORD ADMIRAL                        00110007000000オブライ000000　　　　　　　　　　　　　　　　　　　　　　　　　　　　　　　　　　　　　　　　　　　　　　　　　　　　　　　　　　　　　　　　　　　　　　　　　　　　　　　　　　　　　　　　　　　　570000000000000000キネーン　　　　00       01010000000 12      0000000000000000000000000000000000000000000000000000JAY PEG                             0000000000　　　　　　　　　　　　　　　　　　0000000000　　　　　　　　　　　　　　　　　　0000000000000000000000
SEB2008040720080329C70000050160000000000LINNGARI                            00110006000000ブラウン000000　　　　　　　　　　　　　　　　　　　　　　　　　　　　　　　　　　　　　　　　　　　　　　　　　　　　　　　　　　　　　　　　　　　　　　　　　　　　　　　　　　　　　　　　　　　　570000000000000000ムーア　　　　　00       01414000000H        0000000000000000000000000000000000000000000000000000JAY PEG                             0000000000　　　　　　　　　　　　　　　　　　0000000000　　　　　　　　　　　　　　　　　　0000000000000000000000
SEB2008040720080329C70000070010000000000SWAY YED                            00110007000000アルカタ000000　　　　　　　　　　　　　　　　　　　　　　　　　　　　　　　　　　　　　　　　　　　　　　　　　　　　　　　　　　　　　　　　　　　　　　　　　　　　　　　　　　　　　　　　　　　　570000000000000000ペリエ　　　　　00       01010000000412      0000000000000000000000000000000000000000000000000000CURLIN                              0000000000　　　　　　　　　　　　　　　　　　0000000000　　　　　　　　　　　　　　　　　　0000000000000000000000
SEB2008040720080329C70000070020000000000WELL ARMED                          00310005000000ハーティ000000　　　　　　　　　　　　　　　　　　　　　　　　　　　　　　　　　　　　　　　　　　　　　　　　　　　　　　　　　　　　　　　　　　　　　　　　　　　　　　　　　　　　　　　　　　　　570000000000000000グライダ　　　　00       00303000000 14      0000000000000000000000000000000000000000000000000000CURLIN                              0000000000　　　　　　　　　　　　　　　　　　0000000000　　　　　　　　　　　　　　　　　　0000000000000000000000
SEB2008040720080329C70000070030000000000HAPPY BOY                           00110005000000ビン・ス000000　　　　　　　　　　　　　　　　　　　　　　　　　　　　　　　　　　　　　　　　　　　　　　　　　　　　　　　　　　　　　　　　　　　　　　　　　　　　　　　　　　　　　　　　　　　　570000000000000000マカヴォ　　　　00000    10000000000         0000000000000000000000000000000000000009990000000000CURLIN                              0000000000　　　　　　　　　　　　　　　　　　0000000000　　　　　　　　　　　　　　　　　　9999000000000000000000
SEB2008040720080329C70000070040000000000KOCAB                               00110006000000ファーブ000000　　　　　　　　　　　　　　　　　　　　　　　　　　　　　　　　　　　　　　　　　　　　　　　　　　　　　　　　　　　　　　　　　　　　　　　　　　　　　　　　　　　　　　　　　　　　570000000000000000パスキエ　　　　00       011110000002        0000000000000000000000000000000000000000000000000000CURLIN                              0000000000　　　　　　　　　　　　　　　　　　0000000000　　　　　　　　　　　　　　　　　　0000000000000000000000
SEB2008040720080329C70000070050000000000GREAT HUNTER                        00110004000000オニール000000　　　　　　　　　　　　　　　　　　　　　　　　　　　　　　　　　　　　　　　　　　　　　　　　　　　　　　　　　　　　　　　　　　　　　　　　　　　　　　　　　　　　　　　　　　　　570000000000000000ゴメス　　　　　00       005050000001        0000000000000000000000000000000000000000000000000000CURLIN                              0000000000　　　　　　　　　　　　　　　　　　0000000000　　　　　　　　　　　　　　　　　　0000000000000000000000
SEB2008040720080329C70000070060000000000PREMIUM TAP                         00110006000000ガルデル000000　　　　　　　　　　　　　　　　　　　　　　　　　　　　　　　　　　　　　　　　　　　　　　　　　　　　　　　　　　　　　　　　　　　　　　　　　　　　　　　　　　　　　　　　　　　　570000000000000000マドリー　　　　00       00909000000T        0000000000000000000000000000000000000000000000000000CURLIN                              0000000000　　　　　　　　　　　　　　　　　　0000000000　　　　　　　　　　　　　　　　　　0000000000000000000000
SEB2008040720080329C70000070072002100877ヴァーミリアン　　　　　　　　　　　00110406201022石坂正　226800サンデーレーシング　　　　　　　　　　　　　　　　　　　　　　　黒，赤十字襷，袖黄縦縞　　　　　　　　　　　　　　　　　　　　　　　　　　　　　　　　　　　　　　　　　　　　　　　　　570000000066600000武豊　　　　　　00       01212000000412      0000000000000000000000000000000000000000000000000000CURLIN                              0000000000　　　　　　　　　　　　　　　　　　0000000000　　　　　　　　　　　　　　　　　　0000000000000000000000
SEB2008040720080329C70000070080000000000JALIL                               00110004000000ビン・ス000000　　　　　　　　　　　　　　　　　　　　　　　　　　　　　　　　　　　　　　　　　　　　　　　　　　　　　　　　　　　　　　　　　　　　　　　　　　　　　　　　　　　　　　　　　　　　570000000000000000デットー　　　　00       00707000000514      0000000000000000000000000000000000000000000000000000CURLIN                              0000000000　　　　　　　　　　　　　　　　　　0000000000　　　　　　　　　　　　　　　　　　0000000000000000000000
SEB2008040720080329C70000070090000000000ASIATIC BOY                         00110005000000デコック000000　　　　　　　　　　　　　　　　　　　　　　　　　　　　　　　　　　　　　　　　　　　　　　　　　　　　　　　　　　　　　　　　　　　　　　　　　　　　　　　　　　　　　　　　　　　　570000000000000000ムルタ　　　　　00       00202000000734      0000000000000000000000000000000000000000000000000000CURLIN                              0000000000　　　　　　　　　　　　　　　　　　0000000000　　　　　　　　　　　　　　　　　　0000000000000000000000
SEB2008040720080329C70000070100000000000LUCKY FIND                          00310005000000デコック000000　　　　　　　　　　　　　　　　　　　　　　　　　　　　　　　　　　　　　　　　　　　　　　　　　　　　　　　　　　　　　　　　　　　　　　　　　　　　　　　　　　　　　　　　　　　　570000000000000000シーア　　　　　00       00606000000 12      0000000000000000000000000000000000000000000000000000CURLIN                              0000000000　　　　　　　　　　　　　　　　　　0000000000　　　　　　　　　　　　　　　　　　0000000000000000000000
SEB2008040720080329C70000070110000000000GLORIA DE CAMPEAO                   00110005000000バリー　000000　　　　　　　　　　　　　　　　　　　　　　　　　　　　　　　　　　　　　　　　　　　　　　　　　　　　　　　　　　　　　　　　　　　　　　　　　　　　　　　　　　　　　　　　　　　　570000000000000000ルメール　　　　00       008080000001        0000000000000000000000000000000000000000000000000000CURLIN                              0000000000　　　　　　　　　　　　　　　　　　0000000000　　　　　　　　　　　　　　　　　　0000000000000000000000
SEB2008040720080329C70000070120000000000CURLIN                              00110004000000アスムッ000000　　　　　　　　　　　　　　　　　　　　　　　　　　　　　　　　　　　　　　　　　　　　　　　　　　　　　　　　　　　　　　　　　　　　　　　　　　　　　　　　　　　　　　　　　　　　570000000000000000アルバラ　　　　00       00101002001         0000000000000000000000000000000000000000000000000000ASIATIC BOY                         0000000000　　　　　　　　　　　　　　　　　　0000000000　　　　　　　　　　　　　　　　　　0000000000000000000000
SEB2008040720080329C70000070130000000000A P ARROW                           00110006000000プレッチ000000　　　　　　　　　　　　　　　　　　　　　　　　　　　　　　　　　　　　　　　　　　　　　　　　　　　　　　　　　　　　　　　　　　　　　　　　　　　　　　　　　　　　　　　　　　　　570000000000000000ドミンゲ　　　　00       00404000000 34      0000000000000000000000000000000000000000000000000000CURLIN                              0000000000　　　　　　　　　　　　　　　　　　0000000000　　　　　　　　　　　　　　　　　　0000000000000000000000
SEB2008050820080427G00000070040000000000FLORAL PEGASUS                      00110006000000クルーズ000000　　　　　　　　　　　　　　　　　　　　　　　　　　　　　　　　　　　　　　　　　　　　　　　　　　　　　　　　　　　　　　　　　　　　　　　　　　　　　　　　　　　　　　　　　　　　570000000000000000コーツィ　　　　00       00606001346214      0000000000000000000000000000000000000000002002190003グッドババ　　　　　　　　　　　　　0000000000　　　　　　　　　　　　　　　　　　0000000000　　　　　　　　　　　　　　　　　　+011000000000000000000
SEB2008050820080427G00000070052000190012ジョイフルウィナー　　　　　　　　　00310308005576ムーア　787008Ｋ．コン　　　　　　　　　　　　　　　　　　　　　　　　　　　　　　　　　　　　　　　　　　　　　　　　　　　　　　　　　　　　　　　　　　　　　　　　　　　　　　　　　　　　　　　　570000000000000000ビードマ　　　　00       00404001342 34      0000000000000000000000000000000000000000002002190003グッドババ　　　　　　　　　　　　　0000000000　　　　　　　　　　　　　　　　　　0000000000　　　　　　　　　　　　　　　　　　+007000000000000000000
SEB2008050820080427G00000070062002190002エイブルワン　　　　　　　　　　　　00310306005576ムーア　350030Ｆ．リー　　　　　　　　　　　　　　　　　　　　　　　　　　　　　　　　　　　　　　　　　　　　　　　　　　　　　　　　　　　　　　　　　　　　　　　　　　　　　　　　　　　　　　　　570000000000000000サンマル　　　　00       00909001349134      0000000000000000000000000000000000000000002002190003グッドババ　　　　　　　　　　　　　0000000000　　　　　　　　　　　　　　　　　　0000000000　　　　　　　　　　　　　　　　　　+014000000000000000000
SEB2008050820080427G00000070070000000000JOY AND FUN                         00310005000000クルーズ000000　　　　　　　　　　　　　　　　　　　　　　　　　　　　　　　　　　　　　　　　　　　　　　　　　　　　　　　　　　　　　　　　　　　　　　　　　　　　　　　　　　　　　　　　　　　　570000000000000000ボス　　　　　　00       00505001342K        0000000000000000000000000000000000000000002002190003グッドババ　　　　　　　　　　　　　0000000000　　　　　　　　　　　　　　　　　　0000000000　　　　　　　　　　　　　　　　　　+007000000000000000000
SEB2008050820080427G00000070092004101099マイネルシーガル　　　　　　　　　　00110404100399国枝栄　546800サラブレッドクラブ・ラフィアン　　　　　　　　　　　　　　　　　赤，緑袖赤一本輪　　　　　　　　　　　　　　　　　　　　　　　　　　　　　　　　　　　　　　　　　　　　　　　　　　　　570000000066300000蛯名正義　　　　00522    01010001353212      0000000000000000000000000000000000000000002002190003グッドババ　　　　　　　　　　　　　0000000000　　　　　　　　　　　　　　　　　　0000000000　　　　　　　　　　　　　　　　　　+018000000000000000000
SEB2008050820080427G00000070100000000000DAO DAO                             00310005000000サイズ　000000　　　　　　　　　　　　　　　　　　　　　　　　　　　　　　　　　　　　　　　　　　　　　　　　　　　　　　　　　　　　　　　　　　　　　　　　　　　　　　　　　　　　　　　　　　　　570000000000000000パートン　　　　00       00808001346K        0000000000000000000000000000000000000000002002190003グッドババ　　　　　　　　　　　　　0000000000　　　　　　　　　　　　　　　　　　0000000000　　　　　　　　　　　　　　　　　　+011000000000000000000
SEB2008050820080427G00000080010000000000VIVA PATACA                         00310006000000ムーア　000000　　　　　　　　　　　　　　　　　　　　　　　　　　　　　　　　　　　　　　　　　　　　　　　　　　　　　　　　　　　　　　　　　　　　　　　　　　　　　　　　　　　　　　　　　　　　570000000000000000ビードマ　　　　00       00303002011K        0000000000000000000000000000000000000000000000000000ARCHIPENKO                          0000000000　　　　　　　　　　　　　　　　　　0000000000　　　　　　　　　　　　　　　　　　+003000000000000000000
SEB2008050820080427G00000080022003104570マツリダゴッホ　　　　　　　　　　　00110305100399国枝栄　246006高橋　文枝　　　　　　　　　　　　　　　　　　　　　　　　　　　桃，黒縦縞，黒袖桃一本輪　　　　　　　　　　　　　　　　　　　　　　　　　　　　　　　　　　　　　　　　　　　　　　　　570000000066300000蛯名正義　　　　00480    00606002014H        0000000000000000000000000000000000000000000000000000ARCHIPENKO                          0000000000　　　　　　　　　　　　　　　　　　0000000000　　　　　　　　　　　　　　　　　　+006000000000000000000
SEB2008050820080427G00000080030000000000ARCHIPENKO                          00110004000000デコック000000　　　　　　　　　　　　　　　　　　　　　　　　　　　　　　　　　　　　　　　　　　　　　　　　　　　　　　　　　　　　　　　　　　　　　　　　　　　　　　　　　　　　　　　　　　　　570000000000000000シーア　　　　　00       00101002008         0000000000000000000000000000000000000000000000000000BALIUS                              0000000000　　　　　　　　　　　　　　　　　　0000000000　　　　　　　　　　　　　　　　　　-002000000000000000000
SEB2008050820080427G00000080040000000000QUIJANO                             00310006000000シールゲ000000　　　　　　　　　　　　　　　　　　　　　　　　　　　　　　　　　　　　　　　　　　　　　　　　　　　　　　　　　　　　　　　　　　　　　　　　　　　　　　　　　　　　　　　　　　　　570000000000000000シュタル　　　　00       00505002014114      0000000000000000000000000000000000000000000000000000ARCHIPENKO                          0000000000　　　　　　　　　　　　　　　　　　0000000000　　　　　　　　　　　　　　　　　　+006000000000000000000
SEB2008050820080427G00000080050000000000JACKPOT DELIGHT                     00310005000000ファウン000000　　　　　　　　　　　　　　　　　　　　　　　　　　　　　　　　　　　　　　　　　　　　　　　　　　　　　　　　　　　　　　　　　　　　　　　　　　　　　　　　　　　　　　　　　　　　570000000000000000モッセ　　　　　00000    10000000000         0000000000000000000000000000000000000009990000000000ARCHIPENKO                          0000000000　　　　　　　　　　　　　　　　　　0000000000　　　　　　　　　　　　　　　　　　9999000000000000000000
SEB2008050820080427G00000080060000000000PACKING WINNER                      00310006000000ホー　　000000　　　　　　　　　　　　　　　　　　　　　　　　　　　　　　　　　　　　　　　　　　　　　　　　　　　　　　　　　　　　　　　　　　　　　　　　　　　　　　　　　　　　　　　　　　　　570000000000000000ホワイト　　　　00       00404002012 12      0000000000000000000000000000000000000000000000000000ARCHIPENKO                          0000000000　　　　　　　　　　　　　　　　　　0000000000　　　　　　　　　　　　　　　　　　+004000000000000000000
SEB2008050820080427G00000080070000000000HELENE MASCOT                       00110004000000クルーズ000000　　　　　　　　　　　　　　　　　　　　　　　　　　　　　　　　　　　　　　　　　　　　　　　　　　　　　　　　　　　　　　　　　　　　　　　　　　　　　　　　　　　　　　　　　　　　570000000000000000コーツィ　　　　00       00808002017114      0000000000000000000000000000000000000000000000000000ARCHIPENKO                          0000000000　　　　　　　　　　　　　　　　　　0000000000　　　　　　　　　　　　　　　　　　+009000000000000000000
SEB2008050820080427G00000080080000000000SIR SLICK                           00310007000000ニコルソ000000　　　　　　　　　　　　　　　　　　　　　　　　　　　　　　　　　　　　　　　　　　　　　　　　　　　　　　　　　　　　　　　　　　　　　　　　　　　　　　　　　　　　　　　　　　　　570000000000000000ハード　　　　　00       011110020201        0000000000000000000000000000000000000000000000000000ARCHIPENKO                          0000000000　　　　　　　　　　　　　　　　　　0000000000　　　　　　　　　　　　　　　　　　+012000000000000000000
SEB2008050820080427G00000080090000000000BALIUS                              00110005000000ラフォン000000　　　　　　　　　　　　　　　　　　　　　　　　　　　　　　　　　　　　　　　　　　　　　　　　　　　　　　　　　　　　　　　　　　　　　　　　　　　　　　　　　　　　　　　　　　　　570000000000000000ドゥルー　　　　00       00202002010134      0000000000000000000000000000000000000000000000000000ARCHIPENKO                          0000000000　　　　　　　　　　　　　　　　　　0000000000　　　　　　　　　　　　　　　　　　+002000000000000000000
SEB2008050820080427G00000080100000000000BULLISH CASH                        00310006000000クルーズ000000　　　　　　　　　　　　　　　　　　　　　　　　　　　　　　　　　　　　　　　　　　　　　　　　　　　　　　　　　　　　　　　　　　　　　　　　　　　　　　　　　　　　　　　　　　　　570000000000000000プレブル　　　　00       00909002017 12      0000000000000000000000000000000000000000000000000000ARCHIPENKO                          0000000000　　　　　　　　　　　　　　　　　　0000000000　　　　　　　　　　　　　　　　　　+009000000000000000000
SEB2008050820080427G00000080110000000000VIVA MACAU                          00110005000000ムーア　000000　　　　　　　　　　　　　　　　　　　　　　　　　　　　　　　　　　　　　　　　　　　　　　　　　　　　　　　　　　　　　　　　　　　　　　　　　　　　　　　　　　　　　　　　　　　　570000000000000000ヌネス　　　　　00       01010002018K        0000000000000000000000000000000000000000000000000000ARCHIPENKO                          0000000000　　　　　　　　　　　　　　　　　　0000000000　　　　　　　　　　　　　　　　　　+010000000000000000000
SEB2008050820080427G00000080120000000000MUSICAL WAY                         00210006000000バン・デ000000　　　　　　　　　　　　　　　　　　　　　　　　　　　　　　　　　　　　　　　　　　　　　　　　　　　　　　　　　　　　　　　　　　　　　　　　　　　　　　　　　　　　　　　　　　　　555000000000000000トーマス　　　　00       00707002015K        0000000000000000000000000000000000000000000000000000ARCHIPENKO                          0000000000　　　　　　　　　　　　　　　　　　0000000000　　　　　　　　　　　　　　　　　　+007000000000000000000
SEB2008051920080510A40000090012005110112カジノドライヴ　　　　　　　　　　　06110103100386藤沢和雄124008山本　英俊　　　　　　　　　　　　　　　　　　　　　　　　　　　水色，袖白一本輪　　　　　　　　　　　　　　　　　　　　　　　　　　　　　　　　　　　　　　　　　　　　　　　　　　　　525000000000000000デザーモ　　　　00       00101001478         0000000000000000000000000000000000000000000000000000MINT LANE                           0000000000　　　　　　　　　　　　　　　　　　0000000000　　　　　　　　　　　　　　　　　　0000000000000000000000
SEB2008051920080510A40000090020000000000TOMCITO                             00110003000000ザネリ　000000　　　　　　　　　　　　　　　　　　　　　　　　　　　　　　　　　　　　　　　　　　　　　　　　　　　　　　　　　　　　　　　　　　　　　　　　　　　　　　　　　　　　　　　　　　　　545000000000000000ヴェラス　　　　00       00707000000 34      0000000000000000000000000000000000000000002005110112カジノドライヴ　　　　　　　　　　　0000000000　　　　　　　　　　　　　　　　　　0000000000　　　　　　　　　　　　　　　　　　0000000000000000000000
SEB2008051920080510A40000090030000000000MINT LANE                           00110003000000ジャーキ000000　　　　　　　　　　　　　　　　　　　　　　　　　　　　　　　　　　　　　　　　　　　　　　　　　　　　　　　　　　　　　　　　　　　　　　　　　　　　　　　　　　　　　　　　　　　　525000000000000000コア　　　　　　00       00202000000534      0000000000000000000000000000000000000000002005110112カジノドライヴ　　　　　　　　　　　0000000000　　　　　　　　　　　　　　　　　　0000000000　　　　　　　　　　　　　　　　　　0000000000000000000000
SEB2008051920080510A40000090040000000000DEPUTYVILLE                         00310003000000コンテッ000000　　　　　　　　　　　　　　　　　　　　　　　　　　　　　　　　　　　　　　　　　　　　　　　　　　　　　　　　　　　　　　　　　　　　　　　　　　　　　　　　　　　　　　　　　　　　525000000000000000エスピノ　　　　00       00808000000712      0000000000000000000000000000000000000000002005110112カジノドライヴ　　　　　　　　　　　0000000000　　　　　　　　　　　　　　　　　　0000000000　　　　　　　　　　　　　　　　　　0000000000000000000000
SEB2008051920080510A40000090052005110111スパークキャンドル　　　　　　　　　06110103100386藤沢和雄124008山本　英俊　　　　　　　　　　　　　　　　　　　　　　　　　　　水色，袖白一本輪　　　　　　　　　　　　　　　　　　　　　　　　　　　　　　　　　　　　　　　　　　　　　　　　　　　　525000000000000000シャヴェ　　　　00       00606000000514      0000000000000000000000000000000000000000002005110112カジノドライヴ　　　　　　　　　　　0000000000　　　　　　　　　　　　　　　　　　0000000000　　　　　　　　　　　　　　　　　　0000000000000000000000
SEB2008051920080510A40000090060000000000GOLDEN SPIKES                       00110003000000ウォルフ000000　　　　　　　　　　　　　　　　　　　　　　　　　　　　　　　　　　　　　　　　　　　　　　　　　　　　　　　　　　　　　　　　　　　　　　　　　　　　　　　　　　　　　　　　　　　　525000000000000000プラード　　　　00       00404000000334      0000000000000000000000000000000000000000002005110112カジノドライヴ　　　　　　　　　　　0000000000　　　　　　　　　　　　　　　　　　0000000000　　　　　　　　　　　　　　　　　　0000000000000000000000
SEB2008051920080510A40000090070000000000READY'S ECHO                        00110003000000プレッチ000000　　　　　　　　　　　　　　　　　　　　　　　　　　　　　　　　　　　　　　　　　　　　　　　　　　　　　　　　　　　　　　　　　　　　　　　　　　　　　　　　　　　　　　　　　　　　525000000000000000ヴェラス　　　　00       00303000000 12      0000000000000000000000000000000000000000002005110112カジノドライヴ　　　　　　　　　　　0000000000　　　　　　　　　　　　　　　　　　0000000000　　　　　　　　　　　　　　　　　　0000000000000000000000
SEB2008051920080510A40000090080000000000COSMIC                              00110003000000マゴーイ000000　　　　　　　　　　　　　　　　　　　　　　　　　　　　　　　　　　　　　　　　　　　　　　　　　　　　　　　　　　　　　　　　　　　　　　　　　　　　　　　　　　　　　　　　　　　　525000000000000000カステリ　　　　00       00505000000614      0000000000000000000000000000000000000000002005110112カジノドライヴ　　　　　　　　　　　0000000000　　　　　　　　　　　　　　　　　　0000000000　　　　　　　　　　　　　　　　　　0000000000000000000000
SEB2008051920080510A40000090090000000000FAST TALKING                        00110003000000グラハム000000　　　　　　　　　　　　　　　　　　　　　　　　　　　　　　　　　　　　　　　　　　　　　　　　　　　　　　　　　　　　　　　　　　　　　　　　　　　　　　　　　　　　　　　　　　　　525000000000000000ガルシア　　　　00       00909000000T        0000000000000000000000000000000000000000002005110112カジノドライヴ　　　　　　　　　　　0000000000　　　　　　　　　　　　　　　　　　0000000000　　　　　　　　　　　　　　　　　　0000000000000000000000
SEB2008052620080518A40000070010000000000HOPPSEY                             00110003000000トナー　000000　　　　　　　　　　　　　　　　　　　　　　　　　　　　　　　　　　　　　　　　　　　　　　　　　　　　　　　　　　　　　　　　　　　　　　　　　　　　　　　　　　　　　　　　　　　　535000000000000000プラード　　　　00       01010000000334      0000000000000000000000000000000000000000000000000000SUMMER PATRIOT                      0000000000　　　　　　　　　　　　　　　　　　0000000000　　　　　　　　　　　　　　　　　　0000000000000000000000
SEB2008052620080518A40000070022005110104シャンパンスコール　　　　　　　　　06110703100386藤沢和雄124008山本　英俊　　　　　　　　　　　　　　　　　　　　　　　　　　　水色，袖白一本輪　　　　　　　　　　　　　　　　　　　　　　　　　　　　　　　　　　　　　　　　　　　　　　　　　　　　535000000000000000デザーモ　　　　00       00303000000434      0000000000000000000000000000000000000000000000000000SUMMER PATRIOT                      0000000000　　　　　　　　　　　　　　　　　　0000000000　　　　　　　　　　　　　　　　　　0000000000000000000000
SEB2008052620080518A40000070030000000000FORBIDDEN THOUGHT                   00110003000000ケリー　000000　　　　　　　　　　　　　　　　　　　　　　　　　　　　　　　　　　　　　　　　　　　　　　　　　　　　　　　　　　　　　　　　　　　　　　　　　　　　　　　　　　　　　　　　　　　　535000000000000000エスピノ　　　　00       00606000000 34      0000000000000000000000000000000000000000000000000000SUMMER PATRIOT                      0000000000　　　　　　　　　　　　　　　　　　0000000000　　　　　　　　　　　　　　　　　　0000000000000000000000
SEB2008052620080518A40000070040000000000THOU SWELL                          00110003000000ウィーバ000000　　　　　　　　　　　　　　　　　　　　　　　　　　　　　　　　　　　　　　　　　　　　　　　　　　　　　　　　　　　　　　　　　　　　　　　　　　　　　　　　　　　　　　　　　　　　535000000000000000シャヴェ　　　　00       008080000004        0000000000000000000000000000000000000000000000000000SUMMER PATRIOT                      0000000000　　　　　　　　　　　　　　　　　　0000000000　　　　　　　　　　　　　　　　　　0000000000000000000000
SEB2008052620080518A40000070050000000000SUBPRIME LENDING                    00110003000000ヴィオレ000000　　　　　　　　　　　　　　　　　　　　　　　　　　　　　　　　　　　　　　　　　　　　　　　　　　　　　　　　　　　　　　　　　　　　　　　　　　　　　　　　　　　　　　　　　　　　535000000000000000ヴェラス　　　　00000    10000000000         0000000000000000000000000000000000000009990000000000SUMMER PATRIOT                      0000000000　　　　　　　　　　　　　　　　　　0000000000　　　　　　　　　　　　　　　　　　9999000000000000000000
SEB2008052620080518A40000070060000000000HARBINGER                           00110003000000ドンク　000000　　　　　　　　　　　　　　　　　　　　　　　　　　　　　　　　　　　　　　　　　　　　　　　　　　　　　　　　　　　　　　　　　　　　　　　　　　　　　　　　　　　　　　　　　　　　505000000000000000モラレス　　　　00       00909000000534      0000000000000000000000000000000000000000000000000000SUMMER PATRIOT                      0000000000　　　　　　　　　　　　　　　　　　0000000000　　　　　　　　　　　　　　　　　　0000000000000000000000
SEB2008052620080518A40000070070000000000SUMMER PATRIOT                      00110004000000タグ　　000000　　　　　　　　　　　　　　　　　　　　　　　　　　　　　　　　　　　　　　　　　　　　　　　　　　　　　　　　　　　　　　　　　　　　　　　　　　　　　　　　　　　　　　　　　　　　555000000000000000コア　　　　　　00       00101002050         0000000000000000000000000000000000000000000000000000GOOD REQUEST                        0000000000　　　　　　　　　　　　　　　　　　0000000000　　　　　　　　　　　　　　　　　　0000000000000000000000
SEB2008052620080518A40000070080000000000MR. DEBUSKEY                        00110003000000ジャーキ000000　　　　　　　　　　　　　　　　　　　　　　　　　　　　　　　　　　　　　　　　　　　　　　　　　　　　　　　　　　　　　　　　　　　　　　　　　　　　　　　　　　　　　　　　　　　　535000000000000000サミン　　　　　00       00707000000 34      0000000000000000000000000000000000000000000000000000SUMMER PATRIOT                      0000000000　　　　　　　　　　　　　　　　　　0000000000　　　　　　　　　　　　　　　　　　0000000000000000000000
SEB2008052620080518A40000070090000000000WESTERN DYNAMO                      00110003000000マクラク000000　　　　　　　　　　　　　　　　　　　　　　　　　　　　　　　　　　　　　　　　　　　　　　　　　　　　　　　　　　　　　　　　　　　　　　　　　　　　　　　　　　　　　　　　　　　　535000000000000000ガルシア　　　　00       00404000000212      0000000000000000000000000000000000000000000000000000SUMMER PATRIOT                      0000000000　　　　　　　　　　　　　　　　　　0000000000　　　　　　　　　　　　　　　　　　0000000000000000000000
SEB2008052620080518A40000070100000000000GOOD REQUEST                        00110004000000フランケ000000　　　　　　　　　　　　　　　　　　　　　　　　　　　　　　　　　　　　　　　　　　　　　　　　　　　　　　　　　　　　　　　　　　　　　　　　　　　　　　　　　　　　　　　　　　　　555000000000000000ゴメス　　　　　00       00202000000 34      0000000000000000000000000000000000000000000000000000SUMMER PATRIOT                      0000000000　　　　　　　　　　　　　　　　　　0000000000　　　　　　　　　　　　　　　　　　0000000000000000000000
SEB2008052620080518A40000070110000000000QUICK TO CHARM                      00110003000000プレッチ000000　　　　　　　　　　　　　　　　　　　　　　　　　　　　　　　　　　　　　　　　　　　　　　　　　　　　　　　　　　　　　　　　　　　　　　　　　　　　　　　　　　　　　　　　　　　　535000000000000000ヴェラス　　　　00       00505000000K        0000000000000000000000000000000000000000000000000000SUMMER PATRIOT                      0000000000　　　　　　　　　　　　　　　　　　0000000000　　　　　　　　　　　　　　　　　　0000000000000000000000
SEB2008052620080518M00000080010000000000JAY PEG                             00110005000000ブラウン000000　　　　　　　　　　　　　　　　　　　　　　　　　　　　　　　　　　　　　　　　　　　　　　　　　　　　　　　　　　　　　　　　　　　　　　　　　　　　　　　　　　　　　　　　　　　　570000000000000000マーカス　　　　00492    00101002009         0000000000000000000000000000000000000000000000000000RECAST                              0000000000　　　　　　　　　　　　　　　　　　0000000000　　　　　　　　　　　　　　　　　　0000000000000000000000
SEB2008052620080518M00000080020000000000BALIUS                              00110005000000ラフォン000000　　　　　　　　　　　　　　　　　　　　　　　　　　　　　　　　　　　　　　　　　　　　　　　　　　　　　　　　　　　　　　　　　　　　　　　　　　　　　　　　　　　　　　　　　　　　570000000000000000プレブル　　　　00484    00303000000         0000000000000000000000000000000000000000000000000000JAY PEG                             0000000000　　　　　　　　　　　　　　　　　　0000000000　　　　　　　　　　　　　　　　　　0000000000000000000000
SEB2008052620080518M00000080032001100925コスモバルク　　　　　　　　　　　　21110307305105田部和則716800ビッグレッドファーム　　　　　　　　　　　　　　　　　　　　　　赤，緑格子，赤袖　　　　　　　　　　　　　　　　　　　　　　　　　　　　　　　　　　　　　　　　　　　　　　　　　　　　570000000108500000松岡正海　　　　00510    00606000000         0000000000000000000000000000000000000000000000000000JAY PEG                             0000000000　　　　　　　　　　　　　　　　　　0000000000　　　　　　　　　　　　　　　　　　0000000000000000000000
SEB2008052620080518M00000080040000000000MOURILYAN                           00110004000000ブラウン000000　　　　　　　　　　　　　　　　　　　　　　　　　　　　　　　　　　　　　　　　　　　　　　　　　　　　　　　　　　　　　　　　　　　　　　　　　　　　　　　　　　　　　　　　　　　　570000000000000000マーウィ　　　　00503    00808000000         0000000000000000000000000000000000000000000000000000JAY PEG                             0000000000　　　　　　　　　　　　　　　　　　0000000000　　　　　　　　　　　　　　　　　　0000000000000000000000
SEB2008052620080518M00000080050000000000SIR SLICK                           00310007000000ニコルソ000000　　　　　　　　　　　　　　　　　　　　　　　　　　　　　　　　　　　　　　　　　　　　　　　　　　　　　　　　　　　　　　　　　　　　　　　　　　　　　　　　　　　　　　　　　　　　570000000000000000ハード　　　　　00510    00505000000         0000000000000000000000000000000000000000000000000000JAY PEG                             0000000000　　　　　　　　　　　　　　　　　　0000000000　　　　　　　　　　　　　　　　　　0000000000000000000000
SEB2008052620080518M00000080060000000000TRAFFIC GUARD                       00110004000000チャプル000000　　　　　　　　　　　　　　　　　　　　　　　　　　　　　　　　　　　　　　　　　　　　　　　　　　　　　　　　　　　　　　　　　　　　　　　　　　　　　　　　　　　　　　　　　　　　570000000000000000イーガン　　　　00489    01010000000         0000000000000000000000000000000000000000000000000000JAY PEG                             0000000000　　　　　　　　　　　　　　　　　　0000000000　　　　　　　　　　　　　　　　　　0000000000000000000000
SEB2008052620080518M00000080070000000000KING AND KING                       00310008000000コー　　000000　　　　　　　　　　　　　　　　　　　　　　　　　　　　　　　　　　　　　　　　　　　　　　　　　　　　　　　　　　　　　　　　　　　　　　　　　　　　　　　　　　　　　　　　　　　　570000000000000000スー　　　　　　00502    01212000000         0000000000000000000000000000000000000000000000000000JAY PEG                             0000000000　　　　　　　　　　　　　　　　　　0000000000　　　　　　　　　　　　　　　　　　0000000000000000000000
SEB2008052620080518M00000080080000000000SPIN AROUND                         00310008000000クーパー000000　　　　　　　　　　　　　　　　　　　　　　　　　　　　　　　　　　　　　　　　　　　　　　　　　　　　　　　　　　　　　　　　　　　　　　　　　　　　　　　　　　　　　　　　　　　　570000000000000000マッケオ　　　　00486    00707000000         0000000000000000000000000000000000000000000000000000JAY PEG                             0000000000　　　　　　　　　　　　　　　　　　0000000000　　　　　　　　　　　　　　　　　　0000000000000000000000
SEB2008052620080518M00000080090000000000RECAST                              00110008000000ラクソン000000　　　　　　　　　　　　　　　　　　　　　　　　　　　　　　　　　　　　　　　　　　　　　　　　　　　　　　　　　　　　　　　　　　　　　　　　　　　　　　　　　　　　　　　　　　　　570000000000000000キャロウ　　　　00431    00202000000134      0000000000000000000000000000000000000000000000000000JAY PEG                             0000000000　　　　　　　　　　　　　　　　　　0000000000　　　　　　　　　　　　　　　　　　0000000000000000000000
SEB2008052620080518M00000080100000000000CHEVRON                             00310005000000レック　000000　　　　　　　　　　　　　　　　　　　　　　　　　　　　　　　　　　　　　　　　　　　　　　　　　　　　　　　　　　　　　　　　　　　　　　　　　　　　　　　　　　　　　　　　　　　　570000000000000000ジュマト　　　　00522    01515000000         0000000000000000000000000000000000000000000000000000JAY PEG                             0000000000　　　　　　　　　　　　　　　　　　0000000000　　　　　　　　　　　　　　　　　　0000000000000000000000
SEB2008052620080518M00000080110000000000TRIGGER EXPRESS                     00310007000000バリッジ000000　　　　　　　　　　　　　　　　　　　　　　　　　　　　　　　　　　　　　　　　　　　　　　　　　　　　　　　　　　　　　　　　　　　　　　　　　　　　　　　　　　　　　　　　　　　　570000000000000000ルグリ　　　　　00527    01111000000         0000000000000000000000000000000000000000000000000000JAY PEG                             0000000000　　　　　　　　　　　　　　　　　　0000000000　　　　　　　　　　　　　　　　　　0000000000000000000000
SEB2008052620080518M00000080120000000000ITMAYBEYOU                          00310006000000ディーン000000　　　　　　　　　　　　　　　　　　　　　　　　　　　　　　　　　　　　　　　　　　　　　　　　　　　　　　　　　　　　　　　　　　　　　　　　　　　　　　　　　　　　　　　　　　　　570000000000000000オリヴァ　　　　00521    01616000000         0000000000000000000000000000000000000000000000000000JAY PEG                             0000000000　　　　　　　　　　　　　　　　　　0000000000　　　　　　　　　　　　　　　　　　0000000000000000000000
SEB2008052620080518M00000080130000000000MR LINE                             00310006000000ショー　000000　　　　　　　　　　　　　　　　　　　　　　　　　　　　　　　　　　　　　　　　　　　　　　　　　　　　　　　　　　　　　　　　　　　　　　　　　　　　　　　　　　　　　　　　　　　　570000000000000000フラッド　　　　00493    01313000000         0000000000000000000000000000000000000000000000000000JAY PEG                             0000000000　　　　　　　　　　　　　　　　　　0000000000　　　　　　　　　　　　　　　　　　0000000000000000000000
SEB2008052620080518M00000080140000000000WORLD DELIGHT                       00310006000000バリッジ000000　　　　　　　　　　　　　　　　　　　　　　　　　　　　　　　　　　　　　　　　　　　　　　　　　　　　　　　　　　　　　　　　　　　　　　　　　　　　　　　　　　　　　　　　　　　　570000000000000000パウエル　　　　00492    00404000000         0000000000000000000000000000000000000000000000000000JAY PEG                             0000000000　　　　　　　　　　　　　　　　　　0000000000　　　　　　　　　　　　　　　　　　0000000000000000000000
SEB2008052620080518M00000080150000000000MUSICAL WAY                         00210006000000バン・デ000000　　　　　　　　　　　　　　　　　　　　　　　　　　　　　　　　　　　　　　　　　　　　　　　　　　　　　　　　　　　　　　　　　　　　　　　　　　　　　　　　　　　　　　　　　　　　555000000000000000トーマス　　　　00450    01414000000         0000000000000000000000000000000000000000000000000000JAY PEG                             0000000000　　　　　　　　　　　　　　　　　　0000000000　　　　　　　　　　　　　　　　　　0000000000000000000000
SEB2008052620080518M00000080160000000000ONCEUPONATIME                       00110004000000ヒル　　000000　　　　　　　　　　　　　　　　　　　　　　　　　　　　　　　　　　　　　　　　　　　　　　　　　　　　　　　　　　　　　　　　　　　　　　　　　　　　　　　　　　　　　　　　　　　　545000000000000000ビーズリ　　　　00533    00909000000         0000000000000000000000000000000000000000000000000000JAY PEG                             0000000000　　　　　　　　　　　　　　　　　　0000000000　　　　　　　　　　　　　　　　　　0000000000000000000000
SEB2008060520080120G00000080022002190003グッドババ　　　　　　　　　　　　　00310306005190シュッツ353030Ｓ．ユン　　　　　　　　　　　　　　　　　　　　　　　　　　　　　　　　　　　　　　　　　　　　　　　　　　　　　　　　　　　　　　　　　　　　　　　　　　　　　　　　　　　　　　　　570000000000000000ドゥルー　　　　00       00101001343         0000000000000000000000000000000000000000000000000000FLORAL PEGASUS                      0000000000　　　　　　　　　　　　　　　　　　0000000000　　　　　　　　　　　　　　　　　　-002000000000000000000
SEB2008060520080202G00000070021999190016ブリッシュラック　　　　　　　　　　00310309005433クルーズ255008Ｗ．ウォン　　　　　　　　　　　　　　　　　　　　　　　　　　　　　　　　　　　　　　　　　　　　　　　　　　　　　　　　　　　　　　　　　　　　　　　　　　　　　　　　　　　　　　　555000000000000000スミヨン　　　　00       00101001489         0000000000000000000000000000000000000000000000000000VITAL KING                          0000000000　　　　　　　　　　　　　　　　　　0000000000　　　　　　　　　　　　　　　　　　-005000000000000000000
SEB2008060520080224G00000070021999190016ブリッシュラック　　　　　　　　　　00310309005433クルーズ255008Ｗ．ウォン　　　　　　　　　　　　　　　　　　　　　　　　　　　　　　　　　　　　　　　　　　　　　　　　　　　　　　　　　　　　　　　　　　　　　　　　　　　　　　　　　　　　　　　570000000000000000スミヨン　　　　00       00303002044H        0000000000000000000000000000000000000000000000000000VIVA PATACA                         0000000000　　　　　　　　　　　　　　　　　　0000000000　　　　　　　　　　　　　　　　　　+005000000000000000000
SEB2008060520080316G00000070022001190011アルマダ　　　　　　　　　　　　　　00310107005611サイズ　490030Ｙ．ウォン　　　　　　　　　　　　　　　　　　　　　　　　　　　　　　　　　　　　　　　　　　　　　　　　　　　　　　　　　　　　　　　　　　　　　　　　　　　　　　　　　　　　　　　570000000000000000ホワイト　　　　00       00808001222 12      0000000000000000000000000000000000000000002002190003グッドババ　　　　　　　　　　　　　0000000000　　　　　　　　　　　　　　　　　　0000000000　　　　　　　　　　　　　　　　　　+009000000000000000000
SEB2008060520080316G00000070032002190003グッドババ　　　　　　　　　　　　　00310306005190シュッツ353030Ｓ．ユン　　　　　　　　　　　　　　　　　　　　　　　　　　　　　　　　　　　　　　　　　　　　　　　　　　　　　　　　　　　　　　　　　　　　　　　　　　　　　　　　　　　　　　　　570000000000000000ドゥルー　　　　00       00101001213         0000000000000000000000000000000000000000000000000000SACRED KINGDOM                      0000000000　　　　　　　　　　　　　　　　　　0000000000　　　　　　　　　　　　　　　　　　-001000000000000000000
SEB2008060520080329C70000050131999190016ブリッシュラック　　　　　　　　　　00310309005433クルーズ255008Ｗ．ウォン　　　　　　　　　　　　　　　　　　　　　　　　　　　　　　　　　　　　　　　　　　　　　　　　　　　　　　　　　　　　　　　　　　　　　　　　　　　　　　　　　　　　　　　570000000000000000プレブル　　　　00       01313001473 12      0000000000000000000000000000000000000000000000000000JAY PEG                             0000000000　　　　　　　　　　　　　　　　　　0000000000　　　　　　　　　　　　　　　　　　+011000000000000000000
SEB2008060520080406G00000070012001190011アルマダ　　　　　　　　　　　　　　00310107005611サイズ　490030Ｙ．ウォン　　　　　　　　　　　　　　　　　　　　　　　　　　　　　　　　　　　　　　　　　　　　　　　　　　　　　　　　　　　　　　　　　　　　　　　　　　　　　　　　　　　　　　　555000000000000000ホワイト　　　　00       00101001337         0000000000000000000000000000000000000000000000000000JACKPOT DELIGHT                     0000000000　　　　　　　　　　　　　　　　　　0000000000　　　　　　　　　　　　　　　　　　-001000000000000000000
SEB2008060520080427G00000070012001190011アルマダ　　　　　　　　　　　　　　00310107005611サイズ　490030Ｙ．ウォン　　　　　　　　　　　　　　　　　　　　　　　　　　　　　　　　　　　　　　　　　　　　　　　　　　　　　　　　　　　　　　　　　　　　　　　　　　　　　　　　　　　　　　　570000000000000000ホワイト　　　　00506    002020013371        0000000000000000000000000000000000000000002002190003グッドババ　　　　　　　　　　　　　0000000000　　　　　　　　　　　　　　　　　　0000000000　　　　　　　　　　　　　　　　　　+002000000000000000000
SEB2008060520080427G00000070022002190003グッドババ　　　　　　　　　　　　　00310306005190シュッツ353030Ｓ．ユン　　　　　　　　　　　　　　　　　　　　　　　　　　　　　　　　　　　　　　　　　　　　　　　　　　　　　　　　　　　　　　　　　　　　　　　　　　　　　　　　　　　　　　　　570000000000000000ドゥルー　　　　00499    00101001335         0000000000000000000000000000000000000000002001190011アルマダ　　　　　　　　　　　　　　0000000000　　　　　　　　　　　　　　　　　　0000000000　　　　　　　　　　　　　　　　　　-002000000000000000000
SEB2008060520080427G00000070031999190016ブリッシュラック　　　　　　　　　　00310309005433クルーズ255008Ｗ．ウォン　　　　　　　　　　　　　　　　　　　　　　　　　　　　　　　　　　　　　　　　　　　　　　　　　　　　　　　　　　　　　　　　　　　　　　　　　　　　　　　　　　　　　　　570000000000000000モッセ　　　　　00563    003030013402        0000000000000000000000000000000000000000002002190003グッドババ　　　　　　　　　　　　　0000000000　　　　　　　　　　　　　　　　　　0000000000　　　　　　　　　　　　　　　　　　+005000000000000000000
SEB2008061220080605A40000040010000000000FIND THE WIRE                       00110003000000ベーカー000000　　　　　　　　　　　　　　　　　　　　　　　　　　　　　　　　　　　　　　　　　　　　　　　　　　　　　　　　　　　　　　　　　　　　　　　　　　　　　　　　　　　　　　　　　　　　535000000000000000コア　　　　　　00       00101002042         0000000000000000000000000000000000000000002005110104シャンパンスコール　　　　　　　　　0000000000　　　　　　　　　　　　　　　　　　0000000000　　　　　　　　　　　　　　　　　　0000000000000000000000
SEB2008061220080605A40000040022005110104シャンパンスコール　　　　　　　　　06110703100386藤沢和雄124008山本　英俊　　　　　　　　　　　　　　　　　　　　　　　　　　　水色，袖白一本輪　　　　　　　　　　　　　　　　　　　　　　　　　　　　　　　　　　　　　　　　　　　　　　　　　　　　535000000000000000デザーモ　　　　00       00202000000 34      0000000000000000000000000000000000000000000000000000FIND THE WIRE                       0000000000　　　　　　　　　　　　　　　　　　0000000000　　　　　　　　　　　　　　　　　　0000000000000000000000
SEB2008061220080605A40000040030000000000MR. DEBUSKEY                        00110003000000ジャーキ000000　　　　　　　　　　　　　　　　　　　　　　　　　　　　　　　　　　　　　　　　　　　　　　　　　　　　　　　　　　　　　　　　　　　　　　　　　　　　　　　　　　　　　　　　　　　　535000000000000000サミン　　　　　00       00606000000K        0000000000000000000000000000000000000000000000000000FIND THE WIRE                       0000000000　　　　　　　　　　　　　　　　　　0000000000　　　　　　　　　　　　　　　　　　0000000000000000000000
SEB2008061220080605A40000040040000000000EXPANSION                           00110003000000ベンゼル000000　　　　　　　　　　　　　　　　　　　　　　　　　　　　　　　　　　　　　　　　　　　　　　　　　　　　　　　　　　　　　　　　　　　　　　　　　　　　　　　　　　　　　　　　　　　　535000000000000000ヴェラス　　　　00000    10000000000         0000000000000000000000000000000000000009990000000000FIND THE WIRE                       0000000000　　　　　　　　　　　　　　　　　　0000000000　　　　　　　　　　　　　　　　　　9999000000000000000000
SEB2008061220080605A40000040050000000000TANGANYIKA                          00110003000000クレメン000000　　　　　　　　　　　　　　　　　　　　　　　　　　　　　　　　　　　　　　　　　　　　　　　　　　　　　　　　　　　　　　　　　　　　　　　　　　　　　　　　　　　　　　　　　　　　535000000000000000ゴメス　　　　　00       00707000000 12      0000000000000000000000000000000000000000000000000000FIND THE WIRE                       0000000000　　　　　　　　　　　　　　　　　　0000000000　　　　　　　　　　　　　　　　　　0000000000000000000000
SEB2008061220080605A40000040060000000000CALL OF THE SEA                     00310004000000シェティ000000　　　　　　　　　　　　　　　　　　　　　　　　　　　　　　　　　　　　　　　　　　　　　　　　　　　　　　　　　　　　　　　　　　　　　　　　　　　　　　　　　　　　　　　　　　　　555000000000000000マラグ　　　　　00       00404000000 34      0000000000000000000000000000000000000000000000000000FIND THE WIRE                       0000000000　　　　　　　　　　　　　　　　　　0000000000　　　　　　　　　　　　　　　　　　0000000000000000000000
SEB2008061220080605A40000040070000000000GROUND FROST                        00110003000000フランケ000000　　　　　　　　　　　　　　　　　　　　　　　　　　　　　　　　　　　　　　　　　　　　　　　　　　　　　　　　　　　　　　　　　　　　　　　　　　　　　　　　　　　　　　　　　　　　535000000000000000ヴェラス　　　　00       00505000000314      0000000000000000000000000000000000000000000000000000FIND THE WIRE                       0000000000　　　　　　　　　　　　　　　　　　0000000000　　　　　　　　　　　　　　　　　　0000000000000000000000
SEB2008061220080605A40000040080000000000LIEUTENANT                          00110003000000アルバー000000　　　　　　　　　　　　　　　　　　　　　　　　　　　　　　　　　　　　　　　　　　　　　　　　　　　　　　　　　　　　　　　　　　　　　　　　　　　　　　　　　　　　　　　　　　　　535000000000000000カステリ　　　　00       003030000001        0000000000000000000000000000000000000000000000000000FIND THE WIRE                       0000000000　　　　　　　　　　　　　　　　　　0000000000　　　　　　　　　　　　　　　　　　0000000000000000000000
SEB2008061920080606A40000100010000000000TITAN OF INDUSTRY                   00310003000000ヴィオレ000000　　　　　　　　　　　　　　　　　　　　　　　　　　　　　　　　　　　　　　　　　　　　　　　　　　　　　　　　　　　　　　　　　　　　　　　　　　　　　　　　　　　　　　　　　　　　525000000000000000カステリ　　　　00000    10000000000         0000000000000000000000000000000000000009990000000000GIO PONTI                           0000000000　　　　　　　　　　　　　　　　　　0000000000　　　　　　　　　　　　　　　　　　9999000000000000000000
SEB2008061920080606A40000100020000000000HATTA FORT                          00110003000000ビン・ス000000　　　　　　　　　　　　　　　　　　　　　　　　　　　　　　　　　　　　　　　　　　　　　　　　　　　　　　　　　　　　　　　　　　　　　　　　　　　　　　　　　　　　　　　　　　　　545000000000000000ヴェラス　　　　00       00404000000134      0000000000000000000000000000000000000000000000000000GIO PONTI                           0000000000　　　　　　　　　　　　　　　　　　0000000000　　　　　　　　　　　　　　　　　　0000000000000000000000
SEB2008061920080606A40000100030000000000MORAL COMPASS                       00110003000000タグ　　000000　　　　　　　　　　　　　　　　　　　　　　　　　　　　　　　　　　　　　　　　　　　　　　　　　　　　　　　　　　　　　　　　　　　　　　　　　　　　　　　　　　　　　　　　　　　　525000000000000000コア　　　　　　00       003030000001        0000000000000000000000000000000000000000000000000000GIO PONTI                           0000000000　　　　　　　　　　　　　　　　　　0000000000　　　　　　　　　　　　　　　　　　0000000000000000000000
SEB2008061920080606A40000100042005110111スパークキャンドル　　　　　　　　　06110103100386藤沢和雄124008山本　英俊　　　　　　　　　　　　　　　　　　　　　　　　　　　水色，袖白一本輪　　　　　　　　　　　　　　　　　　　　　　　　　　　　　　　　　　　　　　　　　　　　　　　　　　　　525000000000000000プラード　　　　00       00707000000T        0000000000000000000000000000000000000000000000000000GIO PONTI                           0000000000　　　　　　　　　　　　　　　　　　0000000000　　　　　　　　　　　　　　　　　　0000000000000000000000
SEB2008061920080606A40000100050000000000WRITINGONTHEWALL                    00310003000000マーティ000000　　　　　　　　　　　　　　　　　　　　　　　　　　　　　　　　　　　　　　　　　　　　　　　　　　　　　　　　　　　　　　　　　　　　　　　　　　　　　　　　　　　　　　　　　　　　525000000000000000マラグ　　　　　00       00606000000 34      0000000000000000000000000000000000000000000000000000GIO PONTI                           0000000000　　　　　　　　　　　　　　　　　　0000000000　　　　　　　　　　　　　　　　　　0000000000000000000000
SEB2008061920080606A40000100060000000000DYNHOCRACY                          00310003000000カプラン000000　　　　　　　　　　　　　　　　　　　　　　　　　　　　　　　　　　　　　　　　　　　　　　　　　　　　　　　　　　　　　　　　　　　　　　　　　　　　　　　　　　　　　　　　　　　　545000000000000000ヴェラス　　　　00       005050000001        0000000000000000000000000000000000000000000000000000GIO PONTI                           0000000000　　　　　　　　　　　　　　　　　　0000000000　　　　　　　　　　　　　　　　　　0000000000000000000000
SEB2008061920080606A40000100070000000000PRUSSIAN                            00110003000000モット　000000　　　　　　　　　　　　　　　　　　　　　　　　　　　　　　　　　　　　　　　　　　　　　　　　　　　　　　　　　　　　　　　　　　　　　　　　　　　　　　　　　　　　　　　　　　　　545000000000000000デザーモ　　　　00       002020000002        0000000000000000000000000000000000000000000000000000GIO PONTI                           0000000000　　　　　　　　　　　　　　　　　　0000000000　　　　　　　　　　　　　　　　　　0000000000000000000000
SEB2008061920080606A40000100080000000000GIO PONTI                           00110003000000クレメン000000　　　　　　　　　　　　　　　　　　　　　　　　　　　　　　　　　　　　　　　　　　　　　　　　　　　　　　　　　　　　　　　　　　　　　　　　　　　　　　　　　　　　　　　　　　　　545000000000000000ゴメス　　　　　00       00101001350         0000000000000000000000000000000000000000000000000000PRUSSIAN                            0000000000　　　　　　　　　　　　　　　　　　0000000000　　　　　　　　　　　　　　　　　　0000000000000000000000
SEB2008061920080607A40000110010000000000BIG BROWN                           00110003000000ダトロー000000　　　　　　　　　　　　　　　　　　　　　　　　　　　　　　　　　　　　　　　　　　　　　　　　　　　　　　　　　　　　　　　　　　　　　　　　　　　　　　　　　　　　　　　　　　　　570000000000000000デザーモ　　　　00       00909000000T        0000000000000000000000000000000000000000000000000000DA' TARA                            0000000000　　　　　　　　　　　　　　　　　　0000000000　　　　　　　　　　　　　　　　　　0000000000000000000000
SEB2008061920080607A40000110020000000000GUADALCANAL                         00110003000000サイツ　000000　　　　　　　　　　　　　　　　　　　　　　　　　　　　　　　　　　　　　　　　　　　　　　　　　　　　　　　　　　　　　　　　　　　　　　　　　　　　　　　　　　　　　　　　　　　　570000000000000000カステリ　　　　00       00707000000612      0000000000000000000000000000000000000000000000000000DA' TARA                            0000000000　　　　　　　　　　　　　　　　　　0000000000　　　　　　　　　　　　　　　　　　0000000000000000000000
SEB2008061920080607A40000110030000000000MACHO AGAIN                         00110003000000スチュア000000　　　　　　　　　　　　　　　　　　　　　　　　　　　　　　　　　　　　　　　　　　　　　　　　　　　　　　　　　　　　　　　　　　　　　　　　　　　　　　　　　　　　　　　　　　　　570000000000000000ゴメス　　　　　00       005050000003        0000000000000000000000000000000000000000000000000000DA' TARA                            0000000000　　　　　　　　　　　　　　　　　　0000000000　　　　　　　　　　　　　　　　　　0000000000000000000000
SEB2008061920080607A40000110040000000000DENIS OF CORK                       00110003000000キャロル000000　　　　　　　　　　　　　　　　　　　　　　　　　　　　　　　　　　　　　　　　　　　　　　　　　　　　　　　　　　　　　　　　　　　　　　　　　　　　　　　　　　　　　　　　　　　　570000000000000000アルバラ　　　　00       00202000000514      0000000000000000000000000000000000000000000000000000DA' TARA                            0000000000　　　　　　　　　　　　　　　　　　0000000000　　　　　　　　　　　　　　　　　　0000000000000000000000
SEB2008061920080607A40000110052005110112カジノドライヴ　　　　　　　　　　　06110103100386藤沢和雄124008山本　英俊　　　　　　　　　　　　　　　　　　　　　　　　　　　水色，袖白一本輪　　　　　　　　　　　　　　　　　　　　　　　　　　　　　　　　　　　　　　　　　　　　　　　　　　　　570000000000000000プラード　　　　00000    10000000000         0000000000000000000000000000000000000009990000000000DA' TARA                            0000000000　　　　　　　　　　　　　　　　　　0000000000　　　　　　　　　　　　　　　　　　9999000000000000000000
SEB2008061920080607A40000110060000000000DA' TARA                            00110003000000ジト　　000000　　　　　　　　　　　　　　　　　　　　　　　　　　　　　　　　　　　　　　　　　　　　　　　　　　　　　　　　　　　　　　　　　　　　　　　　　　　　　　　　　　　　　　　　　　　　570000000000000000ガルシア　　　　00       00101002296         0000000000000000000000000000000000000000000000000000DENIS OF CORK                       0000000000　　　　　　　　　　　　　　　　　　0000000000　　　　　　　　　　　　　　　　　　0000000000000000000000
SEB2008061920080607A40000110070000000000TALE OF EKATI                       00110003000000タグ　　000000　　　　　　　　　　　　　　　　　　　　　　　　　　　　　　　　　　　　　　　　　　　　　　　　　　　　　　　　　　　　　　　　　　　　　　　　　　　　　　　　　　　　　　　　　　　　570000000000000000コア　　　　　　00       00606000000714      0000000000000000000000000000000000000000000000000000DA' TARA                            0000000000　　　　　　　　　　　　　　　　　　0000000000　　　　　　　　　　　　　　　　　　0000000000000000000000
SEB2008061920080607A40000110080000000000ANAK NAKAL                          00110003000000ジト　　000000　　　　　　　　　　　　　　　　　　　　　　　　　　　　　　　　　　　　　　　　　　　　　　　　　　　　　　　　　　　　　　　　　　　　　　　　　　　　　　　　　　　　　　　　　　　　570000000000000000ルパルー　　　　00       00303110000234      0000000000000000000000000000000000000000000000000000DA' TARA                            0000000000　　　　　　　　　　　　　　　　　　0000000000　　　　　　　　　　　　　　　　　　0000000000000000000000
SEB2008061920080607A40000110090000000000READY'S ECHO                        00110003000000プレッチ000000　　　　　　　　　　　　　　　　　　　　　　　　　　　　　　　　　　　　　　　　　　　　　　　　　　　　　　　　　　　　　　　　　　　　　　　　　　　　　　　　　　　　　　　　　　　　570000000000000000ヴェラス　　　　00       00303110000D        0000000000000000000000000000000000000000000000000000DA' TARA                            0000000000　　　　　　　　　　　　　　　　　　0000000000　　　　　　　　　　　　　　　　　　0000000000000000000000
SEB2008061920080607A40000110100000000000ICABAD CRANE                        00110003000000モーショ000000　　　　　　　　　　　　　　　　　　　　　　　　　　　　　　　　　　　　　　　　　　　　　　　　　　　　　　　　　　　　　　　　　　　　　　　　　　　　　　　　　　　　　　　　　　　　570000000000000000ローズ　　　　　00       00808000000 12      0000000000000000000000000000000000000000000000000000DA' TARA                            0000000000　　　　　　　　　　　　　　　　　　0000000000　　　　　　　　　　　　　　　　　　0000000000000000000000
SEB2008101620081004A80000060010000000000SAGEBURG                            00110004000000ド・ロワ000000　　　　　　　　　　　　　　　　　　　　　　　　　　　　　　　　　　　　　　　　　　　　　　　　　　　　　　　　　　　　　　　　　　　　　　　　　　　　　　　　　　　　　　　　　　　　595000000000000000スミヨン　　　　00       00202000000 34      0000000000000000000000000000000000000000000000000000SPIRITO DEL VENTO                   0000000000　　　　　　　　　　　　　　　　　　0000000000　　　　　　　　　　　　　　　　　　0000000000000000000000
SEB2008101620081004A80000060020000000000SPIRITO DEL VENTO                   00310005000000ベギニェ000000　　　　　　　　　　　　　　　　　　　　　　　　　　　　　　　　　　　　　　　　　　　　　　　　　　　　　　　　　　　　　　　　　　　　　　　　　　　　　　　　　　　　　　　　　　　　575000000000000000ペリエ　　　　　00       00101001391         0000000000000000000000000000000000000000000000000000SAGEBURG                            0000000000　　　　　　　　　　　　　　　　　　0000000000　　　　　　　　　　　　　　　　　　0000000000000000000000
SEB2008101620081004A80000060030000000000BLYTHE KNIGHT                       00310008000000クイン　000000　　　　　　　　　　　　　　　　　　　　　　　　　　　　　　　　　　　　　　　　　　　　　　　　　　　　　　　　　　　　　　　　　　　　　　　　　　　　　　　　　　　　　　　　　　　　575000000000000000パスキエ　　　　00       00505000000112      0000000000000000000000000000000000000000000000000000SPIRITO DEL VENTO                   0000000000　　　　　　　　　　　　　　　　　　0000000000　　　　　　　　　　　　　　　　　　0000000000000000000000
SEB2008101620081004A80000060042003105102ファンドリコンドル　　　　　　　　　00110305200216高橋成忠461004水戸　富雄　　　　　　　　　　　　　　　　　　　　　　　　　　　桃，紫二本輪，紫袖　　　　　　　　　　　　　　　　　　　　　　　　　　　　　　　　　　　　　　　　　　　　　　　　　　　575000000066600000武豊　　　　　　00       00606000000212      0000000000000000000000000000000000000000000000000000SPIRITO DEL VENTO                   0000000000　　　　　　　　　　　　　　　　　　0000000000　　　　　　　　　　　　　　　　　　0000000000000000000000
SEB2008101620081004A80000060050000000000HOLOCENE                            00110004000000バリー　000000　　　　　　　　　　　　　　　　　　　　　　　　　　　　　　　　　　　　　　　　　　　　　　　　　　　　　　　　　　　　　　　　　　　　　　　　　　　　　　　　　　　　　　　　　　　　575000000000000000ルメール　　　　00       00808000000 34      0000000000000000000000000000000000000000000000000000SPIRITO DEL VENTO                   0000000000　　　　　　　　　　　　　　　　　　0000000000　　　　　　　　　　　　　　　　　　0000000000000000000000
SEB2008101620081004A80000060060000000000FAMOUS NAME                         00110003000000ウェルド000000　　　　　　　　　　　　　　　　　　　　　　　　　　　　　　　　　　　　　　　　　　　　　　　　　　　　　　　　　　　　　　　　　　　　　　　　　　　　　　　　　　　　　　　　　　　　560000000000000000スマレン　　　　00       00303000000112      0000000000000000000000000000000000000000000000000000SPIRITO DEL VENTO                   0000000000　　　　　　　　　　　　　　　　　　0000000000　　　　　　　　　　　　　　　　　　0000000000000000000000
SEB2008101620081004A80000060070000000000ALTAMIRA                            00210004000000ルルーシ000000　　　　　　　　　　　　　　　　　　　　　　　　　　　　　　　　　　　　　　　　　　　　　　　　　　　　　　　　　　　　　　　　　　　　　　　　　　　　　　　　　　　　　　　　　　　　560000000000000000クラスタ　　　　00       007070000004        0000000000000000000000000000000000000000000000000000SPIRITO DEL VENTO                   0000000000　　　　　　　　　　　　　　　　　　0000000000　　　　　　　　　　　　　　　　　　0000000000000000000000
SEB2008101620081004A80000060080000000000BELLE ALLURE                        00210003000000プリッチ000000　　　　　　　　　　　　　　　　　　　　　　　　　　　　　　　　　　　　　　　　　　　　　　　　　　　　　　　　　　　　　　　　　　　　　　　　　　　　　　　　　　　　　　　　　　　　545000000000000000ボニヤ　　　　　00       00404000000 12      0000000000000000000000000000000000000000000000000000SPIRITO DEL VENTO                   0000000000　　　　　　　　　　　　　　　　　　0000000000　　　　　　　　　　　　　　　　　　0000000000000000000000
SEB2008101620081005A80000060010000000000YOUMZAIN                            00110005000000シャノン000000　　　　　　　　　　　　　　　　　　　　　　　　　　　　　　　　　　　　　　　　　　　　　　　　　　　　　　　　　　　　　　　　　　　　　　　　　　　　　　　　　　　　　　　　　　　　595000000000000000ヒルズ　　　　　00       002020000002        0000000000000000000000000000000000000000000000000000ZARKAVA                             0000000000　　　　　　　　　　　　　　　　　　0000000000　　　　　　　　　　　　　　　　　　0000000000000000000000
SEB2008101620081005A80000060020000000000ZAMBEZI SUN                         00110004000000バリー　000000　　　　　　　　　　　　　　　　　　　　　　　　　　　　　　　　　　　　　　　　　　　　　　　　　　　　　　　　　　　　　　　　　　　　　　　　　　　　　　　　　　　　　　　　　　　　595000000000000000パスキエ　　　　00       01515000000Z        0000000000000000000000000000000000000000000000000000ZARKAVA                             0000000000　　　　　　　　　　　　　　　　　　0000000000　　　　　　　　　　　　　　　　　　0000000000000000000000
SEB2008101620081005A80000060030000000000ASK                                 00110005000000スタウト000000　　　　　　　　　　　　　　　　　　　　　　　　　　　　　　　　　　　　　　　　　　　　　　　　　　　　　　　　　　　　　　　　　　　　　　　　　　　　　　　　　　　　　　　　　　　　595000000000000000ムーア　　　　　00       00606000000K        0000000000000000000000000000000000000000000000000000ZARKAVA                             0000000000　　　　　　　　　　　　　　　　　　0000000000　　　　　　　　　　　　　　　　　　0000000000000000000000
SEB2008101620081005A80000060040000000000SCHIAPARELLI                        00110005000000ビン・ス000000　　　　　　　　　　　　　　　　　　　　　　　　　　　　　　　　　　　　　　　　　　　　　　　　　　　　　　　　　　　　　　　　　　　　　　　　　　　　　　　　　　　　　　　　　　　　595000000000000000デットー　　　　00       013130000004        0000000000000000000000000000000000000000000000000000ZARKAVA                             0000000000　　　　　　　　　　　　　　　　　　0000000000　　　　　　　　　　　　　　　　　　0000000000000000000000
SEB2008101620081005A80000060052003102205メイショウサムソン　　　　　　　　　00110305200216高橋成忠523005松本　好雄　　　　　　　　　　　　　　　　　　　　　　　　　　　青，桃襷，桃袖　　　　　　　　　　　　　　　　　　　　　　　　　　　　　　　　　　　　　　　　　　　　　　　　　　　　　595000000066600000武豊　　　　　　00       01010000000H        0000000000000000000000000000000000000000000000000000ZARKAVA                             0000000000　　　　　　　　　　　　　　　　　　0000000000　　　　　　　　　　　　　　　　　　0000000000000000000000
SEB2008101620081005A80000060060000000000SOLDIER OF FORTUNE                  00110004000000オブライ000000　　　　　　　　　　　　　　　　　　　　　　　　　　　　　　　　　　　　　　　　　　　　　　　　　　　　　　　　　　　　　　　　　　　　　　　　　　　　　　　　　　　　　　　　　　　　595000000000000000ヘファー　　　　00       00303110000 12      0000000000000000000000000000000000000000000000000000ZARKAVA                             0000000000　　　　　　　　　　　　　　　　　　0000000000　　　　　　　　　　　　　　　　　　0000000000000000000000
SEB2008101620081005A80000060070000000000DUKE OF MARMALADE                   00110004000000オブライ000000　　　　　　　　　　　　　　　　　　　　　　　　　　　　　　　　　　　　　　　　　　　　　　　　　　　　　　　　　　　　　　　　　　　　　　　　　　　　　　　　　　　　　　　　　　　　595000000000000000ムルタ　　　　　00       00707000000A        0000000000000000000000000000000000000000000000000000ZARKAVA                             0000000000　　　　　　　　　　　　　　　　　　0000000000　　　　　　　　　　　　　　　　　　0000000000000000000000
SEB2008101620081005A80000060090000000000IT'S GINO                           00110005000000ヴォヴチ000000　　　　　　　　　　　　　　　　　　　　　　　　　　　　　　　　　　　　　　　　　　　　　　　　　　　　　　　　　　　　　　　　　　　　　　　　　　　　　　　　　　　　　　　　　　　　595000000000000000テュリエ　　　　00       00303110000D        0000000000000000000000000000000000000000000000000000ZARKAVA                             0000000000　　　　　　　　　　　　　　　　　　0000000000　　　　　　　　　　　　　　　　　　0000000000000000000000
SEB2008101620081005A80000060100000000000RED ROCK CANYON                     00110004000000オブライ000000　　　　　　　　　　　　　　　　　　　　　　　　　　　　　　　　　　　　　　　　　　　　　　　　　　　　　　　　　　　　　　　　　　　　　　　　　　　　　　　　　　　　　　　　　　　　595000000000000000オドノヒ　　　　00       01616000000T        0000000000000000000000000000000000000000000000000000ZARKAVA                             0000000000　　　　　　　　　　　　　　　　　　0000000000　　　　　　　　　　　　　　　　　　0000000000000000000000
SEB2008101620081005A80000060110000000000GETAWAY                             00110005000000ファーブ000000　　　　　　　　　　　　　　　　　　　　　　　　　　　　　　　　　　　　　　　　　　　　　　　　　　　　　　　　　　　　　　　　　　　　　　　　　　　　　　　　　　　　　　　　　　　　595000000000000000ペリエ　　　　　00       008080000001        0000000000000000000000000000000000000000000000000000ZARKAVA                             0000000000　　　　　　　　　　　　　　　　　　0000000000　　　　　　　　　　　　　　　　　　0000000000000000000000
SEB2008101620081005A80000060120000000000VISION D'ETAT                       00110003000000リボー　000000　　　　　　　　　　　　　　　　　　　　　　　　　　　　　　　　　　　　　　　　　　　　　　　　　　　　　　　　　　　　　　　　　　　　　　　　　　　　　　　　　　　　　　　　　　　　560000000000000000メンディ　　　　00       005050000001        0000000000000000000000000000000000000000000000000000ZARKAVA                             0000000000　　　　　　　　　　　　　　　　　　0000000000　　　　　　　　　　　　　　　　　　0000000000000000000000
SEB2008101620081005A80000060130000000000KAMSIN                              00110003000000シールゲ000000　　　　　　　　　　　　　　　　　　　　　　　　　　　　　　　　　　　　　　　　　　　　　　　　　　　　　　　　　　　　　　　　　　　　　　　　　　　　　　　　　　　　　　　　　　　　560000000000000000ヴィクト　　　　00       01111000000212      0000000000000000000000000000000000000000000000000000ZARKAVA                             0000000000　　　　　　　　　　　　　　　　　　0000000000　　　　　　　　　　　　　　　　　　0000000000000000000000
SEB2008101620081005A80000060140000000000BLUE BRESIL                         00110003000000ラリガッ000000　　　　　　　　　　　　　　　　　　　　　　　　　　　　　　　　　　　　　　　　　　　　　　　　　　　　　　　　　　　　　　　　　　　　　　　　　　　　　　　　　　　　　　　　　　　　560000000000000000モンジル　　　　00       014140000003        0000000000000000000000000000000000000000000000000000ZARKAVA                             0000000000　　　　　　　　　　　　　　　　　　0000000000　　　　　　　　　　　　　　　　　　0000000000000000000000
SEB2008101620081005A80000060150000000000CIMA DE TRIOMPHE                    00110003000000グリゼッ000000　　　　　　　　　　　　　　　　　　　　　　　　　　　　　　　　　　　　　　　　　　　　　　　　　　　　　　　　　　　　　　　　　　　　　　　　　　　　　　　　　　　　　　　　　　　　560000000000000000バルジュ　　　　00       009090000001        0000000000000000000000000000000000000000000000000000ZARKAVA                             0000000000　　　　　　　　　　　　　　　　　　0000000000　　　　　　　　　　　　　　　　　　0000000000000000000000
SEB2008101620081005A80000060160000000000ZARKAVA                             00210003000000ド・ロワ000000　　　　　　　　　　　　　　　　　　　　　　　　　　　　　　　　　　　　　　　　　　　　　　　　　　　　　　　　　　　　　　　　　　　　　　　　　　　　　　　　　　　　　　　　　　　　545000000000000000スミヨン　　　　00       00101002288         0000000000000000000000000000000000000000000000000000YOUMZAIN                            0000000000　　　　　　　　　　　　　　　　　　0000000000　　　　　　　　　　　　　　　　　　0000000000000000000000
SEB2008102020081012A40000080010000000000DAKOTA PHONE                        00310003000000ホレンド000000　　　　　　　　　　　　　　　　　　　　　　　　　　　　　　　　　　　　　　　　　　　　　　　　　　　　　　　　　　　　　　　　　　　　　　　　　　　　　　　　　　　　　　　　　　　　545000000000000000ベハラー　　　　00       00202000000 34      0000000000000000000000000000000000000000002005110112カジノドライヴ　　　　　　　　　　　0000000000　　　　　　　　　　　　　　　　　　0000000000　　　　　　　　　　　　　　　　　　0000000000000000000000
SEB2008102020081012A40000080022005110112カジノドライヴ　　　　　　　　　　　06110103100386藤沢和雄124008山本　英俊　　　　　　　　　　　　　　　　　　　　　　　　　　　水色，袖白一本輪　　　　　　　　　　　　　　　　　　　　　　　　　　　　　　　　　　　　　　　　　　　　　　　　　　　　525000000000000000エスピノ　　　　00       00101001421         0000000000000000000000000000000000000000000000000000DAKOTA PHONE                        0000000000　　　　　　　　　　　　　　　　　　0000000000　　　　　　　　　　　　　　　　　　0000000000000000000000
SEB2008102020081012A40000080030000000000GREGORIAN BAY                       00110004000000パルマ　000000　　　　　　　　　　　　　　　　　　　　　　　　　　　　　　　　　　　　　　　　　　　　　　　　　　　　　　　　　　　　　　　　　　　　　　　　　　　　　　　　　　　　　　　　　　　　545000000000000000ガルシア　　　　00       00606000000134      0000000000000000000000000000000000000000002005110112カジノドライヴ　　　　　　　　　　　0000000000　　　　　　　　　　　　　　　　　　0000000000　　　　　　　　　　　　　　　　　　0000000000000000000000
SEB2008102020081012A40000080040000000000BY SPOT                             00110004000000ロボ　　000000　　　　　　　　　　　　　　　　　　　　　　　　　　　　　　　　　　　　　　　　　　　　　　　　　　　　　　　　　　　　　　　　　　　　　　　　　　　　　　　　　　　　　　　　　　　　545000000000000000ヴァルデ　　　　00       00505000000214      0000000000000000000000000000000000000000002005110112カジノドライヴ　　　　　　　　　　　0000000000　　　　　　　　　　　　　　　　　　0000000000　　　　　　　　　　　　　　　　　　0000000000000000000000
SEB2008102020081012A40000080050000000000INFORMED                            00110004000000オニール000000　　　　　　　　　　　　　　　　　　　　　　　　　　　　　　　　　　　　　　　　　　　　　　　　　　　　　　　　　　　　　　　　　　　　　　　　　　　　　　　　　　　　　　　　　　　　545000000000000000グライダ　　　　00       00404000000A        0000000000000000000000000000000000000000002005110112カジノドライヴ　　　　　　　　　　　0000000000　　　　　　　　　　　　　　　　　　0000000000　　　　　　　　　　　　　　　　　　0000000000000000000000
SEB2008102020081012A40000080060000000000SENSATIONAL SCORE                   00310005000000ミッチェ000000　　　　　　　　　　　　　　　　　　　　　　　　　　　　　　　　　　　　　　　　　　　　　　　　　　　　　　　　　　　　　　　　　　　　　　　　　　　　　　　　　　　　　　　　　　　　545000000000000000ゴメス　　　　　00       00303000000 34      0000000000000000000000000000000000000000002005110112カジノドライヴ　　　　　　　　　　　0000000000　　　　　　　　　　　　　　　　　　0000000000　　　　　　　　　　　　　　　　　　0000000000000000000000
SEB2008102020081012A40000080070000000000ASPERITY                            00110004000000ドライス000000　　　　　　　　　　　　　　　　　　　　　　　　　　　　　　　　　　　　　　　　　　　　　　　　　　　　　　　　　　　　　　　　　　　　　　　　　　　　　　　　　　　　　　　　　　　　545000000000000000ソレンソ　　　　00       00707000000514      0000000000000000000000000000000000000000002005110112カジノドライヴ　　　　　　　　　　　0000000000　　　　　　　　　　　　　　　　　　0000000000　　　　　　　　　　　　　　　　　　0000000000000000000000
SEB2008111320080310A80000030072005190001トレラピッド　　　　　　　　　　　　00210303005617パンタル567030Ｈ．ラップ　　　　　　　　　　　　　　　　　　　　　　　　　　　　　　　　　　　　　　　　　　　　　　　　　　　　　　　　　　　　　　　　　　　　　　　　　　　　　　　　　　　　　　　570000000000000000ヴィクト　　　　00       003030014231        0000000000000000000000000000000000000000000000000000SWEET AND SOUR                      0000000000　　　　　　　　　　　　　　　　　　0000000000　　　　　　　　　　　　　　　　　　+010000000000000000000
SEB2008111320080330A80000030082005190001トレラピッド　　　　　　　　　　　　00210303005617パンタル567030Ｈ．ラップ　　　　　　　　　　　　　　　　　　　　　　　　　　　　　　　　　　　　　　　　　　　　　　　　　　　　　　　　　　　　　　　　　　　　　　　　　　　　　　　　　　　　　　　580000000000000000ヴェロン　　　　00       00101000000         0000000000000000000000000000000000000000000000000000CALLING ALL ANGELS                  0000000000　　　　　　　　　　　　　　　　　　0000000000　　　　　　　　　　　　　　　　　　0000000000000000000000
SEB2008111320080414A80000050022005190001トレラピッド　　　　　　　　　　　　00210303005617パンタル567030Ｈ．ラップ　　　　　　　　　　　　　　　　　　　　　　　　　　　　　　　　　　　　　　　　　　　　　　　　　　　　　　　　　　　　　　　　　　　　　　　　　　　　　　　　　　　　　　　570000000000000000ヴィクト　　　　00       00101002434         0000000000000000000000000000000000000000000000000000SHAKE THE MOON                      0000000000　　　　　　　　　　　　　　　　　　0000000000　　　　　　　　　　　　　　　　　　0000000000000000000000
SEB2008112020080427B80000090022004190002ラーイズアトーニー　　　　　　　　　00310304005618ブラック000000　　　　　　　　　　　　　　　　　　　　　　　　　　　　　　　　　　　　　　　　　　　　　　　　　　　　　　　　　　　　　　　　　　　　　　　　　　　　　　　　　　　　　　　　　　　　555000000000000000ランドリ　　　　00       00707001248         0000000000000000000000000000000000000000000000000000ARCHERS ALYANCER                    0000000000　　　　　　　　　　　　　　　　　　0000000000　　　　　　　　　　　　　　　　　　+010000000000000000000
SEB2008111320080429A80000050032003190004フェアブリーズ　　　　　　　　　　　00210405005434ホーファ768800マルガレーテ社　　　　　　　　　　　　　　　　　　　　　　　　　　　　　　　　　　　　　　　　　　　　　　　　　　　　　　　　　　　　　　　　　　　　　　　　　　　　　　　　　　　　　570000000000000000ヘルフェ　　　　00       00101002090         0000000000000000000000000000000000000000000000000000CLAIRE ET BLEU                      0000000000　　　　　　　　　　　　　　　　　　0000000000　　　　　　　　　　　　　　　　　　0000000000000000000000
SEB2008112720080504A60000020042003190006シックスティーズアイコン　　　　　　00110305005619ノスィー000000　　　　　　　　　　　　　　　　　　　　　　　　　　　　　　　　　　　　　　　　　　　　　　　　　　　　　　　　　　　　　　　　　　　　　　　　　　　　　　　　　　　　　　　　　　　　560000000000000000デットー　　　　00       00002002363334      0000000000000000000000000000000000000000000000000000GETAWAY                             0000000000　　　　　　　　　　　　　　　　　　0000000000　　　　　　　　　　　　　　　　　　+007000000000000000000
SEB2008111320080511A80000030062005190001トレラピッド　　　　　　　　　　　　00210303005617パンタル567030Ｈ．ラップ　　　　　　　　　　　　　　　　　　　　　　　　　　　　　　　　　　　　　　　　　　　　　　　　　　　　　　　　　　　　　　　　　　　　　　　　　　　　　　　　　　　　　　　560000000000000000ヴィクト　　　　00       00303002188112      0000000000000000000000000000000000000000000000000000PRUDENZIA                           0000000000　　　　　　　　　　　　　　　　　　0000000000　　　　　　　　　　　　　　　　　　+004000000000000000000
SEB2008112720080522A60000020052003190006シックスティーズアイコン　　　　　　00110305005619ノスィー000000　　　　　　　　　　　　　　　　　　　　　　　　　　　　　　　　　　　　　　　　　　　　　　　　　　　　　　　　　　　　　　　　　　　　　　　　　　　　　　　　　　　　　　　　　　　　560000000000000000ムーア　　　　　00       00001002083         0000000000000000000000000000000000000000000000000000SWEET LILLY                         0000000000　　　　　　　　　　　　　　　　　　0000000000　　　　　　　　　　　　　　　　　　0000000000000000000000
SEB2008112020080525B80000080092004190002ラーイズアトーニー　　　　　　　　　00310304005618ブラック000000　　　　　　　　　　　　　　　　　　　　　　　　　　　　　　　　　　　　　　　　　　　　　　　　　　　　　　　　　　　　　　　　　　　　　　　　　　　　　　　　　　　　　　　　　　　　550000000000000000キャラハ　　　　00       00101001395         0000000000000000000000000000000000000000000000000000SOCIETY'S CHAIRMAN                  0000000000　　　　　　　　　　　　　　　　　　0000000000　　　　　　　　　　　　　　　　　　0000000000000000000000
SEB2008112720080526A40000090012003190005マーシュサイド　　　　　　　　　　　00110405005380ドライス573030Ｒ．エヴァンス　　　　　　　　　　　　　　　　　　　　　　　　　　　　　　　　　　　　　　　　　　　　　　　　　　　　　　　　　　　　　　　　　　　　　　　　　　　　　　　　　　　　　560000000000000000ランデロ　　　　00       00006001456         0000000000000000000000000000000000000000000000000000MCCANN'S MOJAVE                     0000000000　　　　　　　　　　　　　　　　　　0000000000　　　　　　　　　　　　　　　　　　+026000000000000000000
SEB2008111320080529A80000040032003190004フェアブリーズ　　　　　　　　　　　00210405005434ホーファ768800マルガレーテ社　　　　　　　　　　　　　　　　　　　　　　　　　　　　　　　　　　　　　　　　　　　　　　　　　　　　　　　　　　　　　　　　　　　　　　　　　　　　　　　　　　　　　560000000000000000カルバー　　　　00       00101002159         0000000000000000000000000000000000000000000000000000LA BOUM                             0000000000　　　　　　　　　　　　　　　　　　0000000000　　　　　　　　　　　　　　　　　　0000000000000000000000
SEB2008112720080606A60000040082003190001ペイパルブル　　　　　　　　　　　　00110305000840スタウト773800ペイパルブル・シンジケート　　　　　　　　　　　　　　　　　　　　　　　　　　　　　　　　　　　　　　　　　　　　　　　　　　　　　　　　　　　　　　　　　　　　　　　　　　　　　　　570000000000000000ムーア　　　　　00       00004002372         0000000000000000000000000000000000000000000000000000SOLDIER OF FORTUNE                  0000000000　　　　　　　　　　　　　　　　　　0000000000　　　　　　　　　　　　　　　　　　+004000000000000000000
SEB2008112720080614A40000080082003190005マーシュサイド　　　　　　　　　　　00110405005380ドライス573030Ｒ．エヴァンス　　　　　　　　　　　　　　　　　　　　　　　　　　　　　　　　　　　　　　　　　　　　　　　　　　　　　　　　　　　　　　　　　　　　　　　　　　　　　　　　　　　　　525000000000000000スミス　　　　　00       00008002581         0000000000000000000000000000000000000000000000000000CEDAR MOUNTAIN                      0000000000　　　　　　　　　　　　　　　　　　0000000000　　　　　　　　　　　　　　　　　　+045000000000000000000
SEB2008112720080618A60000030122003190006シックスティーズアイコン　　　　　　00110305005619ノスィー000000　　　　　　　　　　　　　　　　　　　　　　　　　　　　　　　　　　　　　　　　　　　　　　　　　　　　　　　　　　　　　　　　　　　　　　　　　　　　　　　　　　　　　　　　　　　　570000000000000000デットー　　　　00       00012002092         0000000000000000000000000000000000000000000000000000DUKE OF MARMALADE                   0000000000　　　　　　　　　　　　　　　　　　0000000000　　　　　　　　　　　　　　　　　　+039000000000000000000
SEB2008112720080710A60000040052003190001ペイパルブル　　　　　　　　　　　　00110305000840スタウト773800ペイパルブル・シンジケート　　　　　　　　　　　　　　　　　　　　　　　　　　　　　　　　　　　　　　　　　　　　　　　　　　　　　　　　　　　　　　　　　　　　　　　　　　　　　　　580000000000000000ムーア　　　　　00       00002002335114      0000000000000000000000000000000000000000000000000000LUCARNO                             0000000000　　　　　　　　　　　　　　　　　　0000000000　　　　　　　　　　　　　　　　　　+002000000000000000000
SEB2008112020080713B80000030042004190002ラーイズアトーニー　　　　　　　　　00310304005618ブラック000000　　　　　　　　　　　　　　　　　　　　　　　　　　　　　　　　　　　　　　　　　　　　　　　　　　　　　　　　　　　　　　　　　　　　　　　　　　　　　　　　　　　　　　　　　　　　560000000000000000キャラハ　　　　00       00303002057         0000000000000000000000000000000000000000000000000000SEASIDE RETREAT                     0000000000　　　　　　　　　　　　　　　　　　0000000000　　　　　　　　　　　　　　　　　　+004000000000000000000
SEB2008112720080726A60000050052003190001ペイパルブル　　　　　　　　　　　　00110305000840スタウト773800ペイパルブル・シンジケート　　　　　　　　　　　　　　　　　　　　　　　　　　　　　　　　　　　　　　　　　　　　　　　　　　　　　　　　　　　　　　　　　　　　　　　　　　　　　　　605000000000000000ペリエ　　　　　00       00002002280 12      0000000000000000000000000000000000000000000000000000DUKE OF MARMALADE                   0000000000　　　　　　　　　　　　　　　　　　0000000000　　　　　　　　　　　　　　　　　　+001000000000000000000
SEB2008111320080727C20000070092003190004フェアブリーズ　　　　　　　　　　　00210405005434ホーファ768800マルガレーテ社　　　　　　　　　　　　　　　　　　　　　　　　　　　　　　　　　　　　　　　　　　　　　　　　　　　　　　　　　　　　　　　　　　　　　　　　　　　　　　　　　　　　　580000000000000000ヘルフェ　　　　00       003030021072        0000000000000000000000000000000000000000000000000000LINNGARI                            0000000000　　　　　　　　　　　　　　　　　　0000000000　　　　　　　　　　　　　　　　　　+007000000000000000000
SEB2008112720080730A40000070072003190005マーシュサイド　　　　　　　　　　　00110405005380ドライス573030Ｒ．エヴァンス　　　　　　　　　　　　　　　　　　　　　　　　　　　　　　　　　　　　　　　　　　　　　　　　　　　　　　　　　　　　　　　　　　　　　　　　　　　　　　　　　　　　　525000000000000000フローレ　　　　00       00004002319         0000000000000000000000000000000000000000000000000000ZAPPA                               0000000000　　　　　　　　　　　　　　　　　　0000000000　　　　　　　　　　　　　　　　　　+014000000000000000000
SEB2008112720080801A60000010072003190006シックスティーズアイコン　　　　　　00110305005619ノスィー000000　　　　　　　　　　　　　　　　　　　　　　　　　　　　　　　　　　　　　　　　　　　　　　　　　　　　　　　　　　　　　　　　　　　　　　　　　　　　　　　　　　　　　　　　　　　　570000000000000000ムルタ　　　　　00       00001002370         0000000000000000000000000000000000000000000000000000GALACTIC STAR                       0000000000　　　　　　　　　　　　　　　　　　0000000000　　　　　　　　　　　　　　　　　　0000000000000000000000
SEB2008111320080803C20000070052005190001トレラピッド　　　　　　　　　　　　00210303005617パンタル567030Ｈ．ラップ　　　　　　　　　　　　　　　　　　　　　　　　　　　　　　　　　　　　　　　　　　　　　　　　　　　　　　　　　　　　　　　　　　　　　　　　　　　　　　　　　　　　　　　580000000000000000ヴィクト　　　　00       00404002197 34      0000000000000000000000000000000000000000000000000000ROSENREIHE                          0000000000　　　　　　　　　　　　　　　　　　0000000000　　　　　　　　　　　　　　　　　　+004000000000000000000
SEB2008112020080804B80000070062004190002ラーイズアトーニー　　　　　　　　　00310304005618ブラック000000　　　　　　　　　　　　　　　　　　　　　　　　　　　　　　　　　　　　　　　　　　　　　　　　　　　　　　　　　　　　　　　　　　　　　　　　　　　　　　　　　　　　　　　　　　　　550000000000000000キャラハ　　　　00       00404002012         0000000000000000000000000000000000000000000000000000SEASIDE RETREAT                     0000000000　　　　　　　　　　　　　　　　　　0000000000　　　　　　　　　　　　　　　　　　+006000000000000000000
SEB2008112720080816A60000030092003190006シックスティーズアイコン　　　　　　00110305005619ノスィー000000　　　　　　　　　　　　　　　　　　　　　　　　　　　　　　　　　　　　　　　　　　　　　　　　　　　　　　　　　　　　　　　　　　　　　　　　　　　　　　　　　　　　　　　　　　　　595000000000000000ムルタ　　　　　00       00001002515         0000000000000000000000000000000000000000000000000000TEMPELSTERN                         0000000000　　　　　　　　　　　　　　　　　　0000000000　　　　　　　　　　　　　　　　　　0000000000000000000000
SEB2008112720080817C20000070032003190001ペイパルブル　　　　　　　　　　　　00110305000840スタウト773800ペイパルブル・シンジケート　　　　　　　　　　　　　　　　　　　　　　　　　　　　　　　　　　　　　　　　　　　　　　　　　　　　　　　　　　　　　　　　　　　　　　　　　　　　　　　600000000000000000ムーア　　　　　00       00302002279 12      0000000000000000000000000000000000000000000000000000KAMSIN                              0000000000　　　　　　　　　　　　　　　　　　0000000000　　　　　　　　　　　　　　　　　　+001000000000000000000
SEB2008111320080824A80000050012003190004フェアブリーズ　　　　　　　　　　　00210405005434ホーファ768800マルガレーテ社　　　　　　　　　　　　　　　　　　　　　　　　　　　　　　　　　　　　　　　　　　　　　　　　　　　　　　　　　　　　　　　　　　　　　　　　　　　　　　　　　　　　　570000000000000000カルバー　　　　00       00202002109112      0000000000000000000000000000000000000000000000000000FOLK OPERA                          0000000000　　　　　　　　　　　　　　　　　　0000000000　　　　　　　　　　　　　　　　　　+002000000000000000000
SEB2008111320080902A80000030082005190001トレラピッド　　　　　　　　　　　　00210303005617パンタル567030Ｈ．ラップ　　　　　　　　　　　　　　　　　　　　　　　　　　　　　　　　　　　　　　　　　　　　　　　　　　　　　　　　　　　　　　　　　　　　　　　　　　　　　　　　　　　　　　　560000000000000000ヴィクト　　　　00       002020021612        0000000000000000000000000000000000000000000000000000ASTROLOGIE                          0000000000　　　　　　　　　　　　　　　　　　0000000000　　　　　　　　　　　　　　　　　　+003000000000000000000
SEB2008112720080907B80000070072003190005マーシュサイド　　　　　　　　　　　00110405005380ドライス573030Ｒ．エヴァンス　　　　　　　　　　　　　　　　　　　　　　　　　　　　　　　　　　　　　　　　　　　　　　　　　　　　　　　　　　　　　　　　　　　　　　　　　　　　　　　　　　　　　530000000000000000スミス　　　　　00       00004002321         0000000000000000000000000000000000000000000000000000CHAMPS ELYSEES                      0000000000　　　　　　　　　　　　　　　　　　0000000000　　　　　　　　　　　　　　　　　　+001000000000000000000
SEB2008112020080907B80000090022004190002ラーイズアトーニー　　　　　　　　　00310304005618ブラック000000　　　　　　　　　　　　　　　　　　　　　　　　　　　　　　　　　　　　　　　　　　　　　　　　　　　　　　　　　　　　　　　　　　　　　　　　　　　　　　　　　　　　　　　　　　　　540000000000000000キャラハ　　　　00       00101001361         0000000000000000000000000000000000000000000000000000VENTURA                             0000000000　　　　　　　　　　　　　　　　　　0000000000　　　　　　　　　　　　　　　　　　0000000000000000000000
SEB2008111320080921C20000070022003190004フェアブリーズ　　　　　　　　　　　00210405005434ホーファ768800マルガレーテ社　　　　　　　　　　　　　　　　　　　　　　　　　　　　　　　　　　　　　　　　　　　　　　　　　　　　　　　　　　　　　　　　　　　　　　　　　　　　　　　　　　　　　580000000000000000ヘルフェ　　　　00       00202002080312      0000000000000000000000000000000000000000000000000000ZAUNGAST                            0000000000　　　　　　　　　　　　　　　　　　0000000000　　　　　　　　　　　　　　　　　　+006000000000000000000
SEB2008112720080924A60000050032003190007パープルムーン　　　　　　　　　　　00310105005127クマーニ570030Ｃ．ベネット　　　　　　　　　　　　　　　　　　　　　　　　　　　　　　　　　　　　　　　　　　　　　　　　　　　　　　　　　　　　　　　　　　　　　　　　　　　　　　　　　　　　　　570000000000000000スペンサ　　　　00       00005002065         0000000000000000000000000000000000000000000000000000HEARTHSTEAD MAISON                  0000000000TRANQUIL TIGER                      0000000000　　　　　　　　　　　　　　　　　　+014000000000000000000
SEB2008112720080928A60000020052003190006シックスティーズアイコン　　　　　　00110305005619ノスィー000000　　　　　　　　　　　　　　　　　　　　　　　　　　　　　　　　　　　　　　　　　　　　　　　　　　　　　　　　　　　　　　　　　　　　　　　　　　　　　　　　　　　　　　　　　　　　585000000000000000デットー　　　　00       00001002336         0000000000000000000000000000000000000000000000000000SUGAR RAY                           0000000000　　　　　　　　　　　　　　　　　　0000000000　　　　　　　　　　　　　　　　　　0000000000000000000000
SEB2008112020081004A40000080122004190002ラーイズアトーニー　　　　　　　　　00310304005618ブラック000000　　　　　　　　　　　　　　　　　　　　　　　　　　　　　　　　　　　　　　　　　　　　　　　　　　　　　　　　　　　　　　　　　　　　　　　　　　　　　　　　　　　　　　　　　　　　570000000000000000キャラハ　　　　00       00606001355         0000000000000000000000000000000000000000000000000000THORN SONG                          0000000000　　　　　　　　　　　　　　　　　　0000000000　　　　　　　　　　　　　　　　　　+006000000000000000000
SEB2008111320081004A80000020112005190001トレラピッド　　　　　　　　　　　　00210303005617パンタル567030Ｈ．ラップ　　　　　　　　　　　　　　　　　　　　　　　　　　　　　　　　　　　　　　　　　　　　　　　　　　　　　　　　　　　　　　　　　　　　　　　　　　　　　　　　　　　　　　　540000000000000000ブフ　　　　　　00       00202002384 12      0000000000000000000000000000000000000000000000000000BALLADEUSE                          0000000000　　　　　　　　　　　　　　　　　　0000000000　　　　　　　　　　　　　　　　　　+001000000000000000000
SEB2008112720081004B80000100062003190005マーシュサイド　　　　　　　　　　　00110405005380ドライス573030Ｒ．エヴァンス　　　　　　　　　　　　　　　　　　　　　　　　　　　　　　　　　　　　　　　　　　　　　　　　　　　　　　　　　　　　　　　　　　　　　　　　　　　　　　　　　　　　　570000000000000000カステリ　　　　00       00001002287         0000000000000000000000000000000000000000000000000000SPICE ROUTE                         0000000000　　　　　　　　　　　　　　　　　　0000000000　　　　　　　　　　　　　　　　　　0000000000000000000000
SEB2008111320081005A80000050042003190004フェアブリーズ　　　　　　　　　　　00210405005434ホーファ768800マルガレーテ社　　　　　　　　　　　　　　　　　　　　　　　　　　　　　　　　　　　　　　　　　　　　　　　　　　　　　　　　　　　　　　　　　　　　　　　　　　　　　　　　　　　　　580000000000000000ヴィクト　　　　00       01414002083T        0000000000000000000000000000000000000000000000000000LADY MARIAN                         0000000000　　　　　　　　　　　　　　　　　　0000000000　　　　　　　　　　　　　　　　　　+045000000000000000000
SEB2008112720081005A80000060082003190001ペイパルブル　　　　　　　　　　　　00110305000840スタウト773800ペイパルブル・シンジケート　　　　　　　　　　　　　　　　　　　　　　　　　　　　　　　　　　　　　　　　　　　　　　　　　　　　　　　　　　　　　　　　　　　　　　　　　　　　　　　595000000000000000フォーチ　　　　00       01212002304112      0000000000000000000000000000000000000000000000000000ZARKAVA                             0000000000　　　　　　　　　　　　　　　　　　0000000000　　　　　　　　　　　　　　　　　　+016000000000000000000
SEB2008112720081019A80000030022003190007パープルムーン　　　　　　　　　　　00310105005127クマーニ570030Ｃ．ベネット　　　　　　　　　　　　　　　　　　　　　　　　　　　　　　　　　　　　　　　　　　　　　　　　　　　　　　　　　　　　　　　　　　　　　　　　　　　　　　　　　　　　　　580000000000000000スペンサ　　　　00       00002002347K        0000000000000000000000000000000000000000000000000000CROSSHARBOUR                        0000000000　　　　　　　　　　　　　　　　　　0000000000　　　　　　　　　　　　　　　　　　+000000000000000000000
SEB2008112720081025A40000010032003190006シックスティーズアイコン　　　　　　00110305005619ノスィー771800Ｓ．ロイ＆ノーマンコートスタッド　　　　　　　　　　　　　　　　　　　　　　　　　　　　　　　　　　　　　　　　　　　　　　　　　　　　　　　　　　　　　　　　　　　　　　　　　　　　570000000000000000デットー　　　　00       00005002286         0000000000000000000000000000000000000000000000000000MUHANNAK                            0000000000　　　　　　　　　　　　　　　　　　0000000000　　　　　　　　　　　　　　　　　　+004000000000000000000
SEB2008110320081025A40000090010000000000GO BETWEEN                          00110005000000モット　000000　　　　　　　　　　　　　　　　　　　　　　　　　　　　　　　　　　　　　　　　　　　　　　　　　　　　　　　　　　　　　　　　　　　　　　　　　　　　　　　　　　　　　　　　　　　　570000000000000000ゴメス　　　　　00       00505000000134      0000000000000000000000000000000000000000000000000000RAVEN'S PASS                        0000000000　　　　　　　　　　　　　　　　　　0000000000　　　　　　　　　　　　　　　　　　0000000000000000000000
SEB2008110320081025A40000090022005110112カジノドライヴ　　　　　　　　　　　06110103100386藤沢和雄124008山本　英俊　　　　　　　　　　　　　　　　　　　　　　　　　　　水色，袖白一本輪　　　　　　　　　　　　　　　　　　　　　　　　　　　　　　　　　　　　　　　　　　　　　　　　　　　　550000000000000000エスピノ　　　　00       01212000000614      0000000000000000000000000000000000000000000000000000RAVEN'S PASS                        0000000000　　　　　　　　　　　　　　　　　　0000000000　　　　　　　　　　　　　　　　　　0000000000000000000000
SEB2008110320081025A40000090030000000000TIAGO                               00110004000000シレフス000000　　　　　　　　　　　　　　　　　　　　　　　　　　　　　　　　　　　　　　　　　　　　　　　　　　　　　　　　　　　　　　　　　　　　　　　　　　　　　　　　　　　　　　　　　　　　570000000000000000スミス　　　　　00       00303000000 34      0000000000000000000000000000000000000000000000000000RAVEN'S PASS                        0000000000　　　　　　　　　　　　　　　　　　0000000000　　　　　　　　　　　　　　　　　　0000000000000000000000
SEB2008110320081025A40000090040000000000DUKE OF MARMALADE                   00110004000000オブライ000000　　　　　　　　　　　　　　　　　　　　　　　　　　　　　　　　　　　　　　　　　　　　　　　　　　　　　　　　　　　　　　　　　　　　　　　　　　　　　　　　　　　　　　　　　　　　570000000000000000ムルタ　　　　　00       00909000000 34      0000000000000000000000000000000000000000000000000000RAVEN'S PASS                        0000000000　　　　　　　　　　　　　　　　　　0000000000　　　　　　　　　　　　　　　　　　0000000000000000000000
SEB2008110320081025A40000090050000000000HENRYTHENAVIGATOR                   00110003000000オブライ000000　　　　　　　　　　　　　　　　　　　　　　　　　　　　　　　　　　　　　　　　　　　　　　　　　　　　　　　　　　　　　　　　　　　　　　　　　　　　　　　　　　　　　　　　　　　　550000000000000000ヴェラス　　　　00       00202000000134      0000000000000000000000000000000000000000000000000000RAVEN'S PASS                        0000000000　　　　　　　　　　　　　　　　　　0000000000　　　　　　　　　　　　　　　　　　0000000000000000000000
SEB2008110320081025A40000090060000000000SMOOTH AIR                          00110003000000スタッツ000000　　　　　　　　　　　　　　　　　　　　　　　　　　　　　　　　　　　　　　　　　　　　　　　　　　　　　　　　　　　　　　　　　　　　　　　　　　　　　　　　　　　　　　　　　　　　550000000000000000ベハラー　　　　00       00707000000K        0000000000000000000000000000000000000000000000000000RAVEN'S PASS                        0000000000　　　　　　　　　　　　　　　　　　0000000000　　　　　　　　　　　　　　　　　　0000000000000000000000
SEB2008110320081025A40000090072002190005スチューデントカウンシル　　　　　　00110306000000アスムッ720800ミレニアム・ファームズ　　　　　　　　　　　　　　　　　　　　　　　　　　　　　　　　　　　　　　　　　　　　　　　　　　　　　　　　　　　　　　　　　　　　　　　　　　　　　　　　　570000000000000000ブリッジ　　　　00       01111000000134      0000000000000000000000000000000000000000000000000000RAVEN'S PASS                        0000000000　　　　　　　　　　　　　　　　　　0000000000　　　　　　　　　　　　　　　　　　0000000000000000000000
SEB2008110320081025A40000090080000000000RAVEN'S PASS                        00110003000000ゴスデン000000　　　　　　　　　　　　　　　　　　　　　　　　　　　　　　　　　　　　　　　　　　　　　　　　　　　　　　　　　　　　　　　　　　　　　　　　　　　　　　　　　　　　　　　　　　　　550000000000000000デットー　　　　00       00101001592         0000000000000000000000000000000000000000000000000000HENRYTHENAVIGATOR                   0000000000　　　　　　　　　　　　　　　　　　0000000000　　　　　　　　　　　　　　　　　　0000000000000000000000
SEB2008110320081025A40000090090000000000CURLIN                              00110004000000アスムッ000000　　　　　　　　　　　　　　　　　　　　　　　　　　　　　　　　　　　　　　　　　　　　　　　　　　　　　　　　　　　　　　　　　　　　　　　　　　　　　　　　　　　　　　　　　　　　570000000000000000アルバラ　　　　00       00404000000K        0000000000000000000000000000000000000000000000000000RAVEN'S PASS                        0000000000　　　　　　　　　　　　　　　　　　0000000000　　　　　　　　　　　　　　　　　　0000000000000000000000
SEB2008110320081025A40000090100000000000FAIRBANKS                           00110005000000プレッチ000000　　　　　　　　　　　　　　　　　　　　　　　　　　　　　　　　　　　　　　　　　　　　　　　　　　　　　　　　　　　　　　　　　　　　　　　　　　　　　　　　　　　　　　　　　　　　570000000000000000ミグリオ　　　　00       010100000007        0000000000000000000000000000000000000000000000000000RAVEN'S PASS                        0000000000　　　　　　　　　　　　　　　　　　0000000000　　　　　　　　　　　　　　　　　　0000000000000000000000
SEB2008110320081025A40000090110000000000COLONEL JOHN                        00110003000000ハーティ000000　　　　　　　　　　　　　　　　　　　　　　　　　　　　　　　　　　　　　　　　　　　　　　　　　　　　　　　　　　　　　　　　　　　　　　　　　　　　　　　　　　　　　　　　　　　　550000000000000000プラード　　　　00       00606000000 12      0000000000000000000000000000000000000000000000000000RAVEN'S PASS                        0000000000　　　　　　　　　　　　　　　　　　0000000000　　　　　　　　　　　　　　　　　　0000000000000000000000
SEB2008110320081025A40000090120000000000CHAMPS ELYSEES                      00110005000000フランケ000000　　　　　　　　　　　　　　　　　　　　　　　　　　　　　　　　　　　　　　　　　　　　　　　　　　　　　　　　　　　　　　　　　　　　　　　　　　　　　　　　　　　　　　　　　　　　570000000000000000ガルシア　　　　00       00808000000H        0000000000000000000000000000000000000000000000000000RAVEN'S PASS                        0000000000　　　　　　　　　　　　　　　　　　0000000000　　　　　　　　　　　　　　　　　　0000000000000000000000
SEB2008111320081027A80000030142005190001トレラピッド　　　　　　　　　　　　00210303005617パンタル567030Ｈ．ラップ　　　　　　　　　　　　　　　　　　　　　　　　　　　　　　　　　　　　　　　　　　　　　　　　　　　　　　　　　　　　　　　　　　　　　　　　　　　　　　　　　　　　　　　540000000000000000ブフ　　　　　　00       003030021902        0000000000000000000000000000000000000000000000000000ALBISOLA                            0000000000　　　　　　　　　　　　　　　　　　0000000000　　　　　　　　　　　　　　　　　　+004000000000000000000
SEB2008111320081105A40000020010000000000CAPTAIN CASH                        00310003000000コンロン000000　　　　　　　　　　　　　　　　　　　　　　　　　　　　　　　　　　　　　　　　　　　　　　　　　　　　　　　　　　　　　　　　　　　　　　　　　　　　　　　　　　　　　　　　　　　　550000000000000000クイノー　　　　00       00707000000834      0000000000000000000000000000000000000000000000000000CATASTAIRE                          0000000000　　　　　　　　　　　　　　　　　　0000000000　　　　　　　　　　　　　　　　　　0000000000000000000000
SEB2008111320081105A40000020020000000000SOGNATORE                           00110003000000フランケ000000　　　　　　　　　　　　　　　　　　　　　　　　　　　　　　　　　　　　　　　　　　　　　　　　　　　　　　　　　　　　　　　　　　　　　　　　　　　　　　　　　　　　　　　　　　　　550000000000000000ベハラー　　　　00       00404000000212      0000000000000000000000000000000000000000000000000000CATASTAIRE                          0000000000　　　　　　　　　　　　　　　　　　0000000000　　　　　　　　　　　　　　　　　　0000000000000000000000
SEB2008111320081105A40000020030000000000DOUBLE MOUNT                        00310004000000マンデラ000000　　　　　　　　　　　　　　　　　　　　　　　　　　　　　　　　　　　　　　　　　　　　　　　　　　　　　　　　　　　　　　　　　　　　　　　　　　　　　　　　　　　　　　　　　　　　560000000000000000ベイズ　　　　　00       00202000000 34      0000000000000000000000000000000000000000000000000000CATASTAIRE                          0000000000　　　　　　　　　　　　　　　　　　0000000000　　　　　　　　　　　　　　　　　　0000000000000000000000
SEB2008111320081105A40000020040000000000BLASTERMAN                          00310003000000パイプ　000000　　　　　　　　　　　　　　　　　　　　　　　　　　　　　　　　　　　　　　　　　　　　　　　　　　　　　　　　　　　　　　　　　　　　　　　　　　　　　　　　　　　　　　　　　　　　550000000000000000タラモ　　　　　00       005050000001        0000000000000000000000000000000000000000000000000000CATASTAIRE                          0000000000　　　　　　　　　　　　　　　　　　0000000000　　　　　　　　　　　　　　　　　　0000000000000000000000
SEB2008111320081105A40000020050000000000CATASTAIRE                          00310003000000グリーリ000000　　　　　　　　　　　　　　　　　　　　　　　　　　　　　　　　　　　　　　　　　　　　　　　　　　　　　　　　　　　　　　　　　　　　　　　　　　　　　　　　　　　　　　　　　　　　550000000000000000ロザリオ　　　　00       00101001422         0000000000000000000000000000000000000000000000000000DOUBLE MOUNT                        0000000000　　　　　　　　　　　　　　　　　　0000000000　　　　　　　　　　　　　　　　　　0000000000000000000000
SEB2008111320081105A40000020062005110104シャンパンスコール　　　　　　　　　06110703100386藤沢和雄124008山本　英俊　　　　　　　　　　　　　　　　　　　　　　　　　　　水色，袖白一本輪　　　　　　　　　　　　　　　　　　　　　　　　　　　　　　　　　　　　　　　　　　　　　　　　　　　　550000000000000000ゴメス　　　　　00       00808000000812      0000000000000000000000000000000000000000000000000000CATASTAIRE                          0000000000　　　　　　　　　　　　　　　　　　0000000000　　　　　　　　　　　　　　　　　　0000000000000000000000
SEB2008111320081105A40000020070000000000SHEM TOV                            00310003000000エイブラ000000　　　　　　　　　　　　　　　　　　　　　　　　　　　　　　　　　　　　　　　　　　　　　　　　　　　　　　　　　　　　　　　　　　　　　　　　　　　　　　　　　　　　　　　　　　　　550000000000000000サザーラ　　　　00       40000000000         0000000000000000000000000000000000000009990000000000CATASTAIRE                          0000000000　　　　　　　　　　　　　　　　　　0000000000　　　　　　　　　　　　　　　　　　9999000000000000000000
SEB2008111320081105A40000020080000000000JOB BOSS                            00110003000000ベル　　000000　　　　　　　　　　　　　　　　　　　　　　　　　　　　　　　　　　　　　　　　　　　　　　　　　　　　　　　　　　　　　　　　　　　　　　　　　　　　　　　　　　　　　　　　　　　　550000000000000000グライダ　　　　00       00606000000A        0000000000000000000000000000000000000000000000000000CATASTAIRE                          0000000000　　　　　　　　　　　　　　　　　　0000000000　　　　　　　　　　　　　　　　　　0000000000000000000000
SEB2008111320081105A40000020090000000000LAKE MEZA                           00110003000000ゴンザレ000000　　　　　　　　　　　　　　　　　　　　　　　　　　　　　　　　　　　　　　　　　　　　　　　　　　　　　　　　　　　　　　　　　　　　　　　　　　　　　　　　　　　　　　　　　　　　550000000000000000フローレ　　　　00       00303000000114      0000000000000000000000000000000000000000000000000000CATASTAIRE                          0000000000　　　　　　　　　　　　　　　　　　0000000000　　　　　　　　　　　　　　　　　　0000000000000000000000
SEB2008120420080113A40000070092003190008フロストジャイアント　　　　　　　　00110105005621ダトロー775800ＩＥＡＨステーブル　Ａ．コーエン＆ペガサスＨＤＧＳ　　　　　　　　　　　　　　　　　　　　　　　　　　　　　　　　　　　　　　　　　　　　　　　　　　　　　　　　　　　　　　　　　　　535000000000000000ヴェラス　　　　00       70102001355         0000000000000000000000000000000000000000000000000000PARADING                            0000000000　　　　　　　　　　　　　　　　　　0000000000　　　　　　　　　　　　　　　　　　-002000000000000000000
SEB2008120420080209A40000090062004190003マストトラック　　　　　　　　　　　00110304000928フランケ574030Ｒ．フランケル　　　　　　　　　　　　　　　　　　　　　　　　　　　　　　　　　　　　　　　　　　　　　　　　　　　　　　　　　　　　　　　　　　　　　　　　　　　　　　　　　　　　　540000000000000000ベハラー　　　　00       00001001128         0000000000000000000000000000000000000000000000000000TOWZEE                              0000000000　　　　　　　　　　　　　　　　　　0000000000　　　　　　　　　　　　　　　　　　0000000000000000000000
SEB2008120420080211A40000060022003190008フロストジャイアント　　　　　　　　00110105005621ダトロー775800ＩＥＡＨステーブル　Ａ．コーエン＆ペガサスＨＤＧＳ　　　　　　　　　　　　　　　　　　　　　　　　　　　　　　　　　　　　　　　　　　　　　　　　　　　　　　　　　　　　　　　　　　　545000000000000000ヴェラス　　　　00       00001001492         0000000000000000000000000000000000000000000000000000SOARING BY                          0000000000　　　　　　　　　　　　　　　　　　0000000000　　　　　　　　　　　　　　　　　　0000000000000000000000
SEB2008120420080315A40000090052003190008フロストジャイアント　　　　　　　　00110105005621ダトロー775800ＩＥＡＨステーブル　Ａ．コーエン＆ペガサスＨＤＧＳ　　　　　　　　　　　　　　　　　　　　　　　　　　　　　　　　　　　　　　　　　　　　　　　　　　　　　　　　　　　　　　　　　　　525000000000000000プラード　　　　00       00004001521         0000000000000000000000000000000000000000000000000000GOTTCHA GOLD                        0000000000　　　　　　　　　　　　　　　　　　0000000000　　　　　　　　　　　　　　　　　　+008000000000000000000
SEB2008120420080328A40000070012004190003マストトラック　　　　　　　　　　　00110304000928フランケ574030Ｒ．フランケル　　　　　　　　　　　　　　　　　　　　　　　　　　　　　　　　　　　　　　　　　　　　　　　　　　　　　　　　　　　　　　　　　　　　　　　　　　　　　　　　　　　　　535000000000000000ヴァルデ　　　　00       00002001367 12      0000000000000000000000000000000000000000000000000000FLY DORCEGO                         0000000000　　　　　　　　　　　　　　　　　　0000000000　　　　　　　　　　　　　　　　　　+001000000000000000000
SEB2008120420080420A40000030042004190003マストトラック　　　　　　　　　　　00110304000928フランケ574030Ｒ．フランケル　　　　　　　　　　　　　　　　　　　　　　　　　　　　　　　　　　　　　　　　　　　　　　　　　　　　　　　　　　　　　　　　　　　　　　　　　　　　　　　　　　　　　535000000000000000ベハラー　　　　00       00001001349         0000000000000000000000000000000000000000000000000000BROTHER DEREK                       0000000000　　　　　　　　　　　　　　　　　　0000000000　　　　　　　　　　　　　　　　　　0000000000000000000000
SEB2008120420080430A40000090062003190008フロストジャイアント　　　　　　　　00110105005621ダトロー775800ＩＥＡＨステーブル　Ａ．コーエン＆ペガサスＨＤＧＳ　　　　　　　　　　　　　　　　　　　　　　　　　　　　　　　　　　　　　　　　　　　　　　　　　　　　　　　　　　　　　　　　　　　555000000000000000デザーモ　　　　00       00008001447         0000000000000000000000000000000000000000000000000000CORRUPT                             0000000000　　　　　　　　　　　　　　　　　　0000000000　　　　　　　　　　　　　　　　　　+006000000000000000000
SEB2008120420080511A40000010032005190002ティンカップチャリス　　　　　　　　00310303005620レセッシ575030Ｓ．ファンラエル　　　　　　　　　　　　　　　　　　　　　　　　　　　　　　　　　　　　　　　　　　　　　　　　　　　　　　　　　　　　　　　　　　　　　　　　　　　　　　　　　　　　515000000000000000ロドリゲ　　　　00       00001000584         0000000000000000000000000000000000000000000000000000BAROSSA                             0000000000　　　　　　　　　　　　　　　　　　0000000000　　　　　　　　　　　　　　　　　　0000000000000000000000
SEB2008120420080526A40000990022004190003マストトラック　　　　　　　　　　　00110304000928フランケ574030Ｒ．フランケル　　　　　　　　　　　　　　　　　　　　　　　　　　　　　　　　　　　　　　　　　　　　　　　　　　　　　　　　　　　　　　　　　　　　　　　　　　　　　　　　　　　　　560000000000000000ヴァルデ　　　　00       00005001341         0000000000000000000000000000000000000000000000000000DAYTONA                             0000000000　　　　　　　　　　　　　　　　　　0000000000　　　　　　　　　　　　　　　　　　+007000000000000000000
SEB2008120420080529A40000080052003190008フロストジャイアント　　　　　　　　00110105005621ダトロー775800ＩＥＡＨステーブル　Ａ．コーエン＆ペガサスＨＤＧＳ　　　　　　　　　　　　　　　　　　　　　　　　　　　　　　　　　　　　　　　　　　　　　　　　　　　　　　　　　　　　　　　　　　　545000000000000000カストロ　　　　00       00002001429 12      0000000000000000000000000000000000000000000000000000I'M ONLY LAUGHING                   0000000000　　　　　　　　　　　　　　　　　　0000000000　　　　　　　　　　　　　　　　　　+001000000000000000000
SEB2008120420080530A40000050042005190002ティンカップチャリス　　　　　　　　00310303005620レセッシ575030Ｓ．ファンラエル　　　　　　　　　　　　　　　　　　　　　　　　　　　　　　　　　　　　　　　　　　　　　　　　　　　　　　　　　　　　　　　　　　　　　　　　　　　　　　　　　　　　535000000000000000ロドリゲ　　　　00       00001001044         0000000000000000000000000000000000000000000000000000LAPIN                               0000000000　　　　　　　　　　　　　　　　　　0000000000　　　　　　　　　　　　　　　　　　0000000000000000000000
SEB2008120420080622A40000090042005190002ティンカップチャリス　　　　　　　　00310303005620レセッシ575030Ｓ．ファンラエル　　　　　　　　　　　　　　　　　　　　　　　　　　　　　　　　　　　　　　　　　　　　　　　　　　　　　　　　　　　　　　　　　　　　　　　　　　　　　　　　　　　　550000000000000000ロドリゲ　　　　00       00001001241         0000000000000000000000000000000000000000000000000000GROOMEDFORVICTORY                   0000000000　　　　　　　　　　　　　　　　　　0000000000　　　　　　　　　　　　　　　　　　0000000000000000000000
SEB2008120420080628A40000090022003190008フロストジャイアント　　　　　　　　00110105005621ダトロー775800ＩＥＡＨステーブル　Ａ．コーエン＆ペガサスＨＤＧＳ　　　　　　　　　　　　　　　　　　　　　　　　　　　　　　　　　　　　　　　　　　　　　　　　　　　　　　　　　　　　　　　　　　　520000000000000000ロドリゲ　　　　00       00001002015         0000000000000000000000000000000000000000000000000000SOLAR FLARE                         0000000000　　　　　　　　　　　　　　　　　　0000000000　　　　　　　　　　　　　　　　　　0000000000000000000000
SEB2008120420080628A40000100012004190003マストトラック　　　　　　　　　　　00110304000928フランケ574030Ｒ．フランケル　　　　　　　　　　　　　　　　　　　　　　　　　　　　　　　　　　　　　　　　　　　　　　　　　　　　　　　　　　　　　　　　　　　　　　　　　　　　　　　　　　　　　510000000000000000ベイズ　　　　　00       00001002013         0000000000000000000000000000000000000000000000000000GO BETWEEN                          0000000000　　　　　　　　　　　　　　　　　　0000000000　　　　　　　　　　　　　　　　　　0000000000000000000000
SEB2008120420080712A40000080032005190002ティンカップチャリス　　　　　　　　00310303005620レセッシ575030Ｓ．ファンラエル　　　　　　　　　　　　　　　　　　　　　　　　　　　　　　　　　　　　　　　　　　　　　　　　　　　　　　　　　　　　　　　　　　　　　　　　　　　　　　　　　　　　550000000000000000ロドリゲ　　　　00       00001001459         0000000000000000000000000000000000000000000000000000ALMIGHTY SILVER                     0000000000　　　　　　　　　　　　　　　　　　0000000000　　　　　　　　　　　　　　　　　　0000000000000000000000
SEB2008120420080820A40000090052005190002ティンカップチャリス　　　　　　　　00310303005620レセッシ575030Ｓ．ファンラエル　　　　　　　　　　　　　　　　　　　　　　　　　　　　　　　　　　　　　　　　　　　　　　　　　　　　　　　　　　　　　　　　　　　　　　　　　　　　　　　　　　　　560000000000000000ロドリゲ　　　　00       00001001513         0000000000000000000000000000000000000000000000000000THAT'SRIGHTOFFICER                  0000000000　　　　　　　　　　　　　　　　　　0000000000　　　　　　　　　　　　　　　　　　0000000000000000000000
SEB2008120420080824A40000100082004190003マストトラック　　　　　　　　　　　00110304000928フランケ574030Ｒ．フランケル　　　　　　　　　　　　　　　　　　　　　　　　　　　　　　　　　　　　　　　　　　　　　　　　　　　　　　　　　　　　　　　　　　　　　　　　　　　　　　　　　　　　　560000000000000000ベハラー　　　　00       00003002015         0000000000000000000000000000000000000000000000000000GO BETWEEN                          0000000000　　　　　　　　　　　　　　　　　　0000000000　　　　　　　　　　　　　　　　　　+004000000000000000000
