SEB2012040920120331C70000030012007106231マカニビスティー　　　　　　　　　　05110505201075矢作芳人419030備前島　敏子　　　　　　　　　　　　　　　　　　　　　　　　　　白，赤襷，袖赤二本輪　　　　　　　　　　　　　　　　　　　　　　　　　　　　　　　　　　　　　　　　　　　　　　　　　　570000000089400000小牧太　　　　　00       01010000000T        0000000000000000000000000000000000000000000000000000OPINION POLL                        0000000000　　　　　　　　　　　　　　　　　　0000000000　　　　　　　　　　　　　　　　　　0000000000000000000000
SEB2012040920120331C70000030020000000000BARBICAN                            00310004000000ベイリー000000　　　　　　　　　　　　　　　　　　　　　　　　　　　　　　　　　　　　　　　　　　　　　　　　　　　　　　　　　　　　　　　　　　　　　　　　　　　　　　　　　　　　　　　　　　　　545000000000000000ムーア　　　　　00       00007000000 14      0000000000000000000000000000000000000000000000000000OPINION POLL                        0000000000　　　　　　　　　　　　　　　　　　0000000000　　　　　　　　　　　　　　　　　　0000000000000000000000
SEB2012040920120331C70000030030000000000UNUSUAL SUSPECT                     00110008000000ケント　000000　　　　　　　　　　　　　　　　　　　　　　　　　　　　　　　　　　　　　　　　　　　　　　　　　　　　　　　　　　　　　　　　　　　　　　　　　　　　　　　　　　　　　　　　　　　　570000000000000000ナカタニ　　　　00       00008000000812      0000000000000000000000000000000000000000000000000000OPINION POLL                        0000000000　　　　　　　　　　　　　　　　　　0000000000　　　　　　　　　　　　　　　　　　0000000000000000000000
SEB2012040920120331C70000030040000000000AVERROES                            00110005000000オーテル000000　　　　　　　　　　　　　　　　　　　　　　　　　　　　　　　　　　　　　　　　　　　　　　　　　　　　　　　　　　　　　　　　　　　　　　　　　　　　　　　　　　　　　　　　　　　　570000000000000000コスグレ　　　　00       00004000000114      0000000000000000000000000000000000000000000000000000OPINION POLL                        0000000000　　　　　　　　　　　　　　　　　　0000000000　　　　　　　　　　　　　　　　　　0000000000000000000000
SEB2012040920120331C70000030060000000000IRISH FLAME                         00110006000000デコック000000　　　　　　　　　　　　　　　　　　　　　　　　　　　　　　　　　　　　　　　　　　　　　　　　　　　　　　　　　　　　　　　　　　　　　　　　　　　　　　　　　　　　　　　　　　　　570000000000000000シーア　　　　　00       000060000006        0000000000000000000000000000000000000000000000000000OPINION POLL                        0000000000　　　　　　　　　　　　　　　　　　0000000000　　　　　　　　　　　　　　　　　　0000000000000000000000
SEB2012040920120331C70000030070000000000BRONZE CANNON                       00110007000000ブラウン000000　　　　　　　　　　　　　　　　　　　　　　　　　　　　　　　　　　　　　　　　　　　　　　　　　　　　　　　　　　　　　　　　　　　　　　　　　　　　　　　　　　　　　　　　　　　　570000000000000000ウルバエ　　　　00       40000000000         0000000000000000000000000000000000000009990000000000OPINION POLL                        0000000000　　　　　　　　　　　　　　　　　　0000000000　　　　　　　　　　　　　　　　　　9999000000000000000000
SEB2012040920120331C70000030080000000000MIKHAIL GLINKA                      00110005000000ブラウン000000　　　　　　　　　　　　　　　　　　　　　　　　　　　　　　　　　　　　　　　　　　　　　　　　　　　　　　　　　　　　　　　　　　　　　　　　　　　　　　　　　　　　　　　　　　　　570000000000000000スコフィ　　　　00       00009000000T        0000000000000000000000000000000000000000000000000000OPINION POLL                        0000000000　　　　　　　　　　　　　　　　　　0000000000　　　　　　　　　　　　　　　　　　0000000000000000000000
SEB2012040920120331C70000030090000000000GRAND VENT                          00110004000000ビン・ス000000　　　　　　　　　　　　　　　　　　　　　　　　　　　　　　　　　　　　　　　　　　　　　　　　　　　　　　　　　　　　　　　　　　　　　　　　　　　　　　　　　　　　　　　　　　　　545000000000000000バルザロ　　　　00       40000000000         0000000000000000000000000000000000000009990000000000OPINION POLL                        0000000000　　　　　　　　　　　　　　　　　　0000000000　　　　　　　　　　　　　　　　　　9999000000000000000000
SEB2012040920120331C70000030110000000000FOX HUNT                            00310005000000アル・ザ000000　　　　　　　　　　　　　　　　　　　　　　　　　　　　　　　　　　　　　　　　　　　　　　　　　　　　　　　　　　　　　　　　　　　　　　　　　　　　　　　　　　　　　　　　　　　　570000000000000000デソウサ　　　　00000    10000000000         0000000000000000000000000000000000000009990000000000OPINION POLL                        0000000000　　　　　　　　　　　　　　　　　　0000000000　　　　　　　　　　　　　　　　　　9999000000000000000000
SEB2012040920120331C70000030120000000000ZANZAMAR                            00110005000000デコック000000　　　　　　　　　　　　　　　　　　　　　　　　　　　　　　　　　　　　　　　　　　　　　　　　　　　　　　　　　　　　　　　　　　　　　　　　　　　　　　　　　　　　　　　　　　　　565000000000000000ヒルズ　　　　　00       00003000000A        0000000000000000000000000000000000000000000000000000OPINION POLL                        0000000000　　　　　　　　　　　　　　　　　　0000000000　　　　　　　　　　　　　　　　　　0000000000000000000000
SEB2012040920120331C70000030130000000000KASBAH BLISS                        00310010000000ドゥーメ000000　　　　　　　　　　　　　　　　　　　　　　　　　　　　　　　　　　　　　　　　　　　　　　　　　　　　　　　　　　　　　　　　　　　　　　　　　　　　　　　　　　　　　　　　　　　　570000000000000000ルメール　　　　00       00005000000 14      0000000000000000000000000000000000000000000000000000OPINION POLL                        0000000000　　　　　　　　　　　　　　　　　　0000000000　　　　　　　　　　　　　　　　　　0000000000000000000000
SEB2012040920120331C70000040010000000000LUCKY CHAPPY                        00110003000000モーショ000000　　　　　　　　　　　　　　　　　　　　　　　　　　　　　　　　　　　　　　　　　　　　　　　　　　　　　　　　　　　　　　　　　　　　　　　　　　　　　　　　　　　　　　　　　　　　550000000000000000ガルシア　　　　00       000070000001        0000000000000000000000000000000000000000000000000000DADDY LONG LEGS                     0000000000　　　　　　　　　　　　　　　　　　0000000000　　　　　　　　　　　　　　　　　　0000000000000000000000
SEB2012040920120331C70000040020000000000BURANO                              00110003000000ミーハン000000　　　　　　　　　　　　　　　　　　　　　　　　　　　　　　　　　　　　　　　　　　　　　　　　　　　　　　　　　　　　　　　　　　　　　　　　　　　　　　　　　　　　　　　　　　　　550000000000000000ファロン　　　　00       00008000000634      0000000000000000000000000000000000000000000000000000DADDY LONG LEGS                     0000000000　　　　　　　　　　　　　　　　　　0000000000　　　　　　　　　　　　　　　　　　0000000000000000000000
SEB2012040920120331C70000040030000000000MARITIMER                           00110003000000ブラウン000000　　　　　　　　　　　　　　　　　　　　　　　　　　　　　　　　　　　　　　　　　　　　　　　　　　　　　　　　　　　　　　　　　　　　　　　　　　　　　　　　　　　　　　　　　　　　550000000000000000スコフィ　　　　00       00011000000234      0000000000000000000000000000000000000000000000000000DADDY LONG LEGS                     0000000000　　　　　　　　　　　　　　　　　　0000000000　　　　　　　　　　　　　　　　　　0000000000000000000000
SEB2012040920120331C70000040040000000000BALADA SALE                         00210004000000バリー　000000　　　　　　　　　　　　　　　　　　　　　　　　　　　　　　　　　　　　　　　　　　　　　　　　　　　　　　　　　　　　　　　　　　　　　　　　　　　　　　　　　　　　　　　　　　　　575000000000000000ルメール　　　　00       00006000000312      0000000000000000000000000000000000000000000000000000DADDY LONG LEGS                     0000000000　　　　　　　　　　　　　　　　　　0000000000　　　　　　　　　　　　　　　　　　0000000000000000000000
SEB2012040920120331C70000040052009110063ゲンテン　　　　　　　　　　　　　　06110403201075矢作芳人675030林　正道　　　　　　　　　　　　　　　　　　　　　　　　　　　　海老，黒縦縞　　　　　　　　　　　　　　　　　　　　　　　　　　　　　　　　　　　　　　　　　　　　　　　　　　　　　　550000000000000000ウィリア　　　　00       01414000000T        0000000000000000000000000000000000000000000000000000DADDY LONG LEGS                     0000000000　　　　　　　　　　　　　　　　　　0000000000　　　　　　　　　　　　　　　　　　0000000000000000000000
SEB2012040920120331C70000040060000000000MICKDAAM                            00110003000000デコック000000　　　　　　　　　　　　　　　　　　　　　　　　　　　　　　　　　　　　　　　　　　　　　　　　　　　　　　　　　　　　　　　　　　　　　　　　　　　　　　　　　　　　　　　　　　　　550000000000000000スミヨン　　　　00       00004000000114      0000000000000000000000000000000000000000000000000000DADDY LONG LEGS                     0000000000　　　　　　　　　　　　　　　　　　0000000000　　　　　　　　　　　　　　　　　　0000000000000000000000
SEB2012040920120331C70000040070000000000DADDY LONG LEGS                     00110003000000オブライ000000　　　　　　　　　　　　　　　　　　　　　　　　　　　　　　　　　　　　　　　　　　　　　　　　　　　　　　　　　　　　　　　　　　　　　　　　　　　　　　　　　　　　　　　　　　　　550000000000000000オドノヒ　　　　00       00001001583         0000000000000000000000000000000000000000000000000000YANG TSE KIANG                      0000000000　　　　　　　　　　　　　　　　　　0000000000　　　　　　　　　　　　　　　　　　0000000000000000000000
SEB2012040920120331C70000040080000000000YANG TSE KIANG                      00310003000000ショター000000　　　　　　　　　　　　　　　　　　　　　　　　　　　　　　　　　　　　　　　　　　　　　　　　　　　　　　　　　　　　　　　　　　　　　　　　　　　　　　　　　　　　　　　　　　　　550000000000000000ジャルネ　　　　00       00002000000114      0000000000000000000000000000000000000000000000000000DADDY LONG LEGS                     0000000000　　　　　　　　　　　　　　　　　　0000000000　　　　　　　　　　　　　　　　　　0000000000000000000000
SEB2012040920120331C70000040090000000000KINGLET                             00110003000000アル・ザ000000　　　　　　　　　　　　　　　　　　　　　　　　　　　　　　　　　　　　　　　　　　　　　　　　　　　　　　　　　　　　　　　　　　　　　　　　　　　　　　　　　　　　　　　　　　　　550000000000000000デットー　　　　00       00009000000 12      0000000000000000000000000000000000000000000000000000DADDY LONG LEGS                     0000000000　　　　　　　　　　　　　　　　　　0000000000　　　　　　　　　　　　　　　　　　0000000000000000000000
SEB2012040920120331C70000040100000000000FALLS OF LORA                       00210003000000アル・ザ000000　　　　　　　　　　　　　　　　　　　　　　　　　　　　　　　　　　　　　　　　　　　　　　　　　　　　　　　　　　　　　　　　　　　　　　　　　　　　　　　　　　　　　　　　　　　　530000000000000000バルザロ　　　　00       00010000000312      0000000000000000000000000000000000000000000000000000DADDY LONG LEGS                     0000000000　　　　　　　　　　　　　　　　　　0000000000　　　　　　　　　　　　　　　　　　0000000000000000000000
SEB2012040920120331C70000040110000000000ENTIFAADHA                          00110003000000ハガス　000000　　　　　　　　　　　　　　　　　　　　　　　　　　　　　　　　　　　　　　　　　　　　　　　　　　　　　　　　　　　　　　　　　　　　　　　　　　　　　　　　　　　　　　　　　　　　550000000000000000ヒルズ　　　　　00       00013000000234      0000000000000000000000000000000000000000000000000000DADDY LONG LEGS                     0000000000　　　　　　　　　　　　　　　　　　0000000000　　　　　　　　　　　　　　　　　　0000000000000000000000
SEB2012040920120331C70000040120000000000RED DUKE                            00110003000000クイン　000000　　　　　　　　　　　　　　　　　　　　　　　　　　　　　　　　　　　　　　　　　　　　　　　　　　　　　　　　　　　　　　　　　　　　　　　　　　　　　　　　　　　　　　　　　　　　550000000000000000クウィリ　　　　00       00005000000114      0000000000000000000000000000000000000000000000000000DADDY LONG LEGS                     0000000000　　　　　　　　　　　　　　　　　　0000000000　　　　　　　　　　　　　　　　　　0000000000000000000000
SEB2012040920120331C70000040130000000000WROTE                               00110003000000オブライ000000　　　　　　　　　　　　　　　　　　　　　　　　　　　　　　　　　　　　　　　　　　　　　　　　　　　　　　　　　　　　　　　　　　　　　　　　　　　　　　　　　　　　　　　　　　　　550000000000000000ムーア　　　　　00       00003000000 34      0000000000000000000000000000000000000000000000000000DADDY LONG LEGS                     0000000000　　　　　　　　　　　　　　　　　　0000000000　　　　　　　　　　　　　　　　　　0000000000000000000000
SEB2012040920120331C70000040140000000000HELMET                              00110004000000スノーデ000000　　　　　　　　　　　　　　　　　　　　　　　　　　　　　　　　　　　　　　　　　　　　　　　　　　　　　　　　　　　　　　　　　　　　　　　　　　　　　　　　　　　　　　　　　　　　595000000000000000マカヴォ　　　　00       00012000000112      0000000000000000000000000000000000000000000000000000DADDY LONG LEGS                     0000000000　　　　　　　　　　　　　　　　　　0000000000　　　　　　　　　　　　　　　　　　0000000000000000000000
SEB2012040920120331C70000050010000000000MONSIEUR JOE                        00310005000000カウエル000000　　　　　　　　　　　　　　　　　　　　　　　　　　　　　　　　　　　　　　　　　　　　　　　　　　　　　　　　　　　　　　　　　　　　　　　　　　　　　　　　　　　　　　　　　　　　570000000000000000コスグレ　　　　00       00004000000 14      0000000000000000000000000000000000000000000000000000ORTENSIA                            0000000000　　　　　　　　　　　　　　　　　　0000000000　　　　　　　　　　　　　　　　　　0000000000000000000000
SEB2012040920120331C70000050020000000000ADDICTIVE DREAM                     00310005000000ニコルス000000　　　　　　　　　　　　　　　　　　　　　　　　　　　　　　　　　　　　　　　　　　　　　　　　　　　　　　　　　　　　　　　　　　　　　　　　　　　　　　　　　　　　　　　　　　　　570000000000000000ニコルス　　　　00       00015000000112      0000000000000000000000000000000000000000000000000000ORTENSIA                            0000000000　　　　　　　　　　　　　　　　　　0000000000　　　　　　　　　　　　　　　　　　0000000000000000000000
SEB2012040920120331C70000050030000000000REGALLY READY                       00310005000000アスムッ000000　　　　　　　　　　　　　　　　　　　　　　　　　　　　　　　　　　　　　　　　　　　　　　　　　　　　　　　　　　　　　　　　　　　　　　　　　　　　　　　　　　　　　　　　　　　　570000000000000000ナカタニ　　　　00       00014000000234      0000000000000000000000000000000000000000000000000000ORTENSIA                            0000000000　　　　　　　　　　　　　　　　　　0000000000　　　　　　　　　　　　　　　　　　0000000000000000000000
SEB2012040920120331C70000050042007101300エーシンヴァーゴウ　　　　　　　　　00210105201085小崎憲　785800栄進堂　　　　　　　　　　　　　　　　　　　　　　　　　　　　　赤，黒縦縞，黒袖黄一本輪　　　　　　　　　　　　　　　　　　　　　　　　　　　　　　　　　　　　　　　　　　　　　　　　550000000101400000福永祐一　　　　00       01212000000A        0000000000000000000000000000000000000000000000000000ORTENSIA                            0000000000　　　　　　　　　　　　　　　　　　0000000000　　　　　　　　　　　　　　　　　　0000000000000000000000
SEB2012040920120331C70000050050000000000NOCTURNAL AFFAIR                    00310006000000マーネン000000　　　　　　　　　　　　　　　　　　　　　　　　　　　　　　　　　　　　　　　　　　　　　　　　　　　　　　　　　　　　　　　　　　　　　　　　　　　　　　　　　　　　　　　　　　　　570000000000000000ムーア　　　　　00       00006000000A        0000000000000000000000000000000000000000000000000000ORTENSIA                            0000000000　　　　　　　　　　　　　　　　　　0000000000　　　　　　　　　　　　　　　　　　0000000000000000000000
SEB2012040920120331C70000050060000000000JOY AND FUN                         00310009000000クルーズ000000　　　　　　　　　　　　　　　　　　　　　　　　　　　　　　　　　　　　　　　　　　　　　　　　　　　　　　　　　　　　　　　　　　　　　　　　　　　　　　　　　　　　　　　　　　　　570000000000000000ドイル　　　　　00       00003000000 14      0000000000000000000000000000000000000000000000000000ORTENSIA                            0000000000　　　　　　　　　　　　　　　　　　0000000000　　　　　　　　　　　　　　　　　　0000000000000000000000
SEB2012040920120331C70000050070000000000INVINCIBLE ASH                      00210007000000ハルフォ000000　　　　　　　　　　　　　　　　　　　　　　　　　　　　　　　　　　　　　　　　　　　　　　　　　　　　　　　　　　　　　　　　　　　　　　　　　　　　　　　　　　　　　　　　　　　　550000000000000000スペンサ　　　　00       00007000000 34      0000000000000000000000000000000000000000000000000000ORTENSIA                            0000000000　　　　　　　　　　　　　　　　　　0000000000　　　　　　　　　　　　　　　　　　0000000000000000000000
SEB2012040920120331C70000050080000000000AUGUST RUSH                         00310006000000ブラウン000000　　　　　　　　　　　　　　　　　　　　　　　　　　　　　　　　　　　　　　　　　　　　　　　　　　　　　　　　　　　　　　　　　　　　　　　　　　　　　　　　　　　　　　　　　　　　570000000000000000スコフィ　　　　00       00005000000A        0000000000000000000000000000000000000000000000000000ORTENSIA                            0000000000　　　　　　　　　　　　　　　　　　0000000000　　　　　　　　　　　　　　　　　　0000000000000000000000
SEB2012040920120331C70000050090000000000WAR ARTIST                          00310009000000デコック000000　　　　　　　　　　　　　　　　　　　　　　　　　　　　　　　　　　　　　　　　　　　　　　　　　　　　　　　　　　　　　　　　　　　　　　　　　　　　　　　　　　　　　　　　　　　　570000000000000000シーア　　　　　00       00011000000134      0000000000000000000000000000000000000000000000000000ORTENSIA                            0000000000　　　　　　　　　　　　　　　　　　0000000000　　　　　　　　　　　　　　　　　　0000000000000000000000
SEB2012040920120331C70000050100000000000ORTENSIA                            00210007000000メッサー000000　　　　　　　　　　　　　　　　　　　　　　　　　　　　　　　　　　　　　　　　　　　　　　　　　　　　　　　　　　　　　　　　　　　　　　　　　　　　　　　　　　　　　　　　　　　　550000000000000000ウィリア　　　　00       00001000579         0000000000000000000000000000000000000000000000000000SOLE POWER                          0000000000　　　　　　　　　　　　　　　　　　0000000000　　　　　　　　　　　　　　　　　　0000000000000000000000
SEB2012040920120331C70000050110000000000EAGLE REGIMENT                      00310005000000マン　　000000　　　　　　　　　　　　　　　　　　　　　　　　　　　　　　　　　　　　　　　　　　　　　　　　　　　　　　　　　　　　　　　　　　　　　　　　　　　　　　　　　　　　　　　　　　　　570000000000000000ドゥルー　　　　00000    10000000000         0000000000000000000000000000000000000009990000000000ORTENSIA                            0000000000　　　　　　　　　　　　　　　　　　0000000000　　　　　　　　　　　　　　　　　　9999000000000000000000
SEB2012040920120331C70000050120000000000PROHIBIT                            00310007000000カウエル000000　　　　　　　　　　　　　　　　　　　　　　　　　　　　　　　　　　　　　　　　　　　　　　　　　　　　　　　　　　　　　　　　　　　　　　　　　　　　　　　　　　　　　　　　　　　　570000000000000000クローリ　　　　00       00013000000214      0000000000000000000000000000000000000000000000000000ORTENSIA                            0000000000　　　　　　　　　　　　　　　　　　0000000000　　　　　　　　　　　　　　　　　　0000000000000000000000
SEB2012040920120331C70000050130000000000BETTER BE THE ONE                   00310006000000フリード000000　　　　　　　　　　　　　　　　　　　　　　　　　　　　　　　　　　　　　　　　　　　　　　　　　　　　　　　　　　　　　　　　　　　　　　　　　　　　　　　　　　　　　　　　　　　　570000000000000000ファロン　　　　00       00009000000A        0000000000000000000000000000000000000000000000000000ORTENSIA                            0000000000　　　　　　　　　　　　　　　　　　0000000000　　　　　　　　　　　　　　　　　　0000000000000000000000
SEB2012040920120331C70000050140000000000SECRET ASSET                        00310007000000チャプル000000　　　　　　　　　　　　　　　　　　　　　　　　　　　　　　　　　　　　　　　　　　　　　　　　　　　　　　　　　　　　　　　　　　　　　　　　　　　　　　　　　　　　　　　　　　　　570000000000000000ベイカー　　　　00       00008000000 12      0000000000000000000000000000000000000000000000000000ORTENSIA                            0000000000　　　　　　　　　　　　　　　　　　0000000000　　　　　　　　　　　　　　　　　　0000000000000000000000
SEB2012040920120331C70000050150000000000SOLE POWER                          00310005000000ライナム000000　　　　　　　　　　　　　　　　　　　　　　　　　　　　　　　　　　　　　　　　　　　　　　　　　　　　　　　　　　　　　　　　　　　　　　　　　　　　　　　　　　　　　　　　　　　　570000000000000000ムルタ　　　　　00       00002000000114      0000000000000000000000000000000000000000000000000000ORTENSIA                            0000000000　　　　　　　　　　　　　　　　　　0000000000　　　　　　　　　　　　　　　　　　0000000000000000000000
SEB2012040920120331C70000050160000000000MARGOT DID                          00210004000000ベル　　000000　　　　　　　　　　　　　　　　　　　　　　　　　　　　　　　　　　　　　　　　　　　　　　　　　　　　　　　　　　　　　　　　　　　　　　　　　　　　　　　　　　　　　　　　　　　　550000000000000000ターナー　　　　00       00010000000 12      0000000000000000000000000000000000000000000000000000ORTENSIA                            0000000000　　　　　　　　　　　　　　　　　　0000000000　　　　　　　　　　　　　　　　　　0000000000000000000000
SEB2012040920120331C70000070010000000000GREEN DESTINY                       00310005000000ブラウン000000　　　　　　　　　　　　　　　　　　　　　　　　　　　　　　　　　　　　　　　　　　　　　　　　　　　　　　　　　　　　　　　　　　　　　　　　　　　　　　　　　　　　　　　　　　　　570000000000000000スコフィ　　　　00       000110000002        0000000000000000000000000000000000000000000000000000CITYSCAPE                           0000000000　　　　　　　　　　　　　　　　　　0000000000　　　　　　　　　　　　　　　　　　0000000000000000000000
SEB2012040920120331C70000070020000000000AWAIT THE DAWN                      00110005000000オブライ000000　　　　　　　　　　　　　　　　　　　　　　　　　　　　　　　　　　　　　　　　　　　　　　　　　　　　　　　　　　　　　　　　　　　　　　　　　　　　　　　　　　　　　　　　　　　　570000000000000000オブライ　　　　00       00015000000T        0000000000000000000000000000000000000000000000000000CITYSCAPE                           0000000000　　　　　　　　　　　　　　　　　　0000000000　　　　　　　　　　　　　　　　　　0000000000000000000000
SEB2012040920120331C70000070030000000000RAJSAMAN                            00110005000000アル・ラ000000　　　　　　　　　　　　　　　　　　　　　　　　　　　　　　　　　　　　　　　　　　　　　　　　　　　　　　　　　　　　　　　　　　　　　　　　　　　　　　　　　　　　　　　　　　　　570000000000000000フレンチ　　　　00       00010000000 14      0000000000000000000000000000000000000000000000000000CITYSCAPE                           0000000000　　　　　　　　　　　　　　　　　　0000000000　　　　　　　　　　　　　　　　　　0000000000000000000000
SEB2012040920120331C70000070040000000000AMBITIOUS DRAGON                    00310006000000ミラード000000　　　　　　　　　　　　　　　　　　　　　　　　　　　　　　　　　　　　　　　　　　　　　　　　　　　　　　　　　　　　　　　　　　　　　　　　　　　　　　　　　　　　　　　　　　　　570000000000000000ホワイト　　　　00       00007000000A        0000000000000000000000000000000000000000000000000000CITYSCAPE                           0000000000　　　　　　　　　　　　　　　　　　0000000000　　　　　　　　　　　　　　　　　　0000000000000000000000
SEB2012040920120331C70000070050000000000MUSIR                               00110006000000デコック000000　　　　　　　　　　　　　　　　　　　　　　　　　　　　　　　　　　　　　　　　　　　　　　　　　　　　　　　　　　　　　　　　　　　　　　　　　　　　　　　　　　　　　　　　　　　　570000000000000000シーア　　　　　00       00006000000134      0000000000000000000000000000000000000000000000000000CITYSCAPE                           0000000000　　　　　　　　　　　　　　　　　　0000000000　　　　　　　　　　　　　　　　　　0000000000000000000000
SEB2012040920120331C70000070060000000000DELEGATOR                           00110006000000ビン・ス000000　　　　　　　　　　　　　　　　　　　　　　　　　　　　　　　　　　　　　　　　　　　　　　　　　　　　　　　　　　　　　　　　　　　　　　　　　　　　　　　　　　　　　　　　　　　　570000000000000000デットー　　　　00       000080000001        0000000000000000000000000000000000000000000000000000CITYSCAPE                           0000000000　　　　　　　　　　　　　　　　　　0000000000　　　　　　　　　　　　　　　　　　0000000000000000000000
SEB2012040920120331C70000070072007102929ダークシャドウ　　　　　　　　　　　00110105101070堀宣行　308002飯塚　知一　　　　　　　　　　　　　　　　　　　　　　　　　　　青，黄縦縞，袖黄一本輪　　　　　　　　　　　　　　　　　　　　　　　　　　　　　　　　　　　　　　　　　　　　　　　　　570000000101400000福永祐一　　　　00       00909000000 12      0000000000000000000000000000000000000000000000000000CITYSCAPE                           0000000000　　　　　　　　　　　　　　　　　　0000000000　　　　　　　　　　　　　　　　　　0000000000000000000000
SEB2012040920120331C70000070080000000000CALIFORNIA MEMORY                   00310006000000クルーズ000000　　　　　　　　　　　　　　　　　　　　　　　　　　　　　　　　　　　　　　　　　　　　　　　　　　　　　　　　　　　　　　　　　　　　　　　　　　　　　　　　　　　　　　　　　　　　570000000000000000チャドウ　　　　00       00012000000134      0000000000000000000000000000000000000000000000000000CITYSCAPE                           0000000000　　　　　　　　　　　　　　　　　　0000000000　　　　　　　　　　　　　　　　　　0000000000000000000000
SEB2012040920120331C70000070090000000000XTENSION                            00110005000000ムーア　000000　　　　　　　　　　　　　　　　　　　　　　　　　　　　　　　　　　　　　　　　　　　　　　　　　　　　　　　　　　　　　　　　　　　　　　　　　　　　　　　　　　　　　　　　　　　　570000000000000000ロイド　　　　　00       00005000000 14      0000000000000000000000000000000000000000000000000000CITYSCAPE                           0000000000　　　　　　　　　　　　　　　　　　0000000000　　　　　　　　　　　　　　　　　　0000000000000000000000
SEB2012040920120331C70000070100000000000MUTAHADEE                           00110004000000デコック000000　　　　　　　　　　　　　　　　　　　　　　　　　　　　　　　　　　　　　　　　　　　　　　　　　　　　　　　　　　　　　　　　　　　　　　　　　　　　　　　　　　　　　　　　　　　　570000000000000000スミヨン　　　　00       00002000000414      0000000000000000000000000000000000000000000000000000CITYSCAPE                           0000000000　　　　　　　　　　　　　　　　　　0000000000　　　　　　　　　　　　　　　　　　0000000000000000000000
SEB2012040920120331C70000070110000000000CITYSCAPE                           00110006000000チャール000000　　　　　　　　　　　　　　　　　　　　　　　　　　　　　　　　　　　　　　　　　　　　　　　　　　　　　　　　　　　　　　　　　　　　　　　　　　　　　　　　　　　　　　　　　　　　570000000000000000ドイル　　　　　00       00001001486         0000000000000000000000000000000000000000000000000000MUTAHADEE                           0000000000　　　　　　　　　　　　　　　　　　0000000000　　　　　　　　　　　　　　　　　　0000000000000000000000
SEB2012040920120331C70000070120000000000PRESVIS                             00310008000000クマーニ000000　　　　　　　　　　　　　　　　　　　　　　　　　　　　　　　　　　　　　　　　　　　　　　　　　　　　　　　　　　　　　　　　　　　　　　　　　　　　　　　　　　　　　　　　　　　　570000000000000000ムーア　　　　　00       00014000000T        0000000000000000000000000000000000000000000000000000CITYSCAPE                           0000000000　　　　　　　　　　　　　　　　　　0000000000　　　　　　　　　　　　　　　　　　0000000000000000000000
SEB2012040920120331C70000070130000000000CITY STYLE                          00310006000000アル・ザ000000　　　　　　　　　　　　　　　　　　　　　　　　　　　　　　　　　　　　　　　　　　　　　　　　　　　　　　　　　　　　　　　　　　　　　　　　　　　　　　　　　　　　　　　　　　　　570000000000000000バルザロ　　　　00       00003000000A        0000000000000000000000000000000000000000000000000000CITYSCAPE                           0000000000　　　　　　　　　　　　　　　　　　0000000000　　　　　　　　　　　　　　　　　　0000000000000000000000
SEB2012040920120331C70000070140000000000RIO DE LA PLATA                     00110007000000ビン・ス000000　　　　　　　　　　　　　　　　　　　　　　　　　　　　　　　　　　　　　　　　　　　　　　　　　　　　　　　　　　　　　　　　　　　　　　　　　　　　　　　　　　　　　　　　　　　　570000000000000000デソウサ　　　　00       00013000000634      0000000000000000000000000000000000000000000000000000CITYSCAPE                           0000000000　　　　　　　　　　　　　　　　　　0000000000　　　　　　　　　　　　　　　　　　0000000000000000000000
SEB2012040920120331C70000070150000000000WIGMORE HALL                        00310005000000ベル　　000000　　　　　　　　　　　　　　　　　　　　　　　　　　　　　　　　　　　　　　　　　　　　　　　　　　　　　　　　　　　　　　　　　　　　　　　　　　　　　　　　　　　　　　　　　　　　570000000000000000スペンサ　　　　00       00004000000114      0000000000000000000000000000000000000000000000000000CITYSCAPE                           0000000000　　　　　　　　　　　　　　　　　　0000000000　　　　　　　　　　　　　　　　　　0000000000000000000000
SEB2012040920120331C70000070160000000000DUBAWI GOLD                         00110004000000ハノン　000000　　　　　　　　　　　　　　　　　　　　　　　　　　　　　　　　　　　　　　　　　　　　　　　　　　　　　　　　　　　　　　　　　　　　　　　　　　　　　　　　　　　　　　　　　　　　570000000000000000ムルタ　　　　　00000    10000000000         0000000000000000000000000000000000000009990000000000CITYSCAPE                           0000000000　　　　　　　　　　　　　　　　　　0000000000　　　　　　　　　　　　　　　　　　9999000000000000000000
SEB2012040920120331C70000090010000000000MASTER OF HOUNDS                    00110004000000デコック000000　　　　　　　　　　　　　　　　　　　　　　　　　　　　　　　　　　　　　　　　　　　　　　　　　　　　　　　　　　　　　　　　　　　　　　　　　　　　　　　　　　　　　　　　　　　　570000000000000000スミヨン　　　　00       00008000000 14      0000000000000000000000000000000000000000000000000000MONTEROSSO                          0000000000　　　　　　　　　　　　　　　　　　0000000000　　　　　　　　　　　　　　　　　　0000000000000000000000
SEB2012040920120331C70000090022007102951エイシンフラッシュ　　　　　　　　　00110405201055藤原英昭951005平井　豊光　　　　　　　　　　　　　　　　　　　　　　　　　　　赤，黒縦縞，黒袖　　　　　　　　　　　　　　　　　　　　　　　　　　　　　　　　　　　　　　　　　　　　　　　　　　　　570000000000000000ルメール　　　　00       006060000001        0000000000000000000000000000000000000000000000000000MONTEROSSO                          0000000000　　　　　　　　　　　　　　　　　　0000000000　　　　　　　　　　　　　　　　　　0000000000000000000000
SEB2012040920120331C70000090030000000000ZAZOU                               00110005000000ヒクスト000000　　　　　　　　　　　　　　　　　　　　　　　　　　　　　　　　　　　　　　　　　　　　　　　　　　　　　　　　　　　　　　　　　　　　　　　　　　　　　　　　　　　　　　　　　　　　570000000000000000ペリエ　　　　　00       00005000000214      0000000000000000000000000000000000000000000000000000MONTEROSSO                          0000000000　　　　　　　　　　　　　　　　　　0000000000　　　　　　　　　　　　　　　　　　0000000000000000000000
SEB2012040920120331C70000090040000000000SO YOU THINK                        00110006000000オブライ000000　　　　　　　　　　　　　　　　　　　　　　　　　　　　　　　　　　　　　　　　　　　　　　　　　　　　　　　　　　　　　　　　　　　　　　　　　　　　　　　　　　　　　　　　　　　　570000000000000000オブライ　　　　00       00004000000 12      0000000000000000000000000000000000000000000000000000MONTEROSSO                          0000000000　　　　　　　　　　　　　　　　　　0000000000　　　　　　　　　　　　　　　　　　0000000000000000000000
SEB2012040920120331C70000090052005100097スマートファルコン　　　　　　　　　00110107201085小崎憲　660007大川　徹　　　　　　　　　　　　　　　　　　　　　　　　　　　　桃，黒ダイヤモンド，袖黒一本輪　　　　　　　　　　　　　　　　　　　　　　　　　　　　　　　　　　　　　　　　　　　　　570000000066600000武豊　　　　　　00       01010000000314      0000000000000000000000000000000000000000000000000000MONTEROSSO                          0000000000　　　　　　　　　　　　　　　　　　0000000000　　　　　　　　　　　　　　　　　　0000000000000000000000
SEB2012040920120331C70000090060000000000PLANTEUR                            00110005000000ボッティ000000　　　　　　　　　　　　　　　　　　　　　　　　　　　　　　　　　　　　　　　　　　　　　　　　　　　　　　　　　　　　　　　　　　　　　　　　　　　　　　　　　　　　　　　　　　　　570000000000000000ムーア　　　　　00       00003000000 12      0000000000000000000000000000000000000000000000000000MONTEROSSO                          0000000000　　　　　　　　　　　　　　　　　　0000000000　　　　　　　　　　　　　　　　　　0000000000000000000000
SEB2012040920120331C70000090070000000000ROYAL DELTA                         00210004000000モット　000000　　　　　　　　　　　　　　　　　　　　　　　　　　　　　　　　　　　　　　　　　　　　　　　　　　　　　　　　　　　　　　　　　　　　　　　　　　　　　　　　　　　　　　　　　　　　550000000000000000レスカー　　　　00       000090000001        0000000000000000000000000000000000000000000000000000MONTEROSSO                          0000000000　　　　　　　　　　　　　　　　　　0000000000　　　　　　　　　　　　　　　　　　0000000000000000000000
SEB2012040920120331C70000090080000000000MONTEROSSO                          00110005000000アル・ザ000000　　　　　　　　　　　　　　　　　　　　　　　　　　　　　　　　　　　　　　　　　　　　　　　　　　　　　　　　　　　　　　　　　　　　　　　　　　　　　　　　　　　　　　　　　　　　570000000000000000バルザロ　　　　00       00001002026         0000000000000000000000000000000000000000000000000000CAPPONI                             0000000000　　　　　　　　　　　　　　　　　　0000000000　　　　　　　　　　　　　　　　　　0000000000000000000000
SEB2012040920120331C70000090090000000000SILVER POND                         00110005000000ワトソン000000　　　　　　　　　　　　　　　　　　　　　　　　　　　　　　　　　　　　　　　　　　　　　　　　　　　　　　　　　　　　　　　　　　　　　　　　　　　　　　　　　　　　　　　　　　　　570000000000000000ムルタ　　　　　00000    10000000000         0000000000000000000000000000000000000009990000000000MONTEROSSO                          0000000000　　　　　　　　　　　　　　　　　　0000000000　　　　　　　　　　　　　　　　　　9999000000000000000000
SEB2012040920120331C70000090102006104736トランセンド　　　　　　　　　　　　00110306200438安田隆行948006前田　幸治　　　　　　　　　　　　　　　　　　　　　　　　　　　水色，赤十字襷，赤袖水色一本輪　　　　　　　　　　　　　　　　　　　　　　　　　　　　　　　　　　　　　　　　　　　　　570000000070500000藤田伸二　　　　00       013130000004        0000000000000000000000000000000000000000000000000000MONTEROSSO                          0000000000　　　　　　　　　　　　　　　　　　0000000000　　　　　　　　　　　　　　　　　　0000000000000000000000
SEB2012040920120331C70000090110000000000CAPPONI                             00110005000000アル・ザ000000　　　　　　　　　　　　　　　　　　　　　　　　　　　　　　　　　　　　　　　　　　　　　　　　　　　　　　　　　　　　　　　　　　　　　　　　　　　　　　　　　　　　　　　　　　　　570000000000000000アジュテ　　　　00       000020000003        0000000000000000000000000000000000000000000000000000MONTEROSSO                          0000000000　　　　　　　　　　　　　　　　　　0000000000　　　　　　　　　　　　　　　　　　0000000000000000000000
SEB2012040920120331C70000090120000000000PRINCE BISHOP                       00310005000000ビン・ス000000　　　　　　　　　　　　　　　　　　　　　　　　　　　　　　　　　　　　　　　　　　　　　　　　　　　　　　　　　　　　　　　　　　　　　　　　　　　　　　　　　　　　　　　　　　　　570000000000000000デットー　　　　00       00007000000A        0000000000000000000000000000000000000000000000000000MONTEROSSO                          0000000000　　　　　　　　　　　　　　　　　　0000000000　　　　　　　　　　　　　　　　　　0000000000000000000000
SEB2012040920120331C70000090130000000000MENDIP                              00110005000000ビン・ス000000　　　　　　　　　　　　　　　　　　　　　　　　　　　　　　　　　　　　　　　　　　　　　　　　　　　　　　　　　　　　　　　　　　　　　　　　　　　　　　　　　　　　　　　　　　　　570000000000000000デソウサ　　　　00       00011000000 12      0000000000000000000000000000000000000000000000000000MONTEROSSO                          0000000000　　　　　　　　　　　　　　　　　　0000000000　　　　　　　　　　　　　　　　　　0000000000000000000000
SEB2012040920120331C70000090140000000000GAME ON DUDE                        00310005000000バファー000000　　　　　　　　　　　　　　　　　　　　　　　　　　　　　　　　　　　　　　　　　　　　　　　　　　　　　　　　　　　　　　　　　　　　　　　　　　　　　　　　　　　　　　　　　　　　570000000000000000サザーラ　　　　00       00012000000814      0000000000000000000000000000000000000000000000000000MONTEROSSO                          0000000000　　　　　　　　　　　　　　　　　　0000000000　　　　　　　　　　　　　　　　　　0000000000000000000000
SEB2012052720120115G00000080022007190004ラッキーナイン　　　　　　　　　　　00310305000000　　　　000000　　　　　　　　　　　　　　　　　　　　　　　　　　　　　　　　　　　　　　　　　　　　　　　　　　　　　　　　　　　　　　　　　　　　　　　　　　　　　　　　　　　　　　　　　　　　570000000000000000アングラ　　　　00       00006000572         0000000000000000000000000000000000000000000000000000EAGLE REGIMENT                      0000000000　　　　　　　　　　　　　　　　　　0000000000　　　　　　　　　　　　　　　　　　+002000000000000000000
SEB2012052720120125G00000100042007190006グロリアスデイズ　　　　　　　　　　00310505000000　　　　000000　　　　　　　　　　　　　　　　　　　　　　　　　　　　　　　　　　　　　　　　　　　　　　　　　　　　　　　　　　　　　　　　　　　　　　　　　　　　　　　　　　　　　　　　　　　　590000000000000000ホワイト　　　　00       00001001228         0000000000000000000000000000000000000000000000000000BULLISH CHAMPION                    0000000000　　　　　　　　　　　　　　　　　　0000000000　　　　　　　　　　　　　　　　　　0000000000000000000000
SEB2012052720120205G00000080012007190004ラッキーナイン　　　　　　　　　　　00310305000000　　　　000000　　　　　　　　　　　　　　　　　　　　　　　　　　　　　　　　　　　　　　　　　　　　　　　　　　　　　　　　　　　　　　　　　　　　　　　　　　　　　　　　　　　　　　　　　　　　570000000000000000プレブル　　　　00       00002001091 34      0000000000000000000000000000000000000000000000000000JOY AND FUN                         0000000000　　　　　　　　　　　　　　　　　　0000000000　　　　　　　　　　　　　　　　　　+002000000000000000000
SEB2012052720120304G00000070022007190004ラッキーナイン　　　　　　　　　　　00310305000000　　　　000000　　　　　　　　　　　　　　　　　　　　　　　　　　　　　　　　　　　　　　　　　　　　　　　　　　　　　　　　　　　　　　　　　　　　　　　　　　　　　　　　　　　　　　　　　　　　570000000000000000プレブル　　　　00       00001001213         0000000000000000000000000000000000000000002007190006グロリアスデイズ　　　　　　　　　　0000000000　　　　　　　　　　　　　　　　　　0000000000　　　　　　　　　　　　　　　　　　-000000000000000000000
SEB2012052720120304G00000070102007190006グロリアスデイズ　　　　　　　　　　00310505000000　　　　000000　　　　　　　　　　　　　　　　　　　　　　　　　　　　　　　　　　　　　　　　　　　　　　　　　　　　　　　　　　　　　　　　　　　　　　　　　　　　　　　　　　　　　　　　　　　　570000000000000000ホワイト　　　　00       00002001213A        0000000000000000000000000000000000000000002007190004ラッキーナイン　　　　　　　　　　　0000000000　　　　　　　　　　　　　　　　　　0000000000　　　　　　　　　　　　　　　　　　+000000000000000000000
SEB2012052720120331C70000060122007190004ラッキーナイン　　　　　　　　　　　00310305000000　　　　000000　　　　　　　　　　　　　　　　　　　　　　　　　　　　　　　　　　　　　　　　　　　　　　　　　　　　　　　　　　　　　　　　　　　　　　　　　　　　　　　　　　　　　　　　　　　　570000000000000000プレブル　　　　00       00003001114         0000000000000000000000000000000000000000000000000000KRYPTON FACTOR                      0000000000　　　　　　　　　　　　　　　　　　0000000000　　　　　　　　　　　　　　　　　　+007000000000000000000
SEB2012052720120401G00000070022007190006グロリアスデイズ　　　　　　　　　　00310505000000　　　　000000　　　　　　　　　　　　　　　　　　　　　　　　　　　　　　　　　　　　　　　　　　　　　　　　　　　　　　　　　　　　　　　　　　　　　　　　　　　　　　　　　　　　　　　　　　　　560000000000000000ホワイト　　　　00       00002001344K        0000000000000000000000000000000000000000000000000000ADMIRATION                          0000000000　　　　　　　　　　　　　　　　　　0000000000　　　　　　　　　　　　　　　　　　+000000000000000000000
SEB2012050720120429G00000080010000000000CALIFORNIA MEMORY                   00310006000000クルーズ000000　　　　　　　　　　　　　　　　　　　　　　　　　　　　　　　　　　　　　　　　　　　　　　　　　　　　　　　　　　　　　　　　　　　　　　　　　　　　　　　　　　　　　　　　　　　　570000000000000000チャドウ　　　　00       00005000000         0000000000000000000000000000000000000000002007103143ルーラーシップ　　　　　　　　　　　0000000000　　　　　　　　　　　　　　　　　　0000000000　　　　　　　　　　　　　　　　　　0000000000000000000000
SEB2012050720120429G00000080020000000000TREASURE BEACH                      00110004000000オブライ000000　　　　　　　　　　　　　　　　　　　　　　　　　　　　　　　　　　　　　　　　　　　　　　　　　　　　　　　　　　　　　　　　　　　　　　　　　　　　　　　　　　　　　　　　　　　　570000000000000000スペンサ　　　　00       00009000000         0000000000000000000000000000000000000000002007103143ルーラーシップ　　　　　　　　　　　0000000000　　　　　　　　　　　　　　　　　　0000000000　　　　　　　　　　　　　　　　　　0000000000000000000000
SEB2012050720120429G00000080030000000000IRIAN                               00310006000000ムーア　000000　　　　　　　　　　　　　　　　　　　　　　　　　　　　　　　　　　　　　　　　　　　　　　　　　　　　　　　　　　　　　　　　　　　　　　　　　　　　　　　　　　　　　　　　　　　　570000000000000000クラーク　　　　00       00007000000         0000000000000000000000000000000000000000002007103143ルーラーシップ　　　　　　　　　　　0000000000　　　　　　　　　　　　　　　　　　0000000000　　　　　　　　　　　　　　　　　　0000000000000000000000
SEB2012050720120429G00000080042007103143ルーラーシップ　　　　　　　　　　　00110305201053角居勝彦226800サンデーレーシング　　　　　　　　　　　　　　　　　　　　　　　黒，赤十字襷，袖黄縦縞　　　　　　　　　　　　　　　　　　　　　　　　　　　　　　　　　　　　　　　　　　　　　　　　　570000000000000000リスポリ　　　　00498-00600101002023         0000000000000000000000000000000000000000002004190007サムザップ　　　　　　　　　　　　　0000000000　　　　　　　　　　　　　　　　　　0000000000　　　　　　　　　　　　　　　　　　-006000000000000000000
SEB2012050720120429G00000080050000000000PURE CHAMPION                       00110005000000クルーズ000000　　　　　　　　　　　　　　　　　　　　　　　　　　　　　　　　　　　　　　　　　　　　　　　　　　　　　　　　　　　　　　　　　　　　　　　　　　　　　　　　　　　　　　　　　　　　570000000000000000スボリッ　　　　00       00006000000         0000000000000000000000000000000000000000002007103143ルーラーシップ　　　　　　　　　　　0000000000　　　　　　　　　　　　　　　　　　0000000000　　　　　　　　　　　　　　　　　　0000000000000000000000
SEB2012050720120429G00000080062004190007サムザップ　　　　　　　　　　　　　00310308000000ファウン000000　　　　　　　　　　　　　　　　　　　　　　　　　　　　　　　　　　　　　　　　　　　　　　　　　　　　　　　　　　　　　　　　　　　　　　　　　　　　　　　　　　　　　　　　　　　　570000000000000000プレブル　　　　00       00002002029334      0000000000000000000000000000000000000000002007103143ルーラーシップ　　　　　　　　　　　0000000000　　　　　　　　　　　　　　　　　　0000000000　　　　　　　　　　　　　　　　　　+006000000000000000000
SEB2012050720120429G00000080070000000000CHINCHON                            00110007000000ラフォン000000　　　　　　　　　　　　　　　　　　　　　　　　　　　　　　　　　　　　　　　　　　　　　　　　　　　　　　　　　　　　　　　　　　　　　　　　　　　　　　　　　　　　　　　　　　　　570000000000000000ムーア　　　　　00       00008000000         0000000000000000000000000000000000000000002007103143ルーラーシップ　　　　　　　　　　　0000000000　　　　　　　　　　　　　　　　　　0000000000　　　　　　　　　　　　　　　　　　0000000000000000000000
SEB2012050720120429G00000080080000000000MR MEDICI                           00110007000000ホー　　000000　　　　　　　　　　　　　　　　　　　　　　　　　　　　　　　　　　　　　　　　　　　　　　　　　　　　　　　　　　　　　　　　　　　　　　　　　　　　　　　　　　　　　　　　　　　　570000000000000000パートン　　　　00       00011000000         0000000000000000000000000000000000000000002007103143ルーラーシップ　　　　　　　　　　　0000000000　　　　　　　　　　　　　　　　　　0000000000　　　　　　　　　　　　　　　　　　0000000000000000000000
SEB2012050720120429G00000080090000000000VISCOUNT NELSON                     00110005000000デコック000000　　　　　　　　　　　　　　　　　　　　　　　　　　　　　　　　　　　　　　　　　　　　　　　　　　　　　　　　　　　　　　　　　　　　　　　　　　　　　　　　　　　　　　　　　　　　570000000000000000シーア　　　　　00       00012000000         0000000000000000000000000000000000000000002007103143ルーラーシップ　　　　　　　　　　　0000000000　　　　　　　　　　　　　　　　　　0000000000　　　　　　　　　　　　　　　　　　0000000000000000000000
SEB2012050720120429G00000080100000000000FAY FAY                             00310005000000サイズ　000000　　　　　　　　　　　　　　　　　　　　　　　　　　　　　　　　　　　　　　　　　　　　　　　　　　　　　　　　　　　　　　　　　　　　　　　　　　　　　　　　　　　　　　　　　　　　570000000000000000ホワイト　　　　00       00010000000         0000000000000000000000000000000000000000002007103143ルーラーシップ　　　　　　　　　　　0000000000　　　　　　　　　　　　　　　　　　0000000000　　　　　　　　　　　　　　　　　　0000000000000000000000
SEB2012050720120429G00000080110000000000SWEET ORANGE                        00110004000000フェラリ000000　　　　　　　　　　　　　　　　　　　　　　　　　　　　　　　　　　　　　　　　　　　　　　　　　　　　　　　　　　　　　　　　　　　　　　　　　　　　　　　　　　　　　　　　　　　　570000000000000000マーウィ　　　　00       00003000000         0000000000000000000000000000000000000000002007103143ルーラーシップ　　　　　　　　　　　0000000000　　　　　　　　　　　　　　　　　　0000000000　　　　　　　　　　　　　　　　　　0000000000000000000000
SEB2012050720120429G00000080120000000000COLLECTION                          00310007000000クルーズ000000　　　　　　　　　　　　　　　　　　　　　　　　　　　　　　　　　　　　　　　　　　　　　　　　　　　　　　　　　　　　　　　　　　　　　　　　　　　　　　　　　　　　　　　　　　　　570000000000000000スミス　　　　　00       00013000000         0000000000000000000000000000000000000000002007103143ルーラーシップ　　　　　　　　　　　0000000000　　　　　　　　　　　　　　　　　　0000000000　　　　　　　　　　　　　　　　　　0000000000000000000000
SEB2012050720120429G00000080130000000000ZAIDAN                              00310004000000ムーア　000000　　　　　　　　　　　　　　　　　　　　　　　　　　　　　　　　　　　　　　　　　　　　　　　　　　　　　　　　　　　　　　　　　　　　　　　　　　　　　　　　　　　　　　　　　　　　570000000000000000ドゥルー　　　　00       00004000000         0000000000000000000000000000000000000000002007103143ルーラーシップ　　　　　　　　　　　0000000000　　　　　　　　　　　　　　　　　　0000000000　　　　　　　　　　　　　　　　　　0000000000000000000000
SEB2012053120120506G00000090052007190004ラッキーナイン　　　　　　　　　　　00310305000000　　　　000000　　　　　　　　　　　　　　　　　　　　　　　　　　　　　　　　　　　　　　　　　　　　　　　　　　　　　　　　　　　　　　　　　　　　　　　　　　　　　　　　　　　　　　　　　　　　570000000000000000プレブル　　　　00491 99900003001354         0000000000000000000000000000000000000000000000000000XTENSION                            0000000000　　　　　　　　　　　　　　　　　　0000000000　　　　　　　　　　　　　　　　　　+002000000000000000000
SEB2012053120120506G00000090072007190006グロリアスデイズ　　　　　　　　　　00310505000000　　　　000000　　　　　　　　　　　　　　　　　　　　　　　　　　　　　　　　　　　　　　　　　　　　　　　　　　　　　　　　　　　　　　　　　　　　　　　　　　　　　　　　　　　　　　　　　　　　570000000000000000コーツィ　　　　00480 99900002001353 12      0000000000000000000000000000000000000000000000000000XTENSION                            0000000000　　　　　　　　　　　　　　　　　　0000000000　　　　　　　　　　　　　　　　　　+001000000000000000000
SEB2012073020120721A60000060010000000000BROWN PANTHER                       00110004000000ダスコム000000　　　　　　　　　　　　　　　　　　　　　　　　　　　　　　　　　　　　　　　　　　　　　　　　　　　　　　　　　　　　　　　　　　　　　　　　　　　　　　　　　　　　　　　　　　　　605000000000000000ファロン　　　　00       00007000000 12      0000000000000000000000000000000000000000002008190004デインドリーム　　　　　　　　　　　0000000000　　　　　　　　　　　　　　　　　　0000000000　　　　　　　　　　　　　　　　　　0000000000000000000000
SEB2012073020120721A60000060030000000000MASKED MARVEL                       00110004000000ゴスデン000000　　　　　　　　　　　　　　　　　　　　　　　　　　　　　　　　　　　　　　　　　　　　　　　　　　　　　　　　　　　　　　　　　　　　　　　　　　　　　　　　　　　　　　　　　　　　605000000000000000デットー　　　　00       00009000000 12      0000000000000000000000000000000000000000002008190004デインドリーム　　　　　　　　　　　0000000000　　　　　　　　　　　　　　　　　　0000000000　　　　　　　　　　　　　　　　　　0000000000000000000000
SEB2012073020120721A60000060040000000000NATHANIEL                           00110004000000ゴスデン000000　　　　　　　　　　　　　　　　　　　　　　　　　　　　　　　　　　　　　　　　　　　　　　　　　　　　　　　　　　　　　　　　　　　　　　　　　　　　　　　　　　　　　　　　　　　　605000000000000000ビュイッ　　　　00       00002000000H        0000000000000000000000000000000000000000002008190004デインドリーム　　　　　　　　　　　0000000000　　　　　　　　　　　　　　　　　　0000000000　　　　　　　　　　　　　　　　　　0000000000000000000000
SEB2012073020120721A60000060050000000000RELIABLE MAN                        00110004000000ドゥロワ000000　　　　　　　　　　　　　　　　　　　　　　　　　　　　　　　　　　　　　　　　　　　　　　　　　　　　　　　　　　　　　　　　　　　　　　　　　　　　　　　　　　　　　　　　　　　　605000000000000000ペリエ　　　　　00       00004000000A        0000000000000000000000000000000000000000002008190004デインドリーム　　　　　　　　　　　0000000000　　　　　　　　　　　　　　　　　　0000000000　　　　　　　　　　　　　　　　　　0000000000000000000000
SEB2012073020120721A60000060060000000000ROBIN HOOD                          00110004000000オブライ000000　　　　　　　　　　　　　　　　　　　　　　　　　　　　　　　　　　　　　　　　　　　　　　　　　　　　　　　　　　　　　　　　　　　　　　　　　　　　　　　　　　　　　　　　　　　　605000000000000000ヘファナ　　　　00       00010000000T        0000000000000000000000000000000000000000002008190004デインドリーム　　　　　　　　　　　0000000000　　　　　　　　　　　　　　　　　　0000000000　　　　　　　　　　　　　　　　　　0000000000000000000000
SEB2012073020120721A60000060070000000000SEA MOON                            00110004000000スタウト000000　　　　　　　　　　　　　　　　　　　　　　　　　　　　　　　　　　　　　　　　　　　　　　　　　　　　　　　　　　　　　　　　　　　　　　　　　　　　　　　　　　　　　　　　　　　　605000000000000000ムーア　　　　　00       00005000000 12      0000000000000000000000000000000000000000002008190004デインドリーム　　　　　　　　　　　0000000000　　　　　　　　　　　　　　　　　　0000000000　　　　　　　　　　　　　　　　　　0000000000000000000000
SEB2012073020120721A60000060080000000000ST NICHOLAS ABBEY                   00110005000000オブライ000000　　　　　　　　　　　　　　　　　　　　　　　　　　　　　　　　　　　　　　　　　　　　　　　　　　　　　　　　　　　　　　　　　　　　　　　　　　　　　　　　　　　　　　　　　　　　605000000000000000オブライ　　　　00       00003000000112      0000000000000000000000000000000000000000002008190004デインドリーム　　　　　　　　　　　0000000000　　　　　　　　　　　　　　　　　　0000000000　　　　　　　　　　　　　　　　　　0000000000000000000000
SEB2012073020120721A60000060092008190004デインドリーム　　　　　　　　　　　00210304000000シールゲ000000　　　　　　　　　　　　　　　　　　　　　　　　　　　　　　　　　　　　　　　　　　　　　　　　　　　　　　　　　　　　　　　　　　　　　　　　　　　　　　　　　　　　　　　　　　　　590000000000000000シュタル　　　　00       00001002316         0000000000000000000000000000000000000000000000000000NATHANIEL                           0000000000　　　　　　　　　　　　　　　　　　0000000000　　　　　　　　　　　　　　　　　　0000000000000000000000
SEB2012073020120721A60000060102009105084ディープブリランテ　　　　　　　　　00110303201075矢作芳人226800サンデーレーシング　　　　　　　　　　　　　　　　　　　　　　　黒，赤十字襷，袖黄縦縞　　　　　　　　　　　　　　　　　　　　　　　　　　　　　　　　　　　　　　　　　　　　　　　　　550000000520300000岩田康誠　　　　00       00808000000Z        0000000000000000000000000000000000000000002008190004デインドリーム　　　　　　　　　　　0000000000　　　　　　　　　　　　　　　　　　0000000000　　　　　　　　　　　　　　　　　　0000000000000000000000
SEB2012092320120115G00000080032006190007リトルブリッジ　　　　　　　　　　　00310306000000　　　　000000　　　　　　　　　　　　　　　　　　　　　　　　　　　　　　　　　　　　　　　　　　　　　　　　　　　　　　　　　　　　　　　　　　　　　　　　　　　　　　　　　　　　　　　　　　　　570000000000000000モッセ　　　　　00       00007000573         0000000000000000000000000000000000000000000000000000EAGLE REGIMENT                      0000000000　　　　　　　　　　　　　　　　　　0000000000　　　　　　　　　　　　　　　　　　+003000000000000000000
SEB2012092320120120C70000040012005190012キャプテンオブヴィアス　　　　　　　00310707000000　　　　000000　　　　　　　　　　　　　　　　　　　　　　　　　　　　　　　　　　　　　　　　　　　　　　　　　　　　　　　　　　　　　　　　　　　　　　　　　　　　　　　　　　　　　　　　　　　　580000000000000000シャヴェ　　　　00       00001001110         0000000000000000000000000000000000000000000000000000HITCHENS                            0000000000　　　　　　　　　　　　　　　　　　0000000000　　　　　　　　　　　　　　　　　　0000000000000000000000
SEB2012092320120203C70000050112005190012キャプテンオブヴィアス　　　　　　　00310707000000　　　　000000　　　　　　　　　　　　　　　　　　　　　　　　　　　　　　　　　　　　　　　　　　　　　　　　　　　　　　　　　　　　　　　　　　　　　　　　　　　　　　　　　　　　　　　　　　　　580000000000000000シャヴェ　　　　00       00004001117         0000000000000000000000000000000000000000000000000000HITCHENS                            0000000000　　　　　　　　　　　　　　　　　　0000000000　　　　　　　　　　　　　　　　　　+005000000000000000000
SEB2012092320120205G00000080032006190007リトルブリッジ　　　　　　　　　　　00310306000000　　　　000000　　　　　　　　　　　　　　　　　　　　　　　　　　　　　　　　　　　　　　　　　　　　　　　　　　　　　　　　　　　　　　　　　　　　　　　　　　　　　　　　　　　　　　　　　　　　570000000000000000パートン　　　　00       00006001094         0000000000000000000000000000000000000000000000000000JOY AND FUN                         0000000000　　　　　　　　　　　　　　　　　　0000000000　　　　　　　　　　　　　　　　　　+005000000000000000000
SEB2012092320120216C70000030012005190012キャプテンオブヴィアス　　　　　　　00310707000000　　　　000000　　　　　　　　　　　　　　　　　　　　　　　　　　　　　　　　　　　　　　　　　　　　　　　　　　　　　　　　　　　　　　　　　　　　　　　　　　　　　　　　　　　　　　　　　　　　600000000000000000シャヴェ　　　　00       00006001261         0000000000000000000000000000000000000000000000000000DELEGATOR                           0000000000　　　　　　　　　　　　　　　　　　0000000000　　　　　　　　　　　　　　　　　　+008000000000000000000
SEB2012092320120401G00000080012006190007リトルブリッジ　　　　　　　　　　　00310306000000　　　　000000　　　　　　　　　　　　　　　　　　　　　　　　　　　　　　　　　　　　　　　　　　　　　　　　　　　　　　　　　　　　　　　　　　　　　　　　　　　　　　　　　　　　　　　　　　　　605000000000000000パートン　　　　00       00001000559         0000000000000000000000000000000000000000000000000000CAPTAIN SWEET                       0000000000　　　　　　　　　　　　　　　　　　0000000000　　　　　　　　　　　　　　　　　　0000000000000000000000
SEB2012092320120429G00000030012006190007リトルブリッジ　　　　　　　　　　　00310306000000　　　　000000　　　　　　　　　　　　　　　　　　　　　　　　　　　　　　　　　　　　　　　　　　　　　　　　　　　　　　　　　　　　　　　　　　　　　　　　　　　　　　　　　　　　　　　　　　　　560000000000000000パートン　　　　00       00001001091         0000000000000000000000000000000000000000000000000000LEADING CITY                        0000000000　　　　　　　　　　　　　　　　　　0000000000　　　　　　　　　　　　　　　　　　0000000000000000000000
SEB2012092320120520M00000090022005190012キャプテンオブヴィアス　　　　　　　00310707000000　　　　000000　　　　　　　　　　　　　　　　　　　　　　　　　　　　　　　　　　　　　　　　　　　　　　　　　　　　　　　　　　　　　　　　　　　　　　　　　　　　　　　　　　　　　　　　　　　　570000000000000000シャヴェ　　　　00       00004001113         0000000000000000000000000000000000000000000000000000ATO                                 0000000000　　　　　　　　　　　　　　　　　　0000000000　　　　　　　　　　　　　　　　　　+008000000000000000000
SEB2012092320120617M00000090012005190012キャプテンオブヴィアス　　　　　　　00310707000000　　　　000000　　　　　　　　　　　　　　　　　　　　　　　　　　　　　　　　　　　　　　　　　　　　　　　　　　　　　　　　　　　　　　　　　　　　　　　　　　　　　　　　　　　　　　　　　　　　560000000000000000フィルダ　　　　00       00001000581         0000000000000000000000000000000000000000000000000000COUP ALIGN                          0000000000　　　　　　　　　　　　　　　　　　0000000000　　　　　　　　　　　　　　　　　　0000000000000000000000
SEB2012092320120619A60000020072006190007リトルブリッジ　　　　　　　　　　　00310306000000　　　　000000　　　　　　　　　　　　　　　　　　　　　　　　　　　　　　　　　　　　　　　　　　　　　　　　　　　　　　　　　　　　　　　　　　　　　　　　　　　　　　　　　　　　　　　　　　　　590000000000000000パートン　　　　00       00001000596         0000000000000000000000000000000000000000000000000000BATED BREATH                        0000000000　　　　　　　　　　　　　　　　　　0000000000　　　　　　　　　　　　　　　　　　0000000000000000000000
SEB2012092320120624M00000100012005190012キャプテンオブヴィアス　　　　　　　00310707000000　　　　000000　　　　　　　　　　　　　　　　　　　　　　　　　　　　　　　　　　　　　　　　　　　　　　　　　　　　　　　　　　　　　　　　　　　　　　　　　　　　　　　　　　　　　　　　　　　　560000000000000000フィルダ　　　　00       00004001233         0000000000000000000000000000000000000000000000000000RED BEARD                           0000000000　　　　　　　　　　　　　　　　　　0000000000　　　　　　　　　　　　　　　　　　+004000000000000000000
SEB2012092320120715M00000070012005190012キャプテンオブヴィアス　　　　　　　00310707000000　　　　000000　　　　　　　　　　　　　　　　　　　　　　　　　　　　　　　　　　　　　　　　　　　　　　　　　　　　　　　　　　　　　　　　　　　　　　　　　　　　　　　　　　　　　　　　　　　　590000000000000000シャヴェ　　　　00       00003001109         0000000000000000000000000000000000000000000000000000SUPER EASY                          0000000000　　　　　　　　　　　　　　　　　　0000000000　　　　　　　　　　　　　　　　　　+010000000000000000000
SEB2012092320120805M00000100012005190012キャプテンオブヴィアス　　　　　　　00310707000000　　　　000000　　　　　　　　　　　　　　　　　　　　　　　　　　　　　　　　　　　　　　　　　　　　　　　　　　　　　　　　　　　　　　　　　　　　　　　　　　　　　　　　　　　　　　　　　　　　550000000000000000シー　　　　　　00       00003001052         0000000000000000000000000000000000000000000000000000YIN XIN                             0000000000　　　　　　　　　　　　　　　　　　0000000000　　　　　　　　　　　　　　　　　　+003000000000000000000
SEB2012092720120902M00000100012005190012キャプテンオブヴィアス　　　　　　　00310707000000　　　　000000　　　　　　　　　　　　　　　　　　　　　　　　　　　　　　　　　　　　　　　　　　　　　　　　　　　　　　　　　　　　　　　　　　　　　　　　　　　　　　　　　　　　　　　　　　　　580000000000000000シャヴェ　　　　00559 99900002001225 12      0000000000000000000000000000000000000000000000000000SUPER EASY                          0000000000　　　　　　　　　　　　　　　　　　0000000000　　　　　　　　　　　　　　　　　　+001000000000000000000
SEB2012092420120916A80000030010000000000FIORENTE                            00110004000000スタウト000000　　　　　　　　　　　　　　　　　　　　　　　　　　　　　　　　　　　　　　　　　　　　　　　　　　　　　　　　　　　　　　　　　　　　　　　　　　　　　　　　　　　　　　　　　　　　580000000000000000ファロン　　　　00       000040000006        0000000000000000000000000000000000000000002008102636オルフェーヴル　　　　　　　　　　　0000000000　　　　　　　　　　　　　　　　　　0000000000　　　　　　　　　　　　　　　　　　0000000000000000000000
SEB2012092420120916A80000030020000000000MEANDRE                             00110004000000ファーブ000000　　　　　　　　　　　　　　　　　　　　　　　　　　　　　　　　　　　　　　　　　　　　　　　　　　　　　　　　　　　　　　　　　　　　　　　　　　　　　　　　　　　　　　　　　　　　580000000000000000ギュイヨ　　　　00       000020000001        0000000000000000000000000000000000000000002008102636オルフェーヴル　　　　　　　　　　　0000000000　　　　　　　　　　　　　　　　　　0000000000　　　　　　　　　　　　　　　　　　0000000000000000000000
SEB2012092420120916A80000030042008102636オルフェーヴル　　　　　　　　　　　00110104201071池江泰寿226800サンデーレーシング　　　　　　　　　　　　　　　　　　　　　　　黒，赤十字襷，袖黄縦縞　　　　　　　　　　　　　　　　　　　　　　　　　　　　　　　　　　　　　　　　　　　　　　　　　580000000000000000スミヨン　　　　00       00101002342         0000000000000000000000000000000000000000000000000000MEANDRE                             0000000000　　　　　　　　　　　　　　　　　　0000000000　　　　　　　　　　　　　　　　　　0000000000000000000000
SEB2012092420120916A80000030052004102742アヴェンティーノ　　　　　　　　　　00110308201071池江泰寿151006吉田　和子　　　　　　　　　　　　　　　　　　　　　　　　　　　黄，黒縦縞，赤袖黄一本輪　　　　　　　　　　　　　　　　　　　　　　　　　　　　　　　　　　　　　　　　　　　　　　　　580000000000000000クラスト　　　　00       00505000000312      0000000000000000000000000000000000000000002008102636オルフェーヴル　　　　　　　　　　　0000000000　　　　　　　　　　　　　　　　　　0000000000　　　　　　　　　　　　　　　　　　0000000000000000000000
SEB2012102520121006A40000030010000000000MR. COMMONS                         00110004000000シレフス000000　　　　　　　　　　　　　　　　　　　　　　　　　　　　　　　　　　　　　　　　　　　　　　　　　　　　　　　　　　　　　　　　　　　　　　　　　　　　　　　　　　　　　　　　　　　　550000000000000000ブラン　　　　　00       00003000000 12      0000000000000000000000000000000000000000000000000000OBVIOUSLY                           0000000000　　　　　　　　　　　　　　　　　　0000000000　　　　　　　　　　　　　　　　　　0000000000000000000000
SEB2012102520121006A40000030022007104788トレイルブレイザー　　　　　　　　　00110305201071池江泰寿948006前田　幸治　　　　　　　　　　　　　　　　　　　　　　　　　　　水色，赤十字襷，赤袖水色一本輪　　　　　　　　　　　　　　　　　　　　　　　　　　　　　　　　　　　　　　　　　　　　　550000000066600000武豊　　　　　　00       00202000000 12      0000000000000000000000000000000000000000000000000000OBVIOUSLY                           0000000000　　　　　　　　　　　　　　　　　　0000000000　　　　　　　　　　　　　　　　　　0000000000000000000000
SEB2012102520121006A40000030030000000000OBVIOUSLY                           00310004000000ミッチェ000000　　　　　　　　　　　　　　　　　　　　　　　　　　　　　　　　　　　　　　　　　　　　　　　　　　　　　　　　　　　　　　　　　　　　　　　　　　　　　　　　　　　　　　　　　　　　560000000000000000タラモ　　　　　00       00001001319         0000000000000000000000000000000000000000002007104788トレイルブレイザー　　　　　　　　　0000000000　　　　　　　　　　　　　　　　　　0000000000　　　　　　　　　　　　　　　　　　0000000000000000000000
SEB2012102520121006A40000030040000000000KETTLE CORN                         00110005000000サドラー000000　　　　　　　　　　　　　　　　　　　　　　　　　　　　　　　　　　　　　　　　　　　　　　　　　　　　　　　　　　　　　　　　　　　　　　　　　　　　　　　　　　　　　　　　　　　　540000000000000000ゴメス　　　　　00       00004000000512      0000000000000000000000000000000000000000000000000000OBVIOUSLY                           0000000000　　　　　　　　　　　　　　　　　　0000000000　　　　　　　　　　　　　　　　　　0000000000000000000000
SEB2012102520121006A40000030050000000000MIDNIGHT INTERLUDE                  00110004000000バファー000000　　　　　　　　　　　　　　　　　　　　　　　　　　　　　　　　　　　　　　　　　　　　　　　　　　　　　　　　　　　　　　　　　　　　　　　　　　　　　　　　　　　　　　　　　　　　540000000000000000ガルシア　　　　00       00005000000414      0000000000000000000000000000000000000000000000000000OBVIOUSLY                           0000000000　　　　　　　　　　　　　　　　　　0000000000　　　　　　　　　　　　　　　　　　0000000000000000000000
SEB2012111820120301C70000060052006190008ジャッカルベリー　　　　　　　　　　00110306000000　　　　000000　　　　　　　　　　　　　　　　　　　　　　　　　　　　　　　　　　　　　　　　　　　　　　　　　　　　　　　　　　　　　　　　　　　　　　　　　　　　　　　　　　　　　　　　　　　　580000000000000000ムーア　　　　　00       00003003017         0000000000000000000000000000000000000000000000000000FOX HUNT                            0000000000　　　　　　　　　　　　　　　　　　0000000000　　　　　　　　　　　　　　　　　　+007000000000000000000
SEB2012111820120331C70000080072006190008ジャッカルベリー　　　　　　　　　　00110306000000　　　　000000　　　　　　　　　　　　　　　　　　　　　　　　　　　　　　　　　　　　　　　　　　　　　　　　　　　　　　　　　　　　　　　　　　　　　　　　　　　　　　　　　　　　　　　　　　　　570000000000000000ムーア　　　　　00       00003002320         0000000000000000000000000000000000000000002006190004シリュスデゼーグル　　　　　　　　　0000000000　　　　　　　　　　　　　　　　　　0000000000　　　　　　　　　　　　　　　　　　+007000000000000000000
SEB2012111820120419A80000050102008190005ソレミア　　　　　　　　　　　　　　00210304000000　　　　000000　　　　　　　　　　　　　　　　　　　　　　　　　　　　　　　　　　　　　　　　　　　　　　　　　　　　　　　　　　　　　　　　　　　　　　　　　　　　　　　　　　　　　　　　　　　　560000000000000000ペリエ　　　　　00       00001002383         0000000000000000000000000000000000000000000000000000GRIRAZ                              0000000000　　　　　　　　　　　　　　　　　　0000000000　　　　　　　　　　　　　　　　　　0000000000000000000000
SEB2012111820120502A60000030052006190009スリプトラ　　　　　　　　　　　　　00110306000000　　　　000000　　　　　　　　　　　　　　　　　　　　　　　　　　　　　　　　　　　　　　　　　　　　　　　　　　　　　　　　　　　　　　　　　　　　　　　　　　　　　　　　　　　　　　　　　　　　570000000000000000カラン　　　　　00       00001001360         0000000000000000000000000000000000000000000000000000SAAMIDD                             0000000000　　　　　　　　　　　　　　　　　　0000000000　　　　　　　　　　　　　　　　　　0000000000000000000000
SEB2012111820120502A60000040032006190010レッドカドー　　　　　　　　　　　　00310106000000　　　　000000　　　　　　　　　　　　　　　　　　　　　　　　　　　　　　　　　　　　　　　　　　　　　　　　　　　　　　　　　　　　　　　　　　　　　　　　　　　　　　　　　　　　　　　　　　　　575000000000000000ムーア　　　　　00       00002003217112      0000000000000000000000000000000000000000000000000000COLOUR VISION                       0000000000　　　　　　　　　　　　　　　　　　0000000000　　　　　　　　　　　　　　　　　　+002000000000000000000
SEB2012111820120508A80000060072008190005ソレミア　　　　　　　　　　　　　　00210304000000　　　　000000　　　　　　　　　　　　　　　　　　　　　　　　　　　　　　　　　　　　　　　　　　　　　　　　　　　　　　　　　　　　　　　　　　　　　　　　　　　　　　　　　　　　　　　　　　　　545000000000000000ペリエ　　　　　00       00302002457A  3     0000000000000000000000000000000000000000000000000000ALLIED POWERS                       0000000000　　　　　　　　　　　　　　　　　　0000000000　　　　　　　　　　　　　　　　　　+006000000000000000000
SEB2012111820120513C00000030032006190009スリプトラ　　　　　　　　　　　　　00110306000000　　　　000000　　　　　　　　　　　　　　　　　　　　　　　　　　　　　　　　　　　　　　　　　　　　　　　　　　　　　　　　　　　　　　　　　　　　　　　　　　　　　　　　　　　　　　　　　　　　580000000000000000カラン　　　　　00       00006002031         0000000000000000000000000000000000000000000000000000CRACKERJACK KING                    0000000000　　　　　　　　　　　　　　　　　　0000000000　　　　　　　　　　　　　　　　　　+018000000000000000000
SEB2012111820120518A60000030042006190010レッドカドー　　　　　　　　　　　　00310106000000　　　　000000　　　　　　　　　　　　　　　　　　　　　　　　　　　　　　　　　　　　　　　　　　　　　　　　　　　　　　　　　　　　　　　　　　　　　　　　　　　　　　　　　　　　　　　　　　　　570000000000000000マクラフ　　　　00       00001003028         0000000000000000000000000000000000000000000000000000GLEN'S DIAMOND                      0000000000　　　　　　　　　　　　　　　　　　0000000000　　　　　　　　　　　　　　　　　　0000000000000000000000
SEB2012111820120519A60000050022007190007マウントアトス　　　　　　　　　　　00310305000000　　　　000000　　　　　　　　　　　　　　　　　　　　　　　　　　　　　　　　　　　　　　　　　　　　　　　　　　　　　　　　　　　　　　　　　　　　　　　　　　　　　　　　　　　　　　　　　　　　615000000000000000スペンサ　　　　00       00001002570         0000000000000000000000000000000000000000000000000000HARLESTONE TIMES                    0000000000　　　　　　　　　　　　　　　　　　0000000000　　　　　　　　　　　　　　　　　　0000000000000000000000
SEB2012111820120528A80000050102008190005ソレミア　　　　　　　　　　　　　　00210304000000　　　　000000　　　　　　　　　　　　　　　　　　　　　　　　　　　　　　　　　　　　　　　　　　　　　　　　　　　　　　　　　　　　　　　　　　　　　　　　　　　　　　　　　　　　　　　　　　　　550000000000000000ペリエ　　　　　00       00001002117         0000000000000000000000000000000000000000002008190003シャレータ　　　　　　　　　　　　　0000000000　　　　　　　　　　　　　　　　　　0000000000　　　　　　　　　　　　　　　　　　0000000000000000000000
SEB2012111820120602A60000030062006190010レッドカドー　　　　　　　　　　　　00310106000000　　　　000000　　　　　　　　　　　　　　　　　　　　　　　　　　　　　　　　　　　　　　　　　　　　　　　　　　　　　　　　　　　　　　　　　　　　　　　　　　　　　　　　　　　　　　　　　　　　570000000000000000ムーア　　　　　00       000020023535        0000000000000000000000000000000000000000000000000000ST NICHOLAS ABBEY                   0000000000　　　　　　　　　　　　　　　　　　0000000000　　　　　　　　　　　　　　　　　　+008000000000000000000
SEB2012111820120620A60000030032006190009スリプトラ　　　　　　　　　　　　　00110306000000　　　　000000　　　　　　　　　　　　　　　　　　　　　　　　　　　　　　　　　　　　　　　　　　　　　　　　　　　　　　　　　　　　　　　　　　　　　　　　　　　　　　　　　　　　　　　　　　　　570000000000000000カラン　　　　　00       00005002045         0000000000000000000000000000000000000000000000000000SO YOU THINK                        0000000000　　　　　　　　　　　　　　　　　　0000000000　　　　　　　　　　　　　　　　　　+007000000000000000000
SEB2012111820120623A60000020052006190008ジャッカルベリー　　　　　　　　　　00110306000000　　　　000000　　　　　　　　　　　　　　　　　　　　　　　　　　　　　　　　　　　　　　　　　　　　　　　　　　　　　　　　　　　　　　　　　　　　　　　　　　　　　　　　　　　　　　　　　　　　570000000000000000デソウサ　　　　00       00005002310         0000000000000000000000000000000000000000000000000000SEA MOON                            0000000000　　　　　　　　　　　　　　　　　　0000000000　　　　　　　　　　　　　　　　　　+014000000000000000000
SEB2012111820120623A60000020082006190010レッドカドー　　　　　　　　　　　　00310106000000　　　　000000　　　　　　　　　　　　　　　　　　　　　　　　　　　　　　　　　　　　　　　　　　　　　　　　　　　　　　　　　　　　　　　　　　　　　　　　　　　　　　　　　　　　　　　　　　　　570000000000000000マクラフ　　　　00       00003002303         0000000000000000000000000000000000000000000000000000SEA MOON                            0000000000　　　　　　　　　　　　　　　　　　0000000000　　　　　　　　　　　　　　　　　　+007000000000000000000
SEB2012111820120707A60000050092006190009スリプトラ　　　　　　　　　　　　　00110306000000　　　　000000　　　　　　　　　　　　　　　　　　　　　　　　　　　　　　　　　　　　　　　　　　　　　　　　　　　　　　　　　　　　　　　　　　　　　　　　　　　　　　　　　　　　　　　　　　　　605000000000000000カラン　　　　　00       00007002099         0000000000000000000000000000000000000000000000000000NATHANIEL                           0000000000　　　　　　　　　　　　　　　　　　0000000000　　　　　　　　　　　　　　　　　　+030000000000000000000
SEB2012111820120712A60000040072006190010レッドカドー　　　　　　　　　　　　00310106000000　　　　000000　　　　　　　　　　　　　　　　　　　　　　　　　　　　　　　　　　　　　　　　　　　　　　　　　　　　　　　　　　　　　　　　　　　　　　　　　　　　　　　　　　　　　　　　　　　　595000000000000000マクラフ　　　　00       00003002344         0000000000000000000000000000000000000000000000000000FIORENTE                            0000000000　　　　　　　　　　　　　　　　　　0000000000　　　　　　　　　　　　　　　　　　+007000000000000000000
SEB2012111820120714A60000020012007190007マウントアトス　　　　　　　　　　　00310305000000　　　　000000　　　　　　　　　　　　　　　　　　　　　　　　　　　　　　　　　　　　　　　　　　　　　　　　　　　　　　　　　　　　　　　　　　　　　　　　　　　　　　　　　　　　　　　　　　　　635000000000000000ファロン　　　　00       00001003021         0000000000000000000000000000000000000000000000000000HIGH JINX                           0000000000　　　　　　　　　　　　　　　　　　0000000000　　　　　　　　　　　　　　　　　　0000000000000000000000
SEB2012111820120728A60000030042006190009スリプトラ　　　　　　　　　　　　　00110306000000　　　　000000　　　　　　　　　　　　　　　　　　　　　　　　　　　　　　　　　　　　　　　　　　　　　　　　　　　　　　　　　　　　　　　　　　　　　　　　　　　　　　　　　　　　　　　　　　　　580000000000000000カラン　　　　　00       00001002057         0000000000000000000000000000000000000000000000000000AFSARE                              0000000000　　　　　　　　　　　　　　　　　　0000000000　　　　　　　　　　　　　　　　　　0000000000000000000000
SEB2012111820120811A80000040012008190005ソレミア　　　　　　　　　　　　　　00210304000000　　　　000000　　　　　　　　　　　　　　　　　　　　　　　　　　　　　　　　　　　　　　　　　　　　　　　　　　　　　　　　　　　　　　　　　　　　　　　　　　　　　　　　　　　　　　　　　　　　610000000000000000ペリエ　　　　　00       00004002428         0000000000000000000000000000000000000000000000000000LA POMME D'AMOUR                    0000000000　　　　　　　　　　　　　　　　　　0000000000　　　　　　　　　　　　　　　　　　+006000000000000000000
SEB2012111820120818A40000070052006190008ジャッカルベリー　　　　　　　　　　00110306000000　　　　000000　　　　　　　　　　　　　　　　　　　　　　　　　　　　　　　　　　　　　　　　　　　　　　　　　　　　　　　　　　　　　　　　　　　　　　　　　　　　　　　　　　　　　　　　　　　　540000000000000000オドノヒ　　　　00       00001002490         0000000000000000000000000000000000000000000000000000IOYA BIGTIME                        0000000000　　　　　　　　　　　　　　　　　　0000000000　　　　　　　　　　　　　　　　　　0000000000000000000000
SEB2012111820120818A60000030072007190007マウントアトス　　　　　　　　　　　00310305000000　　　　000000　　　　　　　　　　　　　　　　　　　　　　　　　　　　　　　　　　　　　　　　　　　　　　　　　　　　　　　　　　　　　　　　　　　　　　　　　　　　　　　　　　　　　　　　　　　　590000000000000000ムーア　　　　　00       00001002492         0000000000000000000000000000000000000000000000000000BROWN PANTHER                       0000000000　　　　　　　　　　　　　　　　　　0000000000　　　　　　　　　　　　　　　　　　0000000000000000000000
SEB2012111820120822A60000040022006190009スリプトラ　　　　　　　　　　　　　00110306000000　　　　000000　　　　　　　　　　　　　　　　　　　　　　　　　　　　　　　　　　　　　　　　　　　　　　　　　　　　　　　　　　　　　　　　　　　　　　　　　　　　　　　　　　　　　　　　　　　　595000000000000000カラン　　　　　00       00006002089         0000000000000000000000000000000000000000000000000000FRANKEL                             0000000000　　　　　　　　　　　　　　　　　　0000000000　　　　　　　　　　　　　　　　　　+024000000000000000000
SEB2012111820120916A80000060052008190005ソレミア　　　　　　　　　　　　　　00210304000000　　　　000000　　　　　　　　　　　　　　　　　　　　　　　　　　　　　　　　　　　　　　　　　　　　　　　　　　　　　　　　　　　　　　　　　　　　　　　　　　　　　　　　　　　　　　　　　　　　580000000000000000スミヨン　　　　00       00003002294         0000000000000000000000000000000000000000002008190003シャレータ　　　　　　　　　　　　　0000000000　　　　　　　　　　　　　　　　　　0000000000　　　　　　　　　　　　　　　　　　+004000000000000000000
SEB2012111820121007A80000060010000000000SEA MOON                            00110004000000スタウト000000　　　　　　　　　　　　　　　　　　　　　　　　　　　　　　　　　　　　　　　　　　　　　　　　　　　　　　　　　　　　　　　　　　　　　　　　　　　　　　　　　　　　　　　　　　　　595000000000000000ムーア　　　　　00       00008000000H        0000000000000000000000000000000000000000002008190005ソレミア　　　　　　　　　　　　　　0000000000　　　　　　　　　　　　　　　　　　0000000000　　　　　　　　　　　　　　　　　　0000000000000000000000
SEB2012111820121007A80000060020000000000ST NICHOLAS ABBEY                   00110005000000オブライ000000　　　　　　　　　　　　　　　　　　　　　　　　　　　　　　　　　　　　　　　　　　　　　　　　　　　　　　　　　　　　　　　　　　　　　　　　　　　　　　　　　　　　　　　　　　　　595000000000000000オブライ　　　　00       00011000000K        0000000000000000000000000000000000000000002008190005ソレミア　　　　　　　　　　　　　　0000000000　　　　　　　　　　　　　　　　　　0000000000　　　　　　　　　　　　　　　　　　0000000000000000000000
SEB2012111820121007A80000060030000000000MEANDRE                             00110004000000ファーブ000000　　　　　　　　　　　　　　　　　　　　　　　　　　　　　　　　　　　　　　　　　　　　　　　　　　　　　　　　　　　　　　　　　　　　　　　　　　　　　　　　　　　　　　　　　　　　595000000000000000ギュイヨ　　　　00       00012000000212      0000000000000000000000000000000000000000002008190005ソレミア　　　　　　　　　　　　　　0000000000　　　　　　　　　　　　　　　　　　0000000000　　　　　　　　　　　　　　　　　　0000000000000000000000
SEB2012111820121007A80000060040000000000MIKHAIL GLINKA                      00110005000000シャヴイ000000　　　　　　　　　　　　　　　　　　　　　　　　　　　　　　　　　　　　　　　　　　　　　　　　　　　　　　　　　　　　　　　　　　　　　　　　　　　　　　　　　　　　　　　　　　　　595000000000000000デムーロ　　　　00       00014000000T        0000000000000000000000000000000000000000002008190005ソレミア　　　　　　　　　　　　　　0000000000　　　　　　　　　　　　　　　　　　0000000000　　　　　　　　　　　　　　　　　　0000000000000000000000
SEB2012111820121007A80000060050000000000ROBIN HOOD                          00110004000000オブライ000000　　　　　　　　　　　　　　　　　　　　　　　　　　　　　　　　　　　　　　　　　　　　　　　　　　　　　　　　　　　　　　　　　　　　　　　　　　　　　　　　　　　　　　　　　　　　595000000000000000ヘファナ　　　　00       00018000000T        0000000000000000000000000000000000000000002008190005ソレミア　　　　　　　　　　　　　　0000000000　　　　　　　　　　　　　　　　　　0000000000　　　　　　　　　　　　　　　　　　0000000000000000000000
SEB2012111820121007A80000060062008102636オルフェーヴル　　　　　　　　　　　00110104201071池江泰寿226800サンデーレーシング　　　　　　　　　　　　　　　　　　　　　　　黒，赤十字襷，袖黄縦縞　　　　　　　　　　　　　　　　　　　　　　　　　　　　　　　　　　　　　　　　　　　　　　　　　595000000000000000スミヨン　　　　00       00202000000K        0000000000000000000000000000000000000000002008190005ソレミア　　　　　　　　　　　　　　0000000000　　　　　　　　　　　　　　　　　　0000000000　　　　　　　　　　　　　　　　　　0000000000000000000000
SEB2012111820121007A80000060072004102742アヴェンティーノ　　　　　　　　　　00110308201071池江泰寿151006吉田　和子　　　　　　　　　　　　　　　　　　　　　　　　　　　黄，黒縦縞，赤袖黄一本輪　　　　　　　　　　　　　　　　　　　　　　　　　　　　　　　　　　　　　　　　　　　　　　　　595000000000000000クラスト　　　　00       01717000000T        0000000000000000000000000000000000000000002008190005ソレミア　　　　　　　　　　　　　　0000000000　　　　　　　　　　　　　　　　　　0000000000　　　　　　　　　　　　　　　　　　0000000000000000000000
SEB2012111820121007A80000060082008190003シャレータ　　　　　　　　　　　　　00210304000000ドゥロワ000000　　　　　　　　　　　　　　　　　　　　　　　　　　　　　　　　　　　　　　　　　　　　　　　　　　　　　　　　　　　　　　　　　　　　　　　　　　　　　　　　　　　　　　　　　　　　580000000000000000ルメール　　　　00       00009000000A        0000000000000000000000000000000000000000002008190005ソレミア　　　　　　　　　　　　　　0000000000　　　　　　　　　　　　　　　　　　0000000000　　　　　　　　　　　　　　　　　　0000000000000000000000
SEB2012111820121007A80000060090000000000HAYA LANDA                          00210004000000オードン000000　　　　　　　　　　　　　　　　　　　　　　　　　　　　　　　　　　　　　　　　　　　　　　　　　　　　　　　　　　　　　　　　　　　　　　　　　　　　　　　　　　　　　　　　　　　　580000000000000000ブロンデ　　　　00       000040000001        0000000000000000000000000000000000000000002008190005ソレミア　　　　　　　　　　　　　　0000000000　　　　　　　　　　　　　　　　　　0000000000　　　　　　　　　　　　　　　　　　0000000000000000000000
SEB2012111820121007A80000060102008190005ソレミア　　　　　　　　　　　　　　00210304000000ラフォン000000　　　　　　　　　　　　　　　　　　　　　　　　　　　　　　　　　　　　　　　　　　　　　　　　　　　　　　　　　　　　　　　　　　　　　　　　　　　　　　　　　　　　　　　　　　　　580000000000000000ペリエ　　　　　00       00001002376         0000000000000000000000000000000000000000002008102636オルフェーヴル　　　　　　　　　　　0000000000　　　　　　　　　　　　　　　　　　0000000000　　　　　　　　　　　　　　　　　　0000000000000000000000
SEB2012111820121007A80000060110000000000BAYRIR                              00110003000000ドゥロワ000000　　　　　　　　　　　　　　　　　　　　　　　　　　　　　　　　　　　　　　　　　　　　　　　　　　　　　　　　　　　　　　　　　　　　　　　　　　　　　　　　　　　　　　　　　　　　560000000000000000モッセ　　　　　00       00010000000212      0000000000000000000000000000000000000000002008190005ソレミア　　　　　　　　　　　　　　0000000000　　　　　　　　　　　　　　　　　　0000000000　　　　　　　　　　　　　　　　　　0000000000000000000000
SEB2012111820121007A80000060120000000000KESAMPOUR                           00110003000000デルザン000000　　　　　　　　　　　　　　　　　　　　　　　　　　　　　　　　　　　　　　　　　　　　　　　　　　　　　　　　　　　　　　　　　　　　　　　　　　　　　　　　　　　　　　　　　　　　560000000000000000ブノワ　　　　　00       000130000002        0000000000000000000000000000000000000000002008190005ソレミア　　　　　　　　　　　　　　0000000000　　　　　　　　　　　　　　　　　　0000000000　　　　　　　　　　　　　　　　　　0000000000000000000000
SEB2012111820121007A80000060130000000000CAMELOT                             00110003000000オブライ000000　　　　　　　　　　　　　　　　　　　　　　　　　　　　　　　　　　　　　　　　　　　　　　　　　　　　　　　　　　　　　　　　　　　　　　　　　　　　　　　　　　　　　　　　　　　　560000000000000000デットー　　　　00       000070000001        0000000000000000000000000000000000000000002008190005ソレミア　　　　　　　　　　　　　　0000000000　　　　　　　　　　　　　　　　　　0000000000　　　　　　　　　　　　　　　　　　0000000000000000000000
SEB2012111820121007A80000060140000000000MASTERSTROKE                        00110003000000ファーブ000000　　　　　　　　　　　　　　　　　　　　　　　　　　　　　　　　　　　　　　　　　　　　　　　　　　　　　　　　　　　　　　　　　　　　　　　　　　　　　　　　　　　　　　　　　　　　560000000000000000バルザロ　　　　00       000030000007        0000000000000000000000000000000000000000002008190005ソレミア　　　　　　　　　　　　　　0000000000　　　　　　　　　　　　　　　　　　0000000000　　　　　　　　　　　　　　　　　　0000000000000000000000
SEB2012111820121007A80000060150000000000ERNEST HEMINGWAY                    00110003000000オブライ000000　　　　　　　　　　　　　　　　　　　　　　　　　　　　　　　　　　　　　　　　　　　　　　　　　　　　　　　　　　　　　　　　　　　　　　　　　　　　　　　　　　　　　　　　　　　　560000000000000000オドノヒ　　　　00       000160000004        0000000000000000000000000000000000000000002008190005ソレミア　　　　　　　　　　　　　　0000000000　　　　　　　　　　　　　　　　　　0000000000　　　　　　　　　　　　　　　　　　0000000000000000000000
SEB2012111820121007A80000060160000000000SAONOIS                             00110003000000ゴーヴァ000000　　　　　　　　　　　　　　　　　　　　　　　　　　　　　　　　　　　　　　　　　　　　　　　　　　　　　　　　　　　　　　　　　　　　　　　　　　　　　　　　　　　　　　　　　　　　560000000000000000アムラン　　　　00       000150000007        0000000000000000000000000000000000000000002008190005ソレミア　　　　　　　　　　　　　　0000000000　　　　　　　　　　　　　　　　　　0000000000　　　　　　　　　　　　　　　　　　0000000000000000000000
SEB2012111820121007A80000060170000000000YELLOW AND GREEN                    00210003000000クレメン000000　　　　　　　　　　　　　　　　　　　　　　　　　　　　　　　　　　　　　　　　　　　　　　　　　　　　　　　　　　　　　　　　　　　　　　　　　　　　　　　　　　　　　　　　　　　　545000000000000000テュリエ　　　　00       00005000000 12      0000000000000000000000000000000000000000002008190005ソレミア　　　　　　　　　　　　　　0000000000　　　　　　　　　　　　　　　　　　0000000000　　　　　　　　　　　　　　　　　　0000000000000000000000
SEB2012111820121007A80000060180000000000GREAT HEAVENS                       00210003000000ゴスデン000000　　　　　　　　　　　　　　　　　　　　　　　　　　　　　　　　　　　　　　　　　　　　　　　　　　　　　　　　　　　　　　　　　　　　　　　　　　　　　　　　　　　　　　　　　　　　545000000000000000ビュイッ　　　　00       00006000000212      0000000000000000000000000000000000000000002008190005ソレミア　　　　　　　　　　　　　　0000000000　　　　　　　　　　　　　　　　　　0000000000　　　　　　　　　　　　　　　　　　0000000000000000000000
SEB2012111220121103A40000090010000000000POINT OF ENTRY                      00110004000000マゴーヒ000000　　　　　　　　　　　　　　　　　　　　　　　　　　　　　　　　　　　　　　　　　　　　　　　　　　　　　　　　　　　　　　　　　　　　　　　　　　　　　　　　　　　　　　　　　　　　570000000000000000ヴェラス　　　　00       00002000000 12      0000000000000000000000000000000000000000000000000000LITTLE MIKE                         0000000000　　　　　　　　　　　　　　　　　　0000000000　　　　　　　　　　　　　　　　　　0000000000000000000000
SEB2012111220121103A40000090020000000000TURBO COMPRESSOR                    00110004000000プレッチ000000　　　　　　　　　　　　　　　　　　　　　　　　　　　　　　　　　　　　　　　　　　　　　　　　　　　　　　　　　　　　　　　　　　　　　　　　　　　　　　　　　　　　　　　　　　　　570000000000000000ブラーヴ　　　　00       00012000000314      0000000000000000000000000000000000000000000000000000LITTLE MIKE                         0000000000　　　　　　　　　　　　　　　　　　0000000000　　　　　　　　　　　　　　　　　　0000000000000000000000
SEB2012111220121103A40000090030000000000ST NICHOLAS ABBEY                   00110005000000オブライ000000　　　　　　　　　　　　　　　　　　　　　　　　　　　　　　　　　　　　　　　　　　　　　　　　　　　　　　　　　　　　　　　　　　　　　　　　　　　　　　　　　　　　　　　　　　　　570000000000000000オブライ　　　　00       00003000000 34      0000000000000000000000000000000000000000000000000000LITTLE MIKE                         0000000000　　　　　　　　　　　　　　　　　　0000000000　　　　　　　　　　　　　　　　　　0000000000000000000000
SEB2012111220121103A40000090040000000000TREASURE BEACH                      00110004000000オブライ000000　　　　　　　　　　　　　　　　　　　　　　　　　　　　　　　　　　　　　　　　　　　　　　　　　　　　　　　　　　　　　　　　　　　　　　　　　　　　　　　　　　　　　　　　　　　　570000000000000000スペンサ　　　　00       00010000000 12      0000000000000000000000000000000000000000000000000000LITTLE MIKE                         0000000000　　　　　　　　　　　　　　　　　　0000000000　　　　　　　　　　　　　　　　　　0000000000000000000000
SEB2012111220121103A40000090052008190003シャレータ　　　　　　　　　　　　　00210304000000ドゥロワ000000　　　　　　　　　　　　　　　　　　　　　　　　　　　　　　　　　　　　　　　　　　　　　　　　　　　　　　　　　　　　　　　　　　　　　　　　　　　　　　　　　　　　　　　　　　　　560000000000000000ルメール　　　　00       00005000000K        0000000000000000000000000000000000000000000000000000LITTLE MIKE                         0000000000　　　　　　　　　　　　　　　　　　0000000000　　　　　　　　　　　　　　　　　　0000000000000000000000
SEB2012111220121103A40000090060000000000COGITO                              00110003000000オニール000000　　　　　　　　　　　　　　　　　　　　　　　　　　　　　　　　　　　　　　　　　　　　　　　　　　　　　　　　　　　　　　　　　　　　　　　　　　　　　　　　　　　　　　　　　　　　555000000000000000デットー　　　　00       00007000000A        0000000000000000000000000000000000000000000000000000LITTLE MIKE                         0000000000　　　　　　　　　　　　　　　　　　0000000000　　　　　　　　　　　　　　　　　　0000000000000000000000
SEB2012111220121103A40000090070000000000LITTLE MIKE                         00310005000000ローマン000000　　　　　　　　　　　　　　　　　　　　　　　　　　　　　　　　　　　　　　　　　　　　　　　　　　　　　　　　　　　　　　　　　　　　　　　　　　　　　　　　　　　　　　　　　　　　570000000000000000ドミンゲ　　　　00       00001002228         0000000000000000000000000000000000000000000000000000POINT OF ENTRY                      0000000000　　　　　　　　　　　　　　　　　　0000000000　　　　　　　　　　　　　　　　　　0000000000000000000000
SEB2012111220121103A40000090080000000000KINDERGARDEN KID                    00310005000000ミラー　000000　　　　　　　　　　　　　　　　　　　　　　　　　　　　　　　　　　　　　　　　　　　　　　　　　　　　　　　　　　　　　　　　　　　　　　　　　　　　　　　　　　　　　　　　　　　　570000000000000000ルパルー　　　　00       00006000000214      0000000000000000000000000000000000000000000000000000LITTLE MIKE                         0000000000　　　　　　　　　　　　　　　　　　0000000000　　　　　　　　　　　　　　　　　　0000000000000000000000
SEB2012111220121103A40000090090000000000DULLAHAN                            00110003000000ローマン000000　　　　　　　　　　　　　　　　　　　　　　　　　　　　　　　　　　　　　　　　　　　　　　　　　　　　　　　　　　　　　　　　　　　　　　　　　　　　　　　　　　　　　　　　　　　　555000000000000000ロザリオ　　　　00       00009000000112      0000000000000000000000000000000000000000000000000000LITTLE MIKE                         0000000000　　　　　　　　　　　　　　　　　　0000000000　　　　　　　　　　　　　　　　　　0000000000000000000000
SEB2012111220121103A40000090100000000000OPTIMIZER                           00110003000000ルーカス000000　　　　　　　　　　　　　　　　　　　　　　　　　　　　　　　　　　　　　　　　　　　　　　　　　　　　　　　　　　　　　　　　　　　　　　　　　　　　　　　　　　　　　　　　　　　　555000000000000000コート　　　　　00       00011000000 12      0000000000000000000000000000000000000000000000000000LITTLE MIKE                         0000000000　　　　　　　　　　　　　　　　　　0000000000　　　　　　　　　　　　　　　　　　0000000000000000000000
SEB2012111220121103A40000090110000000000SLIM SHADEY                         00310004000000キャラハ000000　　　　　　　　　　　　　　　　　　　　　　　　　　　　　　　　　　　　　　　　　　　　　　　　　　　　　　　　　　　　　　　　　　　　　　　　　　　　　　　　　　　　　　　　　　　　570000000000000000ゴメス　　　　　00       00008000000 34      0000000000000000000000000000000000000000000000000000LITTLE MIKE                         0000000000　　　　　　　　　　　　　　　　　　0000000000　　　　　　　　　　　　　　　　　　0000000000000000000000
SEB2012111220121103A40000090122007104788トレイルブレイザー　　　　　　　　　00110305201071池江泰寿948006前田　幸治　　　　　　　　　　　　　　　　　　　　　　　　　　　水色，赤十字襷，赤袖水色一本輪　　　　　　　　　　　　　　　　　　　　　　　　　　　　　　　　　　　　　　　　　　　　　570000000066600000武豊　　　　　　00       004040000001        0000000000000000000000000000000000000000000000000000LITTLE MIKE                         0000000000　　　　　　　　　　　　　　　　　　0000000000　　　　　　　　　　　　　　　　　　0000000000000000000000
SEB2012111820121106B60000070032006190008ジャッカルベリー　　　　　　　　　　00110306000000　　　　000000　　　　　　　　　　　　　　　　　　　　　　　　　　　　　　　　　　　　　　　　　　　　　　　　　　　　　　　　　　　　　　　　　　　　　　　　　　　　　　　　　　　　　　　　　　　　555000000000000000オドノヒ　　　　00       00003003208         0000000000000000000000000000000000000000000000000000GREEN MOON                          0000000000　　　　　　　　　　　　　　　　　　0000000000　　　　　　　　　　　　　　　　　　+004000000000000000000
SEB2012111820121106B60000070042006190010レッドカドー　　　　　　　　　　　　00310106000000　　　　000000　　　　　　　　　　　　　　　　　　　　　　　　　　　　　　　　　　　　　　　　　　　　　　　　　　　　　　　　　　　　　　　　　　　　　　　　　　　　　　　　　　　　　　　　　　　　555000000000000000ロッド　　　　　00       00008003214         0000000000000000000000000000000000000000000000000000GREEN MOON                          0000000000　　　　　　　　　　　　　　　　　　0000000000　　　　　　　　　　　　　　　　　　+010000000000000000000
SEB2012111820121106B60000070082007190007マウントアトス　　　　　　　　　　　00310305000000　　　　000000　　　　　　　　　　　　　　　　　　　　　　　　　　　　　　　　　　　　　　　　　　　　　　　　　　　　　　　　　　　　　　　　　　　　　　　　　　　　　　　　　　　　　　　　　　　　540000000000000000ムーア　　　　　00       00005003210         0000000000000000000000000000000000000000000000000000GREEN MOON                          0000000000　　　　　　　　　　　　　　　　　　0000000000　　　　　　　　　　　　　　　　　　+006000000000000000000
SEB2012121720121209G00000040010000000000SEA MOON                            00110004000000スタウト000000　　　　　　　　　　　　　　　　　　　　　　　　　　　　　　　　　　　　　　　　　　　　　　　　　　　　　　　　　　　　　　　　　　　　　　　　　　　　　　　　　　　　　　　　　　　　570000000000000000ムーア　　　　　00000    10000000000         0000000000000000000000000000000000000009992006190010レッドカドー　　　　　　　　　　　　0000000000　　　　　　　　　　　　　　　　　　0000000000　　　　　　　　　　　　　　　　　　9999000000000000000000
SEB2012121720121209G00000040030000000000MEANDRE                             00110004000000ファーブ000000　　　　　　　　　　　　　　　　　　　　　　　　　　　　　　　　　　　　　　　　　　　　　　　　　　　　　　　　　　　　　　　　　　　　　　　　　　　　　　　　　　　　　　　　　　　　570000000000000000ギュイヨ　　　　00       00003000000         0000000000000000000000000000000000000000002006190010レッドカドー　　　　　　　　　　　　0000000000　　　　　　　　　　　　　　　　　　0000000000　　　　　　　　　　　　　　　　　　0000000000000000000000
SEB2012121720121209G00000040040000000000CHINCHON                            00110007000000ラフォン000000　　　　　　　　　　　　　　　　　　　　　　　　　　　　　　　　　　　　　　　　　　　　　　　　　　　　　　　　　　　　　　　　　　　　　　　　　　　　　　　　　　　　　　　　　　　　570000000000000000ドゥルー　　　　00       00012000000         0000000000000000000000000000000000000000002006190010レッドカドー　　　　　　　　　　　　0000000000　　　　　　　　　　　　　　　　　　0000000000　　　　　　　　　　　　　　　　　　0000000000000000000000
SEB2012121720121209G00000040062006190010レッドカドー　　　　　　　　　　　　00310106000000ダンロッ000000　　　　　　　　　　　　　　　　　　　　　　　　　　　　　　　　　　　　　　　　　　　　　　　　　　　　　　　　　　　　　　　　　　　　　　　　　　　　　　　　　　　　　　　　　　　　570000000000000000モッセ　　　　　00       00001002287         0000000000000000000000000000000000000000002004107116ジャガーメイル　　　　　　　　　　　0000000000　　　　　　　　　　　　　　　　　　0000000000　　　　　　　　　　　　　　　　　　-000000000000000000000
SEB2012121720121209G00000040072007190002ダンディーノ　　　　　　　　　　　　00110505000000ファンシ000000　　　　　　　　　　　　　　　　　　　　　　　　　　　　　　　　　　　　　　　　　　　　　　　　　　　　　　　　　　　　　　　　　　　　　　　　　　　　　　　　　　　　　　　　　　　　570000000000000000クローリ　　　　00       00007000000         0000000000000000000000000000000000000000002006190010レッドカドー　　　　　　　　　　　　0000000000　　　　　　　　　　　　　　　　　　0000000000　　　　　　　　　　　　　　　　　　0000000000000000000000
SEB2012121720121209G00000040082004107116ジャガーメイル　　　　　　　　　　　00110308101070堀宣行　138007吉田　和美　　　　　　　　　　　　　　　　　　　　　　　　　　　赤，黄縦縞，袖緑二本輪　　　　　　　　　　　　　　　　　　　　　　　　　　　　　　　　　　　　　　　　　　　　　　　　　570000000000000000ホワイト　　　　00484-00200202002287A        0000000000000000000000000000000000000000002006190010レッドカドー　　　　　　　　　　　　0000000000　　　　　　　　　　　　　　　　　　0000000000　　　　　　　　　　　　　　　　　　+000000000000000000000
SEB2012121720121209G00000040090000000000LIBERATOR                           00310005000000フェラリ000000　　　　　　　　　　　　　　　　　　　　　　　　　　　　　　　　　　　　　　　　　　　　　　　　　　　　　　　　　　　　　　　　　　　　　　　　　　　　　　　　　　　　　　　　　　　　570000000000000000マーウィ　　　　00       00004000000         0000000000000000000000000000000000000000002006190010レッドカドー　　　　　　　　　　　　0000000000　　　　　　　　　　　　　　　　　　0000000000　　　　　　　　　　　　　　　　　　0000000000000000000000
SEB2012121720121209G00000040100000000000SCARLET CAMELLIA                    00310005000000シャム　000000　　　　　　　　　　　　　　　　　　　　　　　　　　　　　　　　　　　　　　　　　　　　　　　　　　　　　　　　　　　　　　　　　　　　　　　　　　　　　　　　　　　　　　　　　　　　570000000000000000パートン　　　　00       00010000000         0000000000000000000000000000000000000000002006190010レッドカドー　　　　　　　　　　　　0000000000　　　　　　　　　　　　　　　　　　0000000000　　　　　　　　　　　　　　　　　　0000000000000000000000
SEB2012121720121209G00000040112008190001ダンシングレイン　　　　　　　　　　00210104000000ハガス　000000　　　　　　　　　　　　　　　　　　　　　　　　　　　　　　　　　　　　　　　　　　　　　　　　　　　　　　　　　　　　　　　　　　　　　　　　　　　　　　　　　　　　　　　　　　　　555000000000000000ムルタ　　　　　00       00008000000         0000000000000000000000000000000000000000002006190010レッドカドー　　　　　　　　　　　　0000000000　　　　　　　　　　　　　　　　　　0000000000　　　　　　　　　　　　　　　　　　0000000000000000000000
SEB2012121720121209G00000040120000000000PAGERA                              00210004000000パンタル000000　　　　　　　　　　　　　　　　　　　　　　　　　　　　　　　　　　　　　　　　　　　　　　　　　　　　　　　　　　　　　　　　　　　　　　　　　　　　　　　　　　　　　　　　　　　　555000000000000000ペリエ　　　　　00       00011000000         0000000000000000000000000000000000000000002006190010レッドカドー　　　　　　　　　　　　0000000000　　　　　　　　　　　　　　　　　　0000000000　　　　　　　　　　　　　　　　　　0000000000000000000000
SEB2012121720121209G00000040130000000000BAYRIR                              00110003000000ドゥロワ000000　　　　　　　　　　　　　　　　　　　　　　　　　　　　　　　　　　　　　　　　　　　　　　　　　　　　　　　　　　　　　　　　　　　　　　　　　　　　　　　　　　　　　　　　　　　　550000000000000000ルメール　　　　00       00006000000         0000000000000000000000000000000000000000002006190010レッドカドー　　　　　　　　　　　　0000000000　　　　　　　　　　　　　　　　　　0000000000　　　　　　　　　　　　　　　　　　0000000000000000000000
SEB2012121720121209G00000050012007190004ラッキーナイン　　　　　　　　　　　00310305000000ファウン000000　　　　　　　　　　　　　　　　　　　　　　　　　　　　　　　　　　　　　　　　　　　　　　　　　　　　　　　　　　　　　　　　　　　　　　　　　　　　　　　　　　　　　　　　　　　　570000000000000000プレブル　　　　00       00005000000         0000000000000000000000000000000000000000002008103552ロードカナロア　　　　　　　　　　　0000000000　　　　　　　　　　　　　　　　　　0000000000　　　　　　　　　　　　　　　　　　0000000000000000000000
SEB2012121720121209G00000050020000000000SUPER EASY                          00110004000000フリード000000　　　　　　　　　　　　　　　　　　　　　　　　　　　　　　　　　　　　　　　　　　　　　　　　　　　　　　　　　　　　　　　　　　　　　　　　　　　　　　　　　　　　　　　　　　　　570000000000000000モレイラ　　　　00       00010000000         0000000000000000000000000000000000000000002008103552ロードカナロア　　　　　　　　　　　0000000000　　　　　　　　　　　　　　　　　　0000000000　　　　　　　　　　　　　　　　　　0000000000000000000000
SEB2012121720121209G00000050030000000000JOY AND FUN                         00310009000000クルーズ000000　　　　　　　　　　　　　　　　　　　　　　　　　　　　　　　　　　　　　　　　　　　　　　　　　　　　　　　　　　　　　　　　　　　　　　　　　　　　　　　　　　　　　　　　　　　　570000000000000000モッセ　　　　　00       00004000000         0000000000000000000000000000000000000000002008103552ロードカナロア　　　　　　　　　　　0000000000　　　　　　　　　　　　　　　　　　0000000000　　　　　　　　　　　　　　　　　　0000000000000000000000
SEB2012121720121209G00000050042008103552ロードカナロア　　　　　　　　　　　00110304200438安田隆行170800ロードホースクラブ　　　　　　　　　　　　　　　　　　　　　　　白，青一本輪，青袖　　　　　　　　　　　　　　　　　　　　　　　　　　　　　　　　　　　　　　　　　　　　　　　　　　　570000000520300000岩田康誠　　　　00494 00000101001085         0000000000000000000000000000000000000000000000000000CERISE CHERRY                       0000000000　　　　　　　　　　　　　　　　　　0000000000　　　　　　　　　　　　　　　　　　-003000000000000000000
SEB2012121720121209G00000050050000000000ADMIRATION                          00110005000000ムーア　000000　　　　　　　　　　　　　　　　　　　　　　　　　　　　　　　　　　　　　　　　　　　　　　　　　　　　　　　　　　　　　　　　　　　　　　　　　　　　　　　　　　　　　　　　　　　　570000000000000000カラン　　　　　00       00006000000         0000000000000000000000000000000000000000002008103552ロードカナロア　　　　　　　　　　　0000000000　　　　　　　　　　　　　　　　　　0000000000　　　　　　　　　　　　　　　　　　0000000000000000000000
SEB2012121720121209G00000050060000000000LEADING CITY                        00310006000000ムーア　000000　　　　　　　　　　　　　　　　　　　　　　　　　　　　　　　　　　　　　　　　　　　　　　　　　　　　　　　　　　　　　　　　　　　　　　　　　　　　　　　　　　　　　　　　　　　　570000000000000000チャドウ　　　　00       00011000000         0000000000000000000000000000000000000000002008103552ロードカナロア　　　　　　　　　　　0000000000　　　　　　　　　　　　　　　　　　0000000000　　　　　　　　　　　　　　　　　　0000000000000000000000
SEB2012121720121209G00000050070000000000TIME AFTER TIME                     00310005000000ムーア　000000　　　　　　　　　　　　　　　　　　　　　　　　　　　　　　　　　　　　　　　　　　　　　　　　　　　　　　　　　　　　　　　　　　　　　　　　　　　　　　　　　　　　　　　　　　　　570000000000000000ホワイト　　　　00       00012000000         0000000000000000000000000000000000000000002008103552ロードカナロア　　　　　　　　　　　0000000000　　　　　　　　　　　　　　　　　　0000000000　　　　　　　　　　　　　　　　　　0000000000000000000000
SEB2012121720121209G00000050080000000000CAPTAIN SWEET                       00310005000000ムーア　000000　　　　　　　　　　　　　　　　　　　　　　　　　　　　　　　　　　　　　　　　　　　　　　　　　　　　　　　　　　　　　　　　　　　　　　　　　　　　　　　　　　　　　　　　　　　　570000000000000000マクドナ　　　　00       00003000000         0000000000000000000000000000000000000000002008103552ロードカナロア　　　　　　　　　　　0000000000　　　　　　　　　　　　　　　　　　0000000000　　　　　　　　　　　　　　　　　　0000000000000000000000
SEB2012121720121209G00000050090000000000CERISE CHERRY                       00310007000000クルーズ000000　　　　　　　　　　　　　　　　　　　　　　　　　　　　　　　　　　　　　　　　　　　　　　　　　　　　　　　　　　　　　　　　　　　　　　　　　　　　　　　　　　　　　　　　　　　　570000000000000000フォーリ　　　　00       00002001088212      0000000000000000000000000000000000000000002008103552ロードカナロア　　　　　　　　　　　0000000000　　　　　　　　　　　　　　　　　　0000000000　　　　　　　　　　　　　　　　　　+003000000000000000000
SEB2012121720121209G00000050100000000000FLYING BLUE                         00310006000000クルーズ000000　　　　　　　　　　　　　　　　　　　　　　　　　　　　　　　　　　　　　　　　　　　　　　　　　　　　　　　　　　　　　　　　　　　　　　　　　　　　　　　　　　　　　　　　　　　　570000000000000000リスポリ　　　　00       00008000000         0000000000000000000000000000000000000000002008103552ロードカナロア　　　　　　　　　　　0000000000　　　　　　　　　　　　　　　　　　0000000000　　　　　　　　　　　　　　　　　　0000000000000000000000
SEB2012121720121209G00000050110000000000SEA SIREN                           00210004000000オシェア000000　　　　　　　　　　　　　　　　　　　　　　　　　　　　　　　　　　　　　　　　　　　　　　　　　　　　　　　　　　　　　　　　　　　　　　　　　　　　　　　　　　　　　　　　　　　　555000000000000000キャシデ　　　　00       00009000000         0000000000000000000000000000000000000000002008103552ロードカナロア　　　　　　　　　　　0000000000　　　　　　　　　　　　　　　　　　0000000000　　　　　　　　　　　　　　　　　　0000000000000000000000
SEB2012121720121209G00000050122007102807カレンチャン　　　　　　　　　　　　00210705200438安田隆行869006鈴木　隆司　　　　　　　　　　　　　　　　　　　　　　　　　　　黒，白縦縞，袖赤一本輪　　　　　　　　　　　　　　　　　　　　　　　　　　　　　　　　　　　　　　　　　　　　　　　　　555000000103200000池添謙一　　　　00486-00600707001091K        0000000000000000000000000000000000000000002008103552ロードカナロア　　　　　　　　　　　0000000000　　　　　　　　　　　　　　　　　　0000000000　　　　　　　　　　　　　　　　　　+006000000000000000000
SEB2012121720121209G00000070020000000000XTENSION                            00110005000000ムーア　000000　　　　　　　　　　　　　　　　　　　　　　　　　　　　　　　　　　　　　　　　　　　　　　　　　　　　　　　　　　　　　　　　　　　　　　　　　　　　　　　　　　　　　　　　　　　　570000000000000000マクドナ　　　　00       00007000000         0000000000000000000000000000000000000000000000000000AMBITIOUS DRAGON                    0000000000　　　　　　　　　　　　　　　　　　0000000000　　　　　　　　　　　　　　　　　　0000000000000000000000
SEB2012121720121209G00000070040000000000GORDON LORD BYRON                   00310004000000ホーガン000000　　　　　　　　　　　　　　　　　　　　　　　　　　　　　　　　　　　　　　　　　　　　　　　　　　　　　　　　　　　　　　　　　　　　　　　　　　　　　　　　　　　　　　　　　　　　570000000000000000ビュイッ　　　　00       00004000000         0000000000000000000000000000000000000000000000000000AMBITIOUS DRAGON                    0000000000　　　　　　　　　　　　　　　　　　0000000000　　　　　　　　　　　　　　　　　　0000000000000000000000
SEB2012121720121209G00000070052008102652サダムパテック　　　　　　　　　　　00110304201028西園正都096007大西　定　　　　　　　　　　　　　　　　　　　　　　　　　　　　緑，桃縦縞，白袖桃一本輪　　　　　　　　　　　　　　　　　　　　　　　　　　　　　　　　　　　　　　　　　　　　　　　　570000000066600000武豊　　　　　　00509+00300606001346K        0000000000000000000000000000000000000000000000000000AMBITIOUS DRAGON                    0000000000　　　　　　　　　　　　　　　　　　0000000000　　　　　　　　　　　　　　　　　　+005000000000000000000
SEB2012121720121209G00000070062008103388グランプリボス　　　　　　　　　　　00110304201075矢作芳人204800グランプリ　　　　　　　　　　　　　　　　　　　　　　　　　　　青，白元禄，袖白縦縞　　　　　　　　　　　　　　　　　　　　　　　　　　　　　　　　　　　　　　　　　　　　　　　　　　570000000042200000内田博幸　　　　00512-00801212001353A        0000000000000000000000000000000000000000000000000000AMBITIOUS DRAGON                    0000000000　　　　　　　　　　　　　　　　　　0000000000　　　　　　　　　　　　　　　　　　+012000000000000000000
SEB2012121720121209G00000070070000000000PURE CHAMPION                       00110005000000クルーズ000000　　　　　　　　　　　　　　　　　　　　　　　　　　　　　　　　　　　　　　　　　　　　　　　　　　　　　　　　　　　　　　　　　　　　　　　　　　　　　　　　　　　　　　　　　　　　570000000000000000チャドウ　　　　00       00008000000         0000000000000000000000000000000000000000000000000000AMBITIOUS DRAGON                    0000000000　　　　　　　　　　　　　　　　　　0000000000　　　　　　　　　　　　　　　　　　0000000000000000000000
SEB2012121720121209G00000070080000000000DON BOSCO                           00110005000000スマガ　000000　　　　　　　　　　　　　　　　　　　　　　　　　　　　　　　　　　　　　　　　　　　　　　　　　　　　　　　　　　　　　　　　　　　　　　　　　　　　　　　　　　　　　　　　　　　　570000000000000000ペリエ　　　　　00       00009000000         0000000000000000000000000000000000000000000000000000AMBITIOUS DRAGON                    0000000000　　　　　　　　　　　　　　　　　　0000000000　　　　　　　　　　　　　　　　　　0000000000000000000000
SEB2012121720121209G00000070090000000000MASTER OF HOUNDS                    00110004000000ハガス　000000　　　　　　　　　　　　　　　　　　　　　　　　　　　　　　　　　　　　　　　　　　　　　　　　　　　　　　　　　　　　　　　　　　　　　　　　　　　　　　　　　　　　　　　　　　　　570000000000000000スミヨン　　　　00       00010000000         0000000000000000000000000000000000000000000000000000AMBITIOUS DRAGON                    0000000000　　　　　　　　　　　　　　　　　　0000000000　　　　　　　　　　　　　　　　　　0000000000000000000000
SEB2012121720121209G00000070100000000000PACKING WHIZ                        00310004000000ムーア　000000　　　　　　　　　　　　　　　　　　　　　　　　　　　　　　　　　　　　　　　　　　　　　　　　　　　　　　　　　　　　　　　　　　　　　　　　　　　　　　　　　　　　　　　　　　　　570000000000000000プレブル　　　　00       00005000000         0000000000000000000000000000000000000000000000000000AMBITIOUS DRAGON                    0000000000　　　　　　　　　　　　　　　　　　0000000000　　　　　　　　　　　　　　　　　　0000000000000000000000
SEB2012121720121209G00000070110000000000PACKING OK                          00310006000000ムーア　000000　　　　　　　　　　　　　　　　　　　　　　　　　　　　　　　　　　　　　　　　　　　　　　　　　　　　　　　　　　　　　　　　　　　　　　　　　　　　　　　　　　　　　　　　　　　　570000000000000000マーウィ　　　　00       00003000000         0000000000000000000000000000000000000000000000000000AMBITIOUS DRAGON                    0000000000　　　　　　　　　　　　　　　　　　0000000000　　　　　　　　　　　　　　　　　　0000000000000000000000
SEB2012121720121209G00000070120000000000SIYOUMA                             00210004000000ドゥーメ000000　　　　　　　　　　　　　　　　　　　　　　　　　　　　　　　　　　　　　　　　　　　　　　　　　　　　　　　　　　　　　　　　　　　　　　　　　　　　　　　　　　　　　　　　　　　　555000000000000000モッセ　　　　　00       00011000000         0000000000000000000000000000000000000000000000000000AMBITIOUS DRAGON                    0000000000　　　　　　　　　　　　　　　　　　0000000000　　　　　　　　　　　　　　　　　　0000000000000000000000
SEB2013031720120129B20000020002005190013ブラックステアマウンテン　　　　　　00310307000000　　　　000000　　　　　　　　　　　　　　　　　　　　　　　　　　　　　　　　　　　　　　　　　　　　　　　　　　　　　　　　　　　　　　　　　　　　　　　　　　　　　　　　　　　　　　　　　　　　755000000000000000ウォルシ　　　　00       00005004269         0000000000000000000000000000000000000000000000000000FLEMENSTAR                          0000000000　　　　　　　　　　　　　　　　　　0000000000　　　　　　　　　　　　　　　　　　+046000000000000000000
SEB2013031720120313A60000020002005190013ブラックステアマウンテン　　　　　　00310307000000　　　　000000　　　　　　　　　　　　　　　　　　　　　　　　　　　　　　　　　　　　　　　　　　　　　　　　　　　　　　　　　　　　　　　　　　　　　　　　　　　　　　　　　　　　　　　　　　　　730000000000000000タウネン　　　　00       00005003569         0000000000000000000000000000000000000000000000000000SPRINTER SACRE                      0000000000　　　　　　　　　　　　　　　　　　0000000000　　　　　　　　　　　　　　　　　　+058000000000000000000
SEB2013031720120427B20000010002005190013ブラックステアマウンテン　　　　　　00310307000000　　　　000000　　　　　　　　　　　　　　　　　　　　　　　　　　　　　　　　　　　　　　　　　　　　　　　　　　　　　　　　　　　　　　　　　　　　　　　　　　　　　　　　　　　　　　　　　　　　745000000000000000ウォルシ　　　　00       00002004352112      0000000000000000000000000000000000000000000000000000LUCKY WILLIAM                       0000000000　　　　　　　　　　　　　　　　　　0000000000　　　　　　　　　　　　　　　　　　+002000000000000000000
SEB2013031720120706B20000050022005190013ブラックステアマウンテン　　　　　　00310307000000　　　　000000　　　　　　　　　　　　　　　　　　　　　　　　　　　　　　　　　　　　　　　　　　　　　　　　　　　　　　　　　　　　　　　　　　　　　　　　　　　　　　　　　　　　　　　　　　　　710000000000000000マリンズ　　　　00       00001002576         0000000000000000000000000000000000000000000000000000ASIYA                               0000000000　　　　　　　　　　　　　　　　　　0000000000　　　　　　　　　　　　　　　　　　0000000000000000000000
SEB2013031720120801B20000050002005190013ブラックステアマウンテン　　　　　　00310307000000　　　　000000　　　　　　　　　　　　　　　　　　　　　　　　　　　　　　　　　　　　　　　　　　　　　　　　　　　　　　　　　　　　　　　　　　　　　　　　　　　　　　　　　　　　　　　　　　　　685000000000000000ウォルシ　　　　00       00003005444         0000000000000000000000000000000000000000000000000000BOB LINGO                           0000000000　　　　　　　　　　　　　　　　　　0000000000　　　　　　　　　　　　　　　　　　+027000000000000000000
SEB2013031720120822B20000080022005190013ブラックステアマウンテン　　　　　　00310307000000　　　　000000　　　　　　　　　　　　　　　　　　　　　　　　　　　　　　　　　　　　　　　　　　　　　　　　　　　　　　　　　　　　　　　　　　　　　　　　　　　　　　　　　　　　　　　　　　　　720000000000000000マリンズ　　　　00       00001002506         0000000000000000000000000000000000000000000000000000PARRAMATTA                          0000000000　　　　　　　　　　　　　　　　　　0000000000　　　　　　　　　　　　　　　　　　0000000000000000000000
SEB2013031720121007B20000040002005190013ブラックステアマウンテン　　　　　　00310307000000　　　　000000　　　　　　　　　　　　　　　　　　　　　　　　　　　　　　　　　　　　　　　　　　　　　　　　　　　　　　　　　　　　　　　　　　　　　　　　　　　　　　　　　　　　　　　　　　　　715000000000000000ウォルシ　　　　00       00005004131         0000000000000000000000000000000000000000000000000000CAPTAIN CEE BEE                     0000000000　　　　　　　　　　　　　　　　　　0000000000　　　　　　　　　　　　　　　　　　+032000000000000000000
SEB2013031720121118B20000020002005190013ブラックステアマウンテン　　　　　　00310307000000　　　　000000　　　　　　　　　　　　　　　　　　　　　　　　　　　　　　　　　　　　　　　　　　　　　　　　　　　　　　　　　　　　　　　　　　　　　　　　　　　　　　　　　　　　　　　　　　　　720000000000000000タウネン　　　　00       000020040061        0000000000000000000000000000000000000000000000000000STAYING ARTICLE                     0000000000　　　　　　　　　　　　　　　　　　0000000000　　　　　　　　　　　　　　　　　　+002000000000000000000
SEB2013052620120101G00000110062007190008ヘレンスピリット　　　　　　　　　　00310105000000　　　　000000　　　　　　　　　　　　　　　　　　　　　　　　　　　　　　　　　　　　　　　　　　　　　　　　　　　　　　　　　　　　　　　　　　　　　　　　　　　　　　　　　　　　　　　　　　　　560000000000000000デュプレ　　　　00       00003001355         0000000000000000000000000000000000000000000000000000FAY FAY                             0000000000　　　　　　　　　　　　　　　　　　0000000000　　　　　　　　　　　　　　　　　　+004000000000000000000
SEB2013052620120115G00000100072007190008ヘレンスピリット　　　　　　　　　　00310105000000　　　　000000　　　　　　　　　　　　　　　　　　　　　　　　　　　　　　　　　　　　　　　　　　　　　　　　　　　　　　　　　　　　　　　　　　　　　　　　　　　　　　　　　　　　　　　　　　　　570000000000000000パートン　　　　00       00003001368         0000000000000000000000000000000000000000000000000000BUSINESS AS USUAL                   0000000000　　　　　　　　　　　　　　　　　　0000000000　　　　　　　　　　　　　　　　　　+001000000000000000000
SEB2013052620120125G00000110022007190008ヘレンスピリット　　　　　　　　　　00310105000000　　　　000000　　　　　　　　　　　　　　　　　　　　　　　　　　　　　　　　　　　　　　　　　　　　　　　　　　　　　　　　　　　　　　　　　　　　　　　　　　　　　　　　　　　　　　　　　　　　585000000000000000プレブル　　　　00       00003001502         0000000000000000000000000000000000000000000000000000SAPELLI                             0000000000　　　　　　　　　　　　　　　　　　0000000000　　　　　　　　　　　　　　　　　　+006000000000000000000
SEB2013052620120321G00000080042007190008ヘレンスピリット　　　　　　　　　　00310105000000　　　　000000　　　　　　　　　　　　　　　　　　　　　　　　　　　　　　　　　　　　　　　　　　　　　　　　　　　　　　　　　　　　　　　　　　　　　　　　　　　　　　　　　　　　　　　　　　　　590000000000000000モッセ　　　　　00       00004001397         0000000000000000000000000000000000000000000000000000FLASHING AURA                       0000000000　　　　　　　　　　　　　　　　　　0000000000　　　　　　　　　　　　　　　　　　+006000000000000000000
SEB2013052620120328G00000070032007190008ヘレンスピリット　　　　　　　　　　00310105000000　　　　000000　　　　　　　　　　　　　　　　　　　　　　　　　　　　　　　　　　　　　　　　　　　　　　　　　　　　　　　　　　　　　　　　　　　　　　　　　　　　　　　　　　　　　　　　　　　　575000000000000000モッセ　　　　　00       00001001500         0000000000000000000000000000000000000000000000000000LIBERATOR                           0000000000　　　　　　　　　　　　　　　　　　0000000000　　　　　　　　　　　　　　　　　　0000000000000000000000
SEB2013052620120415G00000100042007190008ヘレンスピリット　　　　　　　　　　00310105000000　　　　000000　　　　　　　　　　　　　　　　　　　　　　　　　　　　　　　　　　　　　　　　　　　　　　　　　　　　　　　　　　　　　　　　　　　　　　　　　　　　　　　　　　　　　　　　　　　　555000000000000000ドゥルー　　　　00       00001001390         0000000000000000000000000000000000000000000000000000MILITARY ATTACK                     0000000000　　　　　　　　　　　　　　　　　　0000000000　　　　　　　　　　　　　　　　　　0000000000000000000000
SEB2013052620121001G00000070102007190008ヘレンスピリット　　　　　　　　　　00310105000000　　　　000000　　　　　　　　　　　　　　　　　　　　　　　　　　　　　　　　　　　　　　　　　　　　　　　　　　　　　　　　　　　　　　　　　　　　　　　　　　　　　　　　　　　　　　　　　　　　515000000000000000ライ　　　　　　00       00003001209         0000000000000000000000000000000000000000000000000000PACKING OK                          0000000000　　　　　　　　　　　　　　　　　　0000000000　　　　　　　　　　　　　　　　　　+002000000000000000000
SEB2013052620121017G00000080012007190008ヘレンスピリット　　　　　　　　　　00310105000000　　　　000000　　　　　　　　　　　　　　　　　　　　　　　　　　　　　　　　　　　　　　　　　　　　　　　　　　　　　　　　　　　　　　　　　　　　　　　　　　　　　　　　　　　　　　　　　　　　605000000000000000ドゥルー　　　　00       00007001401         0000000000000000000000000000000000000000000000000000FREE JUDGEMENT                      0000000000　　　　　　　　　　　　　　　　　　0000000000　　　　　　　　　　　　　　　　　　+011000000000000000000
SEB2013052620121028G00000090032007190006グロリアスデイズ　　　　　　　　　　00310505000000　　　　000000　　　　　　　　　　　　　　　　　　　　　　　　　　　　　　　　　　　　　　　　　　　　　　　　　　　　　　　　　　　　　　　　　　　　　　　　　　　　　　　　　　　　　　　　　　　　585000000000000000ホワイト　　　　00       00002001338112      0000000000000000000000000000000000000000000000000000AMBITIOUS DRAGON                    0000000000　　　　　　　　　　　　　　　　　　0000000000　　　　　　　　　　　　　　　　　　+003000000000000000000
SEB2013052620121028G00000090142007190008ヘレンスピリット　　　　　　　　　　00310105000000　　　　000000　　　　　　　　　　　　　　　　　　　　　　　　　　　　　　　　　　　　　　　　　　　　　　　　　　　　　　　　　　　　　　　　　　　　　　　　　　　　　　　　　　　　　　　　　　　　510000000000000000トン　　　　　　00       00003001339         0000000000000000000000000000000000000000000000000000AMBITIOUS DRAGON                    0000000000　　　　　　　　　　　　　　　　　　0000000000　　　　　　　　　　　　　　　　　　+004000000000000000000
SEB2013052620121118G00000070082007190008ヘレンスピリット　　　　　　　　　　00310105000000　　　　000000　　　　　　　　　　　　　　　　　　　　　　　　　　　　　　　　　　　　　　　　　　　　　　　　　　　　　　　　　　　　　　　　　　　　　　　　　　　　　　　　　　　　　　　　　　　　560000000000000000クラーク　　　　00       00006002018         0000000000000000000000000000000000000000000000000000CALIFORNIA MEMORY                   0000000000　　　　　　　　　　　　　　　　　　0000000000　　　　　　　　　　　　　　　　　　+003000000000000000000
SEB2013052620121118G00000080032007190006グロリアスデイズ　　　　　　　　　　00310505000000　　　　000000　　　　　　　　　　　　　　　　　　　　　　　　　　　　　　　　　　　　　　　　　　　　　　　　　　　　　　　　　　　　　　　　　　　　　　　　　　　　　　　　　　　　　　　　　　　　560000000000000000ホワイト　　　　00       00001001341         0000000000000000000000000000000000000000000000000000AMBITIOUS DRAGON                    0000000000　　　　　　　　　　　　　　　　　　0000000000　　　　　　　　　　　　　　　　　　0000000000000000000000
SEB2013052620121209G00000070010000000000AMBITIOUS DRAGON                    00310006000000ミラード000000　　　　　　　　　　　　　　　　　　　　　　　　　　　　　　　　　　　　　　　　　　　　　　　　　　　　　　　　　　　　　　　　　　　　　　　　　　　　　　　　　　　　　　　　　　　　570000000000000000パートン　　　　00       00001001341         0000000000000000000000000000000000000000002007190006グロリアスデイズ　　　　　　　　　　0000000000　　　　　　　　　　　　　　　　　　0000000000　　　　　　　　　　　　　　　　　　-001000000000000000000
SEB2013052620121209G00000070032007190006グロリアスデイズ　　　　　　　　　　00310505000000サイズ　000000　　　　　　　　　　　　　　　　　　　　　　　　　　　　　　　　　　　　　　　　　　　　　　　　　　　　　　　　　　　　　　　　　　　　　　　　　　　　　　　　　　　　　　　　　　　　570000000000000000ホワイト　　　　00       00002001342 34      0000000000000000000000000000000000000000000000000000AMBITIOUS DRAGON                    0000000000　　　　　　　　　　　　　　　　　　0000000000　　　　　　　　　　　　　　　　　　+001000000000000000000
SEB2013052620121209G00000090052007190008ヘレンスピリット　　　　　　　　　　00310105000000　　　　000000　　　　　　　　　　　　　　　　　　　　　　　　　　　　　　　　　　　　　　　　　　　　　　　　　　　　　　　　　　　　　　　　　　　　　　　　　　　　　　　　　　　　　　　　　　　　575000000000000000モッセ　　　　　00       00002001222A        0000000000000000000000000000000000000000000000000000REAL SPECIALIST                     0000000000　　　　　　　　　　　　　　　　　　0000000000　　　　　　　　　　　　　　　　　　+000000000000000000000
SEB2013111720120102B20000030002007190009シメノン　　　　　　　　　　　　　　00310305000000　　　　000000　　　　　　　　　　　　　　　　　　　　　　　　　　　　　　　　　　　　　　　　　　　　　　　　　　　　　　　　　　　　　　　　　　　　　　　　　　　　　　　　　　　　　　　　　　　　755000000000000000ウォルシ　　　　00       00001004202         0000000000000000000000000000000000000000000000000000PARTY ROCK                          0000000000　　　　　　　　　　　　　　　　　　0000000000　　　　　　　　　　　　　　　　　　0000000000000000000000
SEB2013111720120205B20000020002007190009シメノン　　　　　　　　　　　　　　00310305000000　　　　000000　　　　　　　　　　　　　　　　　　　　　　　　　　　　　　　　　　　　　　　　　　　　　　　　　　　　　　　　　　　　　　　　　　　　　　　　　　　　　　　　　　　　　　　　　　　　705000000000000000ウォルシ　　　　00       000020041109        0000000000000000000000000000000000000000000000000000TRIFOLIUM                           0000000000　　　　　　　　　　　　　　　　　　0000000000　　　　　　　　　　　　　　　　　　+014000000000000000000
SEB2013111720120209C70000040012007190003ジョシュアツリー　　　　　　　　　　00110305000000　　　　000000　　　　　　　　　　　　　　　　　　　　　　　　　　　　　　　　　　　　　　　　　　　　　　　　　　　　　　　　　　　　　　　　　　　　　　　　　　　　　　　　　　　　　　　　　　　　600000000000000000ビュイッ　　　　00       00007002377         0000000000000000000000000000000000000000000000000000SONGCRAFT                           0000000000　　　　　　　　　　　　　　　　　　0000000000　　　　　　　　　　　　　　　　　　+030000000000000000000
SEB2013111720120301C70000020012007190003ジョシュアツリー　　　　　　　　　　00110305000000　　　　000000　　　　　　　　　　　　　　　　　　　　　　　　　　　　　　　　　　　　　　　　　　　　　　　　　　　　　　　　　　　　　　　　　　　　　　　　　　　　　　　　　　　　　　　　　　　　600000000000000000ムーア　　　　　00       00007002053         0000000000000000000000000000000000000000000000000000BRONZE CANNON                       0000000000　　　　　　　　　　　　　　　　　　0000000000　　　　　　　　　　　　　　　　　　+011000000000000000000
SEB2013112420120303A40000070022008190006パンツオンファイア　　　　　　　　　00110404000000　　　　000000　　　　　　　　　　　　　　　　　　　　　　　　　　　　　　　　　　　　　　　　　　　　　　　　　　　　　　　　　　　　　　　　　　　　　　　　　　　　　　　　　　　　　　　　　　　　540000000000000000ロペス　　　　　00       00001001359         0000000000000000000000000000000000000000000000000000HUNTERS BAY                         0000000000　　　　　　　　　　　　　　　　　　0000000000　　　　　　　　　　　　　　　　　　0000000000000000000000
SEB2013111720120310C70000060072007190003ジョシュアツリー　　　　　　　　　　00110305000000　　　　000000　　　　　　　　　　　　　　　　　　　　　　　　　　　　　　　　　　　　　　　　　　　　　　　　　　　　　　　　　　　　　　　　　　　　　　　　　　　　　　　　　　　　　　　　　　　　570000000000000000ムルタ　　　　　00       00006002344         0000000000000000000000000000000000000000000000000000MIKHAIL GLINKA                      0000000000　　　　　　　　　　　　　　　　　　0000000000　　　　　　　　　　　　　　　　　　+008000000000000000000
SEB2013111720120313A60000010002007190009シメノン　　　　　　　　　　　　　　00310305000000　　　　000000　　　　　　　　　　　　　　　　　　　　　　　　　　　　　　　　　　　　　　　　　　　　　　　　　　　　　　　　　　　　　　　　　　　　　　　　　　　　　　　　　　　　　　　　　　　　730000000000000000キャシー　　　　00       00019003580         0000000000000000000000000000000000000000000000000000CINDERS AND ASHES                   0000000000　　　　　　　　　　　　　　　　　　0000000000　　　　　　　　　　　　　　　　　　+053000000000000000000
SEB2013111720120331C70000030052007190003ジョシュアツリー　　　　　　　　　　00110305000000ボッティ000000　　　　　　　　　　　　　　　　　　　　　　　　　　　　　　　　　　　　　　　　　　　　　　　　　　　　　　　　　　　　　　　　　　　　　　　　　　　　　　　　　　　　　　　　　　　　570000000000000000ムルタ　　　　　00       00002003238 34      0000000000000000000000000000000000000000000000000000OPINION POLL                        0000000000　　　　　　　　　　　　　　　　　　0000000000　　　　　　　　　　　　　　　　　　+001000000000000000000
SEB2013111720120331C70000030100000000000OPINION POLL                        00110006000000アル・ザ000000　　　　　　　　　　　　　　　　　　　　　　　　　　　　　　　　　　　　　　　　　　　　　　　　　　　　　　　　　　　　　　　　　　　　　　　　　　　　　　　　　　　　　　　　　　　　570000000000000000デットー　　　　00       00001003237         0000000000000000000000000000000000000000002007190003ジョシュアツリー　　　　　　　　　　0000000000　　　　　　　　　　　　　　　　　　0000000000　　　　　　　　　　　　　　　　　　-001000000000000000000
SEB2013112420120401A40000080082008190006パンツオンファイア　　　　　　　　　00110404000000　　　　000000　　　　　　　　　　　　　　　　　　　　　　　　　　　　　　　　　　　　　　　　　　　　　　　　　　　　　　　　　　　　　　　　　　　　　　　　　　　　　　　　　　　　　　　　　　　　535000000000000000ナプラヴ　　　　00       00005001497         0000000000000000000000000000000000000000000000000000NATES MINESHAFT                     0000000000　　　　　　　　　　　　　　　　　　0000000000　　　　　　　　　　　　　　　　　　+021000000000000000000
SEB2013112420120414A40000120042008190006パンツオンファイア　　　　　　　　　00110404000000　　　　000000　　　　　　　　　　　　　　　　　　　　　　　　　　　　　　　　　　　　　　　　　　　　　　　　　　　　　　　　　　　　　　　　　　　　　　　　　　　　　　　　　　　　　　　　　　　　535000000000000000ナプラヴ　　　　00       00006001513         0000000000000000000000000000000000000000000000000000CAIXA ELETRONICA                    0000000000　　　　　　　　　　　　　　　　　　0000000000　　　　　　　　　　　　　　　　　　+011000000000000000000
