SEB2018031220180128G00000070042011190005ブリザード　　　　　　　　　　　　　00310107000000　　　　000000　　　　　　　　　　　　　　　　　　　　　　　　　　　　　　　　　　　　　　　　　　　　　　　　　　　　　　　　　　　　　　　　　　　　　　　　　　　　　　　　　　　　　　　　　　　　570000000000000000ティータ　　　　00510-00300005001099         0000000000000000000000000000000000000000000000000000D B PIN                             0000000000　　　　　　　　　　　　　　　　　　0000000000　　　　　　　　　　　　　　　　　　+003000000000000000000
SEB2018041920180331C70000010010000000000CAPEZZANO                           00310004000000ジャダフ000000　　　　　　　　　　　　　　　　　　　　　　　　　　　　　　　　　　　　　　　　　　　　　　　　　　　　　　　　　　　　　　　　　　　　　　　　　　　　　　　　　　　　　　　　　　　　570000000000000000スミス　　　　　00       00013000000134      0000000000000000000000000000000000000000000000000000HEAVY METAL                         0000000000　　　　　　　　　　　　　　　　　　0000000000　　　　　　　　　　　　　　　　　　0000000000000000000000
SEB2018041920180331C70000010020000000000SECOND SUMMER                       00310006000000ワトソン000000　　　　　　　　　　　　　　　　　　　　　　　　　　　　　　　　　　　　　　　　　　　　　　　　　　　　　　　　　　　　　　　　　　　　　　　　　　　　　　　　　　　　　　　　　　　　570000000000000000ヒッチコ　　　　00       00011000000414      0000000000000000000000000000000000000000000000000000HEAVY METAL                         0000000000　　　　　　　　　　　　　　　　　　0000000000　　　　　　　　　　　　　　　　　　0000000000000000000000
SEB2018041920180331C70000010030000000000MUNTAZAH                            00310005000000ワトソン000000　　　　　　　　　　　　　　　　　　　　　　　　　　　　　　　　　　　　　　　　　　　　　　　　　　　　　　　　　　　　　　　　　　　　　　　　　　　　　　　　　　　　　　　　　　　　570000000000000000クローリ　　　　00       000020000002        0000000000000000000000000000000000000000000000000000HEAVY METAL                         0000000000　　　　　　　　　　　　　　　　　　0000000000　　　　　　　　　　　　　　　　　　0000000000000000000000
SEB2018041920180331C70000010040000000000MUSAWAAT                            00110004000000ナス　　000000　　　　　　　　　　　　　　　　　　　　　　　　　　　　　　　　　　　　　　　　　　　　　　　　　　　　　　　　　　　　　　　　　　　　　　　　　　　　　　　　　　　　　　　　　　　　570000000000000000デフリー　　　　00       00004000000212      0000000000000000000000000000000000000000000000000000HEAVY METAL                         0000000000　　　　　　　　　　　　　　　　　　0000000000　　　　　　　　　　　　　　　　　　0000000000000000000000
SEB2018041920180331C70000010052014101173アディラート　　　　　　　　　　　　00110404201105須貝尚介271008安原　浩司　　　　　　　　　　　　　　　　　　　　　　　　　　　水色，黒縦縞，袖赤一本輪　　　　　　　　　　　　　　　　　　　　　　　　　　　　　　　　　　　　　　　　　　　　　　　　570000000533900000ルメール　　　　00       00303000000 12      0000000000000000000000000000000000000000000000000000HEAVY METAL                         0000000000　　　　　　　　　　　　　　　　　　0000000000　　　　　　　　　　　　　　　　　　0000000000000000000000
SEB2018041920180331C70000010060000000000SPECIAL FIGHTER                     00110007000000アル・ム000000　　　　　　　　　　　　　　　　　　　　　　　　　　　　　　　　　　　　　　　　　　　　　　　　　　　　　　　　　　　　　　　　　　　　　　　　　　　　　　　　　　　　　　　　　　　　570000000000000000ハラ　　　　　　00       00009000000234      0000000000000000000000000000000000000000000000000000HEAVY METAL                         0000000000　　　　　　　　　　　　　　　　　　0000000000　　　　　　　　　　　　　　　　　　0000000000000000000000
SEB2018041920180331C70000010070000000000SHAMAAL NIBRAS                      00310009000000ワトソン000000　　　　　　　　　　　　　　　　　　　　　　　　　　　　　　　　　　　　　　　　　　　　　　　　　　　　　　　　　　　　　　　　　　　　　　　　　　　　　　　　　　　　　　　　　　　　570000000000000000オニール　　　　00       00012000000314      0000000000000000000000000000000000000000000000000000HEAVY METAL                         0000000000　　　　　　　　　　　　　　　　　　0000000000　　　　　　　　　　　　　　　　　　0000000000000000000000
SEB2018041920180331C70000010080000000000ECONOMIC MODEL                      00110005000000ブラウン000000　　　　　　　　　　　　　　　　　　　　　　　　　　　　　　　　　　　　　　　　　　　　　　　　　　　　　　　　　　　　　　　　　　　　　　　　　　　　　　　　　　　　　　　　　　　　570000000000000000ロザリオ　　　　00       00007000000H        0000000000000000000000000000000000000000000000000000HEAVY METAL                         0000000000　　　　　　　　　　　　　　　　　　0000000000　　　　　　　　　　　　　　　　　　0000000000000000000000
SEB2018041920180331C70000010090000000000HEAVY METAL                         00310008000000ジャダフ000000　　　　　　　　　　　　　　　　　　　　　　　　　　　　　　　　　　　　　　　　　　　　　　　　　　　　　　　　　　　　　　　　　　　　　　　　　　　　　　　　　　　　　　　　　　　　570000000000000000ムーア　　　　　00       00001001362         0000000000000000000000000000000000000000000000000000MUNTAZAH                            0000000000　　　　　　　　　　　　　　　　　　0000000000　　　　　　　　　　　　　　　　　　0000000000000000000000
SEB2018041920180331C70000010100000000000SECRET AMBITION                     00110005000000シーマー000000　　　　　　　　　　　　　　　　　　　　　　　　　　　　　　　　　　　　　　　　　　　　　　　　　　　　　　　　　　　　　　　　　　　　　　　　　　　　　　　　　　　　　　　　　　　　570000000000000000コスグレ　　　　00       000100000001        0000000000000000000000000000000000000000000000000000HEAVY METAL                         0000000000　　　　　　　　　　　　　　　　　　0000000000　　　　　　　　　　　　　　　　　　0000000000000000000000
SEB2018041920180331C70000010112012104076アキトクレッセント　　　　　　　　　00110306201110清水久詞475033岡田　昭利　　　　　　　　　　　　　　　　　　　　　　　　　　　黄，赤ダイヤモンド，黒袖黄二本輪　　　　　　　　　　　　　　　　　　　　　　　　　　　　　　　　　　　　　　　　　　　　570000000066600000武豊　　　　　　00       01414000000T        0000000000000000000000000000000000000000000000000000HEAVY METAL                         0000000000　　　　　　　　　　　　　　　　　　0000000000　　　　　　　　　　　　　　　　　　0000000000000000000000
SEB2018041920180331C70000010120000000000KIMBEAR                             00110004000000ワトソン000000　　　　　　　　　　　　　　　　　　　　　　　　　　　　　　　　　　　　　　　　　　　　　　　　　　　　　　　　　　　　　　　　　　　　　　　　　　　　　　　　　　　　　　　　　　　　570000000000000000ドッブス　　　　00       00006000000K        0000000000000000000000000000000000000000000000000000HEAVY METAL                         0000000000　　　　　　　　　　　　　　　　　　0000000000　　　　　　　　　　　　　　　　　　0000000000000000000000
SEB2018041920180331C70000010130000000000ROSA IMPERIAL                       00210005000000ファーブ000000　　　　　　　　　　　　　　　　　　　　　　　　　　　　　　　　　　　　　　　　　　　　　　　　　　　　　　　　　　　　　　　　　　　　　　　　　　　　　　　　　　　　　　　　　　　　550000000000000000バルザロ　　　　00       00005000000134      0000000000000000000000000000000000000000000000000000HEAVY METAL                         0000000000　　　　　　　　　　　　　　　　　　0000000000　　　　　　　　　　　　　　　　　　0000000000000000000000
SEB2018041920180331C70000010140000000000RAVEN'S CORNER                      00310005000000シーマー000000　　　　　　　　　　　　　　　　　　　　　　　　　　　　　　　　　　　　　　　　　　　　　　　　　　　　　　　　　　　　　　　　　　　　　　　　　　　　　　　　　　　　　　　　　　　　570000000000000000マレン　　　　　00       00008000000214      0000000000000000000000000000000000000000000000000000HEAVY METAL                         0000000000　　　　　　　　　　　　　　　　　　0000000000　　　　　　　　　　　　　　　　　　0000000000000000000000
SEB2018041920180331C70000040010000000000RAYYA                               00210003000000ワトソン000000　　　　　　　　　　　　　　　　　　　　　　　　　　　　　　　　　　　　　　　　　　　　　　　　　　　　　　　　　　　　　　　　　　　　　　　　　　　　　　　　　　　　　　　　　　　　550000000000000000ドッブス　　　　00       00002000000T        0000000000000000000000000000000000000000000000000000MENDELSSOHN                         0000000000　　　　　　　　　　　　　　　　　　0000000000　　　　　　　　　　　　　　　　　　0000000000000000000000
SEB2018041920180331C70000040022015104347ルッジェーロ　　　　　　　　　　　　00110403101097鹿戸雄一379008村木　隆　　　　　　　　　　　　　　　　　　　　　　　　　　　　赤，白玉霰，袖白縦縞　　　　　　　　　　　　　　　　　　　　　　　　　　　　　　　　　　　　　　　　　　　　　　　　　　570000000533900000ルメール　　　　00       00808000000T        0000000000000000000000000000000000000000000000000000MENDELSSOHN                         0000000000　　　　　　　　　　　　　　　　　　0000000000　　　　　　　　　　　　　　　　　　0000000000000000000000
SEB2018041920180331C70000040030000000000RERIDE                              00110003000000アスムッ000000　　　　　　　　　　　　　　　　　　　　　　　　　　　　　　　　　　　　　　　　　　　　　　　　　　　　　　　　　　　　　　　　　　　　　　　　　　　　　　　　　　　　　　　　　　　　570000000000000000カステリ　　　　00       000030000003        0000000000000000000000000000000000000000000000000000MENDELSSOHN                         0000000000　　　　　　　　　　　　　　　　　　0000000000　　　　　　　　　　　　　　　　　　0000000000000000000000
SEB2018041920180331C70000040040000000000MENDELSSOHN                         00110003000000オブライ000000　　　　　　　　　　　　　　　　　　　　　　　　　　　　　　　　　　　　　　　　　　　　　　　　　　　　　　　　　　　　　　　　　　　　　　　　　　　　　　　　　　　　　　　　　　　　570000000000000000ムーア　　　　　00       00001001551         0000000000000000000000000000000000000000000000000000RAYYA                               0000000000　　　　　　　　　　　　　　　　　　0000000000　　　　　　　　　　　　　　　　　　0000000000000000000000
SEB2018041920180331C70000040050000000000GOLD TOWN                           00310003000000アップル000000　　　　　　　　　　　　　　　　　　　　　　　　　　　　　　　　　　　　　　　　　　　　　　　　　　　　　　　　　　　　　　　　　　　　　　　　　　　　　　　　　　　　　　　　　　　　570000000000000000ビュイッ　　　　00       00004000000134      0000000000000000000000000000000000000000000000000000MENDELSSOHN                         0000000000　　　　　　　　　　　　　　　　　　0000000000　　　　　　　　　　　　　　　　　　0000000000000000000000
SEB2018041920180331C70000040060000000000SEAHENGE                            00110003000000オブライ000000　　　　　　　　　　　　　　　　　　　　　　　　　　　　　　　　　　　　　　　　　　　　　　　　　　　　　　　　　　　　　　　　　　　　　　　　　　　　　　　　　　　　　　　　　　　　570000000000000000オブライ　　　　00       00005000000234      0000000000000000000000000000000000000000000000000000MENDELSSOHN                         0000000000　　　　　　　　　　　　　　　　　　0000000000　　　　　　　　　　　　　　　　　　0000000000000000000000
SEB2018041920180331C70000040070000000000YULONG WARRIOR                      00110003000000シーマー000000　　　　　　　　　　　　　　　　　　　　　　　　　　　　　　　　　　　　　　　　　　　　　　　　　　　　　　　　　　　　　　　　　　　　　　　　　　　　　　　　　　　　　　　　　　　　570000000000000000マレン　　　　　00       00007000000414      0000000000000000000000000000000000000000000000000000MENDELSSOHN                         0000000000　　　　　　　　　　　　　　　　　　0000000000　　　　　　　　　　　　　　　　　　0000000000000000000000
SEB2018041920180331C70000040082015103311タイキフェルヴール　　　　　　　　　00110103201113牧浦充徳536800大樹ファーム　　　　　　　　　　　　　　　　　　　　　　　　　　緑，白星散，袖白縦縞　　　　　　　　　　　　　　　　　　　　　　　　　　　　　　　　　　　　　　　　　　　　　　　　　　570000000000000000モレイラ　　　　00       006060000002        0000000000000000000000000000000000000000000000000000MENDELSSOHN                         0000000000　　　　　　　　　　　　　　　　　　0000000000　　　　　　　　　　　　　　　　　　0000000000000000000000
SEB2018041920180331C70000040090000000000THREEANDFOURPENCE                   00110003000000オブライ000000　　　　　　　　　　　　　　　　　　　　　　　　　　　　　　　　　　　　　　　　　　　　　　　　　　　　　　　　　　　　　　　　　　　　　　　　　　　　　　　　　　　　　　　　　　　　570000000000000000ヘファナ　　　　00       00009000000T        0000000000000000000000000000000000000000000000000000MENDELSSOHN                         0000000000　　　　　　　　　　　　　　　　　　0000000000　　　　　　　　　　　　　　　　　　0000000000000000000000
SEB2018041920180331C70000060010000000000MIND YOUR BISCUITS                  00110005000000サマーズ000000　　　　　　　　　　　　　　　　　　　　　　　　　　　　　　　　　　　　　　　　　　　　　　　　　　　　　　　　　　　　　　　　　　　　　　　　　　　　　　　　　　　　　　　　　　　　570000000000000000ロザリオ　　　　00       00001001101         0000000000000000000000000000000000000000000000000000X Y JET                             0000000000　　　　　　　　　　　　　　　　　　0000000000　　　　　　　　　　　　　　　　　　0000000000000000000000
SEB2018041920180331C70000060020000000000X Y JET                             00310006000000ナヴァロ000000　　　　　　　　　　　　　　　　　　　　　　　　　　　　　　　　　　　　　　　　　　　　　　　　　　　　　　　　　　　　　　　　　　　　　　　　　　　　　　　　　　　　　　　　　　　　570000000000000000ハラミー　　　　00       00002000000A        0000000000000000000000000000000000000000000000000000MIND YOUR BISCUITS                  0000000000　　　　　　　　　　　　　　　　　　0000000000　　　　　　　　　　　　　　　　　　0000000000000000000000
SEB2018041920180331C70000060030000000000REYNALDOTHEWIZARD                   00310012000000シーマー000000　　　　　　　　　　　　　　　　　　　　　　　　　　　　　　　　　　　　　　　　　　　　　　　　　　　　　　　　　　　　　　　　　　　　　　　　　　　　　　　　　　　　　　　　　　　　570000000000000000マレン　　　　　00       00007000000214      0000000000000000000000000000000000000000000000000000MIND YOUR BISCUITS                  0000000000　　　　　　　　　　　　　　　　　　0000000000　　　　　　　　　　　　　　　　　　0000000000000000000000
SEB2018041920180331C70000060040000000000WILD DUDE                           00110008000000ビン・ハ000000　　　　　　　　　　　　　　　　　　　　　　　　　　　　　　　　　　　　　　　　　　　　　　　　　　　　　　　　　　　　　　　　　　　　　　　　　　　　　　　　　　　　　　　　　　　　570000000000000000デソウサ　　　　00       000040000003        0000000000000000000000000000000000000000000000000000MIND YOUR BISCUITS                  0000000000　　　　　　　　　　　　　　　　　　0000000000　　　　　　　　　　　　　　　　　　0000000000000000000000
SEB2018041920180331C70000060052014110060マテラスカイ　　　　　　　　　　　　06110104200427森秀行　265033大野　剛嗣　　　　　　　　　　　　　　　　　　　　　　　　　　　赤，白星散，白袖　　　　　　　　　　　　　　　　　　　　　　　　　　　　　　　　　　　　　　　　　　　　　　　　　　　　570000000066600000武豊　　　　　　00       00505000000114      0000000000000000000000000000000000000000000000000000MIND YOUR BISCUITS                  0000000000　　　　　　　　　　　　　　　　　　0000000000　　　　　　　　　　　　　　　　　　0000000000000000000000
SEB2018041920180331C70000060060000000000ROY H                               00310006000000ミラー　000000　　　　　　　　　　　　　　　　　　　　　　　　　　　　　　　　　　　　　　　　　　　　　　　　　　　　　　　　　　　　　　　　　　　　　　　　　　　　　　　　　　　　　　　　　　　　570000000000000000デザーモ　　　　00       00003000000 34      0000000000000000000000000000000000000000000000000000MIND YOUR BISCUITS                  0000000000　　　　　　　　　　　　　　　　　　0000000000　　　　　　　　　　　　　　　　　　0000000000000000000000
SEB2018041920180331C70000060070000000000SHILLONG                            00110005000000アル・ア000000　　　　　　　　　　　　　　　　　　　　　　　　　　　　　　　　　　　　　　　　　　　　　　　　　　　　　　　　　　　　　　　　　　　　　　　　　　　　　　　　　　　　　　　　　　　　570000000000000000コスグレ　　　　00000    10000000000         0000000000000000000000000000000000000009990000000000MIND YOUR BISCUITS                  0000000000　　　　　　　　　　　　　　　　　　0000000000　　　　　　　　　　　　　　　　　　9999000000000000000000
SEB2018041920180331C70000060080000000000MY CATCH                            00310007000000ワトソン000000　　　　　　　　　　　　　　　　　　　　　　　　　　　　　　　　　　　　　　　　　　　　　　　　　　　　　　　　　　　　　　　　　　　　　　　　　　　　　　　　　　　　　　　　　　　　570000000000000000ドッブス　　　　00       00008000000T        0000000000000000000000000000000000000000000000000000MIND YOUR BISCUITS                  0000000000　　　　　　　　　　　　　　　　　　0000000000　　　　　　　　　　　　　　　　　　0000000000000000000000
SEB2018041920180331C70000060090000000000JORDAN SPORT                        00310005000000ナス　　000000　　　　　　　　　　　　　　　　　　　　　　　　　　　　　　　　　　　　　　　　　　　　　　　　　　　　　　　　　　　　　　　　　　　　　　　　　　　　　　　　　　　　　　　　　　　　570000000000000000デフリー　　　　00       00006000000114      0000000000000000000000000000000000000000000000000000MIND YOUR BISCUITS                  0000000000　　　　　　　　　　　　　　　　　　0000000000　　　　　　　　　　　　　　　　　　0000000000000000000000
SEB2018041920180331C70000070010000000000CHAMPIONSHIP                        00310007000000ビン・ハ000000　　　　　　　　　　　　　　　　　　　　　　　　　　　　　　　　　　　　　　　　　　　　　　　　　　　　　　　　　　　　　　　　　　　　　　　　　　　　　　　　　　　　　　　　　　　　570000000000000000デソウサ　　　　00       00015000000214      0000000000000000000000000000000000000000000000000000BENBATL                             0000000000　　　　　　　　　　　　　　　　　　0000000000　　　　　　　　　　　　　　　　　　0000000000000000000000
SEB2018041920180331C70000070022011103978ネオリアリズム　　　　　　　　　　　00110107101070堀宣行　486800キャロットファーム　　　　　　　　　　　　　　　　　　　　　　　緑，白二本輪，白袖赤一本輪　　　　　　　　　　　　　　　　　　　　　　　　　　　　　　　　　　　　　　　　　　　　　　　570000000000000000モレイラ　　　　00       00808000000114      0000000000000000000000000000000000000000000000000000BENBATL                             0000000000　　　　　　　　　　　　　　　　　　0000000000　　　　　　　　　　　　　　　　　　0000000000000000000000
SEB2018041920180331C70000070030000000000PROMISING RUN                       00210005000000ビン・ス000000　　　　　　　　　　　　　　　　　　　　　　　　　　　　　　　　　　　　　　　　　　　　　　　　　　　　　　　　　　　　　　　　　　　　　　　　　　　　　　　　　　　　　　　　　　　　550000000000000000コスグレ　　　　00       00005000000434      0000000000000000000000000000000000000000000000000000BENBATL                             0000000000　　　　　　　　　　　　　　　　　　0000000000　　　　　　　　　　　　　　　　　　0000000000000000000000
SEB2018041920180331C70000070040000000000TRAIS FLUORS                        00110004000000ファーブ000000　　　　　　　　　　　　　　　　　　　　　　　　　　　　　　　　　　　　　　　　　　　　　　　　　　　　　　　　　　　　　　　　　　　　　　　　　　　　　　　　　　　　　　　　　　　　570000000000000000シュミノ　　　　00       000130000005        0000000000000000000000000000000000000000000000000000BENBATL                             0000000000　　　　　　　　　　　　　　　　　　0000000000　　　　　　　　　　　　　　　　　　0000000000000000000000
SEB2018041920180331C70000070050000000000BENBATL                             00110004000000ビン・ス000000　　　　　　　　　　　　　　　　　　　　　　　　　　　　　　　　　　　　　　　　　　　　　　　　　　　　　　　　　　　　　　　　　　　　　　　　　　　　　　　　　　　　　　　　　　　　570000000000000000マーフィ　　　　00       00001001460         0000000000000000000000000000000000000000002013106007ヴィブロス　　　　　　　　　　　　　0000000000　　　　　　　　　　　　　　　　　　0000000000　　　　　　　　　　　　　　　　　　0000000000000000000000
SEB2018041920180331C70000070060000000000JANOOBI                             00110005000000デコック000000　　　　　　　　　　　　　　　　　　　　　　　　　　　　　　　　　　　　　　　　　　　　　　　　　　　　　　　　　　　　　　　　　　　　　　　　　　　　　　　　　　　　　　　　　　　　570000000000000000クローリ　　　　00       00012000000134      0000000000000000000000000000000000000000000000000000BENBATL                             0000000000　　　　　　　　　　　　　　　　　　0000000000　　　　　　　　　　　　　　　　　　0000000000000000000000
SEB2018041920180331C70000070072013106007ヴィブロス　　　　　　　　　　　　　00210605201061友道康夫006030佐々木　主浩　　　　　　　　　　　　　　　　　　　　　　　　　　水色，白袖青二本輪，青鋸歯形　　　　　　　　　　　　　　　　　　　　　　　　　　　　　　　　　　　　　　　　　　　　　　550000000000000000デムーロ　　　　00       002020000003        0000000000000000000000000000000000000000000000000000BENBATL                             0000000000　　　　　　　　　　　　　　　　　　0000000000　　　　　　　　　　　　　　　　　　0000000000000000000000
SEB2018041920180331C70000070082012104889リアルスティール　　　　　　　　　　00110306201075矢作芳人226800サンデーレーシング　　　　　　　　　　　　　　　　　　　　　　　黒，赤十字襷，袖黄縦縞　　　　　　　　　　　　　　　　　　　　　　　　　　　　　　　　　　　　　　　　　　　　　　　　　570000000000000000バルザロ　　　　00       00303110000K        0000000000000000000000000000000000000000000000000000BENBATL                             0000000000　　　　　　　　　　　　　　　　　　0000000000　　　　　　　　　　　　　　　　　　0000000000000000000000
SEB2018041920180331C70000070090000000000MONARCHS GLEN                       00310004000000ゴスデン000000　　　　　　　　　　　　　　　　　　　　　　　　　　　　　　　　　　　　　　　　　　　　　　　　　　　　　　　　　　　　　　　　　　　　　　　　　　　　　　　　　　　　　　　　　　　　570000000000000000デットー　　　　00       00014000000634      0000000000000000000000000000000000000000000000000000BENBATL                             0000000000　　　　　　　　　　　　　　　　　　0000000000　　　　　　　　　　　　　　　　　　0000000000000000000000
SEB2018041920180331C70000070100000000000WAR DECREE                          00110004000000オブライ000000　　　　　　　　　　　　　　　　　　　　　　　　　　　　　　　　　　　　　　　　　　　　　　　　　　　　　　　　　　　　　　　　　　　　　　　　　　　　　　　　　　　　　　　　　　　　570000000000000000ヘファナ　　　　00       000090000001        0000000000000000000000000000000000000000000000000000BENBATL                             0000000000　　　　　　　　　　　　　　　　　　0000000000　　　　　　　　　　　　　　　　　　0000000000000000000000
SEB2018041920180331C70000070112013102955クロコスミア　　　　　　　　　　　　00210405201016西浦勝一858800大塚　亮一　　　　　　　　　　　　　　　　　　　　　　　　　　　緑，黄十字襷，黒袖黄一本輪　　　　　　　　　　　　　　　　　　　　　　　　　　　　　　　　　　　　　　　　　　　　　　　550000000520300000岩田康誠　　　　00       00707000000 12      0000000000000000000000000000000000000000000000000000BENBATL                             0000000000　　　　　　　　　　　　　　　　　　0000000000　　　　　　　　　　　　　　　　　　0000000000000000000000
SEB2018041920180331C70000070120000000000LANCASTER BOMBER                    00110004000000オブライ000000　　　　　　　　　　　　　　　　　　　　　　　　　　　　　　　　　　　　　　　　　　　　　　　　　　　　　　　　　　　　　　　　　　　　　　　　　　　　　　　　　　　　　　　　　　　　570000000000000000ムーア　　　　　00       00011000000234      0000000000000000000000000000000000000000000000000000BENBATL                             0000000000　　　　　　　　　　　　　　　　　　0000000000　　　　　　　　　　　　　　　　　　0000000000000000000000
SEB2018041920180331C70000070132014106191ディアドラ　　　　　　　　　　　　　00210304200362橋田満　034009森田　藤治　　　　　　　　　　　　　　　　　　　　　　　　　　　赤，鼠一本輪，白袖　　　　　　　　　　　　　　　　　　　　　　　　　　　　　　　　　　　　　　　　　　　　　　　　　　　550000000533900000ルメール　　　　00       00303110000D        0000000000000000000000000000000000000000000000000000BENBATL                             0000000000　　　　　　　　　　　　　　　　　　0000000000　　　　　　　　　　　　　　　　　　0000000000000000000000
SEB2018041920180331C70000070140000000000LESHLAA                             00110004000000ビン・ス000000　　　　　　　　　　　　　　　　　　　　　　　　　　　　　　　　　　　　　　　　　　　　　　　　　　　　　　　　　　　　　　　　　　　　　　　　　　　　　　　　　　　　　　　　　　　　570000000000000000スミヨン　　　　00       000060000001        0000000000000000000000000000000000000000000000000000BENBATL                             0000000000　　　　　　　　　　　　　　　　　　0000000000　　　　　　　　　　　　　　　　　　0000000000000000000000
SEB2018041920180331C70000070150000000000BLAIR HOUSE                         00310005000000アップル000000　　　　　　　　　　　　　　　　　　　　　　　　　　　　　　　　　　　　　　　　　　　　　　　　　　　　　　　　　　　　　　　　　　　　　　　　　　　　　　　　　　　　　　　　　　　　570000000000000000ビュイッ　　　　00       00010000000H        0000000000000000000000000000000000000000000000000000BENBATL                             0000000000　　　　　　　　　　　　　　　　　　0000000000　　　　　　　　　　　　　　　　　　0000000000000000000000
SEB2018041920180331C70000080012014102565モズカッチャン　　　　　　　　　　　00210404201046鮫島一歩005803キャピタル・システム　　　　　　　　　　　　　　　　　　　　　　黒，茶元禄，袖茶縦縞　　　　　　　　　　　　　　　　　　　　　　　　　　　　　　　　　　　　　　　　　　　　　　　　　　545000000000000000デムーロ　　　　00       006060000001        0000000000000000000000000000000000000000000000000000HAWKBILL                            0000000000　　　　　　　　　　　　　　　　　　0000000000　　　　　　　　　　　　　　　　　　0000000000000000000000
SEB2018041920180331C70000080022013190002アイダホ　　　　　　　　　　　　　　00110305000000オブライ000000　　　　　　　　　　　　　　　　　　　　　　　　　　　　　　　　　　　　　　　　　　　　　　　　　　　　　　　　　　　　　　　　　　　　　　　　　　　　　　　　　　　　　　　　　　　　570000000000000000ムーア　　　　　00       00008000000K        0000000000000000000000000000000000000000000000000000HAWKBILL                            0000000000　　　　　　　　　　　　　　　　　　0000000000　　　　　　　　　　　　　　　　　　0000000000000000000000
SEB2018041920180331C70000080032014106201レイデオロ　　　　　　　　　　　　　00110304100386藤沢和雄486800キャロットファーム　　　　　　　　　　　　　　　　　　　　　　　緑，白二本輪，白袖赤一本輪　　　　　　　　　　　　　　　　　　　　　　　　　　　　　　　　　　　　　　　　　　　　　　　565000000533900000ルメール　　　　00       00404000000134      0000000000000000000000000000000000000000000000000000HAWKBILL                            0000000000　　　　　　　　　　　　　　　　　　0000000000　　　　　　　　　　　　　　　　　　0000000000000000000000
SEB2018041920180331C70000080040000000000KHALIDI                             00110004000000コックス000000　　　　　　　　　　　　　　　　　　　　　　　　　　　　　　　　　　　　　　　　　　　　　　　　　　　　　　　　　　　　　　　　　　　　　　　　　　　　　　　　　　　　　　　　　　　　565000000000000000デソウサ　　　　00       00010000000412      0000000000000000000000000000000000000000000000000000HAWKBILL                            0000000000　　　　　　　　　　　　　　　　　　0000000000　　　　　　　　　　　　　　　　　　0000000000000000000000
SEB2018041920180331C70000080050000000000POET'S WORD                         00110005000000スタウト000000　　　　　　　　　　　　　　　　　　　　　　　　　　　　　　　　　　　　　　　　　　　　　　　　　　　　　　　　　　　　　　　　　　　　　　　　　　　　　　　　　　　　　　　　　　　　570000000000000000デットー　　　　00       000020000003        0000000000000000000000000000000000000000000000000000HAWKBILL                            0000000000　　　　　　　　　　　　　　　　　　0000000000　　　　　　　　　　　　　　　　　　0000000000000000000000
SEB2018041920180331C70000080060000000000CLOTH OF STARS                      00110005000000ファーブ000000　　　　　　　　　　　　　　　　　　　　　　　　　　　　　　　　　　　　　　　　　　　　　　　　　　　　　　　　　　　　　　　　　　　　　　　　　　　　　　　　　　　　　　　　　　　　570000000000000000バルザロ　　　　00       00003000000K        0000000000000000000000000000000000000000000000000000HAWKBILL                            0000000000　　　　　　　　　　　　　　　　　　0000000000　　　　　　　　　　　　　　　　　　0000000000000000000000
SEB2018041920180331C70000080070000000000HAWKBILL                            00110005000000アップル000000　　　　　　　　　　　　　　　　　　　　　　　　　　　　　　　　　　　　　　　　　　　　　　　　　　　　　　　　　　　　　　　　　　　　　　　　　　　　　　　　　　　　　　　　　　　　570000000000000000ビュイッ　　　　00       00001002294         0000000000000000000000000000000000000000000000000000POET'S WORD                         0000000000　　　　　　　　　　　　　　　　　　0000000000　　　　　　　　　　　　　　　　　　0000000000000000000000
SEB2018041920180331C70000080082012104668サトノクラウン　　　　　　　　　　　00110406101070堀宣行　075803サトミホースカンパニー　　　　　　　　　　　　　　　　　　　　　緑，黄菱山形，袖黄縦縞　　　　　　　　　　　　　　　　　　　　　　　　　　　　　　　　　　　　　　　　　　　　　　　　　570000000000000000モレイラ　　　　00       00707000000112      0000000000000000000000000000000000000000000000000000HAWKBILL                            0000000000　　　　　　　　　　　　　　　　　　0000000000　　　　　　　　　　　　　　　　　　0000000000000000000000
SEB2018041920180331C70000080090000000000DESERT ENCOUNTER                    00310006000000シムコッ000000　　　　　　　　　　　　　　　　　　　　　　　　　　　　　　　　　　　　　　　　　　　　　　　　　　　　　　　　　　　　　　　　　　　　　　　　　　　　　　　　　　　　　　　　　　　　570000000000000000レヴィー　　　　00       00009000000134      0000000000000000000000000000000000000000000000000000HAWKBILL                            0000000000　　　　　　　　　　　　　　　　　　0000000000　　　　　　　　　　　　　　　　　　0000000000000000000000
SEB2018041920180331C70000080100000000000BEST SOLUTION                       00110004000000ビン・ス000000　　　　　　　　　　　　　　　　　　　　　　　　　　　　　　　　　　　　　　　　　　　　　　　　　　　　　　　　　　　　　　　　　　　　　　　　　　　　　　　　　　　　　　　　　　　　565000000000000000コスグレ　　　　00       00005000000H        0000000000000000000000000000000000000000000000000000HAWKBILL                            0000000000　　　　　　　　　　　　　　　　　　0000000000　　　　　　　　　　　　　　　　　　0000000000000000000000
SEB2018041920180331C70000090012010110078アウォーディー　　　　　　　　　　　06110308201092松永幹夫948006前田　幸治　　　　　　　　　　　　　　　　　　　　　　　　　　　水色，赤十字襷，赤袖水色一本輪　　　　　　　　　　　　　　　　　　　　　　　　　　　　　　　　　　　　　　　　　　　　　570000000066600000武豊　　　　　　00       00606000000134      0000000000000000000000000000000000000000000000000000THUNDER SNOW                        0000000000　　　　　　　　　　　　　　　　　　0000000000　　　　　　　　　　　　　　　　　　0000000000000000000000
SEB2018041920180331C70000090020000000000NORTH AMERICA                       00310006000000シーマー000000　　　　　　　　　　　　　　　　　　　　　　　　　　　　　　　　　　　　　　　　　　　　　　　　　　　　　　　　　　　　　　　　　　　　　　　　　　　　　　　　　　　　　　　　　　　　570000000000000000マレン　　　　　00       00010000000T        0000000000000000000000000000000000000000000000000000THUNDER SNOW                        0000000000　　　　　　　　　　　　　　　　　　0000000000　　　　　　　　　　　　　　　　　　0000000000000000000000
SEB2018041920180331C70000090030000000000GUNNEVERA                           00110004000000サノ　　000000　　　　　　　　　　　　　　　　　　　　　　　　　　　　　　　　　　　　　　　　　　　　　　　　　　　　　　　　　　　　　　　　　　　　　　　　　　　　　　　　　　　　　　　　　　　　570000000000000000ロザリオ　　　　00       00008000000212      0000000000000000000000000000000000000000000000000000THUNDER SNOW                        0000000000　　　　　　　　　　　　　　　　　　0000000000　　　　　　　　　　　　　　　　　　0000000000000000000000
SEB2018041920180331C70000090040000000000FURIA CRUZADA                       00210007000000シャルピ000000　　　　　　　　　　　　　　　　　　　　　　　　　　　　　　　　　　　　　　　　　　　　　　　　　　　　　　　　　　　　　　　　　　　　　　　　　　　　　　　　　　　　　　　　　　　　550000000000000000フレス　　　　　00       00007000000H        0000000000000000000000000000000000000000000000000000THUNDER SNOW                        0000000000　　　　　　　　　　　　　　　　　　0000000000　　　　　　　　　　　　　　　　　　0000000000000000000000
SEB2018041920180331C70000090050000000000MUBTAAHIJ                           00110006000000バファー000000　　　　　　　　　　　　　　　　　　　　　　　　　　　　　　　　　　　　　　　　　　　　　　　　　　　　　　　　　　　　　　　　　　　　　　　　　　　　　　　　　　　　　　　　　　　　570000000000000000エスピノ　　　　00       00003000000K        0000000000000000000000000000000000000000000000000000THUNDER SNOW                        0000000000　　　　　　　　　　　　　　　　　　0000000000　　　　　　　　　　　　　　　　　　0000000000000000000000
SEB2018041920180331C70000090060000000000FOREVER UNBRIDLED                   00210006000000スチュア000000　　　　　　　　　　　　　　　　　　　　　　　　　　　　　　　　　　　　　　　　　　　　　　　　　　　　　　　　　　　　　　　　　　　　　　　　　　　　　　　　　　　　　　　　　　　　550000000000000000スミス　　　　　00       00005000000H        0000000000000000000000000000000000000000000000000000THUNDER SNOW                        0000000000　　　　　　　　　　　　　　　　　　0000000000　　　　　　　　　　　　　　　　　　0000000000000000000000
SEB2018041920180331C70000090070000000000TALISMANIC                          00110005000000ファーブ000000　　　　　　　　　　　　　　　　　　　　　　　　　　　　　　　　　　　　　　　　　　　　　　　　　　　　　　　　　　　　　　　　　　　　　　　　　　　　　　　　　　　　　　　　　　　　570000000000000000バルザロ　　　　00       00009000000T        0000000000000000000000000000000000000000000000000000THUNDER SNOW                        0000000000　　　　　　　　　　　　　　　　　　0000000000　　　　　　　　　　　　　　　　　　0000000000000000000000
SEB2018041920180331C70000090080000000000PAVEL                               00110004000000オニール000000　　　　　　　　　　　　　　　　　　　　　　　　　　　　　　　　　　　　　　　　　　　　　　　　　　　　　　　　　　　　　　　　　　　　　　　　　　　　　　　　　　　　　　　　　　　　570000000000000000グティエ　　　　00       00004000000134      0000000000000000000000000000000000000000000000000000THUNDER SNOW                        0000000000　　　　　　　　　　　　　　　　　　0000000000　　　　　　　　　　　　　　　　　　0000000000000000000000
SEB2018041920180331C70000090090000000000WEST COAST                          00110004000000バファー000000　　　　　　　　　　　　　　　　　　　　　　　　　　　　　　　　　　　　　　　　　　　　　　　　　　　　　　　　　　　　　　　　　　　　　　　　　　　　　　　　　　　　　　　　　　　　570000000000000000カステリ　　　　00       00002000000534      0000000000000000000000000000000000000000000000000000THUNDER SNOW                        0000000000　　　　　　　　　　　　　　　　　　0000000000　　　　　　　　　　　　　　　　　　0000000000000000000000
SEB2018041920180331C70000090100000000000THUNDER SNOW                        00110004000000ビン・ス000000　　　　　　　　　　　　　　　　　　　　　　　　　　　　　　　　　　　　　　　　　　　　　　　　　　　　　　　　　　　　　　　　　　　　　　　　　　　　　　　　　　　　　　　　　　　　570000000000000000スミヨン　　　　00       00001002013         0000000000000000000000000000000000000000000000000000WEST COAST                          0000000000　　　　　　　　　　　　　　　　　　0000000000　　　　　　　　　　　　　　　　　　0000000000000000000000
SEB2018043020180414B60000080010000000000ALMANDIN                            00310008000000ハウリー000000　　　　　　　　　　　　　　　　　　　　　　　　　　　　　　　　　　　　　　　　　　　　　　　　　　　　　　　　　　　　　　　　　　　　　　　　　　　　　　　　　　　　　　　　　　　　570000000000000000オリヴァ　　　　00       00008000000         0000000000000000000000000000000000000000000000000000WHO SHOT THEBARMAN                  0000000000　　　　　　　　　　　　　　　　　　0000000000　　　　　　　　　　　　　　　　　　0000000000000000000000
SEB2018043020180414B60000080020000000000WHO SHOT THEBARMAN                  00310010000000ウォーラ000000　　　　　　　　　　　　　　　　　　　　　　　　　　　　　　　　　　　　　　　　　　　　　　　　　　　　　　　　　　　　　　　　　　　　　　　　　　　　　　　　　　　　　　　　　　　　550000000000000000シン　　　　　　00       00001003200         0000000000000000000000000000000000000000000000000000ZACADA                              0000000000　　　　　　　　　　　　　　　　　　0000000000　　　　　　　　　　　　　　　　　　0000000000000000000000
SEB2018043020180414B60000080030000000000LIBRAN                              00310007000000ウォーラ000000　　　　　　　　　　　　　　　　　　　　　　　　　　　　　　　　　　　　　　　　　　　　　　　　　　　　　　　　　　　　　　　　　　　　　　　　　　　　　　　　　　　　　　　　　　　　540000000000000000アヴドゥ　　　　00       00012000000         0000000000000000000000000000000000000000000000000000WHO SHOT THEBARMAN                  0000000000　　　　　　　　　　　　　　　　　　0000000000　　　　　　　　　　　　　　　　　　0000000000000000000000
SEB2018043020180414B60000080040000000000VENTURA STORM                       00310005000000ヘイズ　000000　　　　　　　　　　　　　　　　　　　　　　　　　　　　　　　　　　　　　　　　　　　　　　　　　　　　　　　　　　　　　　　　　　　　　　　　　　　　　　　　　　　　　　　　　　　　535000000000000000ボス　　　　　　00       00009000000         0000000000000000000000000000000000000000000000000000WHO SHOT THEBARMAN                  0000000000　　　　　　　　　　　　　　　　　　0000000000　　　　　　　　　　　　　　　　　　0000000000000000000000
SEB2018043020180414B60000080050000000000SINGLE GAZE                         00210006000000オリーブ000000　　　　　　　　　　　　　　　　　　　　　　　　　　　　　　　　　　　　　　　　　　　　　　　　　　　　　　　　　　　　　　　　　　　　　　　　　　　　　　　　　　　　　　　　　　　　530000000000000000　　　　　　　　00000    10000000000         0000000000000000000000000000000000000009990000000000WHO SHOT THEBARMAN                  0000000000　　　　　　　　　　　　　　　　　　0000000000　　　　　　　　　　　　　　　　　　9999000000000000000000
SEB2018043020180414B60000080062011104030プレストウィック　　　　　　　　　　00110707101064武藤善則506800シルクレーシング　　　　　　　　　　　　　　　　　　　　　　　　水色，赤玉霰，袖赤一本輪　　　　　　　　　　　　　　　　　　　　　　　　　　　　　　　　　　　　　　　　　　　　　　　　530000000000000000モレイラ　　　　00       30000000000         0000000000000000000000000000000000000009990000000000WHO SHOT THEBARMAN                  0000000000　　　　　　　　　　　　　　　　　　0000000000　　　　　　　　　　　　　　　　　　9999000000000000000000
SEB2018043020180414B60000080070000000000FIVE TO MIDNIGHT                    00310006000000ラタ　　000000　　　　　　　　　　　　　　　　　　　　　　　　　　　　　　　　　　　　　　　　　　　　　　　　　　　　　　　　　　　　　　　　　　　　　　　　　　　　　　　　　　　　　　　　　　　　525000000000000000ディー　　　　　00       00010000000         0000000000000000000000000000000000000000000000000000WHO SHOT THEBARMAN                  0000000000　　　　　　　　　　　　　　　　　　0000000000　　　　　　　　　　　　　　　　　　0000000000000000000000
SEB2018043020180414B60000080080000000000AUVRAY                              00310007000000フリード000000　　　　　　　　　　　　　　　　　　　　　　　　　　　　　　　　　　　　　　　　　　　　　　　　　　　　　　　　　　　　　　　　　　　　　　　　　　　　　　　　　　　　　　　　　　　　520000000000000000スコフィ　　　　00       00004000000         0000000000000000000000000000000000000000000000000000WHO SHOT THEBARMAN                  0000000000　　　　　　　　　　　　　　　　　　0000000000　　　　　　　　　　　　　　　　　　0000000000000000000000
SEB2018043020180414B60000080090000000000LORD FANDANGO                       00110005000000アレクサ000000　　　　　　　　　　　　　　　　　　　　　　　　　　　　　　　　　　　　　　　　　　　　　　　　　　　　　　　　　　　　　　　　　　　　　　　　　　　　　　　　　　　　　　　　　　　　515000000000000000ウィリア　　　　00       00013000000         0000000000000000000000000000000000000000000000000000WHO SHOT THEBARMAN                  0000000000　　　　　　　　　　　　　　　　　　0000000000　　　　　　　　　　　　　　　　　　0000000000000000000000
SEB2018043020180414B60000080100000000000ALOFT                               00310006000000ハウリー000000　　　　　　　　　　　　　　　　　　　　　　　　　　　　　　　　　　　　　　　　　　　　　　　　　　　　　　　　　　　　　　　　　　　　　　　　　　　　　　　　　　　　　　　　　　　　510000000000000000マカヴォ　　　　00       40000000000         0000000000000000000000000000000000000009990000000000WHO SHOT THEBARMAN                  0000000000　　　　　　　　　　　　　　　　　　0000000000　　　　　　　　　　　　　　　　　　9999000000000000000000
SEB2018043020180414B60000080110000000000FANATIC                             00210006000000ヘイズ　000000　　　　　　　　　　　　　　　　　　　　　　　　　　　　　　　　　　　　　　　　　　　　　　　　　　　　　　　　　　　　　　　　　　　　　　　　　　　　　　　　　　　　　　　　　　　　505000000000000000　　　　　　　　00000    10000000000         0000000000000000000000000000000000000009990000000000WHO SHOT THEBARMAN                  0000000000　　　　　　　　　　　　　　　　　　0000000000　　　　　　　　　　　　　　　　　　9999000000000000000000
SEB2018043020180414B60000080120000000000ZACADA                              00310006000000ベイカー000000　　　　　　　　　　　　　　　　　　　　　　　　　　　　　　　　　　　　　　　　　　　　　　　　　　　　　　　　　　　　　　　　　　　　　　　　　　　　　　　　　　　　　　　　　　　　505000000000000000ホランド　　　　00       00002000000         0000000000000000000000000000000000000000000000000000WHO SHOT THEBARMAN                  0000000000　　　　　　　　　　　　　　　　　　0000000000　　　　　　　　　　　　　　　　　　0000000000000000000000
SEB2018043020180414B60000080130000000000SIR CHARLES ROAD                    00310005000000オサリバ000000　　　　　　　　　　　　　　　　　　　　　　　　　　　　　　　　　　　　　　　　　　　　　　　　　　　　　　　　　　　　　　　　　　　　　　　　　　　　　　　　　　　　　　　　　　　　500000000000000000アドキン　　　　00       00003000000         0000000000000000000000000000000000000000000000000000WHO SHOT THEBARMAN                  0000000000　　　　　　　　　　　　　　　　　　0000000000　　　　　　　　　　　　　　　　　　0000000000000000000000
SEB2018043020180414B60000080140000000000GALLIC CHIEFTAIN                    00110005000000ウィアー000000　　　　　　　　　　　　　　　　　　　　　　　　　　　　　　　　　　　　　　　　　　　　　　　　　　　　　　　　　　　　　　　　　　　　　　　　　　　　　　　　　　　　　　　　　　　　500000000000000000　　　　　　　　00000    10000000000         0000000000000000000000000000000000000009990000000000WHO SHOT THEBARMAN                  0000000000　　　　　　　　　　　　　　　　　　0000000000　　　　　　　　　　　　　　　　　　9999000000000000000000
SEB2018043020180414B60000080150000000000LASQUETI SPIRIT                     00210005000000カーティ000000　　　　　　　　　　　　　　　　　　　　　　　　　　　　　　　　　　　　　　　　　　　　　　　　　　　　　　　　　　　　　　　　　　　　　　　　　　　　　　　　　　　　　　　　　　　　500000000000000000フォード　　　　00       00005000000         0000000000000000000000000000000000000000000000000000WHO SHOT THEBARMAN                  0000000000　　　　　　　　　　　　　　　　　　0000000000　　　　　　　　　　　　　　　　　　0000000000000000000000
SEB2018043020180414B60000080160000000000CISMONTANE                          00310006000000ウォータ000000　　　　　　　　　　　　　　　　　　　　　　　　　　　　　　　　　　　　　　　　　　　　　　　　　　　　　　　　　　　　　　　　　　　　　　　　　　　　　　　　　　　　　　　　　　　　500000000000000000イネス　　　　　00       00015000000         0000000000000000000000000000000000000000000000000000WHO SHOT THEBARMAN                  0000000000　　　　　　　　　　　　　　　　　　0000000000　　　　　　　　　　　　　　　　　　0000000000000000000000
SEB2018043020180414B60000080170000000000PATRICK ERIN                        00310007000000ウォーラ000000　　　　　　　　　　　　　　　　　　　　　　　　　　　　　　　　　　　　　　　　　　　　　　　　　　　　　　　　　　　　　　　　　　　　　　　　　　　　　　　　　　　　　　　　　　　　500000000000000000ニューイ　　　　00       00006000000         0000000000000000000000000000000000000000000000000000WHO SHOT THEBARMAN                  0000000000　　　　　　　　　　　　　　　　　　0000000000　　　　　　　　　　　　　　　　　　0000000000000000000000
SEB2018043020180414B60000080180000000000PERIBSEN                            00110005000000オシェア000000　　　　　　　　　　　　　　　　　　　　　　　　　　　　　　　　　　　　　　　　　　　　　　　　　　　　　　　　　　　　　　　　　　　　　　　　　　　　　　　　　　　　　　　　　　　　500000000000000000ブラウン　　　　00       00014000000         0000000000000000000000000000000000000000000000000000WHO SHOT THEBARMAN                  0000000000　　　　　　　　　　　　　　　　　　0000000000　　　　　　　　　　　　　　　　　　0000000000000000000000
SEB2018043020180414B60000080190000000000ADMIRAL JELLO                       00310006000000リース　000000　　　　　　　　　　　　　　　　　　　　　　　　　　　　　　　　　　　　　　　　　　　　　　　　　　　　　　　　　　　　　　　　　　　　　　　　　　　　　　　　　　　　　　　　　　　　500000000000000000バックリ　　　　00       00011000000         0000000000000000000000000000000000000000000000000000WHO SHOT THEBARMAN                  0000000000　　　　　　　　　　　　　　　　　　0000000000　　　　　　　　　　　　　　　　　　0000000000000000000000
SEB2018043020180414B60000080200000000000ORMITO                              00310005000000ウィアー000000　　　　　　　　　　　　　　　　　　　　　　　　　　　　　　　　　　　　　　　　　　　　　　　　　　　　　　　　　　　　　　　　　　　　　　　　　　　　　　　　　　　　　　　　　　　　500000000000000000イェンダ　　　　00       00016000000         0000000000000000000000000000000000000000000000000000WHO SHOT THEBARMAN                  0000000000　　　　　　　　　　　　　　　　　　0000000000　　　　　　　　　　　　　　　　　　0000000000000000000000
SEB2018043020180414B60000080210000000000DOUKHAN                             00310009000000リース　000000　　　　　　　　　　　　　　　　　　　　　　　　　　　　　　　　　　　　　　　　　　　　　　　　　　　　　　　　　　　　　　　　　　　　　　　　　　　　　　　　　　　　　　　　　　　　500000000000000000市川雄介　　　　00       00007000000         0000000000000000000000000000000000000000000000000000WHO SHOT THEBARMAN                  0000000000　　　　　　　　　　　　　　　　　　0000000000　　　　　　　　　　　　　　　　　　0000000000000000000000
SEB2018051720180429G00000070010000000000MR STUNNING                         00310006000000サイズ　000000　　　　　　　　　　　　　　　　　　　　　　　　　　　　　　　　　　　　　　　　　　　　　　　　　　　　　　　　　　　　　　　　　　　　　　　　　　　　　　　　　　　　　　　　　　　　570000000000000000クリッパ　　　　00       00002000000 12      0000000000000000000000000000000000000000000000000000IVICTORY                            0000000000　　　　　　　　　　　　　　　　　　0000000000　　　　　　　　　　　　　　　　　　0000000000000000000000
SEB2018051720180429G00000070020000000000BEAT THE CLOCK                      00310005000000サイズ　000000　　　　　　　　　　　　　　　　　　　　　　　　　　　　　　　　　　　　　　　　　　　　　　　　　　　　　　　　　　　　　　　　　　　　　　　　　　　　　　　　　　　　　　　　　　　　570000000000000000モレイラ　　　　00       00003000000         0000000000000000000000000000000000000000000000000000IVICTORY                            0000000000　　　　　　　　　　　　　　　　　　0000000000　　　　　　　　　　　　　　　　　　0000000000000000000000
SEB2018051720180429G00000070040000000000THEWIZARDOFOZ                       00310007000000サイズ　000000　　　　　　　　　　　　　　　　　　　　　　　　　　　　　　　　　　　　　　　　　　　　　　　　　　　　　　　　　　　　　　　　　　　　　　　　　　　　　　　　　　　　　　　　　　　　570000000000000000ティータ　　　　00       00008000000         0000000000000000000000000000000000000000000000000000IVICTORY                            0000000000　　　　　　　　　　　　　　　　　　0000000000　　　　　　　　　　　　　　　　　　0000000000000000000000
SEB2018051720180429G00000070050000000000AMAZING KIDS                        00310007000000サイズ　000000　　　　　　　　　　　　　　　　　　　　　　　　　　　　　　　　　　　　　　　　　　　　　　　　　　　　　　　　　　　　　　　　　　　　　　　　　　　　　　　　　　　　　　　　　　　　570000000000000000ドゥルー　　　　00       00007000000         0000000000000000000000000000000000000000000000000000IVICTORY                            0000000000　　　　　　　　　　　　　　　　　　0000000000　　　　　　　　　　　　　　　　　　0000000000000000000000
SEB2018051720180429G00000070060000000000BLUE POINT                          00110004000000アップル000000　　　　　　　　　　　　　　　　　　　　　　　　　　　　　　　　　　　　　　　　　　　　　　　　　　　　　　　　　　　　　　　　　　　　　　　　　　　　　　　　　　　　　　　　　　　　570000000000000000ビュイッ　　　　00       00009000000         0000000000000000000000000000000000000000000000000000IVICTORY                            0000000000　　　　　　　　　　　　　　　　　　0000000000　　　　　　　　　　　　　　　　　　0000000000000000000000
SEB2018051720180429G00000070072013100612ファインニードル　　　　　　　　　　00110305201129高橋義忠003060ゴドルフィン　　　　　　　　　　　　　　　　　　　　　　　　　　青，袖水色一本輪　　　　　　　　　　　　　　　　　　　　　　　　　　　　　　　　　　　　　　　　　　　　　　　　　　　　570000000000000000ベリー　　　　　00466-01400404001092312      0000000000000000000000000000000000000000000000000000IVICTORY                            0000000000　　　　　　　　　　　　　　　　　　0000000000　　　　　　　　　　　　　　　　　　+006000000000000000000
SEB2018051720180429G00000070080000000000PENIAPHOBIA                         00310007000000クルーズ000000　　　　　　　　　　　　　　　　　　　　　　　　　　　　　　　　　　　　　　　　　　　　　　　　　　　　　　　　　　　　　　　　　　　　　　　　　　　　　　　　　　　　　　　　　　　　570000000000000000カラン　　　　　00       00006000000         0000000000000000000000000000000000000000000000000000IVICTORY                            0000000000　　　　　　　　　　　　　　　　　　0000000000　　　　　　　　　　　　　　　　　　0000000000000000000000
SEB2018051720180429G00000070090000000000IVICTORY                            00310005000000サイズ　000000　　　　　　　　　　　　　　　　　　　　　　　　　　　　　　　　　　　　　　　　　　　　　　　　　　　　　　　　　　　　　　　　　　　　　　　　　　　　　　　　　　　　　　　　　　　　570000000000000000パートン　　　　00       00001001086         0000000000000000000000000000000000000000000000000000MR STUNNING                         0000000000　　　　　　　　　　　　　　　　　　0000000000　　　　　　　　　　　　　　　　　　0000000000000000000000
SEB2018051720180429G00000080022014106046アルアイン　　　　　　　　　　　　　00110304201071池江泰寿226800サンデーレーシング　　　　　　　　　　　　　　　　　　　　　　　黒，赤十字襷，袖黄縦縞　　　　　　　　　　　　　　　　　　　　　　　　　　　　　　　　　　　　　　　　　　　　　　　　　570000000000000000デムーロ　　　　00516 00000505002012114      0000000000000000000000000000000000000000000000000000PAKISTAN STAR                       0000000000　　　　　　　　　　　　　　　　　　0000000000　　　　　　　　　　　　　　　　　　+010000000000000000000
SEB2018051720180429G00000080042014106010ダンビュライト　　　　　　　　　　　00110404201002音無秀孝226800サンデーレーシング　　　　　　　　　　　　　　　　　　　　　　　黒，赤十字襷，袖黄縦縞　　　　　　　　　　　　　　　　　　　　　　　　　　　　　　　　　　　　　　　　　　　　　　　　　570000000000000000ベリー　　　　　00468-01400707002017114      0000000000000000000000000000000000000000000000000000PAKISTAN STAR                       0000000000　　　　　　　　　　　　　　　　　　0000000000　　　　　　　　　　　　　　　　　　+015000000000000000000
SEB2018052120180128G00000080072012190005ウエスタンエクスプレス　　　　　　　00310106000000　　　　000000　　　　　　　　　　　　　　　　　　　　　　　　　　　　　　　　　　　　　　　　　　　　　　　　　　　　　　　　　　　　　　　　　　　　　　　　　　　　　　　　　　　　　　　　　　　　570000000000000000クリッパ　　　　00563-00600006001349         0000000000000000000000000000000000000000000000000000SEASONS BLOOM                       0000000000　　　　　　　　　　　　　　　　　　0000000000　　　　　　　　　　　　　　　　　　+002000000000000000000
SEB2018052120180225G00000090072012190005ウエスタンエクスプレス　　　　　　　00310106000000　　　　000000　　　　　　　　　　　　　　　　　　　　　　　　　　　　　　　　　　　　　　　　　　　　　　　　　　　　　　　　　　　　　　　　　　　　　　　　　　　　　　　　　　　　　　　　　　　　570000000000000000ローウィ　　　　00565+00200008001214         0000000000000000000000000000000000000000000000000000BEAUTY GENERATION                   0000000000　　　　　　　　　　　　　　　　　　0000000000　　　　　　　　　　　　　　　　　　+006000000000000000000
SEB2018052120180318G00000030032012190005ウエスタンエクスプレス　　　　　　　00310106000000　　　　000000　　　　　　　　　　　　　　　　　　　　　　　　　　　　　　　　　　　　　　　　　　　　　　　　　　　　　　　　　　　　　　　　　　　　　　　　　　　　　　　　　　　　　　　　　　　　600000000000000000ムーア　　　　　00562-00300005001359         0000000000000000000000000000000000000000000000000000SOUTHERN LEGEND                     0000000000　　　　　　　　　　　　　　　　　　0000000000　　　　　　　　　　　　　　　　　　+005000000000000000000
SEB2018052120180408G00000080072012190005ウエスタンエクスプレス　　　　　　　00310106000000　　　　000000　　　　　　　　　　　　　　　　　　　　　　　　　　　　　　　　　　　　　　　　　　　　　　　　　　　　　　　　　　　　　　　　　　　　　　　　　　　　　　　　　　　　　　　　　　　　555000000000000000ローウィ　　　　00556-00600002001329K        0000000000000000000000000000000000000000002011190004ビューティーオンリー　　　　　　　　0000000000　　　　　　　　　　　　　　　　　　0000000000　　　　　　　　　　　　　　　　　　+001000000000000000000
SEB2018052120180429G00000060052012190005ウエスタンエクスプレス　　　　　　　00310106000000　　　　000000　　　　　　　　　　　　　　　　　　　　　　　　　　　　　　　　　　　　　　　　　　　　　　　　　　　　　　　　　　　　　　　　　　　　　　　　　　　　　　　　　　　　　　　　　　　　570000000000000000クリッパ　　　　00554-002000020013441        0000000000000000000000000000000000000000000000000000BEAUTY GENERATION                   0000000000　　　　　　　　　　　　　　　　　　0000000000　　　　　　　　　　　　　　　　　　+001000000000000000000
SEB2018052120180429G00000080010000000000TIME WARP                           00310005000000クルーズ000000　　　　　　　　　　　　　　　　　　　　　　　　　　　　　　　　　　　　　　　　　　　　　　　　　　　　　　　　　　　　　　　　　　　　　　　　　　　　　　　　　　　　　　　　　　　　570000000000000000パートン　　　　00560    00008000000         0000000000000000000000000000000000000000000000000000PAKISTAN STAR                       0000000000　　　　　　　　　　　　　　　　　　0000000000　　　　　　　　　　　　　　　　　　0000000000000000000000
SEB2018052120180429G00000080030000000000PAKISTAN STAR                       00310005000000クルーズ000000　　　　　　　　　　　　　　　　　　　　　　　　　　　　　　　　　　　　　　　　　　　　　　　　　　　　　　　　　　　　　　　　　　　　　　　　　　　　　　　　　　　　　　　　　　　　570000000000000000ビュイッ　　　　00523    00001002002         0000000000000000000000000000000000000000000000000000GOLD MOUNT                          0000000000　　　　　　　　　　　　　　　　　　0000000000　　　　　　　　　　　　　　　　　　0000000000000000000000
SEB2018052120180429G00000080050000000000PING HAI STAR                       00310005000000サイズ　000000　　　　　　　　　　　　　　　　　　　　　　　　　　　　　　　　　　　　　　　　　　　　　　　　　　　　　　　　　　　　　　　　　　　　　　　　　　　　　　　　　　　　　　　　　　　　570000000000000000モレイラ　　　　00551    00004000000         0000000000000000000000000000000000000000000000000000PAKISTAN STAR                       0000000000　　　　　　　　　　　　　　　　　　0000000000　　　　　　　　　　　　　　　　　　0000000000000000000000
SEB2018052120180429G00000080060000000000EAGLE WAY                           00310006000000ムーア　000000　　　　　　　　　　　　　　　　　　　　　　　　　　　　　　　　　　　　　　　　　　　　　　　　　　　　　　　　　　　　　　　　　　　　　　　　　　　　　　　　　　　　　　　　　　　　570000000000000000プレブル　　　　00491    00003000000         0000000000000000000000000000000000000000000000000000PAKISTAN STAR                       0000000000　　　　　　　　　　　　　　　　　　0000000000　　　　　　　　　　　　　　　　　　0000000000000000000000
SEB2018052120180429G00000080070000000000GOLD MOUNT                          00310005000000クルーズ000000　　　　　　　　　　　　　　　　　　　　　　　　　　　　　　　　　　　　　　　　　　　　　　　　　　　　　　　　　　　　　　　　　　　　　　　　　　　　　　　　　　　　　　　　　　　　570000000000000000サナ　　　　　　00443    000020000003        0000000000000000000000000000000000000000000000000000PAKISTAN STAR                       0000000000　　　　　　　　　　　　　　　　　　0000000000　　　　　　　　　　　　　　　　　　0000000000000000000000
SEB2018052120180429G00000080080000000000DINOZZO                             00310005000000サイズ　000000　　　　　　　　　　　　　　　　　　　　　　　　　　　　　　　　　　　　　　　　　　　　　　　　　　　　　　　　　　　　　　　　　　　　　　　　　　　　　　　　　　　　　　　　　　　　570000000000000000ティータ　　　　00467    00006000000         0000000000000000000000000000000000000000000000000000PAKISTAN STAR                       0000000000　　　　　　　　　　　　　　　　　　0000000000　　　　　　　　　　　　　　　　　　0000000000000000000000
SEB2018061120180128G00000080042011190007ワーザー　　　　　　　　　　　　　　00310307000000　　　　000000　　　　　　　　　　　　　　　　　　　　　　　　　　　　　　　　　　　　　　　　　　　　　　　　　　　　　　　　　　　　　　　　　　　　　　　　　　　　　　　　　　　　　　　　　　　　570000000000000000ボウマン　　　　00473-00200003001348         0000000000000000000000000000000000000000000000000000SEASONS BLOOM                       0000000000　　　　　　　　　　　　　　　　　　0000000000　　　　　　　　　　　　　　　　　　+001000000000000000000
SEB2018061120180225G00000080022011190007ワーザー　　　　　　　　　　　　　　00310307000000　　　　000000　　　　　　　　　　　　　　　　　　　　　　　　　　　　　　　　　　　　　　　　　　　　　　　　　　　　　　　　　　　　　　　　　　　　　　　　　　　　　　　　　　　　　　　　　　　　570000000000000000ボウマン　　　　00475+00200002002000 12      0000000000000000000000000000000000000000000000000000TIME WARP                           0000000000　　　　　　　　　　　　　　　　　　0000000000　　　　　　　　　　　　　　　　　　+001000000000000000000
SEB2018061120180603G00000070012011190007ワーザー　　　　　　　　　　　　　　00310307000000　　　　000000　　　　　　　　　　　　　　　　　　　　　　　　　　　　　　　　　　　　　　　　　　　　　　　　　　　　　　　　　　　　　　　　　　　　　　　　　　　　　　　　　　　　　　　　　　　　600000000000000000ホワイト　　　　00473-00200006001338         0000000000000000000000000000000000000000000000000000THE GOLDEN AGE                      0000000000　　　　　　　　　　　　　　　　　　0000000000　　　　　　　　　　　　　　　　　　+007000000000000000000
SEB2018080220180722A80000050042014105499ジェニアル　　　　　　　　　　　　　00110304201092松永幹夫002803キーファーズ　　　　　　　　　　　　　　　　　　　　　　　　　　白，鼠元禄，袖鼠縦縞　　　　　　　　　　　　　　　　　　　　　　　　　　　　　　　　　　　　　　　　　　　　　　　　　　580000000066600000武豊　　　　　　00       00101001376         0000000000000000000000000000000000000000000000000000JIMMY TWO TIMES                     0000000000　　　　　　　　　　　　　　　　　　0000000000　　　　　　　　　　　　　　　　　　0000000000000000000000
SEB2018080220180722A80000060082013106126ラルク　　　　　　　　　　　　　　　00210305201092松永幹夫002803キーファーズ　　　　　　　　　　　　　　　　　　　　　　　　　　白，鼠元禄，袖鼠縦縞　　　　　　　　　　　　　　　　　　　　　　　　　　　　　　　　　　　　　　　　　　　　　　　　　　565000000066600000武豊　　　　　　00       00808000000 12      0000000000000000000000000000000000000000000000000000NONZA                               0000000000　　　　　　　　　　　　　　　　　　0000000000　　　　　　　　　　　　　　　　　　0000000000000000000000
SEB2018091820180128G00000070032011190008ラッキーバブルズ　　　　　　　　　　00310107000000　　　　000000　　　　　　　　　　　　　　　　　　　　　　　　　　　　　　　　　　　　　　　　　　　　　　　　　　　　　　　　　　　　　　　　　　　　　　　　　　　　　　　　　　　　　　　　　　　　570000000000000000ボウマン　　　　00491-00100008001103         0000000000000000000000000000000000000000000000000000D B PIN                             0000000000　　　　　　　　　　　　　　　　　　0000000000　　　　　　　　　　　　　　　　　　+007000000000000000000
SEB2018091820180429G00000070032011190008ラッキーバブルズ　　　　　　　　　　00310107000000ルイ　　000000　　　　　　　　　　　　　　　　　　　　　　　　　　　　　　　　　　　　　　　　　　　　　　　　　　　　　　　　　　　　　　　　　　　　　　　　　　　　　　　　　　　　　　　　　　　　570000000000000000プレブル　　　　00489-00200005001095         0000000000000000000000000000000000000000000000000000IVICTORY                            0000000000　　　　　　　　　　　　　　　　　　0000000000　　　　　　　　　　　　　　　　　　+009000000000000000000
SEB2018091820180527G00000040022011190008ラッキーバブルズ　　　　　　　　　　00310107000000　　　　000000　　　　　　　　　　　　　　　　　　　　　　　　　　　　　　　　　　　　　　　　　　　　　　　　　　　　　　　　　　　　　　　　　　　　　　　　　　　　　　　　　　　　　　　　　　　　595000000000000000プレブル　　　　00484-00500008001096         0000000000000000000000000000000000000000000000000000WINNER'S WAY                        0000000000　　　　　　　　　　　　　　　　　　0000000000　　　　　　　　　　　　　　　　　　+015000000000000000000
SEB2018091820180624G00000070022011190008ラッキーバブルズ　　　　　　　　　　00310107000000　　　　000000　　　　　　　　　　　　　　　　　　　　　　　　　　　　　　　　　　　　　　　　　　　　　　　　　　　　　　　　　　　　　　　　　　　　　　　　　　　　　　　　　　　　　　　　　　　　590000000000000000プレブル　　　　00477-00700003001206         0000000000000000000000000000000000000000000000000000CALIFORNIA WHIP                     0000000000　　　　　　　　　　　　　　　　　　0000000000　　　　　　　　　　　　　　　　　　+001000000000000000000
SEB2018092420180909F00000080092012110091モーニン　　　　　　　　　　　　　　06110106201022石坂正　431002馬場　幸夫　　　　　　　　　　　　　　　　　　　　　　　　　　　桃，袖白一本輪，白鋸歯形　　　　　　　　　　　　　　　　　　　　　　　　　　　　　　　　　　　　　　　　　　　　　　　　570000000000000000藤井勘一　　　　00525+00100101001115         0000000000000000000000000000000000000000000000000000FIGHT HERO                          0000000000　　　　　　　　　　　　　　　　　　0000000000　　　　　　　　　　　　　　　　　　-000000000000000000000
SEB2018092420180909F00000090142013101999ロンドンタウン　　　　　　　　　　　00110305201123牧田和弥768006薪浦　亨　　　　　　　　　　　　　　　　　　　　　　　　　　　　赤，緑鋸歯形　　　　　　　　　　　　　　　　　　　　　　　　　　　　　　　　　　　　　　　　　　　　　　　　　　　　　　570000000520300000岩田康誠　　　　00514-01000101001506         0000000000000000000000000000000000000000000000000000DOLKONG                             0000000000　　　　　　　　　　　　　　　　　　0000000000　　　　　　　　　　　　　　　　　　-026000000000000000000
