SEB2005060220050514G00000060032001100925コスモバルク　　　　　　　　　　　　21110304305105田部和則637006岡田　美佐子　　　　　　　　　　　　　　　　　　　　　　　　　　赤，緑格子，赤袖　　　　　　　　　　　　　　　　　　　　　　　　　　　　　　　　　　　　　　　　　　　　　　　　　　　　570000000043900000千葉津代　　　　00498+004010100013541        0000000000000000000000000000000000000000001999190016ブリッシュラック　　　　　　　　　　0000000000　　　　　　　　　　　　　　　　　　0000000000　　　　　　　　　　　　　　　　　　+017000000000000000000
SEB2005063020050515M00000090010000000000EPALO                               00110006000000シュッツ000000　　　　　　　　　　　　　　　　　　　　　　　　　　　　　　　　　　　　　　　　　　　　　　　　　　　　　　　　　　　　　　　　　　　　　　　　　　　　　　　　　　　　　　　　　　　　570000000000000000シュタル　　　　00512    00808000000 34      0000000000000000000000000000000000000000000000000000MUMMIFY                             0000000000　　　　　　　　　　　　　　　　　　0000000000　　　　　　　　　　　　　　　　　　0000000000000000000000
SEB2005063020050515M00000090020000000000MUMMIFY                             00310006000000フリード000000　　　　　　　　　　　　　　　　　　　　　　　　　　　　　　　　　　　　　　　　　　　　　　　　　　　　　　　　　　　　　　　　　　　　　　　　　　　　　　　　　　　　　　　　　　　　570000000000000000ニコリッ　　　　00516    00101002050         0000000000000000000000000000000000000000002000190005フェニックスリーチ　　　　　　　　　0000000000　　　　　　　　　　　　　　　　　　0000000000　　　　　　　　　　　　　　　　　　0000000000000000000000
SEB2005063020050515M00000090032000190005フェニックスリーチ　　　　　　　　　00110305005519ボールデ689800ウィンターベック・マノー・スタッド　　　　　　　　　　　　　　　　　　　　　　　　　　　　　　　　　　　　　　　　　　　　　　　　　　　　　　　　　　　　　　　　　　　　　　　　　　　570000000000000000ドワイヤ　　　　00477    00202000000 34      0000000000000000000000000000000000000000000000000000MUMMIFY                             0000000000　　　　　　　　　　　　　　　　　　0000000000　　　　　　　　　　　　　　　　　　0000000000000000000000
SEB2005063020050515M00000090040000000000RIGHT APPROACH                      00110006000000デコック000000　　　　　　　　　　　　　　　　　　　　　　　　　　　　　　　　　　　　　　　　　　　　　　　　　　　　　　　　　　　　　　　　　　　　　　　　　　　　　　　　　　　　　　　　　　　　570000000000000000マーウィ　　　　00474    00404000000114      0000000000000000000000000000000000000000000000000000MUMMIFY                             0000000000　　　　　　　　　　　　　　　　　　0000000000　　　　　　　　　　　　　　　　　　0000000000000000000000
SEB2005063020050515M00000090050000000000STAR OVER THE BAY                   00310007000000ミッチェ000000　　　　　　　　　　　　　　　　　　　　　　　　　　　　　　　　　　　　　　　　　　　　　　　　　　　　　　　　　　　　　　　　　　　　　　　　　　　　　　　　　　　　　　　　　　　　570000000000000000ベイズ　　　　　00507    40000000000         0000000000000000000000000000000000000009990000000000MUMMIFY                             0000000000　　　　　　　　　　　　　　　　　　0000000000　　　　　　　　　　　　　　　　　　9999000000000000000000
SEB2005063020050515M00000090062001110220シーキングザダイヤ　　　　　　　　　06110304200427森秀行　015008青山　洋一　　　　　　　　　　　　　　　　　　　　　　　　　　　白，青ダイヤモンド　　　　　　　　　　　　　　　　　　　　　　　　　　　　　　　　　　　　　　　　　　　　　　　　　　　570000000000000000ボス　　　　　　00489    007070000001        0000000000000000000000000000000000000000000000000000MUMMIFY                             0000000000　　　　　　　　　　　　　　　　　　0000000000　　　　　　　　　　　　　　　　　　0000000000000000000000
SEB2005063020050515M00000090070000000000EXCALIBUR                           00110005000000デコック000000　　　　　　　　　　　　　　　　　　　　　　　　　　　　　　　　　　　　　　　　　　　　　　　　　　　　　　　　　　　　　　　　　　　　　　　　　　　　　　　　　　　　　　　　　　　　570000000000000000ヴォース　　　　00488    005050000002        0000000000000000000000000000000000000000000000000000MUMMIFY                             0000000000　　　　　　　　　　　　　　　　　　0000000000　　　　　　　　　　　　　　　　　　0000000000000000000000
SEB2005063020050515M00000090080000000000MAYO'S MUSIC                        00310008000000マー　　000000　　　　　　　　　　　　　　　　　　　　　　　　　　　　　　　　　　　　　　　　　　　　　　　　　　　　　　　　　　　　　　　　　　　　　　　　　　　　　　　　　　　　　　　　　　　　570000000000000000サイミー　　　　00516    01414000000T        0000000000000000000000000000000000000000000000000000MUMMIFY                             0000000000　　　　　　　　　　　　　　　　　　0000000000　　　　　　　　　　　　　　　　　　0000000000000000000000
SEB2005063020050515M00000090090000000000RAUL                                00310006000000ラクソン000000　　　　　　　　　　　　　　　　　　　　　　　　　　　　　　　　　　　　　　　　　　　　　　　　　　　　　　　　　　　　　　　　　　　　　　　　　　　　　　　　　　　　　　　　　　　　570000000000000000ダイ　　　　　　00481    01212000000 14      0000000000000000000000000000000000000000000000000000MUMMIFY                             0000000000　　　　　　　　　　　　　　　　　　0000000000　　　　　　　　　　　　　　　　　　0000000000000000000000
SEB2005063020050515M00000090100000000000LIGHT OF SUCCESS                    00310006000000トレロア000000　　　　　　　　　　　　　　　　　　　　　　　　　　　　　　　　　　　　　　　　　　　　　　　　　　　　　　　　　　　　　　　　　　　　　　　　　　　　　　　　　　　　　　　　　　　　570000000000000000ペイ　　　　　　00504    010100000004        0000000000000000000000000000000000000000000000000000MUMMIFY                             0000000000　　　　　　　　　　　　　　　　　　0000000000　　　　　　　　　　　　　　　　　　0000000000000000000000
SEB2005063020050515M00000090110000000000MOUNT STREET                        00310005000000ラクソン000000　　　　　　　　　　　　　　　　　　　　　　　　　　　　　　　　　　　　　　　　　　　　　　　　　　　　　　　　　　　　　　　　　　　　　　　　　　　　　　　　　　　　　　　　　　　　570000000000000000ワデル　　　　　00502    01111000000T        0000000000000000000000000000000000000000000000000000MUMMIFY                             0000000000　　　　　　　　　　　　　　　　　　0000000000　　　　　　　　　　　　　　　　　　0000000000000000000000
SEB2005063020050515M00000090120000000000TERFEL                              00310006000000マーフィ000000　　　　　　　　　　　　　　　　　　　　　　　　　　　　　　　　　　　　　　　　　　　　　　　　　　　　　　　　　　　　　　　　　　　　　　　　　　　　　　　　　　　　　　　　　　　　570000000000000000パンパ　　　　　00461    00606000000134      0000000000000000000000000000000000000000000000000000MUMMIFY                             0000000000　　　　　　　　　　　　　　　　　　0000000000　　　　　　　　　　　　　　　　　　0000000000000000000000
SEB2005063020050515M00000090130000000000ALEXANDER GOLDRUN                   00210004000000ボルジャ000000　　　　　　　　　　　　　　　　　　　　　　　　　　　　　　　　　　　　　　　　　　　　　　　　　　　　　　　　　　　　　　　　　　　　　　　　　　　　　　　　　　　　　　　　　　　　555000000000000000マニング　　　　00420    00303000000234      0000000000000000000000000000000000000000000000000000MUMMIFY                             0000000000　　　　　　　　　　　　　　　　　　0000000000　　　　　　　　　　　　　　　　　　0000000000000000000000
SEB2005063020050515M00000090140000000000SAMANDO                             00210005000000ドゥーメ000000　　　　　　　　　　　　　　　　　　　　　　　　　　　　　　　　　　　　　　　　　　　　　　　　　　　　　　　　　　　　　　　　　　　　　　　　　　　　　　　　　　　　　　　　　　　　555000000000000000ルグリ　　　　　00403    00909000000314      0000000000000000000000000000000000000000000000000000MUMMIFY                             0000000000　　　　　　　　　　　　　　　　　　0000000000　　　　　　　　　　　　　　　　　　0000000000000000000000
SEB2005063020050515M00000090150000000000SHAGGADELIC                         00110004000000ショー　000000　　　　　　　　　　　　　　　　　　　　　　　　　　　　　　　　　　　　　　　　　　　　　　　　　　　　　　　　　　　　　　　　　　　　　　　　　　　　　　　　　　　　　　　　　　　　545000000000000000デュプレ　　　　00481    01313000000 34      0000000000000000000000000000000000000000000000000000MUMMIFY                             0000000000　　　　　　　　　　　　　　　　　　0000000000　　　　　　　　　　　　　　　　　　0000000000000000000000
SEB2005063020050618A60000030010000000000AUTONIUS PIUS                       00110004000000オブライ000000　　　　　　　　　　　　　　　　　　　　　　　　　　　　　　　　　　　　　　　　　　　　　　　　　　　　　　　　　　　　　　　　　　　　　　　　　　　　　　　　　　　　　　　　　　　　590000000000000000ファロン　　　　00       01515000000K        0000000000000000000000000000000000000000001998190012ケープオブグッドホープ　　　　　　　0000000000　　　　　　　　　　　　　　　　　　0000000000　　　　　　　　　　　　　　　　　　0000000000000000000000
SEB2005063020050618A60000030020000000000BAHAMIAN PIRATE                     00310010000000ニコルス000000　　　　　　　　　　　　　　　　　　　　　　　　　　　　　　　　　　　　　　　　　　　　　　　　　　　　　　　　　　　　　　　　　　　　　　　　　　　　　　　　　　　　　　　　　　　　590000000000000000ヒューズ　　　　00       10000000000         0000000000000000000000000000000000000009991998190012ケープオブグッドホープ　　　　　　　0000000000　　　　　　　　　　　　　　　　　　0000000000　　　　　　　　　　　　　　　　　　9999000000000000000000
SEB2005063020050618A60000030030000000000BALMONT                             00110004000000ノジーダ000000　　　　　　　　　　　　　　　　　　　　　　　　　　　　　　　　　　　　　　　　　　　　　　　　　　　　　　　　　　　　　　　　　　　　　　　　　　　　　　　　　　　　　　　　　　　　590000000000000000スミヨン　　　　00       00303000000112      0000000000000000000000000000000000000000001998190012ケープオブグッドホープ　　　　　　　0000000000　　　　　　　　　　　　　　　　　　0000000000　　　　　　　　　　　　　　　　　　0000000000000000000000
SEB2005063020050618A60000030040000000000BYRON                               00110004000000スルール000000　　　　　　　　　　　　　　　　　　　　　　　　　　　　　　　　　　　　　　　　　　　　　　　　　　　　　　　　　　　　　　　　　　　　　　　　　　　　　　　　　　　　　　　　　　　　590000000000000000マカヴォ　　　　00       00606000000 34      0000000000000000000000000000000000000000001998190012ケープオブグッドホープ　　　　　　　0000000000　　　　　　　　　　　　　　　　　　0000000000　　　　　　　　　　　　　　　　　　0000000000000000000000
SEB2005063020050618A60000030051998190012ケープオブグッドホープ　　　　　　　00310107005513オートン573008Ｊ．カステアズ　　　　　　　　　　　　　　　　　　　　　　　　　　　　　　　　　　　　　　　　　　　　　　　　　　　　　　　　　　　　　　　　　　　　　　　　　　　　　　　　　　　　　590000000000000000キネーンロビンソ00       00101001085         0000000000000000000000000000000000000000000000000000GALEOTA                             0000000000　　　　　　　　　　　　　　　　　　0000000000　　　　　　　　　　　　　　　　　　0000000000000000000000
SEB2005063020050618A60000030061999110175キーンランドスワン　　　　　　　　　06110106200427森秀行　951005平井　豊光　　　　　　　　　　　　　　　　　　　　　　　　　　　赤，黒縦縞，黒袖　　　　　　　　　　　　　　　　　　　　　　　　　　　　　　　　　　　　　　　　　　　　　　　　　　　　590000000000000000スボリッ　　　　00       010100000002        0000000000000000000000000000000000000000001998190012ケープオブグッドホープ　　　　　　　0000000000　　　　　　　　　　　　　　　　　　0000000000　　　　　　　　　　　　　　　　　　0000000000000000000000
SEB2005063020050618A60000030070000000000MIGHTY BEAU                         00310006000000マリンズ000000　　　　　　　　　　　　　　　　　　　　　　　　　　　　　　　　　　　　　　　　　　　　　　　　　　　　　　　　　　　　　　　　　　　　　　　　　　　　　　　　　　　　　　　　　　　　590000000000000000ニュエッ　　　　00       01111000000134      0000000000000000000000000000000000000000001998190012ケープオブグッドホープ　　　　　　　0000000000　　　　　　　　　　　　　　　　　　0000000000　　　　　　　　　　　　　　　　　　0000000000000000000000
SEB2005063020050618A60000030080000000000ORIENTOR                            00110007000000ゴルディ000000　　　　　　　　　　　　　　　　　　　　　　　　　　　　　　　　　　　　　　　　　　　　　　　　　　　　　　　　　　　　　　　　　　　　　　　　　　　　　　　　　　　　　　　　　　　　590000000000000000ウィンス　　　　00       012120000002        0000000000000000000000000000000000000000001998190012ケープオブグッドホープ　　　　　　　0000000000　　　　　　　　　　　　　　　　　　0000000000　　　　　　　　　　　　　　　　　　0000000000000000000000
SEB2005063020050618A60000030090000000000PATAVELLIAN                         00310007000000チャール000000　　　　　　　　　　　　　　　　　　　　　　　　　　　　　　　　　　　　　　　　　　　　　　　　　　　　　　　　　　　　　　　　　　　　　　　　　　　　　　　　　　　　　　　　　　　　590000000000000000ドラウン　　　　00       10000000000         0000000000000000000000000000000000000009991998190012ケープオブグッドホープ　　　　　　　0000000000　　　　　　　　　　　　　　　　　　0000000000　　　　　　　　　　　　　　　　　　9999000000000000000000
SEB2005063020050618A60000030100000000000QUITO                               00110008000000チャップ000000　　　　　　　　　　　　　　　　　　　　　　　　　　　　　　　　　　　　　　　　　　　　　　　　　　　　　　　　　　　　　　　　　　　　　　　　　　　　　　　　　　　　　　　　　　　　590000000000000000カルハン　　　　00       00909000000 12      0000000000000000000000000000000000000000001998190012ケープオブグッドホープ　　　　　　　0000000000　　　　　　　　　　　　　　　　　　0000000000　　　　　　　　　　　　　　　　　　0000000000000000000000
SEB2005063020050618A60000030110000000000ROYAL MILLENNIUM                    00310007000000シャノン000000　　　　　　　　　　　　　　　　　　　　　　　　　　　　　　　　　　　　　　　　　　　　　　　　　　　　　　　　　　　　　　　　　　　　　　　　　　　　　　　　　　　　　　　　　　　　590000000000000000ダーカン　　　　00       004040000003        0000000000000000000000000000000000000000001998190012ケープオブグッドホープ　　　　　　　0000000000　　　　　　　　　　　　　　　　　　0000000000　　　　　　　　　　　　　　　　　　0000000000000000000000
SEB2005063020050618A60000030120000000000SOMNUS                              00310005000000イースタ000000　　　　　　　　　　　　　　　　　　　　　　　　　　　　　　　　　　　　　　　　　　　　　　　　　　　　　　　　　　　　　　　　　　　　　　　　　　　　　　　　　　　　　　　　　　　　590000000000000000キネーン　　　　00       10000000000         0000000000000000000000000000000000000009991998190012ケープオブグッドホープ　　　　　　　0000000000　　　　　　　　　　　　　　　　　　0000000000　　　　　　　　　　　　　　　　　　9999000000000000000000
SEB2005063020050618A60000030130000000000STEENBERG                           00310006000000トンプキ000000　　　　　　　　　　　　　　　　　　　　　　　　　　　　　　　　　　　　　　　　　　　　　　　　　　　　　　　　　　　　　　　　　　　　　　　　　　　　　　　　　　　　　　　　　　　　590000000000000000カラン　　　　　00       10000000000         0000000000000000000000000000000000000009991998190012ケープオブグッドホープ　　　　　　　0000000000　　　　　　　　　　　　　　　　　　0000000000　　　　　　　　　　　　　　　　　　9999000000000000000000
SEB2005063020050618A60000030140000000000THE KIDDYKID                        00310005000000エヴァン000000　　　　　　　　　　　　　　　　　　　　　　　　　　　　　　　　　　　　　　　　　　　　　　　　　　　　　　　　　　　　　　　　　　　　　　　　　　　　　　　　　　　　　　　　　　　　590000000000000000スペンサ　　　　00       01313000000114      0000000000000000000000000000000000000000001998190012ケープオブグッドホープ　　　　　　　0000000000　　　　　　　　　　　　　　　　　　0000000000　　　　　　　　　　　　　　　　　　0000000000000000000000
SEB2005063020050618A60000030150000000000THE TATLING                         00310008000000ブラッド000000　　　　　　　　　　　　　　　　　　　　　　　　　　　　　　　　　　　　　　　　　　　　　　　　　　　　　　　　　　　　　　　　　　　　　　　　　　　　　　　　　　　　　　　　　　　　590000000000000000ホランド　　　　00       00808000000 12      0000000000000000000000000000000000000000001998190012ケープオブグッドホープ　　　　　　　0000000000　　　　　　　　　　　　　　　　　　0000000000　　　　　　　　　　　　　　　　　　0000000000000000000000
SEB2005063020050618A60000030160000000000THE TRADER                          00310007000000ブランシ000000　　　　　　　　　　　　　　　　　　　　　　　　　　　　　　　　　　　　　　　　　　　　　　　　　　　　　　　　　　　　　　　　　　　　　　　　　　　　　　　　　　　　　　　　　　　　590000000000000000ダーレー　　　　00       10000000000         0000000000000000000000000000000000000009991998190012ケープオブグッドホープ　　　　　　　0000000000　　　　　　　　　　　　　　　　　　0000000000　　　　　　　　　　　　　　　　　　9999000000000000000000
SEB2005063020050618A60000030170000000000VAR                                 00110006000000ブリテン000000　　　　　　　　　　　　　　　　　　　　　　　　　　　　　　　　　　　　　　　　　　　　　　　　　　　　　　　　　　　　　　　　　　　　　　　　　　　　　　　　　　　　　　　　　　　　590000000000000000ムルタ　　　　　00       00505000000 34      0000000000000000000000000000000000000000001998190012ケープオブグッドホープ　　　　　　　0000000000　　　　　　　　　　　　　　　　　　0000000000　　　　　　　　　　　　　　　　　　0000000000000000000000
SEB2005063020050618A60000030180000000000CAPTAIN HURRICANE                   00110003000000チャップ000000　　　　　　　　　　　　　　　　　　　　　　　　　　　　　　　　　　　　　　　　　　　　　　　　　　　　　　　　　　　　　　　　　　　　　　　　　　　　　　　　　　　　　　　　　　　　555000000000000000フォーチ　　　　00       01414000000112      0000000000000000000000000000000000000000001998190012ケープオブグッドホープ　　　　　　　0000000000　　　　　　　　　　　　　　　　　　0000000000　　　　　　　　　　　　　　　　　　0000000000000000000000
SEB2005063020050618A60000030190000000000ETLAALA                             00110003000000ヒルズ　000000　　　　　　　　　　　　　　　　　　　　　　　　　　　　　　　　　　　　　　　　　　　　　　　　　　　　　　　　　　　　　　　　　　　　　　　　　　　　　　　　　　　　　　　　　　　　555000000000000000ヒルズ　　　　　00       00707000000112      0000000000000000000000000000000000000000001998190012ケープオブグッドホープ　　　　　　　0000000000　　　　　　　　　　　　　　　　　　0000000000　　　　　　　　　　　　　　　　　　0000000000000000000000
SEB2005063020050618A60000030200000000000GALEOTA                             00110003000000ハノン　000000　　　　　　　　　　　　　　　　　　　　　　　　　　　　　　　　　　　　　　　　　　　　　　　　　　　　　　　　　　　　　　　　　　　　　　　　　　　　　　　　　　　　　　　　　　　　555000000000000000ムーア　　　　　00       00202000000A        0000000000000000000000000000000000000000001998190012ケープオブグッドホープ　　　　　　　0000000000　　　　　　　　　　　　　　　　　　0000000000　　　　　　　　　　　　　　　　　　0000000000000000000000
SEB2005092920050205B60000060011998190012ケープオブグッドホープ　　　　　　　00310107005513オートン573008Ｊ．カステアズ　　　　　　　　　　　　　　　　　　　　　　　　　　　　　　　　　　　　　　　　　　　　　　　　　　　　　　　　　　　　　　　　　　　　　　　　　　　　　　　　　　　　　575000000000000000キネーン　　　　00       003030005751        0000000000000000000000000000000000000000000000000000FASTNET ROCK                        0000000000　　　　　　　　　　　　　　　　　　0000000000　　　　　　　　　　　　　　　　　　+002000000000000000000
SEB2005092620050219B60000060011998190012ケープオブグッドホープ　　　　　　　00310107005513オートン573008Ｊ．カステアズ　　　　　　　　　　　　　　　　　　　　　　　　　　　　　　　　　　　　　　　　　　　　　　　　　　　　　　　　　　　　　　　　　　　　　　　　　　　　　　　　　　　　　575000000000000000プレブル　　　　00       00101001103         0000000000000000000000000000000000000000000000000000SUPER ELEGANT                       0000000000　　　　　　　　　　　　　　　　　　0000000000　　　　　　　　　　　　　　　　　　0000000000000000000000
SEB2005092920050514G00000060050000000000SUPER KID                           00110006000000サイズ　000000　　　　　　　　　　　　　　　　　　　　　　　　　　　　　　　　　　　　　　　　　　　　　　　　　　　　　　　　　　　　　　　　　　　　　　　　　　　　　　　　　　　　　　　　　　　　570000000000000000スコフィ　　　　00536    00505001342 14      0000000000000000000000000000000000000000001999190016ブリッシュラック　　　　　　　　　　0000000000　　　　　　　　　　　　　　　　　　0000000000　　　　　　　　　　　　　　　　　　+005000000000000000000
SEB2005092920050614A60000020011998190012ケープオブグッドホープ　　　　　　　00310107005513オートン573008Ｊ．カステアズ　　　　　　　　　　　　　　　　　　　　　　　　　　　　　　　　　　　　　　　　　　　　　　　　　　　　　　　　　　　　　　　　　　　　　　　　　　　　　　　　　　　　　605000000000000000キネーン　　　　00       00404000578H        0000000000000000000000000000000000000000000000000000CHINEUR                             0000000000　　　　　　　　　　　　　　　　　　0000000000　　　　　　　　　　　　　　　　　　+003000000000000000000
SEB2005092220050703A40000080010000000000MEMORETTE                           00210003000000カリン　000000　　　　　　　　　　　　　　　　　　　　　　　　　　　　　　　　　　　　　　　　　　　　　　　　　　　　　　　　　　　　　　　　　　　　　　　　　　　　　　　　　　　　　　　　　　　　550000000000000000デザーモ　　　　00       006060000001        0000000000000000000000000000000000000000002002100844シーザリオ　　　　　　　　　　　　　0000000000　　　　　　　　　　　　　　　　　　0000000000　　　　　　　　　　　　　　　　　　0000000000000000000000
SEB2005092220050703A40000080020000000000HALLOWED DREAM                      00210003000000セシル　000000　　　　　　　　　　　　　　　　　　　　　　　　　　　　　　　　　　　　　　　　　　　　　　　　　　　　　　　　　　　　　　　　　　　　　　　　　　　　　　　　　　　　　　　　　　　　550000000000000000ヴァレン　　　　00       01212000000212      0000000000000000000000000000000000000000002002100844シーザリオ　　　　　　　　　　　　　0000000000　　　　　　　　　　　　　　　　　　0000000000　　　　　　　　　　　　　　　　　　0000000000000000000000
SEB2005092220050703A40000080030000000000THATSWHATIMEAN                      00210003000000ステュー000000　　　　　　　　　　　　　　　　　　　　　　　　　　　　　　　　　　　　　　　　　　　　　　　　　　　　　　　　　　　　　　　　　　　　　　　　　　　　　　　　　　　　　　　　　　　　550000000000000000フローレ　　　　00       010100000003        0000000000000000000000000000000000000000002002100844シーザリオ　　　　　　　　　　　　　0000000000　　　　　　　　　　　　　　　　　　0000000000　　　　　　　　　　　　　　　　　　0000000000000000000000
SEB2005092220050703A40000080040000000000ISLA COZZENE                        00210003000000ポランコ000000　　　　　　　　　　　　　　　　　　　　　　　　　　　　　　　　　　　　　　　　　　　　　　　　　　　　　　　　　　　　　　　　　　　　　　　　　　　　　　　　　　　　　　　　　　　　550000000000000000ナカタニ　　　　00       009090000001        0000000000000000000000000000000000000000002002100844シーザリオ　　　　　　　　　　　　　0000000000　　　　　　　　　　　　　　　　　　0000000000　　　　　　　　　　　　　　　　　　0000000000000000000000
SEB2005092220050703A40000080050000000000MELHOR AINDA                        00210003000000フランケ000000　　　　　　　　　　　　　　　　　　　　　　　　　　　　　　　　　　　　　　　　　　　　　　　　　　　　　　　　　　　　　　　　　　　　　　　　　　　　　　　　　　　　　　　　　　　　550000000000000000ヴェラス　　　　00       002020000004        0000000000000000000000000000000000000000002002100844シーザリオ　　　　　　　　　　　　　0000000000　　　　　　　　　　　　　　　　　　0000000000　　　　　　　　　　　　　　　　　　0000000000000000000000
SEB2005092220050703A40000080060000000000LUAS LINE                           00210003000000ワックマ000000　　　　　　　　　　　　　　　　　　　　　　　　　　　　　　　　　　　　　　　　　　　　　　　　　　　　　　　　　　　　　　　　　　　　　　　　　　　　　　　　　　　　　　　　　　　　550000000000000000ダグラス　　　　00       004040000001        0000000000000000000000000000000000000000002002100844シーザリオ　　　　　　　　　　　　　0000000000　　　　　　　　　　　　　　　　　　0000000000　　　　　　　　　　　　　　　　　　0000000000000000000000
SEB2005092220050703A40000080070000000000SILVER CUP                          00210003000000ボッティ000000　　　　　　　　　　　　　　　　　　　　　　　　　　　　　　　　　　　　　　　　　　　　　　　　　　　　　　　　　　　　　　　　　　　　　　　　　　　　　　　　　　　　　　　　　　　　550000000000000000スティー　　　　00       007070000002        0000000000000000000000000000000000000000002002100844シーザリオ　　　　　　　　　　　　　0000000000　　　　　　　　　　　　　　　　　　0000000000　　　　　　　　　　　　　　　　　　0000000000000000000000
SEB2005092220050703A40000080080000000000SILK AND SCARLET                    00210003000000オブライ000000　　　　　　　　　　　　　　　　　　　　　　　　　　　　　　　　　　　　　　　　　　　　　　　　　　　　　　　　　　　　　　　　　　　　　　　　　　　　　　　　　　　　　　　　　　　　550000000000000000エスピノ　　　　00       011110000004        0000000000000000000000000000000000000000002002100844シーザリオ　　　　　　　　　　　　　0000000000　　　　　　　　　　　　　　　　　　0000000000　　　　　　　　　　　　　　　　　　0000000000000000000000
SEB2005092220050703A40000080090000000000SWEET FIREBIRD                      00210003000000ウェルド000000　　　　　　　　　　　　　　　　　　　　　　　　　　　　　　　　　　　　　　　　　　　　　　　　　　　　　　　　　　　　　　　　　　　　　　　　　　　　　　　　　　　　　　　　　　　　550000000000000000ソリス　　　　　00       00808000000112      0000000000000000000000000000000000000000002002100844シーザリオ　　　　　　　　　　　　　0000000000　　　　　　　　　　　　　　　　　　0000000000　　　　　　　　　　　　　　　　　　0000000000000000000000
SEB2005092220050703A40000080100000000000LOUVAIN                             00210003000000フランケ000000　　　　　　　　　　　　　　　　　　　　　　　　　　　　　　　　　　　　　　　　　　　　　　　　　　　　　　　　　　　　　　　　　　　　　　　　　　　　　　　　　　　　　　　　　　　　550000000000000000ベイズ　　　　　00000    10000000000         0000000000000000000000000000000000000009992002100844シーザリオ　　　　　　　　　　　　　0000000000　　　　　　　　　　　　　　　　　　0000000000　　　　　　　　　　　　　　　　　　9999000000000000000000
SEB2005092220050703A40000080110000000000THREE DEGREES                       00210003000000ギャラハ000000　　　　　　　　　　　　　　　　　　　　　　　　　　　　　　　　　　　　　　　　　　　　　　　　　　　　　　　　　　　　　　　　　　　　　　　　　　　　　　　　　　　　　　　　　　　　550000000000000000ベイリー　　　　00       00505000000H        0000000000000000000000000000000000000000002002100844シーザリオ　　　　　　　　　　　　　0000000000　　　　　　　　　　　　　　　　　　0000000000　　　　　　　　　　　　　　　　　　0000000000000000000000
SEB2005092220050703A40000080120000000000SINGHALESE                          00210003000000キャシデ000000　　　　　　　　　　　　　　　　　　　　　　　　　　　　　　　　　　　　　　　　　　　　　　　　　　　　　　　　　　　　　　　　　　　　　　　　　　　　　　　　　　　　　　　　　　　　550000000000000000ゴメス　　　　　00       00303000000112      0000000000000000000000000000000000000000002002100844シーザリオ　　　　　　　　　　　　　0000000000　　　　　　　　　　　　　　　　　　0000000000　　　　　　　　　　　　　　　　　　0000000000000000000000
SEB2005092220050703A40000080132002100844シーザリオ　　　　　　　　　　　　　03210603201053角居勝彦486800キャロットファーム　　　　　　　　　　　　　　　　　　　　　　　緑，白二本輪，白袖赤一本輪　　　　　　　　　　　　　　　　　　　　　　　　　　　　　　　　　　　　　　　　　　　　　　　550000000101400000福永祐一　　　　00       00101001590         0000000000000000000000000000000000000000000000000000MELHOR AINDA                        0000000000　　　　　　　　　　　　　　　　　　0000000000　　　　　　　　　　　　　　　　　　0000000000000000000000
SEB2005092220050707A60000040010000000000ARAKAN                              00110005000000スタウト000000　　　　　　　　　　　　　　　　　　　　　　　　　　　　　　　　　　　　　　　　　　　　　　　　　　　　　　　　　　　　　　　　　　　　　　　　　　　　　　　　　　　　　　　　　　　　595000000000000000マカヴォ　　　　00       00808000000 12      0000000000000000000000000000000000000000000000000000PASTORAL PURSUITS                   0000000000　　　　　　　　　　　　　　　　　　0000000000　　　　　　　　　　　　　　　　　　0000000000000000000000
SEB2005092220050707A60000040021999190010アシュダウンエクスプレス　　　　　　00310106005514ウォール568008Ｗ．ジャクソン　　　　　　　　　　　　　　　　　　　　　　　　　　　　　　　　　　　　　　　　　　　　　　　　　　　　　　　　　　　　　　　　　　　　　　　　　　　　　　　　　　　　　595000000000000000クィン　　　　　00       00606000000K        0000000000000000000000000000000000000000000000000000PASTORAL PURSUITS                   0000000000　　　　　　　　　　　　　　　　　　0000000000　　　　　　　　　　　　　　　　　　0000000000000000000000
SEB2005092220050707A60000040030000000000AVONBRIDGE                          00110005000000チャール000000　　　　　　　　　　　　　　　　　　　　　　　　　　　　　　　　　　　　　　　　　　　　　　　　　　　　　　　　　　　　　　　　　　　　　　　　　　　　　　　　　　　　　　　　　　　　595000000000000000ドラウン　　　　00       00202000000112      0000000000000000000000000000000000000000000000000000PASTORAL PURSUITS                   0000000000　　　　　　　　　　　　　　　　　　0000000000　　　　　　　　　　　　　　　　　　0000000000000000000000
SEB2005092220050707A60000040040000000000BAHAMIAN PIRATE                     00310010000000ニコルス000000　　　　　　　　　　　　　　　　　　　　　　　　　　　　　　　　　　　　　　　　　　　　　　　　　　　　　　　　　　　　　　　　　　　　　　　　　　　　　　　　　　　　　　　　　　　　595000000000000000ウィンス　　　　00       00707000000 34      0000000000000000000000000000000000000000000000000000PASTORAL PURSUITS                   0000000000　　　　　　　　　　　　　　　　　　0000000000　　　　　　　　　　　　　　　　　　0000000000000000000000
SEB2005092220050707A60000040050000000000BALMONT                             00110004000000ノジーダ000000　　　　　　　　　　　　　　　　　　　　　　　　　　　　　　　　　　　　　　　　　　　　　　　　　　　　　　　　　　　　　　　　　　　　　　　　　　　　　　　　　　　　　　　　　　　　595000000000000000ムルタ　　　　　00       00505000000K        0000000000000000000000000000000000000000000000000000PASTORAL PURSUITS                   0000000000　　　　　　　　　　　　　　　　　　0000000000　　　　　　　　　　　　　　　　　　0000000000000000000000
SEB2005092220050707A60000040060000000000BOOGIE STREET                       00110004000000ハノン　000000　　　　　　　　　　　　　　　　　　　　　　　　　　　　　　　　　　　　　　　　　　　　　　　　　　　　　　　　　　　　　　　　　　　　　　　　　　　　　　　　　　　　　　　　　　　　595000000000000000ダーレイ　　　　00000    10000000000         0000000000000000000000000000000000000009990000000000PASTORAL PURSUITS                   0000000000　　　　　　　　　　　　　　　　　　0000000000　　　　　　　　　　　　　　　　　　9999000000000000000000
SEB2005092220050707A60000040070000000000IFFRAAJ                             00110004000000ジャービ000000　　　　　　　　　　　　　　　　　　　　　　　　　　　　　　　　　　　　　　　　　　　　　　　　　　　　　　　　　　　　　　　　　　　　　　　　　　　　　　　　　　　　　　　　　　　　595000000000000000ロビンソ　　　　00       01414000000K        0000000000000000000000000000000000000000000000000000PASTORAL PURSUITS                   0000000000　　　　　　　　　　　　　　　　　　0000000000　　　　　　　　　　　　　　　　　　0000000000000000000000
SEB2005092220050707A60000040081999110175キーンランドスワン　　　　　　　　　06110106200427森秀行　951005平井　豊光　　　　　　　　　　　　　　　　　　　　　　　　　　　赤，黒縦縞，黒袖　　　　　　　　　　　　　　　　　　　　　　　　　　　　　　　　　　　　　　　　　　　　　　　　　　　　595000000000000000スボリッ　　　　00       01212000000134      0000000000000000000000000000000000000000000000000000PASTORAL PURSUITS                   0000000000　　　　　　　　　　　　　　　　　　0000000000　　　　　　　　　　　　　　　　　　0000000000000000000000
SEB2005092220050707A60000040090000000000LEITRIM HOUSE                       00110004000000ミーハン000000　　　　　　　　　　　　　　　　　　　　　　　　　　　　　　　　　　　　　　　　　　　　　　　　　　　　　　　　　　　　　　　　　　　　　　　　　　　　　　　　　　　　　　　　　　　　595000000000000000フォーチ　　　　00       017170000001        0000000000000000000000000000000000000000000000000000PASTORAL PURSUITS                   0000000000　　　　　　　　　　　　　　　　　　0000000000　　　　　　　　　　　　　　　　　　0000000000000000000000
SEB2005092220050707A60000040100000000000MOSS VALE                           00110004000000ヒルズ　000000　　　　　　　　　　　　　　　　　　　　　　　　　　　　　　　　　　　　　　　　　　　　　　　　　　　　　　　　　　　　　　　　　　　　　　　　　　　　　　　　　　　　　　　　　　　　595000000000000000ヒルズ　　　　　00       01111000000K        0000000000000000000000000000000000000000000000000000PASTORAL PURSUITS                   0000000000　　　　　　　　　　　　　　　　　　0000000000　　　　　　　　　　　　　　　　　　0000000000000000000000
SEB2005092220050707A60000040110000000000PASTORAL PURSUITS                   00110004000000モリソン000000　　　　　　　　　　　　　　　　　　　　　　　　　　　　　　　　　　　　　　　　　　　　　　　　　　　　　　　　　　　　　　　　　　　　　　　　　　　　　　　　　　　　　　　　　　　　595000000000000000イーガン　　　　00       00101001118         0000000000000000000000000000000000000000000000000000AVONBRIDGE                          0000000000　　　　　　　　　　　　　　　　　　0000000000　　　　　　　　　　　　　　　　　　0000000000000000000000
SEB2005092220050707A60000040120000000000PIVOTAL POINT                       00310005000000マキン　000000　　　　　　　　　　　　　　　　　　　　　　　　　　　　　　　　　　　　　　　　　　　　　　　　　　　　　　　　　　　　　　　　　　　　　　　　　　　　　　　　　　　　　　　　　　　　595000000000000000ホランド　　　　00       01919000000 12      0000000000000000000000000000000000000000000000000000PASTORAL PURSUITS                   0000000000　　　　　　　　　　　　　　　　　　0000000000　　　　　　　　　　　　　　　　　　0000000000000000000000
SEB2005092220050707A60000040130000000000QUITO                               00110008000000チャップ000000　　　　　　　　　　　　　　　　　　　　　　　　　　　　　　　　　　　　　　　　　　　　　　　　　　　　　　　　　　　　　　　　　　　　　　　　　　　　　　　　　　　　　　　　　　　　595000000000000000カルハン　　　　00       00909000000 12      0000000000000000000000000000000000000000000000000000PASTORAL PURSUITS                   0000000000　　　　　　　　　　　　　　　　　　0000000000　　　　　　　　　　　　　　　　　　0000000000000000000000
SEB2005092220050707A60000040140000000000ROYAL MILLENNIUM                    00310007000000シャノン000000　　　　　　　　　　　　　　　　　　　　　　　　　　　　　　　　　　　　　　　　　　　　　　　　　　　　　　　　　　　　　　　　　　　　　　　　　　　　　　　　　　　　　　　　　　　　595000000000000000ダーカン　　　　00       01515000000 12      0000000000000000000000000000000000000000000000000000PASTORAL PURSUITS                   0000000000　　　　　　　　　　　　　　　　　　0000000000　　　　　　　　　　　　　　　　　　0000000000000000000000
SEB2005092220050707A60000040150000000000SOLDIER'S TALE                      00110004000000ノジーダ000000　　　　　　　　　　　　　　　　　　　　　　　　　　　　　　　　　　　　　　　　　　　　　　　　　　　　　　　　　　　　　　　　　　　　　　　　　　　　　　　　　　　　　　　　　　　　595000000000000000スペンサ　　　　00       00404000000112      0000000000000000000000000000000000000000000000000000PASTORAL PURSUITS                   0000000000　　　　　　　　　　　　　　　　　　0000000000　　　　　　　　　　　　　　　　　　0000000000000000000000
SEB2005092220050707A60000040160000000000SOMNUS                              00310005000000イースタ000000　　　　　　　　　　　　　　　　　　　　　　　　　　　　　　　　　　　　　　　　　　　　　　　　　　　　　　　　　　　　　　　　　　　　　　　　　　　　　　　　　　　　　　　　　　　　595000000000000000キネーン　　　　00       01313000000 34      0000000000000000000000000000000000000000000000000000PASTORAL PURSUITS                   0000000000　　　　　　　　　　　　　　　　　　0000000000　　　　　　　　　　　　　　　　　　0000000000000000000000
SEB2005092220050707A60000040170000000000THE TRADER                          00310007000000ブランシ000000　　　　　　　　　　　　　　　　　　　　　　　　　　　　　　　　　　　　　　　　　　　　　　　　　　　　　　　　　　　　　　　　　　　　　　　　　　　　　　　　　　　　　　　　　　　　595000000000000000ファロン　　　　00       01616000000 34      0000000000000000000000000000000000000000000000000000PASTORAL PURSUITS                   0000000000　　　　　　　　　　　　　　　　　　0000000000　　　　　　　　　　　　　　　　　　0000000000000000000000
SEB2005092220050707A60000040180000000000CAMACHO                             00110003000000セシル　000000　　　　　　　　　　　　　　　　　　　　　　　　　　　　　　　　　　　　　　　　　　　　　　　　　　　　　　　　　　　　　　　　　　　　　　　　　　　　　　　　　　　　　　　　　　　　565000000000000000ヒューズ　　　　00       01010000000K        0000000000000000000000000000000000000000000000000000PASTORAL PURSUITS                   0000000000　　　　　　　　　　　　　　　　　　0000000000　　　　　　　　　　　　　　　　　　0000000000000000000000
SEB2005092220050707A60000040190000000000ETLAALA                             00110003000000ヒルズ　000000　　　　　　　　　　　　　　　　　　　　　　　　　　　　　　　　　　　　　　　　　　　　　　　　　　　　　　　　　　　　　　　　　　　　　　　　　　　　　　　　　　　　　　　　　　　　565000000000000000ヒルズ　　　　　00       00303000000112      0000000000000000000000000000000000000000000000000000PASTORAL PURSUITS                   0000000000　　　　　　　　　　　　　　　　　　0000000000　　　　　　　　　　　　　　　　　　0000000000000000000000
SEB2005092220050707A60000040200000000000GALEOTA                             00110003000000ハノン　000000　　　　　　　　　　　　　　　　　　　　　　　　　　　　　　　　　　　　　　　　　　　　　　　　　　　　　　　　　　　　　　　　　　　　　　　　　　　　　　　　　　　　　　　　　　　　565000000000000000ムーア　　　　　00       01818000000212      0000000000000000000000000000000000000000000000000000PASTORAL PURSUITS                   0000000000　　　　　　　　　　　　　　　　　　0000000000　　　　　　　　　　　　　　　　　　0000000000000000000000
SEB2005092220050816A60000040010000000000ACE                                 00110004000000オブライ000000　　　　　　　　　　　　　　　　　　　　　　　　　　　　　　　　　　　　　　　　　　　　　　　　　　　　　　　　　　　　　　　　　　　　　　　　　　　　　　　　　　　　　　　　　　　　595000000000000000ファロン　　　　00       00404000000 12      0000000000000000000000000000000000000000000000000000ELECTROCUTIONIST                    0000000000　　　　　　　　　　　　　　　　　　0000000000　　　　　　　　　　　　　　　　　　0000000000000000000000
SEB2005092220050816A60000040020000000000DOYEN                               00110005000000ビン・ス000000　　　　　　　　　　　　　　　　　　　　　　　　　　　　　　　　　　　　　　　　　　　　　　　　　　　　　　　　　　　　　　　　　　　　　　　　　　　　　　　　　　　　　　　　　　　　595000000000000000マカヴォ　　　　00       006060000009        0000000000000000000000000000000000000000000000000000ELECTROCUTIONIST                    0000000000　　　　　　　　　　　　　　　　　　0000000000　　　　　　　　　　　　　　　　　　0000000000000000000000
SEB2005092220050816A60000040030000000000ELECTROCUTIONIST                    00110004000000ヴァリア000000　　　　　　　　　　　　　　　　　　　　　　　　　　　　　　　　　　　　　　　　　　　　　　　　　　　　　　　　　　　　　　　　　　　　　　　　　　　　　　　　　　　　　　　　　　　　595000000000000000キネーン　　　　00       00101002074         0000000000000000000000000000000000000000002000101517ゼンノロブロイ　　　　　　　　　　　0000000000　　　　　　　　　　　　　　　　　　0000000000　　　　　　　　　　　　　　　　　　0000000000000000000000
SEB2005092220050816A60000040040000000000MARAAHEL                            00110004000000スタウト000000　　　　　　　　　　　　　　　　　　　　　　　　　　　　　　　　　　　　　　　　　　　　　　　　　　　　　　　　　　　　　　　　　　　　　　　　　　　　　　　　　　　　　　　　　　　　595000000000000000ヒルズ　　　　　00       00303000000A        0000000000000000000000000000000000000000000000000000ELECTROCUTIONIST                    0000000000　　　　　　　　　　　　　　　　　　0000000000　　　　　　　　　　　　　　　　　　0000000000000000000000
SEB2005092220050816A60000040050000000000NORSE DANCER                        00110005000000エルスワ000000　　　　　　　　　　　　　　　　　　　　　　　　　　　　　　　　　　　　　　　　　　　　　　　　　　　　　　　　　　　　　　　　　　　　　　　　　　　　　　　　　　　　　　　　　　　　595000000000000000イーガン　　　　00       005050000003        0000000000000000000000000000000000000000000000000000ELECTROCUTIONIST                    0000000000　　　　　　　　　　　　　　　　　　0000000000　　　　　　　　　　　　　　　　　　0000000000000000000000
SEB2005092220050816A60000040062000101517ゼンノロブロイ　　　　　　　　　　　00110405100386藤沢和雄260008大迫　久美子　　　　　　　　　　　　　　　　　　　　　　　　　　黄，袖緑一本輪，緑鋸歯形　　　　　　　　　　　　　　　　　　　　　　　　　　　　　　　　　　　　　　　　　　　　　　　　595000000066600000武豊　　　　　　00       00202000000K        0000000000000000000000000000000000000000000000000000ELECTROCUTIONIST                    0000000000　　　　　　　　　　　　　　　　　　0000000000　　　　　　　　　　　　　　　　　　0000000000000000000000
SEB2005092220050816A60000040070000000000NEW MORNING                         00210004000000ジャーヴ000000　　　　　　　　　　　　　　　　　　　　　　　　　　　　　　　　　　　　　　　　　　　　　　　　　　　　　　　　　　　　　　　　　　　　　　　　　　　　　　　　　　　　　　　　　　　　580000000000000000ロビンソ　　　　00       007070000006        0000000000000000000000000000000000000000000000000000ELECTROCUTIONIST                    0000000000　　　　　　　　　　　　　　　　　　0000000000　　　　　　　　　　　　　　　　　　0000000000000000000000
SEB2005092220050903B60000060010000000000UNDOUBTEDLY                         00110003000000カヴァナ000000　　　　　　　　　　　　　　　　　　　　　　　　　　　　　　　　　　　　　　　　　　　　　　　　　　　　　　　　　　　　　　　　　　　　　　　　　　　　　　　　　　　　　　　　　　　　555000000000000000ダン　　　　　　00       00303000000112      0000000000000000000000000000000000000000000000000000FEROCITY                            0000000000　　　　　　　　　　　　　　　　　　0000000000　　　　　　　　　　　　　　　　　　0000000000000000000000
SEB2005092220050903B60000060020000000000SEIDNAZAR                           00110003000000ムーディ000000　　　　　　　　　　　　　　　　　　　　　　　　　　　　　　　　　　　　　　　　　　　　　　　　　　　　　　　　　　　　　　　　　　　　　　　　　　　　　　　　　　　　　　　　　　　　555000000000000000ノレン　　　　　00000    10000000000         0000000000000000000000000000000000000009990000000000FEROCITY                            0000000000　　　　　　　　　　　　　　　　　　0000000000　　　　　　　　　　　　　　　　　　9999000000000000000000
SEB2005092220050903B60000060030000000000FEROCITY                            00110003000000オブライ000000　　　　　　　　　　　　　　　　　　　　　　　　　　　　　　　　　　　　　　　　　　　　　　　　　　　　　　　　　　　　　　　　　　　　　　　　　　　　　　　　　　　　　　　　　　　　555000000000000000アーノル　　　　00       00101001083         0000000000000000000000000000000000000000000000000000JADESCENT                           0000000000　　　　　　　　　　　　　　　　　　0000000000　　　　　　　　　　　　　　　　　　0000000000000000000000
SEB2005092220050903B60000060040000000000DANGER LOOMS                        00110003000000マッカー000000　　　　　　　　　　　　　　　　　　　　　　　　　　　　　　　　　　　　　　　　　　　　　　　　　　　　　　　　　　　　　　　　　　　　　　　　　　　　　　　　　　　　　　　　　　　　555000000000000000マーティ　　　　00       01010000000 34      0000000000000000000000000000000000000000000000000000FEROCITY                            0000000000　　　　　　　　　　　　　　　　　　0000000000　　　　　　　　　　　　　　　　　　0000000000000000000000
SEB2005092220050903B60000060052002110209ゼンノゴウシュウ　　　　　　　　　　06110303200427森秀行　260008大迫　久美子　　　　　　　　　　　　　　　　　　　　　　　　　　黄，袖緑一本輪，緑鋸歯形　　　　　　　　　　　　　　　　　　　　　　　　　　　　　　　　　　　　　　　　　　　　　　　　555000000504100000吉田稔　　　　　00       011110000007        0000000000000000000000000000000000000000000000000000FEROCITY                            0000000000　　　　　　　　　　　　　　　　　　0000000000　　　　　　　　　　　　　　　　　　0000000000000000000000
SEB2005092220050903B60000060060000000000WRITTEN TYCOON                      00110003000000ベッグ　000000　　　　　　　　　　　　　　　　　　　　　　　　　　　　　　　　　　　　　　　　　　　　　　　　　　　　　　　　　　　　　　　　　　　　　　　　　　　　　　　　　　　　　　　　　　　　555000000000000000ニコリッ　　　　00       00909000000 34      0000000000000000000000000000000000000000000000000000FEROCITY                            0000000000　　　　　　　　　　　　　　　　　　0000000000　　　　　　　　　　　　　　　　　　0000000000000000000000
SEB2005092220050903B60000060070000000000DIAMONDSONDINSIDE                   00310003000000マクラク000000　　　　　　　　　　　　　　　　　　　　　　　　　　　　　　　　　　　　　　　　　　　　　　　　　　　　　　　　　　　　　　　　　　　　　　　　　　　　　　　　　　　　　　　　　　　　555000000000000000ロウィラ　　　　00       00707000000K        0000000000000000000000000000000000000000000000000000FEROCITY                            0000000000　　　　　　　　　　　　　　　　　　0000000000　　　　　　　　　　　　　　　　　　0000000000000000000000
SEB2005092220050903B60000060080000000000PATERNITY                           00110003000000キース　000000　　　　　　　　　　　　　　　　　　　　　　　　　　　　　　　　　　　　　　　　　　　　　　　　　　　　　　　　　　　　　　　　　　　　　　　　　　　　　　　　　　　　　　　　　　　　555000000000000000カリー　　　　　00       008080000001        0000000000000000000000000000000000000000000000000000FEROCITY                            0000000000　　　　　　　　　　　　　　　　　　0000000000　　　　　　　　　　　　　　　　　　0000000000000000000000
SEB2005092220050903B60000060090000000000JENNINGS                            00110003000000モロニー000000　　　　　　　　　　　　　　　　　　　　　　　　　　　　　　　　　　　　　　　　　　　　　　　　　　　　　　　　　　　　　　　　　　　　　　　　　　　　　　　　　　　　　　　　　　　　555000000000000000チャイル　　　　00       01212000000214      0000000000000000000000000000000000000000000000000000FEROCITY                            0000000000　　　　　　　　　　　　　　　　　　0000000000　　　　　　　　　　　　　　　　　　0000000000000000000000
SEB2005092220050903B60000060100000000000TIRDLETTAR                          00110003000000ヘイズ　000000　　　　　　　　　　　　　　　　　　　　　　　　　　　　　　　　　　　　　　　　　　　　　　　　　　　　　　　　　　　　　　　　　　　　　　　　　　　　　　　　　　　　　　　　　　　　555000000000000000ウイリア　　　　00       006060000001        0000000000000000000000000000000000000000000000000000FEROCITY                            0000000000　　　　　　　　　　　　　　　　　　0000000000　　　　　　　　　　　　　　　　　　0000000000000000000000
SEB2005092220050903B60000060110000000000FASHIONS AFIELD                     00210003000000ウォータ000000　　　　　　　　　　　　　　　　　　　　　　　　　　　　　　　　　　　　　　　　　　　　　　　　　　　　　　　　　　　　　　　　　　　　　　　　　　　　　　　　　　　　　　　　　　　　530000000000000000ビーズリ　　　　00       00404000000K        0000000000000000000000000000000000000000000000000000FEROCITY                            0000000000　　　　　　　　　　　　　　　　　　0000000000　　　　　　　　　　　　　　　　　　0000000000000000000000
SEB2005092220050903B60000060120000000000JADESCENT                           00210003000000ホープ　000000　　　　　　　　　　　　　　　　　　　　　　　　　　　　　　　　　　　　　　　　　　　　　　　　　　　　　　　　　　　　　　　　　　　　　　　　　　　　　　　　　　　　　　　　　　　　530000000000000000シン　　　　　　00       00202000000 34      0000000000000000000000000000000000000000000000000000FEROCITY                            0000000000　　　　　　　　　　　　　　　　　　0000000000　　　　　　　　　　　　　　　　　　0000000000000000000000
SEB2005092220050903B60000060130000000000CHETWYND SOUTH                      00210003000000コンラン000000　　　　　　　　　　　　　　　　　　　　　　　　　　　　　　　　　　　　　　　　　　　　　　　　　　　　　　　　　　　　　　　　　　　　　　　　　　　　　　　　　　　　　　　　　　　　530000000000000000ツァーラ　　　　00       00505000000H        0000000000000000000000000000000000000000000000000000FEROCITY                            0000000000　　　　　　　　　　　　　　　　　　0000000000　　　　　　　　　　　　　　　　　　0000000000000000000000
SEB2005092220050903B60000070010000000000MUMMIFY                             00310006000000フリード000000　　　　　　　　　　　　　　　　　　　　　　　　　　　　　　　　　　　　　　　　　　　　　　　　　　　　　　　　　　　　　　　　　　　　　　　　　　　　　　　　　　　　　　　　　　　　580000000000000000アレン　　　　　00       00808000000H        0000000000000000000000000000000000000000000000000000CONFECTIONER                        0000000000　　　　　　　　　　　　　　　　　　0000000000　　　　　　　　　　　　　　　　　　0000000000000000000000
SEB2005092220050903B60000070020000000000GREY SONG                           00310007000000ヒューズ000000　　　　　　　　　　　　　　　　　　　　　　　　　　　　　　　　　　　　　　　　　　　　　　　　　　　　　　　　　　　　　　　　　　　　　　　　　　　　　　　　　　　　　　　　　　　　580000000000000000アーノル　　　　00       011110000002        0000000000000000000000000000000000000000000000000000CONFECTIONER                        0000000000　　　　　　　　　　　　　　　　　　0000000000　　　　　　　　　　　　　　　　　　0000000000000000000000
SEB2005092220050903B60000070031998101601フサイチオーレ　　　　　　　　　　　00110407200427森秀行　056002関口　房朗　　　　　　　　　　　　　　　　　　　　　　　　　　　赤，袖黄一本輪，黄鋸歯形　　　　　　　　　　　　　　　　　　　　　　　　　　　　　　　　　　　　　　　　　　　　　　　　580000000504100000吉田稔　　　　　00       01212000000 34      0000000000000000000000000000000000000000000000000000CONFECTIONER                        0000000000　　　　　　　　　　　　　　　　　　0000000000　　　　　　　　　　　　　　　　　　0000000000000000000000
SEB2005092220050903B60000070040000000000PERLIN                              00310006000000ロジャー000000　　　　　　　　　　　　　　　　　　　　　　　　　　　　　　　　　　　　　　　　　　　　　　　　　　　　　　　　　　　　　　　　　　　　　　　　　　　　　　　　　　　　　　　　　　　　580000000000000000ニコリッ　　　　00       00404000000A        0000000000000000000000000000000000000000000000000000CONFECTIONER                        0000000000　　　　　　　　　　　　　　　　　　0000000000　　　　　　　　　　　　　　　　　　0000000000000000000000
SEB2005092220050903B60000070050000000000FIRST CHARTER                       00110006000000ヘイズ　000000　　　　　　　　　　　　　　　　　　　　　　　　　　　　　　　　　　　　　　　　　　　　　　　　　　　　　　　　　　　　　　　　　　　　　　　　　　　　　　　　　　　　　　　　　　　　580000000000000000バスター　　　　00000    10000000000         0000000000000000000000000000000000000009990000000000CONFECTIONER                        0000000000　　　　　　　　　　　　　　　　　　0000000000　　　　　　　　　　　　　　　　　　9999000000000000000000
SEB2005092220050903B60000070060000000000CONFECTIONER                        00310005000000ヘイズ　000000　　　　　　　　　　　　　　　　　　　　　　　　　　　　　　　　　　　　　　　　　　　　　　　　　　　　　　　　　　　　　　　　　　　　　　　　　　　　　　　　　　　　　　　　　　　　580000000000000000ウイリア　　　　00       00101001358         0000000000000000000000000000000000000000000000000000FREE AT LAST                        0000000000　　　　　　　　　　　　　　　　　　0000000000　　　　　　　　　　　　　　　　　　0000000000000000000000
SEB2005092220050903B60000070070000000000OUR SMOKING JOE                     00310005000000フリード000000　　　　　　　　　　　　　　　　　　　　　　　　　　　　　　　　　　　　　　　　　　　　　　　　　　　　　　　　　　　　　　　　　　　　　　　　　　　　　　　　　　　　　　　　　　　　580000000000000000コーロウ　　　　00       00303000000H        0000000000000000000000000000000000000000000000000000CONFECTIONER                        0000000000　　　　　　　　　　　　　　　　　　0000000000　　　　　　　　　　　　　　　　　　0000000000000000000000
SEB2005092220050903B60000070080000000000KINDJHAL                            00110006000000ヘイズ　000000　　　　　　　　　　　　　　　　　　　　　　　　　　　　　　　　　　　　　　　　　　　　　　　　　　　　　　　　　　　　　　　　　　　　　　　　　　　　　　　　　　　　　　　　　　　　580000000000000000ダン　　　　　　00       01010000000 34      0000000000000000000000000000000000000000000000000000CONFECTIONER                        0000000000　　　　　　　　　　　　　　　　　　0000000000　　　　　　　　　　　　　　　　　　0000000000000000000000
SEB2005092220050903B60000070090000000000REFUTE                              00310006000000ロジャー000000　　　　　　　　　　　　　　　　　　　　　　　　　　　　　　　　　　　　　　　　　　　　　　　　　　　　　　　　　　　　　　　　　　　　　　　　　　　　　　　　　　　　　　　　　　　　580000000000000000ハイラン　　　　00       00606000000114      0000000000000000000000000000000000000000000000000000CONFECTIONER                        0000000000　　　　　　　　　　　　　　　　　　0000000000　　　　　　　　　　　　　　　　　　0000000000000000000000
SEB2005092220050903B60000070100000000000STELLA GRANDE                       00310004000000フリード000000　　　　　　　　　　　　　　　　　　　　　　　　　　　　　　　　　　　　　　　　　　　　　　　　　　　　　　　　　　　　　　　　　　　　　　　　　　　　　　　　　　　　　　　　　　　　575000000000000000キング　　　　　00       009090000001        0000000000000000000000000000000000000000000000000000CONFECTIONER                        0000000000　　　　　　　　　　　　　　　　　　0000000000　　　　　　　　　　　　　　　　　　0000000000000000000000
SEB2005092220050903B60000070110000000000DEMERGER                            00210005000000オブライ000000　　　　　　　　　　　　　　　　　　　　　　　　　　　　　　　　　　　　　　　　　　　　　　　　　　　　　　　　　　　　　　　　　　　　　　　　　　　　　　　　　　　　　　　　　　　　555000000000000000シン　　　　　　00       00707000000A        0000000000000000000000000000000000000000000000000000CONFECTIONER                        0000000000　　　　　　　　　　　　　　　　　　0000000000　　　　　　　　　　　　　　　　　　0000000000000000000000
SEB2005092220050903B60000070120000000000FREE AT LAST                        00210007000000マシュー000000　　　　　　　　　　　　　　　　　　　　　　　　　　　　　　　　　　　　　　　　　　　　　　　　　　　　　　　　　　　　　　　　　　　　　　　　　　　　　　　　　　　　　　　　　　　　555000000000000000ターナー　　　　00       00202000000112      0000000000000000000000000000000000000000000000000000CONFECTIONER                        0000000000　　　　　　　　　　　　　　　　　　0000000000　　　　　　　　　　　　　　　　　　0000000000000000000000
SEB2005092220050903B60000070130000000000HOLLOW BULLET                       00210004000000マッカー000000　　　　　　　　　　　　　　　　　　　　　　　　　　　　　　　　　　　　　　　　　　　　　　　　　　　　　　　　　　　　　　　　　　　　　　　　　　　　　　　　　　　　　　　　　　　　550000000000000000マーティ　　　　00       00505000000K        0000000000000000000000000000000000000000000000000000CONFECTIONER                        0000000000　　　　　　　　　　　　　　　　　　0000000000　　　　　　　　　　　　　　　　　　0000000000000000000000
SEB2005092620050910B60000060011997190015フィールズオブオマー　　　　　　　　00310308000000ヘイズ　121008Ｂ．マーティン　　　　　　　　　　　　　　　　　　　　　　　　　　　　　　　　　　　　　　　　　　　　　　　　　　　　　　　　　　　　　　　　　　　　　　　　　　　　　　　　　　　　　580000000000000000キング　　　　　00       00303000000 12      0000000000000000000000000000000000000000000000000000LAD OF THE MANOR                    0000000000　　　　　　　　　　　　　　　　　　0000000000　　　　　　　　　　　　　　　　　　0000000000000000000000
SEB2005092220050910B60000060020000000000ROMAN ARCH                          00310007000000ライング000000　　　　　　　　　　　　　　　　　　　　　　　　　　　　　　　　　　　　　　　　　　　　　　　　　　　　　　　　　　　　　　　　　　　　　　　　　　　　　　　　　　　　　　　　　　　　580000000000000000コーロウ　　　　00       00606000000         0000000000000000000000000000000000000000000000000000LAD OF THE MANOR                    0000000000　　　　　　　　　　　　　　　　　　0000000000　　　　　　　　　　　　　　　　　　0000000000000000000000
SEB2005092220050910B60000060030000000000LAD OF THE MANOR                    00310005000000ホイステ000000　　　　　　　　　　　　　　　　　　　　　　　　　　　　　　　　　　　　　　　　　　　　　　　　　　　　　　　　　　　　　　　　　　　　　　　　　　　　　　　　　　　　　　　　　　　　580000000000000000チャイル　　　　00       00101001376         0000000000000000000000000000000000000000001999190014マカイビーディーヴァ　　　　　　　　0000000000　　　　　　　　　　　　　　　　　　0000000000　　　　　　　　　　　　　　　　　　0000000000000000000000
SEB2005092220050910B60000060040000000000FRIGHTENING                         00110006000000カミング000000　　　　　　　　　　　　　　　　　　　　　　　　　　　　　　　　　　　　　　　　　　　　　　　　　　　　　　　　　　　　　　　　　　　　　　　　　　　　　　　　　　　　　　　　　　　　580000000000000000カイル　　　　　00       00808000000         0000000000000000000000000000000000000000000000000000LAD OF THE MANOR                    0000000000　　　　　　　　　　　　　　　　　　0000000000　　　　　　　　　　　　　　　　　　0000000000000000000000
SEB2005092220050910B60000060050000000000FIRST CHARTER                       00110006000000ヘイズ　000000　　　　　　　　　　　　　　　　　　　　　　　　　　　　　　　　　　　　　　　　　　　　　　　　　　　　　　　　　　　　　　　　　　　　　　　　　　　　　　　　　　　　　　　　　　　　580000000000000000バスター　　　　00       01212000000         0000000000000000000000000000000000000000000000000000LAD OF THE MANOR                    0000000000　　　　　　　　　　　　　　　　　　0000000000　　　　　　　　　　　　　　　　　　0000000000000000000000
SEB2005092220050910B60000060061998104051トーセンダンディ　　　　　　　　　　10110307200427森秀行　270006島川　隆哉　　　　　　　　　　　　　　　　　　　　　　　　　　　緑，青菱山形，青袖　　　　　　　　　　　　　　　　　　　　　　　　　　　　　　　　　　　　　　　　　　　　　　　　　　　580000000504100000吉田稔　　　　　00       01010000000A        0000000000000000000000000000000000000000000000000000LAD OF THE MANOR                    0000000000　　　　　　　　　　　　　　　　　　0000000000　　　　　　　　　　　　　　　　　　0000000000000000000000
SEB2005092220050910B60000060070000000000TSZYU                               00310005000000コーステ000000　　　　　　　　　　　　　　　　　　　　　　　　　　　　　　　　　　　　　　　　　　　　　　　　　　　　　　　　　　　　　　　　　　　　　　　　　　　　　　　　　　　　　　　　　　　　580000000000000000ライアン　　　　00       00909000000         0000000000000000000000000000000000000000000000000000LAD OF THE MANOR                    0000000000　　　　　　　　　　　　　　　　　　0000000000　　　　　　　　　　　　　　　　　　0000000000000000000000
SEB2005092220050910B60000060080000000000COUNT RICARDO                       00310004000000セオドー000000　　　　　　　　　　　　　　　　　　　　　　　　　　　　　　　　　　　　　　　　　　　　　　　　　　　　　　　　　　　　　　　　　　　　　　　　　　　　　　　　　　　　　　　　　　　　575000000000000000アレン　　　　　00       01111000000         0000000000000000000000000000000000000000000000000000LAD OF THE MANOR                    0000000000　　　　　　　　　　　　　　　　　　0000000000　　　　　　　　　　　　　　　　　　0000000000000000000000
SEB2005092220050910B60000060090000000000ACCUMULATE                          00310004000000カミング000000　　　　　　　　　　　　　　　　　　　　　　　　　　　　　　　　　　　　　　　　　　　　　　　　　　　　　　　　　　　　　　　　　　　　　　　　　　　　　　　　　　　　　　　　　　　　575000000000000000シン　　　　　　00       00707000000         0000000000000000000000000000000000000000000000000000LAD OF THE MANOR                    0000000000　　　　　　　　　　　　　　　　　　0000000000　　　　　　　　　　　　　　　　　　0000000000000000000000
SEB2005092220050910B60000060100000000000EL SEGUNDO                          00310004000000リトル　000000　　　　　　　　　　　　　　　　　　　　　　　　　　　　　　　　　　　　　　　　　　　　　　　　　　　　　　　　　　　　　　　　　　　　　　　　　　　　　　　　　　　　　　　　　　　　575000000000000000ガウチ　　　　　00       00404000000         0000000000000000000000000000000000000000000000000000LAD OF THE MANOR                    0000000000　　　　　　　　　　　　　　　　　　0000000000　　　　　　　　　　　　　　　　　　0000000000000000000000
SEB2005092220050910B60000060111999190014マカイビーディーヴァ　　　　　　　　00210306000859フリード705800エミリー・クリスティーナ・オーストラリア　　　　　　　　　　　　　　　　　　　　　　　　　　　　　　　　　　　　　　　　　　　　　　　　　　　　　　　　　　　　　　　　　　　　　　　　555000000000000000ボス　　　　　　00       00202000000H        0000000000000000000000000000000000000000000000000000LAD OF THE MANOR                    0000000000　　　　　　　　　　　　　　　　　　0000000000　　　　　　　　　　　　　　　　　　0000000000000000000000
SEB2005092220050910B60000060120000000000VOUVRAY                             00210005000000ムーディ000000　　　　　　　　　　　　　　　　　　　　　　　　　　　　　　　　　　　　　　　　　　　　　　　　　　　　　　　　　　　　　　　　　　　　　　　　　　　　　　　　　　　　　　　　　　　　555000000000000000シーマー　　　　00       00505000000         0000000000000000000000000000000000000000000000000000LAD OF THE MANOR                    0000000000　　　　　　　　　　　　　　　　　　0000000000　　　　　　　　　　　　　　　　　　0000000000000000000000
SEB2005092220050910B60000070010000000000SPARK OF LIFE                       00310005000000デンハム000000　　　　　　　　　　　　　　　　　　　　　　　　　　　　　　　　　　　　　　　　　　　　　　　　　　　　　　　　　　　　　　　　　　　　　　　　　　　　　　　　　　　　　　　　　　　　575000000000000000ボス　　　　　　00       00101001115         0000000000000000000000000000000000000000000000000000PERFECTLY READY                     0000000000　　　　　　　　　　　　　　　　　　0000000000　　　　　　　　　　　　　　　　　　0000000000000000000000
SEB2005092220050910B60000070020000000000FALKIRK                             00110005000000フリード000000　　　　　　　　　　　　　　　　　　　　　　　　　　　　　　　　　　　　　　　　　　　　　　　　　　　　　　　　　　　　　　　　　　　　　　　　　　　　　　　　　　　　　　　　　　　　575000000000000000コーロウ　　　　00       01010000000K        0000000000000000000000000000000000000000000000000000SPARK OF LIFE                       0000000000　　　　　　　　　　　　　　　　　　0000000000　　　　　　　　　　　　　　　　　　0000000000000000000000
SEB2005092220050910B60000070031996107658キングオブサンデー　　　　　　　　　00110409200427森秀行　820009鈴木　義孝　　　　　　　　　　　　　　　　　　　　　　　　　　　白，緑三本輪，袖緑一本輪　　　　　　　　　　　　　　　　　　　　　　　　　　　　　　　　　　　　　　　　　　　　　　　　575000000504100000吉田稔　　　　　00       012120000004        0000000000000000000000000000000000000000000000000000SPARK OF LIFE                       0000000000　　　　　　　　　　　　　　　　　　0000000000　　　　　　　　　　　　　　　　　　0000000000000000000000
SEB2005092220050910B60000070040000000000OUR EGYPTIAN RAINE                  00210007000000ベッグ　000000　　　　　　　　　　　　　　　　　　　　　　　　　　　　　　　　　　　　　　　　　　　　　　　　　　　　　　　　　　　　　　　　　　　　　　　　　　　　　　　　　　　　　　　　　　　　550000000000000000ロウィラ　　　　00       00303000000K        0000000000000000000000000000000000000000000000000000SPARK OF LIFE                       0000000000　　　　　　　　　　　　　　　　　　0000000000　　　　　　　　　　　　　　　　　　0000000000000000000000
SEB2005092220050910B60000070050000000000GLAMOUR PUSS                        00210005000000オブライ000000　　　　　　　　　　　　　　　　　　　　　　　　　　　　　　　　　　　　　　　　　　　　　　　　　　　　　　　　　　　　　　　　　　　　　　　　　　　　　　　　　　　　　　　　　　　　550000000000000000キング　　　　　00       00808000000H        0000000000000000000000000000000000000000000000000000SPARK OF LIFE                       0000000000　　　　　　　　　　　　　　　　　　0000000000　　　　　　　　　　　　　　　　　　0000000000000000000000
SEB2005092220050910B60000070060000000000STRIKELINE                          00210005000000メイフィ000000　　　　　　　　　　　　　　　　　　　　　　　　　　　　　　　　　　　　　　　　　　　　　　　　　　　　　　　　　　　　　　　　　　　　　　　　　　　　　　　　　　　　　　　　　　　　550000000000000000マーティ　　　　00       00505000000212      0000000000000000000000000000000000000000000000000000SPARK OF LIFE                       0000000000　　　　　　　　　　　　　　　　　　0000000000　　　　　　　　　　　　　　　　　　0000000000000000000000
SEB2005092220050910B60000070070000000000OUR QUIVIRA                         00210005000000ムーディ000000　　　　　　　　　　　　　　　　　　　　　　　　　　　　　　　　　　　　　　　　　　　　　　　　　　　　　　　　　　　　　　　　　　　　　　　　　　　　　　　　　　　　　　　　　　　　550000000000000000ノレン　　　　　00000    10000000000         0000000000000000000000000000000000000009990000000000SPARK OF LIFE                       0000000000　　　　　　　　　　　　　　　　　　0000000000　　　　　　　　　　　　　　　　　　0000000000000000000000
SEB2005092220050910B60000070080000000000EMLOZZA                             00210004000000ヌーナン000000　　　　　　　　　　　　　　　　　　　　　　　　　　　　　　　　　　　　　　　　　　　　　　　　　　　　　　　　　　　　　　　　　　　　　　　　　　　　　　　　　　　　　　　　　　　　550000000000000000ダン　　　　　　00       01111000000112      0000000000000000000000000000000000000000000000000000SPARK OF LIFE                       0000000000　　　　　　　　　　　　　　　　　　0000000000　　　　　　　　　　　　　　　　　　0000000000000000000000
SEB2005092220050910B60000070090000000000TRULY WICKED                        00210004000000メイフィ000000　　　　　　　　　　　　　　　　　　　　　　　　　　　　　　　　　　　　　　　　　　　　　　　　　　　　　　　　　　　　　　　　　　　　　　　　　　　　　　　　　　　　　　　　　　　　550000000000000000ニコリッ　　　　00       00909000000214      0000000000000000000000000000000000000000000000000000SPARK OF LIFE                       0000000000　　　　　　　　　　　　　　　　　　0000000000　　　　　　　　　　　　　　　　　　0000000000000000000000
SEB2005092220050910B60000070100000000000SNITZEL                             00110003000000ライアン000000　　　　　　　　　　　　　　　　　　　　　　　　　　　　　　　　　　　　　　　　　　　　　　　　　　　　　　　　　　　　　　　　　　　　　　　　　　　　　　　　　　　　　　　　　　　　510000000000000000シーマー　　　　00       00404000000K        0000000000000000000000000000000000000000000000000000SPARK OF LIFE                       0000000000　　　　　　　　　　　　　　　　　　0000000000　　　　　　　　　　　　　　　　　　0000000000000000000000
SEB2005092220050910B60000070110000000000DANERICH                            00110003000000ライング000000　　　　　　　　　　　　　　　　　　　　　　　　　　　　　　　　　　　　　　　　　　　　　　　　　　　　　　　　　　　　　　　　　　　　　　　　　　　　　　　　　　　　　　　　　　　　510000000000000000シン　　　　　　00       00606000000K        0000000000000000000000000000000000000000000000000000SPARK OF LIFE                       0000000000　　　　　　　　　　　　　　　　　　0000000000　　　　　　　　　　　　　　　　　　0000000000000000000000
SEB2005092220050910B60000070120000000000PERFECTLY READY                     00110003000000プライス000000　　　　　　　　　　　　　　　　　　　　　　　　　　　　　　　　　　　　　　　　　　　　　　　　　　　　　　　　　　　　　　　　　　　　　　　　　　　　　　　　　　　　　　　　　　　　510000000000000000バスター　　　　00       00202000000K        0000000000000000000000000000000000000000000000000000SPARK OF LIFE                       0000000000　　　　　　　　　　　　　　　　　　0000000000　　　　　　　　　　　　　　　　　　0000000000000000000000
SEB2005092220050910B60000070130000000000TESTAFIABLE                         00110003000000ムーディ000000　　　　　　　　　　　　　　　　　　　　　　　　　　　　　　　　　　　　　　　　　　　　　　　　　　　　　　　　　　　　　　　　　　　　　　　　　　　　　　　　　　　　　　　　　　　　510000000000000000ウイリア　　　　00       00707000000 12      0000000000000000000000000000000000000000000000000000SPARK OF LIFE                       0000000000　　　　　　　　　　　　　　　　　　0000000000　　　　　　　　　　　　　　　　　　0000000000000000000000
SEB2005092620050917B60000040010000000000UNDOUBTEDLY                         00110003000000カヴァナ000000　　　　　　　　　　　　　　　　　　　　　　　　　　　　　　　　　　　　　　　　　　　　　　　　　　　　　　　　　　　　　　　　　　　　　　　　　　　　　　　　　　　　　　　　　　　　575000000000000000ダン　　　　　　00       00606000000         0000000000000000000000000000000000000000000000000000APACHE CAT                          0000000000　　　　　　　　　　　　　　　　　　0000000000　　　　　　　　　　　　　　　　　　0000000000000000000000
SEB2005092620050917B60000040020000000000DANGER LOOMS                        00110003000000マッカー000000　　　　　　　　　　　　　　　　　　　　　　　　　　　　　　　　　　　　　　　　　　　　　　　　　　　　　　　　　　　　　　　　　　　　　　　　　　　　　　　　　　　　　　　　　　　　575000000000000000マーティ　　　　00       00404000000         0000000000000000000000000000000000000000000000000000APACHE CAT                          0000000000　　　　　　　　　　　　　　　　　　0000000000　　　　　　　　　　　　　　　　　　0000000000000000000000
SEB2005092620050917B60000040032002110209ゼンノゴウシュウ　　　　　　　　　　06110303200427森秀行　260008大迫　久美子　　　　　　　　　　　　　　　　　　　　　　　　　　黄，袖緑一本輪，緑鋸歯形　　　　　　　　　　　　　　　　　　　　　　　　　　　　　　　　　　　　　　　　　　　　　　　　575000000000000000ガウチ　　　　　00       00909000000T        0000000000000000000000000000000000000000000000000000APACHE CAT                          0000000000　　　　　　　　　　　　　　　　　　0000000000　　　　　　　　　　　　　　　　　　0000000000000000000000
SEB2005092620050917B60000040040000000000DANERICH                            00110003000000ライング000000　　　　　　　　　　　　　　　　　　　　　　　　　　　　　　　　　　　　　　　　　　　　　　　　　　　　　　　　　　　　　　　　　　　　　　　　　　　　　　　　　　　　　　　　　　　　575000000000000000コーロウ　　　　00       00303000000A        0000000000000000000000000000000000000000000000000000APACHE CAT                          0000000000　　　　　　　　　　　　　　　　　　0000000000　　　　　　　　　　　　　　　　　　0000000000000000000000
SEB2005092620050917B60000040050000000000DIAMONDSONDINSIDE                   00310003000000マクラク000000　　　　　　　　　　　　　　　　　　　　　　　　　　　　　　　　　　　　　　　　　　　　　　　　　　　　　　　　　　　　　　　　　　　　　　　　　　　　　　　　　　　　　　　　　　　　575000000000000000ロウィラ　　　　00       00808000000         0000000000000000000000000000000000000000000000000000APACHE CAT                          0000000000　　　　　　　　　　　　　　　　　　0000000000　　　　　　　　　　　　　　　　　　0000000000000000000000
SEB2005092620050917B60000040060000000000APACHE CAT                          00310003000000ユーレル000000　　　　　　　　　　　　　　　　　　　　　　　　　　　　　　　　　　　　　　　　　　　　　　　　　　　　　　　　　　　　　　　　　　　　　　　　　　　　　　　　　　　　　　　　　　　　575000000000000000ライアン　　　　00       00101001270         0000000000000000000000000000000000000000000000000000GOD'S OWN                           0000000000　　　　　　　　　　　　　　　　　　0000000000　　　　　　　　　　　　　　　　　　0000000000000000000000
SEB2005092620050917B60000040070000000000GOD'S OWN                           00110003000000カミング000000　　　　　　　　　　　　　　　　　　　　　　　　　　　　　　　　　　　　　　　　　　　　　　　　　　　　　　　　　　　　　　　　　　　　　　　　　　　　　　　　　　　　　　　　　　　　560000000000000000ボス　　　　　　00       00202000000 12      0000000000000000000000000000000000000000000000000000APACHE CAT                          0000000000　　　　　　　　　　　　　　　　　　0000000000　　　　　　　　　　　　　　　　　　0000000000000000000000
SEB2005092620050917B60000040080000000000PATERNITY                           00110003000000キース　000000　　　　　　　　　　　　　　　　　　　　　　　　　　　　　　　　　　　　　　　　　　　　　　　　　　　　　　　　　　　　　　　　　　　　　　　　　　　　　　　　　　　　　　　　　　　　540000000000000000カリー　　　　　00       00505000000         0000000000000000000000000000000000000000000000000000APACHE CAT                          0000000000　　　　　　　　　　　　　　　　　　0000000000　　　　　　　　　　　　　　　　　　0000000000000000000000
SEB2005092620050917B60000040090000000000MISTER PEDANTIC                     00310003000000コーステ000000　　　　　　　　　　　　　　　　　　　　　　　　　　　　　　　　　　　　　　　　　　　　　　　　　　　　　　　　　　　　　　　　　　　　　　　　　　　　　　　　　　　　　　　　　　　　540000000000000000バスター　　　　00       00707000000         0000000000000000000000000000000000000000000000000000APACHE CAT                          0000000000　　　　　　　　　　　　　　　　　　0000000000　　　　　　　　　　　　　　　　　　0000000000000000000000
SEB2005103120050326C70000070012001104554アジュディミツオー　　　　　　　　　00110304300874川島正行642008織戸　眞男　　　　　　　　　　　　　　　　　　　　　　　　　　　白，黒四ツ割，袖黒一本輪　　　　　　　　　　　　　　　　　　　　　　　　　　　　　　　　　　　　　　　　　　　　　　　　570000000042200000内田博幸　　　　00       006060020472        0000000000000000000000000000000000000000000000000000ROSES IN MAY                        0000000000　　　　　　　　　　　　　　　　　　0000000000　　　　　　　　　　　　　　　　　　+026000000000000000000
SEB2005102720050326C70000070020000000000CHIQUITIN                           00110004000000バートン000000　　　　　　　　　　　　　　　　　　　　　　　　　　　　　　　　　　　　　　　　　　　　　　　　　　　　　　　　　　　　　　　　　　　　　　　　　　　　　　　　　　　　　　　　　　　　570000000000000000キネーン　　　　00       01111002093214      0000000000000000000000000000000000000000000000000000ROSES IN MAY                        0000000000　　　　　　　　　　　　　　　　　　0000000000　　　　　　　　　　　　　　　　　　+072000000000000000000
SEB2005102720050326C70000070030000000000CHOCTAW NATION                      00310005000000マリンズ000000　　　　　　　　　　　　　　　　　　　　　　　　　　　　　　　　　　　　　　　　　　　　　　　　　　　　　　　　　　　　　　　　　　　　　　　　　　　　　　　　　　　　　　　　　　　　570000000000000000エスピノ　　　　00       00303002030114      0000000000000000000000000000000000000000000000000000ROSES IN MAY                        0000000000　　　　　　　　　　　　　　　　　　0000000000　　　　　　　　　　　　　　　　　　+009000000000000000000
SEB2005102720050326C70000070040000000000CONGRATS                            00110005000000マンデラ000000　　　　　　　　　　　　　　　　　　　　　　　　　　　　　　　　　　　　　　　　　　　　　　　　　　　　　　　　　　　　　　　　　　　　　　　　　　　　　　　　　　　　　　　　　　　　570000000000000000ベイズ　　　　　00       00505002045314      0000000000000000000000000000000000000000000000000000ROSES IN MAY                        0000000000　　　　　　　　　　　　　　　　　　0000000000　　　　　　　　　　　　　　　　　　+024000000000000000000
SEB2005102720050326C70000070050000000000DYNEVER                             00110005000000クレメン000000　　　　　　　　　　　　　　　　　　　　　　　　　　　　　　　　　　　　　　　　　　　　　　　　　　　　　　　　　　　　　　　　　　　　　　　　　　　　　　　　　　　　　　　　　　　　570000000000000000サントス　　　　00       002020020273        0000000000000000000000000000000000000000000000000000ROSES IN MAY                        0000000000　　　　　　　　　　　　　　　　　　0000000000　　　　　　　　　　　　　　　　　　+006000000000000000000
SEB2005102720050326C70000070060000000000ELMUSTANSER                         00110004000000ワトソン000000　　　　　　　　　　　　　　　　　　　　　　　　　　　　　　　　　　　　　　　　　　　　　　　　　　　　　　　　　　　　　　　　　　　　　　　　　　　　　　　　　　　　　　　　　　　　570000000000000000ヒルズ　　　　　00       01212002095 34      0000000000000000000000000000000000000000000000000000ROSES IN MAY                        0000000000　　　　　　　　　　　　　　　　　　0000000000　　　　　　　　　　　　　　　　　　+074000000000000000000
SEB2005102720050326C70000070070000000000GRAND HOMBRE                        00310005000000ビン・ス000000　　　　　　　　　　　　　　　　　　　　　　　　　　　　　　　　　　　　　　　　　　　　　　　　　　　　　　　　　　　　　　　　　　　　　　　　　　　　　　　　　　　　　　　　　　　　570000000000000000デットー　　　　00       10000000000         0000000000000000000000000000000000000009990000000000ROSES IN MAY                        0000000000　　　　　　　　　　　　　　　　　　0000000000　　　　　　　　　　　　　　　　　　9999000000000000000000
SEB2005102720050326C70000070090000000000KING'S BOY                          00110008000000バートン000000　　　　　　　　　　　　　　　　　　　　　　　　　　　　　　　　　　　　　　　　　　　　　　　　　　　　　　　　　　　　　　　　　　　　　　　　　　　　　　　　　　　　　　　　　　　　570000000000000000グライダ　　　　00       00808002059 14      0000000000000000000000000000000000000000000000000000ROSES IN MAY                        0000000000　　　　　　　　　　　　　　　　　　0000000000　　　　　　　　　　　　　　　　　　+038000000000000000000
SEB2005102720050326C70000070100000000000LUNDY'S LIABILITY                   00110004000000フランケ000000　　　　　　　　　　　　　　　　　　　　　　　　　　　　　　　　　　　　　　　　　　　　　　　　　　　　　　　　　　　　　　　　　　　　　　　　　　　　　　　　　　　　　　　　　　　　570000000000000000ヴァレン　　　　00       00707002059334      0000000000000000000000000000000000000000000000000000ROSES IN MAY                        0000000000　　　　　　　　　　　　　　　　　　0000000000　　　　　　　　　　　　　　　　　　+038000000000000000000
SEB2005102720050326C70000070110000000000ROSES IN MAY                        00110005000000ロマンズ000000　　　　　　　　　　　　　　　　　　　　　　　　　　　　　　　　　　　　　　　　　　　　　　　　　　　　　　　　　　　　　　　　　　　　　　　　　　　　　　　　　　　　　　　　　　　　570000000000000000ヴェラス　　　　00       00101002021         0000000000000000000000000000000000000000000000000000DYNEVER                             0000000000　　　　　　　　　　　　　　　　　　0000000000　　　　　　　　　　　　　　　　　　-006000000000000000000
SEB2005102720050326C70000070120000000000RULER'S COURT                       00110004000000モハメド000000　　　　　　　　　　　　　　　　　　　　　　　　　　　　　　　　　　　　　　　　　　　　　　　　　　　　　　　　　　　　　　　　　　　　　　　　　　　　　　　　　　　　　　　　　　　　570000000000000000マカヴォ　　　　00       010100020888        0000000000000000000000000000000000000000000000000000ROSES IN MAY                        0000000000　　　　　　　　　　　　　　　　　　0000000000　　　　　　　　　　　　　　　　　　+067000000000000000000
SEB2005102720050326C70000070130000000000YARD-ARM                            00310005000000デコック000000　　　　　　　　　　　　　　　　　　　　　　　　　　　　　　　　　　　　　　　　　　　　　　　　　　　　　　　　　　　　　　　　　　　　　　　　　　　　　　　　　　　　　　　　　　　　570000000000000000マーウィ　　　　00       00909002065212      0000000000000000000000000000000000000000000000000000ROSES IN MAY                        0000000000　　　　　　　　　　　　　　　　　　0000000000　　　　　　　　　　　　　　　　　　+044000000000000000000
SEB2005101320051005B60000080011998104051トーセンダンディ　　　　　　　　　　10110307200427森秀行　270006島川　隆哉　　　　　　　　　　　　　　　　　　　　　　　　　　　緑，青菱山形，青袖　　　　　　　　　　　　　　　　　　　　　　　　　　　　　　　　　　　　　　　　　　　　　　　　　　　580000000504100000吉田稔　　　　　00       002020000002        0000000000000000000000000000000000000000000000000000SHOW BARRY                          0000000000　　　　　　　　　　　　　　　　　　0000000000　　　　　　　　　　　　　　　　　　0000000000000000000000
SEB2005101320051005B60000080020000000000SHOW BARRY                          00310005000000ラトゥル000000　　　　　　　　　　　　　　　　　　　　　　　　　　　　　　　　　　　　　　　　　　　　　　　　　　　　　　　　　　　　　　　　　　　　　　　　　　　　　　　　　　　　　　　　　　　　575000000000000000キング　　　　　00       00101002046         0000000000000000000000000000000000000000001998104051トーセンダンディ　　　　　　　　　　0000000000　　　　　　　　　　　　　　　　　　0000000000　　　　　　　　　　　　　　　　　　0000000000000000000000
SEB2005101320051005B60000080030000000000CHARNWOOD GREEN                     00310006000000ウッド　000000　　　　　　　　　　　　　　　　　　　　　　　　　　　　　　　　　　　　　　　　　　　　　　　　　　　　　　　　　　　　　　　　　　　　　　　　　　　　　　　　　　　　　　　　　　　　560000000000000000ロウィラ　　　　00       01111000000         0000000000000000000000000000000000000000000000000000SHOW BARRY                          0000000000　　　　　　　　　　　　　　　　　　0000000000　　　　　　　　　　　　　　　　　　0000000000000000000000
SEB2005101320051005B60000080040000000000FREE AT LAST                        00210007000000マシュー000000　　　　　　　　　　　　　　　　　　　　　　　　　　　　　　　　　　　　　　　　　　　　　　　　　　　　　　　　　　　　　　　　　　　　　　　　　　　　　　　　　　　　　　　　　　　　555000000000000000チャイル　　　　00       00505000000         0000000000000000000000000000000000000000000000000000SHOW BARRY                          0000000000　　　　　　　　　　　　　　　　　　0000000000　　　　　　　　　　　　　　　　　　0000000000000000000000
SEB2005101320051005B60000080050000000000MOSCOW BALLET                       00110004000000ヘイズ　000000　　　　　　　　　　　　　　　　　　　　　　　　　　　　　　　　　　　　　　　　　　　　　　　　　　　　　　　　　　　　　　　　　　　　　　　　　　　　　　　　　　　　　　　　　　　　555000000000000000ウイリア　　　　00       01010000000         0000000000000000000000000000000000000000000000000000SHOW BARRY                          0000000000　　　　　　　　　　　　　　　　　　0000000000　　　　　　　　　　　　　　　　　　0000000000000000000000
SEB2005101320051005B60000080060000000000BAZELLE                             00210006000000ジェンキ000000　　　　　　　　　　　　　　　　　　　　　　　　　　　　　　　　　　　　　　　　　　　　　　　　　　　　　　　　　　　　　　　　　　　　　　　　　　　　　　　　　　　　　　　　　　　　540000000000000000　　　　　　　　00       10000000000         0000000000000000000000000000000000000009990000000000SHOW BARRY                          0000000000　　　　　　　　　　　　　　　　　　0000000000　　　　　　　　　　　　　　　　　　9999000000000000000000
SEB2005101320051005B60000080070000000000HUNTER HERMITAGE                    00310008000000ライング000000　　　　　　　　　　　　　　　　　　　　　　　　　　　　　　　　　　　　　　　　　　　　　　　　　　　　　　　　　　　　　　　　　　　　　　　　　　　　　　　　　　　　　　　　　　　　530000000000000000ムーア　　　　　00       00808000000         0000000000000000000000000000000000000000000000000000SHOW BARRY                          0000000000　　　　　　　　　　　　　　　　　　0000000000　　　　　　　　　　　　　　　　　　0000000000000000000000
SEB2005101320051005B60000080080000000000LORD OF LORDS                       00310006000000セオドー000000　　　　　　　　　　　　　　　　　　　　　　　　　　　　　　　　　　　　　　　　　　　　　　　　　　　　　　　　　　　　　　　　　　　　　　　　　　　　　　　　　　　　　　　　　　　　525000000000000000ペイン　　　　　00       01212000000         0000000000000000000000000000000000000000000000000000SHOW BARRY                          0000000000　　　　　　　　　　　　　　　　　　0000000000　　　　　　　　　　　　　　　　　　0000000000000000000000
SEB2005101320051005B60000080090000000000WE CAN'T SAY THAT                   00210005000000フリード000000　　　　　　　　　　　　　　　　　　　　　　　　　　　　　　　　　　　　　　　　　　　　　　　　　　　　　　　　　　　　　　　　　　　　　　　　　　　　　　　　　　　　　　　　　　　　520000000000000000マーティ　　　　00       10000000000         0000000000000000000000000000000000000009990000000000SHOW BARRY                          0000000000　　　　　　　　　　　　　　　　　　0000000000　　　　　　　　　　　　　　　　　　9999000000000000000000
SEB2005101320051005B60000080100000000000JUST THE PART                       00310006000000ウィアー000000　　　　　　　　　　　　　　　　　　　　　　　　　　　　　　　　　　　　　　　　　　　　　　　　　　　　　　　　　　　　　　　　　　　　　　　　　　　　　　　　　　　　　　　　　　　　520000000000000000マーフィ　　　　00       00909000000         0000000000000000000000000000000000000000000000000000SHOW BARRY                          0000000000　　　　　　　　　　　　　　　　　　0000000000　　　　　　　　　　　　　　　　　　0000000000000000000000
SEB2005101320051005B60000080110000000000REPUBLIC                            00310007000000バークリ000000　　　　　　　　　　　　　　　　　　　　　　　　　　　　　　　　　　　　　　　　　　　　　　　　　　　　　　　　　　　　　　　　　　　　　　　　　　　　　　　　　　　　　　　　　　　　520000000000000000デュリッ　　　　00       01515000000         0000000000000000000000000000000000000000000000000000SHOW BARRY                          0000000000　　　　　　　　　　　　　　　　　　0000000000　　　　　　　　　　　　　　　　　　0000000000000000000000
SEB2005101320051005B60000080120000000000RUNON                               00210007000000ロバーツ000000　　　　　　　　　　　　　　　　　　　　　　　　　　　　　　　　　　　　　　　　　　　　　　　　　　　　　　　　　　　　　　　　　　　　　　　　　　　　　　　　　　　　　　　　　　　　520000000000000000ベンボウ　　　　00       40000000000         0000000000000000000000000000000000000009990000000000SHOW BARRY                          0000000000　　　　　　　　　　　　　　　　　　0000000000　　　　　　　　　　　　　　　　　　9999000000000000000000
SEB2005101320051005B60000080130000000000GAJU CHIEF                          00310008000000コナーズ000000　　　　　　　　　　　　　　　　　　　　　　　　　　　　　　　　　　　　　　　　　　　　　　　　　　　　　　　　　　　　　　　　　　　　　　　　　　　　　　　　　　　　　　　　　　　　520000000000000000ペガス　　　　　00       01313000000         0000000000000000000000000000000000000000000000000000SHOW BARRY                          0000000000　　　　　　　　　　　　　　　　　　0000000000　　　　　　　　　　　　　　　　　　0000000000000000000000
SEB2005101320051005B60000080140000000000IRISH CRUSADER                      00310007000000メイフィ000000　　　　　　　　　　　　　　　　　　　　　　　　　　　　　　　　　　　　　　　　　　　　　　　　　　　　　　　　　　　　　　　　　　　　　　　　　　　　　　　　　　　　　　　　　　　　520000000000000000ダーマニ　　　　00       00303000000114      0000000000000000000000000000000000000000000000000000SHOW BARRY                          0000000000　　　　　　　　　　　　　　　　　　0000000000　　　　　　　　　　　　　　　　　　0000000000000000000000
SEB2005101320051005B60000080150000000000DOURO VALLEY                        00310004000000ムーディ000000　　　　　　　　　　　　　　　　　　　　　　　　　　　　　　　　　　　　　　　　　　　　　　　　　　　　　　　　　　　　　　　　　　　　　　　　　　　　　　　　　　　　　　　　　　　　520000000000000000ノレン　　　　　00       00606000000         0000000000000000000000000000000000000000000000000000SHOW BARRY                          0000000000　　　　　　　　　　　　　　　　　　0000000000　　　　　　　　　　　　　　　　　　0000000000000000000000
SEB2005101320051005B60000080160000000000KAMSKY                              00310004000000カミング000000　　　　　　　　　　　　　　　　　　　　　　　　　　　　　　　　　　　　　　　　　　　　　　　　　　　　　　　　　　　　　　　　　　　　　　　　　　　　　　　　　　　　　　　　　　　　520000000000000000シン　　　　　　00       00707000000         0000000000000000000000000000000000000000000000000000SHOW BARRY                          0000000000　　　　　　　　　　　　　　　　　　0000000000　　　　　　　　　　　　　　　　　　0000000000000000000000
SEB2005101320051005B60000080170000000000SPECIAL SCENE                       00310007000000オサリバ000000　　　　　　　　　　　　　　　　　　　　　　　　　　　　　　　　　　　　　　　　　　　　　　　　　　　　　　　　　　　　　　　　　　　　　　　　　　　　　　　　　　　　　　　　　　　　520000000000000000クロス　　　　　00       00404000000         0000000000000000000000000000000000000000000000000000SHOW BARRY                          0000000000　　　　　　　　　　　　　　　　　　0000000000　　　　　　　　　　　　　　　　　　0000000000000000000000
SEB2005101320051005B60000080180000000000SUPER BLITZ                         00310007000000ハリソン000000　　　　　　　　　　　　　　　　　　　　　　　　　　　　　　　　　　　　　　　　　　　　　　　　　　　　　　　　　　　　　　　　　　　　　　　　　　　　　　　　　　　　　　　　　　　　520000000000000000デイビス　　　　00       01414000000         0000000000000000000000000000000000000000000000000000SHOW BARRY                          0000000000　　　　　　　　　　　　　　　　　　0000000000　　　　　　　　　　　　　　　　　　0000000000000000000000
SEB2005101320051005B60000080190000000000ENZED                               00310007000000ベネット000000　　　　　　　　　　　　　　　　　　　　　　　　　　　　　　　　　　　　　　　　　　　　　　　　　　　　　　　　　　　　　　　　　　　　　　　　　　　　　　　　　　　　　　　　　　　　520000000000000000　　　　　　　　00       10000000000         0000000000000000000000000000000000000009990000000000SHOW BARRY                          0000000000　　　　　　　　　　　　　　　　　　0000000000　　　　　　　　　　　　　　　　　　9999000000000000000000
SEB2005101320051005B60000100010000000000DANDY KID                           00310009000000グリフィ000000　　　　　　　　　　　　　　　　　　　　　　　　　　　　　　　　　　　　　　　　　　　　　　　　　　　　　　　　　　　　　　　　　　　　　　　　　　　　　　　　　　　　　　　　　　　　590000000000000000マロニー　　　　00       00808000000         0000000000000000000000000000000000000000000000000000APPIAN WAY                          0000000000　　　　　　　　　　　　　　　　　　0000000000　　　　　　　　　　　　　　　　　　0000000000000000000000
SEB2005101320051005B60000100020000000000BOTERO                              00310005000000ライング000000　　　　　　　　　　　　　　　　　　　　　　　　　　　　　　　　　　　　　　　　　　　　　　　　　　　　　　　　　　　　　　　　　　　　　　　　　　　　　　　　　　　　　　　　　　　　570000000000000000デュリッ　　　　00       10000000000         0000000000000000000000000000000000000009990000000000APPIAN WAY                          0000000000　　　　　　　　　　　　　　　　　　0000000000　　　　　　　　　　　　　　　　　　9999000000000000000000
SEB2005101320051005B60000100030000000000FEEL THE NOISE                      00310007000000マロニー000000　　　　　　　　　　　　　　　　　　　　　　　　　　　　　　　　　　　　　　　　　　　　　　　　　　　　　　　　　　　　　　　　　　　　　　　　　　　　　　　　　　　　　　　　　　　　565000000000000000チャイル　　　　00       00505000000         0000000000000000000000000000000000000000000000000000APPIAN WAY                          0000000000　　　　　　　　　　　　　　　　　　0000000000　　　　　　　　　　　　　　　　　　0000000000000000000000
SEB2005101320051005B60000100040000000000SECATEURS                           00310004000000フリード000000　　　　　　　　　　　　　　　　　　　　　　　　　　　　　　　　　　　　　　　　　　　　　　　　　　　　　　　　　　　　　　　　　　　　　　　　　　　　　　　　　　　　　　　　　　　　565000000000000000マーウィ　　　　00       10000000000         0000000000000000000000000000000000000009990000000000APPIAN WAY                          0000000000　　　　　　　　　　　　　　　　　　0000000000　　　　　　　　　　　　　　　　　　9999000000000000000000
SEB2005101320051005B60000100050000000000HOLDING                             00310006000000ミッチェ000000　　　　　　　　　　　　　　　　　　　　　　　　　　　　　　　　　　　　　　　　　　　　　　　　　　　　　　　　　　　　　　　　　　　　　　　　　　　　　　　　　　　　　　　　　　　　560000000000000000コーロウ　　　　00       10000000000         0000000000000000000000000000000000000009990000000000APPIAN WAY                          0000000000　　　　　　　　　　　　　　　　　　0000000000　　　　　　　　　　　　　　　　　　9999000000000000000000
SEB2005101320051005B60000100060000000000MR. MAGOO                           00310008000000ライリィ000000　　　　　　　　　　　　　　　　　　　　　　　　　　　　　　　　　　　　　　　　　　　　　　　　　　　　　　　　　　　　　　　　　　　　　　　　　　　　　　　　　　　　　　　　　　　　560000000000000000フラハテ　　　　00       00303000000A        0000000000000000000000000000000000000000000000000000APPIAN WAY                          0000000000　　　　　　　　　　　　　　　　　　0000000000　　　　　　　　　　　　　　　　　　0000000000000000000000
SEB2005101320051005B60000100071996107658キングオブサンデー　　　　　　　　　00110409200427森秀行　820009鈴木　義孝　　　　　　　　　　　　　　　　　　　　　　　　　　　白，緑三本輪，袖緑一本輪　　　　　　　　　　　　　　　　　　　　　　　　　　　　　　　　　　　　　　　　　　　　　　　　550000000504100000吉田稔　　　　　00       01010000000         0000000000000000000000000000000000000000000000000000APPIAN WAY                          0000000000　　　　　　　　　　　　　　　　　　0000000000　　　　　　　　　　　　　　　　　　0000000000000000000000
SEB2005101320051005B60000100080000000000LORD OF LAURISTON                   00310004000000マウンド000000　　　　　　　　　　　　　　　　　　　　　　　　　　　　　　　　　　　　　　　　　　　　　　　　　　　　　　　　　　　　　　　　　　　　　　　　　　　　　　　　　　　　　　　　　　　　550000000000000000ヒントン　　　　00       00606000000         0000000000000000000000000000000000000000000000000000APPIAN WAY                          0000000000　　　　　　　　　　　　　　　　　　0000000000　　　　　　　　　　　　　　　　　　0000000000000000000000
SEB2005101320051005B60000100090000000000BEXAAR                              00110004000000ウールス000000　　　　　　　　　　　　　　　　　　　　　　　　　　　　　　　　　　　　　　　　　　　　　　　　　　　　　　　　　　　　　　　　　　　　　　　　　　　　　　　　　　　　　　　　　　　　540000000000000000ニコリッ　　　　00       10000000000         0000000000000000000000000000000000000009990000000000APPIAN WAY                          0000000000　　　　　　　　　　　　　　　　　　0000000000　　　　　　　　　　　　　　　　　　9999000000000000000000
SEB2005101320051005B60000100100000000000BLACK BUBBLE                        00310005000000ポーテリ000000　　　　　　　　　　　　　　　　　　　　　　　　　　　　　　　　　　　　　　　　　　　　　　　　　　　　　　　　　　　　　　　　　　　　　　　　　　　　　　　　　　　　　　　　　　　　540000000000000000キング　　　　　00       00202000000A        0000000000000000000000000000000000000000000000000000APPIAN WAY                          0000000000　　　　　　　　　　　　　　　　　　0000000000　　　　　　　　　　　　　　　　　　0000000000000000000000
SEB2005101320051005B60000100110000000000GLADIADA                            00110006000000スマード000000　　　　　　　　　　　　　　　　　　　　　　　　　　　　　　　　　　　　　　　　　　　　　　　　　　　　　　　　　　　　　　　　　　　　　　　　　　　　　　　　　　　　　　　　　　　　540000000000000000カリー　　　　　00       00909000000         0000000000000000000000000000000000000000000000000000APPIAN WAY                          0000000000　　　　　　　　　　　　　　　　　　0000000000　　　　　　　　　　　　　　　　　　0000000000000000000000
SEB2005101320051005B60000100120000000000ENTERPRIZE MAN                      00110005000000ファルジ000000　　　　　　　　　　　　　　　　　　　　　　　　　　　　　　　　　　　　　　　　　　　　　　　　　　　　　　　　　　　　　　　　　　　　　　　　　　　　　　　　　　　　　　　　　　　　530000000000000000マーティ　　　　00       00404000000         0000000000000000000000000000000000000000000000000000APPIAN WAY                          0000000000　　　　　　　　　　　　　　　　　　0000000000　　　　　　　　　　　　　　　　　　0000000000000000000000
SEB2005101320051005B60000100130000000000POET'S VOICE                        00110004000000モロニー000000　　　　　　　　　　　　　　　　　　　　　　　　　　　　　　　　　　　　　　　　　　　　　　　　　　　　　　　　　　　　　　　　　　　　　　　　　　　　　　　　　　　　　　　　　　　　530000000000000000ウイリア　　　　00       10000000000         0000000000000000000000000000000000000009990000000000APPIAN WAY                          0000000000　　　　　　　　　　　　　　　　　　0000000000　　　　　　　　　　　　　　　　　　9999000000000000000000
SEB2005101320051005B60000100140000000000STRAIGHT LEGS                       00310005000000エドワー000000　　　　　　　　　　　　　　　　　　　　　　　　　　　　　　　　　　　　　　　　　　　　　　　　　　　　　　　　　　　　　　　　　　　　　　　　　　　　　　　　　　　　　　　　　　　　530000000000000000シン　　　　　　00       10000000000         0000000000000000000000000000000000000009990000000000APPIAN WAY                          0000000000　　　　　　　　　　　　　　　　　　0000000000　　　　　　　　　　　　　　　　　　9999000000000000000000
SEB2005101320051005B60000100150000000000APPIAN WAY                          00310006000000リチャー000000　　　　　　　　　　　　　　　　　　　　　　　　　　　　　　　　　　　　　　　　　　　　　　　　　　　　　　　　　　　　　　　　　　　　　　　　　　　　　　　　　　　　　　　　　　　　530000000000000000ミーメッ　　　　00       00101000592         0000000000000000000000000000000000000000000000000000BLACK BUBBLE                        0000000000　　　　　　　　　　　　　　　　　　0000000000　　　　　　　　　　　　　　　　　　0000000000000000000000
SEB2005101320051005B60000100160000000000WRITTEN JOURNEY                     00110006000000スマード000000　　　　　　　　　　　　　　　　　　　　　　　　　　　　　　　　　　　　　　　　　　　　　　　　　　　　　　　　　　　　　　　　　　　　　　　　　　　　　　　　　　　　　　　　　　　　530000000000000000ツァーラ　　　　00       00707000000         0000000000000000000000000000000000000000000000000000APPIAN WAY                          0000000000　　　　　　　　　　　　　　　　　　0000000000　　　　　　　　　　　　　　　　　　0000000000000000000000
SEB2005101320051005B60000100170000000000ARTORIUS                            00310003000000セオドー000000　　　　　　　　　　　　　　　　　　　　　　　　　　　　　　　　　　　　　　　　　　　　　　　　　　　　　　　　　　　　　　　　　　　　　　　　　　　　　　　　　　　　　　　　　　　　530000000000000000バスター　　　　00       10000000000         0000000000000000000000000000000000000009990000000000APPIAN WAY                          0000000000　　　　　　　　　　　　　　　　　　0000000000　　　　　　　　　　　　　　　　　　9999000000000000000000
SEB2005101720051008B60000020010000000000THE BOOT                            00010003000000　　　　000000　　　　　　　　　　　　　　　　　　　　　　　　　　　　　　　　　　　　　　　　　　　　　　　　　　　　　　　　　　　　　　　　　　　　　　　　　　　　　　　　　　　　　　　　　　　　580000000000000000　　　　　　　　00       00303000000         0000000000000000000000000000000000000000000000000000CORONGA                             0000000000　　　　　　　　　　　　　　　　　　0000000000　　　　　　　　　　　　　　　　　　0000000000000000000000
SEB2005101720051008B60000020020000000000GUNPOWDER                           00010003000000　　　　000000　　　　　　　　　　　　　　　　　　　　　　　　　　　　　　　　　　　　　　　　　　　　　　　　　　　　　　　　　　　　　　　　　　　　　　　　　　　　　　　　　　　　　　　　　　　　555000000000000000　　　　　　　　00       00808000000         0000000000000000000000000000000000000000000000000000CORONGA                             0000000000　　　　　　　　　　　　　　　　　　0000000000　　　　　　　　　　　　　　　　　　0000000000000000000000
SEB2005101720051008B60000020030000000000PURPLE CHOCOLATE                    00010003000000　　　　000000　　　　　　　　　　　　　　　　　　　　　　　　　　　　　　　　　　　　　　　　　　　　　　　　　　　　　　　　　　　　　　　　　　　　　　　　　　　　　　　　　　　　　　　　　　　　550000000000000000　　　　　　　　00       00707000000         0000000000000000000000000000000000000000000000000000CORONGA                             0000000000　　　　　　　　　　　　　　　　　　0000000000　　　　　　　　　　　　　　　　　　0000000000000000000000
SEB2005101720051008B60000020042002110209ゼンノゴウシュウ　　　　　　　　　　06110303200427森秀行　260008大迫　久美子　　　　　　　　　　　　　　　　　　　　　　　　　　黄，袖緑一本輪，緑鋸歯形　　　　　　　　　　　　　　　　　　　　　　　　　　　　　　　　　　　　　　　　　　　　　　　　545000000000000000ボス　　　　　　00       01212000000         0000000000000000000000000000000000000000000000000000CORONGA                             0000000000　　　　　　　　　　　　　　　　　　0000000000　　　　　　　　　　　　　　　　　　0000000000000000000000
SEB2005101720051008B60000020050000000000ELECTRIC GENERAL                    00010003000000　　　　000000　　　　　　　　　　　　　　　　　　　　　　　　　　　　　　　　　　　　　　　　　　　　　　　　　　　　　　　　　　　　　　　　　　　　　　　　　　　　　　　　　　　　　　　　　　　　540000000000000000　　　　　　　　00       00606000000         0000000000000000000000000000000000000000000000000000CORONGA                             0000000000　　　　　　　　　　　　　　　　　　0000000000　　　　　　　　　　　　　　　　　　0000000000000000000000
SEB2005101720051008B60000020060000000000CORONGA                             00110003000000ペリー　000000　　　　　　　　　　　　　　　　　　　　　　　　　　　　　　　　　　　　　　　　　　　　　　　　　　　　　　　　　　　　　　　　　　　　　　　　　　　　　　　　　　　　　　　　　　　　535000000000000000チャイル　　　　00       00101001108         0000000000000000000000000000000000000000000000000000ROTARIAN                            0000000000　　　　　　　　　　　　　　　　　　0000000000　　　　　　　　　　　　　　　　　　0000000000000000000000
SEB2005101720051008B60000020070000000000PIRATE ISLAND                       00010003000000　　　　000000　　　　　　　　　　　　　　　　　　　　　　　　　　　　　　　　　　　　　　　　　　　　　　　　　　　　　　　　　　　　　　　　　　　　　　　　　　　　　　　　　　　　　　　　　　　　530000000000000000　　　　　　　　00       00505000000         0000000000000000000000000000000000000000000000000000CORONGA                             0000000000　　　　　　　　　　　　　　　　　　0000000000　　　　　　　　　　　　　　　　　　0000000000000000000000
SEB2005101720051008B60000020080000000000FUSAICHI SAN                        00010003000000　　　　000000　　　　　　　　　　　　　　　　　　　　　　　　　　　　　　　　　　　　　　　　　　　　　　　　　　　　　　　　　　　　　　　　　　　　　　　　　　　　　　　　　　　　　　　　　　　　530000000000000000　　　　　　　　00       40000000000         0000000000000000000000000000000000000009990000000000CORONGA                             0000000000　　　　　　　　　　　　　　　　　　0000000000　　　　　　　　　　　　　　　　　　9999000000000000000000
SEB2005101720051008B60000020090000000000ROTARIAN                            00010003000000　　　　000000　　　　　　　　　　　　　　　　　　　　　　　　　　　　　　　　　　　　　　　　　　　　　　　　　　　　　　　　　　　　　　　　　　　　　　　　　　　　　　　　　　　　　　　　　　　　530000000000000000　　　　　　　　00       00202000000         0000000000000000000000000000000000000000000000000000CORONGA                             0000000000　　　　　　　　　　　　　　　　　　0000000000　　　　　　　　　　　　　　　　　　0000000000000000000000
SEB2005101720051008B60000020100000000000GIGALAY                             00010003000000　　　　000000　　　　　　　　　　　　　　　　　　　　　　　　　　　　　　　　　　　　　　　　　　　　　　　　　　　　　　　　　　　　　　　　　　　　　　　　　　　　　　　　　　　　　　　　　　　　530000000000000000　　　　　　　　00       00404000000         0000000000000000000000000000000000000000000000000000CORONGA                             0000000000　　　　　　　　　　　　　　　　　　0000000000　　　　　　　　　　　　　　　　　　0000000000000000000000
SEB2005101720051008B60000020110000000000GOING DUTCH                         00010003000000　　　　000000　　　　　　　　　　　　　　　　　　　　　　　　　　　　　　　　　　　　　　　　　　　　　　　　　　　　　　　　　　　　　　　　　　　　　　　　　　　　　　　　　　　　　　　　　　　　530000000000000000　　　　　　　　00       10000000000         0000000000000000000000000000000000000009990000000000CORONGA                             0000000000　　　　　　　　　　　　　　　　　　0000000000　　　　　　　　　　　　　　　　　　9999000000000000000000
SEB2005101720051008B60000020120000000000SUN SURGE                           00010003000000　　　　000000　　　　　　　　　　　　　　　　　　　　　　　　　　　　　　　　　　　　　　　　　　　　　　　　　　　　　　　　　　　　　　　　　　　　　　　　　　　　　　　　　　　　　　　　　　　　530000000000000000　　　　　　　　00       01010000000         0000000000000000000000000000000000000000000000000000CORONGA                             0000000000　　　　　　　　　　　　　　　　　　0000000000　　　　　　　　　　　　　　　　　　0000000000000000000000
SEB2005101720051008B60000020130000000000L'ESCAPADE                          00010003000000　　　　000000　　　　　　　　　　　　　　　　　　　　　　　　　　　　　　　　　　　　　　　　　　　　　　　　　　　　　　　　　　　　　　　　　　　　　　　　　　　　　　　　　　　　　　　　　　　　530000000000000000　　　　　　　　00       01111000000         0000000000000000000000000000000000000000000000000000CORONGA                             0000000000　　　　　　　　　　　　　　　　　　0000000000　　　　　　　　　　　　　　　　　　0000000000000000000000
SEB2005101720051008B60000020140000000000ON THE CHARGE                       00010003000000　　　　000000　　　　　　　　　　　　　　　　　　　　　　　　　　　　　　　　　　　　　　　　　　　　　　　　　　　　　　　　　　　　　　　　　　　　　　　　　　　　　　　　　　　　　　　　　　　　530000000000000000　　　　　　　　00       00909000000         0000000000000000000000000000000000000000000000000000CORONGA                             0000000000　　　　　　　　　　　　　　　　　　0000000000　　　　　　　　　　　　　　　　　　0000000000000000000000
SEB2005102420051015B60000080010000000000MUMMIFY                             00310006000000フリード000000　　　　　　　　　　　　　　　　　　　　　　　　　　　　　　　　　　　　　　　　　　　　　　　　　　　　　　　　　　　　　　　　　　　　　　　　　　　　　　　　　　　　　　　　　　　　570000000000000000ニコリッ　　　　00       00303000000K        0000000000000000000000000000000000000000000000000000RAILINGS                            0000000000　　　　　　　　　　　　　　　　　　0000000000　　　　　　　　　　　　　　　　　　0000000000000000000000
SEB2005102420051015B60000080020000000000RAZKALLA                            00310007000000ビン・ス000000　　　　　　　　　　　　　　　　　　　　　　　　　　　　　　　　　　　　　　　　　　　　　　　　　　　　　　　　　　　　　　　　　　　　　　　　　　　　　　　　　　　　　　　　　　　　550000000000000000マカヴォ　　　　00       016160000006        0000000000000000000000000000000000000000000000000000RAILINGS                            0000000000　　　　　　　　　　　　　　　　　　0000000000　　　　　　　　　　　　　　　　　　0000000000000000000000
SEB2005102420051015B60000080030000000000FIGHT YOUR CORNER                   00110006000000ビン・ス000000　　　　　　　　　　　　　　　　　　　　　　　　　　　　　　　　　　　　　　　　　　　　　　　　　　　　　　　　　　　　　　　　　　　　　　　　　　　　　　　　　　　　　　　　　　　　545000000000000000　　　　　　　　00       10000000000         0000000000000000000000000000000000000009990000000000RAILINGS                            0000000000　　　　　　　　　　　　　　　　　　0000000000　　　　　　　　　　　　　　　　　　9999000000000000000000
SEB2005102420051015B60000080042000101573アイポッパー　　　　　　　　　　　　03110105200369清水出美226800サンデーレーシング　　　　　　　　　　　　　　　　　　　　　　　黒，赤十字襷，袖黄縦縞　　　　　　　　　　　　　　　　　　　　　　　　　　　　　　　　　　　　　　　　　　　　　　　　　540000000070500000藤田伸二　　　　00       00202000000K        0000000000000000000000000000000000000000000000000000RAILINGS                            0000000000　　　　　　　　　　　　　　　　　　0000000000　　　　　　　　　　　　　　　　　　0000000000000000000000
SEB2005102420051015B60000080050000000000PLASTERED                           00310003000000スミス　000000　　　　　　　　　　　　　　　　　　　　　　　　　　　　　　　　　　　　　　　　　　　　　　　　　　　　　　　　　　　　　　　　　　　　　　　　　　　　　　　　　　　　　　　　　　　　540000000000000000ハーヴェ　　　　00       007070000001        0000000000000000000000000000000000000000000000000000RAILINGS                            0000000000　　　　　　　　　　　　　　　　　　0000000000　　　　　　　　　　　　　　　　　　0000000000000000000000
SEB2005102420051015B60000080060000000000CARTE DIAMOND                       00110004000000エリソン000000　　　　　　　　　　　　　　　　　　　　　　　　　　　　　　　　　　　　　　　　　　　　　　　　　　　　　　　　　　　　　　　　　　　　　　　　　　　　　　　　　　　　　　　　　　　　530000000000000000マウィン　　　　00       00909000000H        0000000000000000000000000000000000000000000000000000RAILINGS                            0000000000　　　　　　　　　　　　　　　　　　0000000000　　　　　　　　　　　　　　　　　　0000000000000000000000
SEB2005102420051015B60000080070000000000SIR DEX                             00310004000000ヒックマ000000　　　　　　　　　　　　　　　　　　　　　　　　　　　　　　　　　　　　　　　　　　　　　　　　　　　　　　　　　　　　　　　　　　　　　　　　　　　　　　　　　　　　　　　　　　　　530000000000000000パートン　　　　00       015150000004        0000000000000000000000000000000000000000000000000000RAILINGS                            0000000000　　　　　　　　　　　　　　　　　　0000000000　　　　　　　　　　　　　　　　　　0000000000000000000000
SEB2005102420051015B60000080080000000000STELLA GRANDE                       00310003000000フリード000000　　　　　　　　　　　　　　　　　　　　　　　　　　　　　　　　　　　　　　　　　　　　　　　　　　　　　　　　　　　　　　　　　　　　　　　　　　　　　　　　　　　　　　　　　　　　525000000000000000ライアン　　　　00       10000000000         0000000000000000000000000000000000000009990000000000RAILINGS                            0000000000　　　　　　　　　　　　　　　　　　0000000000　　　　　　　　　　　　　　　　　　9999000000000000000000
SEB2005102420051015B60000080090000000000RAILINGS                            00310003000000ホークス000000　　　　　　　　　　　　　　　　　　　　　　　　　　　　　　　　　　　　　　　　　　　　　　　　　　　　　　　　　　　　　　　　　　　　　　　　　　　　　　　　　　　　　　　　　　　　520000000000000000チャイル　　　　00       00101002279         0000000000000000000000000000000000000000002000101573アイポッパー　　　　　　　　　　　　0000000000　　　　　　　　　　　　　　　　　　0000000000　　　　　　　　　　　　　　　　　　0000000000000000000000
SEB2005102420051015B60000080100000000000DEMERGER                            00210004000000オブライ000000　　　　　　　　　　　　　　　　　　　　　　　　　　　　　　　　　　　　　　　　　　　　　　　　　　　　　　　　　　　　　　　　　　　　　　　　　　　　　　　　　　　　　　　　　　　　515000000000000000ダン　　　　　　00       01010000000K        0000000000000000000000000000000000000000000000000000RAILINGS                            0000000000　　　　　　　　　　　　　　　　　　0000000000　　　　　　　　　　　　　　　　　　0000000000000000000000
SEB2005102420051015B60000080110000000000DIZELLE                             00210003000000ホークス000000　　　　　　　　　　　　　　　　　　　　　　　　　　　　　　　　　　　　　　　　　　　　　　　　　　　　　　　　　　　　　　　　　　　　　　　　　　　　　　　　　　　　　　　　　　　　515000000000000000ビードマ　　　　00       01111000000134      0000000000000000000000000000000000000000000000000000RAILINGS                            0000000000　　　　　　　　　　　　　　　　　　0000000000　　　　　　　　　　　　　　　　　　0000000000000000000000
SEB2005102420051015B60000080120000000000HOLLOW BULLET                       00210004000000マッカー000000　　　　　　　　　　　　　　　　　　　　　　　　　　　　　　　　　　　　　　　　　　　　　　　　　　　　　　　　　　　　　　　　　　　　　　　　　　　　　　　　　　　　　　　　　　　　515000000000000000デュリッ　　　　00       01212000000K        0000000000000000000000000000000000000000000000000000RAILINGS                            0000000000　　　　　　　　　　　　　　　　　　0000000000　　　　　　　　　　　　　　　　　　0000000000000000000000
SEB2005102420051015B60000080130000000000PORTLAND SINGA                      00210005000000マクバー000000　　　　　　　　　　　　　　　　　　　　　　　　　　　　　　　　　　　　　　　　　　　　　　　　　　　　　　　　　　　　　　　　　　　　　　　　　　　　　　　　　　　　　　　　　　　　515000000000000000キャシデ　　　　00       00808000000114      0000000000000000000000000000000000000000000000000000RAILINGS                            0000000000　　　　　　　　　　　　　　　　　　0000000000　　　　　　　　　　　　　　　　　　0000000000000000000000
SEB2005102420051015B60000080140000000000VOUVRAY                             00210004000000ムーディ000000　　　　　　　　　　　　　　　　　　　　　　　　　　　　　　　　　　　　　　　　　　　　　　　　　　　　　　　　　　　　　　　　　　　　　　　　　　　　　　　　　　　　　　　　　　　　515000000000000000シーマー　　　　00       01818000000A        0000000000000000000000000000000000000000000000000000RAILINGS                            0000000000　　　　　　　　　　　　　　　　　　0000000000　　　　　　　　　　　　　　　　　　0000000000000000000000
SEB2005102420051015B60000080150000000000WILD IRIS                           00210004000000ウォルタ000000　　　　　　　　　　　　　　　　　　　　　　　　　　　　　　　　　　　　　　　　　　　　　　　　　　　　　　　　　　　　　　　　　　　　　　　　　　　　　　　　　　　　　　　　　　　　515000000000000000オハラ　　　　　00       01717000000K        0000000000000000000000000000000000000000000000000000RAILINGS                            0000000000　　　　　　　　　　　　　　　　　　0000000000　　　　　　　　　　　　　　　　　　0000000000000000000000
SEB2005102420051015B60000080160000000000EL SEGUNDO                          00310004000000リトル　000000　　　　　　　　　　　　　　　　　　　　　　　　　　　　　　　　　　　　　　　　　　　　　　　　　　　　　　　　　　　　　　　　　　　　　　　　　　　　　　　　　　　　　　　　　　　　495000000000000000ガウチ　　　　　00       00606000000 34      0000000000000000000000000000000000000000000000000000RAILINGS                            0000000000　　　　　　　　　　　　　　　　　　0000000000　　　　　　　　　　　　　　　　　　0000000000000000000000
SEB2005102420051015B60000080170000000000IRISH DARLING                       00210003000000バシル　000000　　　　　　　　　　　　　　　　　　　　　　　　　　　　　　　　　　　　　　　　　　　　　　　　　　　　　　　　　　　　　　　　　　　　　　　　　　　　　　　　　　　　　　　　　　　　495000000000000000ムーア　　　　　00       01414000000H        0000000000000000000000000000000000000000000000000000RAILINGS                            0000000000　　　　　　　　　　　　　　　　　　0000000000　　　　　　　　　　　　　　　　　　0000000000000000000000
SEB2005102420051015B60000080180000000000LEICA FALCON                        00310004000000フライヤ000000　　　　　　　　　　　　　　　　　　　　　　　　　　　　　　　　　　　　　　　　　　　　　　　　　　　　　　　　　　　　　　　　　　　　　　　　　　　　　　　　　　　　　　　　　　　　480000000000000000ウイリア　　　　00       00505000000H        0000000000000000000000000000000000000000000000000000RAILINGS                            0000000000　　　　　　　　　　　　　　　　　　0000000000　　　　　　　　　　　　　　　　　　0000000000000000000000
SEB2005102420051015B60000080190000000000LACHLAN RIVER                       00310003000000モリッシ000000　　　　　　　　　　　　　　　　　　　　　　　　　　　　　　　　　　　　　　　　　　　　　　　　　　　　　　　　　　　　　　　　　　　　　　　　　　　　　　　　　　　　　　　　　　　　515000000000000000キング　　　　　00       01313000000114      0000000000000000000000000000000000000000000000000000RAILINGS                            0000000000　　　　　　　　　　　　　　　　　　0000000000　　　　　　　　　　　　　　　　　　0000000000000000000000
SEB2005102420051015B60000080200000000000NATURAL BLITZ                       00110006000000ハリソン000000　　　　　　　　　　　　　　　　　　　　　　　　　　　　　　　　　　　　　　　　　　　　　　　　　　　　　　　　　　　　　　　　　　　　　　　　　　　　　　　　　　　　　　　　　　　　530000000000000000カヒール　　　　00       00404000000 34      0000000000000000000000000000000000000000000000000000RAILINGS                            0000000000　　　　　　　　　　　　　　　　　　0000000000　　　　　　　　　　　　　　　　　　0000000000000000000000
SEB2005102420051015B60000080210000000000BAZELLE                             00210005000000ジェンキ000000　　　　　　　　　　　　　　　　　　　　　　　　　　　　　　　　　　　　　　　　　　　　　　　　　　　　　　　　　　　　　　　　　　　　　　　　　　　　　　　　　　　　　　　　　　　　505000000000000000　　　　　　　　00       10000000000         0000000000000000000000000000000000000009990000000000RAILINGS                            0000000000　　　　　　　　　　　　　　　　　　0000000000　　　　　　　　　　　　　　　　　　9999000000000000000000
SEB2005103120051022B60000070010000000000GREYS INN                           00110005000000コック　000000　　　　　　　　　　　　　　　　　　　　　　　　　　　　　　　　　　　　　　　　　　　　　　　　　　　　　　　　　　　　　　　　　　　　　　　　　　　　　　　　　　　　　　　　　　　　580000000000000000マウイン　　　　00       01010000000 12      0000000000000000000000000000000000000000001999190014マカイビーディーヴァ　　　　　　　　0000000000　　　　　　　　　　　　　　　　　　0000000000　　　　　　　　　　　　　　　　　　0000000000000000000000
SEB2005103120051022B60000070020000000000LAD OF THE MANOR                    00310005000000ホイステ000000　　　　　　　　　　　　　　　　　　　　　　　　　　　　　　　　　　　　　　　　　　　　　　　　　　　　　　　　　　　　　　　　　　　　　　　　　　　　　　　　　　　　　　　　　　　　580000000000000000ジョーン　　　　00       00505000000H        0000000000000000000000000000000000000000001999190014マカイビーディーヴァ　　　　　　　　0000000000　　　　　　　　　　　　　　　　　　0000000000　　　　　　　　　　　　　　　　　　0000000000000000000000
SEB2005103120051022B60000070030000000000SUPER KID                           00110006000000ムーア　000000　　　　　　　　　　　　　　　　　　　　　　　　　　　　　　　　　　　　　　　　　　　　　　　　　　　　　　　　　　　　　　　　　　　　　　　　　　　　　　　　　　　　　　　　　　　　580000000000000000ロウィラ　　　　00       007070000001        0000000000000000000000000000000000000000001999190014マカイビーディーヴァ　　　　　　　　0000000000　　　　　　　　　　　　　　　　　　0000000000　　　　　　　　　　　　　　　　　　0000000000000000000000
SEB2005103120051022B60000070040000000000CONFECTIONER                        00310005000000ヘイズ　000000　　　　　　　　　　　　　　　　　　　　　　　　　　　　　　　　　　　　　　　　　　　　　　　　　　　　　　　　　　　　　　　　　　　　　　　　　　　　　　　　　　　　　　　　　　　　580000000000000000ウイリア　　　　00       00606000000214      0000000000000000000000000000000000000000001999190014マカイビーディーヴァ　　　　　　　　0000000000　　　　　　　　　　　　　　　　　　0000000000　　　　　　　　　　　　　　　　　　0000000000000000000000
SEB2005103120051022B60000070050000000000DESERT WAR                          00310005000000ウォータ000000　　　　　　　　　　　　　　　　　　　　　　　　　　　　　　　　　　　　　　　　　　　　　　　　　　　　　　　　　　　　　　　　　　　　　　　　　　　　　　　　　　　　　　　　　　　　580000000000000000キャシデ　　　　00       012120000001        0000000000000000000000000000000000000000001999190014マカイビーディーヴァ　　　　　　　　0000000000　　　　　　　　　　　　　　　　　　0000000000　　　　　　　　　　　　　　　　　　0000000000000000000000
SEB2005103120051022B60000070061997190015フィールズオブオマー　　　　　　　　00310308000000ヘイズ　121008Ｂ．マーティン　　　　　　　　　　　　　　　　　　　　　　　　　　　　　　　　　　　　　　　　　　　　　　　　　　　　　　　　　　　　　　　　　　　　　　　　　　　　　　　　　　　　　580000000000000000キング　　　　　00       00303000000H        0000000000000000000000000000000000000000001999190014マカイビーディーヴァ　　　　　　　　0000000000　　　　　　　　　　　　　　　　　　0000000000　　　　　　　　　　　　　　　　　　0000000000000000000000
SEB2005103120051022B60000070071998104051トーセンダンディ　　　　　　　　　　10110307200427森秀行　270006島川　隆哉　　　　　　　　　　　　　　　　　　　　　　　　　　　緑，青菱山形，青袖　　　　　　　　　　　　　　　　　　　　　　　　　　　　　　　　　　　　　　　　　　　　　　　　　　　580000000504100000吉田稔　　　　　00       01111000000K        0000000000000000000000000000000000000000001999190014マカイビーディーヴァ　　　　　　　　0000000000　　　　　　　　　　　　　　　　　　0000000000　　　　　　　　　　　　　　　　　　0000000000000000000000
SEB2005103120051022B60000070080000000000XCELLENT                            00310004000000マロニー000000　　　　　　　　　　　　　　　　　　　　　　　　　　　　　　　　　　　　　　　　　　　　　　　　　　　　　　　　　　　　　　　　　　　　　　　　　　　　　　　　　　　　　　　　　　　　565000000000000000コールマ　　　　00       00909000000H        0000000000000000000000000000000000000000001999190014マカイビーディーヴァ　　　　　　　　0000000000　　　　　　　　　　　　　　　　　　0000000000　　　　　　　　　　　　　　　　　　0000000000000000000000
SEB2005103120051022B60000070090000000000OUTBACK PRINCE                      00110004000000カミング000000　　　　　　　　　　　　　　　　　　　　　　　　　　　　　　　　　　　　　　　　　　　　　　　　　　　　　　　　　　　　　　　　　　　　　　　　　　　　　　　　　　　　　　　　　　　　565000000000000000ビードマ　　　　00       013130000005        0000000000000000000000000000000000000000001999190014マカイビーディーヴァ　　　　　　　　0000000000　　　　　　　　　　　　　　　　　　0000000000　　　　　　　　　　　　　　　　　　0000000000000000000000
SEB2005103120051022B60000070101999190014マカイビーディーヴァ　　　　　　　　00210306000859フリード705800エミリー・クリスティーナ・オーストラリア　　　　　　　　　　　　　　　　　　　　　　　　　　　　　　　　　　　　　　　　　　　　　　　　　　　　　　　　　　　　　　　　　　　　　　　　555000000000000000ボス　　　　　　00       00101002092         0000000000000000000000000000000000000000000000000000LOTTERIA                            0000000000　　　　　　　　　　　　　　　　　　0000000000　　　　　　　　　　　　　　　　　　0000000000000000000000
SEB2005103120051022B60000070110000000000SKY CUDDLE                          00210005000000ムーディ000000　　　　　　　　　　　　　　　　　　　　　　　　　　　　　　　　　　　　　　　　　　　　　　　　　　　　　　　　　　　　　　　　　　　　　　　　　　　　　　　　　　　　　　　　　　　　555000000000000000チャイル　　　　00       00404000000212      0000000000000000000000000000000000000000001999190014マカイビーディーヴァ　　　　　　　　0000000000　　　　　　　　　　　　　　　　　　0000000000　　　　　　　　　　　　　　　　　　0000000000000000000000
SEB2005103120051022B60000070120000000000LOTTERIA                            00210004000000ウォータ000000　　　　　　　　　　　　　　　　　　　　　　　　　　　　　　　　　　　　　　　　　　　　　　　　　　　　　　　　　　　　　　　　　　　　　　　　　　　　　　　　　　　　　　　　　　　　540000000000000000マンス　　　　　00       00202000000114      0000000000000000000000000000000000000000001999190014マカイビーディーヴァ　　　　　　　　0000000000　　　　　　　　　　　　　　　　　　0000000000　　　　　　　　　　　　　　　　　　0000000000000000000000
SEB2005103120051022B60000070130000000000GOD'S OWN                           00110003000000カミング000000　　　　　　　　　　　　　　　　　　　　　　　　　　　　　　　　　　　　　　　　　　　　　　　　　　　　　　　　　　　　　　　　　　　　　　　　　　　　　　　　　　　　　　　　　　　　485000000000000000バスター　　　　00       00808000000A        0000000000000000000000000000000000000000001999190014マカイビーディーヴァ　　　　　　　　0000000000　　　　　　　　　　　　　　　　　　0000000000　　　　　　　　　　　　　　　　　　0000000000000000000000
SEB2005103120051022B60000070140000000000HOTEL GRAND                         00110003000000カミング000000　　　　　　　　　　　　　　　　　　　　　　　　　　　　　　　　　　　　　　　　　　　　　　　　　　　　　　　　　　　　　　　　　　　　　　　　　　　　　　　　　　　　　　　　　　　　485000000000000000フォード　　　　00       01414000000 12      0000000000000000000000000000000000000000001999190014マカイビーディーヴァ　　　　　　　　0000000000　　　　　　　　　　　　　　　　　　0000000000　　　　　　　　　　　　　　　　　　0000000000000000000000
SEB2005112420050115A40000090072001190006タップデイ　　　　　　　　　　　　　00110404000877ヘニグ　658008Ｅ．エヴァンス　　　　　　　　　　　　　　　　　　　　　　　　　　　　　　　　　　　　　　　　　　　　　　　　　　　　　　　　　　　　　　　　　　　　　　　　　　　　　　　　　　　　　555000000000000000ベレス　　　　　00       00505001306         0000000000000000000000000000000000000000000000000000QUEST                               0000000000　　　　　　　　　　　　　　　　　　0000000000　　　　　　　　　　　　　　　　　　+016000000000000000000
SEB2005112420050129A40000100072001190007ラヴァマン　　　　　　　　　　　　　00310404005475オニール657008Ｊ．ウッド　　　　　　　　　　　　　　　　　　　　　　　　　　　　　　　　　　　　　　　　　　　　　　　　　　　　　　　　　　　　　　　　　　　　　　　　　　　　　　　　　　　　　　　545000000000000000コート　　　　　00       00707001515         0000000000000000000000000000000000000000000000000000MUSIQUE TOUJOURS                    0000000000　　　　　　　　　　　　　　　　　　0000000000　　　　　　　　　　　　　　　　　　+024000000000000000000
SEB2005112420050129A60000060092001190005エキセントリック　　　　　　　　　　00310104005558リード　000000　　　　　　　　　　　　　　　　　　　　　　　　　　　　　　　　　　　　　　　　　　　　　　　　　　　　　　　　　　　　　　　　　　　　　　　　　　　　　　　　　　　　　　　　　　　　520000000000000000イーガン　　　　00       00101002083         0000000000000000000000000000000000000000000000000000LITTLE GOOD BAY                     0000000000　　　　　　　　　　　　　　　　　　0000000000　　　　　　　　　　　　　　　　　　0000000000000000000000
SEB2005112420050201A60000050022001190005エキセントリック　　　　　　　　　　00310104005558リード　000000　　　　　　　　　　　　　　　　　　　　　　　　　　　　　　　　　　　　　　　　　　　　　　　　　　　　　　　　　　　　　　　　　　　　　　　　　　　　　　　　　　　　　　　　　　　　570000000000000000イーガン　　　　00       00101001358         0000000000000000000000000000000000000000000000000000SECRET PLACE                        0000000000　　　　　　　　　　　　　　　　　　0000000000　　　　　　　　　　　　　　　　　　0000000000000000000000
SEB2005112420050212A60000030102001190005エキセントリック　　　　　　　　　　00310104005558リード　933007Ｇ．タナカ　　　　　　　　　　　　　　　　　　　　　　　　　　　　　　　　　　　　　　　　　　　　　　　　　　　　　　　　　　　　　　　　　　　　　　　　　　　　　　　　　　　　　　　600000000000000000イーガン　　　　00       00202002059134      0000000000000000000000000000000000000000000000000000COUNSEL'S OPINION                   0000000000　　　　　　　　　　　　　　　　　　0000000000　　　　　　　　　　　　　　　　　　+003000000000000000000
SEB2005112420050226A60000050092001190005エキセントリック　　　　　　　　　　00310104005558リード　933007Ｇ．タナカ　　　　　　　　　　　　　　　　　　　　　　　　　　　　　　　　　　　　　　　　　　　　　　　　　　　　　　　　　　　　　　　　　　　　　　　　　　　　　　　　　　　　　　　560000000000000000イーガン　　　　00       00101002052         0000000000000000000000000000000000000000000000000000GIG HARBOR                          0000000000　　　　　　　　　　　　　　　　　　0000000000　　　　　　　　　　　　　　　　　　0000000000000000000000
SEB2005112420050312A40000070022001190006タップデイ　　　　　　　　　　　　　00110404000877ヘニグ　658008Ｅ．エヴァンス　　　　　　　　　　　　　　　　　　　　　　　　　　　　　　　　　　　　　　　　　　　　　　　　　　　　　　　　　　　　　　　　　　　　　　　　　　　　　　　　　　　　　530000000000000000ベレス　　　　　00       00101001445         0000000000000000000000000000000000000000000000000000ABOVE THE WIND                      0000000000　　　　　　　　　　　　　　　　　　0000000000　　　　　　　　　　　　　　　　　　0000000000000000000000
